{
  "contractName": "BridgeManager",
  "abi": [
    {
      "inputs": [],
      "stateMutability": "nonpayable",
      "type": "constructor"
    },
    {
      "anonymous": false,
      "inputs": [
        {
          "indexed": true,
          "internalType": "string",
          "name": "name",
          "type": "string"
        },
        {
          "indexed": false,
          "internalType": "address",
          "name": "tokenAddress",
          "type": "address"
        }
      ],
      "name": "RegisterERC20Token",
      "type": "event"
    },
    {
      "anonymous": false,
      "inputs": [
        {
          "indexed": true,
          "internalType": "string",
          "name": "name",
          "type": "string"
        },
        {
          "indexed": false,
          "internalType": "address",
          "name": "tokenAddress",
          "type": "address"
        }
      ],
      "name": "RegisterERC721Token",
      "type": "event"
    },
    {
      "anonymous": false,
      "inputs": [
        {
          "indexed": true,
          "internalType": "bytes32",
          "name": "role",
          "type": "bytes32"
        },
        {
          "indexed": true,
          "internalType": "bytes32",
          "name": "previousAdminRole",
          "type": "bytes32"
        },
        {
          "indexed": true,
          "internalType": "bytes32",
          "name": "newAdminRole",
          "type": "bytes32"
        }
      ],
      "name": "RoleAdminChanged",
      "type": "event"
    },
    {
      "anonymous": false,
      "inputs": [
        {
          "indexed": true,
          "internalType": "bytes32",
          "name": "role",
          "type": "bytes32"
        },
        {
          "indexed": true,
          "internalType": "address",
          "name": "account",
          "type": "address"
        },
        {
          "indexed": true,
          "internalType": "address",
          "name": "sender",
          "type": "address"
        }
      ],
      "name": "RoleGranted",
      "type": "event"
    },
    {
      "anonymous": false,
      "inputs": [
        {
          "indexed": true,
          "internalType": "bytes32",
          "name": "role",
          "type": "bytes32"
        },
        {
          "indexed": true,
          "internalType": "address",
          "name": "account",
          "type": "address"
        },
        {
          "indexed": true,
          "internalType": "address",
          "name": "sender",
          "type": "address"
        }
      ],
      "name": "RoleRevoked",
      "type": "event"
    },
    {
      "anonymous": false,
      "inputs": [
        {
          "indexed": true,
          "internalType": "string",
          "name": "name",
          "type": "string"
        }
      ],
      "name": "UnRegisterERC20Token",
      "type": "event"
    },
    {
      "anonymous": false,
      "inputs": [
        {
          "indexed": true,
          "internalType": "string",
          "name": "name",
          "type": "string"
        }
      ],
      "name": "UnRegisterERC721Token",
      "type": "event"
    },
    {
      "inputs": [],
      "name": "DEFAULT_ADMIN_ROLE",
      "outputs": [
        {
          "internalType": "bytes32",
          "name": "",
          "type": "bytes32"
        }
      ],
      "stateMutability": "view",
      "type": "function",
      "constant": true
    },
    {
      "inputs": [],
      "name": "REGISTER_ROLE",
      "outputs": [
        {
          "internalType": "bytes32",
          "name": "",
          "type": "bytes32"
        }
      ],
      "stateMutability": "view",
      "type": "function",
      "constant": true
    },
    {
      "inputs": [
        {
          "internalType": "string",
          "name": "",
          "type": "string"
        }
      ],
      "name": "contractAddressERC20",
      "outputs": [
        {
          "internalType": "address",
          "name": "",
          "type": "address"
        }
      ],
      "stateMutability": "view",
      "type": "function",
      "constant": true
    },
    {
      "inputs": [
        {
          "internalType": "string",
          "name": "",
          "type": "string"
        }
      ],
      "name": "contractAddressERC721",
      "outputs": [
        {
          "internalType": "address",
          "name": "",
          "type": "address"
        }
      ],
      "stateMutability": "view",
      "type": "function",
      "constant": true
    },
    {
      "inputs": [
        {
          "internalType": "bytes32",
          "name": "role",
          "type": "bytes32"
        }
      ],
      "name": "getRoleAdmin",
      "outputs": [
        {
          "internalType": "bytes32",
          "name": "",
          "type": "bytes32"
        }
      ],
      "stateMutability": "view",
      "type": "function",
      "constant": true
    },
    {
      "inputs": [
        {
          "internalType": "bytes32",
          "name": "role",
          "type": "bytes32"
        },
        {
          "internalType": "uint256",
          "name": "index",
          "type": "uint256"
        }
      ],
      "name": "getRoleMember",
      "outputs": [
        {
          "internalType": "address",
          "name": "",
          "type": "address"
        }
      ],
      "stateMutability": "view",
      "type": "function",
      "constant": true
    },
    {
      "inputs": [
        {
          "internalType": "bytes32",
          "name": "role",
          "type": "bytes32"
        }
      ],
      "name": "getRoleMemberCount",
      "outputs": [
        {
          "internalType": "uint256",
          "name": "",
          "type": "uint256"
        }
      ],
      "stateMutability": "view",
      "type": "function",
      "constant": true
    },
    {
      "inputs": [
        {
          "internalType": "bytes32",
          "name": "role",
          "type": "bytes32"
        },
        {
          "internalType": "address",
          "name": "account",
          "type": "address"
        }
      ],
      "name": "grantRole",
      "outputs": [],
      "stateMutability": "nonpayable",
      "type": "function"
    },
    {
      "inputs": [
        {
          "internalType": "bytes32",
          "name": "role",
          "type": "bytes32"
        },
        {
          "internalType": "address",
          "name": "account",
          "type": "address"
        }
      ],
      "name": "hasRole",
      "outputs": [
        {
          "internalType": "bool",
          "name": "",
          "type": "bool"
        }
      ],
      "stateMutability": "view",
      "type": "function",
      "constant": true
    },
    {
      "inputs": [
        {
          "internalType": "bytes32",
          "name": "role",
          "type": "bytes32"
        },
        {
          "internalType": "address",
          "name": "account",
          "type": "address"
        }
      ],
      "name": "renounceRole",
      "outputs": [],
      "stateMutability": "nonpayable",
      "type": "function"
    },
    {
      "inputs": [
        {
          "internalType": "bytes32",
          "name": "role",
          "type": "bytes32"
        },
        {
          "internalType": "address",
          "name": "account",
          "type": "address"
        }
      ],
      "name": "revokeRole",
      "outputs": [],
      "stateMutability": "nonpayable",
      "type": "function"
    },
    {
      "inputs": [],
      "name": "getAllErc20Registered",
      "outputs": [
        {
          "components": [
            {
              "internalType": "string",
              "name": "name",
              "type": "string"
            },
            {
              "internalType": "string",
              "name": "symbol",
              "type": "string"
            },
            {
              "internalType": "address",
              "name": "deployedAddress",
              "type": "address"
            }
          ],
          "internalType": "struct BridgeManager.registeredToken[]",
          "name": "",
          "type": "tuple[]"
        }
      ],
      "stateMutability": "view",
      "type": "function",
      "constant": true
    },
    {
      "inputs": [],
      "name": "getAllErc20Count",
      "outputs": [
        {
          "internalType": "uint256",
          "name": "",
          "type": "uint256"
        }
      ],
      "stateMutability": "view",
      "type": "function",
      "constant": true
    },
    {
      "inputs": [],
      "name": "getAllErc721Registered",
      "outputs": [
        {
          "components": [
            {
              "internalType": "string",
              "name": "name",
              "type": "string"
            },
            {
              "internalType": "string",
              "name": "symbol",
              "type": "string"
            },
            {
              "internalType": "address",
              "name": "deployedAddress",
              "type": "address"
            }
          ],
          "internalType": "struct BridgeManager.registeredToken[]",
          "name": "",
          "type": "tuple[]"
        }
      ],
      "stateMutability": "view",
      "type": "function",
      "constant": true
    },
    {
      "inputs": [],
      "name": "getAllErc721Count",
      "outputs": [
        {
          "internalType": "uint256",
          "name": "",
          "type": "uint256"
        }
      ],
      "stateMutability": "view",
      "type": "function",
      "constant": true
    },
    {
      "inputs": [
        {
          "internalType": "string",
          "name": "tokenName",
          "type": "string"
        },
        {
          "internalType": "string",
          "name": "tokenSymbol",
          "type": "string"
        },
        {
          "internalType": "address",
          "name": "tokenContractAddress",
          "type": "address"
        }
      ],
      "name": "registerTokenERC20",
      "outputs": [],
      "stateMutability": "nonpayable",
      "type": "function"
    },
    {
      "inputs": [
        {
          "internalType": "string",
          "name": "tokenName",
          "type": "string"
        },
        {
          "internalType": "string",
          "name": "tokenSymbol",
          "type": "string"
        },
        {
          "internalType": "address",
          "name": "tokenContractAddress",
          "type": "address"
        }
      ],
      "name": "registerTokenERC721",
      "outputs": [],
      "stateMutability": "nonpayable",
      "type": "function"
    }
  ],
  "bytecode": "0x6080604052600180546001600160a01b03191690553480156200002157600080fd5b50620000386000620000326200006d565b62000071565b620000677fd1f21ec03a6eb050fba156f5316dad461735df521fb446dd42c5a4728e9c70fe620000326200006d565b62000181565b3390565b6200007d828262000081565b5050565b600082815260208181526040909120620000a691839062000b36620000fa821b17901c565b156200007d57620000b66200006d565b6001600160a01b0316816001600160a01b0316837f2f8788117e7eff1d82e926ec794901d17c78024a50270940304540a733656f0d60405160405180910390a45050565b600062000111836001600160a01b0384166200011a565b90505b92915050565b600062000128838362000169565b620001605750815460018181018455600084815260208082209093018490558454848252828601909352604090209190915562000114565b50600062000114565b60009081526001919091016020526040902054151590565b6113ec80620001916000396000f3fe608060405234801561001057600080fd5b506004361061010b5760003560e01c806374f53317116100a2578063a217fddf11610071578063a217fddf146101fc578063c082713b14610204578063ca15c87314610217578063d547741f1461022a578063dd2c859c1461023d5761010b565b806374f53317146101b95780639010d07c146101c157806391d14854146101d45780639f45c1d3146101f45761010b565b8063455686c3116100de578063455686c31461016957806346dffca01461017157806353206452146101915780635d099ca7146101a65761010b565b806301ab669c14610110578063248a9ca31461012e5780632f2ff15d1461014157806336568abe14610156575b600080fd5b610118610250565b6040516101259190611124565b60405180910390f35b61011861013c366004610f0e565b610256565b61015461014f366004610f26565b61026b565b005b610154610164366004610f26565b6102bc565b6101186102fe565b61018461017f366004610f76565b610304565b604051610125919061106e565b61019961032a565b6040516101259190611082565b6101846101b4366004610f76565b6104d0565b6101186104f6565b6101846101cf366004610f55565b61051a565b6101e76101e2366004610f26565b61053b565b6040516101259190611119565b610199610553565b6101186106f0565b610154610212366004610fb1565b6106f5565b610118610225366004610f0e565b6108f6565b610154610238366004610f26565b61090d565b61015461024b366004610fb1565b610947565b60045490565b60009081526020819052604090206002015490565b600082815260208190526040902060020154610289906101e2610b4b565b6102ae5760405162461bcd60e51b81526004016102a59061116f565b60405180910390fd5b6102b88282610b4f565b5050565b6102c4610b4b565b6001600160a01b0316816001600160a01b0316146102f45760405162461bcd60e51b81526004016102a590611311565b6102b88282610bb8565b60025490565b80516020818301810180516005825292820191909301209152546001600160a01b031681565b60606002805480602002602001604051908101604052809291908181526020016000905b828210156104c75760008481526020908190206040805160038602909201805460026001821615610100026000190190911604601f81018590049094028301608090810190925260608301848152929390928492909184918401828280156103f75780601f106103cc576101008083540402835291602001916103f7565b820191906000526020600020905b8154815290600101906020018083116103da57829003601f168201915b50505050508152602001600182018054600181600116156101000203166002900480601f0160208091040260200160405190810160405280929190818152602001828054600181600116156101000203166002900480156104995780601f1061046e57610100808354040283529160200191610499565b820191906000526020600020905b81548152906001019060200180831161047c57829003601f168201915b5050509183525050600291909101546001600160a01b0316602091820152908252600192909201910161034e565b50505050905090565b80516020818301810180516003825292820191909301209152546001600160a01b031681565b7fd1f21ec03a6eb050fba156f5316dad461735df521fb446dd42c5a4728e9c70fe81565b60008281526020819052604081206105329083610c21565b90505b92915050565b60008281526020819052604081206105329083610c2d565b60606004805480602002602001604051908101604052809291908181526020016000905b828210156104c75760008481526020908190206040805160038602909201805460026001821615610100026000190190911604601f81018590049094028301608090810190925260608301848152929390928492909184918401828280156106205780601f106105f557610100808354040283529160200191610620565b820191906000526020600020905b81548152906001019060200180831161060357829003601f168201915b50505050508152602001600182018054600181600116156101000203166002900480601f0160208091040260200160405190810160405280929190818152602001828054600181600116156101000203166002900480156106c25780601f10610697576101008083540402835291602001916106c2565b820191906000526020600020905b8154815290600101906020018083116106a557829003601f168201915b5050509183525050600291909101546001600160a01b03166020918201529082526001929092019101610577565b600081565b8251839081906107175760405162461bcd60e51b81526004016102a590611229565b8351849081906107395760405162461bcd60e51b81526004016102a590611229565b6001546040516001600160a01b0390911690600590610759908990611052565b908152604051908190036020019020546001600160a01b03161461078f5760405162461bcd60e51b81526004016102a5906111cc565b60198651106107b05760405162461bcd60e51b81526004016102a5906112cd565b846005876040516107c19190611052565b90815260405190819003602001902080546001600160a01b03929092166001600160a01b03199092169190911790556107f8610dd3565b87815260208082018890526001600160a01b03871660408301526004805460018101825560009190915282518051849360039093027f8a35acfbc15ff81a39ae7d344fd709f28e8600b4aa8c65c6b64bfe7fe36bd19b019261085e928492910190610dfd565b5060208281015180516108779260018501920190610dfd565b5060409182015160029190910180546001600160a01b0319166001600160a01b03909216919091179055516108ad908890611052565b60405180910390207f8b716abc5c12b2b1b216049f179e5b7ea408a5a96880c14d00b5c83282e43b95876040516108e4919061106e565b60405180910390a25050505050505050565b600081815260208190526040812061053590610c42565b60008281526020819052604090206002015461092b906101e2610b4b565b6102f45760405162461bcd60e51b81526004016102a590611270565b8251839081906109695760405162461bcd60e51b81526004016102a590611229565b83518490819061098b5760405162461bcd60e51b81526004016102a590611229565b6001546040516001600160a01b03909116906003906109ab908990611052565b908152604051908190036020019020546001600160a01b0316146109e15760405162461bcd60e51b81526004016102a5906111cc565b6019865110610a025760405162461bcd60e51b81526004016102a5906112cd565b84600387604051610a139190611052565b90815260405190819003602001902080546001600160a01b03929092166001600160a01b0319909216919091179055610a4a610dd3565b87815260208082018890526001600160a01b03871660408301526002805460018101825560009190915282518051849360039093027f405787fa12a823e0f2b7631cc41b3ba8828b3321ca811111fa75cd3aa3bb5ace0192610ab0928492910190610dfd565b506020828101518051610ac99260018501920190610dfd565b5060409182015160029190910180546001600160a01b0319166001600160a01b0390921691909117905551610aff908890611052565b60405180910390207f8332d9919bf32207cb796a0a21674da0f96c4d6f2257c02073ff112e117bff0c876040516108e4919061106e565b6000610532836001600160a01b038416610c4d565b3390565b6000828152602081905260409020610b679082610b36565b156102b857610b74610b4b565b6001600160a01b0316816001600160a01b0316837f2f8788117e7eff1d82e926ec794901d17c78024a50270940304540a733656f0d60405160405180910390a45050565b6000828152602081905260409020610bd09082610c97565b156102b857610bdd610b4b565b6001600160a01b0316816001600160a01b0316837ff6391f5c32d9c69d2a47ea670b442974b53935d1edc7fd64eb21e047a839171b60405160405180910390a45050565b60006105328383610cac565b6000610532836001600160a01b038416610cf1565b600061053582610d09565b6000610c598383610cf1565b610c8f57508154600181810184556000848152602080822090930184905584548482528286019093526040902091909155610535565b506000610535565b6000610532836001600160a01b038416610d0d565b81546000908210610ccf5760405162461bcd60e51b81526004016102a59061112d565b826000018281548110610cde57fe5b9060005260206000200154905092915050565b60009081526001919091016020526040902054151590565b5490565b60008181526001830160205260408120548015610dc95783546000198083019190810190600090879083908110610d4057fe5b9060005260206000200154905080876000018481548110610d5d57fe5b600091825260208083209091019290925582815260018981019092526040902090840190558654879080610d8d57fe5b60019003818190600052602060002001600090559055866001016000878152602001908152602001600020600090556001945050505050610535565b6000915050610535565b6040518060600160405280606081526020016060815260200160006001600160a01b031681525090565b828054600181600116156101000203166002900490600052602060002090601f016020900481019282601f10610e3e57805160ff1916838001178555610e6b565b82800160010185558215610e6b579182015b82811115610e6b578251825591602001919060010190610e50565b50610e77929150610e7b565b5090565b5b80821115610e775760008155600101610e7c565b600082601f830112610ea0578081fd5b813567ffffffffffffffff80821115610eb7578283fd5b604051601f8301601f191681016020018281118282101715610ed7578485fd5b604052828152925082848301602001861015610ef257600080fd5b8260208601602083013760006020848301015250505092915050565b600060208284031215610f1f578081fd5b5035919050565b60008060408385031215610f38578081fd5b823591506020830135610f4a8161139e565b809150509250929050565b60008060408385031215610f67578182fd5b50508035926020909101359150565b600060208284031215610f87578081fd5b813567ffffffffffffffff811115610f9d578182fd5b610fa984828501610e90565b949350505050565b600080600060608486031215610fc5578081fd5b833567ffffffffffffffff80821115610fdc578283fd5b610fe887838801610e90565b94506020860135915080821115610ffd578283fd5b5061100a86828701610e90565b925050604084013561101b8161139e565b809150509250925092565b6000815180845261103e81602086016020860161136e565b601f01601f19169290920160200192915050565b6000825161106481846020870161136e565b9190910192915050565b6001600160a01b0391909116815260200190565b60208082528251828201819052600091906040908185019080840286018301878501865b8381101561110b57603f198984030185528151606081518186526110cc82870182611026565b915050888201518582038a8701526110e48282611026565b928901516001600160a01b03169589019590955250948701949250908601906001016110a6565b509098975050505050505050565b901515815260200190565b90815260200190565b60208082526022908201527f456e756d657261626c655365743a20696e646578206f7574206f6620626f756e604082015261647360f01b606082015260800190565b6020808252602f908201527f416363657373436f6e74726f6c3a2073656e646572206d75737420626520616e60408201527f2061646d696e20746f206772616e740000000000000000000000000000000000606082015260800190565b60208082526032908201527f4272696467654d616e616765723a20746f6b656e20616464726573732069732060408201527f616c726561647920726567697374657265640000000000000000000000000000606082015260800190565b60208082526027908201527f4272696467654d616e616765723a20746f6b656e4e616d652063616e277420626040820152666520656d70747960c81b606082015260800190565b60208082526030908201527f416363657373436f6e74726f6c3a2073656e646572206d75737420626520616e60408201527f2061646d696e20746f207265766f6b6500000000000000000000000000000000606082015260800190565b60208082526024908201527f4272696467654d616e616765723a20746f6b656e2053796d626f6c20746f6f206040820152636c6f6e6760e01b606082015260800190565b6020808252602f908201527f416363657373436f6e74726f6c3a2063616e206f6e6c792072656e6f756e636560408201527f20726f6c657320666f722073656c660000000000000000000000000000000000606082015260800190565b60005b83811015611389578181015183820152602001611371565b83811115611398576000848401525b50505050565b6001600160a01b03811681146113b357600080fd5b5056fea264697066735822122004cfb76d6700c9b6094644630b487261203ffa24803aea2030c46850215b51fe64736f6c634300060c0033",
  "immutableReferences": {},
  "source": "// SPDX-License-Identifier: MIT\npragma solidity ^0.6.12;\npragma experimental ABIEncoderV2;\n\nimport \"@openzeppelin/contracts/access/AccessControl.sol\";\nimport \"@openzeppelin/contracts/token/ERC20/IERC20.sol\";\nimport \"@openzeppelin/contracts/token/ERC721/IERC721.sol\";\n// import \"https://github.com/OpenZeppelin/openzeppelin-contracts/blob/master/contracts/access/AccessControl.sol\";\n// import \"https://github.com/OpenZeppelin/openzeppelin-contracts/blob/master/contracts/token/ERC20/IERC20.sol\";\n// import \"https://github.com/OpenZeppelin/openzeppelin-contracts/blob/master/contracts/token/ERC721/IERC721.sol\";\n\n/// @author The PRIVI Blockchain team\n/// @title Manages Bridge with ethereum, ERC20 tokens and ERC721 tokens between Users on Ethereum and PRIVI platform\n\ncontract BridgeManager is AccessControl{\n    bytes32 public constant REGISTER_ROLE = keccak256(\"REGISTER_ROLE\");\n    address private ZERO_ADDRESS = 0x0000000000000000000000000000000000000000;\n    \n    struct registeredToken {\n        string name;\n        string symbol;\n        address deployedAddress;\n    }\n    \n    registeredToken[] private erc20RegisteredArray;\n    mapping(string => address) public contractAddressERC20;\n    registeredToken[] private erc721RegisteredArray;\n    mapping(string => address) public contractAddressERC721;\n\n    event RegisterERC20Token(string indexed name, address tokenAddress);\n    event UnRegisterERC20Token(string indexed name);\n    event RegisterERC721Token(string indexed name, address tokenAddress);\n    event UnRegisterERC721Token(string indexed name);\n\n    /**\n     * @notice  Modifier to require 'tokenName' is not empty\n     * @param   tokenNameToCheck Token name to be checked\n     */\n    modifier tokenNameIsNotEmpty(string memory tokenNameToCheck) {\n        bytes memory bytesTokenName = bytes(tokenNameToCheck);\n        require(bytesTokenName.length != 0, \"BridgeManager: tokenName can't be empty\");\n        _;\n    }\n\n    /**\n     * @notice Constructor to assign all roles to contract creator\n     */\n    constructor() public {\n        _setupRole(DEFAULT_ADMIN_ROLE, _msgSender());\n        _setupRole(REGISTER_ROLE, _msgSender());\n    }\n    \n    /**\n     * @notice get an array of all registeder erc20 tokens\n     */\n    function getAllErc20Registered() public view returns(registeredToken[] memory) {\n        return erc20RegisteredArray;\n    }\n    \n    /**\n     * @notice get count of all registeder erc20 tokens\n     */\n    function getAllErc20Count() public view returns(uint256) {\n        return erc20RegisteredArray.length;\n    }\n    \n    /**\n     * @notice get an array of all registeder erc721 tokens\n     */\n    function getAllErc721Registered() public view returns(registeredToken[] memory) {\n        return erc721RegisteredArray;\n    }\n    \n    /**\n     * @notice get count of all registeder erc721 tokens\n     */\n    function getAllErc721Count() public view returns(uint256) {\n        return erc721RegisteredArray.length;\n    }\n    \n    /**\n     * @notice  Register the contract address of an ERC20 Token\n     * @dev     - Token name and address can't be already registered\n     *          - Length of token name can't be higher than 25\n     * @param   tokenName Name of the token to be registered (e.g.: DAI, UNI)\n     * @param   tokenContractAddress Contract address of the ERC20 Token\n     */\n    function registerTokenERC20(string memory tokenName, string memory tokenSymbol, address tokenContractAddress) public tokenNameIsNotEmpty(tokenName) tokenNameIsNotEmpty(tokenSymbol)  {\n        require(contractAddressERC20[tokenSymbol] == ZERO_ADDRESS, \n            \"BridgeManager: token address is already registered\");\n        require(bytes(tokenSymbol).length < 25, \n            \"BridgeManager: token Symbol too long\");\n        contractAddressERC20[tokenSymbol] = tokenContractAddress;\n        registeredToken memory regToken;\n        regToken.name = tokenName;\n        regToken.symbol = tokenSymbol;\n        regToken.deployedAddress = tokenContractAddress;\n        erc20RegisteredArray.push(regToken);\n        emit RegisterERC20Token(tokenSymbol, tokenContractAddress);\n    }\n\n    /**\n     * @notice  Register the contract address of an ERC721 Token\n     * @dev     - Token name and address can't be already registered\n     *          - Length of token name can't be higher than 25\n     * @param   tokenName Name of the token to be registered\n     * @param   tokenContractAddress Contract address of the ERC721 Token\n     */\n    function registerTokenERC721(string memory tokenName, string memory tokenSymbol, address tokenContractAddress) public tokenNameIsNotEmpty(tokenName) tokenNameIsNotEmpty(tokenSymbol) {\n        // require(hasRole(REGISTER_ROLE, _msgSender()), \n        //     \"BridgeManager: must have REGISTER_ROLE to register a token\");\n        require(contractAddressERC721[tokenSymbol] == ZERO_ADDRESS, \n            \"BridgeManager: token address is already registered\");\n        require(bytes(tokenSymbol).length < 25, \n            \"BridgeManager: token Symbol too long\");\n        contractAddressERC721[tokenSymbol] = tokenContractAddress;\n        registeredToken memory regToken;\n        regToken.name = tokenName;\n        regToken.symbol = tokenSymbol;\n        regToken.deployedAddress = tokenContractAddress;\n        erc721RegisteredArray.push(regToken);\n        emit RegisterERC721Token(tokenSymbol, tokenContractAddress);\n    }\n\n}",
  "sourcePath": "/home/rekard0/Documents/WORK/PriviEthereum/PRIVIethereum/contracts/BridgeManager.sol",
  "compiler": {
    "name": "solc",
    "version": "0.6.12+commit.27d51765.Emscripten.clang"
  },
  "schemaVersion": "3.3.3",
  "updatedAt": "2021-02-02T10:06:22.399Z",
  "networkType": "ethereum",
  "devdoc": {
    "author": "The PRIVI Blockchain team",
    "kind": "dev",
    "methods": {
      "getRoleAdmin(bytes32)": {
        "details": "Returns the admin role that controls `role`. See {grantRole} and {revokeRole}. To change a role's admin, use {_setRoleAdmin}."
      },
      "getRoleMember(bytes32,uint256)": {
        "details": "Returns one of the accounts that have `role`. `index` must be a value between 0 and {getRoleMemberCount}, non-inclusive. Role bearers are not sorted in any particular way, and their ordering may change at any point. WARNING: When using {getRoleMember} and {getRoleMemberCount}, make sure you perform all queries on the same block. See the following https://forum.openzeppelin.com/t/iterating-over-elements-on-enumerableset-in-openzeppelin-contracts/2296[forum post] for more information."
      },
      "getRoleMemberCount(bytes32)": {
        "details": "Returns the number of accounts that have `role`. Can be used together with {getRoleMember} to enumerate all bearers of a role."
      },
      "grantRole(bytes32,address)": {
        "details": "Grants `role` to `account`. If `account` had not been already granted `role`, emits a {RoleGranted} event. Requirements: - the caller must have ``role``'s admin role."
      },
      "hasRole(bytes32,address)": {
        "details": "Returns `true` if `account` has been granted `role`."
      },
      "registerTokenERC20(string,string,address)": {
        "details": "- Token name and address can't be already registered          - Length of token name can't be higher than 25",
        "params": {
          "tokenContractAddress": "Contract address of the ERC20 Token",
          "tokenName": "Name of the token to be registered (e.g.: DAI, UNI)"
        }
      },
      "registerTokenERC721(string,string,address)": {
        "details": "- Token name and address can't be already registered          - Length of token name can't be higher than 25",
        "params": {
          "tokenContractAddress": "Contract address of the ERC721 Token",
          "tokenName": "Name of the token to be registered"
        }
      },
      "renounceRole(bytes32,address)": {
        "details": "Revokes `role` from the calling account. Roles are often managed via {grantRole} and {revokeRole}: this function's purpose is to provide a mechanism for accounts to lose their privileges if they are compromised (such as when a trusted device is misplaced). If the calling account had been granted `role`, emits a {RoleRevoked} event. Requirements: - the caller must be `account`."
      },
      "revokeRole(bytes32,address)": {
        "details": "Revokes `role` from `account`. If `account` had been granted `role`, emits a {RoleRevoked} event. Requirements: - the caller must have ``role``'s admin role."
      }
    },
    "title": "Manages Bridge with ethereum, ERC20 tokens and ERC721 tokens between Users on Ethereum and PRIVI platform",
    "version": 1
  },
  "userdoc": {
    "kind": "user",
    "methods": {
      "constructor": "Constructor to assign all roles to contract creator",
      "getAllErc20Count()": {
        "notice": "get count of all registeder erc20 tokens"
      },
      "getAllErc20Registered()": {
        "notice": "get an array of all registeder erc20 tokens"
      },
      "getAllErc721Count()": {
        "notice": "get count of all registeder erc721 tokens"
      },
      "getAllErc721Registered()": {
        "notice": "get an array of all registeder erc721 tokens"
      },
      "registerTokenERC20(string,string,address)": {
        "notice": "Register the contract address of an ERC20 Token"
      },
      "registerTokenERC721(string,string,address)": {
        "notice": "Register the contract address of an ERC721 Token"
      }
    },
    "version": 1
  }
}