{
  "contractName": "BridgeManager",
  "abi": [
    {
      "inputs": [],
      "stateMutability": "nonpayable",
      "type": "constructor"
    },
    {
      "anonymous": false,
      "inputs": [
        {
          "indexed": true,
          "internalType": "string",
          "name": "name",
          "type": "string"
        },
        {
          "indexed": false,
          "internalType": "address",
          "name": "tokenAddress",
          "type": "address"
        }
      ],
      "name": "RegisterERC1155Token",
      "type": "event"
    },
    {
      "anonymous": false,
      "inputs": [
        {
          "indexed": true,
          "internalType": "string",
          "name": "name",
          "type": "string"
        },
        {
          "indexed": false,
          "internalType": "address",
          "name": "tokenAddress",
          "type": "address"
        }
      ],
      "name": "RegisterERC20Token",
      "type": "event"
    },
    {
      "anonymous": false,
      "inputs": [
        {
          "indexed": true,
          "internalType": "string",
          "name": "name",
          "type": "string"
        },
        {
          "indexed": false,
          "internalType": "address",
          "name": "tokenAddress",
          "type": "address"
        }
      ],
      "name": "RegisterERC721Token",
      "type": "event"
    },
    {
      "anonymous": false,
      "inputs": [
        {
          "indexed": true,
          "internalType": "bytes32",
          "name": "role",
          "type": "bytes32"
        },
        {
          "indexed": true,
          "internalType": "bytes32",
          "name": "previousAdminRole",
          "type": "bytes32"
        },
        {
          "indexed": true,
          "internalType": "bytes32",
          "name": "newAdminRole",
          "type": "bytes32"
        }
      ],
      "name": "RoleAdminChanged",
      "type": "event"
    },
    {
      "anonymous": false,
      "inputs": [
        {
          "indexed": true,
          "internalType": "bytes32",
          "name": "role",
          "type": "bytes32"
        },
        {
          "indexed": true,
          "internalType": "address",
          "name": "account",
          "type": "address"
        },
        {
          "indexed": true,
          "internalType": "address",
          "name": "sender",
          "type": "address"
        }
      ],
      "name": "RoleGranted",
      "type": "event"
    },
    {
      "anonymous": false,
      "inputs": [
        {
          "indexed": true,
          "internalType": "bytes32",
          "name": "role",
          "type": "bytes32"
        },
        {
          "indexed": true,
          "internalType": "address",
          "name": "account",
          "type": "address"
        },
        {
          "indexed": true,
          "internalType": "address",
          "name": "sender",
          "type": "address"
        }
      ],
      "name": "RoleRevoked",
      "type": "event"
    },
    {
      "anonymous": false,
      "inputs": [
        {
          "indexed": true,
          "internalType": "string",
          "name": "name",
          "type": "string"
        }
      ],
      "name": "UnRegisterERC1155Token",
      "type": "event"
    },
    {
      "anonymous": false,
      "inputs": [
        {
          "indexed": true,
          "internalType": "string",
          "name": "name",
          "type": "string"
        }
      ],
      "name": "UnRegisterERC20Token",
      "type": "event"
    },
    {
      "anonymous": false,
      "inputs": [
        {
          "indexed": true,
          "internalType": "string",
          "name": "name",
          "type": "string"
        }
      ],
      "name": "UnRegisterERC721Token",
      "type": "event"
    },
    {
      "inputs": [],
      "name": "DEFAULT_ADMIN_ROLE",
      "outputs": [
        {
          "internalType": "bytes32",
          "name": "",
          "type": "bytes32"
        }
      ],
      "stateMutability": "view",
      "type": "function"
    },
    {
      "inputs": [],
      "name": "REGISTER_ROLE",
      "outputs": [
        {
          "internalType": "bytes32",
          "name": "",
          "type": "bytes32"
        }
      ],
      "stateMutability": "view",
      "type": "function"
    },
    {
      "inputs": [
        {
          "internalType": "bytes32",
          "name": "role",
          "type": "bytes32"
        }
      ],
      "name": "getRoleAdmin",
      "outputs": [
        {
          "internalType": "bytes32",
          "name": "",
          "type": "bytes32"
        }
      ],
      "stateMutability": "view",
      "type": "function"
    },
    {
      "inputs": [
        {
          "internalType": "bytes32",
          "name": "role",
          "type": "bytes32"
        },
        {
          "internalType": "address",
          "name": "account",
          "type": "address"
        }
      ],
      "name": "grantRole",
      "outputs": [],
      "stateMutability": "nonpayable",
      "type": "function"
    },
    {
      "inputs": [
        {
          "internalType": "bytes32",
          "name": "role",
          "type": "bytes32"
        },
        {
          "internalType": "address",
          "name": "account",
          "type": "address"
        }
      ],
      "name": "hasRole",
      "outputs": [
        {
          "internalType": "bool",
          "name": "",
          "type": "bool"
        }
      ],
      "stateMutability": "view",
      "type": "function"
    },
    {
      "inputs": [
        {
          "internalType": "bytes32",
          "name": "role",
          "type": "bytes32"
        },
        {
          "internalType": "address",
          "name": "account",
          "type": "address"
        }
      ],
      "name": "renounceRole",
      "outputs": [],
      "stateMutability": "nonpayable",
      "type": "function"
    },
    {
      "inputs": [
        {
          "internalType": "bytes32",
          "name": "role",
          "type": "bytes32"
        },
        {
          "internalType": "address",
          "name": "account",
          "type": "address"
        }
      ],
      "name": "revokeRole",
      "outputs": [],
      "stateMutability": "nonpayable",
      "type": "function"
    },
    {
      "inputs": [
        {
          "internalType": "bytes4",
          "name": "interfaceId",
          "type": "bytes4"
        }
      ],
      "name": "supportsInterface",
      "outputs": [
        {
          "internalType": "bool",
          "name": "",
          "type": "bool"
        }
      ],
      "stateMutability": "view",
      "type": "function"
    },
    {
      "inputs": [
        {
          "internalType": "string",
          "name": "tokenSymbol",
          "type": "string"
        }
      ],
      "name": "getErc20AddressRegistered",
      "outputs": [
        {
          "internalType": "address",
          "name": "returnAddress",
          "type": "address"
        }
      ],
      "stateMutability": "view",
      "type": "function"
    },
    {
      "inputs": [],
      "name": "getAllErc20Registered",
      "outputs": [
        {
          "components": [
            {
              "internalType": "string",
              "name": "name",
              "type": "string"
            },
            {
              "internalType": "string",
              "name": "symbol",
              "type": "string"
            },
            {
              "internalType": "address",
              "name": "deployedAddress",
              "type": "address"
            }
          ],
          "internalType": "struct BridgeManager.registeredToken[]",
          "name": "",
          "type": "tuple[]"
        }
      ],
      "stateMutability": "view",
      "type": "function"
    },
    {
      "inputs": [],
      "name": "getAllErc20Count",
      "outputs": [
        {
          "internalType": "uint256",
          "name": "",
          "type": "uint256"
        }
      ],
      "stateMutability": "view",
      "type": "function"
    },
    {
      "inputs": [
        {
          "internalType": "string",
          "name": "tokenSymbol",
          "type": "string"
        }
      ],
      "name": "getErc721AddressRegistered",
      "outputs": [
        {
          "internalType": "address",
          "name": "returnAddress",
          "type": "address"
        }
      ],
      "stateMutability": "view",
      "type": "function"
    },
    {
      "inputs": [],
      "name": "getAllErc721Registered",
      "outputs": [
        {
          "components": [
            {
              "internalType": "string",
              "name": "name",
              "type": "string"
            },
            {
              "internalType": "string",
              "name": "symbol",
              "type": "string"
            },
            {
              "internalType": "address",
              "name": "deployedAddress",
              "type": "address"
            }
          ],
          "internalType": "struct BridgeManager.registeredToken[]",
          "name": "",
          "type": "tuple[]"
        }
      ],
      "stateMutability": "view",
      "type": "function"
    },
    {
      "inputs": [],
      "name": "getAllErc721Count",
      "outputs": [
        {
          "internalType": "uint256",
          "name": "",
          "type": "uint256"
        }
      ],
      "stateMutability": "view",
      "type": "function"
    },
    {
      "inputs": [
        {
          "internalType": "string",
          "name": "tokenURI",
          "type": "string"
        }
      ],
      "name": "getErc1155AddressRegistered",
      "outputs": [
        {
          "internalType": "address",
          "name": "returnAddress",
          "type": "address"
        }
      ],
      "stateMutability": "view",
      "type": "function"
    },
    {
      "inputs": [],
      "name": "getAllErc1155Registered",
      "outputs": [
        {
          "components": [
            {
              "internalType": "string",
              "name": "name",
              "type": "string"
            },
            {
              "internalType": "string",
              "name": "symbol",
              "type": "string"
            },
            {
              "internalType": "address",
              "name": "deployedAddress",
              "type": "address"
            }
          ],
          "internalType": "struct BridgeManager.registeredToken[]",
          "name": "",
          "type": "tuple[]"
        }
      ],
      "stateMutability": "view",
      "type": "function"
    },
    {
      "inputs": [],
      "name": "getAllErc1155Count",
      "outputs": [
        {
          "internalType": "uint256",
          "name": "",
          "type": "uint256"
        }
      ],
      "stateMutability": "view",
      "type": "function"
    },
    {
      "inputs": [
        {
          "internalType": "string",
          "name": "tokenName",
          "type": "string"
        },
        {
          "internalType": "string",
          "name": "tokenSymbol",
          "type": "string"
        },
        {
          "internalType": "address",
          "name": "tokenContractAddress",
          "type": "address"
        }
      ],
      "name": "registerTokenERC20",
      "outputs": [],
      "stateMutability": "nonpayable",
      "type": "function"
    },
    {
      "inputs": [
        {
          "internalType": "string",
          "name": "tokenName",
          "type": "string"
        },
        {
          "internalType": "string",
          "name": "tokenSymbol",
          "type": "string"
        },
        {
          "internalType": "address",
          "name": "tokenContractAddress",
          "type": "address"
        }
      ],
      "name": "registerTokenERC721",
      "outputs": [],
      "stateMutability": "nonpayable",
      "type": "function"
    },
    {
      "inputs": [
        {
          "internalType": "string",
          "name": "tokenName",
          "type": "string"
        },
        {
          "internalType": "string",
          "name": "tokenURI",
          "type": "string"
        },
        {
          "internalType": "address",
          "name": "tokenContractAddress",
          "type": "address"
        }
      ],
      "name": "registerTokenERC1155",
      "outputs": [],
      "stateMutability": "nonpayable",
      "type": "function"
    }
  ],
  "bytecode": "0x60806040523480156200001157600080fd5b50620000286000620000226200005d565b62000061565b620000577fd1f21ec03a6eb050fba156f5316dad461735df521fb446dd42c5a4728e9c70fe620000226200005d565b62000124565b3390565b6200006d828262000071565b5050565b6200007d8282620000fb565b6200006d576000828152602081815260408083206001600160a01b03851684529091529020805460ff19166001179055620000b76200005d565b6001600160a01b0316816001600160a01b0316837f2f8788117e7eff1d82e926ec794901d17c78024a50270940304540a733656f0d60405160405180910390a45050565b6000918252602082815260408084206001600160a01b0393909316845291905290205460ff1690565b61180d80620001346000396000f3fe608060405234801561001057600080fd5b506004361061012c5760003560e01c806374f53317116100ad578063a217fddf11610071578063a217fddf1461024b578063c082713b14610253578063c7092a8214610266578063d547741f1461026e578063dd2c859c146102815761012c565b806374f533171461020d57806390344f621461021557806391567da81461021d57806391d14854146102305780639f45c1d3146102435761012c565b806336568abe116100f457806336568abe146101b7578063455686c3146101ca5780634d4825a0146101d25780634dd1b5f8146101e557806353206452146101f85761012c565b806301ab669c1461013157806301ffc9a71461014f57806310a43eba1461016f578063248a9ca31461018f5780632f2ff15d146101a2575b600080fd5b610139610294565b604051610146919061157e565b60405180910390f35b61016261015d366004611380565b61029a565b6040516101469190611573565b61018261017d3660046113af565b6102c7565b60405161014691906114c8565b61013961019d36600461133d565b6102fb565b6101b56101b0366004611355565b610310565b005b6101b56101c5366004611355565b610357565b610139610399565b6101b56101e03660046113ef565b61039f565b6101826101f33660046113af565b6105fb565b61020061060f565b60405161014691906114dc565b6101396107a8565b6101396107cc565b61018261022b3660046113af565b6107d2565b61016261023e366004611355565b6107e6565b61020061080f565b61013961099f565b6101b56102613660046113ef565b6109a4565b610200610c7d565b6101b561027c366004611355565b610e0d565b6101b561028f3660046113ef565b610e35565b60035490565b60006001600160e01b03198216637965db0b60e01b14806102bf57506102bf826110f7565b90505b919050565b6000600283836040516102db9291906114b8565b908152604051908190036020019020546001600160a01b03169392505050565b60009081526020819052604090206001015490565b61032461031c836102fb565b61023e611110565b6103495760405162461bcd60e51b815260040161034090611587565b60405180910390fd5b6103538282611114565b5050565b61035f611110565b6001600160a01b0316816001600160a01b03161461038f5760405162461bcd60e51b81526004016103409061173f565b6103538282611199565b60015490565b82828080601f016020809104026020016040519081016040528093929190818152602001838380828437600092019190915250508251839250151590506103f85760405162461bcd60e51b81526004016103409061169e565b60006001600160a01b0316600686866040516104159291906114b8565b908152604051908190036020019020546001600160a01b03161461044b5760405162461bcd60e51b8152600401610340906115e4565b826006868660405161045e9291906114b8565b90815260405190819003602001902080546001600160a01b03929092166001600160a01b031990921691909117905561049561121c565b87878080601f016020809104026020016040519081016040528093929190818152602001838380828437600092019190915250505090825250604080516020601f880181900481028201810190925286815290879087908190840183828082843760009201829052506020808701959095526001600160a01b038916604087015260058054600181018255915285518051879660039093027f036b6384b5eca791c62761152d0c79bb0604c104a5fb6f4eb0703f3154bb3db00195506105619450859350910190611246565b50602082810151805161057a9260018501920190611246565b5060409182015160029190910180546001600160a01b0319166001600160a01b03909216919091179055516105b290879087906114b8565b60405180910390207f823c87a16eb6a527733c83f98949577c23e881d4bd9e2af78535058fa5cd775c856040516105e991906114c8565b60405180910390a25050505050505050565b6000600683836040516102db9291906114b8565b60606001805480602002602001604051908101604052809291908181526020016000905b8282101561079f57838290600052602060002090600302016040518060600160405290816000820180546106669061179c565b80601f01602080910402602001604051908101604052809291908181526020018280546106929061179c565b80156106df5780601f106106b4576101008083540402835291602001916106df565b820191906000526020600020905b8154815290600101906020018083116106c257829003601f168201915b505050505081526020016001820180546106f89061179c565b80601f01602080910402602001604051908101604052809291908181526020018280546107249061179c565b80156107715780601f1061074657610100808354040283529160200191610771565b820191906000526020600020905b81548152906001019060200180831161075457829003601f168201915b5050509183525050600291909101546001600160a01b03166020918201529082526001929092019101610633565b50505050905090565b7fd1f21ec03a6eb050fba156f5316dad461735df521fb446dd42c5a4728e9c70fe81565b60055490565b6000600483836040516102db9291906114b8565b6000918252602082815260408084206001600160a01b0393909316845291905290205460ff1690565b60606003805480602002602001604051908101604052809291908181526020016000905b8282101561079f57838290600052602060002090600302016040518060600160405290816000820180546108669061179c565b80601f01602080910402602001604051908101604052809291908181526020018280546108929061179c565b80156108df5780601f106108b4576101008083540402835291602001916108df565b820191906000526020600020905b8154815290600101906020018083116108c257829003601f168201915b505050505081526020016001820180546108f89061179c565b80601f01602080910402602001604051908101604052809291908181526020018280546109249061179c565b80156109715780601f1061094657610100808354040283529160200191610971565b820191906000526020600020905b81548152906001019060200180831161095457829003601f168201915b5050509183525050600291909101546001600160a01b03166020918201529082526001929092019101610833565b600081565b84848080601f016020809104026020016040519081016040528093929190818152602001838380828437600092019190915250508251839250151590506109fd5760405162461bcd60e51b81526004016103409061169e565b84848080601f01602080910402602001604051908101604052809392919081815260200183838082843760009201919091525050825183925015159050610a565760405162461bcd60e51b81526004016103409061169e565b60006001600160a01b031660048888604051610a739291906114b8565b908152604051908190036020019020546001600160a01b031614610aa95760405162461bcd60e51b8152600401610340906115e4565b60198610610ac95760405162461bcd60e51b8152600401610340906116fb565b8460048888604051610adc9291906114b8565b90815260405190819003602001902080546001600160a01b03929092166001600160a01b0319909216919091179055610b1361121c565b89898080601f016020809104026020016040519081016040528093929190818152602001838380828437600092019190915250505090825250604080516020601f8a0181900481028201810190925288815290899089908190840183828082843760009201829052506020808701959095526001600160a01b038b1660408701526003805460018101825591819052865180518897939092027fc2575a0e9e593c00f959f8c92f12db2869c3395a3b0502d05e2516446f71f85b019550610be1945085935090910190611246565b506020828101518051610bfa9260018501920190611246565b5060409182015160029190910180546001600160a01b0319166001600160a01b0390921691909117905551610c3290899089906114b8565b60405180910390207f8b716abc5c12b2b1b216049f179e5b7ea408a5a96880c14d00b5c83282e43b9587604051610c6991906114c8565b60405180910390a250505050505050505050565b60606005805480602002602001604051908101604052809291908181526020016000905b8282101561079f5783829060005260206000209060030201604051806060016040529081600082018054610cd49061179c565b80601f0160208091040260200160405190810160405280929190818152602001828054610d009061179c565b8015610d4d5780601f10610d2257610100808354040283529160200191610d4d565b820191906000526020600020905b815481529060010190602001808311610d3057829003601f168201915b50505050508152602001600182018054610d669061179c565b80601f0160208091040260200160405190810160405280929190818152602001828054610d929061179c565b8015610ddf5780601f10610db457610100808354040283529160200191610ddf565b820191906000526020600020905b815481529060010190602001808311610dc257829003601f168201915b5050509183525050600291909101546001600160a01b03166020918201529082526001929092019101610ca1565b610e1961031c836102fb565b61038f5760405162461bcd60e51b815260040161034090611641565b84848080601f01602080910402602001604051908101604052809392919081815260200183838082843760009201919091525050825183925015159050610e8e5760405162461bcd60e51b81526004016103409061169e565b84848080601f01602080910402602001604051908101604052809392919081815260200183838082843760009201919091525050825183925015159050610ee75760405162461bcd60e51b81526004016103409061169e565b60006001600160a01b031660028888604051610f049291906114b8565b908152604051908190036020019020546001600160a01b031614610f3a5760405162461bcd60e51b8152600401610340906115e4565b60198610610f5a5760405162461bcd60e51b8152600401610340906116fb565b8460028888604051610f6d9291906114b8565b90815260405190819003602001902080546001600160a01b03929092166001600160a01b0319909216919091179055610fa461121c565b89898080601f016020809104026020016040519081016040528093929190818152602001838380828437600092019190915250505090825250604080516020601f8a0181900481028201810190925288815290899089908190840183828082843760009201829052506020808701959095526001600160a01b038b166040870152600180548082018255915285518051879660039093027fb10e2d527612073b26eecdfd717e6a320cf44b4afac2b0732d9fcbe2b7fa0cf601955061106f9450859350910190611246565b5060208281015180516110889260018501920190611246565b5060409182015160029190910180546001600160a01b0319166001600160a01b03909216919091179055516110c090899089906114b8565b60405180910390207f8332d9919bf32207cb796a0a21674da0f96c4d6f2257c02073ff112e117bff0c87604051610c6991906114c8565b6001600160e01b031981166301ffc9a760e01b14919050565b3390565b61111e82826107e6565b610353576000828152602081815260408083206001600160a01b03851684529091529020805460ff19166001179055611155611110565b6001600160a01b0316816001600160a01b0316837f2f8788117e7eff1d82e926ec794901d17c78024a50270940304540a733656f0d60405160405180910390a45050565b6111a382826107e6565b15610353576000828152602081815260408083206001600160a01b03851684529091529020805460ff191690556111d8611110565b6001600160a01b0316816001600160a01b0316837ff6391f5c32d9c69d2a47ea670b442974b53935d1edc7fd64eb21e047a839171b60405160405180910390a45050565b6040518060600160405280606081526020016060815260200160006001600160a01b031681525090565b8280546112529061179c565b90600052602060002090601f01602090048101928261127457600085556112ba565b82601f1061128d57805160ff19168380011785556112ba565b828001600101855582156112ba579182015b828111156112ba57825182559160200191906001019061129f565b506112c69291506112ca565b5090565b5b808211156112c657600081556001016112cb565b80356001600160a01b03811681146102c257600080fd5b60008083601f840112611307578182fd5b50813567ffffffffffffffff81111561131e578182fd5b60208301915083602082850101111561133657600080fd5b9250929050565b60006020828403121561134e578081fd5b5035919050565b60008060408385031215611367578081fd5b82359150611377602084016112df565b90509250929050565b600060208284031215611391578081fd5b81356001600160e01b0319811681146113a8578182fd5b9392505050565b600080602083850312156113c1578182fd5b823567ffffffffffffffff8111156113d7578283fd5b6113e3858286016112f6565b90969095509350505050565b600080600080600060608688031215611406578081fd5b853567ffffffffffffffff8082111561141d578283fd5b61142989838a016112f6565b90975095506020880135915080821115611441578283fd5b5061144e888289016112f6565b90945092506114619050604087016112df565b90509295509295909350565b60008151808452815b8181101561149257602081850181015186830182015201611476565b818111156114a35782602083870101525b50601f01601f19169290920160200192915050565b6000828483379101908152919050565b6001600160a01b0391909116815260200190565b60208082528251828201819052600091906040908185019080840286018301878501865b8381101561156557603f198984030185528151606081518186526115268287018261146d565b915050888201518582038a87015261153e828261146d565b928901516001600160a01b0316958901959095525094870194925090860190600101611500565b509098975050505050505050565b901515815260200190565b90815260200190565b6020808252602f908201527f416363657373436f6e74726f6c3a2073656e646572206d75737420626520616e60408201527f2061646d696e20746f206772616e740000000000000000000000000000000000606082015260800190565b60208082526032908201527f4272696467654d616e616765723a20746f6b656e20616464726573732069732060408201527f616c726561647920726567697374657265640000000000000000000000000000606082015260800190565b60208082526030908201527f416363657373436f6e74726f6c3a2073656e646572206d75737420626520616e60408201527f2061646d696e20746f207265766f6b6500000000000000000000000000000000606082015260800190565b60208082526033908201527f4272696467654d616e616765723a20746f6b656e206e616d6520616e6420737960408201527f6d626f6c2063616e277420626520656d70747900000000000000000000000000606082015260800190565b60208082526024908201527f4272696467654d616e616765723a20746f6b656e2053796d626f6c20746f6f206040820152636c6f6e6760e01b606082015260800190565b6020808252602f908201527f416363657373436f6e74726f6c3a2063616e206f6e6c792072656e6f756e636560408201527f20726f6c657320666f722073656c660000000000000000000000000000000000606082015260800190565b6002810460018216806117b057607f821691505b602082108114156117d157634e487b7160e01b600052602260045260246000fd5b5091905056fea26469706673582212205334656250ca87468e4efb6bce37dc180127309f4aab017803d14b145435963264736f6c63430008000033",
  "immutableReferences": {},
  "source": "// SPDX-License-Identifier: MIT\npragma solidity ^0.8.0;\n\nimport \"@openzeppelin/contracts/access/AccessControl.sol\";\n\n/**\n * @title   BridgeManager contract\n * @dev     Registers ERC20, ERC721 and ERC1155 tokens to allow users swapping\n * them between Ethereum and PRIVI blockchains\n * @author  PRIVI\n **/\ncontract BridgeManager is AccessControl {\n  bytes32 public constant REGISTER_ROLE = keccak256(\"REGISTER_ROLE\");\n  address private constant ZERO_ADDRESS =\n    0x0000000000000000000000000000000000000000;\n\n  // Structure to handle registered token data\n  struct registeredToken {\n    string name;\n    string symbol;\n    address deployedAddress;\n  }\n\n  // ERC20 token types\n  registeredToken[] private erc20RegisteredArray;\n  mapping(string => address) private contractAddressERC20;\n\n  // ERC721 token types\n  registeredToken[] private erc721RegisteredArray;\n  mapping(string => address) private contractAddressERC721;\n\n  // ERC1155 token types\n  registeredToken[] private erc1155RegisteredArray;\n  mapping(string => address) private contractAddressERC1155;\n\n  // Events\n  event RegisterERC20Token(string indexed name, address tokenAddress);\n  event UnRegisterERC20Token(string indexed name);\n  event RegisterERC721Token(string indexed name, address tokenAddress);\n  event UnRegisterERC721Token(string indexed name);\n  event RegisterERC1155Token(string indexed name, address tokenAddress);\n  event UnRegisterERC1155Token(string indexed name);\n\n  /**\n   * @notice  Modifier to require 'tokenName' and 'tokenSymbol' are not empty\n   * @param   tokenNameToCheck The token or symbol name to be checked\n   * @dev     reverts if tokenNameToCheck is empty\n   */\n  modifier nameIsNotEmpty(string memory tokenNameToCheck) {\n    bytes memory bytesTokenName = bytes(tokenNameToCheck);\n    require(\n      bytesTokenName.length != 0,\n      \"BridgeManager: token name and symbol can't be empty\"\n    );\n    _;\n  }\n\n  /**\n   * @notice Constructor to assign all roles to contract creator\n   */\n  constructor() {\n    _setupRole(DEFAULT_ADMIN_ROLE, _msgSender());\n    _setupRole(REGISTER_ROLE, _msgSender());\n  }\n\n  /**\n   * @notice  Returns the contract address of a registered ERC20 token\n   * @param   tokenSymbol The ERC20 token symbol (ticker)\n   * @return  returnAddress The contract address of a registered ERC20 token\n   */\n  function getErc20AddressRegistered(string calldata tokenSymbol)\n    external\n    view\n    returns (address returnAddress)\n  {\n    returnAddress = contractAddressERC20[tokenSymbol];\n  }\n\n  /**\n   * @notice  Returns an array of all registered ERC20 tokens\n   */\n  function getAllErc20Registered()\n    external\n    view\n    returns (registeredToken[] memory)\n  {\n    return erc20RegisteredArray;\n  }\n\n  /**\n   * @notice  Returns a count of all registered ERC20 tokens\n   */\n  function getAllErc20Count() external view returns (uint256) {\n    return erc20RegisteredArray.length;\n  }\n\n  /**\n   * @notice Returns the contract address of a registered ERC721 token\n   */\n  function getErc721AddressRegistered(string calldata tokenSymbol)\n    external\n    view\n    returns (address returnAddress)\n  {\n    returnAddress = contractAddressERC721[tokenSymbol];\n  }\n\n  /**\n   * @notice Returns an array of all registered ERC721 tokens\n   */\n  function getAllErc721Registered()\n    external\n    view\n    returns (registeredToken[] memory)\n  {\n    return erc721RegisteredArray;\n  }\n\n  /**\n   * @notice Returns a count of all registered ERC721 tokens\n   */\n  function getAllErc721Count() external view returns (uint256) {\n    return erc721RegisteredArray.length;\n  }\n\n  /**\n   * @notice Returns the address of a registered ERC1155 token\n   */\n  function getErc1155AddressRegistered(string calldata tokenURI)\n    external\n    view\n    returns (address returnAddress)\n  {\n    returnAddress = contractAddressERC1155[tokenURI];\n  }\n\n  /**\n   * @notice Returns an array of all registered ERC1155 tokens\n   */\n  function getAllErc1155Registered()\n    external\n    view\n    returns (registeredToken[] memory)\n  {\n    return erc1155RegisteredArray;\n  }\n\n  /**\n   * @notice Returns a count of all registered ERC1155 tokens\n   */\n  function getAllErc1155Count() external view returns (uint256) {\n    return erc1155RegisteredArray.length;\n  }\n\n  /**\n   * @notice  Registers the contract address of an ERC20 token\n   * @dev     - Token can't be already registered\n   *          - Length of token symbol can't be greater than 25 characters\n   * @param   tokenName The name of the ERC20 token to be registered (e.g.: Uniswap)\n   * @param   tokenSymbol The symbol of the ERC20 token to be registered (e.g.: UNI)\n   * @param   tokenContractAddress The contract address of the ERC20 Token\n   */\n  function registerTokenERC20(\n    string calldata tokenName,\n    string calldata tokenSymbol,\n    address tokenContractAddress\n  ) external nameIsNotEmpty(tokenName) nameIsNotEmpty(tokenSymbol) {\n    // TODO: Only Admin or Token Factories should be able to register tokens\n    // require(hasRole(REGISTER_ROLE, _msgSender()),\n    //     \"BridgeManager: must have REGISTER_ROLE to register a token\");\n    require(\n      contractAddressERC20[tokenSymbol] == ZERO_ADDRESS,\n      \"BridgeManager: token address is already registered\"\n    );\n    require(\n      bytes(tokenSymbol).length < 25,\n      \"BridgeManager: token Symbol too long\"\n    );\n\n    contractAddressERC20[tokenSymbol] = tokenContractAddress;\n\n    registeredToken memory regToken;\n    regToken.name = tokenName;\n    regToken.symbol = tokenSymbol;\n    regToken.deployedAddress = tokenContractAddress;\n    erc20RegisteredArray.push(regToken);\n\n    emit RegisterERC20Token(tokenSymbol, tokenContractAddress);\n  }\n\n  /**\n   * @notice  Registers the contract address of an ERC721 Token\n   * @dev     - Token can't be already registered\n   *          - Length of token symbol can't be greater than 25 characters\n   * @param   tokenName The name of the ERC721 token to be registered (e.g.: Uniswap)\n   * @param   tokenSymbol The symbol of the ERC721 token to be registered (e.g.: UNI)\n   * @param   tokenContractAddress The contract address of the ERC721 token\n   */\n  function registerTokenERC721(\n    string calldata tokenName,\n    string calldata tokenSymbol,\n    address tokenContractAddress\n  ) external nameIsNotEmpty(tokenName) nameIsNotEmpty(tokenSymbol) {\n    // TODO: Only Admin or Token Factories should be able to register tokens\n    // require(hasRole(REGISTER_ROLE, _msgSender()),\n    //     \"BridgeManager: must have REGISTER_ROLE to register a token\");\n    require(\n      contractAddressERC721[tokenSymbol] == ZERO_ADDRESS,\n      \"BridgeManager: token address is already registered\" //TODO: token symbol already registered\n    );\n    require(\n      bytes(tokenSymbol).length < 25,\n      \"BridgeManager: token Symbol too long\"\n    );\n\n    contractAddressERC721[tokenSymbol] = tokenContractAddress;\n\n    registeredToken memory regToken;\n    regToken.name = tokenName;\n    regToken.symbol = tokenSymbol;\n    regToken.deployedAddress = tokenContractAddress;\n    erc721RegisteredArray.push(regToken);\n\n    emit RegisterERC721Token(tokenSymbol, tokenContractAddress);\n  }\n\n  /**\n   * @notice  Registers the contract address of an ERC1155 Token\n   * @dev     - Token can't be already registered\n   * @param   tokenName The name of the ERC1155 token to be registered (e.g.: Kitty)\n   * @param   tokenURI The URI of the ERC1155 token to be registered (e.g: ipfs://xx)\n   * @param   tokenContractAddress The contract address of the ERC1155 token\n   */\n  function registerTokenERC1155(\n    string calldata tokenName,\n    string calldata tokenURI,\n    address tokenContractAddress\n  ) external nameIsNotEmpty(tokenURI) {\n    // TODO: Only Admin or Token Factories should be able to register tokens\n    // require(hasRole(REGISTER_ROLE, _msgSender()),\n    //     \"BridgeManager: must have REGISTER_ROLE to register a token\");\n    require(\n      contractAddressERC1155[tokenURI] == ZERO_ADDRESS,\n      \"BridgeManager: token address is already registered\"\n    );\n\n    contractAddressERC1155[tokenURI] = tokenContractAddress;\n\n    registeredToken memory regToken;\n    regToken.name = tokenName;\n    regToken.symbol = tokenURI;\n    regToken.deployedAddress = tokenContractAddress;\n    erc1155RegisteredArray.push(regToken);\n\n    emit RegisterERC1155Token(tokenURI, tokenContractAddress);\n  }\n}\n",
  "sourcePath": "/Users/sergijuanati/Dropbox/Docs/2. Work/16. Privi/3. Code/getcache_ethereum/contracts/BridgeManager.sol",
  "compiler": {
    "name": "solc",
    "version": "0.8.0+commit.c7dfd78e.Emscripten.clang"
  },
  "schemaVersion": "3.3.2",
  "updatedAt": "2021-04-07T13:52:55.605Z",
  "devdoc": {
    "author": "PRIVI*",
    "details": "Registers ERC20, ERC721 and ERC1155 tokens to allow users swapping them between Ethereum and PRIVI blockchains",
    "kind": "dev",
    "methods": {
      "getErc20AddressRegistered(string)": {
        "params": {
          "tokenSymbol": "The ERC20 token symbol (ticker)"
        },
        "returns": {
          "returnAddress": "The contract address of a registered ERC20 token"
        }
      },
      "getRoleAdmin(bytes32)": {
        "details": "Returns the admin role that controls `role`. See {grantRole} and {revokeRole}. To change a role's admin, use {_setRoleAdmin}."
      },
      "grantRole(bytes32,address)": {
        "details": "Grants `role` to `account`. If `account` had not been already granted `role`, emits a {RoleGranted} event. Requirements: - the caller must have ``role``'s admin role."
      },
      "hasRole(bytes32,address)": {
        "details": "Returns `true` if `account` has been granted `role`."
      },
      "registerTokenERC1155(string,string,address)": {
        "details": "- Token can't be already registered",
        "params": {
          "tokenContractAddress": "The contract address of the ERC1155 token",
          "tokenName": "The name of the ERC1155 token to be registered (e.g.: Kitty)",
          "tokenURI": "The URI of the ERC1155 token to be registered (e.g: ipfs://xx)"
        }
      },
      "registerTokenERC20(string,string,address)": {
        "details": "- Token can't be already registered          - Length of token symbol can't be greater than 25 characters",
        "params": {
          "tokenContractAddress": "The contract address of the ERC20 Token",
          "tokenName": "The name of the ERC20 token to be registered (e.g.: Uniswap)",
          "tokenSymbol": "The symbol of the ERC20 token to be registered (e.g.: UNI)"
        }
      },
      "registerTokenERC721(string,string,address)": {
        "details": "- Token can't be already registered          - Length of token symbol can't be greater than 25 characters",
        "params": {
          "tokenContractAddress": "The contract address of the ERC721 token",
          "tokenName": "The name of the ERC721 token to be registered (e.g.: Uniswap)",
          "tokenSymbol": "The symbol of the ERC721 token to be registered (e.g.: UNI)"
        }
      },
      "renounceRole(bytes32,address)": {
        "details": "Revokes `role` from the calling account. Roles are often managed via {grantRole} and {revokeRole}: this function's purpose is to provide a mechanism for accounts to lose their privileges if they are compromised (such as when a trusted device is misplaced). If the calling account had been granted `role`, emits a {RoleRevoked} event. Requirements: - the caller must be `account`."
      },
      "revokeRole(bytes32,address)": {
        "details": "Revokes `role` from `account`. If `account` had been granted `role`, emits a {RoleRevoked} event. Requirements: - the caller must have ``role``'s admin role."
      },
      "supportsInterface(bytes4)": {
        "details": "See {IERC165-supportsInterface}."
      }
    },
    "title": "BridgeManager contract",
    "version": 1
  },
  "userdoc": {
    "kind": "user",
    "methods": {
      "constructor": {
        "notice": "Constructor to assign all roles to contract creator"
      },
      "getAllErc1155Count()": {
        "notice": "Returns a count of all registered ERC1155 tokens"
      },
      "getAllErc1155Registered()": {
        "notice": "Returns an array of all registered ERC1155 tokens"
      },
      "getAllErc20Count()": {
        "notice": "Returns a count of all registered ERC20 tokens"
      },
      "getAllErc20Registered()": {
        "notice": "Returns an array of all registered ERC20 tokens"
      },
      "getAllErc721Count()": {
        "notice": "Returns a count of all registered ERC721 tokens"
      },
      "getAllErc721Registered()": {
        "notice": "Returns an array of all registered ERC721 tokens"
      },
      "getErc1155AddressRegistered(string)": {
        "notice": "Returns the address of a registered ERC1155 token"
      },
      "getErc20AddressRegistered(string)": {
        "notice": "Returns the contract address of a registered ERC20 token"
      },
      "getErc721AddressRegistered(string)": {
        "notice": "Returns the contract address of a registered ERC721 token"
      },
      "registerTokenERC1155(string,string,address)": {
        "notice": "Registers the contract address of an ERC1155 Token"
      },
      "registerTokenERC20(string,string,address)": {
        "notice": "Registers the contract address of an ERC20 token"
      },
      "registerTokenERC721(string,string,address)": {
        "notice": "Registers the contract address of an ERC721 Token"
      }
    },
    "version": 1
  }
}