{
  "contractName": "BridgeManager",
  "abi": [
    {
      "inputs": [],
      "stateMutability": "nonpayable",
      "type": "constructor"
    },
    {
      "anonymous": false,
      "inputs": [
        {
          "indexed": true,
          "internalType": "string",
          "name": "name",
          "type": "string"
        },
        {
          "indexed": false,
          "internalType": "address",
          "name": "tokenAddress",
          "type": "address"
        }
      ],
      "name": "RegisterERC1155Token",
      "type": "event"
    },
    {
      "anonymous": false,
      "inputs": [
        {
          "indexed": true,
          "internalType": "string",
          "name": "name",
          "type": "string"
        },
        {
          "indexed": false,
          "internalType": "address",
          "name": "tokenAddress",
          "type": "address"
        }
      ],
      "name": "RegisterERC20Token",
      "type": "event"
    },
    {
      "anonymous": false,
      "inputs": [
        {
          "indexed": true,
          "internalType": "string",
          "name": "name",
          "type": "string"
        },
        {
          "indexed": false,
          "internalType": "address",
          "name": "tokenAddress",
          "type": "address"
        }
      ],
      "name": "RegisterERC721Token",
      "type": "event"
    },
    {
      "anonymous": false,
      "inputs": [
        {
          "indexed": true,
          "internalType": "bytes32",
          "name": "role",
          "type": "bytes32"
        },
        {
          "indexed": true,
          "internalType": "bytes32",
          "name": "previousAdminRole",
          "type": "bytes32"
        },
        {
          "indexed": true,
          "internalType": "bytes32",
          "name": "newAdminRole",
          "type": "bytes32"
        }
      ],
      "name": "RoleAdminChanged",
      "type": "event"
    },
    {
      "anonymous": false,
      "inputs": [
        {
          "indexed": true,
          "internalType": "bytes32",
          "name": "role",
          "type": "bytes32"
        },
        {
          "indexed": true,
          "internalType": "address",
          "name": "account",
          "type": "address"
        },
        {
          "indexed": true,
          "internalType": "address",
          "name": "sender",
          "type": "address"
        }
      ],
      "name": "RoleGranted",
      "type": "event"
    },
    {
      "anonymous": false,
      "inputs": [
        {
          "indexed": true,
          "internalType": "bytes32",
          "name": "role",
          "type": "bytes32"
        },
        {
          "indexed": true,
          "internalType": "address",
          "name": "account",
          "type": "address"
        },
        {
          "indexed": true,
          "internalType": "address",
          "name": "sender",
          "type": "address"
        }
      ],
      "name": "RoleRevoked",
      "type": "event"
    },
    {
      "anonymous": false,
      "inputs": [
        {
          "indexed": true,
          "internalType": "string",
          "name": "name",
          "type": "string"
        }
      ],
      "name": "UnRegisterERC1155Token",
      "type": "event"
    },
    {
      "anonymous": false,
      "inputs": [
        {
          "indexed": true,
          "internalType": "string",
          "name": "name",
          "type": "string"
        }
      ],
      "name": "UnRegisterERC20Token",
      "type": "event"
    },
    {
      "anonymous": false,
      "inputs": [
        {
          "indexed": true,
          "internalType": "string",
          "name": "name",
          "type": "string"
        }
      ],
      "name": "UnRegisterERC721Token",
      "type": "event"
    },
    {
      "inputs": [],
      "name": "DEFAULT_ADMIN_ROLE",
      "outputs": [
        {
          "internalType": "bytes32",
          "name": "",
          "type": "bytes32"
        }
      ],
      "stateMutability": "view",
      "type": "function",
      "constant": true
    },
    {
      "inputs": [],
      "name": "REGISTER_ROLE",
      "outputs": [
        {
          "internalType": "bytes32",
          "name": "",
          "type": "bytes32"
        }
      ],
      "stateMutability": "view",
      "type": "function",
      "constant": true
    },
    {
      "inputs": [
        {
          "internalType": "bytes32",
          "name": "role",
          "type": "bytes32"
        }
      ],
      "name": "getRoleAdmin",
      "outputs": [
        {
          "internalType": "bytes32",
          "name": "",
          "type": "bytes32"
        }
      ],
      "stateMutability": "view",
      "type": "function",
      "constant": true
    },
    {
      "inputs": [
        {
          "internalType": "bytes32",
          "name": "role",
          "type": "bytes32"
        },
        {
          "internalType": "address",
          "name": "account",
          "type": "address"
        }
      ],
      "name": "grantRole",
      "outputs": [],
      "stateMutability": "nonpayable",
      "type": "function"
    },
    {
      "inputs": [
        {
          "internalType": "bytes32",
          "name": "role",
          "type": "bytes32"
        },
        {
          "internalType": "address",
          "name": "account",
          "type": "address"
        }
      ],
      "name": "hasRole",
      "outputs": [
        {
          "internalType": "bool",
          "name": "",
          "type": "bool"
        }
      ],
      "stateMutability": "view",
      "type": "function",
      "constant": true
    },
    {
      "inputs": [
        {
          "internalType": "bytes32",
          "name": "role",
          "type": "bytes32"
        },
        {
          "internalType": "address",
          "name": "account",
          "type": "address"
        }
      ],
      "name": "renounceRole",
      "outputs": [],
      "stateMutability": "nonpayable",
      "type": "function"
    },
    {
      "inputs": [
        {
          "internalType": "bytes32",
          "name": "role",
          "type": "bytes32"
        },
        {
          "internalType": "address",
          "name": "account",
          "type": "address"
        }
      ],
      "name": "revokeRole",
      "outputs": [],
      "stateMutability": "nonpayable",
      "type": "function"
    },
    {
      "inputs": [
        {
          "internalType": "bytes4",
          "name": "interfaceId",
          "type": "bytes4"
        }
      ],
      "name": "supportsInterface",
      "outputs": [
        {
          "internalType": "bool",
          "name": "",
          "type": "bool"
        }
      ],
      "stateMutability": "view",
      "type": "function",
      "constant": true
    },
    {
      "inputs": [
        {
          "internalType": "string",
          "name": "tokenSymbol",
          "type": "string"
        }
      ],
      "name": "getErc20AddressRegistered",
      "outputs": [
        {
          "internalType": "address",
          "name": "returnAddress",
          "type": "address"
        }
      ],
      "stateMutability": "view",
      "type": "function",
      "constant": true
    },
    {
      "inputs": [],
      "name": "getAllErc20Registered",
      "outputs": [
        {
          "components": [
            {
              "internalType": "string",
              "name": "name",
              "type": "string"
            },
            {
              "internalType": "string",
              "name": "symbol",
              "type": "string"
            },
            {
              "internalType": "address",
              "name": "deployedAddress",
              "type": "address"
            }
          ],
          "internalType": "struct BridgeManager.registeredToken[]",
          "name": "",
          "type": "tuple[]"
        }
      ],
      "stateMutability": "view",
      "type": "function",
      "constant": true
    },
    {
      "inputs": [],
      "name": "getAllErc20Count",
      "outputs": [
        {
          "internalType": "uint256",
          "name": "",
          "type": "uint256"
        }
      ],
      "stateMutability": "view",
      "type": "function",
      "constant": true
    },
    {
      "inputs": [
        {
          "internalType": "string",
          "name": "tokenSymbol",
          "type": "string"
        }
      ],
      "name": "getErc721AddressRegistered",
      "outputs": [
        {
          "internalType": "address",
          "name": "returnAddress",
          "type": "address"
        }
      ],
      "stateMutability": "view",
      "type": "function",
      "constant": true
    },
    {
      "inputs": [],
      "name": "getAllErc721Registered",
      "outputs": [
        {
          "components": [
            {
              "internalType": "string",
              "name": "name",
              "type": "string"
            },
            {
              "internalType": "string",
              "name": "symbol",
              "type": "string"
            },
            {
              "internalType": "address",
              "name": "deployedAddress",
              "type": "address"
            }
          ],
          "internalType": "struct BridgeManager.registeredToken[]",
          "name": "",
          "type": "tuple[]"
        }
      ],
      "stateMutability": "view",
      "type": "function",
      "constant": true
    },
    {
      "inputs": [],
      "name": "getAllErc721Count",
      "outputs": [
        {
          "internalType": "uint256",
          "name": "",
          "type": "uint256"
        }
      ],
      "stateMutability": "view",
      "type": "function",
      "constant": true
    },
    {
      "inputs": [
        {
          "internalType": "string",
          "name": "tokenURI",
          "type": "string"
        }
      ],
      "name": "getErc1155AddressRegistered",
      "outputs": [
        {
          "internalType": "address",
          "name": "returnAddress",
          "type": "address"
        }
      ],
      "stateMutability": "view",
      "type": "function",
      "constant": true
    },
    {
      "inputs": [],
      "name": "getAllErc1155Registered",
      "outputs": [
        {
          "components": [
            {
              "internalType": "string",
              "name": "name",
              "type": "string"
            },
            {
              "internalType": "string",
              "name": "symbol",
              "type": "string"
            },
            {
              "internalType": "address",
              "name": "deployedAddress",
              "type": "address"
            }
          ],
          "internalType": "struct BridgeManager.registeredToken[]",
          "name": "",
          "type": "tuple[]"
        }
      ],
      "stateMutability": "view",
      "type": "function",
      "constant": true
    },
    {
      "inputs": [],
      "name": "getAllErc1155Count",
      "outputs": [
        {
          "internalType": "uint256",
          "name": "",
          "type": "uint256"
        }
      ],
      "stateMutability": "view",
      "type": "function",
      "constant": true
    },
    {
      "inputs": [
        {
          "internalType": "string",
          "name": "tokenName",
          "type": "string"
        },
        {
          "internalType": "string",
          "name": "tokenSymbol",
          "type": "string"
        },
        {
          "internalType": "address",
          "name": "tokenContractAddress",
          "type": "address"
        }
      ],
      "name": "registerTokenERC20",
      "outputs": [],
      "stateMutability": "nonpayable",
      "type": "function"
    },
    {
      "inputs": [
        {
          "internalType": "string",
          "name": "tokenName",
          "type": "string"
        },
        {
          "internalType": "string",
          "name": "tokenSymbol",
          "type": "string"
        },
        {
          "internalType": "address",
          "name": "tokenContractAddress",
          "type": "address"
        }
      ],
      "name": "registerTokenERC721",
      "outputs": [],
      "stateMutability": "nonpayable",
      "type": "function"
    },
    {
      "inputs": [
        {
          "internalType": "string",
          "name": "tokenName",
          "type": "string"
        },
        {
          "internalType": "string",
          "name": "tokenURI",
          "type": "string"
        },
        {
          "internalType": "address",
          "name": "tokenContractAddress",
          "type": "address"
        }
      ],
      "name": "registerTokenERC1155",
      "outputs": [],
      "stateMutability": "nonpayable",
      "type": "function"
    }
  ],
  "bytecode": "0x60806040523480156200001157600080fd5b50620000286000620000226200005d565b62000061565b620000577fd1f21ec03a6eb050fba156f5316dad461735df521fb446dd42c5a4728e9c70fe620000226200005d565b62000124565b3390565b6200006d828262000071565b5050565b6200007d8282620000fb565b6200006d576000828152602081815260408083206001600160a01b03851684529091529020805460ff19166001179055620000b76200005d565b6001600160a01b0316816001600160a01b0316837f2f8788117e7eff1d82e926ec794901d17c78024a50270940304540a733656f0d60405160405180910390a45050565b6000918252602082815260408084206001600160a01b0393909316845291905290205460ff1690565b61181780620001346000396000f3fe608060405234801561001057600080fd5b506004361061012c5760003560e01c806374f53317116100ad578063a217fddf11610071578063a217fddf1461024b578063c082713b14610253578063c7092a8214610266578063d547741f1461026e578063dd2c859c146102815761012c565b806374f533171461020d57806390344f621461021557806391567da81461021d57806391d14854146102305780639f45c1d3146102435761012c565b806336568abe116100f457806336568abe146101b7578063455686c3146101ca5780634d4825a0146101d25780634dd1b5f8146101e557806353206452146101f85761012c565b806301ab669c1461013157806301ffc9a71461014f57806310a43eba1461016f578063248a9ca31461018f5780632f2ff15d146101a2575b600080fd5b610139610294565b604051610146919061159e565b60405180910390f35b61016261015d3660046113a0565b61029a565b6040516101469190611593565b61018261017d3660046113cf565b6102c7565b60405161014691906114e8565b61013961019d36600461135d565b6102fb565b6101b56101b0366004611375565b610310565b005b6101b56101c5366004611375565b610357565b610139610399565b6101b56101e036600461140f565b61039f565b6101826101f33660046113cf565b61061b565b61020061062f565b60405161014691906114fc565b6101396107c8565b6101396107ec565b61018261022b3660046113cf565b6107f2565b61016261023e366004611375565b610806565b61020061082f565b6101396109bf565b6101b561026136600461140f565b6109c4565b610200610c9d565b6101b561027c366004611375565b610e2d565b6101b561028f36600461140f565b610e55565b60035490565b60006001600160e01b03198216637965db0b60e01b14806102bf57506102bf82611117565b90505b919050565b6000600283836040516102db9291906114d8565b908152604051908190036020019020546001600160a01b03169392505050565b60009081526020819052604090206001015490565b61032461031c836102fb565b61023e611130565b6103495760405162461bcd60e51b8152600401610340906115a7565b60405180910390fd5b6103538282611134565b5050565b61035f611130565b6001600160a01b0316816001600160a01b03161461038f5760405162461bcd60e51b815260040161034090611749565b61035382826111b9565b60015490565b82828080601f016020809104026020016040519081016040528093929190818152602001838380828437600092019190915250508251839250151590506103f85760405162461bcd60e51b815260040161034090611661565b60006001600160a01b0316600686866040516104159291906114d8565b908152604051908190036020019020546001600160a01b03161461044b5760405162461bcd60e51b815260040161034090611604565b6019841061046b5760405162461bcd60e51b815260040161034090611705565b826006868660405161047e9291906114d8565b90815260405190819003602001902080546001600160a01b03929092166001600160a01b03199092169190911790556104b561123c565b87878080601f016020809104026020016040519081016040528093929190818152602001838380828437600092019190915250505090825250604080516020601f880181900481028201810190925286815290879087908190840183828082843760009201829052506020808701959095526001600160a01b038916604087015260058054600181018255915285518051879660039093027f036b6384b5eca791c62761152d0c79bb0604c104a5fb6f4eb0703f3154bb3db00195506105819450859350910190611266565b50602082810151805161059a9260018501920190611266565b5060409182015160029190910180546001600160a01b0319166001600160a01b03909216919091179055516105d290879087906114d8565b60405180910390207f823c87a16eb6a527733c83f98949577c23e881d4bd9e2af78535058fa5cd775c8560405161060991906114e8565b60405180910390a25050505050505050565b6000600683836040516102db9291906114d8565b60606001805480602002602001604051908101604052809291908181526020016000905b828210156107bf5783829060005260206000209060030201604051806060016040529081600082018054610686906117a6565b80601f01602080910402602001604051908101604052809291908181526020018280546106b2906117a6565b80156106ff5780601f106106d4576101008083540402835291602001916106ff565b820191906000526020600020905b8154815290600101906020018083116106e257829003601f168201915b50505050508152602001600182018054610718906117a6565b80601f0160208091040260200160405190810160405280929190818152602001828054610744906117a6565b80156107915780601f1061076657610100808354040283529160200191610791565b820191906000526020600020905b81548152906001019060200180831161077457829003601f168201915b5050509183525050600291909101546001600160a01b03166020918201529082526001929092019101610653565b50505050905090565b7fd1f21ec03a6eb050fba156f5316dad461735df521fb446dd42c5a4728e9c70fe81565b60055490565b6000600483836040516102db9291906114d8565b6000918252602082815260408084206001600160a01b0393909316845291905290205460ff1690565b60606003805480602002602001604051908101604052809291908181526020016000905b828210156107bf5783829060005260206000209060030201604051806060016040529081600082018054610886906117a6565b80601f01602080910402602001604051908101604052809291908181526020018280546108b2906117a6565b80156108ff5780601f106108d4576101008083540402835291602001916108ff565b820191906000526020600020905b8154815290600101906020018083116108e257829003601f168201915b50505050508152602001600182018054610918906117a6565b80601f0160208091040260200160405190810160405280929190818152602001828054610944906117a6565b80156109915780601f1061096657610100808354040283529160200191610991565b820191906000526020600020905b81548152906001019060200180831161097457829003601f168201915b5050509183525050600291909101546001600160a01b03166020918201529082526001929092019101610853565b600081565b84848080601f01602080910402602001604051908101604052809392919081815260200183838082843760009201919091525050825183925015159050610a1d5760405162461bcd60e51b815260040161034090611661565b84848080601f01602080910402602001604051908101604052809392919081815260200183838082843760009201919091525050825183925015159050610a765760405162461bcd60e51b815260040161034090611661565b60006001600160a01b031660048888604051610a939291906114d8565b908152604051908190036020019020546001600160a01b031614610ac95760405162461bcd60e51b815260040161034090611604565b60198610610ae95760405162461bcd60e51b815260040161034090611705565b8460048888604051610afc9291906114d8565b90815260405190819003602001902080546001600160a01b03929092166001600160a01b0319909216919091179055610b3361123c565b89898080601f016020809104026020016040519081016040528093929190818152602001838380828437600092019190915250505090825250604080516020601f8a0181900481028201810190925288815290899089908190840183828082843760009201829052506020808701959095526001600160a01b038b1660408701526003805460018101825591819052865180518897939092027fc2575a0e9e593c00f959f8c92f12db2869c3395a3b0502d05e2516446f71f85b019550610c01945085935090910190611266565b506020828101518051610c1a9260018501920190611266565b5060409182015160029190910180546001600160a01b0319166001600160a01b0390921691909117905551610c5290899089906114d8565b60405180910390207f8b716abc5c12b2b1b216049f179e5b7ea408a5a96880c14d00b5c83282e43b9587604051610c8991906114e8565b60405180910390a250505050505050505050565b60606005805480602002602001604051908101604052809291908181526020016000905b828210156107bf5783829060005260206000209060030201604051806060016040529081600082018054610cf4906117a6565b80601f0160208091040260200160405190810160405280929190818152602001828054610d20906117a6565b8015610d6d5780601f10610d4257610100808354040283529160200191610d6d565b820191906000526020600020905b815481529060010190602001808311610d5057829003601f168201915b50505050508152602001600182018054610d86906117a6565b80601f0160208091040260200160405190810160405280929190818152602001828054610db2906117a6565b8015610dff5780601f10610dd457610100808354040283529160200191610dff565b820191906000526020600020905b815481529060010190602001808311610de257829003601f168201915b5050509183525050600291909101546001600160a01b03166020918201529082526001929092019101610cc1565b610e3961031c836102fb565b61038f5760405162461bcd60e51b8152600401610340906116a8565b84848080601f01602080910402602001604051908101604052809392919081815260200183838082843760009201919091525050825183925015159050610eae5760405162461bcd60e51b815260040161034090611661565b84848080601f01602080910402602001604051908101604052809392919081815260200183838082843760009201919091525050825183925015159050610f075760405162461bcd60e51b815260040161034090611661565b60006001600160a01b031660028888604051610f249291906114d8565b908152604051908190036020019020546001600160a01b031614610f5a5760405162461bcd60e51b815260040161034090611604565b60198610610f7a5760405162461bcd60e51b815260040161034090611705565b8460028888604051610f8d9291906114d8565b90815260405190819003602001902080546001600160a01b03929092166001600160a01b0319909216919091179055610fc461123c565b89898080601f016020809104026020016040519081016040528093929190818152602001838380828437600092019190915250505090825250604080516020601f8a0181900481028201810190925288815290899089908190840183828082843760009201829052506020808701959095526001600160a01b038b166040870152600180548082018255915285518051879660039093027fb10e2d527612073b26eecdfd717e6a320cf44b4afac2b0732d9fcbe2b7fa0cf601955061108f9450859350910190611266565b5060208281015180516110a89260018501920190611266565b5060409182015160029190910180546001600160a01b0319166001600160a01b03909216919091179055516110e090899089906114d8565b60405180910390207f8332d9919bf32207cb796a0a21674da0f96c4d6f2257c02073ff112e117bff0c87604051610c8991906114e8565b6001600160e01b031981166301ffc9a760e01b14919050565b3390565b61113e8282610806565b610353576000828152602081815260408083206001600160a01b03851684529091529020805460ff19166001179055611175611130565b6001600160a01b0316816001600160a01b0316837f2f8788117e7eff1d82e926ec794901d17c78024a50270940304540a733656f0d60405160405180910390a45050565b6111c38282610806565b15610353576000828152602081815260408083206001600160a01b03851684529091529020805460ff191690556111f8611130565b6001600160a01b0316816001600160a01b0316837ff6391f5c32d9c69d2a47ea670b442974b53935d1edc7fd64eb21e047a839171b60405160405180910390a45050565b6040518060600160405280606081526020016060815260200160006001600160a01b031681525090565b828054611272906117a6565b90600052602060002090601f01602090048101928261129457600085556112da565b82601f106112ad57805160ff19168380011785556112da565b828001600101855582156112da579182015b828111156112da5782518255916020019190600101906112bf565b506112e69291506112ea565b5090565b5b808211156112e657600081556001016112eb565b80356001600160a01b03811681146102c257600080fd5b60008083601f840112611327578182fd5b50813567ffffffffffffffff81111561133e578182fd5b60208301915083602082850101111561135657600080fd5b9250929050565b60006020828403121561136e578081fd5b5035919050565b60008060408385031215611387578081fd5b82359150611397602084016112ff565b90509250929050565b6000602082840312156113b1578081fd5b81356001600160e01b0319811681146113c8578182fd5b9392505050565b600080602083850312156113e1578182fd5b823567ffffffffffffffff8111156113f7578283fd5b61140385828601611316565b90969095509350505050565b600080600080600060608688031215611426578081fd5b853567ffffffffffffffff8082111561143d578283fd5b61144989838a01611316565b90975095506020880135915080821115611461578283fd5b5061146e88828901611316565b90945092506114819050604087016112ff565b90509295509295909350565b60008151808452815b818110156114b257602081850181015186830182015201611496565b818111156114c35782602083870101525b50601f01601f19169290920160200192915050565b6000828483379101908152919050565b6001600160a01b0391909116815260200190565b60208082528251828201819052600091906040908185019080840286018301878501865b8381101561158557603f198984030185528151606081518186526115468287018261148d565b915050888201518582038a87015261155e828261148d565b928901516001600160a01b0316958901959095525094870194925090860190600101611520565b509098975050505050505050565b901515815260200190565b90815260200190565b6020808252602f908201527f416363657373436f6e74726f6c3a2073656e646572206d75737420626520616e60408201527f2061646d696e20746f206772616e740000000000000000000000000000000000606082015260800190565b60208082526032908201527f4272696467654d616e616765723a20746f6b656e20616464726573732069732060408201527f616c726561647920726567697374657265640000000000000000000000000000606082015260800190565b60208082526027908201527f4272696467654d616e616765723a20746f6b656e4e616d652063616e277420626040820152666520656d70747960c81b606082015260800190565b60208082526030908201527f416363657373436f6e74726f6c3a2073656e646572206d75737420626520616e60408201527f2061646d696e20746f207265766f6b6500000000000000000000000000000000606082015260800190565b60208082526024908201527f4272696467654d616e616765723a20746f6b656e2053796d626f6c20746f6f206040820152636c6f6e6760e01b606082015260800190565b6020808252602f908201527f416363657373436f6e74726f6c3a2063616e206f6e6c792072656e6f756e636560408201527f20726f6c657320666f722073656c660000000000000000000000000000000000606082015260800190565b6002810460018216806117ba57607f821691505b602082108114156117db57634e487b7160e01b600052602260045260246000fd5b5091905056fea2646970667358221220538161c5f8d8734a14544e7004f82505349ecb0f508690f281b10d57fc00e62a64736f6c63430008000033",
  "immutableReferences": {},
  "source": "// SPDX-License-Identifier: MIT\npragma solidity ^0.8.0;\npragma experimental ABIEncoderV2;\n\nimport \"@openzeppelin/contracts/access/AccessControl.sol\";\nimport \"@openzeppelin/contracts/token/ERC20/IERC20.sol\";\nimport \"@openzeppelin/contracts/token/ERC721/IERC721.sol\";\n\n/// @author The PRIVI Blockchain team\n/// @title Manages Bridge with ethereum, ERC20 tokens and ERC721 tokens between Users on Ethereum and PRIVI platform\n\ncontract BridgeManager is AccessControl {\n  bytes32 public constant REGISTER_ROLE = keccak256(\"REGISTER_ROLE\");\n  address private constant ZERO_ADDRESS =\n    0x0000000000000000000000000000000000000000;\n\n  struct registeredToken {\n    string name;\n    string symbol;\n    address deployedAddress;\n  }\n\n  registeredToken[] private erc20RegisteredArray;\n  mapping(string => address) private contractAddressERC20;\n\n  registeredToken[] private erc721RegisteredArray;\n  mapping(string => address) private contractAddressERC721;\n\n  registeredToken[] private erc1155RegisteredArray;\n  mapping(string => address) private contractAddressERC1155;\n\n  event RegisterERC20Token(string indexed name, address tokenAddress);\n  event UnRegisterERC20Token(string indexed name);\n  event RegisterERC721Token(string indexed name, address tokenAddress);\n  event UnRegisterERC721Token(string indexed name);\n  event RegisterERC1155Token(string indexed name, address tokenAddress);\n  event UnRegisterERC1155Token(string indexed name);\n\n  /**\n   * @notice  Modifier to require 'tokenName' is not empty\n   * @param   tokenNameToCheck Token name to be checked\n   */\n  modifier nameIsNotEmpty(string memory tokenNameToCheck) {\n    bytes memory bytesTokenName = bytes(tokenNameToCheck);\n    require(\n      bytesTokenName.length != 0,\n      \"BridgeManager: tokenName can't be empty\"\n    );\n    _;\n  }\n\n  /**\n   * @notice Constructor to assign all roles to contract creator\n   */\n  constructor() {\n    _setupRole(DEFAULT_ADMIN_ROLE, _msgSender());\n    _setupRole(REGISTER_ROLE, _msgSender());\n  }\n\n  /**\n   * @notice get an address of a registered erc20 tokens\n   */\n  function getErc20AddressRegistered(string calldata tokenSymbol)\n    external\n    view\n    returns (address returnAddress)\n  {\n    returnAddress = contractAddressERC20[tokenSymbol];\n  }\n\n  /**\n   * @notice get an array of all registered erc20 tokens\n   */\n  function getAllErc20Registered()\n    external\n    view\n    returns (registeredToken[] memory)\n  {\n    return erc20RegisteredArray;\n  }\n\n  /**\n   * @notice get count of all registered erc20 tokens\n   */\n  function getAllErc20Count() external view returns (uint256) {\n    return erc20RegisteredArray.length;\n  }\n\n  /**\n   * @notice get an address of a registered erc721 tokens\n   */\n  function getErc721AddressRegistered(string calldata tokenSymbol)\n    external\n    view\n    returns (address returnAddress)\n  {\n    returnAddress = contractAddressERC721[tokenSymbol];\n  }\n\n  /**\n   * @notice get an array of all registered erc721 tokens\n   */\n  function getAllErc721Registered()\n    external\n    view\n    returns (registeredToken[] memory)\n  {\n    return erc721RegisteredArray;\n  }\n\n  /**\n   * @notice get count of all registered erc721 tokens\n   */\n  function getAllErc721Count() external view returns (uint256) {\n    return erc721RegisteredArray.length;\n  }\n\n  /**\n   * @notice get an address of a registered erc1155 tokens\n   */\n  function getErc1155AddressRegistered(string calldata tokenURI)\n    external\n    view\n    returns (address returnAddress)\n  {\n    returnAddress = contractAddressERC1155[tokenURI];\n  }\n\n  /**\n   * @notice get an array of all registered erc1155 tokens\n   */\n  function getAllErc1155Registered()\n    external\n    view\n    returns (registeredToken[] memory)\n  {\n    return erc1155RegisteredArray;\n  }\n\n  /**\n   * @notice get count of all registered erc1155 tokens\n   */\n  function getAllErc1155Count() external view returns (uint256) {\n    return erc1155RegisteredArray.length;\n  }\n\n  /**\n   * @notice  Register the contract address of an ERC20 Token\n   * @dev     - Token name and address can't be already registered\n   *          - Length of token name can't be higher than 25\n   * @param   tokenName Name of the token to be registered (e.g.: DAI, UNI)\n   * @param   tokenContractAddress Contract address of the ERC20 Token\n   */\n  function registerTokenERC20(\n    string calldata tokenName,\n    string calldata tokenSymbol,\n    address tokenContractAddress\n  ) external nameIsNotEmpty(tokenName) nameIsNotEmpty(tokenSymbol) {\n    require(\n      contractAddressERC20[tokenSymbol] == ZERO_ADDRESS,\n      \"BridgeManager: token address is already registered\"\n    );\n    require(\n      bytes(tokenSymbol).length < 25,\n      \"BridgeManager: token Symbol too long\"\n    );\n    contractAddressERC20[tokenSymbol] = tokenContractAddress;\n    registeredToken memory regToken;\n    regToken.name = tokenName;\n    regToken.symbol = tokenSymbol;\n    regToken.deployedAddress = tokenContractAddress;\n    erc20RegisteredArray.push(regToken);\n    emit RegisterERC20Token(tokenSymbol, tokenContractAddress);\n  }\n\n  /**\n   * @notice  Register the contract address of an ERC721 Token\n   * @dev     - Token name and address can't be already registered\n   *          - Length of token name can't be higher than 25\n   * @param   tokenName Name of the token to be registered\n   * @param   tokenContractAddress Contract address of the ERC721 Token\n   */\n  function registerTokenERC721(\n    string calldata tokenName,\n    string calldata tokenSymbol,\n    address tokenContractAddress\n  ) external nameIsNotEmpty(tokenName) nameIsNotEmpty(tokenSymbol) {\n    // require(hasRole(REGISTER_ROLE, _msgSender()),\n    //     \"BridgeManager: must have REGISTER_ROLE to register a token\");\n    require(\n      contractAddressERC721[tokenSymbol] == ZERO_ADDRESS,\n      \"BridgeManager: token address is already registered\"\n    );\n    require(\n      bytes(tokenSymbol).length < 25,\n      \"BridgeManager: token Symbol too long\"\n    );\n    contractAddressERC721[tokenSymbol] = tokenContractAddress;\n    registeredToken memory regToken;\n    regToken.name = tokenName;\n    regToken.symbol = tokenSymbol;\n    regToken.deployedAddress = tokenContractAddress;\n    erc721RegisteredArray.push(regToken);\n    emit RegisterERC721Token(tokenSymbol, tokenContractAddress);\n  }\n\n  /**\n   * @notice  Register the contract address of an ERC1155 Token\n   * @dev     - Token name and address can't be already registered\n   *          - Length of token name can't be higher than 25\n   * @param   tokenURI URI of the token to be registered\n   * @param   tokenContractAddress Contract address of the ERC1155 Token\n   */\n  function registerTokenERC1155(\n    string calldata tokenName,\n    string calldata tokenURI,\n    address tokenContractAddress\n  ) external nameIsNotEmpty(tokenURI) {\n    require(\n      contractAddressERC1155[tokenURI] == ZERO_ADDRESS,\n      \"BridgeManager: token address is already registered\"\n    );\n    require(\n      bytes(tokenURI).length < 25,\n      \"BridgeManager: token Symbol too long\"\n    );\n    contractAddressERC1155[tokenURI] = tokenContractAddress;\n    registeredToken memory regToken;\n    regToken.name = tokenName;\n    regToken.symbol = tokenURI;\n    regToken.deployedAddress = tokenContractAddress;\n    erc1155RegisteredArray.push(regToken);\n    emit RegisterERC1155Token(tokenURI, tokenContractAddress);\n  }\n}\n",
  "sourcePath": "/home/rekard0/Documents/WORK/PriviEthereum/PRIVIethereum/contracts/BridgeManager.sol",
  "compiler": {
    "name": "solc",
    "version": "0.8.0+commit.c7dfd78e.Emscripten.clang"
  },
  "schemaVersion": "3.3.3",
  "updatedAt": "2021-03-19T10:13:39.532Z",
  "networkType": "ethereum",
  "devdoc": {
    "author": "The PRIVI Blockchain team",
    "kind": "dev",
    "methods": {
      "getRoleAdmin(bytes32)": {
        "details": "Returns the admin role that controls `role`. See {grantRole} and {revokeRole}. To change a role's admin, use {_setRoleAdmin}."
      },
      "grantRole(bytes32,address)": {
        "details": "Grants `role` to `account`. If `account` had not been already granted `role`, emits a {RoleGranted} event. Requirements: - the caller must have ``role``'s admin role."
      },
      "hasRole(bytes32,address)": {
        "details": "Returns `true` if `account` has been granted `role`."
      },
      "registerTokenERC1155(string,string,address)": {
        "details": "- Token name and address can't be already registered          - Length of token name can't be higher than 25",
        "params": {
          "tokenContractAddress": "Contract address of the ERC1155 Token",
          "tokenURI": "URI of the token to be registered"
        }
      },
      "registerTokenERC20(string,string,address)": {
        "details": "- Token name and address can't be already registered          - Length of token name can't be higher than 25",
        "params": {
          "tokenContractAddress": "Contract address of the ERC20 Token",
          "tokenName": "Name of the token to be registered (e.g.: DAI, UNI)"
        }
      },
      "registerTokenERC721(string,string,address)": {
        "details": "- Token name and address can't be already registered          - Length of token name can't be higher than 25",
        "params": {
          "tokenContractAddress": "Contract address of the ERC721 Token",
          "tokenName": "Name of the token to be registered"
        }
      },
      "renounceRole(bytes32,address)": {
        "details": "Revokes `role` from the calling account. Roles are often managed via {grantRole} and {revokeRole}: this function's purpose is to provide a mechanism for accounts to lose their privileges if they are compromised (such as when a trusted device is misplaced). If the calling account had been granted `role`, emits a {RoleRevoked} event. Requirements: - the caller must be `account`."
      },
      "revokeRole(bytes32,address)": {
        "details": "Revokes `role` from `account`. If `account` had been granted `role`, emits a {RoleRevoked} event. Requirements: - the caller must have ``role``'s admin role."
      },
      "supportsInterface(bytes4)": {
        "details": "See {IERC165-supportsInterface}."
      }
    },
    "title": "Manages Bridge with ethereum, ERC20 tokens and ERC721 tokens between Users on Ethereum and PRIVI platform",
    "version": 1
  },
  "userdoc": {
    "kind": "user",
    "methods": {
      "constructor": {
        "notice": "Constructor to assign all roles to contract creator"
      },
      "getAllErc1155Count()": {
        "notice": "get count of all registered erc1155 tokens"
      },
      "getAllErc1155Registered()": {
        "notice": "get an array of all registered erc1155 tokens"
      },
      "getAllErc20Count()": {
        "notice": "get count of all registered erc20 tokens"
      },
      "getAllErc20Registered()": {
        "notice": "get an array of all registered erc20 tokens"
      },
      "getAllErc721Count()": {
        "notice": "get count of all registered erc721 tokens"
      },
      "getAllErc721Registered()": {
        "notice": "get an array of all registered erc721 tokens"
      },
      "getErc1155AddressRegistered(string)": {
        "notice": "get an address of a registered erc1155 tokens"
      },
      "getErc20AddressRegistered(string)": {
        "notice": "get an address of a registered erc20 tokens"
      },
      "getErc721AddressRegistered(string)": {
        "notice": "get an address of a registered erc721 tokens"
      },
      "registerTokenERC1155(string,string,address)": {
        "notice": "Register the contract address of an ERC1155 Token"
      },
      "registerTokenERC20(string,string,address)": {
        "notice": "Register the contract address of an ERC20 Token"
      },
      "registerTokenERC721(string,string,address)": {
        "notice": "Register the contract address of an ERC721 Token"
      }
    },
    "version": 1
  }
}