{
  "contractName": "BridgeManager",
  "abi": [
    {
      "inputs": [],
      "stateMutability": "nonpayable",
      "type": "constructor"
    },
    {
      "anonymous": false,
      "inputs": [
        {
          "indexed": true,
          "internalType": "string",
          "name": "name",
          "type": "string"
        },
        {
          "indexed": false,
          "internalType": "address",
          "name": "tokenAddress",
          "type": "address"
        }
      ],
      "name": "RegisterERC1155Token",
      "type": "event"
    },
    {
      "anonymous": false,
      "inputs": [
        {
          "indexed": true,
          "internalType": "string",
          "name": "name",
          "type": "string"
        },
        {
          "indexed": false,
          "internalType": "address",
          "name": "tokenAddress",
          "type": "address"
        }
      ],
      "name": "RegisterERC20Token",
      "type": "event"
    },
    {
      "anonymous": false,
      "inputs": [
        {
          "indexed": true,
          "internalType": "string",
          "name": "name",
          "type": "string"
        },
        {
          "indexed": false,
          "internalType": "address",
          "name": "tokenAddress",
          "type": "address"
        }
      ],
      "name": "RegisterERC721Token",
      "type": "event"
    },
    {
      "anonymous": false,
      "inputs": [
        {
          "indexed": true,
          "internalType": "bytes32",
          "name": "role",
          "type": "bytes32"
        },
        {
          "indexed": true,
          "internalType": "bytes32",
          "name": "previousAdminRole",
          "type": "bytes32"
        },
        {
          "indexed": true,
          "internalType": "bytes32",
          "name": "newAdminRole",
          "type": "bytes32"
        }
      ],
      "name": "RoleAdminChanged",
      "type": "event"
    },
    {
      "anonymous": false,
      "inputs": [
        {
          "indexed": true,
          "internalType": "bytes32",
          "name": "role",
          "type": "bytes32"
        },
        {
          "indexed": true,
          "internalType": "address",
          "name": "account",
          "type": "address"
        },
        {
          "indexed": true,
          "internalType": "address",
          "name": "sender",
          "type": "address"
        }
      ],
      "name": "RoleGranted",
      "type": "event"
    },
    {
      "anonymous": false,
      "inputs": [
        {
          "indexed": true,
          "internalType": "bytes32",
          "name": "role",
          "type": "bytes32"
        },
        {
          "indexed": true,
          "internalType": "address",
          "name": "account",
          "type": "address"
        },
        {
          "indexed": true,
          "internalType": "address",
          "name": "sender",
          "type": "address"
        }
      ],
      "name": "RoleRevoked",
      "type": "event"
    },
    {
      "anonymous": false,
      "inputs": [
        {
          "indexed": true,
          "internalType": "string",
          "name": "name",
          "type": "string"
        }
      ],
      "name": "UnRegisterERC1155Token",
      "type": "event"
    },
    {
      "anonymous": false,
      "inputs": [
        {
          "indexed": true,
          "internalType": "string",
          "name": "name",
          "type": "string"
        }
      ],
      "name": "UnRegisterERC20Token",
      "type": "event"
    },
    {
      "anonymous": false,
      "inputs": [
        {
          "indexed": true,
          "internalType": "string",
          "name": "name",
          "type": "string"
        }
      ],
      "name": "UnRegisterERC721Token",
      "type": "event"
    },
    {
      "inputs": [],
      "name": "DEFAULT_ADMIN_ROLE",
      "outputs": [
        {
          "internalType": "bytes32",
          "name": "",
          "type": "bytes32"
        }
      ],
      "stateMutability": "view",
      "type": "function",
      "constant": true
    },
    {
      "inputs": [],
      "name": "REGISTER_ROLE",
      "outputs": [
        {
          "internalType": "bytes32",
          "name": "",
          "type": "bytes32"
        }
      ],
      "stateMutability": "view",
      "type": "function",
      "constant": true
    },
    {
      "inputs": [
        {
          "internalType": "bytes32",
          "name": "role",
          "type": "bytes32"
        }
      ],
      "name": "getRoleAdmin",
      "outputs": [
        {
          "internalType": "bytes32",
          "name": "",
          "type": "bytes32"
        }
      ],
      "stateMutability": "view",
      "type": "function",
      "constant": true
    },
    {
      "inputs": [
        {
          "internalType": "bytes32",
          "name": "role",
          "type": "bytes32"
        },
        {
          "internalType": "uint256",
          "name": "index",
          "type": "uint256"
        }
      ],
      "name": "getRoleMember",
      "outputs": [
        {
          "internalType": "address",
          "name": "",
          "type": "address"
        }
      ],
      "stateMutability": "view",
      "type": "function",
      "constant": true
    },
    {
      "inputs": [
        {
          "internalType": "bytes32",
          "name": "role",
          "type": "bytes32"
        }
      ],
      "name": "getRoleMemberCount",
      "outputs": [
        {
          "internalType": "uint256",
          "name": "",
          "type": "uint256"
        }
      ],
      "stateMutability": "view",
      "type": "function",
      "constant": true
    },
    {
      "inputs": [
        {
          "internalType": "bytes32",
          "name": "role",
          "type": "bytes32"
        },
        {
          "internalType": "address",
          "name": "account",
          "type": "address"
        }
      ],
      "name": "grantRole",
      "outputs": [],
      "stateMutability": "nonpayable",
      "type": "function"
    },
    {
      "inputs": [
        {
          "internalType": "bytes32",
          "name": "role",
          "type": "bytes32"
        },
        {
          "internalType": "address",
          "name": "account",
          "type": "address"
        }
      ],
      "name": "hasRole",
      "outputs": [
        {
          "internalType": "bool",
          "name": "",
          "type": "bool"
        }
      ],
      "stateMutability": "view",
      "type": "function",
      "constant": true
    },
    {
      "inputs": [
        {
          "internalType": "bytes32",
          "name": "role",
          "type": "bytes32"
        },
        {
          "internalType": "address",
          "name": "account",
          "type": "address"
        }
      ],
      "name": "renounceRole",
      "outputs": [],
      "stateMutability": "nonpayable",
      "type": "function"
    },
    {
      "inputs": [
        {
          "internalType": "bytes32",
          "name": "role",
          "type": "bytes32"
        },
        {
          "internalType": "address",
          "name": "account",
          "type": "address"
        }
      ],
      "name": "revokeRole",
      "outputs": [],
      "stateMutability": "nonpayable",
      "type": "function"
    },
    {
      "inputs": [
        {
          "internalType": "string",
          "name": "tokenSymbol",
          "type": "string"
        }
      ],
      "name": "getErc20AddressRegistered",
      "outputs": [
        {
          "internalType": "address",
          "name": "returnAddress",
          "type": "address"
        }
      ],
      "stateMutability": "view",
      "type": "function",
      "constant": true
    },
    {
      "inputs": [],
      "name": "getAllErc20Registered",
      "outputs": [
        {
          "components": [
            {
              "internalType": "string",
              "name": "name",
              "type": "string"
            },
            {
              "internalType": "string",
              "name": "symbol",
              "type": "string"
            },
            {
              "internalType": "address",
              "name": "deployedAddress",
              "type": "address"
            }
          ],
          "internalType": "struct BridgeManager.registeredToken[]",
          "name": "",
          "type": "tuple[]"
        }
      ],
      "stateMutability": "view",
      "type": "function",
      "constant": true
    },
    {
      "inputs": [],
      "name": "getAllErc20Count",
      "outputs": [
        {
          "internalType": "uint256",
          "name": "",
          "type": "uint256"
        }
      ],
      "stateMutability": "view",
      "type": "function",
      "constant": true
    },
    {
      "inputs": [
        {
          "internalType": "string",
          "name": "tokenSymbol",
          "type": "string"
        }
      ],
      "name": "getErc721AddressRegistered",
      "outputs": [
        {
          "internalType": "address",
          "name": "returnAddress",
          "type": "address"
        }
      ],
      "stateMutability": "view",
      "type": "function",
      "constant": true
    },
    {
      "inputs": [],
      "name": "getAllErc721Registered",
      "outputs": [
        {
          "components": [
            {
              "internalType": "string",
              "name": "name",
              "type": "string"
            },
            {
              "internalType": "string",
              "name": "symbol",
              "type": "string"
            },
            {
              "internalType": "address",
              "name": "deployedAddress",
              "type": "address"
            }
          ],
          "internalType": "struct BridgeManager.registeredToken[]",
          "name": "",
          "type": "tuple[]"
        }
      ],
      "stateMutability": "view",
      "type": "function",
      "constant": true
    },
    {
      "inputs": [],
      "name": "getAllErc721Count",
      "outputs": [
        {
          "internalType": "uint256",
          "name": "",
          "type": "uint256"
        }
      ],
      "stateMutability": "view",
      "type": "function",
      "constant": true
    },
    {
      "inputs": [
        {
          "internalType": "string",
          "name": "tokenURI",
          "type": "string"
        }
      ],
      "name": "getErc1155AddressRegistered",
      "outputs": [
        {
          "internalType": "address",
          "name": "returnAddress",
          "type": "address"
        }
      ],
      "stateMutability": "view",
      "type": "function",
      "constant": true
    },
    {
      "inputs": [],
      "name": "getAllErc1155Registered",
      "outputs": [
        {
          "components": [
            {
              "internalType": "string",
              "name": "name",
              "type": "string"
            },
            {
              "internalType": "string",
              "name": "symbol",
              "type": "string"
            },
            {
              "internalType": "address",
              "name": "deployedAddress",
              "type": "address"
            }
          ],
          "internalType": "struct BridgeManager.registeredToken[]",
          "name": "",
          "type": "tuple[]"
        }
      ],
      "stateMutability": "view",
      "type": "function",
      "constant": true
    },
    {
      "inputs": [],
      "name": "getAllErc1155Count",
      "outputs": [
        {
          "internalType": "uint256",
          "name": "",
          "type": "uint256"
        }
      ],
      "stateMutability": "view",
      "type": "function",
      "constant": true
    },
    {
      "inputs": [
        {
          "internalType": "string",
          "name": "tokenName",
          "type": "string"
        },
        {
          "internalType": "string",
          "name": "tokenSymbol",
          "type": "string"
        },
        {
          "internalType": "address",
          "name": "tokenContractAddress",
          "type": "address"
        }
      ],
      "name": "registerTokenERC20",
      "outputs": [],
      "stateMutability": "nonpayable",
      "type": "function"
    },
    {
      "inputs": [
        {
          "internalType": "string",
          "name": "tokenName",
          "type": "string"
        },
        {
          "internalType": "string",
          "name": "tokenSymbol",
          "type": "string"
        },
        {
          "internalType": "address",
          "name": "tokenContractAddress",
          "type": "address"
        }
      ],
      "name": "registerTokenERC721",
      "outputs": [],
      "stateMutability": "nonpayable",
      "type": "function"
    },
    {
      "inputs": [
        {
          "internalType": "string",
          "name": "tokenName",
          "type": "string"
        },
        {
          "internalType": "string",
          "name": "tokenURI",
          "type": "string"
        },
        {
          "internalType": "address",
          "name": "tokenContractAddress",
          "type": "address"
        }
      ],
      "name": "registerTokenERC1155",
      "outputs": [],
      "stateMutability": "nonpayable",
      "type": "function"
    }
  ],
  "bytecode": "0x60806040523480156200001157600080fd5b50620000286000620000226200005d565b62000061565b620000577fd1f21ec03a6eb050fba156f5316dad461735df521fb446dd42c5a4728e9c70fe620000226200005d565b62000171565b3390565b6200006d828262000071565b5050565b60008281526020818152604090912062000096918390620011e2620000ea821b17901c565b156200006d57620000a66200005d565b6001600160a01b0316816001600160a01b0316837f2f8788117e7eff1d82e926ec794901d17c78024a50270940304540a733656f0d60405160405180910390a45050565b600062000101836001600160a01b0384166200010a565b90505b92915050565b600062000118838362000159565b620001505750815460018181018455600084815260208082209093018490558454848252828601909352604090209190915562000104565b50600062000104565b60009081526001919091016020526040902054151590565b6119d180620001816000396000f3fe608060405234801561001057600080fd5b50600436106101475760003560e01c80639010d07c116100c8578063a217fddf1161008c578063ca15c87311610066578063ca15c87314610289578063d547741f1461029c578063dd2c859c146102af57610147565b8063a217fddf14610266578063c082713b1461026e578063c7092a821461028157610147565b80639010d07c1461021057806390344f621461022357806391567da81461022b57806391d148541461023e5780639f45c1d31461025e57610147565b8063455686c31161010f578063455686c3146101c55780634d4825a0146101cd5780634dd1b5f8146101e057806353206452146101f357806374f533171461020857610147565b806301ab669c1461014c57806310a43eba1461016a578063248a9ca31461018a5780632f2ff15d1461019d57806336568abe146101b2575b600080fd5b6101546102c2565b60405161016191906117fa565b60405180910390f35b61017d61017836600461162b565b6102c8565b6040516101619190611744565b6101546101983660046115c7565b6102fc565b6101b06101ab3660046115df565b610314565b005b6101b06101c03660046115df565b61037b565b6101546103dc565b6101b06101db36600461166b565b6103e2565b61017d6101ee36600461162b565b610667565b6101fb61067b565b6040516101619190611758565b610154610821565b61017d61021e36600461160a565b610845565b610154610866565b61017d61023936600461162b565b61086c565b61025161024c3660046115df565b610880565b60405161016191906117ef565b6101fb610898565b610154610a35565b6101b061027c36600461166b565b610a3a565b6101fb610d13565b6101546102973660046115c7565b610eb0565b6101b06102aa3660046115df565b610ec7565b6101b06102bd36600461166b565b610f20565b60035490565b6000600283836040516102dc929190611734565b908152604051908190036020019020546001600160a01b03169392505050565b6000818152602081905260409020600201545b919050565b6000828152602081905260409020600201546103329061024c6111f7565b61036d5760405162461bcd60e51b815260040180806020018281038252602f81526020018061190e602f913960400191505060405180910390fd5b61037782826111fb565b5050565b6103836111f7565b6001600160a01b0316816001600160a01b0316146103d25760405162461bcd60e51b815260040180806020018281038252602f81526020018061196d602f913960400191505060405180910390fd5b6103778282611264565b60015490565b82828080601f016020809104026020016040519081016040528093929190818152602001838380828437600092019190915250508251839250151590506104445760405162461bcd60e51b815260040161043b90611860565b60405180910390fd5b60006001600160a01b031660068686604051610461929190611734565b908152604051908190036020019020546001600160a01b0316146104975760405162461bcd60e51b815260040161043b90611803565b601984106104b75760405162461bcd60e51b815260040161043b906118a7565b82600686866040516104ca929190611734565b90815260405190819003602001902080546001600160a01b03929092166001600160a01b031990921691909117905561050161149e565b87878080601f016020809104026020016040519081016040528093929190818152602001838380828437600092019190915250505090825250604080516020601f880181900481028201810190925286815290879087908190840183828082843760009201829052506020808701959095526001600160a01b038916604087015260058054600181018255915285518051879660039093027f036b6384b5eca791c62761152d0c79bb0604c104a5fb6f4eb0703f3154bb3db00195506105cd94508593509101906114c8565b5060208281015180516105e692600185019201906114c8565b5060409182015160029190910180546001600160a01b0319166001600160a01b039092169190911790555161061e9087908790611734565b60405180910390207f823c87a16eb6a527733c83f98949577c23e881d4bd9e2af78535058fa5cd775c856040516106559190611744565b60405180910390a25050505050505050565b6000600683836040516102dc929190611734565b60606001805480602002602001604051908101604052809291908181526020016000905b828210156108185760008481526020908190206040805160038602909201805460026001821615610100026000190190911604601f81018590049094028301608090810190925260608301848152929390928492909184918401828280156107485780601f1061071d57610100808354040283529160200191610748565b820191906000526020600020905b81548152906001019060200180831161072b57829003601f168201915b50505050508152602001600182018054600181600116156101000203166002900480601f0160208091040260200160405190810160405280929190818152602001828054600181600116156101000203166002900480156107ea5780601f106107bf576101008083540402835291602001916107ea565b820191906000526020600020905b8154815290600101906020018083116107cd57829003601f168201915b5050509183525050600291909101546001600160a01b0316602091820152908252600192909201910161069f565b50505050905090565b7fd1f21ec03a6eb050fba156f5316dad461735df521fb446dd42c5a4728e9c70fe81565b600082815260208190526040812061085d90836112cd565b90505b92915050565b60055490565b6000600483836040516102dc929190611734565b600082815260208190526040812061085d90836112d9565b60606003805480602002602001604051908101604052809291908181526020016000905b828210156108185760008481526020908190206040805160038602909201805460026001821615610100026000190190911604601f81018590049094028301608090810190925260608301848152929390928492909184918401828280156109655780601f1061093a57610100808354040283529160200191610965565b820191906000526020600020905b81548152906001019060200180831161094857829003601f168201915b50505050508152602001600182018054600181600116156101000203166002900480601f016020809104026020016040519081016040528092919081815260200182805460018160011615610100020316600290048015610a075780601f106109dc57610100808354040283529160200191610a07565b820191906000526020600020905b8154815290600101906020018083116109ea57829003601f168201915b5050509183525050600291909101546001600160a01b031660209182015290825260019290920191016108bc565b600081565b84848080601f01602080910402602001604051908101604052809392919081815260200183838082843760009201919091525050825183925015159050610a935760405162461bcd60e51b815260040161043b90611860565b84848080601f01602080910402602001604051908101604052809392919081815260200183838082843760009201919091525050825183925015159050610aec5760405162461bcd60e51b815260040161043b90611860565b60006001600160a01b031660048888604051610b09929190611734565b908152604051908190036020019020546001600160a01b031614610b3f5760405162461bcd60e51b815260040161043b90611803565b60198610610b5f5760405162461bcd60e51b815260040161043b906118a7565b8460048888604051610b72929190611734565b90815260405190819003602001902080546001600160a01b03929092166001600160a01b0319909216919091179055610ba961149e565b89898080601f016020809104026020016040519081016040528093929190818152602001838380828437600092019190915250505090825250604080516020601f8a0181900481028201810190925288815290899089908190840183828082843760009201829052506020808701959095526001600160a01b038b1660408701526003805460018101825591819052865180518897939092027fc2575a0e9e593c00f959f8c92f12db2869c3395a3b0502d05e2516446f71f85b019550610c779450859350909101906114c8565b506020828101518051610c9092600185019201906114c8565b5060409182015160029190910180546001600160a01b0319166001600160a01b0390921691909117905551610cc89089908990611734565b60405180910390207f8b716abc5c12b2b1b216049f179e5b7ea408a5a96880c14d00b5c83282e43b9587604051610cff9190611744565b60405180910390a250505050505050505050565b60606005805480602002602001604051908101604052809291908181526020016000905b828210156108185760008481526020908190206040805160038602909201805460026001821615610100026000190190911604601f8101859004909402830160809081019092526060830184815292939092849290918491840182828015610de05780601f10610db557610100808354040283529160200191610de0565b820191906000526020600020905b815481529060010190602001808311610dc357829003601f168201915b50505050508152602001600182018054600181600116156101000203166002900480601f016020809104026020016040519081016040528092919081815260200182805460018160011615610100020316600290048015610e825780601f10610e5757610100808354040283529160200191610e82565b820191906000526020600020905b815481529060010190602001808311610e6557829003601f168201915b5050509183525050600291909101546001600160a01b03166020918201529082526001929092019101610d37565b6000818152602081905260408120610860906112ee565b600082815260208190526040902060020154610ee59061024c6111f7565b6103d25760405162461bcd60e51b815260040180806020018281038252603081526020018061193d6030913960400191505060405180910390fd5b84848080601f01602080910402602001604051908101604052809392919081815260200183838082843760009201919091525050825183925015159050610f795760405162461bcd60e51b815260040161043b90611860565b84848080601f01602080910402602001604051908101604052809392919081815260200183838082843760009201919091525050825183925015159050610fd25760405162461bcd60e51b815260040161043b90611860565b60006001600160a01b031660028888604051610fef929190611734565b908152604051908190036020019020546001600160a01b0316146110255760405162461bcd60e51b815260040161043b90611803565b601986106110455760405162461bcd60e51b815260040161043b906118a7565b8460028888604051611058929190611734565b90815260405190819003602001902080546001600160a01b03929092166001600160a01b031990921691909117905561108f61149e565b89898080601f016020809104026020016040519081016040528093929190818152602001838380828437600092019190915250505090825250604080516020601f8a0181900481028201810190925288815290899089908190840183828082843760009201829052506020808701959095526001600160a01b038b166040870152600180548082018255915285518051879660039093027fb10e2d527612073b26eecdfd717e6a320cf44b4afac2b0732d9fcbe2b7fa0cf601955061115a94508593509101906114c8565b50602082810151805161117392600185019201906114c8565b5060409182015160029190910180546001600160a01b0319166001600160a01b03909216919091179055516111ab9089908990611734565b60405180910390207f8332d9919bf32207cb796a0a21674da0f96c4d6f2257c02073ff112e117bff0c87604051610cff9190611744565b600061085d836001600160a01b0384166112f9565b3390565b600082815260208190526040902061121390826111e2565b15610377576112206111f7565b6001600160a01b0316816001600160a01b0316837f2f8788117e7eff1d82e926ec794901d17c78024a50270940304540a733656f0d60405160405180910390a45050565b600082815260208190526040902061127c9082611343565b15610377576112896111f7565b6001600160a01b0316816001600160a01b0316837ff6391f5c32d9c69d2a47ea670b442974b53935d1edc7fd64eb21e047a839171b60405160405180910390a45050565b600061085d8383611358565b600061085d836001600160a01b0384166113bc565b6000610860826113d4565b600061130583836113bc565b61133b57508154600181810184556000848152602080822090930184905584548482528286019093526040902091909155610860565b506000610860565b600061085d836001600160a01b0384166113d8565b8154600090821061139a5760405162461bcd60e51b81526004018080602001828103825260228152602001806118ec6022913960400191505060405180910390fd5b8260000182815481106113a957fe5b9060005260206000200154905092915050565b60009081526001919091016020526040902054151590565b5490565b60008181526001830160205260408120548015611494578354600019808301919081019060009087908390811061140b57fe5b906000526020600020015490508087600001848154811061142857fe5b60009182526020808320909101929092558281526001898101909252604090209084019055865487908061145857fe5b60019003818190600052602060002001600090559055866001016000878152602001908152602001600020600090556001945050505050610860565b6000915050610860565b6040518060600160405280606081526020016060815260200160006001600160a01b031681525090565b828054600181600116156101000203166002900490600052602060002090601f0160209004810192826114fe5760008555611544565b82601f1061151757805160ff1916838001178555611544565b82800160010185558215611544579182015b82811115611544578251825591602001919060010190611529565b50611550929150611554565b5090565b5b808211156115505760008155600101611555565b80356001600160a01b038116811461030f57600080fd5b60008083601f840112611591578182fd5b50813567ffffffffffffffff8111156115a8578182fd5b6020830191508360208285010111156115c057600080fd5b9250929050565b6000602082840312156115d8578081fd5b5035919050565b600080604083850312156115f1578081fd5b8235915061160160208401611569565b90509250929050565b6000806040838503121561161c578182fd5b50508035926020909101359150565b6000806020838503121561163d578182fd5b823567ffffffffffffffff811115611653578283fd5b61165f85828601611580565b90969095509350505050565b600080600080600060608688031215611682578081fd5b853567ffffffffffffffff80821115611699578283fd5b6116a589838a01611580565b909750955060208801359150808211156116bd578283fd5b506116ca88828901611580565b90945092506116dd905060408701611569565b90509295509295909350565b60008151808452815b8181101561170e576020818501810151868301820152016116f2565b8181111561171f5782602083870101525b50601f01601f19169290920160200192915050565b6000828483379101908152919050565b6001600160a01b0391909116815260200190565b60208082528251828201819052600091906040908185019080840286018301878501865b838110156117e157603f198984030185528151606081518186526117a2828701826116e9565b915050888201518582038a8701526117ba82826116e9565b928901516001600160a01b031695890195909552509487019492509086019060010161177c565b509098975050505050505050565b901515815260200190565b90815260200190565b60208082526032908201527f4272696467654d616e616765723a20746f6b656e20616464726573732069732060408201527f616c726561647920726567697374657265640000000000000000000000000000606082015260800190565b60208082526027908201527f4272696467654d616e616765723a20746f6b656e4e616d652063616e277420626040820152666520656d70747960c81b606082015260800190565b60208082526024908201527f4272696467654d616e616765723a20746f6b656e2053796d626f6c20746f6f206040820152636c6f6e6760e01b60608201526080019056fe456e756d657261626c655365743a20696e646578206f7574206f6620626f756e6473416363657373436f6e74726f6c3a2073656e646572206d75737420626520616e2061646d696e20746f206772616e74416363657373436f6e74726f6c3a2073656e646572206d75737420626520616e2061646d696e20746f207265766f6b65416363657373436f6e74726f6c3a2063616e206f6e6c792072656e6f756e636520726f6c657320666f722073656c66a2646970667358221220f5e1f7cb56eb511bdef70c3d883a9e978087b4cb7b3fa6434be13d4aac8c470e64736f6c63430007060033",
  "immutableReferences": {},
  "source": "// SPDX-License-Identifier: MIT\npragma solidity ^0.7.6;\npragma experimental ABIEncoderV2;\n\nimport \"@openzeppelin/contracts/access/AccessControl.sol\";\nimport \"@openzeppelin/contracts/token/ERC20/IERC20.sol\";\nimport \"@openzeppelin/contracts/token/ERC721/IERC721.sol\";\n\n/// @author The PRIVI Blockchain team\n/// @title Manages Bridge with ethereum, ERC20 tokens and ERC721 tokens between Users on Ethereum and PRIVI platform\n\ncontract BridgeManager is AccessControl {\n  bytes32 public constant REGISTER_ROLE = keccak256(\"REGISTER_ROLE\");\n  address private constant ZERO_ADDRESS =\n    0x0000000000000000000000000000000000000000;\n\n  struct registeredToken {\n    string name;\n    string symbol;\n    address deployedAddress;\n  }\n\n  registeredToken[] private erc20RegisteredArray;\n  mapping(string => address) private contractAddressERC20;\n\n  registeredToken[] private erc721RegisteredArray;\n  mapping(string => address) private contractAddressERC721;\n\n  registeredToken[] private erc1155RegisteredArray;\n  mapping(string => address) private contractAddressERC1155;\n\n  event RegisterERC20Token(string indexed name, address tokenAddress);\n  event UnRegisterERC20Token(string indexed name);\n  event RegisterERC721Token(string indexed name, address tokenAddress);\n  event UnRegisterERC721Token(string indexed name);\n  event RegisterERC1155Token(string indexed name, address tokenAddress);\n  event UnRegisterERC1155Token(string indexed name);\n\n  /**\n   * @notice  Modifier to require 'tokenName' is not empty\n   * @param   tokenNameToCheck Token name to be checked\n   */\n  modifier nameIsNotEmpty(string memory tokenNameToCheck) {\n    bytes memory bytesTokenName = bytes(tokenNameToCheck);\n    require(\n      bytesTokenName.length != 0,\n      \"BridgeManager: tokenName can't be empty\"\n    );\n    _;\n  }\n\n  /**\n   * @notice Constructor to assign all roles to contract creator\n   */\n  constructor() {\n    _setupRole(DEFAULT_ADMIN_ROLE, _msgSender());\n    _setupRole(REGISTER_ROLE, _msgSender());\n  }\n\n  /**\n   * @notice get an address of a registered erc20 tokens\n   */\n  function getErc20AddressRegistered(string calldata tokenSymbol)\n    external\n    view\n    returns (address returnAddress)\n  {\n    returnAddress = contractAddressERC20[tokenSymbol];\n  }\n\n  /**\n   * @notice get an array of all registered erc20 tokens\n   */\n  function getAllErc20Registered()\n    external\n    view\n    returns (registeredToken[] memory)\n  {\n    return erc20RegisteredArray;\n  }\n\n  /**\n   * @notice get count of all registered erc20 tokens\n   */\n  function getAllErc20Count() external view returns (uint256) {\n    return erc20RegisteredArray.length;\n  }\n\n  /**\n   * @notice get an address of a registered erc721 tokens\n   */\n  function getErc721AddressRegistered(string calldata tokenSymbol)\n    external\n    view\n    returns (address returnAddress)\n  {\n    returnAddress = contractAddressERC721[tokenSymbol];\n  }\n\n  /**\n   * @notice get an array of all registered erc721 tokens\n   */\n  function getAllErc721Registered()\n    external\n    view\n    returns (registeredToken[] memory)\n  {\n    return erc721RegisteredArray;\n  }\n\n  /**\n   * @notice get count of all registered erc721 tokens\n   */\n  function getAllErc721Count() external view returns (uint256) {\n    return erc721RegisteredArray.length;\n  }\n\n  /**\n   * @notice get an address of a registered erc1155 tokens\n   */\n  function getErc1155AddressRegistered(string calldata tokenURI)\n    external\n    view\n    returns (address returnAddress)\n  {\n    returnAddress = contractAddressERC1155[tokenURI];\n  }\n\n  /**\n   * @notice get an array of all registered erc1155 tokens\n   */\n  function getAllErc1155Registered()\n    external\n    view\n    returns (registeredToken[] memory)\n  {\n    return erc1155RegisteredArray;\n  }\n\n  /**\n   * @notice get count of all registered erc1155 tokens\n   */\n  function getAllErc1155Count() external view returns (uint256) {\n    return erc1155RegisteredArray.length;\n  }\n\n  /**\n   * @notice  Register the contract address of an ERC20 Token\n   * @dev     - Token name and address can't be already registered\n   *          - Length of token name can't be higher than 25\n   * @param   tokenName Name of the token to be registered (e.g.: DAI, UNI)\n   * @param   tokenContractAddress Contract address of the ERC20 Token\n   */\n  function registerTokenERC20(\n    string calldata tokenName,\n    string calldata tokenSymbol,\n    address tokenContractAddress\n  ) external nameIsNotEmpty(tokenName) nameIsNotEmpty(tokenSymbol) {\n    require(\n      contractAddressERC20[tokenSymbol] == ZERO_ADDRESS,\n      \"BridgeManager: token address is already registered\"\n    );\n    require(\n      bytes(tokenSymbol).length < 25,\n      \"BridgeManager: token Symbol too long\"\n    );\n    contractAddressERC20[tokenSymbol] = tokenContractAddress;\n    registeredToken memory regToken;\n    regToken.name = tokenName;\n    regToken.symbol = tokenSymbol;\n    regToken.deployedAddress = tokenContractAddress;\n    erc20RegisteredArray.push(regToken);\n    emit RegisterERC20Token(tokenSymbol, tokenContractAddress);\n  }\n\n  /**\n   * @notice  Register the contract address of an ERC721 Token\n   * @dev     - Token name and address can't be already registered\n   *          - Length of token name can't be higher than 25\n   * @param   tokenName Name of the token to be registered\n   * @param   tokenContractAddress Contract address of the ERC721 Token\n   */\n  function registerTokenERC721(\n    string calldata tokenName,\n    string calldata tokenSymbol,\n    address tokenContractAddress\n  ) external nameIsNotEmpty(tokenName) nameIsNotEmpty(tokenSymbol) {\n    // require(hasRole(REGISTER_ROLE, _msgSender()),\n    //     \"BridgeManager: must have REGISTER_ROLE to register a token\");\n    require(\n      contractAddressERC721[tokenSymbol] == ZERO_ADDRESS,\n      \"BridgeManager: token address is already registered\"\n    );\n    require(\n      bytes(tokenSymbol).length < 25,\n      \"BridgeManager: token Symbol too long\"\n    );\n    contractAddressERC721[tokenSymbol] = tokenContractAddress;\n    registeredToken memory regToken;\n    regToken.name = tokenName;\n    regToken.symbol = tokenSymbol;\n    regToken.deployedAddress = tokenContractAddress;\n    erc721RegisteredArray.push(regToken);\n    emit RegisterERC721Token(tokenSymbol, tokenContractAddress);\n  }\n\n  /**\n   * @notice  Register the contract address of an ERC1155 Token\n   * @dev     - Token name and address can't be already registered\n   *          - Length of token name can't be higher than 25\n   * @param   tokenURI URI of the token to be registered\n   * @param   tokenContractAddress Contract address of the ERC1155 Token\n   */\n  function registerTokenERC1155(\n    string calldata tokenName,\n    string calldata tokenURI,\n    address tokenContractAddress\n  ) external nameIsNotEmpty(tokenURI) {\n    require(\n      contractAddressERC1155[tokenURI] == ZERO_ADDRESS,\n      \"BridgeManager: token address is already registered\"\n    );\n    require(\n      bytes(tokenURI).length < 25,\n      \"BridgeManager: token Symbol too long\"\n    );\n    contractAddressERC1155[tokenURI] = tokenContractAddress;\n    registeredToken memory regToken;\n    regToken.name = tokenName;\n    regToken.symbol = tokenURI;\n    regToken.deployedAddress = tokenContractAddress;\n    erc1155RegisteredArray.push(regToken);\n    emit RegisterERC1155Token(tokenURI, tokenContractAddress);\n  }\n}\n",
  "sourcePath": "/home/rekard0/Documents/WORK/PriviEthereum/PRIVIethereum/contracts/BridgeManager.sol",
  "compiler": {
    "name": "solc",
    "version": "0.7.6+commit.7338295f.Emscripten.clang"
  },
  "schemaVersion": "3.3.3",
  "updatedAt": "2021-03-17T15:29:36.980Z",
  "networkType": "ethereum",
  "devdoc": {
    "author": "The PRIVI Blockchain team",
    "kind": "dev",
    "methods": {
      "getRoleAdmin(bytes32)": {
        "details": "Returns the admin role that controls `role`. See {grantRole} and {revokeRole}. To change a role's admin, use {_setRoleAdmin}."
      },
      "getRoleMember(bytes32,uint256)": {
        "details": "Returns one of the accounts that have `role`. `index` must be a value between 0 and {getRoleMemberCount}, non-inclusive. Role bearers are not sorted in any particular way, and their ordering may change at any point. WARNING: When using {getRoleMember} and {getRoleMemberCount}, make sure you perform all queries on the same block. See the following https://forum.openzeppelin.com/t/iterating-over-elements-on-enumerableset-in-openzeppelin-contracts/2296[forum post] for more information."
      },
      "getRoleMemberCount(bytes32)": {
        "details": "Returns the number of accounts that have `role`. Can be used together with {getRoleMember} to enumerate all bearers of a role."
      },
      "grantRole(bytes32,address)": {
        "details": "Grants `role` to `account`. If `account` had not been already granted `role`, emits a {RoleGranted} event. Requirements: - the caller must have ``role``'s admin role."
      },
      "hasRole(bytes32,address)": {
        "details": "Returns `true` if `account` has been granted `role`."
      },
      "registerTokenERC1155(string,string,address)": {
        "details": "- Token name and address can't be already registered          - Length of token name can't be higher than 25",
        "params": {
          "tokenContractAddress": "Contract address of the ERC1155 Token",
          "tokenURI": "URI of the token to be registered"
        }
      },
      "registerTokenERC20(string,string,address)": {
        "details": "- Token name and address can't be already registered          - Length of token name can't be higher than 25",
        "params": {
          "tokenContractAddress": "Contract address of the ERC20 Token",
          "tokenName": "Name of the token to be registered (e.g.: DAI, UNI)"
        }
      },
      "registerTokenERC721(string,string,address)": {
        "details": "- Token name and address can't be already registered          - Length of token name can't be higher than 25",
        "params": {
          "tokenContractAddress": "Contract address of the ERC721 Token",
          "tokenName": "Name of the token to be registered"
        }
      },
      "renounceRole(bytes32,address)": {
        "details": "Revokes `role` from the calling account. Roles are often managed via {grantRole} and {revokeRole}: this function's purpose is to provide a mechanism for accounts to lose their privileges if they are compromised (such as when a trusted device is misplaced). If the calling account had been granted `role`, emits a {RoleRevoked} event. Requirements: - the caller must be `account`."
      },
      "revokeRole(bytes32,address)": {
        "details": "Revokes `role` from `account`. If `account` had been granted `role`, emits a {RoleRevoked} event. Requirements: - the caller must have ``role``'s admin role."
      }
    },
    "title": "Manages Bridge with ethereum, ERC20 tokens and ERC721 tokens between Users on Ethereum and PRIVI platform",
    "version": 1
  },
  "userdoc": {
    "kind": "user",
    "methods": {
      "constructor": {
        "notice": "Constructor to assign all roles to contract creator"
      },
      "getAllErc1155Count()": {
        "notice": "get count of all registered erc1155 tokens"
      },
      "getAllErc1155Registered()": {
        "notice": "get an array of all registered erc1155 tokens"
      },
      "getAllErc20Count()": {
        "notice": "get count of all registered erc20 tokens"
      },
      "getAllErc20Registered()": {
        "notice": "get an array of all registered erc20 tokens"
      },
      "getAllErc721Count()": {
        "notice": "get count of all registered erc721 tokens"
      },
      "getAllErc721Registered()": {
        "notice": "get an array of all registered erc721 tokens"
      },
      "getErc1155AddressRegistered(string)": {
        "notice": "get an address of a registered erc1155 tokens"
      },
      "getErc20AddressRegistered(string)": {
        "notice": "get an address of a registered erc20 tokens"
      },
      "getErc721AddressRegistered(string)": {
        "notice": "get an address of a registered erc721 tokens"
      },
      "registerTokenERC1155(string,string,address)": {
        "notice": "Register the contract address of an ERC1155 Token"
      },
      "registerTokenERC20(string,string,address)": {
        "notice": "Register the contract address of an ERC20 Token"
      },
      "registerTokenERC721(string,string,address)": {
        "notice": "Register the contract address of an ERC721 Token"
      }
    },
    "version": 1
  }
}