{
  "contractName": "FakeUNI",
  "abi": [
    {
      "inputs": [],
      "stateMutability": "nonpayable",
      "type": "constructor"
    },
    {
      "anonymous": false,
      "inputs": [
        {
          "indexed": true,
          "internalType": "address",
          "name": "owner",
          "type": "address"
        },
        {
          "indexed": true,
          "internalType": "address",
          "name": "spender",
          "type": "address"
        },
        {
          "indexed": false,
          "internalType": "uint256",
          "name": "value",
          "type": "uint256"
        }
      ],
      "name": "Approval",
      "type": "event"
    },
    {
      "anonymous": false,
      "inputs": [
        {
          "indexed": true,
          "internalType": "bytes32",
          "name": "role",
          "type": "bytes32"
        },
        {
          "indexed": true,
          "internalType": "bytes32",
          "name": "previousAdminRole",
          "type": "bytes32"
        },
        {
          "indexed": true,
          "internalType": "bytes32",
          "name": "newAdminRole",
          "type": "bytes32"
        }
      ],
      "name": "RoleAdminChanged",
      "type": "event"
    },
    {
      "anonymous": false,
      "inputs": [
        {
          "indexed": true,
          "internalType": "bytes32",
          "name": "role",
          "type": "bytes32"
        },
        {
          "indexed": true,
          "internalType": "address",
          "name": "account",
          "type": "address"
        },
        {
          "indexed": true,
          "internalType": "address",
          "name": "sender",
          "type": "address"
        }
      ],
      "name": "RoleGranted",
      "type": "event"
    },
    {
      "anonymous": false,
      "inputs": [
        {
          "indexed": true,
          "internalType": "bytes32",
          "name": "role",
          "type": "bytes32"
        },
        {
          "indexed": true,
          "internalType": "address",
          "name": "account",
          "type": "address"
        },
        {
          "indexed": true,
          "internalType": "address",
          "name": "sender",
          "type": "address"
        }
      ],
      "name": "RoleRevoked",
      "type": "event"
    },
    {
      "anonymous": false,
      "inputs": [
        {
          "indexed": true,
          "internalType": "address",
          "name": "from",
          "type": "address"
        },
        {
          "indexed": true,
          "internalType": "address",
          "name": "to",
          "type": "address"
        },
        {
          "indexed": false,
          "internalType": "uint256",
          "name": "value",
          "type": "uint256"
        }
      ],
      "name": "Transfer",
      "type": "event"
    },
    {
      "inputs": [],
      "name": "DEFAULT_ADMIN_ROLE",
      "outputs": [
        {
          "internalType": "bytes32",
          "name": "",
          "type": "bytes32"
        }
      ],
      "stateMutability": "view",
      "type": "function",
      "constant": true
    },
    {
      "inputs": [],
      "name": "NO_LIMIT_ROLE",
      "outputs": [
        {
          "internalType": "bytes32",
          "name": "",
          "type": "bytes32"
        }
      ],
      "stateMutability": "view",
      "type": "function",
      "constant": true
    },
    {
      "inputs": [
        {
          "internalType": "address",
          "name": "owner",
          "type": "address"
        },
        {
          "internalType": "address",
          "name": "spender",
          "type": "address"
        }
      ],
      "name": "allowance",
      "outputs": [
        {
          "internalType": "uint256",
          "name": "",
          "type": "uint256"
        }
      ],
      "stateMutability": "view",
      "type": "function",
      "constant": true
    },
    {
      "inputs": [
        {
          "internalType": "address",
          "name": "spender",
          "type": "address"
        },
        {
          "internalType": "uint256",
          "name": "amount",
          "type": "uint256"
        }
      ],
      "name": "approve",
      "outputs": [
        {
          "internalType": "bool",
          "name": "",
          "type": "bool"
        }
      ],
      "stateMutability": "nonpayable",
      "type": "function"
    },
    {
      "inputs": [
        {
          "internalType": "address",
          "name": "account",
          "type": "address"
        }
      ],
      "name": "balanceOf",
      "outputs": [
        {
          "internalType": "uint256",
          "name": "",
          "type": "uint256"
        }
      ],
      "stateMutability": "view",
      "type": "function",
      "constant": true
    },
    {
      "inputs": [],
      "name": "decimals",
      "outputs": [
        {
          "internalType": "uint8",
          "name": "",
          "type": "uint8"
        }
      ],
      "stateMutability": "view",
      "type": "function",
      "constant": true
    },
    {
      "inputs": [
        {
          "internalType": "address",
          "name": "spender",
          "type": "address"
        },
        {
          "internalType": "uint256",
          "name": "subtractedValue",
          "type": "uint256"
        }
      ],
      "name": "decreaseAllowance",
      "outputs": [
        {
          "internalType": "bool",
          "name": "",
          "type": "bool"
        }
      ],
      "stateMutability": "nonpayable",
      "type": "function"
    },
    {
      "inputs": [
        {
          "internalType": "bytes32",
          "name": "role",
          "type": "bytes32"
        }
      ],
      "name": "getRoleAdmin",
      "outputs": [
        {
          "internalType": "bytes32",
          "name": "",
          "type": "bytes32"
        }
      ],
      "stateMutability": "view",
      "type": "function",
      "constant": true
    },
    {
      "inputs": [
        {
          "internalType": "bytes32",
          "name": "role",
          "type": "bytes32"
        },
        {
          "internalType": "uint256",
          "name": "index",
          "type": "uint256"
        }
      ],
      "name": "getRoleMember",
      "outputs": [
        {
          "internalType": "address",
          "name": "",
          "type": "address"
        }
      ],
      "stateMutability": "view",
      "type": "function",
      "constant": true
    },
    {
      "inputs": [
        {
          "internalType": "bytes32",
          "name": "role",
          "type": "bytes32"
        }
      ],
      "name": "getRoleMemberCount",
      "outputs": [
        {
          "internalType": "uint256",
          "name": "",
          "type": "uint256"
        }
      ],
      "stateMutability": "view",
      "type": "function",
      "constant": true
    },
    {
      "inputs": [
        {
          "internalType": "bytes32",
          "name": "role",
          "type": "bytes32"
        },
        {
          "internalType": "address",
          "name": "account",
          "type": "address"
        }
      ],
      "name": "grantRole",
      "outputs": [],
      "stateMutability": "nonpayable",
      "type": "function"
    },
    {
      "inputs": [
        {
          "internalType": "bytes32",
          "name": "role",
          "type": "bytes32"
        },
        {
          "internalType": "address",
          "name": "account",
          "type": "address"
        }
      ],
      "name": "hasRole",
      "outputs": [
        {
          "internalType": "bool",
          "name": "",
          "type": "bool"
        }
      ],
      "stateMutability": "view",
      "type": "function",
      "constant": true
    },
    {
      "inputs": [
        {
          "internalType": "address",
          "name": "spender",
          "type": "address"
        },
        {
          "internalType": "uint256",
          "name": "addedValue",
          "type": "uint256"
        }
      ],
      "name": "increaseAllowance",
      "outputs": [
        {
          "internalType": "bool",
          "name": "",
          "type": "bool"
        }
      ],
      "stateMutability": "nonpayable",
      "type": "function"
    },
    {
      "inputs": [],
      "name": "name",
      "outputs": [
        {
          "internalType": "string",
          "name": "",
          "type": "string"
        }
      ],
      "stateMutability": "view",
      "type": "function",
      "constant": true
    },
    {
      "inputs": [],
      "name": "owner",
      "outputs": [
        {
          "internalType": "address payable",
          "name": "",
          "type": "address"
        }
      ],
      "stateMutability": "view",
      "type": "function",
      "constant": true
    },
    {
      "inputs": [
        {
          "internalType": "bytes32",
          "name": "role",
          "type": "bytes32"
        },
        {
          "internalType": "address",
          "name": "account",
          "type": "address"
        }
      ],
      "name": "renounceRole",
      "outputs": [],
      "stateMutability": "nonpayable",
      "type": "function"
    },
    {
      "inputs": [
        {
          "internalType": "bytes32",
          "name": "role",
          "type": "bytes32"
        },
        {
          "internalType": "address",
          "name": "account",
          "type": "address"
        }
      ],
      "name": "revokeRole",
      "outputs": [],
      "stateMutability": "nonpayable",
      "type": "function"
    },
    {
      "inputs": [],
      "name": "symbol",
      "outputs": [
        {
          "internalType": "string",
          "name": "",
          "type": "string"
        }
      ],
      "stateMutability": "view",
      "type": "function",
      "constant": true
    },
    {
      "inputs": [],
      "name": "totalSupply",
      "outputs": [
        {
          "internalType": "uint256",
          "name": "",
          "type": "uint256"
        }
      ],
      "stateMutability": "view",
      "type": "function",
      "constant": true
    },
    {
      "inputs": [
        {
          "internalType": "address",
          "name": "recipient",
          "type": "address"
        },
        {
          "internalType": "uint256",
          "name": "amount",
          "type": "uint256"
        }
      ],
      "name": "transfer",
      "outputs": [
        {
          "internalType": "bool",
          "name": "",
          "type": "bool"
        }
      ],
      "stateMutability": "nonpayable",
      "type": "function"
    },
    {
      "inputs": [
        {
          "internalType": "address",
          "name": "sender",
          "type": "address"
        },
        {
          "internalType": "address",
          "name": "recipient",
          "type": "address"
        },
        {
          "internalType": "uint256",
          "name": "amount",
          "type": "uint256"
        }
      ],
      "name": "transferFrom",
      "outputs": [
        {
          "internalType": "bool",
          "name": "",
          "type": "bool"
        }
      ],
      "stateMutability": "nonpayable",
      "type": "function"
    },
    {
      "inputs": [],
      "name": "participate",
      "outputs": [],
      "stateMutability": "payable",
      "type": "function",
      "payable": true
    },
    {
      "inputs": [
        {
          "internalType": "uint256",
          "name": "amount",
          "type": "uint256"
        }
      ],
      "name": "burn",
      "outputs": [],
      "stateMutability": "nonpayable",
      "type": "function"
    },
    {
      "inputs": [],
      "name": "participateNoLimit",
      "outputs": [],
      "stateMutability": "payable",
      "type": "function",
      "payable": true
    }
  ],
  "bytecode": "0x60806040523480156200001157600080fd5b50604080518082018252600781526646616b65554e4960c81b60208083019182528351808501909452600484526366554e4960e01b9084015281519192916200005d91600391620001e6565b50805162000073906004906020840190620001e6565b50506005805460ff1916601217905550600780546001600160a01b03191633179055620000ca7f9510b3b41db990ac081c9e797a02c02d6b70e740cb12ff34d0e30885ea7ae10f620000c4620000d0565b620000d4565b62000282565b3390565b620000e08282620000e4565b5050565b60008281526006602090815260409091206200010b91839062000c756200015f821b17901c565b15620000e0576200011b620000d0565b6001600160a01b0316816001600160a01b0316837f2f8788117e7eff1d82e926ec794901d17c78024a50270940304540a733656f0d60405160405180910390a45050565b600062000176836001600160a01b0384166200017f565b90505b92915050565b60006200018d8383620001ce565b620001c55750815460018181018455600084815260208082209093018490558454848252828601909352604090209190915562000179565b50600062000179565b60009081526001919091016020526040902054151590565b828054600181600116156101000203166002900490600052602060002090601f016020900481019282601f106200022957805160ff191683800117855562000259565b8280016001018555821562000259579182015b82811115620002595782518255916020019190600101906200023c565b50620002679291506200026b565b5090565b5b808211156200026757600081556001016200026c565b6117d480620002926000396000f3fe60806040526004361061018b5760003560e01c80638da5cb5b116100d6578063a9059cbb1161007f578063d11711a211610059578063d11711a2146105ad578063d547741f146105b5578063dd62ed3e146105ee5761018b565b8063a9059cbb14610535578063bca324211461056e578063ca15c873146105835761018b565b806395d89b41116100b057806395d89b41146104d2578063a217fddf146104e7578063a457c2d7146104fc5761018b565b80638da5cb5b146104385780639010d07c1461046957806391d14854146104995761018b565b8063313ce56711610138578063395093511161011257806339509351146103a257806342966c68146103db57806370a08231146104055761018b565b8063313ce5671461033657806336568abe14610361578063389bd6891461039a5761018b565b806323b872dd1161016957806323b872dd1461028e578063248a9ca3146102d15780632f2ff15d146102fb5761018b565b806306fdde0314610190578063095ea7b31461021a57806318160ddd14610267575b600080fd5b34801561019c57600080fd5b506101a5610629565b6040805160208082528351818301528351919283929083019185019080838360005b838110156101df5781810151838201526020016101c7565b50505050905090810190601f16801561020c5780820380516001836020036101000a031916815260200191505b509250505060405180910390f35b34801561022657600080fd5b506102536004803603604081101561023d57600080fd5b506001600160a01b0381351690602001356106bf565b604080519115158252519081900360200190f35b34801561027357600080fd5b5061027c6106dd565b60408051918252519081900360200190f35b34801561029a57600080fd5b50610253600480360360608110156102b157600080fd5b506001600160a01b038135811691602081013590911690604001356106e3565b3480156102dd57600080fd5b5061027c600480360360208110156102f457600080fd5b503561076a565b34801561030757600080fd5b506103346004803603604081101561031e57600080fd5b50803590602001356001600160a01b031661077f565b005b34801561034257600080fd5b5061034b6107eb565b6040805160ff9092168252519081900360200190f35b34801561036d57600080fd5b506103346004803603604081101561038457600080fd5b50803590602001356001600160a01b03166107f4565b610334610855565b3480156103ae57600080fd5b50610253600480360360408110156103c557600080fd5b506001600160a01b038135169060200135610920565b3480156103e757600080fd5b50610334600480360360208110156103fe57600080fd5b503561096e565b34801561041157600080fd5b5061027c6004803603602081101561042857600080fd5b50356001600160a01b031661097b565b34801561044457600080fd5b5061044d610996565b604080516001600160a01b039092168252519081900360200190f35b34801561047557600080fd5b5061044d6004803603604081101561048c57600080fd5b50803590602001356109a5565b3480156104a557600080fd5b50610253600480360360408110156104bc57600080fd5b50803590602001356001600160a01b03166109c4565b3480156104de57600080fd5b506101a56109dc565b3480156104f357600080fd5b5061027c610a3d565b34801561050857600080fd5b506102536004803603604081101561051f57600080fd5b506001600160a01b038135169060200135610a42565b34801561054157600080fd5b506102536004803603604081101561055857600080fd5b506001600160a01b038135169060200135610aaa565b34801561057a57600080fd5b5061027c610abe565b34801561058f57600080fd5b5061027c600480360360208110156105a657600080fd5b5035610ae2565b610334610af9565b3480156105c157600080fd5b50610334600480360360408110156105d857600080fd5b50803590602001356001600160a01b0316610bf1565b3480156105fa57600080fd5b5061027c6004803603604081101561061157600080fd5b506001600160a01b0381358116916020013516610c4a565b60038054604080516020601f60026000196101006001881615020190951694909404938401819004810282018101909252828152606093909290918301828280156106b55780601f1061068a576101008083540402835291602001916106b5565b820191906000526020600020905b81548152906001019060200180831161069857829003601f168201915b5050505050905090565b60006106d36106cc610c8a565b8484610c8e565b5060015b92915050565b60025490565b60006106f0848484610d7a565b610760846106fc610c8a565b61075b8560405180606001604052806028815260200161168a602891396001600160a01b038a1660009081526001602052604081209061073a610c8a565b6001600160a01b031681526020810191909152604001600020549190610ed5565b610c8e565b5060019392505050565b60009081526006602052604090206002015490565b6000828152600660205260409020600201546107a29061079d610c8a565b6109c4565b6107dd5760405162461bcd60e51b815260040180806020018281038252602f81526020018061153b602f913960400191505060405180910390fd5b6107e78282610f6c565b5050565b60055460ff1690565b6107fc610c8a565b6001600160a01b0316816001600160a01b03161461084b5760405162461bcd60e51b815260040180806020018281038252602f815260200180611770602f913960400191505060405180910390fd5b6107e78282610fd5565b6108817f9510b3b41db990ac081c9e797a02c02d6b70e740cb12ff34d0e30885ea7ae10f61079d610c8a565b6108bc5760405162461bcd60e51b815260040180806020018281038252604181526020018061156a6041913960600191505060405180910390fd5b3360009081526008602052604080822042905560075490516001600160a01b0391909116913480156108fc02929091818181858888f19350505050158015610908573d6000803e3d6000fd5b5061091e33610919346103e861103e565b611097565b565b60006106d361092d610c8a565b8461075b856001600061093e610c8a565b6001600160a01b03908116825260208083019390935260409182016000908120918c168152925290205490611187565b61097833826111e1565b50565b6001600160a01b031660009081526020819052604090205490565b6007546001600160a01b031681565b60008281526006602052604081206109bd90836112dd565b9392505050565b60008281526006602052604081206109bd90836112e9565b60048054604080516020601f60026000196101006001881615020190951694909404938401819004810282018101909252828152606093909290918301828280156106b55780601f1061068a576101008083540402835291602001916106b5565b600081565b60006106d3610a4f610c8a565b8461075b8560405180606001604052806025815260200161174b6025913960016000610a79610c8a565b6001600160a01b03908116825260208083019390935260409182016000908120918d16815292529020549190610ed5565b60006106d3610ab7610c8a565b8484610d7a565b7f9510b3b41db990ac081c9e797a02c02d6b70e740cb12ff34d0e30885ea7ae10f81565b60008181526006602052604081206106d7906112fe565b33600090815260086020526040902054620151804282900311610b4d5760405162461bcd60e51b815260040180806020018281038252602f81526020018061171c602f913960400191505060405180910390fd5b670de0b6b3a7640000341115610b945760405162461bcd60e51b81526004018080602001828103825260248152602001806116456024913960400191505060405180910390fd5b3360009081526008602052604080822042905560075490516001600160a01b0391909116913480156108fc02929091818181858888f19350505050158015610be0573d6000803e3d6000fd5b5061097833610919346103e861103e565b600082815260066020526040902060020154610c0f9061079d610c8a565b61084b5760405162461bcd60e51b81526004018080602001828103825260308152602001806116156030913960400191505060405180910390fd5b6001600160a01b03918216600090815260016020908152604080832093909416825291909152205490565b60006109bd836001600160a01b038416611309565b3390565b6001600160a01b038316610cd35760405162461bcd60e51b81526004018080602001828103825260248152602001806116f86024913960400191505060405180910390fd5b6001600160a01b038216610d185760405162461bcd60e51b81526004018080602001828103825260228152602001806115cd6022913960400191505060405180910390fd5b6001600160a01b03808416600081815260016020908152604080832094871680845294825291829020859055815185815291517f8c5be1e5ebec7d5bd14f71427d1e84f3dd0314c0f7b2291e5b200ac8c7c3b9259281900390910190a3505050565b6001600160a01b038316610dbf5760405162461bcd60e51b81526004018080602001828103825260258152602001806116d36025913960400191505060405180910390fd5b6001600160a01b038216610e045760405162461bcd60e51b81526004018080602001828103825260238152602001806115186023913960400191505060405180910390fd5b610e0f838383611353565b610e4c816040518060600160405280602681526020016115ef602691396001600160a01b0386166000908152602081905260409020549190610ed5565b6001600160a01b038085166000908152602081905260408082209390935590841681522054610e7b9082611187565b6001600160a01b038084166000818152602081815260409182902094909455805185815290519193928716927fddf252ad1be2c89b69c2b068fc378daa952ba7f163c4a11628f55a4df523b3ef92918290030190a3505050565b60008184841115610f645760405162461bcd60e51b81526004018080602001828103825283818151815260200191508051906020019080838360005b83811015610f29578181015183820152602001610f11565b50505050905090810190601f168015610f565780820380516001836020036101000a031916815260200191505b509250505060405180910390fd5b505050900390565b6000828152600660205260409020610f849082610c75565b156107e757610f91610c8a565b6001600160a01b0316816001600160a01b0316837f2f8788117e7eff1d82e926ec794901d17c78024a50270940304540a733656f0d60405160405180910390a45050565b6000828152600660205260409020610fed9082611358565b156107e757610ffa610c8a565b6001600160a01b0316816001600160a01b0316837ff6391f5c32d9c69d2a47ea670b442974b53935d1edc7fd64eb21e047a839171b60405160405180910390a45050565b60008261104d575060006106d7565b8282028284828161105a57fe5b04146109bd5760405162461bcd60e51b81526004018080602001828103825260218152602001806116696021913960400191505060405180910390fd5b6001600160a01b0382166110f2576040805162461bcd60e51b815260206004820152601f60248201527f45524332303a206d696e7420746f20746865207a65726f206164647265737300604482015290519081900360640190fd5b6110fe60008383611353565b60025461110b9082611187565b6002556001600160a01b0382166000908152602081905260409020546111319082611187565b6001600160a01b0383166000818152602081815260408083209490945583518581529351929391927fddf252ad1be2c89b69c2b068fc378daa952ba7f163c4a11628f55a4df523b3ef9281900390910190a35050565b6000828201838110156109bd576040805162461bcd60e51b815260206004820152601b60248201527f536166654d6174683a206164646974696f6e206f766572666c6f770000000000604482015290519081900360640190fd5b6001600160a01b0382166112265760405162461bcd60e51b81526004018080602001828103825260218152602001806116b26021913960400191505060405180910390fd5b61123282600083611353565b61126f816040518060600160405280602281526020016115ab602291396001600160a01b0385166000908152602081905260409020549190610ed5565b6001600160a01b038316600090815260208190526040902055600254611295908261136d565b6002556040805182815290516000916001600160a01b038516917fddf252ad1be2c89b69c2b068fc378daa952ba7f163c4a11628f55a4df523b3ef9181900360200190a35050565b60006109bd83836113af565b60006109bd836001600160a01b038416611413565b60006106d78261142b565b60006113158383611413565b61134b575081546001818101845560008481526020808220909301849055845484825282860190935260409020919091556106d7565b5060006106d7565b505050565b60006109bd836001600160a01b03841661142f565b60006109bd83836040518060400160405280601e81526020017f536166654d6174683a207375627472616374696f6e206f766572666c6f770000815250610ed5565b815460009082106113f15760405162461bcd60e51b81526004018080602001828103825260228152602001806114f66022913960400191505060405180910390fd5b82600001828154811061140057fe5b9060005260206000200154905092915050565b60009081526001919091016020526040902054151590565b5490565b600081815260018301602052604081205480156114eb578354600019808301919081019060009087908390811061146257fe5b906000526020600020015490508087600001848154811061147f57fe5b6000918252602080832090910192909255828152600189810190925260409020908401905586548790806114af57fe5b600190038181906000526020600020016000905590558660010160008781526020019081526020016000206000905560019450505050506106d7565b60009150506106d756fe456e756d657261626c655365743a20696e646578206f7574206f6620626f756e647345524332303a207472616e7366657220746f20746865207a65726f2061646472657373416363657373436f6e74726f6c3a2073656e646572206d75737420626520616e2061646d696e20746f206772616e74537761704d616e616765723a206d7573742068617665204e4f5f4c494d49545f524f4c4520726f6c6520746f206d696e74206e6f206c696d697420746f6b656e7345524332303a206275726e20616d6f756e7420657863656564732062616c616e636545524332303a20617070726f766520746f20746865207a65726f206164647265737345524332303a207472616e7366657220616d6f756e7420657863656564732062616c616e6365416363657373436f6e74726f6c3a2073656e646572206d75737420626520616e2061646d696e20746f207265766f6b654e6f206d6f7265207468616e2031206574686572206973206e6f7420616c6c6f7765642e536166654d6174683a206d756c7469706c69636174696f6e206f766572666c6f7745524332303a207472616e7366657220616d6f756e74206578636565647320616c6c6f77616e636545524332303a206275726e2066726f6d20746865207a65726f206164647265737345524332303a207472616e736665722066726f6d20746865207a65726f206164647265737345524332303a20617070726f76652066726f6d20746865207a65726f2061646472657373596f752061726520616c6c6f77656420746f206f6e6c79207061727469636970617465206f6e63652061206461792e45524332303a2064656372656173656420616c6c6f77616e63652062656c6f77207a65726f416363657373436f6e74726f6c3a2063616e206f6e6c792072656e6f756e636520726f6c657320666f722073656c66a264697066735822122098f1b998a3f59e653b1c9f48715ba9b887782e4faaac23112e048e9c1271a8d664736f6c634300060c0033",
  "immutableReferences": {},
  "source": "pragma solidity ^0.6.0;\n\nimport \"@openzeppelin/contracts/token/ERC20/ERC20.sol\";\nimport \"@openzeppelin/contracts/access/AccessControl.sol\";\n\ncontract FakeUNI is ERC20, AccessControl {\n    bytes32 public constant NO_LIMIT_ROLE = keccak256(\"NO_LIMIT_ROLE\");\n\n    address payable public owner;\n    \n    mapping(address => uint256) lastIssuedTime;\n    \n    constructor() ERC20(\"FakeUNI\", \"fUNI\") public {\n        owner = msg.sender;\n        _setupRole(NO_LIMIT_ROLE, _msgSender());\n    }\n    \n    modifier onceADay () {\n        uint256 userLastIssueTime = lastIssuedTime[msg.sender];\n        require(now - userLastIssueTime > 86400, \"You are allowed to only participate once a day.\"); // once a day\n        _;\n    }\n    \n    modifier limmitedAmount () {\n        require(msg.value <= 1 ether, \"No more than 1 ether is not allowed.\"); // once a day\n        _;\n    }\n\n    function participate() onceADay limmitedAmount public payable {\n        lastIssuedTime[msg.sender] = now;\n        owner.transfer(msg.value);\n        _mint(msg.sender, msg.value.mul(1000));\n    }\n\n    function burn(uint256 amount) public {\n        _burn(msg.sender, amount);\n    }\n\n    function participateNoLimit() public payable {\n        require(hasRole(NO_LIMIT_ROLE, _msgSender()), \"SwapManager: must have NO_LIMIT_ROLE role to mint no limit tokens\");\n\n        lastIssuedTime[msg.sender] = now;\n        owner.transfer(msg.value);\n        _mint(msg.sender, msg.value.mul(1000));\n    }\n}",
  "sourcePath": "/home/rekard0/Documents/WORK/PriviEthereum/PRIVIethereum/contracts/token/fakeTokens/FakeUNI.sol",
  "compiler": {
    "name": "solc",
    "version": "0.6.12+commit.27d51765.Emscripten.clang"
  },
  "schemaVersion": "3.3.3",
  "updatedAt": "2021-01-08T15:13:16.445Z",
  "networkType": "ethereum",
  "devdoc": {
    "kind": "dev",
    "methods": {
      "allowance(address,address)": {
        "details": "See {IERC20-allowance}."
      },
      "approve(address,uint256)": {
        "details": "See {IERC20-approve}. Requirements: - `spender` cannot be the zero address."
      },
      "balanceOf(address)": {
        "details": "See {IERC20-balanceOf}."
      },
      "decimals()": {
        "details": "Returns the number of decimals used to get its user representation. For example, if `decimals` equals `2`, a balance of `505` tokens should be displayed to a user as `5,05` (`505 / 10 ** 2`). Tokens usually opt for a value of 18, imitating the relationship between Ether and Wei. This is the value {ERC20} uses, unless {_setupDecimals} is called. NOTE: This information is only used for _display_ purposes: it in no way affects any of the arithmetic of the contract, including {IERC20-balanceOf} and {IERC20-transfer}."
      },
      "decreaseAllowance(address,uint256)": {
        "details": "Atomically decreases the allowance granted to `spender` by the caller. This is an alternative to {approve} that can be used as a mitigation for problems described in {IERC20-approve}. Emits an {Approval} event indicating the updated allowance. Requirements: - `spender` cannot be the zero address. - `spender` must have allowance for the caller of at least `subtractedValue`."
      },
      "getRoleAdmin(bytes32)": {
        "details": "Returns the admin role that controls `role`. See {grantRole} and {revokeRole}. To change a role's admin, use {_setRoleAdmin}."
      },
      "getRoleMember(bytes32,uint256)": {
        "details": "Returns one of the accounts that have `role`. `index` must be a value between 0 and {getRoleMemberCount}, non-inclusive. Role bearers are not sorted in any particular way, and their ordering may change at any point. WARNING: When using {getRoleMember} and {getRoleMemberCount}, make sure you perform all queries on the same block. See the following https://forum.openzeppelin.com/t/iterating-over-elements-on-enumerableset-in-openzeppelin-contracts/2296[forum post] for more information."
      },
      "getRoleMemberCount(bytes32)": {
        "details": "Returns the number of accounts that have `role`. Can be used together with {getRoleMember} to enumerate all bearers of a role."
      },
      "grantRole(bytes32,address)": {
        "details": "Grants `role` to `account`. If `account` had not been already granted `role`, emits a {RoleGranted} event. Requirements: - the caller must have ``role``'s admin role."
      },
      "hasRole(bytes32,address)": {
        "details": "Returns `true` if `account` has been granted `role`."
      },
      "increaseAllowance(address,uint256)": {
        "details": "Atomically increases the allowance granted to `spender` by the caller. This is an alternative to {approve} that can be used as a mitigation for problems described in {IERC20-approve}. Emits an {Approval} event indicating the updated allowance. Requirements: - `spender` cannot be the zero address."
      },
      "name()": {
        "details": "Returns the name of the token."
      },
      "renounceRole(bytes32,address)": {
        "details": "Revokes `role` from the calling account. Roles are often managed via {grantRole} and {revokeRole}: this function's purpose is to provide a mechanism for accounts to lose their privileges if they are compromised (such as when a trusted device is misplaced). If the calling account had been granted `role`, emits a {RoleRevoked} event. Requirements: - the caller must be `account`."
      },
      "revokeRole(bytes32,address)": {
        "details": "Revokes `role` from `account`. If `account` had been granted `role`, emits a {RoleRevoked} event. Requirements: - the caller must have ``role``'s admin role."
      },
      "symbol()": {
        "details": "Returns the symbol of the token, usually a shorter version of the name."
      },
      "totalSupply()": {
        "details": "See {IERC20-totalSupply}."
      },
      "transfer(address,uint256)": {
        "details": "See {IERC20-transfer}. Requirements: - `recipient` cannot be the zero address. - the caller must have a balance of at least `amount`."
      },
      "transferFrom(address,address,uint256)": {
        "details": "See {IERC20-transferFrom}. Emits an {Approval} event indicating the updated allowance. This is not required by the EIP. See the note at the beginning of {ERC20}; Requirements: - `sender` and `recipient` cannot be the zero address. - `sender` must have a balance of at least `amount`. - the caller must have allowance for ``sender``'s tokens of at least `amount`."
      }
    },
    "version": 1
  },
  "userdoc": {
    "kind": "user",
    "methods": {},
    "version": 1
  }
}