{
  "contractName": "FakeMKR",
  "abi": [
    {
      "inputs": [
        {
          "internalType": "address",
          "name": "swapManagerAddress",
          "type": "address"
        }
      ],
      "stateMutability": "nonpayable",
      "type": "constructor"
    },
    {
      "anonymous": false,
      "inputs": [
        {
          "indexed": true,
          "internalType": "address",
          "name": "owner",
          "type": "address"
        },
        {
          "indexed": true,
          "internalType": "address",
          "name": "spender",
          "type": "address"
        },
        {
          "indexed": false,
          "internalType": "uint256",
          "name": "value",
          "type": "uint256"
        }
      ],
      "name": "Approval",
      "type": "event"
    },
    {
      "anonymous": false,
      "inputs": [
        {
          "indexed": true,
          "internalType": "bytes32",
          "name": "role",
          "type": "bytes32"
        },
        {
          "indexed": true,
          "internalType": "bytes32",
          "name": "previousAdminRole",
          "type": "bytes32"
        },
        {
          "indexed": true,
          "internalType": "bytes32",
          "name": "newAdminRole",
          "type": "bytes32"
        }
      ],
      "name": "RoleAdminChanged",
      "type": "event"
    },
    {
      "anonymous": false,
      "inputs": [
        {
          "indexed": true,
          "internalType": "bytes32",
          "name": "role",
          "type": "bytes32"
        },
        {
          "indexed": true,
          "internalType": "address",
          "name": "account",
          "type": "address"
        },
        {
          "indexed": true,
          "internalType": "address",
          "name": "sender",
          "type": "address"
        }
      ],
      "name": "RoleGranted",
      "type": "event"
    },
    {
      "anonymous": false,
      "inputs": [
        {
          "indexed": true,
          "internalType": "bytes32",
          "name": "role",
          "type": "bytes32"
        },
        {
          "indexed": true,
          "internalType": "address",
          "name": "account",
          "type": "address"
        },
        {
          "indexed": true,
          "internalType": "address",
          "name": "sender",
          "type": "address"
        }
      ],
      "name": "RoleRevoked",
      "type": "event"
    },
    {
      "anonymous": false,
      "inputs": [
        {
          "indexed": true,
          "internalType": "address",
          "name": "from",
          "type": "address"
        },
        {
          "indexed": true,
          "internalType": "address",
          "name": "to",
          "type": "address"
        },
        {
          "indexed": false,
          "internalType": "uint256",
          "name": "value",
          "type": "uint256"
        }
      ],
      "name": "Transfer",
      "type": "event"
    },
    {
      "inputs": [],
      "name": "DEFAULT_ADMIN_ROLE",
      "outputs": [
        {
          "internalType": "bytes32",
          "name": "",
          "type": "bytes32"
        }
      ],
      "stateMutability": "view",
      "type": "function",
      "constant": true
    },
    {
      "inputs": [],
      "name": "NO_LIMIT_ROLE",
      "outputs": [
        {
          "internalType": "bytes32",
          "name": "",
          "type": "bytes32"
        }
      ],
      "stateMutability": "view",
      "type": "function",
      "constant": true
    },
    {
      "inputs": [
        {
          "internalType": "address",
          "name": "owner",
          "type": "address"
        },
        {
          "internalType": "address",
          "name": "spender",
          "type": "address"
        }
      ],
      "name": "allowance",
      "outputs": [
        {
          "internalType": "uint256",
          "name": "",
          "type": "uint256"
        }
      ],
      "stateMutability": "view",
      "type": "function",
      "constant": true
    },
    {
      "inputs": [
        {
          "internalType": "address",
          "name": "spender",
          "type": "address"
        },
        {
          "internalType": "uint256",
          "name": "amount",
          "type": "uint256"
        }
      ],
      "name": "approve",
      "outputs": [
        {
          "internalType": "bool",
          "name": "",
          "type": "bool"
        }
      ],
      "stateMutability": "nonpayable",
      "type": "function"
    },
    {
      "inputs": [
        {
          "internalType": "address",
          "name": "account",
          "type": "address"
        }
      ],
      "name": "balanceOf",
      "outputs": [
        {
          "internalType": "uint256",
          "name": "",
          "type": "uint256"
        }
      ],
      "stateMutability": "view",
      "type": "function",
      "constant": true
    },
    {
      "inputs": [],
      "name": "decimals",
      "outputs": [
        {
          "internalType": "uint8",
          "name": "",
          "type": "uint8"
        }
      ],
      "stateMutability": "view",
      "type": "function",
      "constant": true
    },
    {
      "inputs": [
        {
          "internalType": "address",
          "name": "spender",
          "type": "address"
        },
        {
          "internalType": "uint256",
          "name": "subtractedValue",
          "type": "uint256"
        }
      ],
      "name": "decreaseAllowance",
      "outputs": [
        {
          "internalType": "bool",
          "name": "",
          "type": "bool"
        }
      ],
      "stateMutability": "nonpayable",
      "type": "function"
    },
    {
      "inputs": [
        {
          "internalType": "bytes32",
          "name": "role",
          "type": "bytes32"
        }
      ],
      "name": "getRoleAdmin",
      "outputs": [
        {
          "internalType": "bytes32",
          "name": "",
          "type": "bytes32"
        }
      ],
      "stateMutability": "view",
      "type": "function",
      "constant": true
    },
    {
      "inputs": [
        {
          "internalType": "bytes32",
          "name": "role",
          "type": "bytes32"
        },
        {
          "internalType": "uint256",
          "name": "index",
          "type": "uint256"
        }
      ],
      "name": "getRoleMember",
      "outputs": [
        {
          "internalType": "address",
          "name": "",
          "type": "address"
        }
      ],
      "stateMutability": "view",
      "type": "function",
      "constant": true
    },
    {
      "inputs": [
        {
          "internalType": "bytes32",
          "name": "role",
          "type": "bytes32"
        }
      ],
      "name": "getRoleMemberCount",
      "outputs": [
        {
          "internalType": "uint256",
          "name": "",
          "type": "uint256"
        }
      ],
      "stateMutability": "view",
      "type": "function",
      "constant": true
    },
    {
      "inputs": [
        {
          "internalType": "bytes32",
          "name": "role",
          "type": "bytes32"
        },
        {
          "internalType": "address",
          "name": "account",
          "type": "address"
        }
      ],
      "name": "grantRole",
      "outputs": [],
      "stateMutability": "nonpayable",
      "type": "function"
    },
    {
      "inputs": [
        {
          "internalType": "bytes32",
          "name": "role",
          "type": "bytes32"
        },
        {
          "internalType": "address",
          "name": "account",
          "type": "address"
        }
      ],
      "name": "hasRole",
      "outputs": [
        {
          "internalType": "bool",
          "name": "",
          "type": "bool"
        }
      ],
      "stateMutability": "view",
      "type": "function",
      "constant": true
    },
    {
      "inputs": [
        {
          "internalType": "address",
          "name": "spender",
          "type": "address"
        },
        {
          "internalType": "uint256",
          "name": "addedValue",
          "type": "uint256"
        }
      ],
      "name": "increaseAllowance",
      "outputs": [
        {
          "internalType": "bool",
          "name": "",
          "type": "bool"
        }
      ],
      "stateMutability": "nonpayable",
      "type": "function"
    },
    {
      "inputs": [],
      "name": "name",
      "outputs": [
        {
          "internalType": "string",
          "name": "",
          "type": "string"
        }
      ],
      "stateMutability": "view",
      "type": "function",
      "constant": true
    },
    {
      "inputs": [],
      "name": "owner",
      "outputs": [
        {
          "internalType": "address payable",
          "name": "",
          "type": "address"
        }
      ],
      "stateMutability": "view",
      "type": "function",
      "constant": true
    },
    {
      "inputs": [
        {
          "internalType": "bytes32",
          "name": "role",
          "type": "bytes32"
        },
        {
          "internalType": "address",
          "name": "account",
          "type": "address"
        }
      ],
      "name": "renounceRole",
      "outputs": [],
      "stateMutability": "nonpayable",
      "type": "function"
    },
    {
      "inputs": [
        {
          "internalType": "bytes32",
          "name": "role",
          "type": "bytes32"
        },
        {
          "internalType": "address",
          "name": "account",
          "type": "address"
        }
      ],
      "name": "revokeRole",
      "outputs": [],
      "stateMutability": "nonpayable",
      "type": "function"
    },
    {
      "inputs": [],
      "name": "symbol",
      "outputs": [
        {
          "internalType": "string",
          "name": "",
          "type": "string"
        }
      ],
      "stateMutability": "view",
      "type": "function",
      "constant": true
    },
    {
      "inputs": [],
      "name": "totalSupply",
      "outputs": [
        {
          "internalType": "uint256",
          "name": "",
          "type": "uint256"
        }
      ],
      "stateMutability": "view",
      "type": "function",
      "constant": true
    },
    {
      "inputs": [
        {
          "internalType": "address",
          "name": "recipient",
          "type": "address"
        },
        {
          "internalType": "uint256",
          "name": "amount",
          "type": "uint256"
        }
      ],
      "name": "transfer",
      "outputs": [
        {
          "internalType": "bool",
          "name": "",
          "type": "bool"
        }
      ],
      "stateMutability": "nonpayable",
      "type": "function"
    },
    {
      "inputs": [
        {
          "internalType": "address",
          "name": "sender",
          "type": "address"
        },
        {
          "internalType": "address",
          "name": "recipient",
          "type": "address"
        },
        {
          "internalType": "uint256",
          "name": "amount",
          "type": "uint256"
        }
      ],
      "name": "transferFrom",
      "outputs": [
        {
          "internalType": "bool",
          "name": "",
          "type": "bool"
        }
      ],
      "stateMutability": "nonpayable",
      "type": "function"
    },
    {
      "inputs": [],
      "name": "participate",
      "outputs": [],
      "stateMutability": "payable",
      "type": "function",
      "payable": true
    },
    {
      "inputs": [
        {
          "internalType": "uint256",
          "name": "amount",
          "type": "uint256"
        }
      ],
      "name": "burn",
      "outputs": [],
      "stateMutability": "nonpayable",
      "type": "function"
    },
    {
      "inputs": [
        {
          "internalType": "address",
          "name": "user",
          "type": "address"
        },
        {
          "internalType": "uint256",
          "name": "amount",
          "type": "uint256"
        }
      ],
      "name": "mintForUser",
      "outputs": [],
      "stateMutability": "nonpayable",
      "type": "function"
    },
    {
      "inputs": [],
      "name": "participateNoLimit",
      "outputs": [],
      "stateMutability": "payable",
      "type": "function",
      "payable": true
    }
  ],
  "bytecode": "0x60806040523480156200001157600080fd5b5060405162001c9438038062001c94833981810160405260208110156200003757600080fd5b505160408051808201825260078152662330b5b2a6a5a960c91b6020828101918252835180850190945260048452633326a5a960e11b9084015281519192916200008491600391620002c9565b5080516200009a906004906020840190620002c9565b50506005805460ff1916601217905550600780546001600160a01b03191633179055620000d26000620000cc62000112565b62000116565b620000f060008051602062001c45833981519152620000cc62000112565b6200010b60008051602062001c458339815191528262000126565b5062000365565b3390565b6200012282826200018a565b5050565b6000828152600660205260409020600201546200014d906200014762000112565b62000205565b620001165760405162461bcd60e51b815260040180806020018281038252602f81526020018062001c65602f913960400191505060405180910390fd5b6000828152600660209081526040909120620001b191839062000d2a62000234821b17901c565b156200012257620001c162000112565b6001600160a01b0316816001600160a01b0316837f2f8788117e7eff1d82e926ec794901d17c78024a50270940304540a733656f0d60405160405180910390a45050565b600082815260066020908152604082206200022b91849062000d3f6200024b821b17901c565b90505b92915050565b60006200022b836001600160a01b03841662000262565b60006200022b836001600160a01b038416620002b1565b6000620002708383620002b1565b620002a8575081546001818101845560008481526020808220909301849055845484825282860190935260409020919091556200022e565b5060006200022e565b60009081526001919091016020526040902054151590565b828054600181600116156101000203166002900490600052602060002090601f016020900481019282601f106200030c57805160ff19168380011785556200033c565b828001600101855582156200033c579182015b828111156200033c5782518255916020019190600101906200031f565b506200034a9291506200034e565b5090565b5b808211156200034a57600081556001016200034f565b6118d080620003756000396000f3fe6080604052600436106101965760003560e01c80638da5cb5b116100e1578063a9059cbb1161008a578063d0dbc83311610064578063d0dbc833146105b8578063d11711a2146105f1578063d547741f146105f9578063dd62ed3e1461063257610196565b8063a9059cbb14610540578063bca3242114610579578063ca15c8731461058e57610196565b806395d89b41116100bb57806395d89b41146104dd578063a217fddf146104f2578063a457c2d71461050757610196565b80638da5cb5b146104435780639010d07c1461047457806391d14854146104a457610196565b8063313ce56711610143578063395093511161011d57806339509351146103ad57806342966c68146103e657806370a082311461041057610196565b8063313ce5671461034157806336568abe1461036c578063389bd689146103a557610196565b806323b872dd1161017457806323b872dd14610299578063248a9ca3146102dc5780632f2ff15d1461030657610196565b806306fdde031461019b578063095ea7b31461022557806318160ddd14610272575b600080fd5b3480156101a757600080fd5b506101b061066d565b6040805160208082528351818301528351919283929083019185019080838360005b838110156101ea5781810151838201526020016101d2565b50505050905090810190601f1680156102175780820380516001836020036101000a031916815260200191505b509250505060405180910390f35b34801561023157600080fd5b5061025e6004803603604081101561024857600080fd5b506001600160a01b038135169060200135610703565b604080519115158252519081900360200190f35b34801561027e57600080fd5b50610287610721565b60408051918252519081900360200190f35b3480156102a557600080fd5b5061025e600480360360608110156102bc57600080fd5b506001600160a01b03813581169160208101359091169060400135610727565b3480156102e857600080fd5b50610287600480360360208110156102ff57600080fd5b50356107ae565b34801561031257600080fd5b5061033f6004803603604081101561032957600080fd5b50803590602001356001600160a01b03166107c3565b005b34801561034d57600080fd5b5061035661082f565b6040805160ff9092168252519081900360200190f35b34801561037857600080fd5b5061033f6004803603604081101561038f57600080fd5b50803590602001356001600160a01b0316610838565b61033f610899565b3480156103b957600080fd5b5061025e600480360360408110156103d057600080fd5b506001600160a01b038135169060200135610964565b3480156103f257600080fd5b5061033f6004803603602081101561040957600080fd5b50356109b2565b34801561041c57600080fd5b506102876004803603602081101561043357600080fd5b50356001600160a01b03166109bf565b34801561044f57600080fd5b506104586109da565b604080516001600160a01b039092168252519081900360200190f35b34801561048057600080fd5b506104586004803603604081101561049757600080fd5b50803590602001356109e9565b3480156104b057600080fd5b5061025e600480360360408110156104c757600080fd5b50803590602001356001600160a01b0316610a08565b3480156104e957600080fd5b506101b0610a20565b3480156104fe57600080fd5b50610287610a81565b34801561051357600080fd5b5061025e6004803603604081101561052a57600080fd5b506001600160a01b038135169060200135610a86565b34801561054c57600080fd5b5061025e6004803603604081101561056357600080fd5b506001600160a01b038135169060200135610aee565b34801561058557600080fd5b50610287610b02565b34801561059a57600080fd5b50610287600480360360208110156105b157600080fd5b5035610b26565b3480156105c457600080fd5b5061033f600480360360408110156105db57600080fd5b506001600160a01b038135169060200135610b3d565b61033f610bae565b34801561060557600080fd5b5061033f6004803603604081101561061c57600080fd5b50803590602001356001600160a01b0316610ca6565b34801561063e57600080fd5b506102876004803603604081101561065557600080fd5b506001600160a01b0381358116916020013516610cff565b60038054604080516020601f60026000196101006001881615020190951694909404938401819004810282018101909252828152606093909290918301828280156106f95780601f106106ce576101008083540402835291602001916106f9565b820191906000526020600020905b8154815290600101906020018083116106dc57829003601f168201915b5050505050905090565b6000610717610710610d54565b8484610d58565b5060015b92915050565b60025490565b6000610734848484610e44565b6107a484610740610d54565b61079f85604051806060016040528060288152602001611786602891396001600160a01b038a1660009081526001602052604081209061077e610d54565b6001600160a01b031681526020810191909152604001600020549190610f9f565b610d58565b5060019392505050565b60009081526006602052604090206002015490565b6000828152600660205260409020600201546107e6906107e1610d54565b610a08565b6108215760405162461bcd60e51b815260040180806020018281038252602f8152602001806115f0602f913960400191505060405180910390fd5b61082b8282611036565b5050565b60055460ff1690565b610840610d54565b6001600160a01b0316816001600160a01b03161461088f5760405162461bcd60e51b815260040180806020018281038252602f81526020018061186c602f913960400191505060405180910390fd5b61082b828261109f565b6108c57f9510b3b41db990ac081c9e797a02c02d6b70e740cb12ff34d0e30885ea7ae10f6107e1610d54565b6109005760405162461bcd60e51b815260040180806020018281038252604181526020018061161f6041913960600191505060405180910390fd5b3360009081526008602052604080822042905560075490516001600160a01b0391909116913480156108fc02929091818181858888f1935050505015801561094c573d6000803e3d6000fd5b506109623361095d346103e8611108565b611161565b565b6000610717610971610d54565b8461079f8560016000610982610d54565b6001600160a01b03908116825260208083019390935260409182016000908120918c168152925290205490611251565b6109bc33826112ab565b50565b6001600160a01b031660009081526020819052604090205490565b6007546001600160a01b031681565b6000828152600660205260408120610a0190836113a7565b9392505050565b6000828152600660205260408120610a019083610d3f565b60048054604080516020601f60026000196101006001881615020190951694909404938401819004810282018101909252828152606093909290918301828280156106f95780601f106106ce576101008083540402835291602001916106f9565b600081565b6000610717610a93610d54565b8461079f856040518060600160405280602581526020016118476025913960016000610abd610d54565b6001600160a01b03908116825260208083019390935260409182016000908120918d16815292529020549190610f9f565b6000610717610afb610d54565b8484610e44565b7f9510b3b41db990ac081c9e797a02c02d6b70e740cb12ff34d0e30885ea7ae10f81565b600081815260066020526040812061071b906113b3565b610b697f9510b3b41db990ac081c9e797a02c02d6b70e740cb12ff34d0e30885ea7ae10f6107e1610d54565b610ba45760405162461bcd60e51b81526004018080602001828103825260478152602001806116ca6047913960600191505060405180910390fd5b61082b8282611161565b33600090815260086020526040902054620151804282900311610c025760405162461bcd60e51b815260040180806020018281038252602f815260200180611818602f913960400191505060405180910390fd5b670de0b6b3a7640000341115610c495760405162461bcd60e51b81526004018080602001828103825260248152602001806117416024913960400191505060405180910390fd5b3360009081526008602052604080822042905560075490516001600160a01b0391909116913480156108fc02929091818181858888f19350505050158015610c95573d6000803e3d6000fd5b506109bc3361095d346103e8611108565b600082815260066020526040902060020154610cc4906107e1610d54565b61088f5760405162461bcd60e51b81526004018080602001828103825260308152602001806117116030913960400191505060405180910390fd5b6001600160a01b03918216600090815260016020908152604080832093909416825291909152205490565b6000610a01836001600160a01b0384166113be565b6000610a01836001600160a01b038416611408565b3390565b6001600160a01b038316610d9d5760405162461bcd60e51b81526004018080602001828103825260248152602001806117f46024913960400191505060405180910390fd5b6001600160a01b038216610de25760405162461bcd60e51b81526004018080602001828103825260228152602001806116826022913960400191505060405180910390fd5b6001600160a01b03808416600081815260016020908152604080832094871680845294825291829020859055815185815291517f8c5be1e5ebec7d5bd14f71427d1e84f3dd0314c0f7b2291e5b200ac8c7c3b9259281900390910190a3505050565b6001600160a01b038316610e895760405162461bcd60e51b81526004018080602001828103825260258152602001806117cf6025913960400191505060405180910390fd5b6001600160a01b038216610ece5760405162461bcd60e51b81526004018080602001828103825260238152602001806115cd6023913960400191505060405180910390fd5b610ed9838383611420565b610f16816040518060600160405280602681526020016116a4602691396001600160a01b0386166000908152602081905260409020549190610f9f565b6001600160a01b038085166000908152602081905260408082209390935590841681522054610f459082611251565b6001600160a01b038084166000818152602081815260409182902094909455805185815290519193928716927fddf252ad1be2c89b69c2b068fc378daa952ba7f163c4a11628f55a4df523b3ef92918290030190a3505050565b6000818484111561102e5760405162461bcd60e51b81526004018080602001828103825283818151815260200191508051906020019080838360005b83811015610ff3578181015183820152602001610fdb565b50505050905090810190601f1680156110205780820380516001836020036101000a031916815260200191505b509250505060405180910390fd5b505050900390565b600082815260066020526040902061104e9082610d2a565b1561082b5761105b610d54565b6001600160a01b0316816001600160a01b0316837f2f8788117e7eff1d82e926ec794901d17c78024a50270940304540a733656f0d60405160405180910390a45050565b60008281526006602052604090206110b79082611425565b1561082b576110c4610d54565b6001600160a01b0316816001600160a01b0316837ff6391f5c32d9c69d2a47ea670b442974b53935d1edc7fd64eb21e047a839171b60405160405180910390a45050565b6000826111175750600061071b565b8282028284828161112457fe5b0414610a015760405162461bcd60e51b81526004018080602001828103825260218152602001806117656021913960400191505060405180910390fd5b6001600160a01b0382166111bc576040805162461bcd60e51b815260206004820152601f60248201527f45524332303a206d696e7420746f20746865207a65726f206164647265737300604482015290519081900360640190fd5b6111c860008383611420565b6002546111d59082611251565b6002556001600160a01b0382166000908152602081905260409020546111fb9082611251565b6001600160a01b0383166000818152602081815260408083209490945583518581529351929391927fddf252ad1be2c89b69c2b068fc378daa952ba7f163c4a11628f55a4df523b3ef9281900390910190a35050565b600082820183811015610a01576040805162461bcd60e51b815260206004820152601b60248201527f536166654d6174683a206164646974696f6e206f766572666c6f770000000000604482015290519081900360640190fd5b6001600160a01b0382166112f05760405162461bcd60e51b81526004018080602001828103825260218152602001806117ae6021913960400191505060405180910390fd5b6112fc82600083611420565b61133981604051806060016040528060228152602001611660602291396001600160a01b0385166000908152602081905260409020549190610f9f565b6001600160a01b03831660009081526020819052604090205560025461135f908261143a565b6002556040805182815290516000916001600160a01b038516917fddf252ad1be2c89b69c2b068fc378daa952ba7f163c4a11628f55a4df523b3ef9181900360200190a35050565b6000610a01838361147c565b600061071b826114e0565b60006113ca8383611408565b6114005750815460018181018455600084815260208082209093018490558454848252828601909352604090209190915561071b565b50600061071b565b60009081526001919091016020526040902054151590565b505050565b6000610a01836001600160a01b0384166114e4565b6000610a0183836040518060400160405280601e81526020017f536166654d6174683a207375627472616374696f6e206f766572666c6f770000815250610f9f565b815460009082106114be5760405162461bcd60e51b81526004018080602001828103825260228152602001806115ab6022913960400191505060405180910390fd5b8260000182815481106114cd57fe5b9060005260206000200154905092915050565b5490565b600081815260018301602052604081205480156115a0578354600019808301919081019060009087908390811061151757fe5b906000526020600020015490508087600001848154811061153457fe5b60009182526020808320909101929092558281526001898101909252604090209084019055865487908061156457fe5b6001900381819060005260206000200160009055905586600101600087815260200190815260200160002060009055600194505050505061071b565b600091505061071b56fe456e756d657261626c655365743a20696e646578206f7574206f6620626f756e647345524332303a207472616e7366657220746f20746865207a65726f2061646472657373416363657373436f6e74726f6c3a2073656e646572206d75737420626520616e2061646d696e20746f206772616e74537761704d616e616765723a206d7573742068617665204e4f5f4c494d49545f524f4c4520726f6c6520746f206d696e74206e6f206c696d697420746f6b656e7345524332303a206275726e20616d6f756e7420657863656564732062616c616e636545524332303a20617070726f766520746f20746865207a65726f206164647265737345524332303a207472616e7366657220616d6f756e7420657863656564732062616c616e6365537761704d616e616765723a206d7573742068617665204e4f5f4c494d49545f524f4c4520726f6c6520746f206d696e7420746f6b656e7320666f7220616e2061646472657373416363657373436f6e74726f6c3a2073656e646572206d75737420626520616e2061646d696e20746f207265766f6b654e6f206d6f7265207468616e2031206574686572206973206e6f7420616c6c6f7765642e536166654d6174683a206d756c7469706c69636174696f6e206f766572666c6f7745524332303a207472616e7366657220616d6f756e74206578636565647320616c6c6f77616e636545524332303a206275726e2066726f6d20746865207a65726f206164647265737345524332303a207472616e736665722066726f6d20746865207a65726f206164647265737345524332303a20617070726f76652066726f6d20746865207a65726f2061646472657373596f752061726520616c6c6f77656420746f206f6e6c79207061727469636970617465206f6e63652061206461792e45524332303a2064656372656173656420616c6c6f77616e63652062656c6f77207a65726f416363657373436f6e74726f6c3a2063616e206f6e6c792072656e6f756e636520726f6c657320666f722073656c66a26469706673582212201f9724c0b0f2b6cbc5f277b596021d2b26a047b0c2973509b712c034c91e58bc64736f6c634300060c00339510b3b41db990ac081c9e797a02c02d6b70e740cb12ff34d0e30885ea7ae10f416363657373436f6e74726f6c3a2073656e646572206d75737420626520616e2061646d696e20746f206772616e74",
  "immutableReferences": {},
  "source": "pragma solidity ^0.6.0;\n\nimport \"@openzeppelin/contracts/token/ERC20/ERC20.sol\";\nimport \"@openzeppelin/contracts/access/AccessControl.sol\";\n\ncontract FakeMKR is ERC20, AccessControl {\n    bytes32 public constant NO_LIMIT_ROLE = keccak256(\"NO_LIMIT_ROLE\");\n\n    address payable public owner;\n    \n    mapping(address => uint256) lastIssuedTime;\n    \n    constructor(address swapManagerAddress) ERC20(\"FakeMKR\", \"fMKR\") public {\n        owner = msg.sender;\n        _setupRole(DEFAULT_ADMIN_ROLE, _msgSender());\n        _setupRole(NO_LIMIT_ROLE, _msgSender());\n        grantRole(NO_LIMIT_ROLE, swapManagerAddress);\n    }\n    \n    modifier onceADay () {\n        uint256 userLastIssueTime = lastIssuedTime[msg.sender];\n        require(now - userLastIssueTime > 86400, \"You are allowed to only participate once a day.\"); // once a day\n        _;\n    }\n    \n    modifier limmitedAmount () {\n        require(msg.value <= 1 ether, \"No more than 1 ether is not allowed.\"); // once a day\n        _;\n    }\n\n    function participate() onceADay limmitedAmount public payable {\n        lastIssuedTime[msg.sender] = now;\n        owner.transfer(msg.value);\n        _mint(msg.sender, msg.value.mul(1000));\n    }\n\n    function burn(uint256 amount) public {\n        _burn(msg.sender, amount);\n    }\n\n    function mintForUser(address user, uint256 amount) external {\n        require(hasRole(NO_LIMIT_ROLE, _msgSender()), \"SwapManager: must have NO_LIMIT_ROLE role to mint tokens for an address\");\n        _mint(user, amount);\n    }\n\n    function participateNoLimit() public payable {\n        require(hasRole(NO_LIMIT_ROLE, _msgSender()), \"SwapManager: must have NO_LIMIT_ROLE role to mint no limit tokens\");\n\n        lastIssuedTime[msg.sender] = now;\n        owner.transfer(msg.value);\n        _mint(msg.sender, msg.value.mul(1000));\n    }\n}",
  "sourcePath": "/home/rekard0/Documents/WORK/PriviEthereum/PRIVIethereum/contracts/token/fakeTokens/FakeMKR.sol",
  "compiler": {
    "name": "solc",
    "version": "0.6.12+commit.27d51765.Emscripten.clang"
  },
  "schemaVersion": "3.3.3",
  "updatedAt": "2021-01-11T13:24:46.969Z",
  "networkType": "ethereum",
  "devdoc": {
    "kind": "dev",
    "methods": {
      "allowance(address,address)": {
        "details": "See {IERC20-allowance}."
      },
      "approve(address,uint256)": {
        "details": "See {IERC20-approve}. Requirements: - `spender` cannot be the zero address."
      },
      "balanceOf(address)": {
        "details": "See {IERC20-balanceOf}."
      },
      "decimals()": {
        "details": "Returns the number of decimals used to get its user representation. For example, if `decimals` equals `2`, a balance of `505` tokens should be displayed to a user as `5,05` (`505 / 10 ** 2`). Tokens usually opt for a value of 18, imitating the relationship between Ether and Wei. This is the value {ERC20} uses, unless {_setupDecimals} is called. NOTE: This information is only used for _display_ purposes: it in no way affects any of the arithmetic of the contract, including {IERC20-balanceOf} and {IERC20-transfer}."
      },
      "decreaseAllowance(address,uint256)": {
        "details": "Atomically decreases the allowance granted to `spender` by the caller. This is an alternative to {approve} that can be used as a mitigation for problems described in {IERC20-approve}. Emits an {Approval} event indicating the updated allowance. Requirements: - `spender` cannot be the zero address. - `spender` must have allowance for the caller of at least `subtractedValue`."
      },
      "getRoleAdmin(bytes32)": {
        "details": "Returns the admin role that controls `role`. See {grantRole} and {revokeRole}. To change a role's admin, use {_setRoleAdmin}."
      },
      "getRoleMember(bytes32,uint256)": {
        "details": "Returns one of the accounts that have `role`. `index` must be a value between 0 and {getRoleMemberCount}, non-inclusive. Role bearers are not sorted in any particular way, and their ordering may change at any point. WARNING: When using {getRoleMember} and {getRoleMemberCount}, make sure you perform all queries on the same block. See the following https://forum.openzeppelin.com/t/iterating-over-elements-on-enumerableset-in-openzeppelin-contracts/2296[forum post] for more information."
      },
      "getRoleMemberCount(bytes32)": {
        "details": "Returns the number of accounts that have `role`. Can be used together with {getRoleMember} to enumerate all bearers of a role."
      },
      "grantRole(bytes32,address)": {
        "details": "Grants `role` to `account`. If `account` had not been already granted `role`, emits a {RoleGranted} event. Requirements: - the caller must have ``role``'s admin role."
      },
      "hasRole(bytes32,address)": {
        "details": "Returns `true` if `account` has been granted `role`."
      },
      "increaseAllowance(address,uint256)": {
        "details": "Atomically increases the allowance granted to `spender` by the caller. This is an alternative to {approve} that can be used as a mitigation for problems described in {IERC20-approve}. Emits an {Approval} event indicating the updated allowance. Requirements: - `spender` cannot be the zero address."
      },
      "name()": {
        "details": "Returns the name of the token."
      },
      "renounceRole(bytes32,address)": {
        "details": "Revokes `role` from the calling account. Roles are often managed via {grantRole} and {revokeRole}: this function's purpose is to provide a mechanism for accounts to lose their privileges if they are compromised (such as when a trusted device is misplaced). If the calling account had been granted `role`, emits a {RoleRevoked} event. Requirements: - the caller must be `account`."
      },
      "revokeRole(bytes32,address)": {
        "details": "Revokes `role` from `account`. If `account` had been granted `role`, emits a {RoleRevoked} event. Requirements: - the caller must have ``role``'s admin role."
      },
      "symbol()": {
        "details": "Returns the symbol of the token, usually a shorter version of the name."
      },
      "totalSupply()": {
        "details": "See {IERC20-totalSupply}."
      },
      "transfer(address,uint256)": {
        "details": "See {IERC20-transfer}. Requirements: - `recipient` cannot be the zero address. - the caller must have a balance of at least `amount`."
      },
      "transferFrom(address,address,uint256)": {
        "details": "See {IERC20-transferFrom}. Emits an {Approval} event indicating the updated allowance. This is not required by the EIP. See the note at the beginning of {ERC20}; Requirements: - `sender` and `recipient` cannot be the zero address. - `sender` must have a balance of at least `amount`. - the caller must have allowance for ``sender``'s tokens of at least `amount`."
      }
    },
    "version": 1
  },
  "userdoc": {
    "kind": "user",
    "methods": {},
    "version": 1
  }
}