{
  "contractName": "Migrations",
  "abi": [
    {
      "inputs": [],
      "name": "lastCompletedMigration",
      "outputs": [
        {
          "internalType": "uint256",
          "name": "",
          "type": "uint256"
        }
      ],
      "stateMutability": "view",
      "type": "function",
      "constant": true
    },
    {
      "inputs": [],
      "name": "owner",
      "outputs": [
        {
          "internalType": "address",
          "name": "",
          "type": "address"
        }
      ],
      "stateMutability": "view",
      "type": "function",
      "constant": true
    },
    {
      "inputs": [
        {
          "internalType": "uint256",
          "name": "completed",
          "type": "uint256"
        }
      ],
      "name": "setCompleted",
      "outputs": [],
      "stateMutability": "nonpayable",
      "type": "function"
    }
  ],
  "bytecode": "0x6080604052600080546001600160a01b0319163317905534801561002257600080fd5b5061016f806100326000396000f3fe608060405234801561001057600080fd5b50600436106100415760003560e01c80638da5cb5b14610046578063fbdbad3c1461006a578063fdacd57614610084575b600080fd5b61004e6100a3565b604080516001600160a01b039092168252519081900360200190f35b6100726100b2565b60408051918252519081900360200190f35b6100a16004803603602081101561009a57600080fd5b50356100b8565b005b6000546001600160a01b031681565b60015481565b6000546001600160a01b031633146101015760405162461bcd60e51b81526004018080602001828103825260338152602001806101076033913960400191505060405180910390fd5b60015556fe546869732066756e6374696f6e206973207265737472696374656420746f2074686520636f6e74726163742773206f776e6572a26469706673582212203094cd09af0aebd02d7bbb6badfe4e6dc97b11a6e4eb4606f2d01788bc21d96d64736f6c63430007060033",
  "immutableReferences": {},
  "source": "// SPDX-License-Identifier: MIT\npragma solidity >=0.5.8 <0.8.0;\n\ncontract Migrations {\n  address public owner = msg.sender;\n  uint256 public lastCompletedMigration;\n\n  modifier restricted() {\n    require(\n      msg.sender == owner,\n      \"This function is restricted to the contract's owner\"\n    );\n    _;\n  }\n\n  function setCompleted(uint256 completed) public restricted {\n    lastCompletedMigration = completed;\n  }\n}\n",
  "sourcePath": "/Users/csuito/dev/privi/ethereum/contracts/Migrations.sol",
  "compiler": {
    "name": "solc",
    "version": "0.7.6+commit.7338295f.Emscripten.clang"
  },
  "schemaVersion": "3.2.4",
  "updatedAt": "2021-03-15T14:16:37.190Z",
  "networkType": "ethereum",
  "devdoc": {
    "kind": "dev",
    "methods": {},
    "version": 1
  },
  "userdoc": {
    "kind": "user",
    "methods": {},
    "version": 1
  }
}