{
  "contractName": "MultiCreatorNftManager",
  "abi": [
    {
      "inputs": [
        {
          "internalType": "address[]",
          "name": "_creators",
          "type": "address[]"
        },
        {
          "internalType": "uint256[]",
          "name": "_shares",
          "type": "uint256[]"
        }
      ],
      "stateMutability": "nonpayable",
      "type": "constructor"
    },
    {
      "inputs": [
        {
          "internalType": "uint256",
          "name": "",
          "type": "uint256"
        }
      ],
      "name": "creators",
      "outputs": [
        {
          "internalType": "address",
          "name": "",
          "type": "address"
        }
      ],
      "stateMutability": "view",
      "type": "function"
    },
    {
      "inputs": [
        {
          "internalType": "address",
          "name": "",
          "type": "address"
        }
      ],
      "name": "lastPaid",
      "outputs": [
        {
          "internalType": "uint256",
          "name": "",
          "type": "uint256"
        }
      ],
      "stateMutability": "view",
      "type": "function"
    },
    {
      "inputs": [],
      "name": "recieveCounter",
      "outputs": [
        {
          "internalType": "uint256",
          "name": "_value",
          "type": "uint256"
        }
      ],
      "stateMutability": "view",
      "type": "function"
    },
    {
      "inputs": [
        {
          "internalType": "uint256",
          "name": "",
          "type": "uint256"
        }
      ],
      "name": "recievedPayments",
      "outputs": [
        {
          "internalType": "uint256",
          "name": "",
          "type": "uint256"
        }
      ],
      "stateMutability": "view",
      "type": "function"
    },
    {
      "inputs": [
        {
          "internalType": "uint256",
          "name": "",
          "type": "uint256"
        }
      ],
      "name": "shares",
      "outputs": [
        {
          "internalType": "uint256",
          "name": "",
          "type": "uint256"
        }
      ],
      "stateMutability": "view",
      "type": "function"
    },
    {
      "stateMutability": "payable",
      "type": "receive"
    },
    {
      "inputs": [
        {
          "internalType": "uint256",
          "name": "_creatorIndex",
          "type": "uint256"
        }
      ],
      "name": "getSharesTotal",
      "outputs": [
        {
          "internalType": "uint256",
          "name": "shareTotal",
          "type": "uint256"
        }
      ],
      "stateMutability": "view",
      "type": "function"
    },
    {
      "inputs": [
        {
          "internalType": "uint256",
          "name": "_creatorIndex",
          "type": "uint256"
        }
      ],
      "name": "withdraw",
      "outputs": [],
      "stateMutability": "nonpayable",
      "type": "function"
    },
    {
      "inputs": [],
      "name": "getContractBalance",
      "outputs": [
        {
          "internalType": "uint256",
          "name": "balance",
          "type": "uint256"
        }
      ],
      "stateMutability": "view",
      "type": "function"
    }
  ],
  "bytecode": "0x60806040523480156200001157600080fd5b5060405162000903380380620009038339810160408190526200003491620001c8565b8051825114620000615760405162461bcd60e51b81526004016200005890620002a2565b60405180910390fd5b81516200007690600090602085019062000095565b5080516200008c906001906020840190620000ff565b50505062000373565b828054828255906000526020600020908101928215620000ed579160200282015b82811115620000ed57825182546001600160a01b0319166001600160a01b03909116178255602090920191600190910190620000b6565b50620000fb9291506200013d565b5090565b828054828255906000526020600020908101928215620000ed579160200282015b82811115620000ed57825182559160200191906001019062000120565b5b80821115620000fb57600081556001016200013e565b600082601f83011262000165578081fd5b815160206200017e620001788362000337565b6200030b565b82815281810190858301838502870184018810156200019b578586fd5b855b85811015620001bb578151845292840192908401906001016200019d565b5090979650505050505050565b60008060408385031215620001db578182fd5b82516001600160401b0380821115620001f2578384fd5b818501915085601f83011262000206578384fd5b8151602062000219620001788362000337565b82815281810190858301838502870184018b101562000236578889fd5b8896505b848710156200026f5780516001600160a01b03811681146200025a57898afd5b8352600196909601959183019183016200023a565b509188015191965090935050508082111562000289578283fd5b50620002988582860162000154565b9150509250929050565b60208082526043908201527f4d756c746943726561746f724e66744d616e616765723a2043726561746f727360408201527f20616e642053686172657320617265206e6f74206f662073616d65206c656e676060820152623a341760e91b608082015260a00190565b6040518181016001600160401b03811182821017156200032f576200032f6200035d565b604052919050565b60006001600160401b038211156200035357620003536200035d565b5060209081020190565b634e487b7160e01b600052604160045260246000fd5b61058080620003836000396000f3fe60806040526004361061007f5760003560e01c8063ad9adcdc1161004e578063ad9adcdc14610135578063c760a23714610155578063cd53d08e14610175578063d3b97417146101a2576100b0565b80632e1a7d4d146100b557806357a858fc146100d55780636f9fb98a1461010b57806392e6c00414610120576100b0565b366100b057346003600061009360026101c2565b81526020810191909152604001600020556100ae60026101c6565b005b600080fd5b3480156100c157600080fd5b506100ae6100d0366004610430565b6101cf565b3480156100e157600080fd5b506100f56100f0366004610430565b610286565b60405161010291906104b9565b60405180910390f35b34801561011757600080fd5b506100f56102a7565b34801561012c57600080fd5b506100f56102ab565b34801561014157600080fd5b506100f5610150366004610409565b6102b1565b34801561016157600080fd5b506100f5610170366004610430565b6102c3565b34801561018157600080fd5b50610195610190366004610430565b6102d5565b6040516101029190610448565b3480156101ae57600080fd5b506100f56101bd366004610430565b6102ff565b5490565b80546001019055565b600081815481106101f057634e487b7160e01b600052603260045260246000fd5b6000918252602090912001546001600160a01b0316331461022c5760405162461bcd60e51b81526004016102239061045c565b60405180910390fd5b6000610237826102ff565b905061024360026101c2565b33600081815260046020526040808220939093559151909183156108fc02918491818181858888f19350505050158015610281573d6000803e3d6000fd5b505050565b6001818154811061029657600080fd5b600091825260209091200154905081565b4790565b60025481565b60046020526000908152604090205481565b60036020526000908152604090205481565b600081815481106102e557600080fd5b6000918252602090912001546001600160a01b0316905081565b6000806004600080858154811061032657634e487b7160e01b600052603260045260246000fd5b60009182526020808320909101546001600160a01b0316835282019290925260400190205490505b61035860026101c2565b81116103d8576103c46103bd60646103b760036000868152602001908152602001600020546001888154811061039e57634e487b7160e01b600052603260045260246000fd5b90600052602060002001546103de90919063ffffffff16565b906103f1565b83906103fd565b9150806103d081610519565b91505061034e565b50919050565b60006103ea82846104fa565b9392505050565b60006103ea82846104da565b60006103ea82846104c2565b60006020828403121561041a578081fd5b81356001600160a01b03811681146103ea578182fd5b600060208284031215610441578081fd5b5035919050565b6001600160a01b0391909116815260200190565b60208082526038908201527f4d756c746943726561746f724e66744d616e616765723a20596f75206172652060408201527f6e6f74206f6e65206f66207468652063726561746f72732e0000000000000000606082015260800190565b90815260200190565b600082198211156104d5576104d5610534565b500190565b6000826104f557634e487b7160e01b81526012600452602481fd5b500490565b600081600019048311821515161561051457610514610534565b500290565b600060001982141561052d5761052d610534565b5060010190565b634e487b7160e01b600052601160045260246000fdfea26469706673582212200e20782eb5cb72c16cf21c465a33562a14914904600c7af4236bfc6d706c7dca64736f6c63430008000033",
  "immutableReferences": {},
  "source": "pragma solidity ^0.8.0;\n\n// SPDX-License-Identifier: MIT\n\nimport \"@openzeppelin/contracts/utils/math/SafeMath.sol\";\nimport \"@openzeppelin/contracts/utils/Counters.sol\";\n\n/**\n * @notice this contract under heavy development and it is not ready for production.\n */\ncontract MultiCreatorNftManager {\n  using SafeMath for uint256;\n  using Counters for Counters.Counter;\n\n  address[] public creators;\n  uint256[] public shares;\n  Counters.Counter public recieveCounter;\n  mapping(uint256 => uint256) public recievedPayments;\n  mapping(address => uint256) public lastPaid;\n\n  constructor(address[] memory _creators, uint256[] memory _shares) {\n    require(\n      _creators.length == _shares.length,\n      \"MultiCreatorNftManager: Creators and Shares are not of same length.\"\n    );\n    creators = _creators;\n    shares = _shares;\n  }\n\n  /**\n   * @dev incriment counter for each deposite\n   */\n  receive() external payable {\n    recievedPayments[recieveCounter.current()] = msg.value;\n    recieveCounter.increment();\n  }\n\n  /**\n   * @dev calculate current un-withdrawed creator share\n   */\n  function getSharesTotal(uint256 _creatorIndex)\n    public\n    view\n    returns (uint256 shareTotal)\n  {\n    for (\n      uint256 i = lastPaid[creators[_creatorIndex]];\n      i <= recieveCounter.current();\n      i++\n    ) {\n      shareTotal =\n        shareTotal.add(\n          (\n            shares[_creatorIndex]\n            .mul(recievedPayments[i])\n          )\n          .div(100)\n        );\n        \n    }\n  }\n\n  /**\n   * @dev withdrawed creator share\n   */\n  function withdraw(uint256 _creatorIndex) external {\n    require(\n      msg.sender == creators[_creatorIndex],\n      \"MultiCreatorNftManager: You are not one of the creators.\"\n    );\n    uint256 shareTotal = getSharesTotal(_creatorIndex);\n    lastPaid[msg.sender] = recieveCounter.current();\n    payable(msg.sender).transfer(shareTotal);\n  }\n\n  /**\n   * @dev get contract balance\n   */\n  function getContractBalance() external view returns (uint256 balance) {\n    balance = address(this).balance;\n  }\n}\n",
  "sourcePath": "/home/rekard0/Documents/WORK/PriviEthereum/PRIVIethereum/contracts/deployable_managers/MultiCreatorNftManager.sol",
  "compiler": {
    "name": "solc",
    "version": "0.8.0+commit.c7dfd78e.Emscripten.clang"
  },
  "schemaVersion": "3.3.3",
  "updatedAt": "2021-03-19T09:16:11.342Z",
  "devdoc": {
    "kind": "dev",
    "methods": {
      "getContractBalance()": {
        "details": "get contract balance"
      },
      "getSharesTotal(uint256)": {
        "details": "calculate current un-withdrawed creator share"
      },
      "withdraw(uint256)": {
        "details": "withdrawed creator share"
      }
    },
    "version": 1
  },
  "userdoc": {
    "kind": "user",
    "methods": {},
    "notice": "this contract under heavy development and it is not ready for production.",
    "version": 1
  }
}