{
  "contractName": "MultiCreatorNftManager",
  "abi": [
    {
      "inputs": [
        {
          "internalType": "address[]",
          "name": "_creators",
          "type": "address[]"
        },
        {
          "internalType": "uint256[]",
          "name": "_shares",
          "type": "uint256[]"
        }
      ],
      "stateMutability": "nonpayable",
      "type": "constructor"
    },
    {
      "inputs": [
        {
          "internalType": "uint256",
          "name": "",
          "type": "uint256"
        }
      ],
      "name": "creators",
      "outputs": [
        {
          "internalType": "address",
          "name": "",
          "type": "address"
        }
      ],
      "stateMutability": "view",
      "type": "function"
    },
    {
      "inputs": [
        {
          "internalType": "address",
          "name": "",
          "type": "address"
        }
      ],
      "name": "lastPaid",
      "outputs": [
        {
          "internalType": "uint256",
          "name": "",
          "type": "uint256"
        }
      ],
      "stateMutability": "view",
      "type": "function"
    },
    {
      "inputs": [],
      "name": "recieveCounter",
      "outputs": [
        {
          "internalType": "uint256",
          "name": "_value",
          "type": "uint256"
        }
      ],
      "stateMutability": "view",
      "type": "function"
    },
    {
      "inputs": [
        {
          "internalType": "uint256",
          "name": "",
          "type": "uint256"
        }
      ],
      "name": "recievedPayments",
      "outputs": [
        {
          "internalType": "uint256",
          "name": "",
          "type": "uint256"
        }
      ],
      "stateMutability": "view",
      "type": "function"
    },
    {
      "inputs": [
        {
          "internalType": "uint256",
          "name": "",
          "type": "uint256"
        }
      ],
      "name": "shares",
      "outputs": [
        {
          "internalType": "uint256",
          "name": "",
          "type": "uint256"
        }
      ],
      "stateMutability": "view",
      "type": "function"
    },
    {
      "stateMutability": "payable",
      "type": "receive"
    },
    {
      "inputs": [
        {
          "internalType": "uint256",
          "name": "_creatorIndex",
          "type": "uint256"
        }
      ],
      "name": "getSharesTotal",
      "outputs": [
        {
          "internalType": "uint256",
          "name": "shareTotal",
          "type": "uint256"
        }
      ],
      "stateMutability": "view",
      "type": "function"
    },
    {
      "inputs": [
        {
          "internalType": "uint256",
          "name": "_creatorIndex",
          "type": "uint256"
        }
      ],
      "name": "withdraw",
      "outputs": [],
      "stateMutability": "nonpayable",
      "type": "function"
    },
    {
      "inputs": [],
      "name": "getContractBalance",
      "outputs": [
        {
          "internalType": "uint256",
          "name": "balance",
          "type": "uint256"
        }
      ],
      "stateMutability": "view",
      "type": "function"
    }
  ],
  "bytecode": "0x608060405234801561001057600080fd5b5060405161086d38038061086d8339818101604052604081101561003357600080fd5b810190808051604051939291908464010000000082111561005357600080fd5b90830190602082018581111561006857600080fd5b825186602082028301116401000000008211171561008557600080fd5b82525081516020918201928201910280838360005b838110156100b257818101518382015260200161009a565b50505050905001604052602001805160405193929190846401000000008211156100db57600080fd5b9083019060208201858111156100f057600080fd5b825186602082028301116401000000008211171561010d57600080fd5b82525081516020918201928201910280838360005b8381101561013a578181015183820152602001610122565b5050505090500160405250505080518251146101875760405162461bcd60e51b815260040180806020018281038252604381526020018061082a6043913960600191505060405180910390fd5b815161019a9060009060208501906101b6565b5080516101ae90600190602084019061021b565b50505061026b565b82805482825590600052602060002090810192821561020b579160200282015b8281111561020b57825182546001600160a01b0319166001600160a01b039091161782556020909201916001909101906101d6565b50610217929150610256565b5090565b82805482825590600052602060002090810192821561020b579160200282015b8281111561020b57825182559160200191906001019061023b565b5b808211156102175760008155600101610257565b6105b08061027a6000396000f3fe60806040526004361061007f5760003560e01c8063ad9adcdc1161004e578063ad9adcdc14610145578063c760a23714610178578063cd53d08e146101a2578063d3b97417146101e8576100b0565b80632e1a7d4d146100b557806357a858fc146100df5780636f9fb98a1461011b57806392e6c00414610130576100b0565b366100b05734600360006100936002610212565b81526020810191909152604001600020556100ae6002610216565b005b600080fd5b3480156100c157600080fd5b506100ae600480360360208110156100d857600080fd5b503561021f565b3480156100eb57600080fd5b506101096004803603602081101561010257600080fd5b50356102d8565b60408051918252519081900360200190f35b34801561012757600080fd5b506101096102f9565b34801561013c57600080fd5b506101096102fd565b34801561015157600080fd5b506101096004803603602081101561016857600080fd5b50356001600160a01b0316610303565b34801561018457600080fd5b506101096004803603602081101561019b57600080fd5b5035610315565b3480156101ae57600080fd5b506101cc600480360360208110156101c557600080fd5b5035610327565b604080516001600160a01b039092168252519081900360200190f35b3480156101f457600080fd5b506101096004803603602081101561020b57600080fd5b5035610351565b5490565b80546001019055565b6000818154811061022c57fe5b6000918252602090912001546001600160a01b0316331461027e5760405162461bcd60e51b81526004018080602001828103825260388152602001806105436038913960400191505060405180910390fd5b600061028982610351565b90506102956002610212565b33600081815260046020526040808220939093559151909183156108fc02918491818181858888f193505050501580156102d3573d6000803e3d6000fd5b505050565b600181815481106102e857600080fd5b600091825260209091200154905081565b4790565b60025481565b60046020526000908152604090205481565b60036020526000908152604090205481565b6000818154811061033757600080fd5b6000918252602090912001546001600160a01b0316905081565b6000806004600080858154811061036457fe5b60009182526020808320909101546001600160a01b0316835282019290925260400190205490505b6103966002610212565b81116103f8576103ee6103e760646103e16003600086815260200190815260200160002054600188815481106103c857fe5b90600052602060002001546103fe90919063ffffffff16565b90610460565b83906104c7565b915060010161038c565b50919050565b60008261040d5750600061045a565b8282028284828161041a57fe5b04146104575760405162461bcd60e51b81526004018080602001828103825260218152602001806105226021913960400191505060405180910390fd5b90505b92915050565b60008082116104b6576040805162461bcd60e51b815260206004820152601a60248201527f536166654d6174683a206469766973696f6e206279207a65726f000000000000604482015290519081900360640190fd5b8183816104bf57fe5b049392505050565b600082820183811015610457576040805162461bcd60e51b815260206004820152601b60248201527f536166654d6174683a206164646974696f6e206f766572666c6f770000000000604482015290519081900360640190fdfe536166654d6174683a206d756c7469706c69636174696f6e206f766572666c6f774d756c746943726561746f724e66744d616e616765723a20596f7520617265206e6f74206f6e65206f66207468652063726561746f72732ea2646970667358221220b94a16a6e5c840cdc22f2b2460b70e8c09ab7f53b230f500904f6dfb01a6612564736f6c634300070600334d756c746943726561746f724e66744d616e616765723a2043726561746f727320616e642053686172657320617265206e6f74206f662073616d65206c656e6774682e",
  "immutableReferences": {},
  "source": "pragma solidity >=0.7.6;\n\n// SPDX-License-Identifier: MIT\n\nimport \"@openzeppelin/contracts/math/SafeMath.sol\";\nimport \"@openzeppelin/contracts/utils/Counters.sol\";\n\n/**\n * @notice this contract under heavy development and it is not ready for production.\n */\ncontract MultiCreatorNftManager {\n  using SafeMath for uint256;\n  using Counters for Counters.Counter;\n\n  address[] public creators;\n  uint256[] public shares;\n  Counters.Counter public recieveCounter;\n  mapping(uint256 => uint256) public recievedPayments;\n  mapping(address => uint256) public lastPaid;\n\n  constructor(address[] memory _creators, uint256[] memory _shares) {\n    require(\n      _creators.length == _shares.length,\n      \"MultiCreatorNftManager: Creators and Shares are not of same length.\"\n    );\n    creators = _creators;\n    shares = _shares;\n  }\n\n  /**\n   * @dev incriment counter for each deposite\n   */\n  receive() external payable {\n    recievedPayments[recieveCounter.current()] = msg.value;\n    recieveCounter.increment();\n  }\n\n  /**\n   * @dev calculate current un-withdrawed creator share\n   */\n  function getSharesTotal(uint256 _creatorIndex)\n    public\n    view\n    returns (uint256 shareTotal)\n  {\n    for (\n      uint256 i = lastPaid[creators[_creatorIndex]];\n      i <= recieveCounter.current();\n      i++\n    ) {\n      shareTotal =\n        shareTotal.add(\n          (\n            shares[_creatorIndex]\n            .mul(recievedPayments[i])\n          )\n          .div(100)\n        );\n        \n    }\n  }\n\n  /**\n   * @dev withdrawed creator share\n   */\n  function withdraw(uint256 _creatorIndex) external {\n    require(\n      msg.sender == creators[_creatorIndex],\n      \"MultiCreatorNftManager: You are not one of the creators.\"\n    );\n    uint256 shareTotal = getSharesTotal(_creatorIndex);\n    lastPaid[msg.sender] = recieveCounter.current();\n    payable(msg.sender).transfer(shareTotal);\n  }\n\n  /**\n   * @dev get contract balance\n   */\n  function getContractBalance() external view returns (uint256 balance) {\n    balance = address(this).balance;\n  }\n}\n",
  "sourcePath": "/home/rekard0/Documents/WORK/PriviEthereum/PRIVIethereum/contracts/deployable_managers/MultiCreatorNftManager.sol",
  "compiler": {
    "name": "solc",
    "version": "0.7.6+commit.7338295f.Emscripten.clang"
  },
  "schemaVersion": "3.3.3",
  "updatedAt": "2021-03-17T11:04:05.539Z",
  "devdoc": {
    "kind": "dev",
    "methods": {
      "getContractBalance()": {
        "details": "get contract balance"
      },
      "getSharesTotal(uint256)": {
        "details": "calculate current un-withdrawed creator share"
      },
      "withdraw(uint256)": {
        "details": "withdrawed creator share"
      }
    },
    "version": 1
  },
  "userdoc": {
    "kind": "user",
    "methods": {},
    "notice": "this contract under heavy development and it is not ready for production.",
    "version": 1
  }
}