{
  "contractName": "MultiCreatorNftManager",
  "abi": [
    {
      "inputs": [
        {
          "internalType": "address[]",
          "name": "_creators",
          "type": "address[]"
        },
        {
          "internalType": "uint256[]",
          "name": "_shares",
          "type": "uint256[]"
        }
      ],
      "stateMutability": "nonpayable",
      "type": "constructor"
    },
    {
      "inputs": [
        {
          "internalType": "uint256",
          "name": "",
          "type": "uint256"
        }
      ],
      "name": "creators",
      "outputs": [
        {
          "internalType": "address",
          "name": "",
          "type": "address"
        }
      ],
      "stateMutability": "view",
      "type": "function"
    },
    {
      "inputs": [
        {
          "internalType": "address",
          "name": "",
          "type": "address"
        }
      ],
      "name": "lastPaid",
      "outputs": [
        {
          "internalType": "uint256",
          "name": "",
          "type": "uint256"
        }
      ],
      "stateMutability": "view",
      "type": "function"
    },
    {
      "inputs": [],
      "name": "recieveCounter",
      "outputs": [
        {
          "internalType": "uint256",
          "name": "_value",
          "type": "uint256"
        }
      ],
      "stateMutability": "view",
      "type": "function"
    },
    {
      "inputs": [
        {
          "internalType": "uint256",
          "name": "",
          "type": "uint256"
        }
      ],
      "name": "recievedPayments",
      "outputs": [
        {
          "internalType": "uint256",
          "name": "",
          "type": "uint256"
        }
      ],
      "stateMutability": "view",
      "type": "function"
    },
    {
      "inputs": [
        {
          "internalType": "uint256",
          "name": "",
          "type": "uint256"
        }
      ],
      "name": "shares",
      "outputs": [
        {
          "internalType": "uint256",
          "name": "",
          "type": "uint256"
        }
      ],
      "stateMutability": "view",
      "type": "function"
    },
    {
      "stateMutability": "payable",
      "type": "receive"
    },
    {
      "inputs": [
        {
          "internalType": "uint256",
          "name": "_creatorIndex",
          "type": "uint256"
        }
      ],
      "name": "getSharesTotal",
      "outputs": [
        {
          "internalType": "uint256",
          "name": "shareTotal",
          "type": "uint256"
        }
      ],
      "stateMutability": "view",
      "type": "function"
    },
    {
      "inputs": [
        {
          "internalType": "uint256",
          "name": "_creatorIndex",
          "type": "uint256"
        }
      ],
      "name": "withdraw",
      "outputs": [],
      "stateMutability": "nonpayable",
      "type": "function"
    },
    {
      "inputs": [],
      "name": "getContractBalance",
      "outputs": [
        {
          "internalType": "uint256",
          "name": "balance",
          "type": "uint256"
        }
      ],
      "stateMutability": "view",
      "type": "function"
    }
  ],
  "bytecode": "0x608060405234801561001057600080fd5b506040516108a63803806108a683398101604081905261002f916101a9565b80518251146100595760405162461bcd60e51b815260040161005090610276565b60405180910390fd5b815161006c906000906020850190610088565b5080516100809060019060208401906100ed565b505050610341565b8280548282559060005260206000209081019282156100dd579160200282015b828111156100dd57825182546001600160a01b0319166001600160a01b039091161782556020909201916001909101906100a8565b506100e9929150610128565b5090565b8280548282559060005260206000209081019282156100dd579160200282015b828111156100dd57825182559160200191906001019061010d565b5b808211156100e95760008155600101610129565b600082601f83011261014d578081fd5b8151602061016261015d83610308565b6102df565b828152818101908583018385028701840188101561017e578586fd5b855b8581101561019c57815184529284019290840190600101610180565b5090979650505050505050565b600080604083850312156101bb578182fd5b82516001600160401b03808211156101d1578384fd5b818501915085601f8301126101e4578384fd5b815160206101f461015d83610308565b82815281810190858301838502870184018b1015610210578889fd5b8896505b848710156102465780516001600160a01b038116811461023257898afd5b835260019690960195918301918301610214565b509188015191965090935050508082111561025f578283fd5b5061026c8582860161013d565b9150509250929050565b60208082526043908201527f4d756c746943726561746f724e66744d616e616765723a2043726561746f727360408201527f20616e642053686172657320617265206e6f74206f662073616d65206c656e676060820152623a341760e91b608082015260a00190565b6040518181016001600160401b03811182821017156103005761030061032b565b604052919050565b60006001600160401b038211156103215761032161032b565b5060209081020190565b634e487b7160e01b600052604160045260246000fd5b610556806103506000396000f3fe60806040526004361061007f5760003560e01c8063ad9adcdc1161004e578063ad9adcdc14610135578063c760a23714610155578063cd53d08e14610175578063d3b97417146101a2576100b0565b80632e1a7d4d146100b557806357a858fc146100d55780636f9fb98a1461010b57806392e6c00414610120576100b0565b366100b057346003600061009360026101c2565b81526020810191909152604001600020556100ae60026101c6565b005b600080fd5b3480156100c157600080fd5b506100ae6100d0366004610406565b6101cf565b3480156100e157600080fd5b506100f56100f0366004610406565b610286565b604051610102919061048f565b60405180910390f35b34801561011757600080fd5b506100f56102a7565b34801561012c57600080fd5b506100f56102ab565b34801561014157600080fd5b506100f56101503660046103d8565b6102b1565b34801561016157600080fd5b506100f5610170366004610406565b6102c3565b34801561018157600080fd5b50610195610190366004610406565b6102d5565b604051610102919061041e565b3480156101ae57600080fd5b506100f56101bd366004610406565b6102ff565b5490565b80546001019055565b600081815481106101f057634e487b7160e01b600052603260045260246000fd5b6000918252602090912001546001600160a01b0316331461022c5760405162461bcd60e51b815260040161022390610432565b60405180910390fd5b6000610237826102ff565b905061024360026101c2565b33600081815260046020526040808220939093559151909183156108fc02918491818181858888f19350505050158015610281573d6000803e3d6000fd5b505050565b6001818154811061029657600080fd5b600091825260209091200154905081565b4790565b60025481565b60046020526000908152604090205481565b60036020526000908152604090205481565b600081815481106102e557600080fd5b6000918252602090912001546001600160a01b0316905081565b6000806004600080858154811061032657634e487b7160e01b600052603260045260246000fd5b60009182526020808320909101546001600160a01b0316835282019290925260400190205490505b61035860026101c2565b81116103d257606460036000838152602001908152602001600020546001858154811061039557634e487b7160e01b600052603260045260246000fd5b90600052602060002001546103aa91906104d0565b6103b491906104b0565b6103be9083610498565b9150806103ca816104ef565b91505061034e565b50919050565b6000602082840312156103e9578081fd5b81356001600160a01b03811681146103ff578182fd5b9392505050565b600060208284031215610417578081fd5b5035919050565b6001600160a01b0391909116815260200190565b60208082526038908201527f4d756c746943726561746f724e66744d616e616765723a20596f75206172652060408201527f6e6f74206f6e65206f66207468652063726561746f72732e0000000000000000606082015260800190565b90815260200190565b600082198211156104ab576104ab61050a565b500190565b6000826104cb57634e487b7160e01b81526012600452602481fd5b500490565b60008160001904831182151516156104ea576104ea61050a565b500290565b60006000198214156105035761050361050a565b5060010190565b634e487b7160e01b600052601160045260246000fdfea26469706673582212203c83add503e19c2d9171218e7e45039a50c9ad1cf1f90d56fccd5327eb1afeb764736f6c63430008000033",
  "immutableReferences": {},
  "source": "pragma solidity ^0.8.0;\n// SPDX-License-Identifier: MIT\n\nimport \"@openzeppelin/contracts/utils/Counters.sol\";\n\n/**\n * @notice this contract under heavy development and it is not ready for production.\n */\ncontract MultiCreatorNftManager {\n  using Counters for Counters.Counter;\n\n  address[] public creators;\n  uint256[] public shares;\n  Counters.Counter public recieveCounter;\n  mapping(uint256 => uint256) public recievedPayments;\n  mapping(address => uint256) public lastPaid;\n\n  constructor(address[] memory _creators, uint256[] memory _shares) {\n    require(\n      _creators.length == _shares.length,\n      \"MultiCreatorNftManager: Creators and Shares are not of same length.\"\n    );\n    creators = _creators;\n    shares = _shares;\n  }\n\n  /**\n   * @dev incriment counter for each deposite\n   */\n  receive() external payable {\n    recievedPayments[recieveCounter.current()] = msg.value;\n    recieveCounter.increment();\n  }\n\n  /**\n   * @dev calculate current un-withdrawed creator share\n   */\n  function getSharesTotal(uint256 _creatorIndex)\n    public\n    view\n    returns (uint256 shareTotal)\n  {\n    for (\n      uint256 i = lastPaid[creators[_creatorIndex]];\n      i <= recieveCounter.current();\n      i++\n    ) {\n      //shareTotal = shareTotal.add((shares[_creatorIndex].mul(recievedPayments[i])).div(100));\n      shareTotal += ((shares[_creatorIndex] * recievedPayments[i]) / 100);\n    }\n  }\n\n  /**\n   * @dev withdrawed creator share\n   */\n  function withdraw(uint256 _creatorIndex) external {\n    require(\n      msg.sender == creators[_creatorIndex],\n      \"MultiCreatorNftManager: You are not one of the creators.\"\n    );\n    uint256 shareTotal = getSharesTotal(_creatorIndex);\n    lastPaid[msg.sender] = recieveCounter.current();\n    payable(msg.sender).transfer(shareTotal);\n  }\n\n  /**\n   * @dev get contract balance\n   */\n  function getContractBalance() external view returns (uint256 balance) {\n    balance = address(this).balance;\n  }\n}\n",
  "sourcePath": "/Users/sergijuanati/Dropbox/Docs/2. Work/16. Privi/3. Code/getcache_ethereum/contracts/deployable_managers/MultiCreatorNftManager.sol",
  "compiler": {
    "name": "solc",
    "version": "0.8.0+commit.c7dfd78e.Emscripten.clang"
  },
  "schemaVersion": "3.3.2",
  "updatedAt": "2021-04-07T13:52:55.694Z",
  "devdoc": {
    "kind": "dev",
    "methods": {
      "getContractBalance()": {
        "details": "get contract balance"
      },
      "getSharesTotal(uint256)": {
        "details": "calculate current un-withdrawed creator share"
      },
      "withdraw(uint256)": {
        "details": "withdrawed creator share"
      }
    },
    "version": 1
  },
  "userdoc": {
    "kind": "user",
    "methods": {},
    "notice": "this contract under heavy development and it is not ready for production.",
    "version": 1
  }
}