{
  "contractName": "PRIVIPodERC1155Factory",
  "abi": [
    {
      "inputs": [],
      "stateMutability": "nonpayable",
      "type": "constructor"
    },
    {
      "anonymous": false,
      "inputs": [
        {
          "indexed": true,
          "internalType": "string",
          "name": "podId",
          "type": "string"
        },
        {
          "indexed": false,
          "internalType": "string",
          "name": "uri",
          "type": "string"
        }
      ],
      "name": "PodCreated",
      "type": "event"
    },
    {
      "anonymous": false,
      "inputs": [
        {
          "indexed": true,
          "internalType": "bytes32",
          "name": "role",
          "type": "bytes32"
        },
        {
          "indexed": true,
          "internalType": "bytes32",
          "name": "previousAdminRole",
          "type": "bytes32"
        },
        {
          "indexed": true,
          "internalType": "bytes32",
          "name": "newAdminRole",
          "type": "bytes32"
        }
      ],
      "name": "RoleAdminChanged",
      "type": "event"
    },
    {
      "anonymous": false,
      "inputs": [
        {
          "indexed": true,
          "internalType": "bytes32",
          "name": "role",
          "type": "bytes32"
        },
        {
          "indexed": true,
          "internalType": "address",
          "name": "account",
          "type": "address"
        },
        {
          "indexed": true,
          "internalType": "address",
          "name": "sender",
          "type": "address"
        }
      ],
      "name": "RoleGranted",
      "type": "event"
    },
    {
      "anonymous": false,
      "inputs": [
        {
          "indexed": true,
          "internalType": "bytes32",
          "name": "role",
          "type": "bytes32"
        },
        {
          "indexed": true,
          "internalType": "address",
          "name": "account",
          "type": "address"
        },
        {
          "indexed": true,
          "internalType": "address",
          "name": "sender",
          "type": "address"
        }
      ],
      "name": "RoleRevoked",
      "type": "event"
    },
    {
      "inputs": [],
      "name": "DEFAULT_ADMIN_ROLE",
      "outputs": [
        {
          "internalType": "bytes32",
          "name": "",
          "type": "bytes32"
        }
      ],
      "stateMutability": "view",
      "type": "function"
    },
    {
      "inputs": [],
      "name": "MODERATOR_ROLE",
      "outputs": [
        {
          "internalType": "bytes32",
          "name": "",
          "type": "bytes32"
        }
      ],
      "stateMutability": "view",
      "type": "function"
    },
    {
      "inputs": [
        {
          "internalType": "bytes32",
          "name": "role",
          "type": "bytes32"
        }
      ],
      "name": "getRoleAdmin",
      "outputs": [
        {
          "internalType": "bytes32",
          "name": "",
          "type": "bytes32"
        }
      ],
      "stateMutability": "view",
      "type": "function"
    },
    {
      "inputs": [
        {
          "internalType": "bytes32",
          "name": "role",
          "type": "bytes32"
        },
        {
          "internalType": "uint256",
          "name": "index",
          "type": "uint256"
        }
      ],
      "name": "getRoleMember",
      "outputs": [
        {
          "internalType": "address",
          "name": "",
          "type": "address"
        }
      ],
      "stateMutability": "view",
      "type": "function"
    },
    {
      "inputs": [
        {
          "internalType": "bytes32",
          "name": "role",
          "type": "bytes32"
        }
      ],
      "name": "getRoleMemberCount",
      "outputs": [
        {
          "internalType": "uint256",
          "name": "",
          "type": "uint256"
        }
      ],
      "stateMutability": "view",
      "type": "function"
    },
    {
      "inputs": [
        {
          "internalType": "bytes32",
          "name": "role",
          "type": "bytes32"
        },
        {
          "internalType": "address",
          "name": "account",
          "type": "address"
        }
      ],
      "name": "grantRole",
      "outputs": [],
      "stateMutability": "nonpayable",
      "type": "function"
    },
    {
      "inputs": [
        {
          "internalType": "bytes32",
          "name": "role",
          "type": "bytes32"
        },
        {
          "internalType": "address",
          "name": "account",
          "type": "address"
        }
      ],
      "name": "hasRole",
      "outputs": [
        {
          "internalType": "bool",
          "name": "",
          "type": "bool"
        }
      ],
      "stateMutability": "view",
      "type": "function"
    },
    {
      "inputs": [
        {
          "internalType": "string",
          "name": "",
          "type": "string"
        }
      ],
      "name": "podTokenAddresses",
      "outputs": [
        {
          "internalType": "address",
          "name": "",
          "type": "address"
        }
      ],
      "stateMutability": "view",
      "type": "function"
    },
    {
      "inputs": [
        {
          "internalType": "bytes32",
          "name": "role",
          "type": "bytes32"
        },
        {
          "internalType": "address",
          "name": "account",
          "type": "address"
        }
      ],
      "name": "renounceRole",
      "outputs": [],
      "stateMutability": "nonpayable",
      "type": "function"
    },
    {
      "inputs": [
        {
          "internalType": "bytes32",
          "name": "role",
          "type": "bytes32"
        },
        {
          "internalType": "address",
          "name": "account",
          "type": "address"
        }
      ],
      "name": "revokeRole",
      "outputs": [],
      "stateMutability": "nonpayable",
      "type": "function"
    },
    {
      "inputs": [],
      "name": "totalPodCreated",
      "outputs": [
        {
          "internalType": "uint256",
          "name": "",
          "type": "uint256"
        }
      ],
      "stateMutability": "view",
      "type": "function"
    },
    {
      "inputs": [
        {
          "internalType": "string",
          "name": "podId",
          "type": "string"
        },
        {
          "internalType": "string",
          "name": "uri",
          "type": "string"
        }
      ],
      "name": "createPod",
      "outputs": [
        {
          "internalType": "address",
          "name": "podAddress",
          "type": "address"
        }
      ],
      "stateMutability": "nonpayable",
      "type": "function"
    },
    {
      "inputs": [
        {
          "internalType": "string",
          "name": "podId",
          "type": "string"
        },
        {
          "internalType": "address",
          "name": "account",
          "type": "address"
        },
        {
          "internalType": "uint256",
          "name": "tokenId",
          "type": "uint256"
        },
        {
          "internalType": "uint256",
          "name": "amount",
          "type": "uint256"
        },
        {
          "internalType": "bytes",
          "name": "data",
          "type": "bytes"
        }
      ],
      "name": "podMint",
      "outputs": [],
      "stateMutability": "nonpayable",
      "type": "function"
    },
    {
      "inputs": [
        {
          "internalType": "string",
          "name": "podId",
          "type": "string"
        },
        {
          "internalType": "address",
          "name": "account",
          "type": "address"
        },
        {
          "internalType": "uint256[]",
          "name": "tokenIds",
          "type": "uint256[]"
        },
        {
          "internalType": "uint256[]",
          "name": "amounts",
          "type": "uint256[]"
        },
        {
          "internalType": "bytes",
          "name": "data",
          "type": "bytes"
        }
      ],
      "name": "podMintBatch",
      "outputs": [],
      "stateMutability": "nonpayable",
      "type": "function"
    }
  ],
  "bytecode": "0x60806040523480156200001157600080fd5b50620000286000620000226200005d565b62000061565b620000577f71f3d55856e4058ed06ee057d79ada615f65cdf5f9ee88181b914225088f834f620000226200005d565b62000171565b3390565b6200006d828262000071565b5050565b6000828152602081815260409091206200009691839062000ebf620000ea821b17901c565b156200006d57620000a66200005d565b6001600160a01b0316816001600160a01b0316837f2f8788117e7eff1d82e926ec794901d17c78024a50270940304540a733656f0d60405160405180910390a45050565b600062000101836001600160a01b0384166200010a565b90505b92915050565b600062000118838362000159565b620001505750815460018181018455600084815260208082209093018490558454848252828601909352604090209190915562000104565b50600062000104565b60009081526001919091016020526040902054151590565b613aec80620001816000396000f3fe60806040523480156200001157600080fd5b5060043610620001005760003560e01c806391d148541162000099578063ca15c873116200006f578063ca15c87314620005b7578063d547741f14620005d7578063dc2e187a1462000606578063e8c28f3d14620006105762000100565b806391d148541462000488578063a217fddf14620004cb578063c9f4ef0114620004d55762000100565b8063797669c911620000db578063797669c9146200019757806387b4b09d14620001a15780638dcab0f914620002845780639010d07c14620004625762000100565b8063248a9ca314620001055780632f2ff15d146200013757806336568abe1462000168575b600080fd5b62000125600480360360208110156200011d57600080fd5b5035620006ba565b60408051918252519081900360200190f35b62000166600480360360408110156200014f57600080fd5b50803590602001356001600160a01b0316620006cf565b005b62000166600480360360408110156200018057600080fd5b50803590602001356001600160a01b031662000743565b62000125620007aa565b6200026860048036036040811015620001b957600080fd5b810190602081018135600160201b811115620001d457600080fd5b820183602082011115620001e757600080fd5b803590602001918460018302840111600160201b831117156200020957600080fd5b919390929091602081019035600160201b8111156200022757600080fd5b8201836020820111156200023a57600080fd5b803590602001918460018302840111600160201b831117156200025c57600080fd5b509092509050620007ce565b604080516001600160a01b039092168252519081900360200190f35b62000166600480360360a08110156200029c57600080fd5b810190602081018135600160201b811115620002b757600080fd5b820183602082011115620002ca57600080fd5b803590602001918460018302840111600160201b83111715620002ec57600080fd5b919390926001600160a01b0383351692604081019060200135600160201b8111156200031757600080fd5b8201836020820111156200032a57600080fd5b803590602001918460208302840111600160201b831117156200034c57600080fd5b9190808060200260200160405190810160405280939291908181526020018383602002808284376000920191909152509295949360208101935035915050600160201b8111156200039c57600080fd5b820183602082011115620003af57600080fd5b803590602001918460208302840111600160201b83111715620003d157600080fd5b9190808060200260200160405190810160405280939291908181526020018383602002808284376000920191909152509295949360208101935035915050600160201b8111156200042157600080fd5b8201836020820111156200043457600080fd5b803590602001918460018302840111600160201b831117156200045657600080fd5b50909250905062000a1d565b62000268600480360360408110156200047a57600080fd5b508035906020013562000c2c565b620004b760048036036040811015620004a057600080fd5b50803590602001356001600160a01b031662000c4f565b604080519115158252519081900360200190f35b6200012562000c69565b62000166600480360360a0811015620004ed57600080fd5b810190602081018135600160201b8111156200050857600080fd5b8201836020820111156200051b57600080fd5b803590602001918460018302840111600160201b831117156200053d57600080fd5b919390926001600160a01b03833516926020810135926040820135929091608081019060600135600160201b8111156200057657600080fd5b8201836020820111156200058957600080fd5b803590602001918460018302840111600160201b83111715620005ab57600080fd5b50909250905062000c6e565b6200012560048036036020811015620005cf57600080fd5b503562000e1c565b6200016660048036036040811015620005ef57600080fd5b50803590602001356001600160a01b031662000e35565b6200012562000e93565b62000268600480360360208110156200062857600080fd5b810190602081018135600160201b8111156200064357600080fd5b8201836020820111156200065657600080fd5b803590602001918460018302840111600160201b831117156200067857600080fd5b91908080601f01602080910402602001604051908101604052809392919081815260200183838082843760009201919091525092955062000e99945050505050565b60009081526020819052604090206002015490565b600082815260208190526040902060020154620006f690620006f062000ed6565b62000c4f565b620007335760405162461bcd60e51b815260040180806020018281038252602f8152602001806200390a602f913960400191505060405180910390fd5b6200073f828262000eda565b5050565b6200074d62000ed6565b6001600160a01b0316816001600160a01b0316146200079e5760405162461bcd60e51b815260040180806020018281038252602f81526020018062003a88602f913960400191505060405180910390fd5b6200073f828262000f48565b7f71f3d55856e4058ed06ee057d79ada615f65cdf5f9ee88181b914225088f834f81565b6000620007ff7f71f3d55856e4058ed06ee057d79ada615f65cdf5f9ee88181b914225088f834f620006f062000ed6565b6200083c5760405162461bcd60e51b815260040180806020018281038252603f815260200180620039ec603f913960400191505060405180910390fd5b60006001600160a01b0316600286866040518083838082843791909101948552505060405192839003602001909220546001600160a01b0316929092149150620008ba90505760405162461bcd60e51b815260040180806020018281038252602b81526020018062003a2b602b913960400191505060405180910390fd5b6000838330604051620008cd90620011f8565b6001600160a01b03821660208201526040808252810183905280606081018585808284376000838201819052604051601f909201601f191690930181900397509550909350505050f08015801562000929573d6000803e3d6000fd5b509050809150620009466001805462000fb690919063ffffffff16565b5081600287876040518083838082843791909101948552505060405192839003602001832080546001600160a01b039590951673ffffffffffffffffffffffffffffffffffffffff19909516949094179093555087915086908083838082843760408051939091018390038320602080855284018a905295507f422ef498ca0b6e1a8d5f13831fb350dcece067f1c452b2c07940088e34d787a094508993508892915081908101848480828437600083820152604051601f909101601f19169092018290039550909350505050a250949350505050565b62000a4c7f71f3d55856e4058ed06ee057d79ada615f65cdf5f9ee88181b914225088f834f620006f062000ed6565b62000a895760405162461bcd60e51b8152600401808060200182810382526048815260200180620039396048913960600191505060405180910390fd5b6001600160a01b03851662000ad05760405162461bcd60e51b815260040180806020018281038252603b815260200180620039b1603b913960400191505060405180910390fd5b60028787604051808383808284379190910194855250506040516020938190038401812054630fbfeffd60e11b82526001600160a01b038a8116600484019081526080602485019081528b5160848601528b519290931696631f7fdffa96508c95508b948b948b948b949391926044810192606482019260a4909201918a8201910280838360005b8381101562000b7257818101518382015260200162000b58565b50505050905001848103835287818151815260200191508051906020019060200280838360005b8381101562000bb357818101518382015260200162000b99565b505050509050018481038252868682818152602001925080828437600081840152601f19601f82011690508083019250505098505050505050505050600060405180830381600087803b15801562000c0a57600080fd5b505af115801562000c1f573d6000803e3d6000fd5b5050505050505050505050565b600082815260208190526040812062000c46908362001011565b90505b92915050565b600082815260208190526040812062000c4690836200101f565b600081565b62000c9d7f71f3d55856e4058ed06ee057d79ada615f65cdf5f9ee88181b914225088f834f620006f062000ed6565b62000cda5760405162461bcd60e51b8152600401808060200182810382526048815260200180620039396048913960600191505060405180910390fd5b6001600160a01b03851662000d215760405162461bcd60e51b815260040180806020018281038252603b815260200180620039b1603b913960400191505060405180910390fd5b6000831162000d625760405162461bcd60e51b815260040180806020018281038252603281526020018062003a566032913960400191505060405180910390fd5b60028787604051808383808284379190910194855250506040519283900360200183205463731133e960e01b84526001600160a01b0389811660048601908152602486018a90526044860189905260806064870190815260848701889052919092169463731133e994508a93508992899289928992919060a401848480828437600081840152601f19601f8201169050808301925050509650505050505050600060405180830381600087803b15801562000c0a57600080fd5b600081815260208190526040812062000c499062001036565b60008281526020819052604090206002015462000e5690620006f062000ed6565b6200079e5760405162461bcd60e51b8152600401808060200182810382526030815260200180620039816030913960400191505060405180910390fd5b60015481565b80516020818301810180516002825292820191909301209152546001600160a01b031681565b600062000c46836001600160a01b03841662001043565b3390565b600082815260208190526040902062000ef4908262000ebf565b156200073f5762000f0462000ed6565b6001600160a01b0316816001600160a01b0316837f2f8788117e7eff1d82e926ec794901d17c78024a50270940304540a733656f0d60405160405180910390a45050565b600082815260208190526040902062000f62908262001092565b156200073f5762000f7262000ed6565b6001600160a01b0316816001600160a01b0316837ff6391f5c32d9c69d2a47ea670b442974b53935d1edc7fd64eb21e047a839171b60405160405180910390a45050565b60008282018381101562000c46576040805162461bcd60e51b815260206004820152601b60248201527f536166654d6174683a206164646974696f6e206f766572666c6f770000000000604482015290519081900360640190fd5b600062000c468383620010a9565b600062000c46836001600160a01b03841662001110565b600062000c498262001128565b600062001051838362001110565b620010895750815460018181018455600084815260208082209093018490558454848252828601909352604090209190915562000c49565b50600062000c49565b600062000c46836001600160a01b0384166200112c565b81546000908210620010ed5760405162461bcd60e51b8152600401808060200182810382526022815260200180620038e86022913960400191505060405180910390fd5b826000018281548110620010fd57fe5b9060005260206000200154905092915050565b60009081526001919091016020526040902054151590565b5490565b60008181526001830160205260408120548015620011ed57835460001980830191908101906000908790839081106200116157fe5b90600052602060002001549050808760000184815481106200117f57fe5b600091825260208083209091019290925582815260018981019092526040902090840190558654879080620011b057fe5b6001900381819060005260206000200160009055905586600101600087815260200190815260200160002060009055600194505050505062000c49565b600091505062000c49565b6126e180620012078339019056fe60806040523480156200001157600080fd5b50604051620026e1380380620026e1833981810160405260408110156200003757600080fd5b81019080805160405193929190846401000000008211156200005857600080fd5b9083019060208201858111156200006e57600080fd5b82516401000000008111828201881017156200008957600080fd5b82525081516020918201929091019080838360005b83811015620000b85781810151838201526020016200009e565b50505050905090810190601f168015620000e65780820380516001836020036101000a031916815260200191505b50604052602001519150829050620001056301ffc9a760e01b6200015c565b6200011081620001e1565b62000122636cdb3d1360e11b6200015c565b620001346303a24d0760e21b6200015c565b50600480546001600160a01b0319166001600160a01b03929092169190911790555062000296565b6001600160e01b03198082161415620001bc576040805162461bcd60e51b815260206004820152601c60248201527f4552433136353a20696e76616c696420696e7465726661636520696400000000604482015290519081900360640190fd5b6001600160e01b0319166000908152602081905260409020805460ff19166001179055565b8051620001f6906003906020840190620001fa565b5050565b828054600181600116156101000203166002900490600052602060002090601f016020900481019282601f106200023d57805160ff19168380011785556200026d565b828001600101855582156200026d579182015b828111156200026d57825182559160200191906001019062000250565b506200027b9291506200027f565b5090565b5b808211156200027b576000815560010162000280565b61243b80620002a66000396000f3fe608060405234801561001057600080fd5b50600436106100de5760003560e01c80636b20c4541161008c578063a22cb46511610066578063a22cb465146108f3578063e985e9c514610921578063f242432a1461094f578063f5298aca14610a18576100de565b80636b20c454146106dc578063731133e91461080f5780639d35c161146108cf576100de565b80631f7fdffa116100bd5780631f7fdffa146101ee5780632eb2c2d6146103a85780634e1273f414610569576100de565b8062fdd58e146100e357806301ffc9a7146101215780630e89341c1461015c575b600080fd5b61010f600480360360408110156100f957600080fd5b506001600160a01b038135169060200135610a4a565b60408051918252519081900360200190f35b6101486004803603602081101561013757600080fd5b50356001600160e01b031916610ab9565b604080519115158252519081900360200190f35b6101796004803603602081101561017257600080fd5b5035610ad8565b6040805160208082528351818301528351919283929083019185019080838360005b838110156101b357818101518382015260200161019b565b50505050905090810190601f1680156101e05780820380516001836020036101000a031916815260200191505b509250505060405180910390f35b6103a66004803603608081101561020457600080fd5b6001600160a01b038235169190810190604081016020820135600160201b81111561022e57600080fd5b82018360208201111561024057600080fd5b803590602001918460208302840111600160201b8311171561026157600080fd5b9190808060200260200160405190810160405280939291908181526020018383602002808284376000920191909152509295949360208101935035915050600160201b8111156102b057600080fd5b8201836020820111156102c257600080fd5b803590602001918460208302840111600160201b831117156102e357600080fd5b9190808060200260200160405190810160405280939291908181526020018383602002808284376000920191909152509295949360208101935035915050600160201b81111561033257600080fd5b82018360208201111561034457600080fd5b803590602001918460018302840111600160201b8311171561036557600080fd5b91908080601f016020809104026020016040519081016040528093929190818152602001838380828437600092019190915250929550610b70945050505050565b005b6103a6600480360360a08110156103be57600080fd5b6001600160a01b038235811692602081013590911691810190606081016040820135600160201b8111156103f157600080fd5b82018360208201111561040357600080fd5b803590602001918460208302840111600160201b8311171561042457600080fd5b9190808060200260200160405190810160405280939291908181526020018383602002808284376000920191909152509295949360208101935035915050600160201b81111561047357600080fd5b82018360208201111561048557600080fd5b803590602001918460208302840111600160201b831117156104a657600080fd5b9190808060200260200160405190810160405280939291908181526020018383602002808284376000920191909152509295949360208101935035915050600160201b8111156104f557600080fd5b82018360208201111561050757600080fd5b803590602001918460018302840111600160201b8311171561052857600080fd5b91908080601f016020809104026020016040519081016040528093929190818152602001838380828437600092019190915250929550610bdb945050505050565b61068c6004803603604081101561057f57600080fd5b810190602081018135600160201b81111561059957600080fd5b8201836020820111156105ab57600080fd5b803590602001918460208302840111600160201b831117156105cc57600080fd5b9190808060200260200160405190810160405280939291908181526020018383602002808284376000920191909152509295949360208101935035915050600160201b81111561061b57600080fd5b82018360208201111561062d57600080fd5b803590602001918460208302840111600160201b8311171561064e57600080fd5b919080806020026020016040519081016040528093929190818152602001838360200280828437600092019190915250929550610ed9945050505050565b60408051602080825283518183015283519192839290830191858101910280838360005b838110156106c85781810151838201526020016106b0565b505050509050019250505060405180910390f35b6103a6600480360360608110156106f257600080fd5b6001600160a01b038235169190810190604081016020820135600160201b81111561071c57600080fd5b82018360208201111561072e57600080fd5b803590602001918460208302840111600160201b8311171561074f57600080fd5b9190808060200260200160405190810160405280939291908181526020018383602002808284376000920191909152509295949360208101935035915050600160201b81111561079e57600080fd5b8201836020820111156107b057600080fd5b803590602001918460208302840111600160201b831117156107d157600080fd5b919080806020026020016040519081016040528093929190818152602001838360200280828437600092019190915250929550611057945050505050565b6103a66004803603608081101561082557600080fd5b6001600160a01b038235169160208101359160408201359190810190608081016060820135600160201b81111561085b57600080fd5b82018360208201111561086d57600080fd5b803590602001918460018302840111600160201b8311171561088e57600080fd5b91908080601f0160208091040260200160405190810160405280939291908181526020018383808284376000920191909152509295506110d0945050505050565b6108d7611135565b604080516001600160a01b039092168252519081900360200190f35b6103a66004803603604081101561090957600080fd5b506001600160a01b0381351690602001351515611144565b6101486004803603604081101561093757600080fd5b506001600160a01b0381358116916020013516611233565b6103a6600480360360a081101561096557600080fd5b6001600160a01b03823581169260208101359091169160408201359160608101359181019060a081016080820135600160201b8111156109a457600080fd5b8201836020820111156109b657600080fd5b803590602001918460018302840111600160201b831117156109d757600080fd5b91908080601f016020809104026020016040519081016040528093929190818152602001838380828437600092019190915250929550611261945050505050565b6103a660048036036060811015610a2e57600080fd5b506001600160a01b03813516906020810135906040013561142c565b60006001600160a01b038316610a915760405162461bcd60e51b815260040180806020018281038252602b8152602001806121e4602b913960400191505060405180910390fd5b5060009081526001602090815260408083206001600160a01b03949094168352929052205490565b6001600160e01b03191660009081526020819052604090205460ff1690565b60038054604080516020601f6002600019610100600188161502019095169490940493840181900481028201810190925282815260609390929091830182828015610b645780601f10610b3957610100808354040283529160200191610b64565b820191906000526020600020905b815481529060010190602001808311610b4757829003601f168201915b50505050509050919050565b6004546001600160a01b0316610b846114a0565b6001600160a01b031614610bc95760405162461bcd60e51b815260040180806020018281038252603a81526020018061228d603a913960400191505060405180910390fd5b610bd5848484846114a5565b50505050565b8151835114610c1b5760405162461bcd60e51b81526004018080602001828103825260288152602001806123bd6028913960400191505060405180910390fd5b6001600160a01b038416610c605760405162461bcd60e51b81526004018080602001828103825260258152602001806122c76025913960400191505060405180910390fd5b610c686114a0565b6001600160a01b0316856001600160a01b03161480610c935750610c9385610c8e6114a0565b611233565b610cce5760405162461bcd60e51b81526004018080602001828103825260328152602001806122ec6032913960400191505060405180910390fd5b6000610cd86114a0565b9050610ce88187878787876116fa565b60005b8451811015610de9576000858281518110610d0257fe5b602002602001015190506000858381518110610d1a57fe5b60200260200101519050610d87816040518060600160405280602a8152602001612341602a91396001600086815260200190815260200160002060008d6001600160a01b03166001600160a01b03168152602001908152602001600020546117089092919063ffffffff16565b60008381526001602090815260408083206001600160a01b038e811685529252808320939093558a1681522054610dbe908261179f565b60009283526001602081815260408086206001600160a01b038d168752909152909320555001610ceb565b50846001600160a01b0316866001600160a01b0316826001600160a01b03167f4a39dc06d4c0dbc64b70af90fd698a233a518aa5d07e595d983b8c0526c8f7fb8787604051808060200180602001838103835285818151815260200191508051906020019060200280838360005b83811015610e6f578181015183820152602001610e57565b50505050905001838103825284818151815260200191508051906020019060200280838360005b83811015610eae578181015183820152602001610e96565b5050505090500194505050505060405180910390a4610ed1818787878787611800565b505050505050565b60608151835114610f1b5760405162461bcd60e51b81526004018080602001828103825260298152602001806123946029913960400191505060405180910390fd5b6060835167ffffffffffffffff81118015610f3557600080fd5b50604051908082528060200260200182016040528015610f5f578160200160208202803683370190505b50905060005b845181101561104f5760006001600160a01b0316858281518110610f8557fe5b60200260200101516001600160a01b03161415610fd35760405162461bcd60e51b815260040180806020018281038252603181526020018061220f6031913960400191505060405180910390fd5b60016000858381518110610fe357fe5b60200260200101518152602001908152602001600020600086838151811061100757fe5b60200260200101516001600160a01b03166001600160a01b031681526020019081526020016000205482828151811061103c57fe5b6020908102919091010152600101610f65565b509392505050565b61105f6114a0565b6001600160a01b0316836001600160a01b03161480611085575061108583610c8e6114a0565b6110c05760405162461bcd60e51b81526004018080602001828103825260298152602001806122646029913960400191505060405180910390fd5b6110cb838383611a7f565b505050565b6004546001600160a01b03166110e46114a0565b6001600160a01b0316146111295760405162461bcd60e51b815260040180806020018281038252603a81526020018061228d603a913960400191505060405180910390fd5b610bd584848484611ced565b6004546001600160a01b031681565b816001600160a01b03166111566114a0565b6001600160a01b0316141561119c5760405162461bcd60e51b815260040180806020018281038252602981526020018061236b6029913960400191505060405180910390fd5b80600260006111a96114a0565b6001600160a01b03908116825260208083019390935260409182016000908120918716808252919093529120805460ff1916921515929092179091556111ed6114a0565b6001600160a01b03167f17307eab39ab6107e8899845ad3d59bd9653f200f220920489ca2b5937696c318360405180821515815260200191505060405180910390a35050565b6001600160a01b03918216600090815260026020908152604080832093909416825291909152205460ff1690565b6001600160a01b0384166112a65760405162461bcd60e51b81526004018080602001828103825260258152602001806122c76025913960400191505060405180910390fd5b6112ae6114a0565b6001600160a01b0316856001600160a01b031614806112d457506112d485610c8e6114a0565b61130f5760405162461bcd60e51b81526004018080602001828103825260298152602001806122646029913960400191505060405180910390fd5b60006113196114a0565b905061133981878761132a88611dee565b61133388611dee565b876116fa565b611380836040518060600160405280602a8152602001612341602a913960008781526001602090815260408083206001600160a01b038d1684529091529020549190611708565b60008581526001602090815260408083206001600160a01b038b811685529252808320939093558716815220546113b7908461179f565b60008581526001602090815260408083206001600160a01b03808b168086529184529382902094909455805188815291820187905280518a8416938616927fc3d58168c5ae7397731d063d5bbf3d657854427343f4c083240f7aacaa2d0f6292908290030190a4610ed1818787878787611e32565b6114346114a0565b6001600160a01b0316836001600160a01b0316148061145a575061145a83610c8e6114a0565b6114955760405162461bcd60e51b81526004018080602001828103825260298152602001806122646029913960400191505060405180910390fd5b6110cb838383611fa3565b335b90565b6001600160a01b0384166114ea5760405162461bcd60e51b81526004018080602001828103825260218152602001806123e56021913960400191505060405180910390fd5b815183511461152a5760405162461bcd60e51b81526004018080602001828103825260288152602001806123bd6028913960400191505060405180910390fd5b60006115346114a0565b9050611545816000878787876116fa565b60005b8451811015611609576115c06001600087848151811061156457fe5b602002602001015181526020019081526020016000206000886001600160a01b03166001600160a01b03168152602001908152602001600020548583815181106115aa57fe5b602002602001015161179f90919063ffffffff16565b600160008784815181106115d057fe5b602090810291909101810151825281810192909252604090810160009081206001600160a01b038b168252909252902055600101611548565b50846001600160a01b031660006001600160a01b0316826001600160a01b03167f4a39dc06d4c0dbc64b70af90fd698a233a518aa5d07e595d983b8c0526c8f7fb8787604051808060200180602001838103835285818151815260200191508051906020019060200280838360005b83811015611690578181015183820152602001611678565b50505050905001838103825284818151815260200191508051906020019060200280838360005b838110156116cf5781810151838201526020016116b7565b5050505090500194505050505060405180910390a46116f381600087878787611800565b5050505050565b610ed1868686868686610ed1565b600081848411156117975760405162461bcd60e51b81526004018080602001828103825283818151815260200191508051906020019080838360005b8381101561175c578181015183820152602001611744565b50505050905090810190601f1680156117895780820380516001836020036101000a031916815260200191505b509250505060405180910390fd5b505050900390565b6000828201838110156117f9576040805162461bcd60e51b815260206004820152601b60248201527f536166654d6174683a206164646974696f6e206f766572666c6f770000000000604482015290519081900360640190fd5b9392505050565b611812846001600160a01b03166120d6565b15610ed157836001600160a01b031663bc197c8187878686866040518663ffffffff1660e01b815260040180866001600160a01b03168152602001856001600160a01b03168152602001806020018060200180602001848103845287818151815260200191508051906020019060200280838360005b838110156118a0578181015183820152602001611888565b50505050905001848103835286818151815260200191508051906020019060200280838360005b838110156118df5781810151838201526020016118c7565b50505050905001848103825285818151815260200191508051906020019080838360005b8381101561191b578181015183820152602001611903565b50505050905090810190601f1680156119485780820380516001836020036101000a031916815260200191505b5098505050505050505050602060405180830381600087803b15801561196d57600080fd5b505af192505050801561199257506040513d602081101561198d57600080fd5b505160015b611a275761199e6120e2565b806119a957506119f0565b60405162461bcd60e51b815260206004820181815283516024840152835184939192839260440191908501908083836000831561175c578181015183820152602001611744565b60405162461bcd60e51b81526004018080602001828103825260348152602001806121886034913960400191505060405180910390fd5b6001600160e01b0319811663bc197c8160e01b14611a765760405162461bcd60e51b81526004018080602001828103825260288152602001806121bc6028913960400191505060405180910390fd5b50505050505050565b6001600160a01b038316611ac45760405162461bcd60e51b815260040180806020018281038252602381526020018061231e6023913960400191505060405180910390fd5b8051825114611b045760405162461bcd60e51b81526004018080602001828103825260288152602001806123bd6028913960400191505060405180910390fd5b6000611b0e6114a0565b9050611b2e818560008686604051806020016040528060008152506116fa565b60005b8351811015611c0c57611bc3838281518110611b4957fe5b60200260200101516040518060600160405280602481526020016122406024913960016000888681518110611b7a57fe5b602002602001015181526020019081526020016000206000896001600160a01b03166001600160a01b03168152602001908152602001600020546117089092919063ffffffff16565b60016000868481518110611bd357fe5b602090810291909101810151825281810192909252604090810160009081206001600160a01b038a168252909252902055600101611b31565b5060006001600160a01b0316846001600160a01b0316826001600160a01b03167f4a39dc06d4c0dbc64b70af90fd698a233a518aa5d07e595d983b8c0526c8f7fb8686604051808060200180602001838103835285818151815260200191508051906020019060200280838360005b83811015611c93578181015183820152602001611c7b565b50505050905001838103825284818151815260200191508051906020019060200280838360005b83811015611cd2578181015183820152602001611cba565b5050505090500194505050505060405180910390a450505050565b6001600160a01b038416611d325760405162461bcd60e51b81526004018080602001828103825260218152602001806123e56021913960400191505060405180910390fd5b6000611d3c6114a0565b9050611d4e8160008761132a88611dee565b60008481526001602090815260408083206001600160a01b0389168452909152902054611d7b908461179f565b60008581526001602090815260408083206001600160a01b03808b16808652918452828520959095558151898152928301889052815190948616927fc3d58168c5ae7397731d063d5bbf3d657854427343f4c083240f7aacaa2d0f6292908290030190a46116f381600087878787611e32565b604080516001808252818301909252606091829190602080830190803683370190505090508281600081518110611e2157fe5b602090810291909101015292915050565b611e44846001600160a01b03166120d6565b15610ed157836001600160a01b031663f23a6e6187878686866040518663ffffffff1660e01b815260040180866001600160a01b03168152602001856001600160a01b0316815260200184815260200183815260200180602001828103825283818151815260200191508051906020019080838360005b83811015611ed3578181015183820152602001611ebb565b50505050905090810190601f168015611f005780820380516001836020036101000a031916815260200191505b509650505050505050602060405180830381600087803b158015611f2357600080fd5b505af1925050508015611f4857506040513d6020811015611f4357600080fd5b505160015b611f545761199e6120e2565b6001600160e01b0319811663f23a6e6160e01b14611a765760405162461bcd60e51b81526004018080602001828103825260288152602001806121bc6028913960400191505060405180910390fd5b6001600160a01b038316611fe85760405162461bcd60e51b815260040180806020018281038252602381526020018061231e6023913960400191505060405180910390fd5b6000611ff26114a0565b90506120228185600061200487611dee565b61200d87611dee565b604051806020016040528060008152506116fa565b612069826040518060600160405280602481526020016122406024913960008681526001602090815260408083206001600160a01b038b1684529091529020549190611708565b60008481526001602090815260408083206001600160a01b03808a16808652918452828520959095558151888152928301879052815193949093908616927fc3d58168c5ae7397731d063d5bbf3d657854427343f4c083240f7aacaa2d0f6292908290030190a450505050565b3b151590565b60e01c90565b600060443d10156120f2576114a2565b600481823e6308c379a061210682516120dc565b14612110576114a2565b6040513d600319016004823e80513d67ffffffffffffffff816024840111818411171561214057505050506114a2565b8284019250825191508082111561215a57505050506114a2565b503d83016020828401011115612172575050506114a2565b601f01601f191681016020016040529150509056fe455243313135353a207472616e7366657220746f206e6f6e2045524331313535526563656976657220696d706c656d656e746572455243313135353a204552433131353552656365697665722072656a656374656420746f6b656e73455243313135353a2062616c616e636520717565727920666f7220746865207a65726f2061646472657373455243313135353a2062617463682062616c616e636520717565727920666f7220746865207a65726f2061646472657373455243313135353a206275726e20616d6f756e7420657863656564732062616c616e6365455243313135353a2063616c6c6572206973206e6f74206f776e6572206e6f7220617070726f7665645052495649506f6445524331313535546f6b656e3a204f6e6c7920466163746f72792063616e2063616c6c20746869732066756e6374696f6e2e455243313135353a207472616e7366657220746f20746865207a65726f2061646472657373455243313135353a207472616e736665722063616c6c6572206973206e6f74206f776e6572206e6f7220617070726f766564455243313135353a206275726e2066726f6d20746865207a65726f2061646472657373455243313135353a20696e73756666696369656e742062616c616e636520666f72207472616e73666572455243313135353a2073657474696e6720617070726f76616c2073746174757320666f722073656c66455243313135353a206163636f756e747320616e6420696473206c656e677468206d69736d61746368455243313135353a2069647320616e6420616d6f756e7473206c656e677468206d69736d61746368455243313135353a206d696e7420746f20746865207a65726f2061646472657373a2646970667358221220ba2ce7b1d0d5c2f185c40602c80685c0b4072aac98000a1585c4739a794068e664736f6c634300060c0033456e756d657261626c655365743a20696e646578206f7574206f6620626f756e6473416363657373436f6e74726f6c3a2073656e646572206d75737420626520616e2061646d696e20746f206772616e745052495649506f6445524331313535466163746f72793a206d7573742068617665204d4f44455241544f525f524f4c4520746f20696e7665737420666f7220696e766573746f722e416363657373436f6e74726f6c3a2073656e646572206d75737420626520616e2061646d696e20746f207265766f6b655052495649506f6445524331313535466163746f72793a204163636f756e7420616464726573732073686f756c64206e6f74206265207a65726f2e5052495649506f6445524331313535466163746f72793a206d7573742068617665204d4f44455241544f525f524f4c4520746f2063726561746520706f642e5052495649506f6445524331313535466163746f72793a20506f6420616c7265616479206578697374732e5052495649506f6445524331313535466163746f72793a20616d6f756e742073686f756c64206e6f74206265207a65726f2e416363657373436f6e74726f6c3a2063616e206f6e6c792072656e6f756e636520726f6c657320666f722073656c66a26469706673582212206a5a6d7aaaeddb2ef9727fab0338e61feb1405904128693cd5dd3a5e956098b964736f6c634300060c0033",
  "immutableReferences": {},
  "source": "// SPDX-License-Identifier: MIT\n\npragma solidity ^0.6.12;\n\nimport \"@openzeppelin/contracts/access/AccessControl.sol\";\nimport \"@openzeppelin/contracts/math/SafeMath.sol\";\nimport \"./token/PRIVIPodERC1155Token.sol\";\n\ncontract PRIVIPodERC1155Factory is AccessControl {\n    using SafeMath for uint256;\n    \n    bytes32 public constant MODERATOR_ROLE = keccak256(\"MODERATOR_ROLE\");\n    \n    uint256 public totalPodCreated;\n    mapping (string => address) public podTokenAddresses;\n\n    event PodCreated(string indexed podId, string uri);\n    \n    /**\n     * @dev Grants `DEFAULT_ADMIN_ROLE` and `MODERATOR_ROLE` to the\n     * account that deploys the contract.\n     *\n     */\n    constructor() public {\n        _setupRole(DEFAULT_ADMIN_ROLE, _msgSender());\n        _setupRole(MODERATOR_ROLE, _msgSender());\n    }\n    \n    /**\n     *@dev caller create a new pod.\n     *\n     * Requirements:\n     *\n     * - the caller must MODERATOR_ROLE to perform this action.\n     * - pod should not exist before.\n     */\n    function createPod(string calldata podId, string calldata uri) public returns (address podAddress){\n        require(hasRole(MODERATOR_ROLE, _msgSender()), \"PRIVIPodERC1155Factory: must have MODERATOR_ROLE to create pod.\");\n        require(podTokenAddresses[podId] == address(0), \"PRIVIPodERC1155Factory: Pod already exists.\");\n        PRIVIPodERC1155Token podToken = new PRIVIPodERC1155Token(uri, address(this));\n        podAddress = address(podToken);\n        totalPodCreated.add(1);\n        podTokenAddresses[podId] = podAddress;\n        emit PodCreated(podId, uri);\n    }\n    \n    /**\n     * @dev Moderator will mint the amount of pod token for the investor's account\n     *\n     * Requirements:\n     *\n     * - the caller must MODERATOR_ROLE to perform this action.\n     */\n    function podMint(string calldata podId, address account, uint256 tokenId,  uint256 amount, bytes calldata data) public {\n        require(hasRole(MODERATOR_ROLE, _msgSender()), \"PRIVIPodERC1155Factory: must have MODERATOR_ROLE to invest for investor.\");\n        require(account != address(0), \"PRIVIPodERC1155Factory: Account address should not be zero.\");\n        require(amount > 0, \"PRIVIPodERC1155Factory: amount should not be zero.\");\n        PRIVIPodERC1155Token(podTokenAddresses[podId]).mint(account, tokenId, amount, data);\n    }\n\n    function podMintBatch(string calldata podId, address account, uint256[] memory  tokenIds,  uint256[] memory  amounts, bytes calldata data) public {\n        require(hasRole(MODERATOR_ROLE, _msgSender()), \"PRIVIPodERC1155Factory: must have MODERATOR_ROLE to invest for investor.\");\n        require(account != address(0), \"PRIVIPodERC1155Factory: Account address should not be zero.\");\n        PRIVIPodERC1155Token(podTokenAddresses[podId]).mintBatch(account, tokenIds, amounts, data);\n    }\n    \n}",
  "sourcePath": "/home/rekard0/Documents/WORK/PriviEthereum/PRIVIethereum/contracts/PRIVIPodERC1155Factory.sol",
  "compiler": {
    "name": "solc",
    "version": "0.6.12+commit.27d51765.Emscripten.clang"
  },
  "schemaVersion": "3.3.3",
  "updatedAt": "2021-01-19T13:25:25.151Z",
  "devdoc": {
    "kind": "dev",
    "methods": {
      "constructor": {
        "details": "Grants `DEFAULT_ADMIN_ROLE` and `MODERATOR_ROLE` to the account that deploys the contract."
      },
      "createPod(string,string)": {
        "details": "caller create a new pod. Requirements: - the caller must MODERATOR_ROLE to perform this action. - pod should not exist before."
      },
      "getRoleAdmin(bytes32)": {
        "details": "Returns the admin role that controls `role`. See {grantRole} and {revokeRole}. To change a role's admin, use {_setRoleAdmin}."
      },
      "getRoleMember(bytes32,uint256)": {
        "details": "Returns one of the accounts that have `role`. `index` must be a value between 0 and {getRoleMemberCount}, non-inclusive. Role bearers are not sorted in any particular way, and their ordering may change at any point. WARNING: When using {getRoleMember} and {getRoleMemberCount}, make sure you perform all queries on the same block. See the following https://forum.openzeppelin.com/t/iterating-over-elements-on-enumerableset-in-openzeppelin-contracts/2296[forum post] for more information."
      },
      "getRoleMemberCount(bytes32)": {
        "details": "Returns the number of accounts that have `role`. Can be used together with {getRoleMember} to enumerate all bearers of a role."
      },
      "grantRole(bytes32,address)": {
        "details": "Grants `role` to `account`. If `account` had not been already granted `role`, emits a {RoleGranted} event. Requirements: - the caller must have ``role``'s admin role."
      },
      "hasRole(bytes32,address)": {
        "details": "Returns `true` if `account` has been granted `role`."
      },
      "podMint(string,address,uint256,uint256,bytes)": {
        "details": "Moderator will mint the amount of pod token for the investor's account Requirements: - the caller must MODERATOR_ROLE to perform this action."
      },
      "renounceRole(bytes32,address)": {
        "details": "Revokes `role` from the calling account. Roles are often managed via {grantRole} and {revokeRole}: this function's purpose is to provide a mechanism for accounts to lose their privileges if they are compromised (such as when a trusted device is misplaced). If the calling account had been granted `role`, emits a {RoleRevoked} event. Requirements: - the caller must be `account`."
      },
      "revokeRole(bytes32,address)": {
        "details": "Revokes `role` from `account`. If `account` had been granted `role`, emits a {RoleRevoked} event. Requirements: - the caller must have ``role``'s admin role."
      }
    },
    "version": 1
  },
  "userdoc": {
    "kind": "user",
    "methods": {},
    "version": 1
  }
}