{
  "contractName": "PRIVIPodERC721RoyaltyFactory",
  "abi": [
    {
      "inputs": [
        {
          "internalType": "address",
          "name": "bridgeAddress",
          "type": "address"
        }
      ],
      "stateMutability": "nonpayable",
      "type": "constructor"
    },
    {
      "anonymous": false,
      "inputs": [
        {
          "indexed": true,
          "internalType": "string",
          "name": "podId",
          "type": "string"
        },
        {
          "indexed": false,
          "internalType": "string",
          "name": "podTokenName",
          "type": "string"
        },
        {
          "indexed": false,
          "internalType": "string",
          "name": "podTokenSymbol",
          "type": "string"
        }
      ],
      "name": "PodCreated",
      "type": "event"
    },
    {
      "anonymous": false,
      "inputs": [
        {
          "indexed": true,
          "internalType": "bytes32",
          "name": "role",
          "type": "bytes32"
        },
        {
          "indexed": true,
          "internalType": "bytes32",
          "name": "previousAdminRole",
          "type": "bytes32"
        },
        {
          "indexed": true,
          "internalType": "bytes32",
          "name": "newAdminRole",
          "type": "bytes32"
        }
      ],
      "name": "RoleAdminChanged",
      "type": "event"
    },
    {
      "anonymous": false,
      "inputs": [
        {
          "indexed": true,
          "internalType": "bytes32",
          "name": "role",
          "type": "bytes32"
        },
        {
          "indexed": true,
          "internalType": "address",
          "name": "account",
          "type": "address"
        },
        {
          "indexed": true,
          "internalType": "address",
          "name": "sender",
          "type": "address"
        }
      ],
      "name": "RoleGranted",
      "type": "event"
    },
    {
      "anonymous": false,
      "inputs": [
        {
          "indexed": true,
          "internalType": "bytes32",
          "name": "role",
          "type": "bytes32"
        },
        {
          "indexed": true,
          "internalType": "address",
          "name": "account",
          "type": "address"
        },
        {
          "indexed": true,
          "internalType": "address",
          "name": "sender",
          "type": "address"
        }
      ],
      "name": "RoleRevoked",
      "type": "event"
    },
    {
      "inputs": [],
      "name": "DEFAULT_ADMIN_ROLE",
      "outputs": [
        {
          "internalType": "bytes32",
          "name": "",
          "type": "bytes32"
        }
      ],
      "stateMutability": "view",
      "type": "function"
    },
    {
      "inputs": [],
      "name": "MODERATOR_ROLE",
      "outputs": [
        {
          "internalType": "bytes32",
          "name": "",
          "type": "bytes32"
        }
      ],
      "stateMutability": "view",
      "type": "function"
    },
    {
      "inputs": [],
      "name": "bridgeManagerAddress",
      "outputs": [
        {
          "internalType": "address",
          "name": "",
          "type": "address"
        }
      ],
      "stateMutability": "view",
      "type": "function"
    },
    {
      "inputs": [
        {
          "internalType": "bytes32",
          "name": "role",
          "type": "bytes32"
        }
      ],
      "name": "getRoleAdmin",
      "outputs": [
        {
          "internalType": "bytes32",
          "name": "",
          "type": "bytes32"
        }
      ],
      "stateMutability": "view",
      "type": "function"
    },
    {
      "inputs": [
        {
          "internalType": "bytes32",
          "name": "role",
          "type": "bytes32"
        },
        {
          "internalType": "uint256",
          "name": "index",
          "type": "uint256"
        }
      ],
      "name": "getRoleMember",
      "outputs": [
        {
          "internalType": "address",
          "name": "",
          "type": "address"
        }
      ],
      "stateMutability": "view",
      "type": "function"
    },
    {
      "inputs": [
        {
          "internalType": "bytes32",
          "name": "role",
          "type": "bytes32"
        }
      ],
      "name": "getRoleMemberCount",
      "outputs": [
        {
          "internalType": "uint256",
          "name": "",
          "type": "uint256"
        }
      ],
      "stateMutability": "view",
      "type": "function"
    },
    {
      "inputs": [
        {
          "internalType": "bytes32",
          "name": "role",
          "type": "bytes32"
        },
        {
          "internalType": "address",
          "name": "account",
          "type": "address"
        }
      ],
      "name": "grantRole",
      "outputs": [],
      "stateMutability": "nonpayable",
      "type": "function"
    },
    {
      "inputs": [
        {
          "internalType": "bytes32",
          "name": "role",
          "type": "bytes32"
        },
        {
          "internalType": "address",
          "name": "account",
          "type": "address"
        }
      ],
      "name": "hasRole",
      "outputs": [
        {
          "internalType": "bool",
          "name": "",
          "type": "bool"
        }
      ],
      "stateMutability": "view",
      "type": "function"
    },
    {
      "inputs": [
        {
          "internalType": "bytes32",
          "name": "role",
          "type": "bytes32"
        },
        {
          "internalType": "address",
          "name": "account",
          "type": "address"
        }
      ],
      "name": "renounceRole",
      "outputs": [],
      "stateMutability": "nonpayable",
      "type": "function"
    },
    {
      "inputs": [
        {
          "internalType": "bytes32",
          "name": "role",
          "type": "bytes32"
        },
        {
          "internalType": "address",
          "name": "account",
          "type": "address"
        }
      ],
      "name": "revokeRole",
      "outputs": [],
      "stateMutability": "nonpayable",
      "type": "function"
    },
    {
      "inputs": [],
      "name": "getTotalTokenCreated",
      "outputs": [
        {
          "internalType": "uint256",
          "name": "totalPods",
          "type": "uint256"
        }
      ],
      "stateMutability": "view",
      "type": "function"
    },
    {
      "inputs": [
        {
          "internalType": "string",
          "name": "podId",
          "type": "string"
        }
      ],
      "name": "getPodAddressById",
      "outputs": [
        {
          "internalType": "address",
          "name": "podAddress",
          "type": "address"
        }
      ],
      "stateMutability": "view",
      "type": "function"
    },
    {
      "inputs": [
        {
          "internalType": "string",
          "name": "tokenSymbol",
          "type": "string"
        }
      ],
      "name": "getPodAddressBySymbol",
      "outputs": [
        {
          "internalType": "address",
          "name": "podAddress",
          "type": "address"
        }
      ],
      "stateMutability": "view",
      "type": "function"
    },
    {
      "inputs": [
        {
          "internalType": "string",
          "name": "podId",
          "type": "string"
        },
        {
          "internalType": "string",
          "name": "podTokenName",
          "type": "string"
        },
        {
          "internalType": "string",
          "name": "podTokenSymbol",
          "type": "string"
        },
        {
          "internalType": "string",
          "name": "baseURI",
          "type": "string"
        },
        {
          "internalType": "uint256",
          "name": "royaltyAmount",
          "type": "uint256"
        },
        {
          "internalType": "address",
          "name": "creator",
          "type": "address"
        }
      ],
      "name": "createPod",
      "outputs": [
        {
          "internalType": "address",
          "name": "podAddress",
          "type": "address"
        }
      ],
      "stateMutability": "nonpayable",
      "type": "function"
    },
    {
      "inputs": [
        {
          "internalType": "string",
          "name": "podId",
          "type": "string"
        },
        {
          "internalType": "address",
          "name": "account",
          "type": "address"
        }
      ],
      "name": "mintPodTokenById",
      "outputs": [],
      "stateMutability": "nonpayable",
      "type": "function"
    },
    {
      "inputs": [
        {
          "internalType": "string",
          "name": "tokenSymbol",
          "type": "string"
        },
        {
          "internalType": "address",
          "name": "account",
          "type": "address"
        }
      ],
      "name": "mintPodTokenBySymbol",
      "outputs": [],
      "stateMutability": "nonpayable",
      "type": "function"
    }
  ],
  "bytecode": "0x60806040523480156200001157600080fd5b5060405162003d0538038062003d05833981810160405260208110156200003757600080fd5b50516200004f600062000049620000a4565b620000a8565b6200007e7f71f3d55856e4058ed06ee057d79ada615f65cdf5f9ee88181b914225088f834f62000049620000a4565b600180546001600160a01b0319166001600160a01b0392909216919091179055620001b8565b3390565b620000b48282620000b8565b5050565b600082815260208181526040909120620000dd91839062000ec262000131821b17901c565b15620000b457620000ed620000a4565b6001600160a01b0316816001600160a01b0316837f2f8788117e7eff1d82e926ec794901d17c78024a50270940304540a733656f0d60405160405180910390a45050565b600062000148836001600160a01b03841662000151565b90505b92915050565b60006200015f8383620001a0565b62000197575081546001818101845560008481526020808220909301849055845484825282860190935260409020919091556200014b565b5060006200014b565b60009081526001919091016020526040902054151590565b613b3d80620001c86000396000f3fe60806040523480156200001157600080fd5b5060043610620001185760003560e01c8063797669c911620000a5578063ca15c873116200006f578063ca15c8731462000434578063d547741f1462000454578063e792b1941462000483578063e80cae26146200048d5762000118565b8063797669c914620003b75780639010d07c14620003c157806391d1485414620003e7578063a217fddf146200042a5762000118565b80632f2ff15d11620000e75780632f2ff15d14620002685780633325a4e4146200029757806336568abe146200030b57806358d4891f146200033a5762000118565b80630d9c1812146200011d5780630fc09e2e146200019c57806322b2edeb14620001b8578063248a9ca31462000248575b600080fd5b6200019a600480360360408110156200013557600080fd5b810190602081018135600160201b8111156200015057600080fd5b8201836020820111156200016357600080fd5b803590602001918460018302840111600160201b831117156200018557600080fd5b9193509150356001600160a01b031662000609565b005b620001a66200074c565b60408051918252519081900360200190f35b6200022c60048036036020811015620001d057600080fd5b810190602081018135600160201b811115620001eb57600080fd5b820183602082011115620001fe57600080fd5b803590602001918460018302840111600160201b831117156200022057600080fd5b50909250905062000752565b604080516001600160a01b039092168252519081900360200190f35b620001a6600480360360208110156200026057600080fd5b50356200078b565b6200019a600480360360408110156200028057600080fd5b50803590602001356001600160a01b0316620007a0565b6200022c60048036036020811015620002af57600080fd5b810190602081018135600160201b811115620002ca57600080fd5b820183602082011115620002dd57600080fd5b803590602001918460018302840111600160201b83111715620002ff57600080fd5b5090925090506200080e565b6200019a600480360360408110156200032357600080fd5b50803590602001356001600160a01b031662000847565b6200019a600480360360408110156200035257600080fd5b810190602081018135600160201b8111156200036d57600080fd5b8201836020820111156200038057600080fd5b803590602001918460018302840111600160201b83111715620003a257600080fd5b9193509150356001600160a01b0316620008ae565b620001a6620009cd565b6200022c60048036036040811015620003d957600080fd5b5080359060200135620009f1565b6200041660048036036040811015620003ff57600080fd5b50803590602001356001600160a01b031662000a14565b604080519115158252519081900360200190f35b620001a662000a2e565b620001a6600480360360208110156200044c57600080fd5b503562000a33565b6200019a600480360360408110156200046c57600080fd5b50803590602001356001600160a01b031662000a4c565b6200022c62000aaa565b6200022c600480360360c0811015620004a557600080fd5b810190602081018135600160201b811115620004c057600080fd5b820183602082011115620004d357600080fd5b803590602001918460018302840111600160201b83111715620004f557600080fd5b919390929091602081019035600160201b8111156200051357600080fd5b8201836020820111156200052657600080fd5b803590602001918460018302840111600160201b831117156200054857600080fd5b919390929091602081019035600160201b8111156200056657600080fd5b8201836020820111156200057957600080fd5b803590602001918460018302840111600160201b831117156200059b57600080fd5b919390929091602081019035600160201b811115620005b957600080fd5b820183602082011115620005cc57600080fd5b803590602001918460018302840111600160201b83111715620005ee57600080fd5b9193509150803590602001356001600160a01b031662000ab9565b6200063e7f71f3d55856e4058ed06ee057d79ada615f65cdf5f9ee88181b914225088f834f6200063862000ed9565b62000a14565b6200067b5760405162461bcd60e51b815260040180806020018281038252604c81526020018062003a1c604c913960600191505060405180910390fd5b6001600160a01b038116620006c25760405162461bcd60e51b815260040180806020018281038252603f81526020018062003a68603f913960400191505060405180910390fd5b600483836040518083838082843791909101948552505060408051938490036020018420546335313c2160e11b85526001600160a01b0386811660048701529151911693636a6278429350602480820193506000929182900301818387803b1580156200072e57600080fd5b505af115801562000743573d6000803e3d6000fd5b50505050505050565b60025490565b6000600383836040518083838082843791909101948552505060405192839003602001909220546001600160a01b031695945050505050565b60009081526020819052604090206002015490565b600082815260208190526040902060020154620007c1906200063862000ed9565b620007fe5760405162461bcd60e51b815260040180806020018281038252602f81526020018062003987602f913960400191505060405180910390fd5b6200080a828262000edd565b5050565b6000600483836040518083838082843791909101948552505060405192839003602001909220546001600160a01b031695945050505050565b6200085162000ed9565b6001600160a01b0316816001600160a01b031614620008a25760405162461bcd60e51b815260040180806020018281038252602f81526020018062003ad9602f913960400191505060405180910390fd5b6200080a828262000f4b565b620008dd7f71f3d55856e4058ed06ee057d79ada615f65cdf5f9ee88181b914225088f834f6200063862000ed9565b6200091a5760405162461bcd60e51b815260040180806020018281038252604c81526020018062003a1c604c913960600191505060405180910390fd5b6001600160a01b038116620009615760405162461bcd60e51b815260040180806020018281038252603f81526020018062003a68603f913960400191505060405180910390fd5b600383836040518083838082843791909101948552505060408051938490036020018420546335313c2160e11b85526001600160a01b0386811660048701529151911693636a6278429350602480820193506000929182900301818387803b1580156200072e57600080fd5b7f71f3d55856e4058ed06ee057d79ada615f65cdf5f9ee88181b914225088f834f81565b600082815260208190526040812062000a0b908362000fb9565b90505b92915050565b600082815260208190526040812062000a0b908362000fc7565b600081565b600081815260208190526040812062000a0e9062000fde565b60008281526020819052604090206002015462000a6d906200063862000ed9565b620008a25760405162461bcd60e51b8152600401808060200182810382526030815260200180620039b66030913960400191505060405180910390fd5b6001546001600160a01b031681565b6000806001600160a01b031660038c8c6040518083838082843791909101948552505060405192839003602001909220546001600160a01b031692909214915062000b3890505760405162461bcd60e51b815260040180806020018281038252603281526020018062003aa76032913960400191505060405180910390fd5b60006001600160a01b0316600488886040518083838082843791909101948552505060405192839003602001909220546001600160a01b031692909214915062000bb690505760405162461bcd60e51b8152600401808060200182810382526036815260200180620039e66036913960400191505060405180910390fd5b6000898989898989308a8a60405162000bcf90620011fb565b6001600160a01b03808516606083015260808201849052821660a082015260c0808252810189905280602081016040820160e083018d8d80828437600083820152601f01601f191690910185810384528b815260200190508b8b80828437600083820152601f01601f1916909101858103835289815260200190508989808284376000838201819052604051601f909201601f19169093018190039f509d50909b505050505050505050505050f08015801562000c90573d6000803e3d6000fd5b5060025490925082915062000ca790600162000feb565b508160038d8d6040518083838082843791909101948552505060405192839003602001832080546001600160a01b039590951673ffffffffffffffffffffffffffffffffffffffff1990951694909417909355508391506004908a908a908083838082843791909101948552505060405192839003602001832080546001600160a01b0395861673ffffffffffffffffffffffffffffffffffffffff19909116179055505060015463c082713b60e01b82528483166044830152606060048301908152606483018d905292169163c082713b918d918d918d918d9189919081906024810190608401888880828437600083820152601f01601f191690910184810383528681526020019050868680828437600081840152601f19601f820116905080830192505050975050505050505050600060405180830381600087803b15801562000df357600080fd5b505af115801562000e08573d6000803e3d6000fd5b505050508b8b60405180838380828437604080519390910183900383208184529083018f905294507fc0512f6474c9ee949f1cbdc88e43ca774f79b5f1f07d8484696e1cf1a0bd87ce93508e92508d918d91508c90806020810160608201878780828437600083820152601f01601f191690910184810383528581526020019050858580828437600083820152604051601f909101601f19169092018290039850909650505050505050a2509a9950505050505050505050565b600062000a0b836001600160a01b03841662001046565b3390565b600082815260208190526040902062000ef7908262000ec2565b156200080a5762000f0762000ed9565b6001600160a01b0316816001600160a01b0316837f2f8788117e7eff1d82e926ec794901d17c78024a50270940304540a733656f0d60405160405180910390a45050565b600082815260208190526040902062000f65908262001095565b156200080a5762000f7562000ed9565b6001600160a01b0316816001600160a01b0316837ff6391f5c32d9c69d2a47ea670b442974b53935d1edc7fd64eb21e047a839171b60405160405180910390a45050565b600062000a0b8383620010ac565b600062000a0b836001600160a01b03841662001113565b600062000a0e826200112b565b60008282018381101562000a0b576040805162461bcd60e51b815260206004820152601b60248201527f536166654d6174683a206164646974696f6e206f766572666c6f770000000000604482015290519081900360640190fd5b600062001054838362001113565b6200108c5750815460018181018455600084815260208082209093018490558454848252828601909352604090209190915562000a0e565b50600062000a0e565b600062000a0b836001600160a01b0384166200112f565b81546000908210620010f05760405162461bcd60e51b8152600401808060200182810382526022815260200180620039656022913960400191505060405180910390fd5b8260000182815481106200110057fe5b9060005260206000200154905092915050565b60009081526001919091016020526040902054151590565b5490565b60008181526001830160205260408120548015620011f057835460001980830191908101906000908790839081106200116457fe5b90600052602060002001549050808760000184815481106200118257fe5b600091825260208083209091019290925582815260018981019092526040902090840190558654879080620011b357fe5b6001900381819060005260206000200160009055905586600101600087815260200190815260200160002060009055600194505050505062000a0e565b600091505062000a0e565b61275b806200120a8339019056fe60806040523480156200001157600080fd5b506040516200275b3803806200275b833981810160405260c08110156200003757600080fd5b81019080805160405193929190846401000000008211156200005857600080fd5b9083019060208201858111156200006e57600080fd5b82516401000000008111828201881017156200008957600080fd5b82525081516020918201929091019080838360005b83811015620000b85781810151838201526020016200009e565b50505050905090810190601f168015620000e65780820380516001836020036101000a031916815260200191505b50604052602001805160405193929190846401000000008211156200010a57600080fd5b9083019060208201858111156200012057600080fd5b82516401000000008111828201881017156200013b57600080fd5b82525081516020918201929091019080838360005b838110156200016a57818101518382015260200162000150565b50505050905090810190601f168015620001985780820380516001836020036101000a031916815260200191505b5060405260200180516040519392919084640100000000821115620001bc57600080fd5b908301906020820185811115620001d257600080fd5b8251640100000000811182820188101715620001ed57600080fd5b82525081516020918201929091019080838360005b838110156200021c57818101518382015260200162000202565b50505050905090810190601f1680156200024a5780820380516001836020036101000a031916815260200191505b506040908152602082015190820151606090920151909350909150818187876200027b6301ffc9a760e01b6200032b565b815162000290906006906020850190620003c9565b508051620002a6906007906020840190620003c9565b50620002b96380ac58cd60e01b6200032b565b620002cb635b5e139f60e01b6200032b565b620002dd63780e9d6360e01b6200032b565b5050600a91909155600b80546001600160a01b03199081166001600160a01b0393841617909155600d80549091169185169190911790556200031f84620003b0565b50505050505062000475565b6001600160e01b031980821614156200038b576040805162461bcd60e51b815260206004820152601c60248201527f4552433136353a20696e76616c696420696e7465726661636520696400000000604482015290519081900360640190fd5b6001600160e01b0319166000908152602081905260409020805460ff19166001179055565b8051620003c5906009906020840190620003c9565b5050565b828054600181600116156101000203166002900490600052602060002090601f0160209004810192826200040157600085556200044c565b82601f106200041c57805160ff19168380011785556200044c565b828001600101855582156200044c579182015b828111156200044c5782518255916020019190600101906200042f565b506200045a9291506200045e565b5090565b5b808211156200045a57600081556001016200045f565b6122d680620004856000396000f3fe6080604052600436106101a15760003560e01c80636a627842116100e15780639822e8c01161008a578063b88d4fde11610064578063b88d4fde146105f5578063c87b56dd146106c8578063cfd0244b146106f2578063e985e9c51461072c576101a1565b80639822e8c0146105905780639d35c161146105a5578063a22cb465146105ba576101a1565b80637c6e551d116100bb5780637c6e551d1461052357806384a09c271461053857806395d89b411461057b576101a1565b80636a627842146104a85780636c0360eb146104db57806370a08231146104f0576101a1565b80632f745c591161014e57806346e807201161012857806346e80720146104095780634f6ccce71461043f5780636352211e14610469578063656605d614610493576101a1565b80632f745c591461036357806342842e0e1461039c57806342966c68146103df576101a1565b8063095ea7b31161017f578063095ea7b3146102be57806318160ddd146102f957806323b872dd14610320576101a1565b806301ffc9a7146101a657806306fdde03146101ee578063081812fc14610278575b600080fd5b3480156101b257600080fd5b506101da600480360360208110156101c957600080fd5b50356001600160e01b031916610767565b604080519115158252519081900360200190f35b3480156101fa57600080fd5b5061020361078a565b6040805160208082528351818301528351919283929083019185019080838360005b8381101561023d578181015183820152602001610225565b50505050905090810190601f16801561026a5780820380516001836020036101000a031916815260200191505b509250505060405180910390f35b34801561028457600080fd5b506102a26004803603602081101561029b57600080fd5b5035610820565b604080516001600160a01b039092168252519081900360200190f35b3480156102ca57600080fd5b506102f7600480360360408110156102e157600080fd5b506001600160a01b038135169060200135610882565b005b34801561030557600080fd5b5061030e61095d565b60408051918252519081900360200190f35b34801561032c57600080fd5b506102f76004803603606081101561034357600080fd5b506001600160a01b0381358116916020810135909116906040013561096e565b34801561036f57600080fd5b5061030e6004803603604081101561038657600080fd5b506001600160a01b0381351690602001356109c5565b3480156103a857600080fd5b506102f7600480360360608110156103bf57600080fd5b506001600160a01b038135811691602081013590911690604001356109f0565b3480156103eb57600080fd5b506102f76004803603602081101561040257600080fd5b5035610a0b565b34801561041557600080fd5b5061041e610a5d565b604080519283526001600160a01b0390911660208301528051918290030190f35b34801561044b57600080fd5b5061030e6004803603602081101561046257600080fd5b5035610a70565b34801561047557600080fd5b506102a26004803603602081101561048c57600080fd5b5035610a86565b34801561049f57600080fd5b506101da610aae565b3480156104b457600080fd5b506102f7600480360360208110156104cb57600080fd5b50356001600160a01b0316610ab3565b3480156104e757600080fd5b50610203610b29565b3480156104fc57600080fd5b5061030e6004803603602081101561051357600080fd5b50356001600160a01b0316610b8a565b34801561052f57600080fd5b5061030e610bf2565b34801561054457600080fd5b506102f76004803603606081101561055b57600080fd5b506001600160a01b03813581169160208101359091169060400135610bf8565b34801561058757600080fd5b50610203610c3e565b34801561059c57600080fd5b506102a2610c9f565b3480156105b157600080fd5b506102a2610cae565b3480156105c657600080fd5b506102f7600480360360408110156105dd57600080fd5b506001600160a01b0381351690602001351515610cbd565b34801561060157600080fd5b506102f76004803603608081101561061857600080fd5b6001600160a01b0382358116926020810135909116916040820135919081019060808101606082013564010000000081111561065357600080fd5b82018360208201111561066557600080fd5b8035906020019184600183028401116401000000008311171561068757600080fd5b91908080601f016020809104026020016040519081016040528093929190818152602001838380828437600092019190915250929550610dc2945050505050565b3480156106d457600080fd5b50610203600480360360208110156106eb57600080fd5b5035610e20565b6102f76004803603608081101561070857600080fd5b508035906020810135906001600160a01b03604082013581169160600135166110a1565b34801561073857600080fd5b506101da6004803603604081101561074f57600080fd5b506001600160a01b03813581169160200135166111b8565b6001600160e01b0319811660009081526020819052604090205460ff165b919050565b60068054604080516020601f60026000196101006001881615020190951694909404938401819004810282018101909252828152606093909290918301828280156108165780601f106107eb57610100808354040283529160200191610816565b820191906000526020600020905b8154815290600101906020018083116107f957829003601f168201915b5050505050905090565b600061082b826111e6565b6108665760405162461bcd60e51b815260040180806020018281038252602c815260200180612162602c913960400191505060405180910390fd5b506000908152600460205260409020546001600160a01b031690565b600061088d82610a86565b9050806001600160a01b0316836001600160a01b031614156108e05760405162461bcd60e51b81526004018080602001828103825260218152602001806121e66021913960400191505060405180910390fd5b806001600160a01b03166108f26111f3565b6001600160a01b0316148061091357506109138161090e6111f3565b6111b8565b61094e5760405162461bcd60e51b81526004018080602001828103825260388152602001806120b56038913960400191505060405180910390fd5b61095883836111f7565b505050565b60006109696002611272565b905090565b61097f6109796111f3565b8261127d565b6109ba5760405162461bcd60e51b81526004018080602001828103825260318152602001806122076031913960400191505060405180910390fd5b610958838383611321565b6001600160a01b03821660009081526001602052604081206109e7908361146d565b90505b92915050565b61095883838360405180602001604052806000815250610dc2565b610a166109796111f3565b610a515760405162461bcd60e51b81526004018080602001828103825260308152602001806122716030913960400191505060405180910390fd5b610a5a81611479565b50565b600a54600b546001600160a01b03169091565b600080610a7e600284611546565b509392505050565b60006109ea826040518060600160405280602981526020016121176029913960029190611562565b600190565b600d546001600160a01b0316610ac76111f3565b6001600160a01b031614610b0c5760405162461bcd60e51b815260040180806020018281038252603981526020018061202c6039913960400191505060405180910390fd5b610b1f81610b1a600c611579565b61157d565b610a5a600c6116ab565b60098054604080516020601f60026000196101006001881615020190951694909404938401819004810282018101909252828152606093909290918301828280156108165780601f106107eb57610100808354040283529160200191610816565b60006001600160a01b038216610bd15760405162461bcd60e51b815260040180806020018281038252602a8152602001806120ed602a913960400191505060405180910390fd5b6001600160a01b03821660009081526001602052604090206109ea90611272565b600a5490565b80826001600160a01b0316846001600160a01b03167f06cb0b9d04d0ac2a93b9b9a93ee6c2511e069efb107c06eee43c85021fbc04ed60405160405180910390a4505050565b60078054604080516020601f60026000196101006001881615020190951694909404938401819004810282018101909252828152606093909290918301828280156108165780601f106107eb57610100808354040283529160200191610816565b600b546001600160a01b031690565b600d546001600160a01b031681565b610cc56111f3565b6001600160a01b0316826001600160a01b03161415610d2b576040805162461bcd60e51b815260206004820152601960248201527f4552433732313a20617070726f766520746f2063616c6c657200000000000000604482015290519081900360640190fd5b8060056000610d386111f3565b6001600160a01b03908116825260208083019390935260409182016000908120918716808252919093529120805460ff191692151592909217909155610d7c6111f3565b6001600160a01b03167f17307eab39ab6107e8899845ad3d59bd9653f200f220920489ca2b5937696c318360405180821515815260200191505060405180910390a35050565b610dd3610dcd6111f3565b8361127d565b610e0e5760405162461bcd60e51b81526004018080602001828103825260318152602001806122076031913960400191505060405180910390fd5b610e1a848484846116b4565b50505050565b6060610e2b826111e6565b610e665760405162461bcd60e51b815260040180806020018281038252602f8152602001806121b7602f913960400191505060405180910390fd5b60008281526008602090815260408083208054825160026001831615610100026000190190921691909104601f810185900485028201850190935282815292909190830182828015610ef95780601f10610ece57610100808354040283529160200191610ef9565b820191906000526020600020905b815481529060010190602001808311610edc57829003601f168201915b505050505090506000610f0a610b29565b9050805160001415610f1e57509050610785565b815115610fdf5780826040516020018083805190602001908083835b60208310610f595780518252601f199092019160209182019101610f3a565b51815160209384036101000a600019018019909216911617905285519190930192850191508083835b60208310610fa15780518252601f199092019160209182019101610f82565b6001836020036101000a0380198251168184511680821785525050505050509050019250505060405160208183030381529060405292505050610785565b80610fe985611706565b6040516020018083805190602001908083835b6020831061101b5780518252601f199092019160209182019101610ffc565b51815160209384036101000a600019018019909216911617905285519190930192850191508083835b602083106110635780518252601f199092019160209182019101611044565b6001836020036101000a0380198251168184511680821785525050505050509050019250505060405160208183030381529060405292505050919050565b8334146110df5760405162461bcd60e51b81526004018080602001828103825260398152602001806122386039913960400191505060405180910390fd5b60006064600a543402816110ef57fe5b600b546040519290910492506001600160a01b031690819083156108fc029084906000818181858888f1935050505015801561112f573d6000803e3d6000fd5b506040516001600160a01b038516903484900380156108fc02916000818181858888f19350505050158015611168573d6000803e3d6000fd5b506111998484876040518060400160405280600c81526020016b1c9bde585b1d1e481c185a5960a21b815250610dc2565b600b546111b0906001600160a01b03168484610bf8565b505050505050565b6001600160a01b03918216600090815260056020908152604080832093909416825291909152205460ff1690565b60006109ea6002836117f9565b3390565b6000818152600460205260409020805473ffffffffffffffffffffffffffffffffffffffff19166001600160a01b038416908117909155819061123982610a86565b6001600160a01b03167f8c5be1e5ebec7d5bd14f71427d1e84f3dd0314c0f7b2291e5b200ac8c7c3b92560405160405180910390a45050565b60006109ea82611579565b6000611288826111e6565b6112c35760405162461bcd60e51b815260040180806020018281038252602c815260200180612089602c913960400191505060405180910390fd5b60006112ce83610a86565b9050806001600160a01b0316846001600160a01b031614806113095750836001600160a01b03166112fe84610820565b6001600160a01b0316145b80611319575061131981856111b8565b949350505050565b826001600160a01b031661133482610a86565b6001600160a01b0316146113795760405162461bcd60e51b815260040180806020018281038252602981526020018061218e6029913960400191505060405180910390fd5b6001600160a01b0382166113be5760405162461bcd60e51b81526004018080602001828103825260248152602001806120656024913960400191505060405180910390fd5b6113c9838383611805565b6113d46000826111f7565b6001600160a01b03831660009081526001602052604090206113f69082611810565b506001600160a01b0382166000908152600160205260409020611419908261181c565b5061142660028284611828565b5080826001600160a01b0316846001600160a01b03167fddf252ad1be2c89b69c2b068fc378daa952ba7f163c4a11628f55a4df523b3ef60405160405180910390a4505050565b60006109e7838361183e565b600061148482610a86565b905061149281600084611805565b61149d6000836111f7565b60008281526008602052604090205460026000196101006001841615020190911604156114db5760008281526008602052604081206114db91611f7f565b6001600160a01b03811660009081526001602052604090206114fd9083611810565b506115096002836118a2565b5060405182906000906001600160a01b038416907fddf252ad1be2c89b69c2b068fc378daa952ba7f163c4a11628f55a4df523b3ef908390a45050565b600080808061155586866118ae565b9097909650945050505050565b600061156f848484611929565b90505b9392505050565b5490565b6001600160a01b0382166115d8576040805162461bcd60e51b815260206004820181905260248201527f4552433732313a206d696e7420746f20746865207a65726f2061646472657373604482015290519081900360640190fd5b6115e1816111e6565b15611633576040805162461bcd60e51b815260206004820152601c60248201527f4552433732313a20746f6b656e20616c7265616479206d696e74656400000000604482015290519081900360640190fd5b61163f60008383611805565b6001600160a01b0382166000908152600160205260409020611661908261181c565b5061166e60028284611828565b5060405181906001600160a01b038416906000907fddf252ad1be2c89b69c2b068fc378daa952ba7f163c4a11628f55a4df523b3ef908290a45050565b80546001019055565b6116bf848484611321565b6116cb848484846119f3565b610e1a5760405162461bcd60e51b8152600401808060200182810382526032815260200180611ffa6032913960400191505060405180910390fd5b60608161172b57506040805180820190915260018152600360fc1b6020820152610785565b8160005b811561174357600101600a8204915061172f565b60008167ffffffffffffffff8111801561175c57600080fd5b506040519080825280601f01601f191660200182016040528015611787576020820181803683370190505b50859350905060001982015b83156117f057600a840660300160f81b828280600190039350815181106117b657fe5b60200101907effffffffffffffffffffffffffffffffffffffffffffffffffffffffffffff1916908160001a905350600a84049350611793565b50949350505050565b60006109e78383611b5b565b610958838383610958565b60006109e78383611b73565b60006109e78383611c39565b600061156f84846001600160a01b038516611c83565b815460009082106118805760405162461bcd60e51b8152600401808060200182810382526022815260200180611fd86022913960400191505060405180910390fd5b82600001828154811061188f57fe5b9060005260206000200154905092915050565b60006109e78383611d1a565b8154600090819083106118f25760405162461bcd60e51b81526004018080602001828103825260228152602001806121406022913960400191505060405180910390fd5b600084600001848154811061190357fe5b906000526020600020906002020190508060000154816001015492509250509250929050565b600082815260018401602052604081205482816119c45760405162461bcd60e51b81526004018080602001828103825283818151815260200191508051906020019080838360005b83811015611989578181015183820152602001611971565b50505050905090810190601f1680156119b65780820380516001836020036101000a031916815260200191505b509250505060405180910390fd5b508460000160018203815481106119d757fe5b9060005260206000209060020201600101549150509392505050565b6000611a07846001600160a01b0316611dee565b611a1357506001611319565b6000611b21630a85bd0160e11b611a286111f3565b88878760405160240180856001600160a01b03168152602001846001600160a01b0316815260200183815260200180602001828103825283818151815260200191508051906020019080838360005b83811015611a8f578181015183820152602001611a77565b50505050905090810190601f168015611abc5780820380516001836020036101000a031916815260200191505b5095505050505050604051602081830303815290604052906001600160e01b0319166020820180516001600160e01b038381831617835250505050604051806060016040528060328152602001611ffa603291396001600160a01b0388169190611df4565b90506000818060200190516020811015611b3a57600080fd5b50516001600160e01b031916630a85bd0160e11b1492505050949350505050565b60009081526001919091016020526040902054151590565b60008181526001830160205260408120548015611c2f5783546000198083019190810190600090879083908110611ba657fe5b9060005260206000200154905080876000018481548110611bc357fe5b600091825260208083209091019290925582815260018981019092526040902090840190558654879080611bf357fe5b600190038181906000526020600020016000905590558660010160008781526020019081526020016000206000905560019450505050506109ea565b60009150506109ea565b6000611c458383611b5b565b611c7b575081546001818101845560008481526020808220909301849055845484825282860190935260409020919091556109ea565b5060006109ea565b600082815260018401602052604081205480611ce8575050604080518082018252838152602080820184815286546001818101895560008981528481209551600290930290950191825591519082015586548684528188019092529290912055611572565b82856000016001830381548110611cfb57fe5b9060005260206000209060020201600101819055506000915050611572565b60008181526001830160205260408120548015611c2f5783546000198083019190810190600090879083908110611d4d57fe5b9060005260206000209060020201905080876000018481548110611d6d57fe5b600091825260208083208454600290930201918255600193840154918401919091558354825289830190526040902090840190558654879080611dac57fe5b60008281526020808220600260001990940193840201828155600190810183905592909355888152898201909252604082209190915594506109ea9350505050565b3b151590565b606061156f848460008585611e0885611dee565b611e59576040805162461bcd60e51b815260206004820152601d60248201527f416464726573733a2063616c6c20746f206e6f6e2d636f6e7472616374000000604482015290519081900360640190fd5b600080866001600160a01b031685876040518082805190602001908083835b60208310611e975780518252601f199092019160209182019101611e78565b6001836020036101000a03801982511681845116808217855250505050505090500191505060006040518083038185875af1925050503d8060008114611ef9576040519150601f19603f3d011682016040523d82523d6000602084013e611efe565b606091505b5091509150611f0e828286611f19565b979650505050505050565b60608315611f28575081611572565b825115611f385782518084602001fd5b60405162461bcd60e51b8152602060048201818152845160248401528451859391928392604401919085019080838360008315611989578181015183820152602001611971565b50805460018160011615610100020316600290046000825580601f10611fa55750610a5a565b601f016020900490600052602060002090810190610a5a91905b80821115611fd35760008155600101611fbf565b509056fe456e756d657261626c655365743a20696e646578206f7574206f6620626f756e64734552433732313a207472616e7366657220746f206e6f6e20455243373231526563656976657220696d706c656d656e7465725052495649506f64455243373231546f6b656e3a204f6e6c7920466163746f72792063616e2063616c6c20746869732066756e6374696f6e2e4552433732313a207472616e7366657220746f20746865207a65726f20616464726573734552433732313a206f70657261746f7220717565727920666f72206e6f6e6578697374656e7420746f6b656e4552433732313a20617070726f76652063616c6c6572206973206e6f74206f776e6572206e6f7220617070726f76656420666f7220616c6c4552433732313a2062616c616e636520717565727920666f7220746865207a65726f20616464726573734552433732313a206f776e657220717565727920666f72206e6f6e6578697374656e7420746f6b656e456e756d657261626c654d61703a20696e646578206f7574206f6620626f756e64734552433732313a20617070726f76656420717565727920666f72206e6f6e6578697374656e7420746f6b656e4552433732313a207472616e73666572206f6620746f6b656e2074686174206973206e6f74206f776e4552433732314d657461646174613a2055524920717565727920666f72206e6f6e6578697374656e7420746f6b656e4552433732313a20617070726f76616c20746f2063757272656e74206f776e65724552433732313a207472616e736665722063616c6c6572206973206e6f74206f776e6572206e6f7220617070726f7665645052495649506f64455243373231546f6b656e526f79616c74793a20726f79616c747920616d6f756e74206973206e6f7420636f72726563744552433732314275726e61626c653a2063616c6c6572206973206e6f74206f776e6572206e6f7220617070726f766564a2646970667358221220246ccea368a678504c643d5be8cd4d81f9681bdf3282f2e5afba46fb7aadd58b64736f6c63430007060033456e756d657261626c655365743a20696e646578206f7574206f6620626f756e6473416363657373436f6e74726f6c3a2073656e646572206d75737420626520616e2061646d696e20746f206772616e74416363657373436f6e74726f6c3a2073656e646572206d75737420626520616e2061646d696e20746f207265766f6b655052495649506f64455243373231546f6b656e466163746f72793a20506f642073796d626f6c20616c7265616479206578697374732e5052495649506f64455243373231546f6b656e526f79616c74793a206d7573742068617665204d4f44455241544f525f524f4c4520746f20696e7665737420666f7220696e766573746f722e5052495649506f64455243373231546f6b656e526f79616c74793a204163636f756e7420616464726573732073686f756c64206e6f74206265207a65726f2e5052495649506f64455243373231546f6b656e466163746f72793a20506f6420696420616c7265616479206578697374732e416363657373436f6e74726f6c3a2063616e206f6e6c792072656e6f756e636520726f6c657320666f722073656c66a2646970667358221220754e46423b005088cb8a77b82ac48a9393a5dcbdb762efb4ceff5e0d1395207a64736f6c63430007060033",
  "immutableReferences": {},
  "source": "// SPDX-License-Identifier: MIT\n\npragma solidity ^0.7.6;\n\nimport \"@openzeppelin/contracts/access/AccessControl.sol\";\nimport \"@openzeppelin/contracts/math/SafeMath.sol\";\nimport \"./token/PRIVIPodERC721TokenRoyalty.sol\";\nimport \"./interfaces/IBridgeManager.sol\";\n\ncontract PRIVIPodERC721RoyaltyFactory is AccessControl {\n    using SafeMath for uint256;\n    \n    bytes32 public constant MODERATOR_ROLE = keccak256(\"MODERATOR_ROLE\");\n    address public bridgeManagerAddress;\n    uint256 private totalPodCreated;\n    mapping (string => address) private podTokenAddressesById;\n    mapping (string => address) private podTokenAddressesBySymbol;\n\n    event PodCreated(string indexed podId, string podTokenName, string podTokenSymbol);\n    \n    /**\n     * @dev Grants `DEFAULT_ADMIN_ROLE` and `MODERATOR_ROLE` to the\n     * account that deploys the contract.\n     *\n     */\n    constructor(address bridgeAddress) {\n        _setupRole(DEFAULT_ADMIN_ROLE, _msgSender());\n        _setupRole(MODERATOR_ROLE, _msgSender());\n        bridgeManagerAddress = bridgeAddress;\n    }\n\n    function getTotalTokenCreated() external view returns(uint256 totalPods) {\n        totalPods = totalPodCreated;\n    }\n\n    function getPodAddressById(string calldata podId) external view returns(address podAddress) {\n        podAddress = podTokenAddressesById[podId];\n    }\n\n    function getPodAddressBySymbol(string calldata tokenSymbol) external view returns(address podAddress) {\n        podAddress = podTokenAddressesBySymbol[tokenSymbol];\n    }\n    \n    /**\n     *@dev only MODERATOR_ROLE role can create pods\n     *\n     * Requirements:\n     *\n     * - pod should not exist before.\n     */\n    function createPod(string calldata podId, string calldata podTokenName, string calldata podTokenSymbol, string calldata baseURI, uint256 royaltyAmount, address creator) external returns (address podAddress){\n        // require(hasRole(MODERATOR_ROLE, _msgSender()), \"PRIVIPodERC721TokenFactory: must have MODERATOR_ROLE to create pod.\");\n        require(podTokenAddressesById[podId] == address(0), \"PRIVIPodERC721TokenFactory: Pod id already exists.\");\n        require(podTokenAddressesBySymbol[podTokenSymbol] == address(0), \"PRIVIPodERC721TokenFactory: Pod symbol already exists.\");\n        PRIVIPodERC721TokenRoyalty podToken = new PRIVIPodERC721TokenRoyalty(podTokenName, podTokenSymbol , baseURI, address(this), royaltyAmount, creator);\n        podAddress = address(podToken);\n        totalPodCreated.add(1);\n        podTokenAddressesById[podId] = podAddress;\n        podTokenAddressesBySymbol[podTokenSymbol] = podAddress;\n        IBridgeManager(bridgeManagerAddress).registerTokenERC721(podTokenName, podTokenSymbol, podAddress);\n        emit PodCreated(podId, podTokenName, podTokenSymbol);\n    }\n    \n    /**\n     * @dev Moderator will mint the amount of pod token for the investor's account\n     *\n     * Requirements:\n     *\n     * - the caller must MODERATOR_ROLE to perform this action.\n     */\n    function mintPodTokenById(string calldata podId, address account) external {\n        require(hasRole(MODERATOR_ROLE, _msgSender()), \"PRIVIPodERC721TokenRoyalty: must have MODERATOR_ROLE to invest for investor.\");\n        require(account != address(0), \"PRIVIPodERC721TokenRoyalty: Account address should not be zero.\");\n        PRIVIPodERC721TokenRoyalty(podTokenAddressesById[podId]).mint(account);\n    }\n\n    function mintPodTokenBySymbol(string calldata tokenSymbol, address account) external {\n        require(hasRole(MODERATOR_ROLE, _msgSender()), \"PRIVIPodERC721TokenRoyalty: must have MODERATOR_ROLE to invest for investor.\");\n        require(account != address(0), \"PRIVIPodERC721TokenRoyalty: Account address should not be zero.\");\n        PRIVIPodERC721TokenRoyalty(podTokenAddressesBySymbol[tokenSymbol]).mint(account);\n    }\n    \n}",
  "sourcePath": "/home/rekard0/Documents/WORK/PriviEthereum/PRIVIethereum/contracts/PRIVIPodERC721RoyaltyFactory.sol",
  "compiler": {
    "name": "solc",
    "version": "0.7.6+commit.7338295f.Emscripten.clang"
  },
  "schemaVersion": "3.3.3",
  "updatedAt": "2021-03-15T12:54:23.390Z",
  "devdoc": {
    "kind": "dev",
    "methods": {
      "constructor": {
        "details": "Grants `DEFAULT_ADMIN_ROLE` and `MODERATOR_ROLE` to the account that deploys the contract."
      },
      "createPod(string,string,string,string,uint256,address)": {
        "details": "only MODERATOR_ROLE role can create pods Requirements: - pod should not exist before."
      },
      "getRoleAdmin(bytes32)": {
        "details": "Returns the admin role that controls `role`. See {grantRole} and {revokeRole}. To change a role's admin, use {_setRoleAdmin}."
      },
      "getRoleMember(bytes32,uint256)": {
        "details": "Returns one of the accounts that have `role`. `index` must be a value between 0 and {getRoleMemberCount}, non-inclusive. Role bearers are not sorted in any particular way, and their ordering may change at any point. WARNING: When using {getRoleMember} and {getRoleMemberCount}, make sure you perform all queries on the same block. See the following https://forum.openzeppelin.com/t/iterating-over-elements-on-enumerableset-in-openzeppelin-contracts/2296[forum post] for more information."
      },
      "getRoleMemberCount(bytes32)": {
        "details": "Returns the number of accounts that have `role`. Can be used together with {getRoleMember} to enumerate all bearers of a role."
      },
      "grantRole(bytes32,address)": {
        "details": "Grants `role` to `account`. If `account` had not been already granted `role`, emits a {RoleGranted} event. Requirements: - the caller must have ``role``'s admin role."
      },
      "hasRole(bytes32,address)": {
        "details": "Returns `true` if `account` has been granted `role`."
      },
      "mintPodTokenById(string,address)": {
        "details": "Moderator will mint the amount of pod token for the investor's account Requirements: - the caller must MODERATOR_ROLE to perform this action."
      },
      "renounceRole(bytes32,address)": {
        "details": "Revokes `role` from the calling account. Roles are often managed via {grantRole} and {revokeRole}: this function's purpose is to provide a mechanism for accounts to lose their privileges if they are compromised (such as when a trusted device is misplaced). If the calling account had been granted `role`, emits a {RoleRevoked} event. Requirements: - the caller must be `account`."
      },
      "revokeRole(bytes32,address)": {
        "details": "Revokes `role` from `account`. If `account` had been granted `role`, emits a {RoleRevoked} event. Requirements: - the caller must have ``role``'s admin role."
      }
    },
    "version": 1
  },
  "userdoc": {
    "kind": "user",
    "methods": {},
    "version": 1
  }
}