{
  "contractName": "PRIVIPodERC20Factory",
  "abi": [
    {
      "inputs": [],
      "stateMutability": "nonpayable",
      "type": "constructor"
    },
    {
      "anonymous": false,
      "inputs": [
        {
          "indexed": true,
          "internalType": "string",
          "name": "podId",
          "type": "string"
        },
        {
          "indexed": false,
          "internalType": "string",
          "name": "podTokenName",
          "type": "string"
        },
        {
          "indexed": false,
          "internalType": "string",
          "name": "podTokenSymbol",
          "type": "string"
        }
      ],
      "name": "PodCreated",
      "type": "event"
    },
    {
      "anonymous": false,
      "inputs": [
        {
          "indexed": true,
          "internalType": "bytes32",
          "name": "role",
          "type": "bytes32"
        },
        {
          "indexed": true,
          "internalType": "bytes32",
          "name": "previousAdminRole",
          "type": "bytes32"
        },
        {
          "indexed": true,
          "internalType": "bytes32",
          "name": "newAdminRole",
          "type": "bytes32"
        }
      ],
      "name": "RoleAdminChanged",
      "type": "event"
    },
    {
      "anonymous": false,
      "inputs": [
        {
          "indexed": true,
          "internalType": "bytes32",
          "name": "role",
          "type": "bytes32"
        },
        {
          "indexed": true,
          "internalType": "address",
          "name": "account",
          "type": "address"
        },
        {
          "indexed": true,
          "internalType": "address",
          "name": "sender",
          "type": "address"
        }
      ],
      "name": "RoleGranted",
      "type": "event"
    },
    {
      "anonymous": false,
      "inputs": [
        {
          "indexed": true,
          "internalType": "bytes32",
          "name": "role",
          "type": "bytes32"
        },
        {
          "indexed": true,
          "internalType": "address",
          "name": "account",
          "type": "address"
        },
        {
          "indexed": true,
          "internalType": "address",
          "name": "sender",
          "type": "address"
        }
      ],
      "name": "RoleRevoked",
      "type": "event"
    },
    {
      "inputs": [],
      "name": "DEFAULT_ADMIN_ROLE",
      "outputs": [
        {
          "internalType": "bytes32",
          "name": "",
          "type": "bytes32"
        }
      ],
      "stateMutability": "view",
      "type": "function",
      "constant": true
    },
    {
      "inputs": [],
      "name": "MODERATOR_ROLE",
      "outputs": [
        {
          "internalType": "bytes32",
          "name": "",
          "type": "bytes32"
        }
      ],
      "stateMutability": "view",
      "type": "function",
      "constant": true
    },
    {
      "inputs": [
        {
          "internalType": "bytes32",
          "name": "role",
          "type": "bytes32"
        }
      ],
      "name": "getRoleAdmin",
      "outputs": [
        {
          "internalType": "bytes32",
          "name": "",
          "type": "bytes32"
        }
      ],
      "stateMutability": "view",
      "type": "function",
      "constant": true
    },
    {
      "inputs": [
        {
          "internalType": "bytes32",
          "name": "role",
          "type": "bytes32"
        },
        {
          "internalType": "uint256",
          "name": "index",
          "type": "uint256"
        }
      ],
      "name": "getRoleMember",
      "outputs": [
        {
          "internalType": "address",
          "name": "",
          "type": "address"
        }
      ],
      "stateMutability": "view",
      "type": "function",
      "constant": true
    },
    {
      "inputs": [
        {
          "internalType": "bytes32",
          "name": "role",
          "type": "bytes32"
        }
      ],
      "name": "getRoleMemberCount",
      "outputs": [
        {
          "internalType": "uint256",
          "name": "",
          "type": "uint256"
        }
      ],
      "stateMutability": "view",
      "type": "function",
      "constant": true
    },
    {
      "inputs": [
        {
          "internalType": "bytes32",
          "name": "role",
          "type": "bytes32"
        },
        {
          "internalType": "address",
          "name": "account",
          "type": "address"
        }
      ],
      "name": "grantRole",
      "outputs": [],
      "stateMutability": "nonpayable",
      "type": "function"
    },
    {
      "inputs": [
        {
          "internalType": "bytes32",
          "name": "role",
          "type": "bytes32"
        },
        {
          "internalType": "address",
          "name": "account",
          "type": "address"
        }
      ],
      "name": "hasRole",
      "outputs": [
        {
          "internalType": "bool",
          "name": "",
          "type": "bool"
        }
      ],
      "stateMutability": "view",
      "type": "function",
      "constant": true
    },
    {
      "inputs": [
        {
          "internalType": "string",
          "name": "",
          "type": "string"
        }
      ],
      "name": "podTokenAddresses",
      "outputs": [
        {
          "internalType": "address",
          "name": "",
          "type": "address"
        }
      ],
      "stateMutability": "view",
      "type": "function",
      "constant": true
    },
    {
      "inputs": [
        {
          "internalType": "bytes32",
          "name": "role",
          "type": "bytes32"
        },
        {
          "internalType": "address",
          "name": "account",
          "type": "address"
        }
      ],
      "name": "renounceRole",
      "outputs": [],
      "stateMutability": "nonpayable",
      "type": "function"
    },
    {
      "inputs": [
        {
          "internalType": "bytes32",
          "name": "role",
          "type": "bytes32"
        },
        {
          "internalType": "address",
          "name": "account",
          "type": "address"
        }
      ],
      "name": "revokeRole",
      "outputs": [],
      "stateMutability": "nonpayable",
      "type": "function"
    },
    {
      "inputs": [],
      "name": "totalPodCreated",
      "outputs": [
        {
          "internalType": "uint256",
          "name": "",
          "type": "uint256"
        }
      ],
      "stateMutability": "view",
      "type": "function",
      "constant": true
    },
    {
      "inputs": [
        {
          "internalType": "string",
          "name": "podId",
          "type": "string"
        },
        {
          "internalType": "string",
          "name": "podTokenName",
          "type": "string"
        },
        {
          "internalType": "string",
          "name": "podTokenSymbol",
          "type": "string"
        }
      ],
      "name": "createPod",
      "outputs": [
        {
          "internalType": "address",
          "name": "podAddress",
          "type": "address"
        }
      ],
      "stateMutability": "nonpayable",
      "type": "function"
    },
    {
      "inputs": [
        {
          "internalType": "string",
          "name": "podId",
          "type": "string"
        },
        {
          "internalType": "address",
          "name": "account",
          "type": "address"
        },
        {
          "internalType": "uint256",
          "name": "investAmount",
          "type": "uint256"
        }
      ],
      "name": "podMint",
      "outputs": [],
      "stateMutability": "nonpayable",
      "type": "function"
    }
  ],
  "bytecode": "0x60806040523480156200001157600080fd5b50620000286000620000226200005d565b62000061565b620000577f71f3d55856e4058ed06ee057d79ada615f65cdf5f9ee88181b914225088f834f620000226200005d565b62000171565b3390565b6200006d828262000071565b5050565b6000828152602081815260409091206200009691839062000a8a620000ea821b17901c565b156200006d57620000a66200005d565b6001600160a01b0316816001600160a01b0316837f2f8788117e7eff1d82e926ec794901d17c78024a50270940304540a733656f0d60405160405180910390a45050565b600062000101836001600160a01b0384166200010a565b90505b92915050565b600062000118838362000159565b620001505750815460018181018455600084815260208082209093018490558454848252828601909352604090209190915562000104565b50600062000104565b60009081526001919091016020526040902054151590565b6120eb80620001816000396000f3fe60806040523480156200001157600080fd5b5060043610620000f45760003560e01c806391d148541162000099578063ca15c873116200006f578063ca15c87314620003c9578063d547741f14620003e9578063dc2e187a1462000418578063e8c28f3d146200042257620000f4565b806391d1485414620002f757806392dbd728146200033a578063a217fddf14620003bf57620000f4565b8063416aad1e11620000cf578063416aad1e146200018b578063797669c914620002c75780639010d07c14620002d157620000f4565b8063248a9ca314620000f95780632f2ff15d146200012b57806336568abe146200015c575b600080fd5b62000119600480360360208110156200011157600080fd5b5035620004ce565b60408051918252519081900360200190f35b6200015a600480360360408110156200014357600080fd5b50803590602001356001600160a01b0316620004e3565b005b6200015a600480360360408110156200017457600080fd5b50803590602001356001600160a01b031662000557565b620002ab60048036036060811015620001a357600080fd5b810190602081018135640100000000811115620001bf57600080fd5b820183602082011115620001d257600080fd5b80359060200191846001830284011164010000000083111715620001f557600080fd5b9193909290916020810190356401000000008111156200021457600080fd5b8201836020820111156200022757600080fd5b803590602001918460018302840111640100000000831117156200024a57600080fd5b9193909290916020810190356401000000008111156200026957600080fd5b8201836020820111156200027c57600080fd5b803590602001918460018302840111640100000000831117156200029f57600080fd5b509092509050620005be565b604080516001600160a01b039092168252519081900360200190f35b62000119620007fb565b620002ab60048036036040811015620002e957600080fd5b50803590602001356200081f565b62000326600480360360408110156200030f57600080fd5b50803590602001356001600160a01b031662000842565b604080519115158252519081900360200190f35b6200015a600480360360608110156200035257600080fd5b8101906020810181356401000000008111156200036e57600080fd5b8201836020820111156200038157600080fd5b80359060200191846001830284011164010000000083111715620003a457600080fd5b91935091506001600160a01b0381351690602001356200085c565b62000119620009e2565b6200011960048036036020811015620003e157600080fd5b5035620009e7565b6200015a600480360360408110156200040157600080fd5b50803590602001356001600160a01b031662000a00565b6200011962000a5e565b620002ab600480360360208110156200043a57600080fd5b8101906020810181356401000000008111156200045657600080fd5b8201836020820111156200046957600080fd5b803590602001918460018302840111640100000000831117156200048c57600080fd5b91908080601f01602080910402602001604051908101604052809392919081815260200183838082843760009201919091525092955062000a64945050505050565b60009081526020819052604090206002015490565b6000828152602081905260409020600201546200050a906200050462000aa1565b62000842565b620005475760405162461bcd60e51b815260040180806020018281038252602f81526020018062001f4a602f913960400191505060405180910390fd5b62000553828262000aa5565b5050565b6200056162000aa1565b6001600160a01b0316816001600160a01b031614620005b25760405162461bcd60e51b815260040180806020018281038252602f81526020018062002087602f913960400191505060405180910390fd5b62000553828262000b13565b6000806001600160a01b0316600288886040518083838082843791909101948552505060405192839003602001909220546001600160a01b03169290921491506200063d90505760405162461bcd60e51b81526004018080602001828103825260298152602001806200205e6029913960400191505060405180910390fd5b60008585858530604051620006529062000dc3565b6001600160a01b038216604082015260608082528101859052806020810160808201888880828437600083820152601f01601f1916909101848103835286815260200190508686808284376000838201819052604051601f909201601f19169093018190039a509850909650505050505050f080158015620006d8573d6000803e3d6000fd5b509050809150620006f56001805462000b8190919063ffffffff16565b5081600289896040518083838082843791909101948552505060405192839003602001832080546001600160a01b039590951673ffffffffffffffffffffffffffffffffffffffff199095169490941790935550899150889080838380828437604080519390910183900383208184529083018b905294507fc0512f6474c9ee949f1cbdc88e43ca774f79b5f1f07d8484696e1cf1a0bd87ce93508a925089918991508890806020810160608201878780828437600083820152601f01601f191690910184810383528581526020019050858580828437600083820152604051601f909101601f19169092018290039850909650505050505050a2509695505050505050565b7f71f3d55856e4058ed06ee057d79ada615f65cdf5f9ee88181b914225088f834f81565b600082815260208190526040812062000839908362000bdc565b90505b92915050565b600082815260208190526040812062000839908362000bea565b6200088b7f71f3d55856e4058ed06ee057d79ada615f65cdf5f9ee88181b914225088f834f6200050462000aa1565b620008c85760405162461bcd60e51b8152600401808060200182810382526046815260200180620020186046913960600191505060405180910390fd5b6001600160a01b0382166200090f5760405162461bcd60e51b815260040180806020018281038252603981526020018062001fdf6039913960400191505060405180910390fd5b60008111620009505760405162461bcd60e51b815260040180806020018281038252603681526020018062001f796036913960400191505060405180910390fd5b600284846040518083838082843791909101948552505060408051938490036020018420546340c10f1960e01b85526001600160a01b0387811660048701526024860187905291519116936340c10f199350604480820193506000929182900301818387803b158015620009c357600080fd5b505af1158015620009d8573d6000803e3d6000fd5b5050505050505050565b600081565b60008181526020819052604081206200083c9062000c01565b60008281526020819052604090206002015462000a21906200050462000aa1565b620005b25760405162461bcd60e51b815260040180806020018281038252603081526020018062001faf6030913960400191505060405180910390fd5b60015481565b80516020818301810180516002825292820191909301209152546001600160a01b031681565b600062000839836001600160a01b03841662000c0e565b3390565b600082815260208190526040902062000abf908262000a8a565b15620005535762000acf62000aa1565b6001600160a01b0316816001600160a01b0316837f2f8788117e7eff1d82e926ec794901d17c78024a50270940304540a733656f0d60405160405180910390a45050565b600082815260208190526040902062000b2d908262000c5d565b15620005535762000b3d62000aa1565b6001600160a01b0316816001600160a01b0316837ff6391f5c32d9c69d2a47ea670b442974b53935d1edc7fd64eb21e047a839171b60405160405180910390a45050565b60008282018381101562000839576040805162461bcd60e51b815260206004820152601b60248201527f536166654d6174683a206164646974696f6e206f766572666c6f770000000000604482015290519081900360640190fd5b600062000839838362000c74565b600062000839836001600160a01b03841662000cdb565b60006200083c8262000cf3565b600062000c1c838362000cdb565b62000c54575081546001818101845560008481526020808220909301849055845484825282860190935260409020919091556200083c565b5060006200083c565b600062000839836001600160a01b03841662000cf7565b8154600090821062000cb85760405162461bcd60e51b815260040180806020018281038252602281526020018062001f286022913960400191505060405180910390fd5b82600001828154811062000cc857fe5b9060005260206000200154905092915050565b60009081526001919091016020526040902054151590565b5490565b6000818152600183016020526040812054801562000db8578354600019808301919081019060009087908390811062000d2c57fe5b906000526020600020015490508087600001848154811062000d4a57fe5b60009182526020808320909101929092558281526001898101909252604090209084019055865487908062000d7b57fe5b600190038181906000526020600020016000905590558660010160008781526020019081526020016000206000905560019450505050506200083c565b60009150506200083c565b6111568062000dd28339019056fe60806040523480156200001157600080fd5b506040516200115638038062001156833981810160405260608110156200003757600080fd5b81019080805160405193929190846401000000008211156200005857600080fd5b9083019060208201858111156200006e57600080fd5b82516401000000008111828201881017156200008957600080fd5b82525081516020918201929091019080838360005b83811015620000b85781810151838201526020016200009e565b50505050905090810190601f168015620000e65780820380516001836020036101000a031916815260200191505b50604052602001805160405193929190846401000000008211156200010a57600080fd5b9083019060208201858111156200012057600080fd5b82516401000000008111828201881017156200013b57600080fd5b82525081516020918201929091019080838360005b838110156200016a57818101518382015260200162000150565b50505050905090810190601f168015620001985780820380516001836020036101000a031916815260200191505b5060405260209081015185519093508592508491620001bd9160039185019062000210565b508051620001d390600490602084019062000210565b5050600580546001600160a01b0390931661010002610100600160a81b031960ff19909416601217939093169290921790915550620002ac915050565b828054600181600116156101000203166002900490600052602060002090601f016020900481019282601f106200025357805160ff191683800117855562000283565b8280016001018555821562000283579182015b828111156200028357825182559160200191906001019062000266565b506200029192915062000295565b5090565b5b8082111562000291576000815560010162000296565b610e9a80620002bc6000396000f3fe608060405234801561001057600080fd5b50600436106100f55760003560e01c806342966c68116100975780639d35c161116100665780639d35c161146102f6578063a457c2d71461031a578063a9059cbb14610346578063dd62ed3e14610372576100f5565b806342966c681461027f57806370a082311461029c57806379cc6790146102c257806395d89b41146102ee576100f5565b806323b872dd116100d357806323b872dd146101d1578063313ce56714610207578063395093511461022557806340c10f1914610251576100f5565b806306fdde03146100fa578063095ea7b31461017757806318160ddd146101b7575b600080fd5b6101026103a0565b6040805160208082528351818301528351919283929083019185019080838360005b8381101561013c578181015183820152602001610124565b50505050905090810190601f1680156101695780820380516001836020036101000a031916815260200191505b509250505060405180910390f35b6101a36004803603604081101561018d57600080fd5b506001600160a01b038135169060200135610436565b604080519115158252519081900360200190f35b6101bf610453565b60408051918252519081900360200190f35b6101a3600480360360608110156101e757600080fd5b506001600160a01b03813581169160208101359091169060400135610459565b61020f6104e0565b6040805160ff9092168252519081900360200190f35b6101a36004803603604081101561023b57600080fd5b506001600160a01b0381351690602001356104e9565b61027d6004803603604081101561026757600080fd5b506001600160a01b038135169060200135610537565b005b61027d6004803603602081101561029557600080fd5b50356105a3565b6101bf600480360360208110156102b257600080fd5b50356001600160a01b03166105b7565b61027d600480360360408110156102d857600080fd5b506001600160a01b0381351690602001356105d2565b61010261062c565b6102fe61068d565b604080516001600160a01b039092168252519081900360200190f35b6101a36004803603604081101561033057600080fd5b506001600160a01b0381351690602001356106a1565b6101a36004803603604081101561035c57600080fd5b506001600160a01b038135169060200135610709565b6101bf6004803603604081101561038857600080fd5b506001600160a01b038135811691602001351661071d565b60038054604080516020601f600260001961010060018816150201909516949094049384018190048102820181019092528281526060939092909183018282801561042c5780601f106104015761010080835404028352916020019161042c565b820191906000526020600020905b81548152906001019060200180831161040f57829003601f168201915b5050505050905090565b600061044a610443610748565b848461074c565b50600192915050565b60025490565b6000610466848484610838565b6104d684610472610748565b6104d185604051806060016040528060288152602001610d52602891396001600160a01b038a166000908152600160205260408120906104b0610748565b6001600160a01b031681526020810191909152604001600020549190610993565b61074c565b5060019392505050565b60055460ff1690565b600061044a6104f6610748565b846104d18560016000610507610748565b6001600160a01b03908116825260208083019390935260409182016000908120918c168152925290205490610a2a565b60055461010090046001600160a01b0316610550610748565b6001600160a01b0316146105955760405162461bcd60e51b8152600401808060200182810382526038815260200180610e2d6038913960400191505060405180910390fd5b61059f8282610a8b565b5050565b6105b46105ae610748565b82610b7b565b50565b6001600160a01b031660009081526020819052604090205490565b600061060982604051806060016040528060248152602001610d7a60249139610602866105fd610748565b61071d565b9190610993565b905061061d83610617610748565b8361074c565b6106278383610b7b565b505050565b60048054604080516020601f600260001961010060018816150201909516949094049384018190048102820181019092528281526060939092909183018282801561042c5780601f106104015761010080835404028352916020019161042c565b60055461010090046001600160a01b031681565b600061044a6106ae610748565b846104d185604051806060016040528060258152602001610e0860259139600160006106d8610748565b6001600160a01b03908116825260208083019390935260409182016000908120918d16815292529020549190610993565b600061044a610716610748565b8484610838565b6001600160a01b03918216600090815260016020908152604080832093909416825291909152205490565b3390565b6001600160a01b0383166107915760405162461bcd60e51b8152600401808060200182810382526024815260200180610de46024913960400191505060405180910390fd5b6001600160a01b0382166107d65760405162461bcd60e51b8152600401808060200182810382526022815260200180610d0a6022913960400191505060405180910390fd5b6001600160a01b03808416600081815260016020908152604080832094871680845294825291829020859055815185815291517f8c5be1e5ebec7d5bd14f71427d1e84f3dd0314c0f7b2291e5b200ac8c7c3b9259281900390910190a3505050565b6001600160a01b03831661087d5760405162461bcd60e51b8152600401808060200182810382526025815260200180610dbf6025913960400191505060405180910390fd5b6001600160a01b0382166108c25760405162461bcd60e51b8152600401808060200182810382526023815260200180610cc56023913960400191505060405180910390fd5b6108cd838383610c77565b61090a81604051806060016040528060268152602001610d2c602691396001600160a01b0386166000908152602081905260409020549190610993565b6001600160a01b0380851660009081526020819052604080822093909355908416815220546109399082610a2a565b6001600160a01b038084166000818152602081815260409182902094909455805185815290519193928716927fddf252ad1be2c89b69c2b068fc378daa952ba7f163c4a11628f55a4df523b3ef92918290030190a3505050565b60008184841115610a225760405162461bcd60e51b81526004018080602001828103825283818151815260200191508051906020019080838360005b838110156109e75781810151838201526020016109cf565b50505050905090810190601f168015610a145780820380516001836020036101000a031916815260200191505b509250505060405180910390fd5b505050900390565b600082820183811015610a84576040805162461bcd60e51b815260206004820152601b60248201527f536166654d6174683a206164646974696f6e206f766572666c6f770000000000604482015290519081900360640190fd5b9392505050565b6001600160a01b038216610ae6576040805162461bcd60e51b815260206004820152601f60248201527f45524332303a206d696e7420746f20746865207a65726f206164647265737300604482015290519081900360640190fd5b610af260008383610c77565b600254610aff9082610a2a565b6002556001600160a01b038216600090815260208190526040902054610b259082610a2a565b6001600160a01b0383166000818152602081815260408083209490945583518581529351929391927fddf252ad1be2c89b69c2b068fc378daa952ba7f163c4a11628f55a4df523b3ef9281900390910190a35050565b6001600160a01b038216610bc05760405162461bcd60e51b8152600401808060200182810382526021815260200180610d9e6021913960400191505060405180910390fd5b610bcc82600083610c77565b610c0981604051806060016040528060228152602001610ce8602291396001600160a01b0385166000908152602081905260409020549190610993565b6001600160a01b038316600090815260208190526040902055600254610c2f9082610c82565b6002556040805182815290516000916001600160a01b038516917fddf252ad1be2c89b69c2b068fc378daa952ba7f163c4a11628f55a4df523b3ef9181900360200190a35050565b610627838383610627565b6000610a8483836040518060400160405280601e81526020017f536166654d6174683a207375627472616374696f6e206f766572666c6f77000081525061099356fe45524332303a207472616e7366657220746f20746865207a65726f206164647265737345524332303a206275726e20616d6f756e7420657863656564732062616c616e636545524332303a20617070726f766520746f20746865207a65726f206164647265737345524332303a207472616e7366657220616d6f756e7420657863656564732062616c616e636545524332303a207472616e7366657220616d6f756e74206578636565647320616c6c6f77616e636545524332303a206275726e20616d6f756e74206578636565647320616c6c6f77616e636545524332303a206275726e2066726f6d20746865207a65726f206164647265737345524332303a207472616e736665722066726f6d20746865207a65726f206164647265737345524332303a20617070726f76652066726f6d20746865207a65726f206164647265737345524332303a2064656372656173656420616c6c6f77616e63652062656c6f77207a65726f5052495649506f644552433230546f6b656e3a204f6e6c7920466163746f72792063616e2063616c6c20746869732066756e6374696f6e2ea2646970667358221220d913245e5070de56081d56d6ca9638b01e36a78dc842dad020a03fa6af59ec9064736f6c634300060c0033456e756d657261626c655365743a20696e646578206f7574206f6620626f756e6473416363657373436f6e74726f6c3a2073656e646572206d75737420626520616e2061646d696e20746f206772616e745052495649506f644552433230466163746f72793a20696e76657374416d6f756e742073686f756c64206e6f74206265207a65726f2e416363657373436f6e74726f6c3a2073656e646572206d75737420626520616e2061646d696e20746f207265766f6b655052495649506f644552433230466163746f72793a204163636f756e7420616464726573732073686f756c64206e6f74206265207a65726f2e5052495649506f644552433230466163746f72793a206d7573742068617665204d4f44455241544f525f524f4c4520746f20696e7665737420666f7220696e766573746f722e5052495649506f644552433230466163746f72793a20506f6420616c7265616479206578697374732e416363657373436f6e74726f6c3a2063616e206f6e6c792072656e6f756e636520726f6c657320666f722073656c66a2646970667358221220d476e6bce5280f56bbaeb21aaeb0544a6a911c4b971d00b2eea3ae014f4d92a564736f6c634300060c0033",
  "immutableReferences": {},
  "source": "// SPDX-License-Identifier: MIT\n\npragma solidity ^0.6.12;\n\nimport \"@openzeppelin/contracts/access/AccessControl.sol\";\nimport \"@openzeppelin/contracts/math/SafeMath.sol\";\nimport \"./token/PRIVIPodERC20Token.sol\";\n\ncontract PRIVIPodERC20Factory is AccessControl {\n    using SafeMath for uint256;\n    \n    bytes32 public constant MODERATOR_ROLE = keccak256(\"MODERATOR_ROLE\");\n    \n    uint256 public totalPodCreated;\n    mapping (string => address) public podTokenAddresses;\n\n    event PodCreated(string indexed podId, string podTokenName, string podTokenSymbol);\n    \n    /**\n     * @dev Grants `DEFAULT_ADMIN_ROLE` and `MODERATOR_ROLE` to the\n     * account that deploys the contract.\n     *\n     */\n    constructor() public {\n        _setupRole(DEFAULT_ADMIN_ROLE, _msgSender());\n        _setupRole(MODERATOR_ROLE, _msgSender());\n    }\n    \n    /**\n     *@dev only MODERATOR_ROLE role can create pods\n     *\n     * Requirements:\n     *\n     * - pod should not exist before.\n     */\n    function createPod(string calldata podId, string calldata podTokenName, string calldata podTokenSymbol) public returns (address podAddress){\n        // require(hasRole(MODERATOR_ROLE, _msgSender()), \"PRIVIPodERC20Factory: must have MODERATOR_ROLE to create pod.\");\n        require(podTokenAddresses[podId] == address(0), \"PRIVIPodERC20Factory: Pod already exists.\");\n        PRIVIPodERC20Token podToken = new PRIVIPodERC20Token(podTokenName, podTokenSymbol , address(this));\n        podAddress = address(podToken);\n        totalPodCreated.add(1);\n        podTokenAddresses[podId] = podAddress;\n        emit PodCreated(podId, podTokenName, podTokenSymbol);\n    }\n    \n    /**\n     * @dev Moderator will mint the amount of pod token for the investor's account\n     *\n     * Requirements:\n     *\n     * - the caller must MODERATOR_ROLE to perform this action.\n     */\n    function podMint(string calldata podId, address account,  uint256 investAmount) public {\n        require(hasRole(MODERATOR_ROLE, _msgSender()), \"PRIVIPodERC20Factory: must have MODERATOR_ROLE to invest for investor.\");\n        require(account != address(0), \"PRIVIPodERC20Factory: Account address should not be zero.\");\n        require(investAmount > 0, \"PRIVIPodERC20Factory: investAmount should not be zero.\");\n        PRIVIPodERC20Token(podTokenAddresses[podId]).mint(account, investAmount);\n    }\n    \n}",
  "sourcePath": "/home/rekard0/Documents/WORK/PriviEthereum/PRIVIethereum/contracts/PRIVIPodERC20Factory.sol",
  "compiler": {
    "name": "solc",
    "version": "0.6.12+commit.27d51765.Emscripten.clang"
  },
  "schemaVersion": "3.3.3",
  "updatedAt": "2021-02-02T10:02:07.032Z",
  "networkType": "ethereum",
  "devdoc": {
    "kind": "dev",
    "methods": {
      "constructor": {
        "details": "Grants `DEFAULT_ADMIN_ROLE` and `MODERATOR_ROLE` to the account that deploys the contract."
      },
      "createPod(string,string,string)": {
        "details": "only MODERATOR_ROLE role can create pods Requirements: - pod should not exist before."
      },
      "getRoleAdmin(bytes32)": {
        "details": "Returns the admin role that controls `role`. See {grantRole} and {revokeRole}. To change a role's admin, use {_setRoleAdmin}."
      },
      "getRoleMember(bytes32,uint256)": {
        "details": "Returns one of the accounts that have `role`. `index` must be a value between 0 and {getRoleMemberCount}, non-inclusive. Role bearers are not sorted in any particular way, and their ordering may change at any point. WARNING: When using {getRoleMember} and {getRoleMemberCount}, make sure you perform all queries on the same block. See the following https://forum.openzeppelin.com/t/iterating-over-elements-on-enumerableset-in-openzeppelin-contracts/2296[forum post] for more information."
      },
      "getRoleMemberCount(bytes32)": {
        "details": "Returns the number of accounts that have `role`. Can be used together with {getRoleMember} to enumerate all bearers of a role."
      },
      "grantRole(bytes32,address)": {
        "details": "Grants `role` to `account`. If `account` had not been already granted `role`, emits a {RoleGranted} event. Requirements: - the caller must have ``role``'s admin role."
      },
      "hasRole(bytes32,address)": {
        "details": "Returns `true` if `account` has been granted `role`."
      },
      "podMint(string,address,uint256)": {
        "details": "Moderator will mint the amount of pod token for the investor's account Requirements: - the caller must MODERATOR_ROLE to perform this action."
      },
      "renounceRole(bytes32,address)": {
        "details": "Revokes `role` from the calling account. Roles are often managed via {grantRole} and {revokeRole}: this function's purpose is to provide a mechanism for accounts to lose their privileges if they are compromised (such as when a trusted device is misplaced). If the calling account had been granted `role`, emits a {RoleRevoked} event. Requirements: - the caller must be `account`."
      },
      "revokeRole(bytes32,address)": {
        "details": "Revokes `role` from `account`. If `account` had been granted `role`, emits a {RoleRevoked} event. Requirements: - the caller must have ``role``'s admin role."
      }
    },
    "version": 1
  },
  "userdoc": {
    "kind": "user",
    "methods": {},
    "version": 1
  }
}