{
  "contractName": "PRIVIPodERC721TokenRoyalty",
  "abi": [
    {
      "inputs": [
        {
          "internalType": "string",
          "name": "name",
          "type": "string"
        },
        {
          "internalType": "string",
          "name": "symbol",
          "type": "string"
        },
        {
          "internalType": "string",
          "name": "baseURI",
          "type": "string"
        },
        {
          "internalType": "address",
          "name": "factory",
          "type": "address"
        },
        {
          "internalType": "uint256",
          "name": "royaltyAmount",
          "type": "uint256"
        },
        {
          "internalType": "address",
          "name": "creator",
          "type": "address"
        }
      ],
      "stateMutability": "nonpayable",
      "type": "constructor"
    },
    {
      "anonymous": false,
      "inputs": [
        {
          "indexed": true,
          "internalType": "address",
          "name": "owner",
          "type": "address"
        },
        {
          "indexed": true,
          "internalType": "address",
          "name": "approved",
          "type": "address"
        },
        {
          "indexed": true,
          "internalType": "uint256",
          "name": "tokenId",
          "type": "uint256"
        }
      ],
      "name": "Approval",
      "type": "event"
    },
    {
      "anonymous": false,
      "inputs": [
        {
          "indexed": true,
          "internalType": "address",
          "name": "owner",
          "type": "address"
        },
        {
          "indexed": true,
          "internalType": "address",
          "name": "operator",
          "type": "address"
        },
        {
          "indexed": false,
          "internalType": "bool",
          "name": "approved",
          "type": "bool"
        }
      ],
      "name": "ApprovalForAll",
      "type": "event"
    },
    {
      "anonymous": false,
      "inputs": [
        {
          "indexed": true,
          "internalType": "address",
          "name": "creator",
          "type": "address"
        },
        {
          "indexed": true,
          "internalType": "address",
          "name": "buyer",
          "type": "address"
        },
        {
          "indexed": true,
          "internalType": "uint256",
          "name": "amount",
          "type": "uint256"
        }
      ],
      "name": "RecievedRoyalties",
      "type": "event"
    },
    {
      "anonymous": false,
      "inputs": [
        {
          "indexed": true,
          "internalType": "address",
          "name": "from",
          "type": "address"
        },
        {
          "indexed": true,
          "internalType": "address",
          "name": "to",
          "type": "address"
        },
        {
          "indexed": true,
          "internalType": "uint256",
          "name": "tokenId",
          "type": "uint256"
        }
      ],
      "name": "Transfer",
      "type": "event"
    },
    {
      "inputs": [
        {
          "internalType": "address",
          "name": "to",
          "type": "address"
        },
        {
          "internalType": "uint256",
          "name": "tokenId",
          "type": "uint256"
        }
      ],
      "name": "approve",
      "outputs": [],
      "stateMutability": "nonpayable",
      "type": "function"
    },
    {
      "inputs": [
        {
          "internalType": "address",
          "name": "owner",
          "type": "address"
        }
      ],
      "name": "balanceOf",
      "outputs": [
        {
          "internalType": "uint256",
          "name": "",
          "type": "uint256"
        }
      ],
      "stateMutability": "view",
      "type": "function"
    },
    {
      "inputs": [],
      "name": "baseURI",
      "outputs": [
        {
          "internalType": "string",
          "name": "",
          "type": "string"
        }
      ],
      "stateMutability": "view",
      "type": "function"
    },
    {
      "inputs": [
        {
          "internalType": "uint256",
          "name": "tokenId",
          "type": "uint256"
        }
      ],
      "name": "burn",
      "outputs": [],
      "stateMutability": "nonpayable",
      "type": "function"
    },
    {
      "inputs": [
        {
          "internalType": "uint256",
          "name": "tokenId",
          "type": "uint256"
        }
      ],
      "name": "getApproved",
      "outputs": [
        {
          "internalType": "address",
          "name": "",
          "type": "address"
        }
      ],
      "stateMutability": "view",
      "type": "function"
    },
    {
      "inputs": [],
      "name": "hasRoyalties",
      "outputs": [
        {
          "internalType": "bool",
          "name": "",
          "type": "bool"
        }
      ],
      "stateMutability": "pure",
      "type": "function"
    },
    {
      "inputs": [
        {
          "internalType": "address",
          "name": "owner",
          "type": "address"
        },
        {
          "internalType": "address",
          "name": "operator",
          "type": "address"
        }
      ],
      "name": "isApprovedForAll",
      "outputs": [
        {
          "internalType": "bool",
          "name": "",
          "type": "bool"
        }
      ],
      "stateMutability": "view",
      "type": "function"
    },
    {
      "inputs": [],
      "name": "name",
      "outputs": [
        {
          "internalType": "string",
          "name": "",
          "type": "string"
        }
      ],
      "stateMutability": "view",
      "type": "function"
    },
    {
      "inputs": [
        {
          "internalType": "uint256",
          "name": "tokenId",
          "type": "uint256"
        }
      ],
      "name": "ownerOf",
      "outputs": [
        {
          "internalType": "address",
          "name": "",
          "type": "address"
        }
      ],
      "stateMutability": "view",
      "type": "function"
    },
    {
      "inputs": [],
      "name": "parentFactory",
      "outputs": [
        {
          "internalType": "address",
          "name": "",
          "type": "address"
        }
      ],
      "stateMutability": "view",
      "type": "function"
    },
    {
      "inputs": [
        {
          "internalType": "address",
          "name": "_creator",
          "type": "address"
        },
        {
          "internalType": "address",
          "name": "_buyer",
          "type": "address"
        },
        {
          "internalType": "uint256",
          "name": "_amount",
          "type": "uint256"
        }
      ],
      "name": "royaltiesRecieved",
      "outputs": [],
      "stateMutability": "nonpayable",
      "type": "function"
    },
    {
      "inputs": [],
      "name": "royaltyAmount",
      "outputs": [
        {
          "internalType": "uint256",
          "name": "",
          "type": "uint256"
        }
      ],
      "stateMutability": "view",
      "type": "function"
    },
    {
      "inputs": [],
      "name": "royaltyCreator",
      "outputs": [
        {
          "internalType": "address",
          "name": "",
          "type": "address"
        }
      ],
      "stateMutability": "view",
      "type": "function"
    },
    {
      "inputs": [],
      "name": "royaltyInfo",
      "outputs": [
        {
          "internalType": "uint256",
          "name": "",
          "type": "uint256"
        },
        {
          "internalType": "address",
          "name": "",
          "type": "address"
        }
      ],
      "stateMutability": "view",
      "type": "function"
    },
    {
      "inputs": [
        {
          "internalType": "address",
          "name": "from",
          "type": "address"
        },
        {
          "internalType": "address",
          "name": "to",
          "type": "address"
        },
        {
          "internalType": "uint256",
          "name": "tokenId",
          "type": "uint256"
        }
      ],
      "name": "safeTransferFrom",
      "outputs": [],
      "stateMutability": "nonpayable",
      "type": "function"
    },
    {
      "inputs": [
        {
          "internalType": "address",
          "name": "from",
          "type": "address"
        },
        {
          "internalType": "address",
          "name": "to",
          "type": "address"
        },
        {
          "internalType": "uint256",
          "name": "tokenId",
          "type": "uint256"
        },
        {
          "internalType": "bytes",
          "name": "_data",
          "type": "bytes"
        }
      ],
      "name": "safeTransferFrom",
      "outputs": [],
      "stateMutability": "nonpayable",
      "type": "function"
    },
    {
      "inputs": [
        {
          "internalType": "address",
          "name": "operator",
          "type": "address"
        },
        {
          "internalType": "bool",
          "name": "approved",
          "type": "bool"
        }
      ],
      "name": "setApprovalForAll",
      "outputs": [],
      "stateMutability": "nonpayable",
      "type": "function"
    },
    {
      "inputs": [
        {
          "internalType": "bytes4",
          "name": "interfaceId",
          "type": "bytes4"
        }
      ],
      "name": "supportsInterface",
      "outputs": [
        {
          "internalType": "bool",
          "name": "",
          "type": "bool"
        }
      ],
      "stateMutability": "view",
      "type": "function"
    },
    {
      "inputs": [],
      "name": "symbol",
      "outputs": [
        {
          "internalType": "string",
          "name": "",
          "type": "string"
        }
      ],
      "stateMutability": "view",
      "type": "function"
    },
    {
      "inputs": [
        {
          "internalType": "uint256",
          "name": "index",
          "type": "uint256"
        }
      ],
      "name": "tokenByIndex",
      "outputs": [
        {
          "internalType": "uint256",
          "name": "",
          "type": "uint256"
        }
      ],
      "stateMutability": "view",
      "type": "function"
    },
    {
      "inputs": [
        {
          "internalType": "address",
          "name": "owner",
          "type": "address"
        },
        {
          "internalType": "uint256",
          "name": "index",
          "type": "uint256"
        }
      ],
      "name": "tokenOfOwnerByIndex",
      "outputs": [
        {
          "internalType": "uint256",
          "name": "",
          "type": "uint256"
        }
      ],
      "stateMutability": "view",
      "type": "function"
    },
    {
      "inputs": [
        {
          "internalType": "uint256",
          "name": "tokenId",
          "type": "uint256"
        }
      ],
      "name": "tokenURI",
      "outputs": [
        {
          "internalType": "string",
          "name": "",
          "type": "string"
        }
      ],
      "stateMutability": "view",
      "type": "function"
    },
    {
      "inputs": [],
      "name": "totalSupply",
      "outputs": [
        {
          "internalType": "uint256",
          "name": "",
          "type": "uint256"
        }
      ],
      "stateMutability": "view",
      "type": "function"
    },
    {
      "inputs": [
        {
          "internalType": "address",
          "name": "from",
          "type": "address"
        },
        {
          "internalType": "address",
          "name": "to",
          "type": "address"
        },
        {
          "internalType": "uint256",
          "name": "tokenId",
          "type": "uint256"
        }
      ],
      "name": "transferFrom",
      "outputs": [],
      "stateMutability": "nonpayable",
      "type": "function"
    },
    {
      "inputs": [
        {
          "internalType": "address",
          "name": "to",
          "type": "address"
        }
      ],
      "name": "mint",
      "outputs": [],
      "stateMutability": "nonpayable",
      "type": "function"
    },
    {
      "inputs": [
        {
          "internalType": "uint256",
          "name": "sellAmount",
          "type": "uint256"
        },
        {
          "internalType": "uint256",
          "name": "tokenId",
          "type": "uint256"
        },
        {
          "internalType": "address",
          "name": "from",
          "type": "address"
        },
        {
          "internalType": "address",
          "name": "to",
          "type": "address"
        }
      ],
      "name": "marketSell",
      "outputs": [],
      "stateMutability": "payable",
      "type": "function"
    }
  ],
  "bytecode": "0x60806040523480156200001157600080fd5b506040516200275b3803806200275b833981810160405260c08110156200003757600080fd5b81019080805160405193929190846401000000008211156200005857600080fd5b9083019060208201858111156200006e57600080fd5b82516401000000008111828201881017156200008957600080fd5b82525081516020918201929091019080838360005b83811015620000b85781810151838201526020016200009e565b50505050905090810190601f168015620000e65780820380516001836020036101000a031916815260200191505b50604052602001805160405193929190846401000000008211156200010a57600080fd5b9083019060208201858111156200012057600080fd5b82516401000000008111828201881017156200013b57600080fd5b82525081516020918201929091019080838360005b838110156200016a57818101518382015260200162000150565b50505050905090810190601f168015620001985780820380516001836020036101000a031916815260200191505b5060405260200180516040519392919084640100000000821115620001bc57600080fd5b908301906020820185811115620001d257600080fd5b8251640100000000811182820188101715620001ed57600080fd5b82525081516020918201929091019080838360005b838110156200021c57818101518382015260200162000202565b50505050905090810190601f1680156200024a5780820380516001836020036101000a031916815260200191505b506040908152602082015190820151606090920151909350909150818187876200027b6301ffc9a760e01b6200032b565b815162000290906006906020850190620003c9565b508051620002a6906007906020840190620003c9565b50620002b96380ac58cd60e01b6200032b565b620002cb635b5e139f60e01b6200032b565b620002dd63780e9d6360e01b6200032b565b5050600a91909155600b80546001600160a01b03199081166001600160a01b0393841617909155600d80549091169185169190911790556200031f84620003b0565b50505050505062000475565b6001600160e01b031980821614156200038b576040805162461bcd60e51b815260206004820152601c60248201527f4552433136353a20696e76616c696420696e7465726661636520696400000000604482015290519081900360640190fd5b6001600160e01b0319166000908152602081905260409020805460ff19166001179055565b8051620003c5906009906020840190620003c9565b5050565b828054600181600116156101000203166002900490600052602060002090601f0160209004810192826200040157600085556200044c565b82601f106200041c57805160ff19168380011785556200044c565b828001600101855582156200044c579182015b828111156200044c5782518255916020019190600101906200042f565b506200045a9291506200045e565b5090565b5b808211156200045a57600081556001016200045f565b6122d680620004856000396000f3fe6080604052600436106101a15760003560e01c80636a627842116100e15780639822e8c01161008a578063b88d4fde11610064578063b88d4fde146105f5578063c87b56dd146106c8578063cfd0244b146106f2578063e985e9c51461072c576101a1565b80639822e8c0146105905780639d35c161146105a5578063a22cb465146105ba576101a1565b80637c6e551d116100bb5780637c6e551d1461052357806384a09c271461053857806395d89b411461057b576101a1565b80636a627842146104a85780636c0360eb146104db57806370a08231146104f0576101a1565b80632f745c591161014e57806346e807201161012857806346e80720146104095780634f6ccce71461043f5780636352211e14610469578063656605d614610493576101a1565b80632f745c591461036357806342842e0e1461039c57806342966c68146103df576101a1565b8063095ea7b31161017f578063095ea7b3146102be57806318160ddd146102f957806323b872dd14610320576101a1565b806301ffc9a7146101a657806306fdde03146101ee578063081812fc14610278575b600080fd5b3480156101b257600080fd5b506101da600480360360208110156101c957600080fd5b50356001600160e01b031916610767565b604080519115158252519081900360200190f35b3480156101fa57600080fd5b5061020361078a565b6040805160208082528351818301528351919283929083019185019080838360005b8381101561023d578181015183820152602001610225565b50505050905090810190601f16801561026a5780820380516001836020036101000a031916815260200191505b509250505060405180910390f35b34801561028457600080fd5b506102a26004803603602081101561029b57600080fd5b5035610820565b604080516001600160a01b039092168252519081900360200190f35b3480156102ca57600080fd5b506102f7600480360360408110156102e157600080fd5b506001600160a01b038135169060200135610882565b005b34801561030557600080fd5b5061030e61095d565b60408051918252519081900360200190f35b34801561032c57600080fd5b506102f76004803603606081101561034357600080fd5b506001600160a01b0381358116916020810135909116906040013561096e565b34801561036f57600080fd5b5061030e6004803603604081101561038657600080fd5b506001600160a01b0381351690602001356109c5565b3480156103a857600080fd5b506102f7600480360360608110156103bf57600080fd5b506001600160a01b038135811691602081013590911690604001356109f0565b3480156103eb57600080fd5b506102f76004803603602081101561040257600080fd5b5035610a0b565b34801561041557600080fd5b5061041e610a5d565b604080519283526001600160a01b0390911660208301528051918290030190f35b34801561044b57600080fd5b5061030e6004803603602081101561046257600080fd5b5035610a70565b34801561047557600080fd5b506102a26004803603602081101561048c57600080fd5b5035610a86565b34801561049f57600080fd5b506101da610aae565b3480156104b457600080fd5b506102f7600480360360208110156104cb57600080fd5b50356001600160a01b0316610ab3565b3480156104e757600080fd5b50610203610b29565b3480156104fc57600080fd5b5061030e6004803603602081101561051357600080fd5b50356001600160a01b0316610b8a565b34801561052f57600080fd5b5061030e610bf2565b34801561054457600080fd5b506102f76004803603606081101561055b57600080fd5b506001600160a01b03813581169160208101359091169060400135610bf8565b34801561058757600080fd5b50610203610c3e565b34801561059c57600080fd5b506102a2610c9f565b3480156105b157600080fd5b506102a2610cae565b3480156105c657600080fd5b506102f7600480360360408110156105dd57600080fd5b506001600160a01b0381351690602001351515610cbd565b34801561060157600080fd5b506102f76004803603608081101561061857600080fd5b6001600160a01b0382358116926020810135909116916040820135919081019060808101606082013564010000000081111561065357600080fd5b82018360208201111561066557600080fd5b8035906020019184600183028401116401000000008311171561068757600080fd5b91908080601f016020809104026020016040519081016040528093929190818152602001838380828437600092019190915250929550610dc2945050505050565b3480156106d457600080fd5b50610203600480360360208110156106eb57600080fd5b5035610e20565b6102f76004803603608081101561070857600080fd5b508035906020810135906001600160a01b03604082013581169160600135166110a1565b34801561073857600080fd5b506101da6004803603604081101561074f57600080fd5b506001600160a01b03813581169160200135166111b8565b6001600160e01b0319811660009081526020819052604090205460ff165b919050565b60068054604080516020601f60026000196101006001881615020190951694909404938401819004810282018101909252828152606093909290918301828280156108165780601f106107eb57610100808354040283529160200191610816565b820191906000526020600020905b8154815290600101906020018083116107f957829003601f168201915b5050505050905090565b600061082b826111e6565b6108665760405162461bcd60e51b815260040180806020018281038252602c815260200180612162602c913960400191505060405180910390fd5b506000908152600460205260409020546001600160a01b031690565b600061088d82610a86565b9050806001600160a01b0316836001600160a01b031614156108e05760405162461bcd60e51b81526004018080602001828103825260218152602001806121e66021913960400191505060405180910390fd5b806001600160a01b03166108f26111f3565b6001600160a01b0316148061091357506109138161090e6111f3565b6111b8565b61094e5760405162461bcd60e51b81526004018080602001828103825260388152602001806120b56038913960400191505060405180910390fd5b61095883836111f7565b505050565b60006109696002611272565b905090565b61097f6109796111f3565b8261127d565b6109ba5760405162461bcd60e51b81526004018080602001828103825260318152602001806122076031913960400191505060405180910390fd5b610958838383611321565b6001600160a01b03821660009081526001602052604081206109e7908361146d565b90505b92915050565b61095883838360405180602001604052806000815250610dc2565b610a166109796111f3565b610a515760405162461bcd60e51b81526004018080602001828103825260308152602001806122716030913960400191505060405180910390fd5b610a5a81611479565b50565b600a54600b546001600160a01b03169091565b600080610a7e600284611546565b509392505050565b60006109ea826040518060600160405280602981526020016121176029913960029190611562565b600190565b600d546001600160a01b0316610ac76111f3565b6001600160a01b031614610b0c5760405162461bcd60e51b815260040180806020018281038252603981526020018061202c6039913960400191505060405180910390fd5b610b1f81610b1a600c611579565b61157d565b610a5a600c6116ab565b60098054604080516020601f60026000196101006001881615020190951694909404938401819004810282018101909252828152606093909290918301828280156108165780601f106107eb57610100808354040283529160200191610816565b60006001600160a01b038216610bd15760405162461bcd60e51b815260040180806020018281038252602a8152602001806120ed602a913960400191505060405180910390fd5b6001600160a01b03821660009081526001602052604090206109ea90611272565b600a5490565b80826001600160a01b0316846001600160a01b03167f06cb0b9d04d0ac2a93b9b9a93ee6c2511e069efb107c06eee43c85021fbc04ed60405160405180910390a4505050565b60078054604080516020601f60026000196101006001881615020190951694909404938401819004810282018101909252828152606093909290918301828280156108165780601f106107eb57610100808354040283529160200191610816565b600b546001600160a01b031690565b600d546001600160a01b031681565b610cc56111f3565b6001600160a01b0316826001600160a01b03161415610d2b576040805162461bcd60e51b815260206004820152601960248201527f4552433732313a20617070726f766520746f2063616c6c657200000000000000604482015290519081900360640190fd5b8060056000610d386111f3565b6001600160a01b03908116825260208083019390935260409182016000908120918716808252919093529120805460ff191692151592909217909155610d7c6111f3565b6001600160a01b03167f17307eab39ab6107e8899845ad3d59bd9653f200f220920489ca2b5937696c318360405180821515815260200191505060405180910390a35050565b610dd3610dcd6111f3565b8361127d565b610e0e5760405162461bcd60e51b81526004018080602001828103825260318152602001806122076031913960400191505060405180910390fd5b610e1a848484846116b4565b50505050565b6060610e2b826111e6565b610e665760405162461bcd60e51b815260040180806020018281038252602f8152602001806121b7602f913960400191505060405180910390fd5b60008281526008602090815260408083208054825160026001831615610100026000190190921691909104601f810185900485028201850190935282815292909190830182828015610ef95780601f10610ece57610100808354040283529160200191610ef9565b820191906000526020600020905b815481529060010190602001808311610edc57829003601f168201915b505050505090506000610f0a610b29565b9050805160001415610f1e57509050610785565b815115610fdf5780826040516020018083805190602001908083835b60208310610f595780518252601f199092019160209182019101610f3a565b51815160209384036101000a600019018019909216911617905285519190930192850191508083835b60208310610fa15780518252601f199092019160209182019101610f82565b6001836020036101000a0380198251168184511680821785525050505050509050019250505060405160208183030381529060405292505050610785565b80610fe985611706565b6040516020018083805190602001908083835b6020831061101b5780518252601f199092019160209182019101610ffc565b51815160209384036101000a600019018019909216911617905285519190930192850191508083835b602083106110635780518252601f199092019160209182019101611044565b6001836020036101000a0380198251168184511680821785525050505050509050019250505060405160208183030381529060405292505050919050565b8334146110df5760405162461bcd60e51b81526004018080602001828103825260398152602001806122386039913960400191505060405180910390fd5b60006064600a543402816110ef57fe5b600b546040519290910492506001600160a01b031690819083156108fc029084906000818181858888f1935050505015801561112f573d6000803e3d6000fd5b506040516001600160a01b038516903484900380156108fc02916000818181858888f19350505050158015611168573d6000803e3d6000fd5b506111998484876040518060400160405280600c81526020016b1c9bde585b1d1e481c185a5960a21b815250610dc2565b600b546111b0906001600160a01b03168484610bf8565b505050505050565b6001600160a01b03918216600090815260056020908152604080832093909416825291909152205460ff1690565b60006109ea6002836117f9565b3390565b6000818152600460205260409020805473ffffffffffffffffffffffffffffffffffffffff19166001600160a01b038416908117909155819061123982610a86565b6001600160a01b03167f8c5be1e5ebec7d5bd14f71427d1e84f3dd0314c0f7b2291e5b200ac8c7c3b92560405160405180910390a45050565b60006109ea82611579565b6000611288826111e6565b6112c35760405162461bcd60e51b815260040180806020018281038252602c815260200180612089602c913960400191505060405180910390fd5b60006112ce83610a86565b9050806001600160a01b0316846001600160a01b031614806113095750836001600160a01b03166112fe84610820565b6001600160a01b0316145b80611319575061131981856111b8565b949350505050565b826001600160a01b031661133482610a86565b6001600160a01b0316146113795760405162461bcd60e51b815260040180806020018281038252602981526020018061218e6029913960400191505060405180910390fd5b6001600160a01b0382166113be5760405162461bcd60e51b81526004018080602001828103825260248152602001806120656024913960400191505060405180910390fd5b6113c9838383611805565b6113d46000826111f7565b6001600160a01b03831660009081526001602052604090206113f69082611810565b506001600160a01b0382166000908152600160205260409020611419908261181c565b5061142660028284611828565b5080826001600160a01b0316846001600160a01b03167fddf252ad1be2c89b69c2b068fc378daa952ba7f163c4a11628f55a4df523b3ef60405160405180910390a4505050565b60006109e7838361183e565b600061148482610a86565b905061149281600084611805565b61149d6000836111f7565b60008281526008602052604090205460026000196101006001841615020190911604156114db5760008281526008602052604081206114db91611f7f565b6001600160a01b03811660009081526001602052604090206114fd9083611810565b506115096002836118a2565b5060405182906000906001600160a01b038416907fddf252ad1be2c89b69c2b068fc378daa952ba7f163c4a11628f55a4df523b3ef908390a45050565b600080808061155586866118ae565b9097909650945050505050565b600061156f848484611929565b90505b9392505050565b5490565b6001600160a01b0382166115d8576040805162461bcd60e51b815260206004820181905260248201527f4552433732313a206d696e7420746f20746865207a65726f2061646472657373604482015290519081900360640190fd5b6115e1816111e6565b15611633576040805162461bcd60e51b815260206004820152601c60248201527f4552433732313a20746f6b656e20616c7265616479206d696e74656400000000604482015290519081900360640190fd5b61163f60008383611805565b6001600160a01b0382166000908152600160205260409020611661908261181c565b5061166e60028284611828565b5060405181906001600160a01b038416906000907fddf252ad1be2c89b69c2b068fc378daa952ba7f163c4a11628f55a4df523b3ef908290a45050565b80546001019055565b6116bf848484611321565b6116cb848484846119f3565b610e1a5760405162461bcd60e51b8152600401808060200182810382526032815260200180611ffa6032913960400191505060405180910390fd5b60608161172b57506040805180820190915260018152600360fc1b6020820152610785565b8160005b811561174357600101600a8204915061172f565b60008167ffffffffffffffff8111801561175c57600080fd5b506040519080825280601f01601f191660200182016040528015611787576020820181803683370190505b50859350905060001982015b83156117f057600a840660300160f81b828280600190039350815181106117b657fe5b60200101907effffffffffffffffffffffffffffffffffffffffffffffffffffffffffffff1916908160001a905350600a84049350611793565b50949350505050565b60006109e78383611b5b565b610958838383610958565b60006109e78383611b73565b60006109e78383611c39565b600061156f84846001600160a01b038516611c83565b815460009082106118805760405162461bcd60e51b8152600401808060200182810382526022815260200180611fd86022913960400191505060405180910390fd5b82600001828154811061188f57fe5b9060005260206000200154905092915050565b60006109e78383611d1a565b8154600090819083106118f25760405162461bcd60e51b81526004018080602001828103825260228152602001806121406022913960400191505060405180910390fd5b600084600001848154811061190357fe5b906000526020600020906002020190508060000154816001015492509250509250929050565b600082815260018401602052604081205482816119c45760405162461bcd60e51b81526004018080602001828103825283818151815260200191508051906020019080838360005b83811015611989578181015183820152602001611971565b50505050905090810190601f1680156119b65780820380516001836020036101000a031916815260200191505b509250505060405180910390fd5b508460000160018203815481106119d757fe5b9060005260206000209060020201600101549150509392505050565b6000611a07846001600160a01b0316611dee565b611a1357506001611319565b6000611b21630a85bd0160e11b611a286111f3565b88878760405160240180856001600160a01b03168152602001846001600160a01b0316815260200183815260200180602001828103825283818151815260200191508051906020019080838360005b83811015611a8f578181015183820152602001611a77565b50505050905090810190601f168015611abc5780820380516001836020036101000a031916815260200191505b5095505050505050604051602081830303815290604052906001600160e01b0319166020820180516001600160e01b038381831617835250505050604051806060016040528060328152602001611ffa603291396001600160a01b0388169190611df4565b90506000818060200190516020811015611b3a57600080fd5b50516001600160e01b031916630a85bd0160e11b1492505050949350505050565b60009081526001919091016020526040902054151590565b60008181526001830160205260408120548015611c2f5783546000198083019190810190600090879083908110611ba657fe5b9060005260206000200154905080876000018481548110611bc357fe5b600091825260208083209091019290925582815260018981019092526040902090840190558654879080611bf357fe5b600190038181906000526020600020016000905590558660010160008781526020019081526020016000206000905560019450505050506109ea565b60009150506109ea565b6000611c458383611b5b565b611c7b575081546001818101845560008481526020808220909301849055845484825282860190935260409020919091556109ea565b5060006109ea565b600082815260018401602052604081205480611ce8575050604080518082018252838152602080820184815286546001818101895560008981528481209551600290930290950191825591519082015586548684528188019092529290912055611572565b82856000016001830381548110611cfb57fe5b9060005260206000209060020201600101819055506000915050611572565b60008181526001830160205260408120548015611c2f5783546000198083019190810190600090879083908110611d4d57fe5b9060005260206000209060020201905080876000018481548110611d6d57fe5b600091825260208083208454600290930201918255600193840154918401919091558354825289830190526040902090840190558654879080611dac57fe5b60008281526020808220600260001990940193840201828155600190810183905592909355888152898201909252604082209190915594506109ea9350505050565b3b151590565b606061156f848460008585611e0885611dee565b611e59576040805162461bcd60e51b815260206004820152601d60248201527f416464726573733a2063616c6c20746f206e6f6e2d636f6e7472616374000000604482015290519081900360640190fd5b600080866001600160a01b031685876040518082805190602001908083835b60208310611e975780518252601f199092019160209182019101611e78565b6001836020036101000a03801982511681845116808217855250505050505090500191505060006040518083038185875af1925050503d8060008114611ef9576040519150601f19603f3d011682016040523d82523d6000602084013e611efe565b606091505b5091509150611f0e828286611f19565b979650505050505050565b60608315611f28575081611572565b825115611f385782518084602001fd5b60405162461bcd60e51b8152602060048201818152845160248401528451859391928392604401919085019080838360008315611989578181015183820152602001611971565b50805460018160011615610100020316600290046000825580601f10611fa55750610a5a565b601f016020900490600052602060002090810190610a5a91905b80821115611fd35760008155600101611fbf565b509056fe456e756d657261626c655365743a20696e646578206f7574206f6620626f756e64734552433732313a207472616e7366657220746f206e6f6e20455243373231526563656976657220696d706c656d656e7465725052495649506f64455243373231546f6b656e3a204f6e6c7920466163746f72792063616e2063616c6c20746869732066756e6374696f6e2e4552433732313a207472616e7366657220746f20746865207a65726f20616464726573734552433732313a206f70657261746f7220717565727920666f72206e6f6e6578697374656e7420746f6b656e4552433732313a20617070726f76652063616c6c6572206973206e6f74206f776e6572206e6f7220617070726f76656420666f7220616c6c4552433732313a2062616c616e636520717565727920666f7220746865207a65726f20616464726573734552433732313a206f776e657220717565727920666f72206e6f6e6578697374656e7420746f6b656e456e756d657261626c654d61703a20696e646578206f7574206f6620626f756e64734552433732313a20617070726f76656420717565727920666f72206e6f6e6578697374656e7420746f6b656e4552433732313a207472616e73666572206f6620746f6b656e2074686174206973206e6f74206f776e4552433732314d657461646174613a2055524920717565727920666f72206e6f6e6578697374656e7420746f6b656e4552433732313a20617070726f76616c20746f2063757272656e74206f776e65724552433732313a207472616e736665722063616c6c6572206973206e6f74206f776e6572206e6f7220617070726f7665645052495649506f64455243373231546f6b656e526f79616c74793a20726f79616c747920616d6f756e74206973206e6f7420636f72726563744552433732314275726e61626c653a2063616c6c6572206973206e6f74206f776e6572206e6f7220617070726f766564a2646970667358221220246ccea368a678504c643d5be8cd4d81f9681bdf3282f2e5afba46fb7aadd58b64736f6c63430007060033",
  "immutableReferences": {},
  "source": "// SPDX-License-Identifier: MIT\n\npragma solidity ^0.7.6;\n\nimport \"@openzeppelin/contracts/GSN/Context.sol\";\nimport \"@openzeppelin/contracts/utils/Counters.sol\";\nimport \"@openzeppelin/contracts/token/ERC721/ERC721.sol\";\nimport \"@openzeppelin/contracts/token/ERC721/ERC721Burnable.sol\";\nimport \"../abstracts/NFTRoyalty.sol\";\n\n/**\n * @dev {ERC20} token, including:\n *\n *  - ability for holders to burn (destroy) their tokens\n *  - a factoryOnly modifier, that grants mint capabilities only to factory who deployed this pod token contract\n *\n */\ncontract PRIVIPodERC721TokenRoyalty is Context, ERC721Burnable, NFTRoyalty {\n    using Counters for Counters.Counter;\n    Counters.Counter private _tokenIdTracker;\n    address public parentFactory;\n\n    /**\n     * @dev Sets factory address\n     *\n     * See {ERC20-constructor}.\n     */\n    constructor(string memory name, string memory symbol, string memory baseURI, address factory, uint256 royaltyAmount, address creator) \n        ERC721(name, symbol) \n        NFTRoyalty(royaltyAmount, creator) {\n\n        parentFactory = factory;\n        _setBaseURI(baseURI);\n    }\n\n    modifier onlyFactory() {\n        require(_msgSender() == parentFactory, \"PRIVIPodERC721Token: Only Factory can call this function.\");\n        _;\n    }\n\n    /**\n     * @dev Creates `amount` new tokens for `to`.\n     *\n     * See {ERC20-_mint}.\n     *\n     * Requirements:\n     *\n     * - the caller must be factory only.\n     */\n    function mint(address to) public virtual onlyFactory{\n        // We cannot just use balanceOf to create the new tokenId because tokens\n        // can be burned (destroyed), so we need a separate counter.\n        _mint(to, _tokenIdTracker.current());\n        _tokenIdTracker.increment();\n    }\n\n    /**\n     * @dev Safely transfers `tokenId` token from `from` to `to`, checking first that contract recipients\n     * are aware of the ERC721 protocol to prevent tokens from being forever locked.\n     * Then pay royalty amount.\n     *\n     * Requirements:\n     *\n     * - approval from current owner of token id\n     *\n     * Emits a {RecievedRoyalties} event.\n     * \n     * Problems: TODO: may have reentrancy \n     */\n    function marketSell(uint256 sellAmount, uint256 tokenId, address from, address to) public payable {\n        // make sure all the fund is deposited here first\n        require(msg.value == sellAmount, \"PRIVIPodERC721TokenRoyalty: royalty amount is not correct\");\n        \n        // pay creator\n        uint256 creatorShare = (msg.value * royalty_amount) / 100;  // TODO: not safe, must use safeMath\n        address payable royaltyOwner = payable(creator);\n        royaltyOwner.transfer(creatorShare);\n        \n        // pay current owner\n        payable(from).transfer(msg.value - creatorShare);\n        \n        // transfer token\n        safeTransferFrom(from, to, tokenId, bytes(\"royalty paid\"));\n        \n        // event\n        royaltiesRecieved(creator, to, creatorShare);\n    }\n    \n\n    function _beforeTokenTransfer(address from, address to, uint256 tokenId) internal virtual override(ERC721) {\n        super._beforeTokenTransfer(from, to, tokenId);\n    }\n}\n",
  "sourcePath": "/home/rekard0/Documents/WORK/PriviEthereum/PRIVIethereum/contracts/token/PRIVIPodERC721TokenRoyalty.sol",
  "compiler": {
    "name": "solc",
    "version": "0.7.6+commit.7338295f.Emscripten.clang"
  },
  "schemaVersion": "3.3.3",
  "updatedAt": "2021-03-15T12:54:23.395Z",
  "devdoc": {
    "details": "{ERC20} token, including:  - ability for holders to burn (destroy) their tokens  - a factoryOnly modifier, that grants mint capabilities only to factory who deployed this pod token contract",
    "kind": "dev",
    "methods": {
      "approve(address,uint256)": {
        "details": "See {IERC721-approve}."
      },
      "balanceOf(address)": {
        "details": "See {IERC721-balanceOf}."
      },
      "baseURI()": {
        "details": "Returns the base URI set via {_setBaseURI}. This will be automatically added as a prefix in {tokenURI} to each token's URI, or to the token ID if no specific URI is set for that token ID."
      },
      "burn(uint256)": {
        "details": "Burns `tokenId`. See {ERC721-_burn}. Requirements: - The caller must own `tokenId` or be an approved operator."
      },
      "constructor": {
        "details": "Sets factory address See {ERC20-constructor}."
      },
      "getApproved(uint256)": {
        "details": "See {IERC721-getApproved}."
      },
      "isApprovedForAll(address,address)": {
        "details": "See {IERC721-isApprovedForAll}."
      },
      "marketSell(uint256,uint256,address,address)": {
        "details": "Safely transfers `tokenId` token from `from` to `to`, checking first that contract recipients are aware of the ERC721 protocol to prevent tokens from being forever locked. Then pay royalty amount. Requirements: - approval from current owner of token id Emits a {RecievedRoyalties} event.  Problems: TODO: may have reentrancy "
      },
      "mint(address)": {
        "details": "Creates `amount` new tokens for `to`. See {ERC20-_mint}. Requirements: - the caller must be factory only."
      },
      "name()": {
        "details": "See {IERC721Metadata-name}."
      },
      "ownerOf(uint256)": {
        "details": "See {IERC721-ownerOf}."
      },
      "safeTransferFrom(address,address,uint256)": {
        "details": "See {IERC721-safeTransferFrom}."
      },
      "safeTransferFrom(address,address,uint256,bytes)": {
        "details": "See {IERC721-safeTransferFrom}."
      },
      "setApprovalForAll(address,bool)": {
        "details": "See {IERC721-setApprovalForAll}."
      },
      "supportsInterface(bytes4)": {
        "details": "See {IERC165-supportsInterface}. Time complexity O(1), guaranteed to always use less than 30 000 gas."
      },
      "symbol()": {
        "details": "See {IERC721Metadata-symbol}."
      },
      "tokenByIndex(uint256)": {
        "details": "See {IERC721Enumerable-tokenByIndex}."
      },
      "tokenOfOwnerByIndex(address,uint256)": {
        "details": "See {IERC721Enumerable-tokenOfOwnerByIndex}."
      },
      "tokenURI(uint256)": {
        "details": "See {IERC721Metadata-tokenURI}."
      },
      "totalSupply()": {
        "details": "See {IERC721Enumerable-totalSupply}."
      },
      "transferFrom(address,address,uint256)": {
        "details": "See {IERC721-transferFrom}."
      }
    },
    "version": 1
  },
  "userdoc": {
    "events": {
      "RecievedRoyalties(address,address,uint256)": {
        "notice": "(Mandatory) This event is emitted when royalties are transfered."
      }
    },
    "kind": "user",
    "methods": {
      "hasRoyalties()": {
        "notice": "(optional) check if NFT has royalty"
      },
      "royaltiesRecieved(address,address,uint256)": {
        "notice": "(optional) check if NFT has royalty"
      },
      "royaltyAmount()": {
        "notice": "(optional) get royalty amount"
      },
      "royaltyCreator()": {
        "notice": "(optional) get royalty creator address"
      },
      "royaltyInfo()": {
        "notice": "(Mandatory) This Function retrieve royalty info."
      }
    },
    "version": 1
  }
}