{
  "contractName": "PRIVIPodERC1155Token",
  "abi": [
    {
      "inputs": [
        {
          "internalType": "string",
          "name": "uri",
          "type": "string"
        },
        {
          "internalType": "address",
          "name": "factory",
          "type": "address"
        }
      ],
      "stateMutability": "nonpayable",
      "type": "constructor"
    },
    {
      "anonymous": false,
      "inputs": [
        {
          "indexed": true,
          "internalType": "address",
          "name": "account",
          "type": "address"
        },
        {
          "indexed": true,
          "internalType": "address",
          "name": "operator",
          "type": "address"
        },
        {
          "indexed": false,
          "internalType": "bool",
          "name": "approved",
          "type": "bool"
        }
      ],
      "name": "ApprovalForAll",
      "type": "event"
    },
    {
      "anonymous": false,
      "inputs": [
        {
          "indexed": true,
          "internalType": "address",
          "name": "operator",
          "type": "address"
        },
        {
          "indexed": true,
          "internalType": "address",
          "name": "from",
          "type": "address"
        },
        {
          "indexed": true,
          "internalType": "address",
          "name": "to",
          "type": "address"
        },
        {
          "indexed": false,
          "internalType": "uint256[]",
          "name": "ids",
          "type": "uint256[]"
        },
        {
          "indexed": false,
          "internalType": "uint256[]",
          "name": "values",
          "type": "uint256[]"
        }
      ],
      "name": "TransferBatch",
      "type": "event"
    },
    {
      "anonymous": false,
      "inputs": [
        {
          "indexed": true,
          "internalType": "address",
          "name": "operator",
          "type": "address"
        },
        {
          "indexed": true,
          "internalType": "address",
          "name": "from",
          "type": "address"
        },
        {
          "indexed": true,
          "internalType": "address",
          "name": "to",
          "type": "address"
        },
        {
          "indexed": false,
          "internalType": "uint256",
          "name": "id",
          "type": "uint256"
        },
        {
          "indexed": false,
          "internalType": "uint256",
          "name": "value",
          "type": "uint256"
        }
      ],
      "name": "TransferSingle",
      "type": "event"
    },
    {
      "anonymous": false,
      "inputs": [
        {
          "indexed": false,
          "internalType": "string",
          "name": "value",
          "type": "string"
        },
        {
          "indexed": true,
          "internalType": "uint256",
          "name": "id",
          "type": "uint256"
        }
      ],
      "name": "URI",
      "type": "event"
    },
    {
      "inputs": [
        {
          "internalType": "address",
          "name": "account",
          "type": "address"
        },
        {
          "internalType": "uint256",
          "name": "id",
          "type": "uint256"
        }
      ],
      "name": "balanceOf",
      "outputs": [
        {
          "internalType": "uint256",
          "name": "",
          "type": "uint256"
        }
      ],
      "stateMutability": "view",
      "type": "function"
    },
    {
      "inputs": [
        {
          "internalType": "address[]",
          "name": "accounts",
          "type": "address[]"
        },
        {
          "internalType": "uint256[]",
          "name": "ids",
          "type": "uint256[]"
        }
      ],
      "name": "balanceOfBatch",
      "outputs": [
        {
          "internalType": "uint256[]",
          "name": "",
          "type": "uint256[]"
        }
      ],
      "stateMutability": "view",
      "type": "function"
    },
    {
      "inputs": [
        {
          "internalType": "address",
          "name": "account",
          "type": "address"
        },
        {
          "internalType": "uint256",
          "name": "id",
          "type": "uint256"
        },
        {
          "internalType": "uint256",
          "name": "value",
          "type": "uint256"
        }
      ],
      "name": "burn",
      "outputs": [],
      "stateMutability": "nonpayable",
      "type": "function"
    },
    {
      "inputs": [
        {
          "internalType": "address",
          "name": "account",
          "type": "address"
        },
        {
          "internalType": "uint256[]",
          "name": "ids",
          "type": "uint256[]"
        },
        {
          "internalType": "uint256[]",
          "name": "values",
          "type": "uint256[]"
        }
      ],
      "name": "burnBatch",
      "outputs": [],
      "stateMutability": "nonpayable",
      "type": "function"
    },
    {
      "inputs": [
        {
          "internalType": "address",
          "name": "account",
          "type": "address"
        },
        {
          "internalType": "address",
          "name": "operator",
          "type": "address"
        }
      ],
      "name": "isApprovedForAll",
      "outputs": [
        {
          "internalType": "bool",
          "name": "",
          "type": "bool"
        }
      ],
      "stateMutability": "view",
      "type": "function"
    },
    {
      "inputs": [],
      "name": "parentFactory",
      "outputs": [
        {
          "internalType": "address",
          "name": "",
          "type": "address"
        }
      ],
      "stateMutability": "view",
      "type": "function"
    },
    {
      "inputs": [
        {
          "internalType": "address",
          "name": "from",
          "type": "address"
        },
        {
          "internalType": "address",
          "name": "to",
          "type": "address"
        },
        {
          "internalType": "uint256[]",
          "name": "ids",
          "type": "uint256[]"
        },
        {
          "internalType": "uint256[]",
          "name": "amounts",
          "type": "uint256[]"
        },
        {
          "internalType": "bytes",
          "name": "data",
          "type": "bytes"
        }
      ],
      "name": "safeBatchTransferFrom",
      "outputs": [],
      "stateMutability": "nonpayable",
      "type": "function"
    },
    {
      "inputs": [
        {
          "internalType": "address",
          "name": "from",
          "type": "address"
        },
        {
          "internalType": "address",
          "name": "to",
          "type": "address"
        },
        {
          "internalType": "uint256",
          "name": "id",
          "type": "uint256"
        },
        {
          "internalType": "uint256",
          "name": "amount",
          "type": "uint256"
        },
        {
          "internalType": "bytes",
          "name": "data",
          "type": "bytes"
        }
      ],
      "name": "safeTransferFrom",
      "outputs": [],
      "stateMutability": "nonpayable",
      "type": "function"
    },
    {
      "inputs": [
        {
          "internalType": "address",
          "name": "operator",
          "type": "address"
        },
        {
          "internalType": "bool",
          "name": "approved",
          "type": "bool"
        }
      ],
      "name": "setApprovalForAll",
      "outputs": [],
      "stateMutability": "nonpayable",
      "type": "function"
    },
    {
      "inputs": [
        {
          "internalType": "bytes4",
          "name": "interfaceId",
          "type": "bytes4"
        }
      ],
      "name": "supportsInterface",
      "outputs": [
        {
          "internalType": "bool",
          "name": "",
          "type": "bool"
        }
      ],
      "stateMutability": "view",
      "type": "function"
    },
    {
      "inputs": [
        {
          "internalType": "uint256",
          "name": "",
          "type": "uint256"
        }
      ],
      "name": "uri",
      "outputs": [
        {
          "internalType": "string",
          "name": "",
          "type": "string"
        }
      ],
      "stateMutability": "view",
      "type": "function"
    },
    {
      "inputs": [
        {
          "internalType": "address",
          "name": "to",
          "type": "address"
        },
        {
          "internalType": "uint256",
          "name": "id",
          "type": "uint256"
        },
        {
          "internalType": "uint256",
          "name": "amount",
          "type": "uint256"
        },
        {
          "internalType": "bytes",
          "name": "data",
          "type": "bytes"
        }
      ],
      "name": "mint",
      "outputs": [],
      "stateMutability": "nonpayable",
      "type": "function"
    },
    {
      "inputs": [
        {
          "internalType": "address",
          "name": "to",
          "type": "address"
        },
        {
          "internalType": "uint256[]",
          "name": "ids",
          "type": "uint256[]"
        },
        {
          "internalType": "uint256[]",
          "name": "amounts",
          "type": "uint256[]"
        },
        {
          "internalType": "bytes",
          "name": "data",
          "type": "bytes"
        }
      ],
      "name": "mintBatch",
      "outputs": [],
      "stateMutability": "nonpayable",
      "type": "function"
    }
  ],
  "bytecode": "0x60806040523480156200001157600080fd5b506040516200262f3803806200262f833981810160405260408110156200003757600080fd5b81019080805160405193929190846401000000008211156200005857600080fd5b9083019060208201858111156200006e57600080fd5b82516401000000008111828201881017156200008957600080fd5b82525081516020918201929091019080838360005b83811015620000b85781810151838201526020016200009e565b50505050905090810190601f168015620000e65780820380516001836020036101000a031916815260200191505b50604052602001519150829050620001056301ffc9a760e01b6200015c565b6200011081620001e1565b62000122636cdb3d1360e11b6200015c565b620001346303a24d0760e21b6200015c565b50600480546001600160a01b0319166001600160a01b039290921691909117905550620002a6565b6001600160e01b03198082161415620001bc576040805162461bcd60e51b815260206004820152601c60248201527f4552433136353a20696e76616c696420696e7465726661636520696400000000604482015290519081900360640190fd5b6001600160e01b0319166000908152602081905260409020805460ff19166001179055565b8051620001f6906003906020840190620001fa565b5050565b828054600181600116156101000203166002900490600052602060002090601f0160209004810192826200023257600085556200027d565b82601f106200024d57805160ff19168380011785556200027d565b828001600101855582156200027d579182015b828111156200027d57825182559160200191906001019062000260565b506200028b9291506200028f565b5090565b5b808211156200028b576000815560010162000290565b61237980620002b66000396000f3fe608060405234801561001057600080fd5b50600436106100de5760003560e01c80636b20c4541161008c578063a22cb46511610066578063a22cb465146108f3578063e985e9c514610921578063f242432a1461094f578063f5298aca14610a18576100de565b80636b20c454146106dc578063731133e91461080f5780639d35c161146108cf576100de565b80631f7fdffa116100bd5780631f7fdffa146101ee5780632eb2c2d6146103a85780634e1273f414610569576100de565b8062fdd58e146100e357806301ffc9a7146101215780630e89341c1461015c575b600080fd5b61010f600480360360408110156100f957600080fd5b506001600160a01b038135169060200135610a4a565b60408051918252519081900360200190f35b6101486004803603602081101561013757600080fd5b50356001600160e01b031916610ab9565b604080519115158252519081900360200190f35b6101796004803603602081101561017257600080fd5b5035610ad8565b6040805160208082528351818301528351919283929083019185019080838360005b838110156101b357818101518382015260200161019b565b50505050905090810190601f1680156101e05780820380516001836020036101000a031916815260200191505b509250505060405180910390f35b6103a66004803603608081101561020457600080fd5b6001600160a01b038235169190810190604081016020820135600160201b81111561022e57600080fd5b82018360208201111561024057600080fd5b803590602001918460208302840111600160201b8311171561026157600080fd5b9190808060200260200160405190810160405280939291908181526020018383602002808284376000920191909152509295949360208101935035915050600160201b8111156102b057600080fd5b8201836020820111156102c257600080fd5b803590602001918460208302840111600160201b831117156102e357600080fd5b9190808060200260200160405190810160405280939291908181526020018383602002808284376000920191909152509295949360208101935035915050600160201b81111561033257600080fd5b82018360208201111561034457600080fd5b803590602001918460018302840111600160201b8311171561036557600080fd5b91908080601f016020809104026020016040519081016040528093929190818152602001838380828437600092019190915250929550610b70945050505050565b005b6103a6600480360360a08110156103be57600080fd5b6001600160a01b038235811692602081013590911691810190606081016040820135600160201b8111156103f157600080fd5b82018360208201111561040357600080fd5b803590602001918460208302840111600160201b8311171561042457600080fd5b9190808060200260200160405190810160405280939291908181526020018383602002808284376000920191909152509295949360208101935035915050600160201b81111561047357600080fd5b82018360208201111561048557600080fd5b803590602001918460208302840111600160201b831117156104a657600080fd5b9190808060200260200160405190810160405280939291908181526020018383602002808284376000920191909152509295949360208101935035915050600160201b8111156104f557600080fd5b82018360208201111561050757600080fd5b803590602001918460018302840111600160201b8311171561052857600080fd5b91908080601f016020809104026020016040519081016040528093929190818152602001838380828437600092019190915250929550610bdb945050505050565b61068c6004803603604081101561057f57600080fd5b810190602081018135600160201b81111561059957600080fd5b8201836020820111156105ab57600080fd5b803590602001918460208302840111600160201b831117156105cc57600080fd5b9190808060200260200160405190810160405280939291908181526020018383602002808284376000920191909152509295949360208101935035915050600160201b81111561061b57600080fd5b82018360208201111561062d57600080fd5b803590602001918460208302840111600160201b8311171561064e57600080fd5b919080806020026020016040519081016040528093929190818152602001838360200280828437600092019190915250929550610ed9945050505050565b60408051602080825283518183015283519192839290830191858101910280838360005b838110156106c85781810151838201526020016106b0565b505050509050019250505060405180910390f35b6103a6600480360360608110156106f257600080fd5b6001600160a01b038235169190810190604081016020820135600160201b81111561071c57600080fd5b82018360208201111561072e57600080fd5b803590602001918460208302840111600160201b8311171561074f57600080fd5b9190808060200260200160405190810160405280939291908181526020018383602002808284376000920191909152509295949360208101935035915050600160201b81111561079e57600080fd5b8201836020820111156107b057600080fd5b803590602001918460208302840111600160201b831117156107d157600080fd5b919080806020026020016040519081016040528093929190818152602001838360200280828437600092019190915250929550610fc5945050505050565b6103a66004803603608081101561082557600080fd5b6001600160a01b038235169160208101359160408201359190810190608081016060820135600160201b81111561085b57600080fd5b82018360208201111561086d57600080fd5b803590602001918460018302840111600160201b8311171561088e57600080fd5b91908080601f01602080910402602001604051908101604052809392919081815260200183838082843760009201919091525092955061103e945050505050565b6108d76110a3565b604080516001600160a01b039092168252519081900360200190f35b6103a66004803603604081101561090957600080fd5b506001600160a01b03813516906020013515156110b2565b6101486004803603604081101561093757600080fd5b506001600160a01b03813581169160200135166111a1565b6103a6600480360360a081101561096557600080fd5b6001600160a01b03823581169260208101359091169160408201359160608101359181019060a081016080820135600160201b8111156109a457600080fd5b8201836020820111156109b657600080fd5b803590602001918460018302840111600160201b831117156109d757600080fd5b91908080601f0160208091040260200160405190810160405280939291908181526020018383808284376000920191909152509295506111cf945050505050565b6103a660048036036060811015610a2e57600080fd5b506001600160a01b03813516906020810135906040013561139a565b60006001600160a01b038316610a915760405162461bcd60e51b815260040180806020018281038252602b815260200180612153602b913960400191505060405180910390fd5b5060009081526001602090815260408083206001600160a01b03949094168352929052205490565b6001600160e01b03191660009081526020819052604090205460ff1690565b60038054604080516020601f6002600019610100600188161502019095169490940493840181900481028201810190925282815260609390929091830182828015610b645780601f10610b3957610100808354040283529160200191610b64565b820191906000526020600020905b815481529060010190602001808311610b4757829003601f168201915b50505050509050919050565b6004546001600160a01b0316610b8461140e565b6001600160a01b031614610bc95760405162461bcd60e51b815260040180806020018281038252603a8152602001806121cb603a913960400191505060405180910390fd5b610bd584848484611413565b50505050565b8151835114610c1b5760405162461bcd60e51b81526004018080602001828103825260288152602001806122fb6028913960400191505060405180910390fd5b6001600160a01b038416610c605760405162461bcd60e51b81526004018080602001828103825260258152602001806122056025913960400191505060405180910390fd5b610c6861140e565b6001600160a01b0316856001600160a01b03161480610c935750610c9385610c8e61140e565b6111a1565b610cce5760405162461bcd60e51b815260040180806020018281038252603281526020018061222a6032913960400191505060405180910390fd5b6000610cd861140e565b9050610ce8818787878787611668565b60005b8451811015610de9576000858281518110610d0257fe5b602002602001015190506000858381518110610d1a57fe5b60200260200101519050610d87816040518060600160405280602a815260200161227f602a91396001600086815260200190815260200160002060008d6001600160a01b03166001600160a01b03168152602001908152602001600020546116769092919063ffffffff16565b60008381526001602090815260408083206001600160a01b038e811685529252808320939093558a1681522054610dbe908261170d565b60009283526001602081815260408086206001600160a01b038d168752909152909320555001610ceb565b50846001600160a01b0316866001600160a01b0316826001600160a01b03167f4a39dc06d4c0dbc64b70af90fd698a233a518aa5d07e595d983b8c0526c8f7fb8787604051808060200180602001838103835285818151815260200191508051906020019060200280838360005b83811015610e6f578181015183820152602001610e57565b50505050905001838103825284818151815260200191508051906020019060200280838360005b83811015610eae578181015183820152602001610e96565b5050505090500194505050505060405180910390a4610ed181878787878761176e565b505050505050565b60608151835114610f1b5760405162461bcd60e51b81526004018080602001828103825260298152602001806122d26029913960400191505060405180910390fd5b6000835167ffffffffffffffff81118015610f3557600080fd5b50604051908082528060200260200182016040528015610f5f578160200160208202803683370190505b50905060005b8451811015610fbd57610f9e858281518110610f7d57fe5b6020026020010151858381518110610f9157fe5b6020026020010151610a4a565b828281518110610faa57fe5b6020908102919091010152600101610f65565b509392505050565b610fcd61140e565b6001600160a01b0316836001600160a01b03161480610ff35750610ff383610c8e61140e565b61102e5760405162461bcd60e51b81526004018080602001828103825260298152602001806121a26029913960400191505060405180910390fd5b6110398383836119ed565b505050565b6004546001600160a01b031661105261140e565b6001600160a01b0316146110975760405162461bcd60e51b815260040180806020018281038252603a8152602001806121cb603a913960400191505060405180910390fd5b610bd584848484611c5b565b6004546001600160a01b031681565b816001600160a01b03166110c461140e565b6001600160a01b0316141561110a5760405162461bcd60e51b81526004018080602001828103825260298152602001806122a96029913960400191505060405180910390fd5b806002600061111761140e565b6001600160a01b03908116825260208083019390935260409182016000908120918716808252919093529120805460ff19169215159290921790915561115b61140e565b6001600160a01b03167f17307eab39ab6107e8899845ad3d59bd9653f200f220920489ca2b5937696c318360405180821515815260200191505060405180910390a35050565b6001600160a01b03918216600090815260026020908152604080832093909416825291909152205460ff1690565b6001600160a01b0384166112145760405162461bcd60e51b81526004018080602001828103825260258152602001806122056025913960400191505060405180910390fd5b61121c61140e565b6001600160a01b0316856001600160a01b03161480611242575061124285610c8e61140e565b61127d5760405162461bcd60e51b81526004018080602001828103825260298152602001806121a26029913960400191505060405180910390fd5b600061128761140e565b90506112a781878761129888611d5c565b6112a188611d5c565b87611668565b6112ee836040518060600160405280602a815260200161227f602a913960008781526001602090815260408083206001600160a01b038d1684529091529020549190611676565b60008581526001602090815260408083206001600160a01b038b81168552925280832093909355871681522054611325908461170d565b60008581526001602090815260408083206001600160a01b03808b168086529184529382902094909455805188815291820187905280518a8416938616927fc3d58168c5ae7397731d063d5bbf3d657854427343f4c083240f7aacaa2d0f6292908290030190a4610ed1818787878787611da1565b6113a261140e565b6001600160a01b0316836001600160a01b031614806113c857506113c883610c8e61140e565b6114035760405162461bcd60e51b81526004018080602001828103825260298152602001806121a26029913960400191505060405180910390fd5b611039838383611f12565b335b90565b6001600160a01b0384166114585760405162461bcd60e51b81526004018080602001828103825260218152602001806123236021913960400191505060405180910390fd5b81518351146114985760405162461bcd60e51b81526004018080602001828103825260288152602001806122fb6028913960400191505060405180910390fd5b60006114a261140e565b90506114b381600087878787611668565b60005b84518110156115775761152e600160008784815181106114d257fe5b602002602001015181526020019081526020016000206000886001600160a01b03166001600160a01b031681526020019081526020016000205485838151811061151857fe5b602002602001015161170d90919063ffffffff16565b6001600087848151811061153e57fe5b602090810291909101810151825281810192909252604090810160009081206001600160a01b038b1682529092529020556001016114b6565b50846001600160a01b031660006001600160a01b0316826001600160a01b03167f4a39dc06d4c0dbc64b70af90fd698a233a518aa5d07e595d983b8c0526c8f7fb8787604051808060200180602001838103835285818151815260200191508051906020019060200280838360005b838110156115fe5781810151838201526020016115e6565b50505050905001838103825284818151815260200191508051906020019060200280838360005b8381101561163d578181015183820152602001611625565b5050505090500194505050505060405180910390a46116618160008787878761176e565b5050505050565b610ed1868686868686610ed1565b600081848411156117055760405162461bcd60e51b81526004018080602001828103825283818151815260200191508051906020019080838360005b838110156116ca5781810151838201526020016116b2565b50505050905090810190601f1680156116f75780820380516001836020036101000a031916815260200191505b509250505060405180910390fd5b505050900390565b600082820183811015611767576040805162461bcd60e51b815260206004820152601b60248201527f536166654d6174683a206164646974696f6e206f766572666c6f770000000000604482015290519081900360640190fd5b9392505050565b611780846001600160a01b0316612045565b15610ed157836001600160a01b031663bc197c8187878686866040518663ffffffff1660e01b815260040180866001600160a01b03168152602001856001600160a01b03168152602001806020018060200180602001848103845287818151815260200191508051906020019060200280838360005b8381101561180e5781810151838201526020016117f6565b50505050905001848103835286818151815260200191508051906020019060200280838360005b8381101561184d578181015183820152602001611835565b50505050905001848103825285818151815260200191508051906020019080838360005b83811015611889578181015183820152602001611871565b50505050905090810190601f1680156118b65780820380516001836020036101000a031916815260200191505b5098505050505050505050602060405180830381600087803b1580156118db57600080fd5b505af192505050801561190057506040513d60208110156118fb57600080fd5b505160015b6119955761190c612051565b80611917575061195e565b60405162461bcd60e51b81526020600482018181528351602484015283518493919283926044019190850190808383600083156116ca5781810151838201526020016116b2565b60405162461bcd60e51b81526004018080602001828103825260348152602001806120f76034913960400191505060405180910390fd5b6001600160e01b0319811663bc197c8160e01b146119e45760405162461bcd60e51b815260040180806020018281038252602881526020018061212b6028913960400191505060405180910390fd5b50505050505050565b6001600160a01b038316611a325760405162461bcd60e51b815260040180806020018281038252602381526020018061225c6023913960400191505060405180910390fd5b8051825114611a725760405162461bcd60e51b81526004018080602001828103825260288152602001806122fb6028913960400191505060405180910390fd5b6000611a7c61140e565b9050611a9c81856000868660405180602001604052806000815250611668565b60005b8351811015611b7a57611b31838281518110611ab757fe5b602002602001015160405180606001604052806024815260200161217e6024913960016000888681518110611ae857fe5b602002602001015181526020019081526020016000206000896001600160a01b03166001600160a01b03168152602001908152602001600020546116769092919063ffffffff16565b60016000868481518110611b4157fe5b602090810291909101810151825281810192909252604090810160009081206001600160a01b038a168252909252902055600101611a9f565b5060006001600160a01b0316846001600160a01b0316826001600160a01b03167f4a39dc06d4c0dbc64b70af90fd698a233a518aa5d07e595d983b8c0526c8f7fb8686604051808060200180602001838103835285818151815260200191508051906020019060200280838360005b83811015611c01578181015183820152602001611be9565b50505050905001838103825284818151815260200191508051906020019060200280838360005b83811015611c40578181015183820152602001611c28565b5050505090500194505050505060405180910390a450505050565b6001600160a01b038416611ca05760405162461bcd60e51b81526004018080602001828103825260218152602001806123236021913960400191505060405180910390fd5b6000611caa61140e565b9050611cbc8160008761129888611d5c565b60008481526001602090815260408083206001600160a01b0389168452909152902054611ce9908461170d565b60008581526001602090815260408083206001600160a01b03808b16808652918452828520959095558151898152928301889052815190948616927fc3d58168c5ae7397731d063d5bbf3d657854427343f4c083240f7aacaa2d0f6292908290030190a461166181600087878787611da1565b60408051600180825281830190925260609160009190602080830190803683370190505090508281600081518110611d9057fe5b602090810291909101015292915050565b611db3846001600160a01b0316612045565b15610ed157836001600160a01b031663f23a6e6187878686866040518663ffffffff1660e01b815260040180866001600160a01b03168152602001856001600160a01b0316815260200184815260200183815260200180602001828103825283818151815260200191508051906020019080838360005b83811015611e42578181015183820152602001611e2a565b50505050905090810190601f168015611e6f5780820380516001836020036101000a031916815260200191505b509650505050505050602060405180830381600087803b158015611e9257600080fd5b505af1925050508015611eb757506040513d6020811015611eb257600080fd5b505160015b611ec35761190c612051565b6001600160e01b0319811663f23a6e6160e01b146119e45760405162461bcd60e51b815260040180806020018281038252602881526020018061212b6028913960400191505060405180910390fd5b6001600160a01b038316611f575760405162461bcd60e51b815260040180806020018281038252602381526020018061225c6023913960400191505060405180910390fd5b6000611f6161140e565b9050611f9181856000611f7387611d5c565b611f7c87611d5c565b60405180602001604052806000815250611668565b611fd88260405180606001604052806024815260200161217e6024913960008681526001602090815260408083206001600160a01b038b1684529091529020549190611676565b60008481526001602090815260408083206001600160a01b03808a16808652918452828520959095558151888152928301879052815193949093908616927fc3d58168c5ae7397731d063d5bbf3d657854427343f4c083240f7aacaa2d0f6292908290030190a450505050565b3b151590565b60e01c90565b600060443d101561206157611410565b600481823e6308c379a0612075825161204b565b1461207f57611410565b6040513d600319016004823e80513d67ffffffffffffffff81602484011181841117156120af5750505050611410565b828401925082519150808211156120c95750505050611410565b503d830160208284010111156120e157505050611410565b601f01601f191681016020016040529150509056fe455243313135353a207472616e7366657220746f206e6f6e2045524331313535526563656976657220696d706c656d656e746572455243313135353a204552433131353552656365697665722072656a656374656420746f6b656e73455243313135353a2062616c616e636520717565727920666f7220746865207a65726f2061646472657373455243313135353a206275726e20616d6f756e7420657863656564732062616c616e6365455243313135353a2063616c6c6572206973206e6f74206f776e6572206e6f7220617070726f7665645052495649506f6445524331313535546f6b656e3a204f6e6c7920466163746f72792063616e2063616c6c20746869732066756e6374696f6e2e455243313135353a207472616e7366657220746f20746865207a65726f2061646472657373455243313135353a207472616e736665722063616c6c6572206973206e6f74206f776e6572206e6f7220617070726f766564455243313135353a206275726e2066726f6d20746865207a65726f2061646472657373455243313135353a20696e73756666696369656e742062616c616e636520666f72207472616e73666572455243313135353a2073657474696e6720617070726f76616c2073746174757320666f722073656c66455243313135353a206163636f756e747320616e6420696473206c656e677468206d69736d61746368455243313135353a2069647320616e6420616d6f756e7473206c656e677468206d69736d61746368455243313135353a206d696e7420746f20746865207a65726f2061646472657373a26469706673582212207de8a5da0bcfb31f4e38f09ce0de5892bde9fb03694c1a67c69c0070154fcec664736f6c63430007060033",
  "immutableReferences": {},
  "source": "// SPDX-License-Identifier: MIT\n\npragma solidity ^0.7.6;\n\nimport \"@openzeppelin/contracts/access/AccessControl.sol\";\nimport \"@openzeppelin/contracts/GSN/Context.sol\";\nimport \"@openzeppelin/contracts/token/ERC1155/ERC1155.sol\";\nimport \"@openzeppelin/contracts/token/ERC1155/ERC1155Burnable.sol\";\n\n/**\n * @dev {ERC1155} token, including:\n *\n *  - ability for holders to burn (destroy) their tokens\n *  - a factoryOnly modifier, that grants mint capabilities only to factory who deployed theis pod token contract\n */\ncontract PRIVIPodERC1155Token is Context, ERC1155Burnable {\n  address public parentFactory;\n\n  /**\n   * @dev Sets factory address\n   * deploys the contract.\n   */\n  constructor(string memory uri, address factory) ERC1155(uri) {\n    parentFactory = factory;\n  }\n\n  modifier onlyFactory() {\n    require(\n      _msgSender() == parentFactory,\n      \"PRIVIPodERC1155Token: Only Factory can call this function.\"\n    );\n    _;\n  }\n\n  /**\n   * @dev Creates `amount` new tokens for `to`, of token type `id`.\n   *\n   * See {ERC1155-_mint}.\n   *\n   * Requirements:\n   *\n   * - the caller must have the `MINTER_ROLE`.\n   */\n  function mint(\n    address to,\n    uint256 id,\n    uint256 amount,\n    bytes memory data\n  ) public virtual onlyFactory {\n    _mint(to, id, amount, data);\n  }\n\n  /**\n   * @dev xref:ROOT:erc1155.adoc#batch-operations[Batched] variant of {mint}.\n   */\n  function mintBatch(\n    address to,\n    uint256[] memory ids,\n    uint256[] memory amounts,\n    bytes memory data\n  ) public virtual onlyFactory {\n    _mintBatch(to, ids, amounts, data);\n  }\n\n  function _beforeTokenTransfer(\n    address operator,\n    address from,\n    address to,\n    uint256[] memory ids,\n    uint256[] memory amounts,\n    bytes memory data\n  ) internal virtual override(ERC1155) {\n    super._beforeTokenTransfer(operator, from, to, ids, amounts, data);\n  }\n}\n",
  "sourcePath": "/Users/csuito/dev/privi/ethereum/contracts/token/PRIVIPodERC1155Token.sol",
  "compiler": {
    "name": "solc",
    "version": "0.7.6+commit.7338295f.Emscripten.clang"
  },
  "schemaVersion": "3.2.4",
  "updatedAt": "2021-03-15T14:15:54.420Z",
  "devdoc": {
    "details": "{ERC1155} token, including:  - ability for holders to burn (destroy) their tokens  - a factoryOnly modifier, that grants mint capabilities only to factory who deployed theis pod token contract",
    "kind": "dev",
    "methods": {
      "balanceOf(address,uint256)": {
        "details": "See {IERC1155-balanceOf}. Requirements: - `account` cannot be the zero address."
      },
      "balanceOfBatch(address[],uint256[])": {
        "details": "See {IERC1155-balanceOfBatch}. Requirements: - `accounts` and `ids` must have the same length."
      },
      "constructor": {
        "details": "Sets factory address deploys the contract."
      },
      "isApprovedForAll(address,address)": {
        "details": "See {IERC1155-isApprovedForAll}."
      },
      "mint(address,uint256,uint256,bytes)": {
        "details": "Creates `amount` new tokens for `to`, of token type `id`. See {ERC1155-_mint}. Requirements: - the caller must have the `MINTER_ROLE`."
      },
      "mintBatch(address,uint256[],uint256[],bytes)": {
        "details": "xref:ROOT:erc1155.adoc#batch-operations[Batched] variant of {mint}."
      },
      "safeBatchTransferFrom(address,address,uint256[],uint256[],bytes)": {
        "details": "See {IERC1155-safeBatchTransferFrom}."
      },
      "safeTransferFrom(address,address,uint256,uint256,bytes)": {
        "details": "See {IERC1155-safeTransferFrom}."
      },
      "setApprovalForAll(address,bool)": {
        "details": "See {IERC1155-setApprovalForAll}."
      },
      "supportsInterface(bytes4)": {
        "details": "See {IERC165-supportsInterface}. Time complexity O(1), guaranteed to always use less than 30 000 gas."
      },
      "uri(uint256)": {
        "details": "See {IERC1155MetadataURI-uri}. This implementation returns the same URI for *all* token types. It relies on the token type ID substitution mechanism https://eips.ethereum.org/EIPS/eip-1155#metadata[defined in the EIP]. Clients calling this function must replace the `\\{id\\}` substring with the actual token type ID."
      }
    },
    "version": 1
  },
  "userdoc": {
    "kind": "user",
    "methods": {},
    "version": 1
  }
}