{
  "contractName": "PRIVIPodERC721Factory",
  "abi": [
    {
      "inputs": [
        {
          "internalType": "address",
          "name": "bridgeAddress",
          "type": "address"
        }
      ],
      "stateMutability": "nonpayable",
      "type": "constructor"
    },
    {
      "anonymous": false,
      "inputs": [
        {
          "indexed": true,
          "internalType": "string",
          "name": "podId",
          "type": "string"
        },
        {
          "indexed": false,
          "internalType": "string",
          "name": "podTokenName",
          "type": "string"
        },
        {
          "indexed": false,
          "internalType": "string",
          "name": "podTokenSymbol",
          "type": "string"
        }
      ],
      "name": "PodCreated",
      "type": "event"
    },
    {
      "anonymous": false,
      "inputs": [
        {
          "indexed": true,
          "internalType": "bytes32",
          "name": "role",
          "type": "bytes32"
        },
        {
          "indexed": true,
          "internalType": "bytes32",
          "name": "previousAdminRole",
          "type": "bytes32"
        },
        {
          "indexed": true,
          "internalType": "bytes32",
          "name": "newAdminRole",
          "type": "bytes32"
        }
      ],
      "name": "RoleAdminChanged",
      "type": "event"
    },
    {
      "anonymous": false,
      "inputs": [
        {
          "indexed": true,
          "internalType": "bytes32",
          "name": "role",
          "type": "bytes32"
        },
        {
          "indexed": true,
          "internalType": "address",
          "name": "account",
          "type": "address"
        },
        {
          "indexed": true,
          "internalType": "address",
          "name": "sender",
          "type": "address"
        }
      ],
      "name": "RoleGranted",
      "type": "event"
    },
    {
      "anonymous": false,
      "inputs": [
        {
          "indexed": true,
          "internalType": "bytes32",
          "name": "role",
          "type": "bytes32"
        },
        {
          "indexed": true,
          "internalType": "address",
          "name": "account",
          "type": "address"
        },
        {
          "indexed": true,
          "internalType": "address",
          "name": "sender",
          "type": "address"
        }
      ],
      "name": "RoleRevoked",
      "type": "event"
    },
    {
      "inputs": [],
      "name": "DEFAULT_ADMIN_ROLE",
      "outputs": [
        {
          "internalType": "bytes32",
          "name": "",
          "type": "bytes32"
        }
      ],
      "stateMutability": "view",
      "type": "function",
      "constant": true
    },
    {
      "inputs": [],
      "name": "MODERATOR_ROLE",
      "outputs": [
        {
          "internalType": "bytes32",
          "name": "",
          "type": "bytes32"
        }
      ],
      "stateMutability": "view",
      "type": "function",
      "constant": true
    },
    {
      "inputs": [],
      "name": "bridgeManagerAddress",
      "outputs": [
        {
          "internalType": "address",
          "name": "",
          "type": "address"
        }
      ],
      "stateMutability": "view",
      "type": "function",
      "constant": true
    },
    {
      "inputs": [
        {
          "internalType": "bytes32",
          "name": "role",
          "type": "bytes32"
        }
      ],
      "name": "getRoleAdmin",
      "outputs": [
        {
          "internalType": "bytes32",
          "name": "",
          "type": "bytes32"
        }
      ],
      "stateMutability": "view",
      "type": "function",
      "constant": true
    },
    {
      "inputs": [
        {
          "internalType": "bytes32",
          "name": "role",
          "type": "bytes32"
        },
        {
          "internalType": "address",
          "name": "account",
          "type": "address"
        }
      ],
      "name": "grantRole",
      "outputs": [],
      "stateMutability": "nonpayable",
      "type": "function"
    },
    {
      "inputs": [
        {
          "internalType": "bytes32",
          "name": "role",
          "type": "bytes32"
        },
        {
          "internalType": "address",
          "name": "account",
          "type": "address"
        }
      ],
      "name": "hasRole",
      "outputs": [
        {
          "internalType": "bool",
          "name": "",
          "type": "bool"
        }
      ],
      "stateMutability": "view",
      "type": "function",
      "constant": true
    },
    {
      "inputs": [
        {
          "internalType": "bytes32",
          "name": "role",
          "type": "bytes32"
        },
        {
          "internalType": "address",
          "name": "account",
          "type": "address"
        }
      ],
      "name": "renounceRole",
      "outputs": [],
      "stateMutability": "nonpayable",
      "type": "function"
    },
    {
      "inputs": [
        {
          "internalType": "bytes32",
          "name": "role",
          "type": "bytes32"
        },
        {
          "internalType": "address",
          "name": "account",
          "type": "address"
        }
      ],
      "name": "revokeRole",
      "outputs": [],
      "stateMutability": "nonpayable",
      "type": "function"
    },
    {
      "inputs": [
        {
          "internalType": "bytes4",
          "name": "interfaceId",
          "type": "bytes4"
        }
      ],
      "name": "supportsInterface",
      "outputs": [
        {
          "internalType": "bool",
          "name": "",
          "type": "bool"
        }
      ],
      "stateMutability": "view",
      "type": "function",
      "constant": true
    },
    {
      "inputs": [],
      "name": "getTotalTokenCreated",
      "outputs": [
        {
          "internalType": "uint256",
          "name": "totalPods",
          "type": "uint256"
        }
      ],
      "stateMutability": "view",
      "type": "function",
      "constant": true
    },
    {
      "inputs": [
        {
          "internalType": "string",
          "name": "podId",
          "type": "string"
        }
      ],
      "name": "getPodAddressById",
      "outputs": [
        {
          "internalType": "address",
          "name": "podAddress",
          "type": "address"
        }
      ],
      "stateMutability": "view",
      "type": "function",
      "constant": true
    },
    {
      "inputs": [
        {
          "internalType": "string",
          "name": "tokenSymbol",
          "type": "string"
        }
      ],
      "name": "getPodAddressBySymbol",
      "outputs": [
        {
          "internalType": "address",
          "name": "podAddress",
          "type": "address"
        }
      ],
      "stateMutability": "view",
      "type": "function",
      "constant": true
    },
    {
      "inputs": [
        {
          "internalType": "string",
          "name": "podId",
          "type": "string"
        },
        {
          "internalType": "string",
          "name": "podTokenName",
          "type": "string"
        },
        {
          "internalType": "string",
          "name": "podTokenSymbol",
          "type": "string"
        },
        {
          "internalType": "string",
          "name": "baseURI",
          "type": "string"
        }
      ],
      "name": "createPod",
      "outputs": [
        {
          "internalType": "address",
          "name": "podAddress",
          "type": "address"
        }
      ],
      "stateMutability": "nonpayable",
      "type": "function"
    },
    {
      "inputs": [
        {
          "internalType": "string",
          "name": "podId",
          "type": "string"
        },
        {
          "internalType": "address",
          "name": "account",
          "type": "address"
        }
      ],
      "name": "mintPodTokenById",
      "outputs": [],
      "stateMutability": "nonpayable",
      "type": "function"
    },
    {
      "inputs": [
        {
          "internalType": "string",
          "name": "tokenSymbol",
          "type": "string"
        },
        {
          "internalType": "address",
          "name": "account",
          "type": "address"
        }
      ],
      "name": "mintPodTokenBySymbol",
      "outputs": [],
      "stateMutability": "nonpayable",
      "type": "function"
    }
  ],
  "bytecode": "0x60806040523480156200001157600080fd5b5060405162002b7d38038062002b7d833981016040819052620000349162000166565b6200004a6000620000446200009f565b620000a3565b620000797f71f3d55856e4058ed06ee057d79ada615f65cdf5f9ee88181b914225088f834f620000446200009f565b600180546001600160a01b0319166001600160a01b039290921691909117905562000196565b3390565b620000af8282620000b3565b5050565b620000bf82826200013d565b620000af576000828152602081815260408083206001600160a01b03851684529091529020805460ff19166001179055620000f96200009f565b6001600160a01b0316816001600160a01b0316837f2f8788117e7eff1d82e926ec794901d17c78024a50270940304540a733656f0d60405160405180910390a45050565b6000918252602082815260408084206001600160a01b0393909316845291905290205460ff1690565b60006020828403121562000178578081fd5b81516001600160a01b03811681146200018f578182fd5b9392505050565b6129d780620001a66000396000f3fe60806040523480156200001157600080fd5b50600436106200010c5760003560e01c806336568abe11620000a5578063a217fddf116200006f578063a217fddf146200022c578063d547741f1462000236578063db3b8f71146200024d578063e792b1941462000264576200010c565b806336568abe14620001dd57806358d4891f14620001f4578063797669c9146200020b57806391d148541462000215576200010c565b806322b2edeb11620000e757806322b2edeb1462000172578063248a9ca314620001985780632f2ff15d14620001af5780633325a4e414620001c6576200010c565b806301ffc9a714620001115780630d9c181214620001405780630fc09e2e1462000159575b600080fd5b620001286200012236600462000a1e565b6200026e565b60405162000137919062000bfe565b60405180910390f35b620001576200015136600462000a8c565b6200029e565b005b62000163620003a5565b60405162000137919062000c09565b620001896200018336600462000a48565b620003ab565b60405162000137919062000bea565b62000163620001a9366004620009d7565b620003e1565b62000157620001c0366004620009f0565b620003f6565b62000189620001d736600462000a48565b6200043e565b62000157620001ee366004620009f0565b62000454565b620001576200020536600462000a8c565b6200049d565b6200016362000528565b6200012862000226366004620009f0565b6200054c565b6200016362000575565b6200015762000247366004620009f0565b6200057a565b620001896200025e36600462000ae4565b620005a8565b6200018962000814565b60006001600160e01b03198216637965db0b60e01b1480620002965750620002968262000823565b90505b919050565b620002cd7f71f3d55856e4058ed06ee057d79ada615f65cdf5f9ee88181b914225088f834f620002266200083c565b620002f55760405162461bcd60e51b8152600401620002ec9062000e63565b60405180910390fd5b6001600160a01b0381166200031e5760405162461bcd60e51b8152600401620002ec9062000d4c565b600483836040516200033292919062000bda565b908152604051908190036020018120546335313c2160e11b82526001600160a01b031690636a627842906200036c90849060040162000bea565b600060405180830381600087803b1580156200038757600080fd5b505af11580156200039c573d6000803e3d6000fd5b50505050505050565b60025490565b600060038383604051620003c192919062000bda565b908152604051908190036020019020546001600160a01b03169392505050565b60009081526020819052604090206001015490565b6200040f6200040583620003e1565b620002266200083c565b6200042e5760405162461bcd60e51b8152600401620002ec9062000cef565b6200043a828262000840565b5050565b600060048383604051620003c192919062000bda565b6200045e6200083c565b6001600160a01b0316816001600160a01b031614620004915760405162461bcd60e51b8152600401620002ec9062000f2b565b6200043a8282620008ca565b620004cc7f71f3d55856e4058ed06ee057d79ada615f65cdf5f9ee88181b914225088f834f620002266200083c565b620004eb5760405162461bcd60e51b8152600401620002ec9062000e63565b6001600160a01b038116620005145760405162461bcd60e51b8152600401620002ec9062000d4c565b600383836040516200033292919062000bda565b7f71f3d55856e4058ed06ee057d79ada615f65cdf5f9ee88181b914225088f834f81565b6000918252602082815260408084206001600160a01b0393909316845291905290205460ff1690565b600081565b620005896200040583620003e1565b620004915760405162461bcd60e51b8152600401620002ec9062000da9565b6000806001600160a01b031660038a8a604051620005c892919062000bda565b908152604051908190036020019020546001600160a01b031614620006015760405162461bcd60e51b8152600401620002ec9062000ece565b60006001600160a01b0316600486866040516200062092919062000bda565b908152604051908190036020019020546001600160a01b031614620006595760405162461bcd60e51b8152600401620002ec9062000e06565b600087878787878730604051620006709062000967565b62000682979695949392919062000c8f565b604051809103906000f0801580156200069f573d6000803e3d6000fd5b50600254909250829150620006b690600162000952565b508160038b8b604051620006cc92919062000bda565b908152602001604051809103902060006101000a8154816001600160a01b0302191690836001600160a01b0316021790555081600487876040516200071392919062000bda565b90815260405190819003602001812080546001600160a01b0393841673ffffffffffffffffffffffffffffffffffffffff1990911617905560015463c082713b60e01b82529091169063c082713b906200077a908b908b908b908b90899060040162000c48565b600060405180830381600087803b1580156200079557600080fd5b505af1158015620007aa573d6000803e3d6000fd5b505050508989604051620007c092919062000bda565b60405180910390207fc0512f6474c9ee949f1cbdc88e43ca774f79b5f1f07d8484696e1cf1a0bd87ce89898989604051620007ff949392919062000c12565b60405180910390a25098975050505050505050565b6001546001600160a01b031681565b6001600160e01b031981166301ffc9a760e01b14919050565b3390565b6200084c82826200054c565b6200043a576000828152602081815260408083206001600160a01b03851684529091529020805460ff19166001179055620008866200083c565b6001600160a01b0316816001600160a01b0316837f2f8788117e7eff1d82e926ec794901d17c78024a50270940304540a733656f0d60405160405180910390a45050565b620008d682826200054c565b156200043a576000828152602081815260408083206001600160a01b03851684529091529020805460ff191690556200090e6200083c565b6001600160a01b0316816001600160a01b0316837ff6391f5c32d9c69d2a47ea670b442974b53935d1edc7fd64eb21e047a839171b60405160405180910390a45050565b600062000960828462000f88565b9392505050565b6119f48062000fae83390190565b80356001600160a01b03811681146200029957600080fd5b60008083601f8401126200099f578182fd5b50813567ffffffffffffffff811115620009b7578182fd5b602083019150836020828501011115620009d057600080fd5b9250929050565b600060208284031215620009e9578081fd5b5035919050565b6000806040838503121562000a03578081fd5b8235915062000a156020840162000975565b90509250929050565b60006020828403121562000a30578081fd5b81356001600160e01b03198116811462000960578182fd5b6000806020838503121562000a5b578182fd5b823567ffffffffffffffff81111562000a72578283fd5b62000a80858286016200098d565b90969095509350505050565b60008060006040848603121562000aa1578081fd5b833567ffffffffffffffff81111562000ab8578182fd5b62000ac6868287016200098d565b909450925062000adb90506020850162000975565b90509250925092565b6000806000806000806000806080898b03121562000b00578384fd5b883567ffffffffffffffff8082111562000b18578586fd5b62000b268c838d016200098d565b909a50985060208b013591508082111562000b3f578586fd5b62000b4d8c838d016200098d565b909850965060408b013591508082111562000b66578586fd5b62000b748c838d016200098d565b909650945060608b013591508082111562000b8d578384fd5b5062000b9c8b828c016200098d565b999c989b5096995094979396929594505050565b60008284528282602086013780602084860101526020601f19601f85011685010190509392505050565b6000828483379101908152919050565b6001600160a01b0391909116815260200190565b901515815260200190565b90815260200190565b60006040825262000c2860408301868862000bb0565b828103602084015262000c3d81858762000bb0565b979650505050505050565b60006060825262000c5e60608301878962000bb0565b828103602084015262000c7381868862000bb0565b9150506001600160a01b03831660408301529695505050505050565b60006080825262000ca560808301898b62000bb0565b828103602084015262000cba81888a62000bb0565b9050828103604084015262000cd181868862000bb0565b9150506001600160a01b038316606083015298975050505050505050565b6020808252602f908201527f416363657373436f6e74726f6c3a2073656e646572206d75737420626520616e60408201527f2061646d696e20746f206772616e740000000000000000000000000000000000606082015260800190565b60208082526038908201527f5052495649506f64455243373231546f6b656e3a204163636f756e742061646460408201527f726573732073686f756c64206e6f74206265207a65726f2e0000000000000000606082015260800190565b60208082526030908201527f416363657373436f6e74726f6c3a2073656e646572206d75737420626520616e60408201527f2061646d696e20746f207265766f6b6500000000000000000000000000000000606082015260800190565b60208082526036908201527f5052495649506f64455243373231546f6b656e466163746f72793a20506f642060408201527f73796d626f6c20616c7265616479206578697374732e00000000000000000000606082015260800190565b60208082526045908201527f5052495649506f64455243373231546f6b656e3a206d7573742068617665204d60408201527f4f44455241544f525f524f4c4520746f20696e7665737420666f7220696e766560608201526439ba37b91760d91b608082015260a00190565b60208082526032908201527f5052495649506f64455243373231546f6b656e466163746f72793a20506f642060408201527f696420616c7265616479206578697374732e0000000000000000000000000000606082015260800190565b6020808252602f908201527f416363657373436f6e74726f6c3a2063616e206f6e6c792072656e6f756e636560408201527f20726f6c657320666f722073656c660000000000000000000000000000000000606082015260800190565b6000821982111562000fa857634e487b7160e01b81526011600452602481fd5b50019056fe60806040523480156200001157600080fd5b50604051620019f4380380620019f48339810160408190526200003491620001f2565b8351849084906200004d906000906020850190620000a1565b50805162000063906001906020840190620000a1565b5050600780546001600160a01b0319166001600160a01b03841617905550815162000096906008906020850190620000a1565b5050505050620002f3565b828054620000af90620002a0565b90600052602060002090601f016020900481019282620000d357600085556200011e565b82601f10620000ee57805160ff19168380011785556200011e565b828001600101855582156200011e579182015b828111156200011e57825182559160200191906001019062000101565b506200012c92915062000130565b5090565b5b808211156200012c576000815560010162000131565b600082601f83011262000158578081fd5b81516001600160401b0380821115620001755762000175620002dd565b6040516020601f8401601f19168201810183811183821017156200019d576200019d620002dd565b6040528382528584018101871015620001b4578485fd5b8492505b83831015620001d75785830181015182840182015291820191620001b8565b83831115620001e857848185840101525b5095945050505050565b6000806000806080858703121562000208578384fd5b84516001600160401b03808211156200021f578586fd5b6200022d8883890162000147565b9550602087015191508082111562000243578485fd5b620002518883890162000147565b9450604087015191508082111562000267578384fd5b50620002768782880162000147565b606087015190935090506001600160a01b038116811462000295578182fd5b939692955090935050565b600281046001821680620002b557607f821691505b60208210811415620002d757634e487b7160e01b600052602260045260246000fd5b50919050565b634e487b7160e01b600052604160045260246000fd5b6116f180620003036000396000f3fe608060405234801561001057600080fd5b50600436106101005760003560e01c80636a62784211610097578063a22cb46511610066578063a22cb46514610207578063b88d4fde1461021a578063c87b56dd1461022d578063e985e9c51461024057610100565b80636a627842146101c457806370a08231146101d757806395d89b41146101f75780639d35c161146101ff57610100565b806323b872dd116100d357806323b872dd1461017857806342842e0e1461018b57806342966c681461019e5780636352211e146101b157610100565b806301ffc9a71461010557806306fdde031461012e578063081812fc14610143578063095ea7b314610163575b600080fd5b610118610113366004610f9e565b610253565b6040516101259190611099565b60405180910390f35b61013661029b565b60405161012591906110a4565b610156610151366004610fd6565b61032d565b6040516101259190611049565b610176610171366004610f75565b610379565b005b610176610186366004610e34565b610411565b610176610199366004610e34565b610449565b6101766101ac366004610fd6565b610464565b6101566101bf366004610fd6565b610497565b6101766101d2366004610de8565b6104cc565b6101ea6101e5366004610de8565b610523565b6040516101259190611581565b610136610567565b610156610576565b610176610215366004610f3b565b610585565b610176610228366004610e6f565b610653565b61013661023b366004610fd6565b610692565b61011861024e366004610e02565b610715565b60006001600160e01b031982166380ac58cd60e01b148061028457506001600160e01b03198216635b5e139f60e01b145b80610293575061029382610743565b90505b919050565b6060600080546102aa906115f9565b80601f01602080910402602001604051908101604052809291908181526020018280546102d6906115f9565b80156103235780601f106102f857610100808354040283529160200191610323565b820191906000526020600020905b81548152906001019060200180831161030657829003601f168201915b5050505050905090565b60006103388261075c565b61035d5760405162461bcd60e51b815260040161035490611394565b60405180910390fd5b506000908152600460205260409020546001600160a01b031690565b600061038482610497565b9050806001600160a01b0316836001600160a01b031614156103b85760405162461bcd60e51b815260040161035490611486565b806001600160a01b03166103ca610779565b6001600160a01b031614806103e657506103e68161024e610779565b6104025760405162461bcd60e51b81526004016103549061126f565b61040c838361077d565b505050565b61042261041c610779565b826107eb565b61043e5760405162461bcd60e51b8152600401610354906114c7565b61040c838383610870565b61040c83838360405180602001604052806000815250610653565b61046f61041c610779565b61048b5760405162461bcd60e51b815260040161035490611524565b6104948161099d565b50565b6000818152600260205260408120546001600160a01b0316806102935760405162461bcd60e51b815260040161035490611316565b6007546001600160a01b03166104e0610779565b6001600160a01b0316146105065760405162461bcd60e51b81526004016103549061114b565b610519816105146006610a44565b610a48565b6104946006610b27565b60006001600160a01b03821661054b5760405162461bcd60e51b8152600401610354906112cc565b506001600160a01b031660009081526003602052604090205490565b6060600180546102aa906115f9565b6007546001600160a01b031681565b61058d610779565b6001600160a01b0316826001600160a01b031614156105be5760405162461bcd60e51b8152600401610354906111ec565b80600560006105cb610779565b6001600160a01b03908116825260208083019390935260409182016000908120918716808252919093529120805460ff19169215159290921790915561060f610779565b6001600160a01b03167f17307eab39ab6107e8899845ad3d59bd9653f200f220920489ca2b5937696c31836040516106479190611099565b60405180910390a35050565b61066461065e610779565b836107eb565b6106805760405162461bcd60e51b8152600401610354906114c7565b61068c84848484610b30565b50505050565b606061069d8261075c565b6106b95760405162461bcd60e51b815260040161035490611429565b60006106c3610b63565b905060008151116106e3576040518060200160405280600081525061070e565b806106ed84610b72565b6040516020016106fe92919061101a565b6040516020818303038152906040525b9392505050565b6001600160a01b03918216600090815260056020908152604080832093909416825291909152205460ff1690565b6001600160e01b031981166301ffc9a760e01b14919050565b6000908152600260205260409020546001600160a01b0316151590565b3390565b600081815260046020526040902080546001600160a01b0319166001600160a01b03841690811790915581906107b282610497565b6001600160a01b03167f8c5be1e5ebec7d5bd14f71427d1e84f3dd0314c0f7b2291e5b200ac8c7c3b92560405160405180910390a45050565b60006107f68261075c565b6108125760405162461bcd60e51b815260040161035490611223565b600061081d83610497565b9050806001600160a01b0316846001600160a01b031614806108585750836001600160a01b031661084d8461032d565b6001600160a01b0316145b8061086857506108688185610715565b949350505050565b826001600160a01b031661088382610497565b6001600160a01b0316146108a95760405162461bcd60e51b8152600401610354906113e0565b6001600160a01b0382166108cf5760405162461bcd60e51b8152600401610354906111a8565b6108da838383610ca5565b6108e560008261077d565b6001600160a01b038316600090815260036020526040812080546001929061090e9084906115b6565b90915550506001600160a01b038216600090815260036020526040812080546001929061093c90849061158a565b909155505060008181526002602052604080822080546001600160a01b0319166001600160a01b0386811691821790925591518493918716917fddf252ad1be2c89b69c2b068fc378daa952ba7f163c4a11628f55a4df523b3ef91a4505050565b60006109a882610497565b90506109b681600084610ca5565b6109c160008361077d565b6001600160a01b03811660009081526003602052604081208054600192906109ea9084906115b6565b909155505060008281526002602052604080822080546001600160a01b0319169055518391906001600160a01b038416907fddf252ad1be2c89b69c2b068fc378daa952ba7f163c4a11628f55a4df523b3ef908390a45050565b5490565b6001600160a01b038216610a6e5760405162461bcd60e51b81526004016103549061135f565b610a778161075c565b15610a945760405162461bcd60e51b815260040161035490611114565b610aa060008383610ca5565b6001600160a01b0382166000908152600360205260408120805460019290610ac990849061158a565b909155505060008181526002602052604080822080546001600160a01b0319166001600160a01b03861690811790915590518392907fddf252ad1be2c89b69c2b068fc378daa952ba7f163c4a11628f55a4df523b3ef908290a45050565b80546001019055565b610b3b848484610870565b610b4784848484610cb0565b61068c5760405162461bcd60e51b8152600401610354906110b7565b6060600880546102aa906115f9565b606081610b9757506040805180820190915260018152600360fc1b6020820152610296565b8160005b8115610bc15780610bab81611634565b9150610bba9050600a836115a2565b9150610b9b565b60008167ffffffffffffffff811115610bea57634e487b7160e01b600052604160045260246000fd5b6040519080825280601f01601f191660200182016040528015610c14576020820181803683370190505b5090505b841561086857610c296001836115b6565b9150610c36600a8661164f565b610c4190603061158a565b60f81b818381518110610c6457634e487b7160e01b600052603260045260246000fd5b60200101907effffffffffffffffffffffffffffffffffffffffffffffffffffffffffffff1916908160001a905350610c9e600a866115a2565b9450610c18565b61040c83838361040c565b6000610cc4846001600160a01b0316610dcb565b15610dc057836001600160a01b031663150b7a02610ce0610779565b8786866040518563ffffffff1660e01b8152600401610d02949392919061105d565b602060405180830381600087803b158015610d1c57600080fd5b505af1925050508015610d4c575060408051601f3d908101601f19168201909252610d4991810190610fba565b60015b610da6573d808015610d7a576040519150601f19603f3d011682016040523d82523d6000602084013e610d7f565b606091505b508051610d9e5760405162461bcd60e51b8152600401610354906110b7565b805181602001fd5b6001600160e01b031916630a85bd0160e11b149050610868565b506001949350505050565b3b151590565b80356001600160a01b038116811461029657600080fd5b600060208284031215610df9578081fd5b61070e82610dd1565b60008060408385031215610e14578081fd5b610e1d83610dd1565b9150610e2b60208401610dd1565b90509250929050565b600080600060608486031215610e48578081fd5b610e5184610dd1565b9250610e5f60208501610dd1565b9150604084013590509250925092565b60008060008060808587031215610e84578081fd5b610e8d85610dd1565b93506020610e9c818701610dd1565b935060408601359250606086013567ffffffffffffffff80821115610ebf578384fd5b818801915088601f830112610ed2578384fd5b813581811115610ee457610ee461168f565b604051601f8201601f1916810185018381118282101715610f0757610f0761168f565b60405281815283820185018b1015610f1d578586fd5b81858501868301379081019093019390935250939692955090935050565b60008060408385031215610f4d578182fd5b610f5683610dd1565b915060208301358015158114610f6a578182fd5b809150509250929050565b60008060408385031215610f87578182fd5b610f9083610dd1565b946020939093013593505050565b600060208284031215610faf578081fd5b813561070e816116a5565b600060208284031215610fcb578081fd5b815161070e816116a5565b600060208284031215610fe7578081fd5b5035919050565b600081518084526110068160208601602086016115cd565b601f01601f19169290920160200192915050565b6000835161102c8184602088016115cd565b8351908301906110408183602088016115cd565b01949350505050565b6001600160a01b0391909116815260200190565b60006001600160a01b0380871683528086166020840152508360408301526080606083015261108f6080830184610fee565b9695505050505050565b901515815260200190565b60006020825261070e6020830184610fee565b60208082526032908201527f4552433732313a207472616e7366657220746f206e6f6e20455243373231526560408201527f63656976657220696d706c656d656e7465720000000000000000000000000000606082015260800190565b6020808252601c908201527f4552433732313a20746f6b656e20616c7265616479206d696e74656400000000604082015260600190565b60208082526039908201527f5052495649506f64455243373231546f6b656e3a204f6e6c7920466163746f7260408201527f792063616e2063616c6c20746869732066756e6374696f6e2e00000000000000606082015260800190565b60208082526024908201527f4552433732313a207472616e7366657220746f20746865207a65726f206164646040820152637265737360e01b606082015260800190565b60208082526019908201527f4552433732313a20617070726f766520746f2063616c6c657200000000000000604082015260600190565b6020808252602c908201527f4552433732313a206f70657261746f7220717565727920666f72206e6f6e657860408201526b34b9ba32b73a103a37b5b2b760a11b606082015260800190565b60208082526038908201527f4552433732313a20617070726f76652063616c6c6572206973206e6f74206f7760408201527f6e6572206e6f7220617070726f76656420666f7220616c6c0000000000000000606082015260800190565b6020808252602a908201527f4552433732313a2062616c616e636520717565727920666f7220746865207a65604082015269726f206164647265737360b01b606082015260800190565b60208082526029908201527f4552433732313a206f776e657220717565727920666f72206e6f6e657869737460408201526832b73a103a37b5b2b760b91b606082015260800190565b6020808252818101527f4552433732313a206d696e7420746f20746865207a65726f2061646472657373604082015260600190565b6020808252602c908201527f4552433732313a20617070726f76656420717565727920666f72206e6f6e657860408201526b34b9ba32b73a103a37b5b2b760a11b606082015260800190565b60208082526029908201527f4552433732313a207472616e73666572206f6620746f6b656e2074686174206960408201526839903737ba1037bbb760b91b606082015260800190565b6020808252602f908201527f4552433732314d657461646174613a2055524920717565727920666f72206e6f60408201527f6e6578697374656e7420746f6b656e0000000000000000000000000000000000606082015260800190565b60208082526021908201527f4552433732313a20617070726f76616c20746f2063757272656e74206f776e656040820152603960f91b606082015260800190565b60208082526031908201527f4552433732313a207472616e736665722063616c6c6572206973206e6f74206f60408201527f776e6572206e6f7220617070726f766564000000000000000000000000000000606082015260800190565b60208082526030908201527f4552433732314275726e61626c653a2063616c6c6572206973206e6f74206f7760408201527f6e6572206e6f7220617070726f76656400000000000000000000000000000000606082015260800190565b90815260200190565b6000821982111561159d5761159d611663565b500190565b6000826115b1576115b1611679565b500490565b6000828210156115c8576115c8611663565b500390565b60005b838110156115e85781810151838201526020016115d0565b8381111561068c5750506000910152565b60028104600182168061160d57607f821691505b6020821081141561162e57634e487b7160e01b600052602260045260246000fd5b50919050565b600060001982141561164857611648611663565b5060010190565b60008261165e5761165e611679565b500690565b634e487b7160e01b600052601160045260246000fd5b634e487b7160e01b600052601260045260246000fd5b634e487b7160e01b600052604160045260246000fd5b6001600160e01b03198116811461049457600080fdfea26469706673582212207733d8b2b46ad6016e760be7590e63bb4c65466df344859120205456243d9b6e64736f6c63430008000033a2646970667358221220bbf2c5e845e2cc854326860dcfcafe1231657fe94ebb89a467d03ccca745f5bc64736f6c63430008000033",
  "immutableReferences": {},
  "source": "// SPDX-License-Identifier: MIT\n\npragma solidity ^0.8.0;\n\nimport \"@openzeppelin/contracts/access/AccessControl.sol\";\nimport \"@openzeppelin/contracts/utils/math/SafeMath.sol\";\nimport \"./token/PRIVIPodERC721Token.sol\";\nimport \"./interfaces/IBridgeManager.sol\";\n\ncontract PRIVIPodERC721Factory is AccessControl {\n  using SafeMath for uint256;\n\n  bytes32 public constant MODERATOR_ROLE = keccak256(\"MODERATOR_ROLE\");\n  address public bridgeManagerAddress;\n  uint256 private totalPodCreated;\n  mapping(string => address) private podTokenAddressesById;\n  mapping(string => address) private podTokenAddressesBySymbol;\n\n  event PodCreated(\n    string indexed podId,\n    string podTokenName,\n    string podTokenSymbol\n  );\n\n  /**\n   * @dev Grants `DEFAULT_ADMIN_ROLE` and `MODERATOR_ROLE` to the\n   * account that deploys the contract.\n   *\n   */\n  constructor(address bridgeAddress) {\n    _setupRole(DEFAULT_ADMIN_ROLE, _msgSender());\n    _setupRole(MODERATOR_ROLE, _msgSender());\n    bridgeManagerAddress = bridgeAddress;\n  }\n\n  function getTotalTokenCreated() external view returns (uint256 totalPods) {\n    totalPods = totalPodCreated;\n  }\n\n  function getPodAddressById(string calldata podId)\n    external\n    view\n    returns (address podAddress)\n  {\n    podAddress = podTokenAddressesById[podId];\n  }\n\n  function getPodAddressBySymbol(string calldata tokenSymbol)\n    external\n    view\n    returns (address podAddress)\n  {\n    podAddress = podTokenAddressesBySymbol[tokenSymbol];\n  }\n\n  /**\n   *@dev Create pods\n   *\n   * Requirements:\n   *\n   * - pod should not exist before.\n   */\n  function createPod(\n    string calldata podId,\n    string calldata podTokenName,\n    string calldata podTokenSymbol,\n    string calldata baseURI\n  ) external returns (address podAddress) {\n    // require(hasRole(MODERATOR_ROLE, _msgSender()), \"PRIVIPodERC721TokenFactory: must have MODERATOR_ROLE to create pod.\");\n    require(\n      podTokenAddressesById[podId] == address(0),\n      \"PRIVIPodERC721TokenFactory: Pod id already exists.\"\n    );\n    require(\n      podTokenAddressesBySymbol[podTokenSymbol] == address(0),\n      \"PRIVIPodERC721TokenFactory: Pod symbol already exists.\"\n    );\n    PRIVIPodERC721Token podToken =\n      new PRIVIPodERC721Token(\n        podTokenName,\n        podTokenSymbol,\n        baseURI,\n        address(this)\n      );\n    podAddress = address(podToken);\n    totalPodCreated.add(1);\n    podTokenAddressesById[podId] = podAddress;\n    podTokenAddressesBySymbol[podTokenSymbol] = podAddress;\n    IBridgeManager(bridgeManagerAddress).registerTokenERC721(\n      podTokenName,\n      podTokenSymbol,\n      podAddress\n    );\n    emit PodCreated(podId, podTokenName, podTokenSymbol);\n  }\n\n  /**\n   * @dev Moderator will mint the amount of pod token for the investor's account\n   *\n   * Requirements:\n   *\n   * - the caller must MODERATOR_ROLE to perform this action.\n   */\n  function mintPodTokenById(string calldata podId, address account) external {\n    require(\n      hasRole(MODERATOR_ROLE, _msgSender()),\n      \"PRIVIPodERC721Token: must have MODERATOR_ROLE to invest for investor.\"\n    );\n    require(\n      account != address(0),\n      \"PRIVIPodERC721Token: Account address should not be zero.\"\n    );\n    PRIVIPodERC721Token(podTokenAddressesById[podId]).mint(account);\n  }\n\n  /**\n   * @dev Moderator will mint the amount of pod token for the investor's account\n   *\n   * Requirements:\n   *\n   * - the caller must MODERATOR_ROLE to perform this action.\n   */\n  function mintPodTokenBySymbol(string calldata tokenSymbol, address account)\n    external\n  {\n    require(\n      hasRole(MODERATOR_ROLE, _msgSender()),\n      \"PRIVIPodERC721Token: must have MODERATOR_ROLE to invest for investor.\"\n    );\n    require(\n      account != address(0),\n      \"PRIVIPodERC721Token: Account address should not be zero.\"\n    );\n    PRIVIPodERC721Token(podTokenAddressesBySymbol[tokenSymbol]).mint(account);\n  }\n}\n",
  "sourcePath": "/home/rekard0/Documents/WORK/PriviEthereum/PRIVIethereum/contracts/PRIVIPodERC721Factory.sol",
  "compiler": {
    "name": "solc",
    "version": "0.8.0+commit.c7dfd78e.Emscripten.clang"
  },
  "schemaVersion": "3.3.3",
  "updatedAt": "2021-03-19T10:15:13.727Z",
  "networkType": "ethereum",
  "devdoc": {
    "kind": "dev",
    "methods": {
      "constructor": {
        "details": "Grants `DEFAULT_ADMIN_ROLE` and `MODERATOR_ROLE` to the account that deploys the contract."
      },
      "createPod(string,string,string,string)": {
        "details": "Create pods Requirements: - pod should not exist before."
      },
      "getRoleAdmin(bytes32)": {
        "details": "Returns the admin role that controls `role`. See {grantRole} and {revokeRole}. To change a role's admin, use {_setRoleAdmin}."
      },
      "grantRole(bytes32,address)": {
        "details": "Grants `role` to `account`. If `account` had not been already granted `role`, emits a {RoleGranted} event. Requirements: - the caller must have ``role``'s admin role."
      },
      "hasRole(bytes32,address)": {
        "details": "Returns `true` if `account` has been granted `role`."
      },
      "mintPodTokenById(string,address)": {
        "details": "Moderator will mint the amount of pod token for the investor's account Requirements: - the caller must MODERATOR_ROLE to perform this action."
      },
      "mintPodTokenBySymbol(string,address)": {
        "details": "Moderator will mint the amount of pod token for the investor's account Requirements: - the caller must MODERATOR_ROLE to perform this action."
      },
      "renounceRole(bytes32,address)": {
        "details": "Revokes `role` from the calling account. Roles are often managed via {grantRole} and {revokeRole}: this function's purpose is to provide a mechanism for accounts to lose their privileges if they are compromised (such as when a trusted device is misplaced). If the calling account had been granted `role`, emits a {RoleRevoked} event. Requirements: - the caller must be `account`."
      },
      "revokeRole(bytes32,address)": {
        "details": "Revokes `role` from `account`. If `account` had been granted `role`, emits a {RoleRevoked} event. Requirements: - the caller must have ``role``'s admin role."
      },
      "supportsInterface(bytes4)": {
        "details": "See {IERC165-supportsInterface}."
      }
    },
    "version": 1
  },
  "userdoc": {
    "kind": "user",
    "methods": {},
    "version": 1
  }
}