{
  "contractName": "PRIVIPodERC1155Factory",
  "abi": [
    {
      "inputs": [
        {
          "internalType": "address",
          "name": "bridgeAddress",
          "type": "address"
        }
      ],
      "stateMutability": "nonpayable",
      "type": "constructor"
    },
    {
      "anonymous": false,
      "inputs": [
        {
          "indexed": true,
          "internalType": "string",
          "name": "uri",
          "type": "string"
        },
        {
          "indexed": false,
          "internalType": "address",
          "name": "podAddress",
          "type": "address"
        }
      ],
      "name": "PodCreated",
      "type": "event"
    },
    {
      "anonymous": false,
      "inputs": [
        {
          "indexed": true,
          "internalType": "bytes32",
          "name": "role",
          "type": "bytes32"
        },
        {
          "indexed": true,
          "internalType": "bytes32",
          "name": "previousAdminRole",
          "type": "bytes32"
        },
        {
          "indexed": true,
          "internalType": "bytes32",
          "name": "newAdminRole",
          "type": "bytes32"
        }
      ],
      "name": "RoleAdminChanged",
      "type": "event"
    },
    {
      "anonymous": false,
      "inputs": [
        {
          "indexed": true,
          "internalType": "bytes32",
          "name": "role",
          "type": "bytes32"
        },
        {
          "indexed": true,
          "internalType": "address",
          "name": "account",
          "type": "address"
        },
        {
          "indexed": true,
          "internalType": "address",
          "name": "sender",
          "type": "address"
        }
      ],
      "name": "RoleGranted",
      "type": "event"
    },
    {
      "anonymous": false,
      "inputs": [
        {
          "indexed": true,
          "internalType": "bytes32",
          "name": "role",
          "type": "bytes32"
        },
        {
          "indexed": true,
          "internalType": "address",
          "name": "account",
          "type": "address"
        },
        {
          "indexed": true,
          "internalType": "address",
          "name": "sender",
          "type": "address"
        }
      ],
      "name": "RoleRevoked",
      "type": "event"
    },
    {
      "inputs": [],
      "name": "DEFAULT_ADMIN_ROLE",
      "outputs": [
        {
          "internalType": "bytes32",
          "name": "",
          "type": "bytes32"
        }
      ],
      "stateMutability": "view",
      "type": "function"
    },
    {
      "inputs": [],
      "name": "MODERATOR_ROLE",
      "outputs": [
        {
          "internalType": "bytes32",
          "name": "",
          "type": "bytes32"
        }
      ],
      "stateMutability": "view",
      "type": "function"
    },
    {
      "inputs": [],
      "name": "bridgeManagerAddress",
      "outputs": [
        {
          "internalType": "address",
          "name": "",
          "type": "address"
        }
      ],
      "stateMutability": "view",
      "type": "function"
    },
    {
      "inputs": [
        {
          "internalType": "bytes32",
          "name": "role",
          "type": "bytes32"
        }
      ],
      "name": "getRoleAdmin",
      "outputs": [
        {
          "internalType": "bytes32",
          "name": "",
          "type": "bytes32"
        }
      ],
      "stateMutability": "view",
      "type": "function"
    },
    {
      "inputs": [
        {
          "internalType": "bytes32",
          "name": "role",
          "type": "bytes32"
        },
        {
          "internalType": "address",
          "name": "account",
          "type": "address"
        }
      ],
      "name": "grantRole",
      "outputs": [],
      "stateMutability": "nonpayable",
      "type": "function"
    },
    {
      "inputs": [
        {
          "internalType": "bytes32",
          "name": "role",
          "type": "bytes32"
        },
        {
          "internalType": "address",
          "name": "account",
          "type": "address"
        }
      ],
      "name": "hasRole",
      "outputs": [
        {
          "internalType": "bool",
          "name": "",
          "type": "bool"
        }
      ],
      "stateMutability": "view",
      "type": "function"
    },
    {
      "inputs": [
        {
          "internalType": "string",
          "name": "",
          "type": "string"
        }
      ],
      "name": "podTokenAddresses",
      "outputs": [
        {
          "internalType": "address",
          "name": "",
          "type": "address"
        }
      ],
      "stateMutability": "view",
      "type": "function"
    },
    {
      "inputs": [
        {
          "internalType": "bytes32",
          "name": "role",
          "type": "bytes32"
        },
        {
          "internalType": "address",
          "name": "account",
          "type": "address"
        }
      ],
      "name": "renounceRole",
      "outputs": [],
      "stateMutability": "nonpayable",
      "type": "function"
    },
    {
      "inputs": [
        {
          "internalType": "bytes32",
          "name": "role",
          "type": "bytes32"
        },
        {
          "internalType": "address",
          "name": "account",
          "type": "address"
        }
      ],
      "name": "revokeRole",
      "outputs": [],
      "stateMutability": "nonpayable",
      "type": "function"
    },
    {
      "inputs": [
        {
          "internalType": "bytes4",
          "name": "interfaceId",
          "type": "bytes4"
        }
      ],
      "name": "supportsInterface",
      "outputs": [
        {
          "internalType": "bool",
          "name": "",
          "type": "bool"
        }
      ],
      "stateMutability": "view",
      "type": "function"
    },
    {
      "inputs": [],
      "name": "totalPodCreated",
      "outputs": [
        {
          "internalType": "uint256",
          "name": "",
          "type": "uint256"
        }
      ],
      "stateMutability": "view",
      "type": "function"
    },
    {
      "inputs": [
        {
          "internalType": "address",
          "name": "swapManagerAddress",
          "type": "address"
        }
      ],
      "name": "assignRoleSwapManager",
      "outputs": [],
      "stateMutability": "nonpayable",
      "type": "function"
    },
    {
      "inputs": [
        {
          "internalType": "string",
          "name": "uri",
          "type": "string"
        }
      ],
      "name": "getPodAddressByUri",
      "outputs": [
        {
          "internalType": "address",
          "name": "podAddress",
          "type": "address"
        }
      ],
      "stateMutability": "view",
      "type": "function"
    },
    {
      "inputs": [
        {
          "internalType": "string",
          "name": "uri",
          "type": "string"
        }
      ],
      "name": "createPod",
      "outputs": [
        {
          "internalType": "address",
          "name": "podAddress",
          "type": "address"
        }
      ],
      "stateMutability": "nonpayable",
      "type": "function"
    },
    {
      "inputs": [
        {
          "internalType": "string",
          "name": "uri",
          "type": "string"
        },
        {
          "internalType": "address",
          "name": "account",
          "type": "address"
        },
        {
          "internalType": "uint256",
          "name": "tokenId",
          "type": "uint256"
        },
        {
          "internalType": "uint256",
          "name": "amount",
          "type": "uint256"
        },
        {
          "internalType": "bytes",
          "name": "data",
          "type": "bytes"
        }
      ],
      "name": "podMint",
      "outputs": [],
      "stateMutability": "nonpayable",
      "type": "function"
    },
    {
      "inputs": [
        {
          "internalType": "string",
          "name": "uri",
          "type": "string"
        },
        {
          "internalType": "address",
          "name": "account",
          "type": "address"
        },
        {
          "internalType": "uint256[]",
          "name": "tokenIds",
          "type": "uint256[]"
        },
        {
          "internalType": "uint256[]",
          "name": "amounts",
          "type": "uint256[]"
        },
        {
          "internalType": "bytes",
          "name": "data",
          "type": "bytes"
        }
      ],
      "name": "podMintBatch",
      "outputs": [],
      "stateMutability": "nonpayable",
      "type": "function"
    }
  ],
  "bytecode": "0x60806040523480156200001157600080fd5b506040516200365838038062003658833981016040819052620000349162000166565b6200004a6000620000446200009f565b620000a3565b620000797f71f3d55856e4058ed06ee057d79ada615f65cdf5f9ee88181b914225088f834f620000446200009f565b600180546001600160a01b0319166001600160a01b039290921691909117905562000196565b3390565b620000af8282620000b3565b5050565b620000bf82826200013d565b620000af576000828152602081815260408083206001600160a01b03851684529091529020805460ff19166001179055620000f96200009f565b6001600160a01b0316816001600160a01b0316837f2f8788117e7eff1d82e926ec794901d17c78024a50270940304540a733656f0d60405160405180910390a45050565b6000918252602082815260408084206001600160a01b0393909316845291905290205460ff1690565b60006020828403121562000178578081fd5b81516001600160a01b03811681146200018f578182fd5b9392505050565b6134b280620001a66000396000f3fe60806040523480156200001157600080fd5b5060043610620001185760003560e01c806391d1485411620000a5578063dc2e187a116200006f578063dc2e187a146200024f578063e792b1941462000259578063e8c28f3d1462000263578063fa5935ee146200027a5762000118565b806391d148541462000200578063a217fddf1462000217578063c9f4ef011462000221578063d547741f14620002385762000118565b806336568abe11620000e757806336568abe14620001b1578063797669c914620001c85780638d1909ed14620001d25780638dcab0f914620001e95762000118565b806301ffc9a7146200011d578063111007d4146200014c578063248a9ca314620001725780632f2ff15d1462000198575b600080fd5b620001346200012e36600462000b34565b62000291565b60405162000143919062000eab565b60405180910390f35b620001636200015d36600462000b5e565b620002c1565b60405162000143919062000e00565b620001896200018336600462000aed565b62000483565b60405162000143919062000eb6565b620001af620001a936600462000b06565b62000498565b005b620001af620001c236600462000b06565b620004e0565b6200018962000529565b620001af620001e336600462000ad0565b6200054d565b620001af620001fa36600462000ba2565b620005ca565b620001346200021136600462000b06565b620006d4565b62000189620006fd565b620001af6200023236600462000c79565b62000702565b620001af6200024936600462000b06565b620007f2565b6200018962000820565b6200016362000826565b620001636200027436600462000cf4565b62000835565b620001636200028b36600462000b5e565b6200085b565b60006001600160e01b03198216637965db0b60e01b1480620002b95750620002b98262000891565b90505b919050565b6000806001600160a01b031660038484604051620002e192919062000df0565b908152604051908190036020019020546001600160a01b031614620003235760405162461bcd60e51b81526004016200031a906200112c565b60405180910390fd5b60008383306040516200033690620009d5565b620003449392919062000ebf565b604051809103906000f08015801562000361573d6000803e3d6000fd5b5060025490925082915062000378906001620008aa565b5081600385856040516200038e92919062000df0565b90815260405190819003602001812080546001600160a01b0393841673ffffffffffffffffffffffffffffffffffffffff1990911617905560015463026a412d60e51b825290911690634d4825a090620003f5908790879082908290899060040162000eee565b600060405180830381600087803b1580156200041057600080fd5b505af115801562000425573d6000803e3d6000fd5b5050505083836040516200043b92919062000df0565b60405180910390207fc84bc1fa0709a57027c0460a2e859f1a2376e90445c85eed2242f4d98f2068d68360405162000474919062000e00565b60405180910390a25092915050565b60009081526020819052604090206001015490565b620004b1620004a78362000483565b62000211620008bf565b620004d05760405162461bcd60e51b81526004016200031a9062000f35565b620004dc8282620008c3565b5050565b620004ea620008bf565b6001600160a01b0316816001600160a01b0316146200051d5760405162461bcd60e51b81526004016200031a90620011d4565b620004dc82826200094d565b7f71f3d55856e4058ed06ee057d79ada615f65cdf5f9ee88181b914225088f834f81565b6200057c7f71f3d55856e4058ed06ee057d79ada615f65cdf5f9ee88181b914225088f834f62000211620008bf565b6200059b5760405162461bcd60e51b81526004016200031a90620010ba565b620005c77f71f3d55856e4058ed06ee057d79ada615f65cdf5f9ee88181b914225088f834f82620004d0565b50565b620005f97f71f3d55856e4058ed06ee057d79ada615f65cdf5f9ee88181b914225088f834f62000211620008bf565b620006185760405162461bcd60e51b81526004016200031a9062000f92565b6001600160a01b038516620006415760405162461bcd60e51b81526004016200031a906200105d565b600387876040516200065592919062000df0565b90815260405190819003602001812054630fbfeffd60e11b82526001600160a01b031690631f7fdffa9062000697908890889088908890889060040162000e14565b600060405180830381600087803b158015620006b257600080fd5b505af1158015620006c7573d6000803e3d6000fd5b5050505050505050505050565b6000918252602082815260408084206001600160a01b0393909316845291905290205460ff1690565b600081565b620007317f71f3d55856e4058ed06ee057d79ada615f65cdf5f9ee88181b914225088f834f62000211620008bf565b620007505760405162461bcd60e51b81526004016200031a9062000f92565b6001600160a01b038516620007795760405162461bcd60e51b81526004016200031a906200105d565b600083116200079c5760405162461bcd60e51b81526004016200031a9062001177565b60038787604051620007b092919062000df0565b9081526040519081900360200181205463731133e960e01b82526001600160a01b03169063731133e99062000697908890889088908890889060040162000e6f565b62000801620004a78362000483565b6200051d5760405162461bcd60e51b81526004016200031a9062001000565b60025481565b6001546001600160a01b031681565b80516020818301810180516003825292820191909301209152546001600160a01b031681565b6000600383836040516200087192919062000df0565b908152604051908190036020019020546001600160a01b03169392505050565b6001600160e01b031981166301ffc9a760e01b14919050565b6000620008b882846200125e565b9392505050565b3390565b620008cf8282620006d4565b620004dc576000828152602081815260408083206001600160a01b03851684529091529020805460ff1916600117905562000909620008bf565b6001600160a01b0316816001600160a01b0316837f2f8788117e7eff1d82e926ec794901d17c78024a50270940304540a733656f0d60405160405180910390a45050565b620009598282620006d4565b15620004dc576000828152602081815260408083206001600160a01b03851684529091529020805460ff1916905562000991620008bf565b6001600160a01b0316816001600160a01b0316837ff6391f5c32d9c69d2a47ea670b442974b53935d1edc7fd64eb21e047a839171b60405160405180910390a45050565b6121e3806200129a83390190565b80356001600160a01b0381168114620002bc57600080fd5b600082601f83011262000a0c578081fd5b8135602067ffffffffffffffff82111562000a2b5762000a2b62001283565b80820262000a3b82820162001231565b83815282810190868401838801850189101562000a56578687fd5b8693505b8584101562000a7a57803583526001939093019291840191840162000a5a565b50979650505050505050565b60008083601f84011262000a98578182fd5b50813567ffffffffffffffff81111562000ab0578182fd5b60208301915083602082850101111562000ac957600080fd5b9250929050565b60006020828403121562000ae2578081fd5b620008b882620009e3565b60006020828403121562000aff578081fd5b5035919050565b6000806040838503121562000b19578081fd5b8235915062000b2b60208401620009e3565b90509250929050565b60006020828403121562000b46578081fd5b81356001600160e01b031981168114620008b8578182fd5b6000806020838503121562000b71578182fd5b823567ffffffffffffffff81111562000b88578283fd5b62000b968582860162000a86565b90969095509350505050565b600080600080600080600060a0888a03121562000bbd578283fd5b873567ffffffffffffffff8082111562000bd5578485fd5b62000be38b838c0162000a86565b909950975087915062000bf960208b01620009e3565b965060408a013591508082111562000c0f578485fd5b62000c1d8b838c01620009fb565b955060608a013591508082111562000c33578485fd5b62000c418b838c01620009fb565b945060808a013591508082111562000c57578384fd5b5062000c668a828b0162000a86565b989b979a50959850939692959293505050565b600080600080600080600060a0888a03121562000c94578283fd5b873567ffffffffffffffff8082111562000cac578485fd5b62000cba8b838c0162000a86565b909950975087915062000cd060208b01620009e3565b965060408a0135955060608a0135945060808a013591508082111562000c57578384fd5b6000602080838503121562000d07578182fd5b823567ffffffffffffffff8082111562000d1f578384fd5b818501915085601f83011262000d33578384fd5b81358181111562000d485762000d4862001283565b62000d5c601f8201601f1916850162001231565b9150808252868482850101111562000d72578485fd5b80848401858401378101909201929092529392505050565b6000815180845260208085019450808401835b8381101562000dbb5781518752958201959082019060010162000d9d565b509495945050505050565b60008284528282602086013780602084860101526020601f19601f85011685010190509392505050565b6000828483379101908152919050565b6001600160a01b0391909116815260200190565b60006001600160a01b03871682526080602083015262000e38608083018762000d8a565b828103604084015262000e4c818762000d8a565b9050828103606084015262000e6381858762000dc6565b98975050505050505050565b60006001600160a01b03871682528560208301528460408301526080606083015262000ea060808301848662000dc6565b979650505050505050565b901515815260200190565b90815260200190565b60006040825262000ed560408301858762000dc6565b90506001600160a01b0383166020830152949350505050565b60006060825262000f0460608301878962000dc6565b828103602084015262000f1981868862000dc6565b9150506001600160a01b03831660408301529695505050505050565b6020808252602f908201527f416363657373436f6e74726f6c3a2073656e646572206d75737420626520616e60408201527f2061646d696e20746f206772616e740000000000000000000000000000000000606082015260800190565b60208082526048908201527f5052495649506f6445524331313535466163746f72793a206d7573742068617660408201527f65204d4f44455241544f525f524f4c4520746f20696e7665737420666f722069606082015267373b32b9ba37b91760c11b608082015260a00190565b60208082526030908201527f416363657373436f6e74726f6c3a2073656e646572206d75737420626520616e60408201527f2061646d696e20746f207265766f6b6500000000000000000000000000000000606082015260800190565b6020808252603b908201527f5052495649506f6445524331313535466163746f72793a204163636f756e742060408201527f616464726573732073686f756c64206e6f74206265207a65726f2e0000000000606082015260800190565b6020808252604c908201527f5052495649506f644552433230466163746f72793a206d75737420686176652060408201527f4d4f44455241544f525f524f4c4520746f2061737369676e20537761704d616e60608201526b61676572206164647265737360a01b608082015260a00190565b6020808252602b908201527f5052495649506f6445524331313535466163746f72793a20506f6420616c726560408201526a30b23c9032bc34b9ba399760a91b606082015260800190565b60208082526032908201527f5052495649506f6445524331313535466163746f72793a20616d6f756e74207360408201527f686f756c64206e6f74206265207a65726f2e0000000000000000000000000000606082015260800190565b6020808252602f908201527f416363657373436f6e74726f6c3a2063616e206f6e6c792072656e6f756e636560408201527f20726f6c657320666f722073656c660000000000000000000000000000000000606082015260800190565b60405181810167ffffffffffffffff8111828210171562001256576200125662001283565b604052919050565b600082198211156200127e57634e487b7160e01b81526011600452602481fd5b500190565b634e487b7160e01b600052604160045260246000fdfe60806040523480156200001157600080fd5b50604051620021e3380380620021e3833981016040819052620000349162000144565b81620000408162000068565b50600380546001600160a01b0319166001600160a01b0392909216919091179055506200027b565b80516200007d90600290602084019062000081565b5050565b8280546200008f9062000228565b90600052602060002090601f016020900481019282620000b35760008555620000fe565b82601f10620000ce57805160ff1916838001178555620000fe565b82800160010185558215620000fe579182015b82811115620000fe578251825591602001919060010190620000e1565b506200010c92915062000110565b5090565b5b808211156200010c576000815560010162000111565b80516001600160a01b03811681146200013f57600080fd5b919050565b6000806040838503121562000157578182fd5b82516001600160401b03808211156200016e578384fd5b818501915085601f83011262000182578384fd5b81518181111562000197576200019762000265565b6040516020601f8301601f1916820181018481118382101715620001bf57620001bf62000265565b6040528282528483018101891015620001d6578687fd5b8693505b82841015620001f95784840181015182850182015292830192620001da565b828411156200020a57868184840101525b8196506200021a81890162000127565b955050505050509250929050565b6002810460018216806200023d57607f821691505b602082108114156200025f57634e487b7160e01b600052602260045260246000fd5b50919050565b634e487b7160e01b600052604160045260246000fd5b611f58806200028b6000396000f3fe608060405234801561001057600080fd5b50600436106100de5760003560e01c80636b20c4541161008c578063a22cb46511610066578063a22cb465146101cf578063e985e9c5146101e2578063f242432a146101f5578063f5298aca14610208576100de565b80636b20c45414610194578063731133e9146101a75780639d35c161146101ba576100de565b80631f7fdffa116100bd5780631f7fdffa1461014c5780632eb2c2d6146101615780634e1273f414610174576100de565b8062fdd58e146100e357806301ffc9a71461010c5780630e89341c1461012c575b600080fd5b6100f66100f13660046115c8565b61021b565b6040516101039190611d48565b60405180910390f35b61011f61011a366004611734565b610272565b6040516101039190611906565b61013f61013a366004611773565b6102ba565b6040516101039190611911565b61015f61015a3660046114f9565b61034e565b005b61015f61016f36600461137f565b61039a565b610187610182366004611676565b610600565b60405161010391906118c5565b61015f6101a2366004611488565b610720565b61015f6101b5366004611623565b61077a565b6101c26107c0565b6040516101039190611810565b61015f6101dd36600461158e565b6107cf565b61011f6101f036600461134d565b61089d565b61015f610203366004611425565b6108cb565b61015f6102163660046115f1565b610a61565b60006001600160a01b03831661024c5760405162461bcd60e51b8152600401610243906119c9565b60405180910390fd5b506000908152602081815260408083206001600160a01b03949094168352929052205490565b60006001600160e01b03198216636cdb3d1360e11b14806102a357506001600160e01b031982166303a24d0760e21b145b806102b257506102b282610ab6565b90505b919050565b6060600280546102c990611ddc565b80601f01602080910402602001604051908101604052809291908181526020018280546102f590611ddc565b80156103425780601f1061031757610100808354040283529160200191610342565b820191906000526020600020905b81548152906001019060200180831161032557829003601f168201915b50505050509050919050565b6003546001600160a01b0316610362610acf565b6001600160a01b0316146103885760405162461bcd60e51b815260040161024390611aa1565b61039484848484610ad4565b50505050565b81518351146103bb5760405162461bcd60e51b815260040161024390611cbf565b6001600160a01b0384166103e15760405162461bcd60e51b815260040161024390611afe565b6103e9610acf565b6001600160a01b0316856001600160a01b0316148061040f575061040f856101f0610acf565b61042b5760405162461bcd60e51b815260040161024390611b43565b6000610435610acf565b9050610445818787878787610c5c565b60005b845181101561059257600085828151811061047357634e487b7160e01b600052603260045260246000fd5b60200260200101519050600085838151811061049f57634e487b7160e01b600052603260045260246000fd5b602090810291909101810151600084815280835260408082206001600160a01b038e1683529093529190912054909150818110156104ef5760405162461bcd60e51b815260040161024390611be3565b6104f98282611dc5565b60008085815260200190815260200160002060008c6001600160a01b03166001600160a01b03168152602001908152602001600020819055508160008085815260200190815260200160002060008b6001600160a01b03166001600160a01b0316815260200190815260200160002060008282546105779190611dad565b925050819055505050508061058b90611e17565b9050610448565b50846001600160a01b0316866001600160a01b0316826001600160a01b03167f4a39dc06d4c0dbc64b70af90fd698a233a518aa5d07e595d983b8c0526c8f7fb87876040516105e29291906118d8565b60405180910390a46105f8818787878787610c6a565b505050505050565b606081518351146106235760405162461bcd60e51b815260040161024390611c76565b6000835167ffffffffffffffff81111561064d57634e487b7160e01b600052604160045260246000fd5b604051908082528060200260200182016040528015610676578160200160208202803683370190505b50905060005b8451811015610718576106dd8582815181106106a857634e487b7160e01b600052603260045260246000fd5b60200260200101518583815181106106d057634e487b7160e01b600052603260045260246000fd5b602002602001015161021b565b8282815181106106fd57634e487b7160e01b600052603260045260246000fd5b602090810291909101015261071181611e17565b905061067c565b509392505050565b610728610acf565b6001600160a01b0316836001600160a01b0316148061074e575061074e836101f0610acf565b61076a5760405162461bcd60e51b815260040161024390611a58565b610775838383610d78565b505050565b6003546001600160a01b031661078e610acf565b6001600160a01b0316146107b45760405162461bcd60e51b815260040161024390611aa1565b61039484848484610f36565b6003546001600160a01b031681565b816001600160a01b03166107e1610acf565b6001600160a01b031614156108085760405162461bcd60e51b815260040161024390611c2d565b8060016000610815610acf565b6001600160a01b03908116825260208083019390935260409182016000908120918716808252919093529120805460ff191692151592909217909155610859610acf565b6001600160a01b03167f17307eab39ab6107e8899845ad3d59bd9653f200f220920489ca2b5937696c31836040516108919190611906565b60405180910390a35050565b6001600160a01b03918216600090815260016020908152604080832093909416825291909152205460ff1690565b6001600160a01b0384166108f15760405162461bcd60e51b815260040161024390611afe565b6108f9610acf565b6001600160a01b0316856001600160a01b0316148061091f575061091f856101f0610acf565b61093b5760405162461bcd60e51b815260040161024390611a58565b6000610945610acf565b905061096581878761095688611016565b61095f88611016565b87610c5c565b6000848152602081815260408083206001600160a01b038a168452909152902054838110156109a65760405162461bcd60e51b815260040161024390611be3565b6109b08482611dc5565b6000868152602081815260408083206001600160a01b038c811685529252808320939093558816815290812080548692906109ec908490611dad565b92505081905550856001600160a01b0316876001600160a01b0316836001600160a01b03167fc3d58168c5ae7397731d063d5bbf3d657854427343f4c083240f7aacaa2d0f628888604051610a42929190611d51565b60405180910390a4610a5882888888888861106f565b50505050505050565b610a69610acf565b6001600160a01b0316836001600160a01b03161480610a8f5750610a8f836101f0610acf565b610aab5760405162461bcd60e51b815260040161024390611a58565b610775838383611140565b6001600160e01b031981166301ffc9a760e01b14919050565b335b90565b6001600160a01b038416610afa5760405162461bcd60e51b815260040161024390611d07565b8151835114610b1b5760405162461bcd60e51b815260040161024390611cbf565b6000610b25610acf565b9050610b3681600087878787610c5c565b60005b8451811015610bed57838181518110610b6257634e487b7160e01b600052603260045260246000fd5b6020026020010151600080878481518110610b8d57634e487b7160e01b600052603260045260246000fd5b602002602001015181526020019081526020016000206000886001600160a01b03166001600160a01b031681526020019081526020016000206000828254610bd59190611dad565b90915550819050610be581611e17565b915050610b39565b50846001600160a01b031660006001600160a01b0316826001600160a01b03167f4a39dc06d4c0dbc64b70af90fd698a233a518aa5d07e595d983b8c0526c8f7fb8787604051610c3e9291906118d8565b60405180910390a4610c5581600087878787610c6a565b5050505050565b6105f88686868686866105f8565b610c7c846001600160a01b0316611259565b156105f85760405163bc197c8160e01b81526001600160a01b0385169063bc197c8190610cb59089908990889088908890600401611824565b602060405180830381600087803b158015610ccf57600080fd5b505af1925050508015610cff575060408051601f3d908101601f19168201909252610cfc91810190611757565b60015b610d4857610d0b611e64565b80610d165750610d30565b8060405162461bcd60e51b81526004016102439190611911565b60405162461bcd60e51b815260040161024390611924565b6001600160e01b0319811663bc197c8160e01b14610a585760405162461bcd60e51b815260040161024390611981565b6001600160a01b038316610d9e5760405162461bcd60e51b815260040161024390611ba0565b8051825114610dbf5760405162461bcd60e51b815260040161024390611cbf565b6000610dc9610acf565b9050610de981856000868660405180602001604052806000815250610c5c565b60005b8351811015610ed7576000848281518110610e1757634e487b7160e01b600052603260045260246000fd5b602002602001015190506000848381518110610e4357634e487b7160e01b600052603260045260246000fd5b602090810291909101810151600084815280835260408082206001600160a01b038c168352909352919091205490915081811015610e935760405162461bcd60e51b815260040161024390611a14565b610e9d8282611dc5565b6000938452602084815260408086206001600160a01b038c1687529091529093209290925550819050610ecf81611e17565b915050610dec565b5060006001600160a01b0316846001600160a01b0316826001600160a01b03167f4a39dc06d4c0dbc64b70af90fd698a233a518aa5d07e595d983b8c0526c8f7fb8686604051610f289291906118d8565b60405180910390a450505050565b6001600160a01b038416610f5c5760405162461bcd60e51b815260040161024390611d07565b6000610f66610acf565b9050610f788160008761095688611016565b6000848152602081815260408083206001600160a01b038916845290915281208054859290610fa8908490611dad565b92505081905550846001600160a01b031660006001600160a01b0316826001600160a01b03167fc3d58168c5ae7397731d063d5bbf3d657854427343f4c083240f7aacaa2d0f628787604051610fff929190611d51565b60405180910390a4610c558160008787878761106f565b6040805160018082528183019092526060916000919060208083019080368337019050509050828160008151811061105e57634e487b7160e01b600052603260045260246000fd5b602090810291909101015292915050565b611081846001600160a01b0316611259565b156105f85760405163f23a6e6160e01b81526001600160a01b0385169063f23a6e61906110ba9089908990889088908890600401611882565b602060405180830381600087803b1580156110d457600080fd5b505af1925050508015611104575060408051601f3d908101601f1916820190925261110191810190611757565b60015b61111057610d0b611e64565b6001600160e01b0319811663f23a6e6160e01b14610a585760405162461bcd60e51b815260040161024390611981565b6001600160a01b0383166111665760405162461bcd60e51b815260040161024390611ba0565b6000611170610acf565b90506111a08185600061118287611016565b61118b87611016565b60405180602001604052806000815250610c5c565b6000838152602081815260408083206001600160a01b0388168452909152902054828110156111e15760405162461bcd60e51b815260040161024390611a14565b6111eb8382611dc5565b6000858152602081815260408083206001600160a01b03808b16808652919093528184209490945551919291908516907fc3d58168c5ae7397731d063d5bbf3d657854427343f4c083240f7aacaa2d0f629061124a9089908990611d51565b60405180910390a45050505050565b3b151590565b80356001600160a01b03811681146102b557600080fd5b600082601f830112611286578081fd5b8135602061129b61129683611d89565b611d5f565b82815281810190858301838502870184018810156112b7578586fd5b855b858110156112d5578135845292840192908401906001016112b9565b5090979650505050505050565b600082601f8301126112f2578081fd5b813567ffffffffffffffff81111561130c5761130c611e48565b61131f601f8201601f1916602001611d5f565b818152846020838601011115611333578283fd5b816020850160208301379081016020019190915292915050565b6000806040838503121561135f578182fd5b6113688361125f565b91506113766020840161125f565b90509250929050565b600080600080600060a08688031215611396578081fd5b61139f8661125f565b94506113ad6020870161125f565b9350604086013567ffffffffffffffff808211156113c9578283fd5b6113d589838a01611276565b945060608801359150808211156113ea578283fd5b6113f689838a01611276565b9350608088013591508082111561140b578283fd5b50611418888289016112e2565b9150509295509295909350565b600080600080600060a0868803121561143c578081fd5b6114458661125f565b94506114536020870161125f565b93506040860135925060608601359150608086013567ffffffffffffffff81111561147c578182fd5b611418888289016112e2565b60008060006060848603121561149c578283fd5b6114a58461125f565b9250602084013567ffffffffffffffff808211156114c1578384fd5b6114cd87838801611276565b935060408601359150808211156114e2578283fd5b506114ef86828701611276565b9150509250925092565b6000806000806080858703121561150e578384fd5b6115178561125f565b9350602085013567ffffffffffffffff80821115611533578485fd5b61153f88838901611276565b94506040870135915080821115611554578384fd5b61156088838901611276565b93506060870135915080821115611575578283fd5b50611582878288016112e2565b91505092959194509250565b600080604083850312156115a0578182fd5b6115a98361125f565b9150602083013580151581146115bd578182fd5b809150509250929050565b600080604083850312156115da578182fd5b6115e38361125f565b946020939093013593505050565b600080600060608486031215611605578283fd5b61160e8461125f565b95602085013595506040909401359392505050565b60008060008060808587031215611638578182fd5b6116418561125f565b93506020850135925060408501359150606085013567ffffffffffffffff81111561166a578182fd5b611582878288016112e2565b60008060408385031215611688578182fd5b823567ffffffffffffffff8082111561169f578384fd5b818501915085601f8301126116b2578384fd5b813560206116c261129683611d89565b82815281810190858301838502870184018b10156116de578889fd5b8896505b84871015611707576116f38161125f565b8352600196909601959183019183016116e2565b509650508601359250508082111561171d578283fd5b5061172a85828601611276565b9150509250929050565b600060208284031215611745578081fd5b813561175081611f09565b9392505050565b600060208284031215611768578081fd5b815161175081611f09565b600060208284031215611784578081fd5b5035919050565b6000815180845260208085019450808401835b838110156117ba5781518752958201959082019060010161179e565b509495945050505050565b60008151808452815b818110156117ea576020818501810151868301820152016117ce565b818111156117fb5782602083870101525b50601f01601f19169290920160200192915050565b6001600160a01b0391909116815260200190565b60006001600160a01b03808816835280871660208401525060a0604083015261185060a083018661178b565b8281036060840152611862818661178b565b9050828103608084015261187681856117c5565b98975050505050505050565b60006001600160a01b03808816835280871660208401525084604083015283606083015260a060808301526118ba60a08301846117c5565b979650505050505050565b600060208252611750602083018461178b565b6000604082526118eb604083018561178b565b82810360208401526118fd818561178b565b95945050505050565b901515815260200190565b60006020825261175060208301846117c5565b60208082526034908201527f455243313135353a207472616e7366657220746f206e6f6e204552433131353560408201527f526563656976657220696d706c656d656e746572000000000000000000000000606082015260800190565b60208082526028908201527f455243313135353a204552433131353552656365697665722072656a656374656040820152676420746f6b656e7360c01b606082015260800190565b6020808252602b908201527f455243313135353a2062616c616e636520717565727920666f7220746865207a60408201526a65726f206164647265737360a81b606082015260800190565b60208082526024908201527f455243313135353a206275726e20616d6f756e7420657863656564732062616c604082015263616e636560e01b606082015260800190565b60208082526029908201527f455243313135353a2063616c6c6572206973206e6f74206f776e6572206e6f7260408201526808185c1c1c9bdd995960ba1b606082015260800190565b6020808252603a908201527f5052495649506f6445524331313535546f6b656e3a204f6e6c7920466163746f60408201527f72792063616e2063616c6c20746869732066756e6374696f6e2e000000000000606082015260800190565b60208082526025908201527f455243313135353a207472616e7366657220746f20746865207a65726f206164604082015264647265737360d81b606082015260800190565b60208082526032908201527f455243313135353a207472616e736665722063616c6c6572206973206e6f742060408201527f6f776e6572206e6f7220617070726f7665640000000000000000000000000000606082015260800190565b60208082526023908201527f455243313135353a206275726e2066726f6d20746865207a65726f206164647260408201526265737360e81b606082015260800190565b6020808252602a908201527f455243313135353a20696e73756666696369656e742062616c616e636520666f60408201526939103a3930b739b332b960b11b606082015260800190565b60208082526029908201527f455243313135353a2073657474696e6720617070726f76616c20737461747573604082015268103337b91039b2b63360b91b606082015260800190565b60208082526029908201527f455243313135353a206163636f756e747320616e6420696473206c656e677468604082015268040dad2e6dac2e8c6d60bb1b606082015260800190565b60208082526028908201527f455243313135353a2069647320616e6420616d6f756e7473206c656e677468206040820152670dad2e6dac2e8c6d60c31b606082015260800190565b60208082526021908201527f455243313135353a206d696e7420746f20746865207a65726f206164647265736040820152607360f81b606082015260800190565b90815260200190565b918252602082015260400190565b60405181810167ffffffffffffffff81118282101715611d8157611d81611e48565b604052919050565b600067ffffffffffffffff821115611da357611da3611e48565b5060209081020190565b60008219821115611dc057611dc0611e32565b500190565b600082821015611dd757611dd7611e32565b500390565b600281046001821680611df057607f821691505b60208210811415611e1157634e487b7160e01b600052602260045260246000fd5b50919050565b6000600019821415611e2b57611e2b611e32565b5060010190565b634e487b7160e01b600052601160045260246000fd5b634e487b7160e01b600052604160045260246000fd5b60e01c90565b600060443d1015611e7457610ad1565b600481823e6308c379a0611e888251611e5e565b14611e9257610ad1565b6040513d600319016004823e80513d67ffffffffffffffff8160248401118184111715611ec25750505050610ad1565b82840192508251915080821115611edc5750505050610ad1565b503d83016020828401011115611ef457505050610ad1565b601f01601f1916810160200160405291505090565b6001600160e01b031981168114611f1f57600080fd5b5056fea26469706673582212201c2c512d3382b6fc0c3469a6a7018f9891b6117635143c2535eae2e77893287d64736f6c63430008000033a264697066735822122033cb3b9cb904d8af80b65e4cf0068832d25bf613803d9be3fab87fb1838d6f8164736f6c63430008000033",
  "immutableReferences": {},
  "source": "// SPDX-License-Identifier: MIT\n\npragma solidity ^0.8.0;\n\nimport \"@openzeppelin/contracts/access/AccessControl.sol\";\nimport \"@openzeppelin/contracts/utils/math/SafeMath.sol\";\nimport \"./token/PRIVIPodERC1155Token.sol\";\nimport \"./interfaces/IBridgeManager.sol\";\n\ncontract PRIVIPodERC1155Factory is AccessControl {\n  using SafeMath for uint256;\n\n  bytes32 public constant MODERATOR_ROLE = keccak256(\"MODERATOR_ROLE\");\n  address public bridgeManagerAddress;\n  uint256 public totalPodCreated;\n  mapping(string => address) public podTokenAddresses;\n\n  event PodCreated(string indexed uri, address podAddress);\n\n  /**\n   * @dev Grants `DEFAULT_ADMIN_ROLE` and `MODERATOR_ROLE` to the\n   * account that deploys the contract.\n   *\n   */\n  constructor(address bridgeAddress) {\n    _setupRole(DEFAULT_ADMIN_ROLE, _msgSender());\n    _setupRole(MODERATOR_ROLE, _msgSender());\n    bridgeManagerAddress = bridgeAddress;\n  }\n\n  function assignRoleSwapManager(address swapManagerAddress) external {\n    require(\n      hasRole(MODERATOR_ROLE, _msgSender()),\n      \"PRIVIPodERC20Factory: must have MODERATOR_ROLE to assign SwapManager address\"\n    );\n    _setupRole(MODERATOR_ROLE, swapManagerAddress);\n  }\n\n  function getPodAddressByUri(string calldata uri)\n    external\n    view\n    returns (address podAddress)\n  {\n    podAddress = podTokenAddresses[uri];\n  }\n\n  /**\n   *@dev caller create a new pod.\n   *\n   * Requirements:\n   *\n   * - pod should not exist before.\n   */\n  function createPod(string calldata uri)\n    external\n    returns (address podAddress)\n  {\n    // require(\n    //   hasRole(MODERATOR_ROLE, _msgSender()),\n    //   \"PRIVIPodERC1155Factory: must have MODERATOR_ROLE to create pod.\"\n    // );\n    require(\n      podTokenAddresses[uri] == address(0),\n      \"PRIVIPodERC1155Factory: Pod already exists.\"\n    );\n    PRIVIPodERC1155Token podToken =\n      new PRIVIPodERC1155Token(uri, address(this));\n    podAddress = address(podToken);\n    totalPodCreated.add(1);\n    podTokenAddresses[uri] = podAddress;\n    IBridgeManager(bridgeManagerAddress).registerTokenERC1155(\n      uri,\n      uri,\n      podAddress\n    );\n    emit PodCreated(uri, podAddress);\n  }\n\n  /**\n   * @dev Moderator will mint the amount of pod token for the investor\"s account\n   *\n   * Requirements:\n   *\n   * - the caller must MODERATOR_ROLE to perform this action.\n   */\n  function podMint(\n    string calldata uri,\n    address account,\n    uint256 tokenId,\n    uint256 amount,\n    bytes calldata data\n  ) external {\n    require(\n      hasRole(MODERATOR_ROLE, _msgSender()),\n      \"PRIVIPodERC1155Factory: must have MODERATOR_ROLE to invest for investor.\"\n    );\n    require(\n      account != address(0),\n      \"PRIVIPodERC1155Factory: Account address should not be zero.\"\n    );\n    require(amount > 0, \"PRIVIPodERC1155Factory: amount should not be zero.\");\n    PRIVIPodERC1155Token(podTokenAddresses[uri]).mint(\n      account,\n      tokenId,\n      amount,\n      data\n    );\n  }\n\n  /**\n   * @dev Moderator will mint the amount of pod token for the investor\"s account\n   *\n   * Requirements:\n   *\n   * - the caller must MODERATOR_ROLE to perform this action.\n   */\n  function podMintBatch(\n    string calldata uri,\n    address account,\n    uint256[] memory tokenIds,\n    uint256[] memory amounts,\n    bytes calldata data\n  ) external {\n    require(\n      hasRole(MODERATOR_ROLE, _msgSender()),\n      \"PRIVIPodERC1155Factory: must have MODERATOR_ROLE to invest for investor.\"\n    );\n    require(\n      account != address(0),\n      \"PRIVIPodERC1155Factory: Account address should not be zero.\"\n    );\n    PRIVIPodERC1155Token(podTokenAddresses[uri]).mintBatch(\n      account,\n      tokenIds,\n      amounts,\n      data\n    );\n  }\n}\n",
  "sourcePath": "/Users/sergijuanati/Dropbox/Docs/2. Work/16. Privi/3. Code/getcache_ethereum/contracts/PRIVIPodERC1155Factory.sol",
  "compiler": {
    "name": "solc",
    "version": "0.8.0+commit.c7dfd78e.Emscripten.clang"
  },
  "schemaVersion": "3.3.2",
  "updatedAt": "2021-03-31T09:19:24.406Z",
  "devdoc": {
    "kind": "dev",
    "methods": {
      "constructor": {
        "details": "Grants `DEFAULT_ADMIN_ROLE` and `MODERATOR_ROLE` to the account that deploys the contract."
      },
      "createPod(string)": {
        "details": "caller create a new pod. Requirements: - pod should not exist before."
      },
      "getRoleAdmin(bytes32)": {
        "details": "Returns the admin role that controls `role`. See {grantRole} and {revokeRole}. To change a role's admin, use {_setRoleAdmin}."
      },
      "grantRole(bytes32,address)": {
        "details": "Grants `role` to `account`. If `account` had not been already granted `role`, emits a {RoleGranted} event. Requirements: - the caller must have ``role``'s admin role."
      },
      "hasRole(bytes32,address)": {
        "details": "Returns `true` if `account` has been granted `role`."
      },
      "podMint(string,address,uint256,uint256,bytes)": {
        "details": "Moderator will mint the amount of pod token for the investor\"s account Requirements: - the caller must MODERATOR_ROLE to perform this action."
      },
      "podMintBatch(string,address,uint256[],uint256[],bytes)": {
        "details": "Moderator will mint the amount of pod token for the investor\"s account Requirements: - the caller must MODERATOR_ROLE to perform this action."
      },
      "renounceRole(bytes32,address)": {
        "details": "Revokes `role` from the calling account. Roles are often managed via {grantRole} and {revokeRole}: this function's purpose is to provide a mechanism for accounts to lose their privileges if they are compromised (such as when a trusted device is misplaced). If the calling account had been granted `role`, emits a {RoleRevoked} event. Requirements: - the caller must be `account`."
      },
      "revokeRole(bytes32,address)": {
        "details": "Revokes `role` from `account`. If `account` had been granted `role`, emits a {RoleRevoked} event. Requirements: - the caller must have ``role``'s admin role."
      },
      "supportsInterface(bytes4)": {
        "details": "See {IERC165-supportsInterface}."
      }
    },
    "version": 1
  },
  "userdoc": {
    "kind": "user",
    "methods": {},
    "version": 1
  }
}