{
  "contractName": "PRIVIPodERC721RoyaltyFactory",
  "abi": [
    {
      "inputs": [
        {
          "internalType": "address",
          "name": "bridgeAddress",
          "type": "address"
        }
      ],
      "stateMutability": "nonpayable",
      "type": "constructor"
    },
    {
      "anonymous": false,
      "inputs": [
        {
          "indexed": true,
          "internalType": "string",
          "name": "podId",
          "type": "string"
        },
        {
          "indexed": false,
          "internalType": "string",
          "name": "podTokenName",
          "type": "string"
        },
        {
          "indexed": false,
          "internalType": "string",
          "name": "podTokenSymbol",
          "type": "string"
        }
      ],
      "name": "PodCreated",
      "type": "event"
    },
    {
      "anonymous": false,
      "inputs": [
        {
          "indexed": true,
          "internalType": "bytes32",
          "name": "role",
          "type": "bytes32"
        },
        {
          "indexed": true,
          "internalType": "bytes32",
          "name": "previousAdminRole",
          "type": "bytes32"
        },
        {
          "indexed": true,
          "internalType": "bytes32",
          "name": "newAdminRole",
          "type": "bytes32"
        }
      ],
      "name": "RoleAdminChanged",
      "type": "event"
    },
    {
      "anonymous": false,
      "inputs": [
        {
          "indexed": true,
          "internalType": "bytes32",
          "name": "role",
          "type": "bytes32"
        },
        {
          "indexed": true,
          "internalType": "address",
          "name": "account",
          "type": "address"
        },
        {
          "indexed": true,
          "internalType": "address",
          "name": "sender",
          "type": "address"
        }
      ],
      "name": "RoleGranted",
      "type": "event"
    },
    {
      "anonymous": false,
      "inputs": [
        {
          "indexed": true,
          "internalType": "bytes32",
          "name": "role",
          "type": "bytes32"
        },
        {
          "indexed": true,
          "internalType": "address",
          "name": "account",
          "type": "address"
        },
        {
          "indexed": true,
          "internalType": "address",
          "name": "sender",
          "type": "address"
        }
      ],
      "name": "RoleRevoked",
      "type": "event"
    },
    {
      "inputs": [],
      "name": "DEFAULT_ADMIN_ROLE",
      "outputs": [
        {
          "internalType": "bytes32",
          "name": "",
          "type": "bytes32"
        }
      ],
      "stateMutability": "view",
      "type": "function",
      "constant": true
    },
    {
      "inputs": [],
      "name": "MODERATOR_ROLE",
      "outputs": [
        {
          "internalType": "bytes32",
          "name": "",
          "type": "bytes32"
        }
      ],
      "stateMutability": "view",
      "type": "function",
      "constant": true
    },
    {
      "inputs": [],
      "name": "bridgeManagerAddress",
      "outputs": [
        {
          "internalType": "address",
          "name": "",
          "type": "address"
        }
      ],
      "stateMutability": "view",
      "type": "function",
      "constant": true
    },
    {
      "inputs": [
        {
          "internalType": "bytes32",
          "name": "role",
          "type": "bytes32"
        }
      ],
      "name": "getRoleAdmin",
      "outputs": [
        {
          "internalType": "bytes32",
          "name": "",
          "type": "bytes32"
        }
      ],
      "stateMutability": "view",
      "type": "function",
      "constant": true
    },
    {
      "inputs": [
        {
          "internalType": "bytes32",
          "name": "role",
          "type": "bytes32"
        },
        {
          "internalType": "uint256",
          "name": "index",
          "type": "uint256"
        }
      ],
      "name": "getRoleMember",
      "outputs": [
        {
          "internalType": "address",
          "name": "",
          "type": "address"
        }
      ],
      "stateMutability": "view",
      "type": "function",
      "constant": true
    },
    {
      "inputs": [
        {
          "internalType": "bytes32",
          "name": "role",
          "type": "bytes32"
        }
      ],
      "name": "getRoleMemberCount",
      "outputs": [
        {
          "internalType": "uint256",
          "name": "",
          "type": "uint256"
        }
      ],
      "stateMutability": "view",
      "type": "function",
      "constant": true
    },
    {
      "inputs": [
        {
          "internalType": "bytes32",
          "name": "role",
          "type": "bytes32"
        },
        {
          "internalType": "address",
          "name": "account",
          "type": "address"
        }
      ],
      "name": "grantRole",
      "outputs": [],
      "stateMutability": "nonpayable",
      "type": "function"
    },
    {
      "inputs": [
        {
          "internalType": "bytes32",
          "name": "role",
          "type": "bytes32"
        },
        {
          "internalType": "address",
          "name": "account",
          "type": "address"
        }
      ],
      "name": "hasRole",
      "outputs": [
        {
          "internalType": "bool",
          "name": "",
          "type": "bool"
        }
      ],
      "stateMutability": "view",
      "type": "function",
      "constant": true
    },
    {
      "inputs": [
        {
          "internalType": "bytes32",
          "name": "role",
          "type": "bytes32"
        },
        {
          "internalType": "address",
          "name": "account",
          "type": "address"
        }
      ],
      "name": "renounceRole",
      "outputs": [],
      "stateMutability": "nonpayable",
      "type": "function"
    },
    {
      "inputs": [
        {
          "internalType": "bytes32",
          "name": "role",
          "type": "bytes32"
        },
        {
          "internalType": "address",
          "name": "account",
          "type": "address"
        }
      ],
      "name": "revokeRole",
      "outputs": [],
      "stateMutability": "nonpayable",
      "type": "function"
    },
    {
      "inputs": [],
      "name": "getTotalTokenCreated",
      "outputs": [
        {
          "internalType": "uint256",
          "name": "totalPods",
          "type": "uint256"
        }
      ],
      "stateMutability": "view",
      "type": "function",
      "constant": true
    },
    {
      "inputs": [
        {
          "internalType": "string",
          "name": "podId",
          "type": "string"
        }
      ],
      "name": "getPodAddressById",
      "outputs": [
        {
          "internalType": "address",
          "name": "podAddress",
          "type": "address"
        }
      ],
      "stateMutability": "view",
      "type": "function",
      "constant": true
    },
    {
      "inputs": [
        {
          "internalType": "string",
          "name": "tokenSymbol",
          "type": "string"
        }
      ],
      "name": "getPodAddressBySymbol",
      "outputs": [
        {
          "internalType": "address",
          "name": "podAddress",
          "type": "address"
        }
      ],
      "stateMutability": "view",
      "type": "function",
      "constant": true
    },
    {
      "inputs": [
        {
          "internalType": "string",
          "name": "podId",
          "type": "string"
        },
        {
          "internalType": "string",
          "name": "podTokenName",
          "type": "string"
        },
        {
          "internalType": "string",
          "name": "podTokenSymbol",
          "type": "string"
        },
        {
          "internalType": "string",
          "name": "baseURI",
          "type": "string"
        },
        {
          "internalType": "uint256",
          "name": "royaltyAmount",
          "type": "uint256"
        },
        {
          "internalType": "address",
          "name": "creator",
          "type": "address"
        }
      ],
      "name": "createPod",
      "outputs": [
        {
          "internalType": "address",
          "name": "podAddress",
          "type": "address"
        }
      ],
      "stateMutability": "nonpayable",
      "type": "function"
    },
    {
      "inputs": [
        {
          "internalType": "string",
          "name": "podId",
          "type": "string"
        },
        {
          "internalType": "string",
          "name": "podTokenName",
          "type": "string"
        },
        {
          "internalType": "string",
          "name": "podTokenSymbol",
          "type": "string"
        },
        {
          "internalType": "string",
          "name": "baseURI",
          "type": "string"
        },
        {
          "internalType": "uint256",
          "name": "royaltyAmount",
          "type": "uint256"
        },
        {
          "internalType": "uint256[]",
          "name": "royaltyShares",
          "type": "uint256[]"
        },
        {
          "internalType": "address[]",
          "name": "creators",
          "type": "address[]"
        }
      ],
      "name": "createMultiCreatorPod",
      "outputs": [
        {
          "internalType": "address",
          "name": "podAddress",
          "type": "address"
        }
      ],
      "stateMutability": "nonpayable",
      "type": "function"
    },
    {
      "inputs": [
        {
          "internalType": "string",
          "name": "podId",
          "type": "string"
        },
        {
          "internalType": "address",
          "name": "account",
          "type": "address"
        }
      ],
      "name": "mintPodTokenById",
      "outputs": [],
      "stateMutability": "nonpayable",
      "type": "function"
    },
    {
      "inputs": [
        {
          "internalType": "string",
          "name": "tokenSymbol",
          "type": "string"
        },
        {
          "internalType": "address",
          "name": "account",
          "type": "address"
        }
      ],
      "name": "mintPodTokenBySymbol",
      "outputs": [],
      "stateMutability": "nonpayable",
      "type": "function"
    }
  ],
  "bytecode": "0x60806040523480156200001157600080fd5b5060405162004df638038062004df6833981810160405260208110156200003757600080fd5b50516200004f600062000049620000a4565b620000a8565b6200007e7f71f3d55856e4058ed06ee057d79ada615f65cdf5f9ee88181b914225088f834f62000049620000a4565b600180546001600160a01b0319166001600160a01b0392909216919091179055620001b8565b3390565b620000b48282620000b8565b5050565b600082815260208181526040909120620000dd918390620015e462000131821b17901c565b15620000b457620000ed620000a4565b6001600160a01b0316816001600160a01b0316837f2f8788117e7eff1d82e926ec794901d17c78024a50270940304540a733656f0d60405160405180910390a45050565b600062000148836001600160a01b03841662000151565b90505b92915050565b60006200015f8383620001a0565b62000197575081546001818101845560008481526020808220909301849055845484825282860190935260409020919091556200014b565b5060006200014b565b60009081526001919091016020526040902054151590565b614c2e80620001c86000396000f3fe60806040523480156200001157600080fd5b5060043610620001245760003560e01c8063797669c911620000b1578063a217fddf116200007b578063a217fddf14620006b2578063ca15c87314620006bc578063d547741f14620006dc578063e792b194146200070b578063e80cae2614620007155762000124565b8063797669c914620003c35780639010d07c14620003cd57806391d1485414620003f3578063972d08cf14620004365762000124565b80632f2ff15d11620000f35780632f2ff15d14620002745780633325a4e414620002a357806336568abe146200031757806358d4891f14620003465762000124565b80630d9c181214620001295780630fc09e2e14620001a857806322b2edeb14620001c4578063248a9ca31462000254575b600080fd5b620001a6600480360360408110156200014157600080fd5b810190602081018135600160201b8111156200015c57600080fd5b8201836020820111156200016f57600080fd5b803590602001918460018302840111600160201b831117156200019157600080fd5b9193509150356001600160a01b031662000891565b005b620001b2620009d4565b60408051918252519081900360200190f35b6200023860048036036020811015620001dc57600080fd5b810190602081018135600160201b811115620001f757600080fd5b8201836020820111156200020a57600080fd5b803590602001918460018302840111600160201b831117156200022c57600080fd5b509092509050620009da565b604080516001600160a01b039092168252519081900360200190f35b620001b2600480360360208110156200026c57600080fd5b503562000a13565b620001a6600480360360408110156200028c57600080fd5b50803590602001356001600160a01b031662000a28565b6200023860048036036020811015620002bb57600080fd5b810190602081018135600160201b811115620002d657600080fd5b820183602082011115620002e957600080fd5b803590602001918460018302840111600160201b831117156200030b57600080fd5b50909250905062000a96565b620001a6600480360360408110156200032f57600080fd5b50803590602001356001600160a01b031662000acf565b620001a6600480360360408110156200035e57600080fd5b810190602081018135600160201b8111156200037957600080fd5b8201836020820111156200038c57600080fd5b803590602001918460018302840111600160201b83111715620003ae57600080fd5b9193509150356001600160a01b031662000b36565b620001b262000c55565b6200023860048036036040811015620003e557600080fd5b508035906020013562000c79565b62000422600480360360408110156200040b57600080fd5b50803590602001356001600160a01b031662000c9c565b604080519115158252519081900360200190f35b62000238600480360360e08110156200044e57600080fd5b810190602081018135600160201b8111156200046957600080fd5b8201836020820111156200047c57600080fd5b803590602001918460018302840111600160201b831117156200049e57600080fd5b919390929091602081019035600160201b811115620004bc57600080fd5b820183602082011115620004cf57600080fd5b803590602001918460018302840111600160201b83111715620004f157600080fd5b919390929091602081019035600160201b8111156200050f57600080fd5b8201836020820111156200052257600080fd5b803590602001918460018302840111600160201b831117156200054457600080fd5b919390929091602081019035600160201b8111156200056257600080fd5b8201836020820111156200057557600080fd5b803590602001918460018302840111600160201b831117156200059757600080fd5b91939092823592604081019060200135600160201b811115620005b957600080fd5b820183602082011115620005cc57600080fd5b803590602001918460208302840111600160201b83111715620005ee57600080fd5b9190808060200260200160405190810160405280939291908181526020018383602002808284376000920191909152509295949360208101935035915050600160201b8111156200063e57600080fd5b8201836020820111156200065157600080fd5b803590602001918460208302840111600160201b831117156200067357600080fd5b91908080602002602001604051908101604052809392919081815260200183836020028082843760009201919091525092955062000cb6945050505050565b620001b26200116a565b620001b260048036036020811015620006d457600080fd5b50356200116f565b620001a660048036036040811015620006f457600080fd5b50803590602001356001600160a01b031662001188565b62000238620011e6565b62000238600480360360c08110156200072d57600080fd5b810190602081018135600160201b8111156200074857600080fd5b8201836020820111156200075b57600080fd5b803590602001918460018302840111600160201b831117156200077d57600080fd5b919390929091602081019035600160201b8111156200079b57600080fd5b820183602082011115620007ae57600080fd5b803590602001918460018302840111600160201b83111715620007d057600080fd5b919390929091602081019035600160201b811115620007ee57600080fd5b8201836020820111156200080157600080fd5b803590602001918460018302840111600160201b831117156200082357600080fd5b919390929091602081019035600160201b8111156200084157600080fd5b8201836020820111156200085457600080fd5b803590602001918460018302840111600160201b831117156200087657600080fd5b9193509150803590602001356001600160a01b0316620011f5565b620008c67f71f3d55856e4058ed06ee057d79ada615f65cdf5f9ee88181b914225088f834f620008c0620015fb565b62000c9c565b620009035760405162461bcd60e51b815260040180806020018281038252604c81526020018062004b0d604c913960600191505060405180910390fd5b6001600160a01b0381166200094a5760405162461bcd60e51b815260040180806020018281038252603f81526020018062004b59603f913960400191505060405180910390fd5b600483836040518083838082843791909101948552505060408051938490036020018420546335313c2160e11b85526001600160a01b0386811660048701529151911693636a6278429350602480820193506000929182900301818387803b158015620009b657600080fd5b505af1158015620009cb573d6000803e3d6000fd5b50505050505050565b60025490565b6000600383836040518083838082843791909101948552505060405192839003602001909220546001600160a01b031695945050505050565b60009081526020819052604090206002015490565b60008281526020819052604090206002015462000a4990620008c0620015fb565b62000a865760405162461bcd60e51b815260040180806020018281038252602f81526020018062004a78602f913960400191505060405180910390fd5b62000a928282620015ff565b5050565b6000600483836040518083838082843791909101948552505060405192839003602001909220546001600160a01b031695945050505050565b62000ad9620015fb565b6001600160a01b0316816001600160a01b03161462000b2a5760405162461bcd60e51b815260040180806020018281038252602f81526020018062004bca602f913960400191505060405180910390fd5b62000a9282826200166d565b62000b657f71f3d55856e4058ed06ee057d79ada615f65cdf5f9ee88181b914225088f834f620008c0620015fb565b62000ba25760405162461bcd60e51b815260040180806020018281038252604c81526020018062004b0d604c913960600191505060405180910390fd5b6001600160a01b03811662000be95760405162461bcd60e51b815260040180806020018281038252603f81526020018062004b59603f913960400191505060405180910390fd5b600383836040518083838082843791909101948552505060408051938490036020018420546335313c2160e11b85526001600160a01b0386811660048701529151911693636a6278429350602480820193506000929182900301818387803b158015620009b657600080fd5b7f71f3d55856e4058ed06ee057d79ada615f65cdf5f9ee88181b914225088f834f81565b600082815260208190526040812062000c939083620016db565b90505b92915050565b600082815260208190526040812062000c939083620016e9565b6000806001600160a01b031660038d8d6040518083838082843791909101948552505060405192839003602001909220546001600160a01b031692909214915062000d3590505760405162461bcd60e51b815260040180806020018281038252603281526020018062004b986032913960400191505060405180910390fd5b60006001600160a01b0316600489896040518083838082843791909101948552505060405192839003602001909220546001600160a01b031692909214915062000db390505760405162461bcd60e51b815260040180806020018281038252603681526020018062004ad76036913960400191505060405180910390fd5b6000828460405162000dc5906200191d565b6040808252835190820152825181906020808301916060840191878101910280838360005b8381101562000e0457818101518382015260200162000dea565b50505050905001838103825284818151815260200191508051906020019060200280838360005b8381101562000e4557818101518382015260200162000e2b565b50505050905001945050505050604051809103906000f08015801562000e6f573d6000803e3d6000fd5b50905060008b8b8b8b8b8b308c8960405162000e8b906200192b565b6001600160a01b03808516606083015260808201849052821660a082015260c0808252810189905280602081016040820160e083018d8d80828437600083820152601f01601f191690910185810384528b815260200190508b8b80828437600083820152601f01601f1916909101858103835289815260200190508989808284376000838201819052604051601f909201601f19169093018190039f509d50909b505050505050505050505050f08015801562000f4c573d6000803e3d6000fd5b5060025490935083915062000f6390600162001700565b508260038f8f6040518083838082843791909101948552505060405192839003602001832080546001600160a01b03959095166001600160a01b031990951694909417909355508491506004908c908c908083838082843791909101948552505060405192839003602001832080546001600160a01b039586166001600160a01b0319909116179055505060015463c082713b60e01b82528583166044830152606060048301908152606483018f905292169163c082713b918f918f918f918f918a919081906024810190608401888880828437600083820152601f01601f191690910184810383528681526020019050868680828437600081840152601f19601f820116905080830192505050975050505050505050600060405180830381600087803b1580156200109557600080fd5b505af1158015620010aa573d6000803e3d6000fd5b505050508d8d60405180838380828437808301925050509250505060405180910390207fc0512f6474c9ee949f1cbdc88e43ca774f79b5f1f07d8484696e1cf1a0bd87ce8d8d8d8d6040518080602001806020018381038352878782818152602001925080828437600083820152601f01601f191690910184810383528581526020019050858580828437600083820152604051601f909101601f19169092018290039850909650505050505050a250509b9a5050505050505050505050565b600081565b600081815260208190526040812062000c96906200175b565b600082815260208190526040902060020154620011a990620008c0620015fb565b62000b2a5760405162461bcd60e51b815260040180806020018281038252603081526020018062004aa76030913960400191505060405180910390fd5b6001546001600160a01b031681565b6000806001600160a01b031660038c8c6040518083838082843791909101948552505060405192839003602001909220546001600160a01b03169290921491506200127490505760405162461bcd60e51b815260040180806020018281038252603281526020018062004b986032913960400191505060405180910390fd5b60006001600160a01b0316600488886040518083838082843791909101948552505060405192839003602001909220546001600160a01b0316929092149150620012f290505760405162461bcd60e51b815260040180806020018281038252603681526020018062004ad76036913960400191505060405180910390fd5b6000898989898989308a8a6040516200130b906200192b565b6001600160a01b03808516606083015260808201849052821660a082015260c0808252810189905280602081016040820160e083018d8d80828437600083820152601f01601f191690910185810384528b815260200190508b8b80828437600083820152601f01601f1916909101858103835289815260200190508989808284376000838201819052604051601f909201601f19169093018190039f509d50909b505050505050505050505050f080158015620013cc573d6000803e3d6000fd5b50600254909250829150620013e390600162001700565b508160038d8d6040518083838082843791909101948552505060405192839003602001832080546001600160a01b03959095166001600160a01b031990951694909417909355508391506004908a908a908083838082843791909101948552505060405192839003602001832080546001600160a01b039586166001600160a01b0319909116179055505060015463c082713b60e01b82528483166044830152606060048301908152606483018d905292169163c082713b918d918d918d918d9189919081906024810190608401888880828437600083820152601f01601f191690910184810383528681526020019050868680828437600081840152601f19601f820116905080830192505050975050505050505050600060405180830381600087803b1580156200151557600080fd5b505af11580156200152a573d6000803e3d6000fd5b505050508b8b60405180838380828437604080519390910183900383208184529083018f905294507fc0512f6474c9ee949f1cbdc88e43ca774f79b5f1f07d8484696e1cf1a0bd87ce93508e92508d918d91508c90806020810160608201878780828437600083820152601f01601f191690910184810383528581526020019050858580828437600083820152604051601f909101601f19169092018290039850909650505050505050a2509a9950505050505050505050565b600062000c93836001600160a01b03841662001768565b3390565b6000828152602081905260409020620016199082620015e4565b1562000a925762001629620015fb565b6001600160a01b0316816001600160a01b0316837f2f8788117e7eff1d82e926ec794901d17c78024a50270940304540a733656f0d60405160405180910390a45050565b6000828152602081905260409020620016879082620017b7565b1562000a925762001697620015fb565b6001600160a01b0316816001600160a01b0316837ff6391f5c32d9c69d2a47ea670b442974b53935d1edc7fd64eb21e047a839171b60405160405180910390a45050565b600062000c938383620017ce565b600062000c93836001600160a01b03841662001835565b60008282018381101562000c93576040805162461bcd60e51b815260206004820152601b60248201527f536166654d6174683a206164646974696f6e206f766572666c6f770000000000604482015290519081900360640190fd5b600062000c96826200184d565b600062001776838362001835565b620017ae5750815460018181018455600084815260208082209093018490558454848252828601909352604090209190915562000c96565b50600062000c96565b600062000c93836001600160a01b03841662001851565b81546000908210620018125760405162461bcd60e51b815260040180806020018281038252602281526020018062004a566022913960400191505060405180910390fd5b8260000182815481106200182257fe5b9060005260206000200154905092915050565b60009081526001919091016020526040902054151590565b5490565b600081815260018301602052604081205480156200191257835460001980830191908101906000908790839081106200188657fe5b9060005260206000200154905080876000018481548110620018a457fe5b600091825260208083209091019290925582815260018981019092526040902090840190558654879080620018d557fe5b6001900381819060005260206000200160009055905586600101600087815260200190815260200160002060009055600194505050505062000c96565b600091505062000c96565b61086d806200193a83390190565b6128af80620021a78339019056fe608060405234801561001057600080fd5b5060405161086d38038061086d8339818101604052604081101561003357600080fd5b810190808051604051939291908464010000000082111561005357600080fd5b90830190602082018581111561006857600080fd5b825186602082028301116401000000008211171561008557600080fd5b82525081516020918201928201910280838360005b838110156100b257818101518382015260200161009a565b50505050905001604052602001805160405193929190846401000000008211156100db57600080fd5b9083019060208201858111156100f057600080fd5b825186602082028301116401000000008211171561010d57600080fd5b82525081516020918201928201910280838360005b8381101561013a578181015183820152602001610122565b5050505090500160405250505080518251146101875760405162461bcd60e51b815260040180806020018281038252604381526020018061082a6043913960600191505060405180910390fd5b815161019a9060009060208501906101b6565b5080516101ae90600190602084019061021b565b50505061026b565b82805482825590600052602060002090810192821561020b579160200282015b8281111561020b57825182546001600160a01b0319166001600160a01b039091161782556020909201916001909101906101d6565b50610217929150610256565b5090565b82805482825590600052602060002090810192821561020b579160200282015b8281111561020b57825182559160200191906001019061023b565b5b808211156102175760008155600101610257565b6105b08061027a6000396000f3fe60806040526004361061007f5760003560e01c8063ad9adcdc1161004e578063ad9adcdc14610145578063c760a23714610178578063cd53d08e146101a2578063d3b97417146101e8576100b0565b80632e1a7d4d146100b557806357a858fc146100df5780636f9fb98a1461011b57806392e6c00414610130576100b0565b366100b05734600360006100936002610212565b81526020810191909152604001600020556100ae6002610216565b005b600080fd5b3480156100c157600080fd5b506100ae600480360360208110156100d857600080fd5b503561021f565b3480156100eb57600080fd5b506101096004803603602081101561010257600080fd5b50356102d8565b60408051918252519081900360200190f35b34801561012757600080fd5b506101096102f9565b34801561013c57600080fd5b506101096102fd565b34801561015157600080fd5b506101096004803603602081101561016857600080fd5b50356001600160a01b0316610303565b34801561018457600080fd5b506101096004803603602081101561019b57600080fd5b5035610315565b3480156101ae57600080fd5b506101cc600480360360208110156101c557600080fd5b5035610327565b604080516001600160a01b039092168252519081900360200190f35b3480156101f457600080fd5b506101096004803603602081101561020b57600080fd5b5035610351565b5490565b80546001019055565b6000818154811061022c57fe5b6000918252602090912001546001600160a01b0316331461027e5760405162461bcd60e51b81526004018080602001828103825260388152602001806105436038913960400191505060405180910390fd5b600061028982610351565b90506102956002610212565b33600081815260046020526040808220939093559151909183156108fc02918491818181858888f193505050501580156102d3573d6000803e3d6000fd5b505050565b600181815481106102e857600080fd5b600091825260209091200154905081565b4790565b60025481565b60046020526000908152604090205481565b60036020526000908152604090205481565b6000818154811061033757600080fd5b6000918252602090912001546001600160a01b0316905081565b6000806004600080858154811061036457fe5b60009182526020808320909101546001600160a01b0316835282019290925260400190205490505b6103966002610212565b81116103f8576103ee6103e760646103e16003600086815260200190815260200160002054600188815481106103c857fe5b90600052602060002001546103fe90919063ffffffff16565b90610460565b83906104c7565b915060010161038c565b50919050565b60008261040d5750600061045a565b8282028284828161041a57fe5b04146104575760405162461bcd60e51b81526004018080602001828103825260218152602001806105226021913960400191505060405180910390fd5b90505b92915050565b60008082116104b6576040805162461bcd60e51b815260206004820152601a60248201527f536166654d6174683a206469766973696f6e206279207a65726f000000000000604482015290519081900360640190fd5b8183816104bf57fe5b049392505050565b600082820183811015610457576040805162461bcd60e51b815260206004820152601b60248201527f536166654d6174683a206164646974696f6e206f766572666c6f770000000000604482015290519081900360640190fdfe536166654d6174683a206d756c7469706c69636174696f6e206f766572666c6f774d756c746943726561746f724e66744d616e616765723a20596f7520617265206e6f74206f6e65206f66207468652063726561746f72732ea2646970667358221220b94a16a6e5c840cdc22f2b2460b70e8c09ab7f53b230f500904f6dfb01a6612564736f6c634300070600334d756c746943726561746f724e66744d616e616765723a2043726561746f727320616e642053686172657320617265206e6f74206f662073616d65206c656e6774682e60806040523480156200001157600080fd5b50604051620028af380380620028af833981810160405260c08110156200003757600080fd5b81019080805160405193929190846401000000008211156200005857600080fd5b9083019060208201858111156200006e57600080fd5b82516401000000008111828201881017156200008957600080fd5b82525081516020918201929091019080838360005b83811015620000b85781810151838201526020016200009e565b50505050905090810190601f168015620000e65780820380516001836020036101000a031916815260200191505b50604052602001805160405193929190846401000000008211156200010a57600080fd5b9083019060208201858111156200012057600080fd5b82516401000000008111828201881017156200013b57600080fd5b82525081516020918201929091019080838360005b838110156200016a57818101518382015260200162000150565b50505050905090810190601f168015620001985780820380516001836020036101000a031916815260200191505b5060405260200180516040519392919084640100000000821115620001bc57600080fd5b908301906020820185811115620001d257600080fd5b8251640100000000811182820188101715620001ed57600080fd5b82525081516020918201929091019080838360005b838110156200021c57818101518382015260200162000202565b50505050905090810190601f1680156200024a5780820380516001836020036101000a031916815260200191505b506040908152602082015190820151606090920151909350909150818187876200027b6301ffc9a760e01b6200032b565b815162000290906006906020850190620003c9565b508051620002a6906007906020840190620003c9565b50620002b96380ac58cd60e01b6200032b565b620002cb635b5e139f60e01b6200032b565b620002dd63780e9d6360e01b6200032b565b5050600a91909155600b80546001600160a01b03199081166001600160a01b0393841617909155600d80549091169185169190911790556200031f84620003b0565b50505050505062000475565b6001600160e01b031980821614156200038b576040805162461bcd60e51b815260206004820152601c60248201527f4552433136353a20696e76616c696420696e7465726661636520696400000000604482015290519081900360640190fd5b6001600160e01b0319166000908152602081905260409020805460ff19166001179055565b8051620003c5906009906020840190620003c9565b5050565b828054600181600116156101000203166002900490600052602060002090601f0160209004810192826200040157600085556200044c565b82601f106200041c57805160ff19168380011785556200044c565b828001600101855582156200044c579182015b828111156200044c5782518255916020019190600101906200042f565b506200045a9291506200045e565b5090565b5b808211156200045a57600081556001016200045f565b61242a80620004856000396000f3fe6080604052600436106101a15760003560e01c80636a627842116100e15780639822e8c01161008a578063b88d4fde11610064578063b88d4fde146105f5578063c87b56dd146106c8578063cfd0244b146106f2578063e985e9c51461072c576101a1565b80639822e8c0146105905780639d35c161146105a5578063a22cb465146105ba576101a1565b80637c6e551d116100bb5780637c6e551d1461052357806384a09c271461053857806395d89b411461057b576101a1565b80636a627842146104a85780636c0360eb146104db57806370a08231146104f0576101a1565b80632f745c591161014e57806346e807201161012857806346e80720146104095780634f6ccce71461043f5780636352211e14610469578063656605d614610493576101a1565b80632f745c591461036357806342842e0e1461039c57806342966c68146103df576101a1565b8063095ea7b31161017f578063095ea7b3146102be57806318160ddd146102f957806323b872dd14610320576101a1565b806301ffc9a7146101a657806306fdde03146101ee578063081812fc14610278575b600080fd5b3480156101b257600080fd5b506101da600480360360208110156101c957600080fd5b50356001600160e01b031916610767565b604080519115158252519081900360200190f35b3480156101fa57600080fd5b5061020361078a565b6040805160208082528351818301528351919283929083019185019080838360005b8381101561023d578181015183820152602001610225565b50505050905090810190601f16801561026a5780820380516001836020036101000a031916815260200191505b509250505060405180910390f35b34801561028457600080fd5b506102a26004803603602081101561029b57600080fd5b5035610820565b604080516001600160a01b039092168252519081900360200190f35b3480156102ca57600080fd5b506102f7600480360360408110156102e157600080fd5b506001600160a01b038135169060200135610882565b005b34801561030557600080fd5b5061030e61095d565b60408051918252519081900360200190f35b34801561032c57600080fd5b506102f76004803603606081101561034357600080fd5b506001600160a01b0381358116916020810135909116906040013561096e565b34801561036f57600080fd5b5061030e6004803603604081101561038657600080fd5b506001600160a01b0381351690602001356109c5565b3480156103a857600080fd5b506102f7600480360360608110156103bf57600080fd5b506001600160a01b038135811691602081013590911690604001356109f0565b3480156103eb57600080fd5b506102f76004803603602081101561040257600080fd5b5035610a0b565b34801561041557600080fd5b5061041e610a5d565b604080519283526001600160a01b0390911660208301528051918290030190f35b34801561044b57600080fd5b5061030e6004803603602081101561046257600080fd5b5035610a70565b34801561047557600080fd5b506102a26004803603602081101561048c57600080fd5b5035610a86565b34801561049f57600080fd5b506101da610aae565b3480156104b457600080fd5b506102f7600480360360208110156104cb57600080fd5b50356001600160a01b0316610ab3565b3480156104e757600080fd5b50610203610b29565b3480156104fc57600080fd5b5061030e6004803603602081101561051357600080fd5b50356001600160a01b0316610b8a565b34801561052f57600080fd5b5061030e610bf2565b34801561054457600080fd5b506102f76004803603606081101561055b57600080fd5b506001600160a01b03813581169160208101359091169060400135610bf8565b34801561058757600080fd5b50610203610c3e565b34801561059c57600080fd5b506102a2610c9f565b3480156105b157600080fd5b506102a2610cae565b3480156105c657600080fd5b506102f7600480360360408110156105dd57600080fd5b506001600160a01b0381351690602001351515610cbd565b34801561060157600080fd5b506102f76004803603608081101561061857600080fd5b6001600160a01b0382358116926020810135909116916040820135919081019060808101606082013564010000000081111561065357600080fd5b82018360208201111561066557600080fd5b8035906020019184600183028401116401000000008311171561068757600080fd5b91908080601f016020809104026020016040519081016040528093929190818152602001838380828437600092019190915250929550610dc2945050505050565b3480156106d457600080fd5b50610203600480360360208110156106eb57600080fd5b5035610e20565b6102f76004803603608081101561070857600080fd5b508035906020810135906001600160a01b03604082013581169160600135166110a1565b34801561073857600080fd5b506101da6004803603604081101561074f57600080fd5b506001600160a01b03813581169160200135166111ce565b6001600160e01b0319811660009081526020819052604090205460ff165b919050565b60068054604080516020601f60026000196101006001881615020190951694909404938401819004810282018101909252828152606093909290918301828280156108165780601f106107eb57610100808354040283529160200191610816565b820191906000526020600020905b8154815290600101906020018083116107f957829003601f168201915b5050505050905090565b600061082b826111fc565b6108665760405162461bcd60e51b815260040180806020018281038252602c8152602001806122b6602c913960400191505060405180910390fd5b506000908152600460205260409020546001600160a01b031690565b600061088d82610a86565b9050806001600160a01b0316836001600160a01b031614156108e05760405162461bcd60e51b815260040180806020018281038252602181526020018061233a6021913960400191505060405180910390fd5b806001600160a01b03166108f2611209565b6001600160a01b0316148061091357506109138161090e611209565b6111ce565b61094e5760405162461bcd60e51b81526004018080602001828103825260388152602001806121e86038913960400191505060405180910390fd5b610958838361120d565b505050565b60006109696002611288565b905090565b61097f610979611209565b82611293565b6109ba5760405162461bcd60e51b815260040180806020018281038252603181526020018061235b6031913960400191505060405180910390fd5b610958838383611337565b6001600160a01b03821660009081526001602052604081206109e79083611483565b90505b92915050565b61095883838360405180602001604052806000815250610dc2565b610a16610979611209565b610a515760405162461bcd60e51b81526004018080602001828103825260308152602001806123c56030913960400191505060405180910390fd5b610a5a8161148f565b50565b600a54600b546001600160a01b03169091565b600080610a7e60028461155c565b509392505050565b60006109ea8260405180606001604052806029815260200161224a6029913960029190611578565b600190565b600d546001600160a01b0316610ac7611209565b6001600160a01b031614610b0c5760405162461bcd60e51b815260040180806020018281038252603981526020018061215f6039913960400191505060405180910390fd5b610b1f81610b1a600c61158f565b611593565b610a5a600c6116c1565b60098054604080516020601f60026000196101006001881615020190951694909404938401819004810282018101909252828152606093909290918301828280156108165780601f106107eb57610100808354040283529160200191610816565b60006001600160a01b038216610bd15760405162461bcd60e51b815260040180806020018281038252602a815260200180612220602a913960400191505060405180910390fd5b6001600160a01b03821660009081526001602052604090206109ea90611288565b600a5490565b80826001600160a01b0316846001600160a01b03167f06cb0b9d04d0ac2a93b9b9a93ee6c2511e069efb107c06eee43c85021fbc04ed60405160405180910390a4505050565b60078054604080516020601f60026000196101006001881615020190951694909404938401819004810282018101909252828152606093909290918301828280156108165780601f106107eb57610100808354040283529160200191610816565b600b546001600160a01b031690565b600d546001600160a01b031681565b610cc5611209565b6001600160a01b0316826001600160a01b03161415610d2b576040805162461bcd60e51b815260206004820152601960248201527f4552433732313a20617070726f766520746f2063616c6c657200000000000000604482015290519081900360640190fd5b8060056000610d38611209565b6001600160a01b03908116825260208083019390935260409182016000908120918716808252919093529120805460ff191692151592909217909155610d7c611209565b6001600160a01b03167f17307eab39ab6107e8899845ad3d59bd9653f200f220920489ca2b5937696c318360405180821515815260200191505060405180910390a35050565b610dd3610dcd611209565b83611293565b610e0e5760405162461bcd60e51b815260040180806020018281038252603181526020018061235b6031913960400191505060405180910390fd5b610e1a848484846116ca565b50505050565b6060610e2b826111fc565b610e665760405162461bcd60e51b815260040180806020018281038252602f81526020018061230b602f913960400191505060405180910390fd5b60008281526008602090815260408083208054825160026001831615610100026000190190921691909104601f810185900485028201850190935282815292909190830182828015610ef95780601f10610ece57610100808354040283529160200191610ef9565b820191906000526020600020905b815481529060010190602001808311610edc57829003601f168201915b505050505090506000610f0a610b29565b9050805160001415610f1e57509050610785565b815115610fdf5780826040516020018083805190602001908083835b60208310610f595780518252601f199092019160209182019101610f3a565b51815160209384036101000a600019018019909216911617905285519190930192850191508083835b60208310610fa15780518252601f199092019160209182019101610f82565b6001836020036101000a0380198251168184511680821785525050505050509050019250505060405160208183030381529060405292505050610785565b80610fe98561171c565b6040516020018083805190602001908083835b6020831061101b5780518252601f199092019160209182019101610ffc565b51815160209384036101000a600019018019909216911617905285519190930192850191508083835b602083106110635780518252601f199092019160209182019101611044565b6001836020036101000a0380198251168184511680821785525050505050509050019250505060405160208183030381529060405292505050919050565b8334146110df5760405162461bcd60e51b815260040180806020018281038252603981526020018061238c6039913960400191505060405180910390fd5b600061110160646110fb600a543461180f90919063ffffffff16565b90611868565b600b546040519192506001600160a01b031690819083156108fc029084906000818181858888f1935050505015801561113e573d6000803e3d6000fd5b506001600160a01b0384166108fc61115634856118cf565b6040518115909202916000818181858888f1935050505015801561117e573d6000803e3d6000fd5b506111af8484876040518060400160405280600c81526020016b1c9bde585b1d1e481c185a5960a21b815250610dc2565b600b546111c6906001600160a01b03168484610bf8565b505050505050565b6001600160a01b03918216600090815260056020908152604080832093909416825291909152205460ff1690565b60006109ea60028361192c565b3390565b6000818152600460205260409020805473ffffffffffffffffffffffffffffffffffffffff19166001600160a01b038416908117909155819061124f82610a86565b6001600160a01b03167f8c5be1e5ebec7d5bd14f71427d1e84f3dd0314c0f7b2291e5b200ac8c7c3b92560405160405180910390a45050565b60006109ea8261158f565b600061129e826111fc565b6112d95760405162461bcd60e51b815260040180806020018281038252602c8152602001806121bc602c913960400191505060405180910390fd5b60006112e483610a86565b9050806001600160a01b0316846001600160a01b0316148061131f5750836001600160a01b031661131484610820565b6001600160a01b0316145b8061132f575061132f81856111ce565b949350505050565b826001600160a01b031661134a82610a86565b6001600160a01b03161461138f5760405162461bcd60e51b81526004018080602001828103825260298152602001806122e26029913960400191505060405180910390fd5b6001600160a01b0382166113d45760405162461bcd60e51b81526004018080602001828103825260248152602001806121986024913960400191505060405180910390fd5b6113df838383611938565b6113ea60008261120d565b6001600160a01b038316600090815260016020526040902061140c9082611943565b506001600160a01b038216600090815260016020526040902061142f908261194f565b5061143c6002828461195b565b5080826001600160a01b0316846001600160a01b03167fddf252ad1be2c89b69c2b068fc378daa952ba7f163c4a11628f55a4df523b3ef60405160405180910390a4505050565b60006109e78383611971565b600061149a82610a86565b90506114a881600084611938565b6114b360008361120d565b60008281526008602052604090205460026000196101006001841615020190911604156114f15760008281526008602052604081206114f1916120b2565b6001600160a01b03811660009081526001602052604090206115139083611943565b5061151f6002836119d5565b5060405182906000906001600160a01b038416907fddf252ad1be2c89b69c2b068fc378daa952ba7f163c4a11628f55a4df523b3ef908390a45050565b600080808061156b86866119e1565b9097909650945050505050565b6000611585848484611a5c565b90505b9392505050565b5490565b6001600160a01b0382166115ee576040805162461bcd60e51b815260206004820181905260248201527f4552433732313a206d696e7420746f20746865207a65726f2061646472657373604482015290519081900360640190fd5b6115f7816111fc565b15611649576040805162461bcd60e51b815260206004820152601c60248201527f4552433732313a20746f6b656e20616c7265616479206d696e74656400000000604482015290519081900360640190fd5b61165560008383611938565b6001600160a01b0382166000908152600160205260409020611677908261194f565b506116846002828461195b565b5060405181906001600160a01b038416906000907fddf252ad1be2c89b69c2b068fc378daa952ba7f163c4a11628f55a4df523b3ef908290a45050565b80546001019055565b6116d5848484611337565b6116e184848484611b26565b610e1a5760405162461bcd60e51b815260040180806020018281038252603281526020018061212d6032913960400191505060405180910390fd5b60608161174157506040805180820190915260018152600360fc1b6020820152610785565b8160005b811561175957600101600a82049150611745565b60008167ffffffffffffffff8111801561177257600080fd5b506040519080825280601f01601f19166020018201604052801561179d576020820181803683370190505b50859350905060001982015b831561180657600a840660300160f81b828280600190039350815181106117cc57fe5b60200101907effffffffffffffffffffffffffffffffffffffffffffffffffffffffffffff1916908160001a905350600a840493506117a9565b50949350505050565b60008261181e575060006109ea565b8282028284828161182b57fe5b04146109e75760405162461bcd60e51b81526004018080602001828103825260218152602001806122956021913960400191505060405180910390fd5b60008082116118be576040805162461bcd60e51b815260206004820152601a60248201527f536166654d6174683a206469766973696f6e206279207a65726f000000000000604482015290519081900360640190fd5b8183816118c757fe5b049392505050565b600082821115611926576040805162461bcd60e51b815260206004820152601e60248201527f536166654d6174683a207375627472616374696f6e206f766572666c6f770000604482015290519081900360640190fd5b50900390565b60006109e78383611c8e565b610958838383610958565b60006109e78383611ca6565b60006109e78383611d6c565b600061158584846001600160a01b038516611db6565b815460009082106119b35760405162461bcd60e51b815260040180806020018281038252602281526020018061210b6022913960400191505060405180910390fd5b8260000182815481106119c257fe5b9060005260206000200154905092915050565b60006109e78383611e4d565b815460009081908310611a255760405162461bcd60e51b81526004018080602001828103825260228152602001806122736022913960400191505060405180910390fd5b6000846000018481548110611a3657fe5b906000526020600020906002020190508060000154816001015492509250509250929050565b60008281526001840160205260408120548281611af75760405162461bcd60e51b81526004018080602001828103825283818151815260200191508051906020019080838360005b83811015611abc578181015183820152602001611aa4565b50505050905090810190601f168015611ae95780820380516001836020036101000a031916815260200191505b509250505060405180910390fd5b50846000016001820381548110611b0a57fe5b9060005260206000209060020201600101549150509392505050565b6000611b3a846001600160a01b0316611f21565b611b465750600161132f565b6000611c54630a85bd0160e11b611b5b611209565b88878760405160240180856001600160a01b03168152602001846001600160a01b0316815260200183815260200180602001828103825283818151815260200191508051906020019080838360005b83811015611bc2578181015183820152602001611baa565b50505050905090810190601f168015611bef5780820380516001836020036101000a031916815260200191505b5095505050505050604051602081830303815290604052906001600160e01b0319166020820180516001600160e01b03838183161783525050505060405180606001604052806032815260200161212d603291396001600160a01b0388169190611f27565b90506000818060200190516020811015611c6d57600080fd5b50516001600160e01b031916630a85bd0160e11b1492505050949350505050565b60009081526001919091016020526040902054151590565b60008181526001830160205260408120548015611d625783546000198083019190810190600090879083908110611cd957fe5b9060005260206000200154905080876000018481548110611cf657fe5b600091825260208083209091019290925582815260018981019092526040902090840190558654879080611d2657fe5b600190038181906000526020600020016000905590558660010160008781526020019081526020016000206000905560019450505050506109ea565b60009150506109ea565b6000611d788383611c8e565b611dae575081546001818101845560008481526020808220909301849055845484825282860190935260409020919091556109ea565b5060006109ea565b600082815260018401602052604081205480611e1b575050604080518082018252838152602080820184815286546001818101895560008981528481209551600290930290950191825591519082015586548684528188019092529290912055611588565b82856000016001830381548110611e2e57fe5b9060005260206000209060020201600101819055506000915050611588565b60008181526001830160205260408120548015611d625783546000198083019190810190600090879083908110611e8057fe5b9060005260206000209060020201905080876000018481548110611ea057fe5b600091825260208083208454600290930201918255600193840154918401919091558354825289830190526040902090840190558654879080611edf57fe5b60008281526020808220600260001990940193840201828155600190810183905592909355888152898201909252604082209190915594506109ea9350505050565b3b151590565b6060611585848460008585611f3b85611f21565b611f8c576040805162461bcd60e51b815260206004820152601d60248201527f416464726573733a2063616c6c20746f206e6f6e2d636f6e7472616374000000604482015290519081900360640190fd5b600080866001600160a01b031685876040518082805190602001908083835b60208310611fca5780518252601f199092019160209182019101611fab565b6001836020036101000a03801982511681845116808217855250505050505090500191505060006040518083038185875af1925050503d806000811461202c576040519150601f19603f3d011682016040523d82523d6000602084013e612031565b606091505b509150915061204182828661204c565b979650505050505050565b6060831561205b575081611588565b82511561206b5782518084602001fd5b60405162461bcd60e51b8152602060048201818152845160248401528451859391928392604401919085019080838360008315611abc578181015183820152602001611aa4565b50805460018160011615610100020316600290046000825580601f106120d85750610a5a565b601f016020900490600052602060002090810190610a5a91905b8082111561210657600081556001016120f2565b509056fe456e756d657261626c655365743a20696e646578206f7574206f6620626f756e64734552433732313a207472616e7366657220746f206e6f6e20455243373231526563656976657220696d706c656d656e7465725052495649506f64455243373231546f6b656e3a204f6e6c7920466163746f72792063616e2063616c6c20746869732066756e6374696f6e2e4552433732313a207472616e7366657220746f20746865207a65726f20616464726573734552433732313a206f70657261746f7220717565727920666f72206e6f6e6578697374656e7420746f6b656e4552433732313a20617070726f76652063616c6c6572206973206e6f74206f776e6572206e6f7220617070726f76656420666f7220616c6c4552433732313a2062616c616e636520717565727920666f7220746865207a65726f20616464726573734552433732313a206f776e657220717565727920666f72206e6f6e6578697374656e7420746f6b656e456e756d657261626c654d61703a20696e646578206f7574206f6620626f756e6473536166654d6174683a206d756c7469706c69636174696f6e206f766572666c6f774552433732313a20617070726f76656420717565727920666f72206e6f6e6578697374656e7420746f6b656e4552433732313a207472616e73666572206f6620746f6b656e2074686174206973206e6f74206f776e4552433732314d657461646174613a2055524920717565727920666f72206e6f6e6578697374656e7420746f6b656e4552433732313a20617070726f76616c20746f2063757272656e74206f776e65724552433732313a207472616e736665722063616c6c6572206973206e6f74206f776e6572206e6f7220617070726f7665645052495649506f64455243373231546f6b656e526f79616c74793a20726f79616c747920616d6f756e74206973206e6f7420636f72726563744552433732314275726e61626c653a2063616c6c6572206973206e6f74206f776e6572206e6f7220617070726f766564a26469706673582212203d65736d75ed445b1f7a3056fc9c6b5c6352bb6af117d681e7279f99d8ea495564736f6c63430007060033456e756d657261626c655365743a20696e646578206f7574206f6620626f756e6473416363657373436f6e74726f6c3a2073656e646572206d75737420626520616e2061646d696e20746f206772616e74416363657373436f6e74726f6c3a2073656e646572206d75737420626520616e2061646d696e20746f207265766f6b655052495649506f64455243373231546f6b656e466163746f72793a20506f642073796d626f6c20616c7265616479206578697374732e5052495649506f64455243373231546f6b656e526f79616c74793a206d7573742068617665204d4f44455241544f525f524f4c4520746f20696e7665737420666f7220696e766573746f722e5052495649506f64455243373231546f6b656e526f79616c74793a204163636f756e7420616464726573732073686f756c64206e6f74206265207a65726f2e5052495649506f64455243373231546f6b656e466163746f72793a20506f6420696420616c7265616479206578697374732e416363657373436f6e74726f6c3a2063616e206f6e6c792072656e6f756e636520726f6c657320666f722073656c66a2646970667358221220d36d140845b53495d75e6a693f87d128063ce77e74de6f6e827c0e81ec365bd164736f6c63430007060033",
  "immutableReferences": {},
  "source": "// SPDX-License-Identifier: MIT\n\npragma solidity ^0.7.6;\n\nimport \"@openzeppelin/contracts/access/AccessControl.sol\";\nimport \"@openzeppelin/contracts/math/SafeMath.sol\";\nimport \"./token/PRIVIPodERC721TokenRoyalty.sol\";\nimport \"./interfaces/IBridgeManager.sol\";\nimport \"./deployable_managers/MultiCreatorNftManager.sol\";\n\ncontract PRIVIPodERC721RoyaltyFactory is AccessControl {\n    using SafeMath for uint256;\n    \n    bytes32 public constant MODERATOR_ROLE = keccak256(\"MODERATOR_ROLE\");\n    address public bridgeManagerAddress;\n    uint256 private totalPodCreated;\n    mapping (string => address) private podTokenAddressesById;\n    mapping (string => address) private podTokenAddressesBySymbol;\n\n    event PodCreated(string indexed podId, string podTokenName, string podTokenSymbol);\n    \n    /**\n     * @dev Grants `DEFAULT_ADMIN_ROLE` and `MODERATOR_ROLE` to the\n     * account that deploys the contract.\n     *\n     */\n    constructor(address bridgeAddress) {\n        _setupRole(DEFAULT_ADMIN_ROLE, _msgSender());\n        _setupRole(MODERATOR_ROLE, _msgSender());\n        bridgeManagerAddress = bridgeAddress;\n    }\n\n    function getTotalTokenCreated() external view returns(uint256 totalPods) {\n        totalPods = totalPodCreated;\n    }\n\n    function getPodAddressById(string calldata podId) external view returns(address podAddress) {\n        podAddress = podTokenAddressesById[podId];\n    }\n\n    function getPodAddressBySymbol(string calldata tokenSymbol) external view returns(address podAddress) {\n        podAddress = podTokenAddressesBySymbol[tokenSymbol];\n    }\n    \n    /**\n     *@dev only MODERATOR_ROLE role can create pods\n     *\n     * Requirements:\n     *\n     * - pod should not exist before.\n     */\n    function createPod(string calldata podId, string calldata podTokenName, string calldata podTokenSymbol, string calldata baseURI, uint256 royaltyAmount, address creator) external returns (address podAddress){\n        // require(hasRole(MODERATOR_ROLE, _msgSender()), \"PRIVIPodERC721TokenFactory: must have MODERATOR_ROLE to create pod.\");\n        require(podTokenAddressesById[podId] == address(0), \"PRIVIPodERC721TokenFactory: Pod id already exists.\");\n        require(podTokenAddressesBySymbol[podTokenSymbol] == address(0), \"PRIVIPodERC721TokenFactory: Pod symbol already exists.\");\n        PRIVIPodERC721TokenRoyalty podToken = new PRIVIPodERC721TokenRoyalty(podTokenName, podTokenSymbol , baseURI, address(this), royaltyAmount, creator);\n        podAddress = address(podToken);\n        totalPodCreated.add(1);\n        podTokenAddressesById[podId] = podAddress;\n        podTokenAddressesBySymbol[podTokenSymbol] = podAddress;\n        IBridgeManager(bridgeManagerAddress).registerTokenERC721(podTokenName, podTokenSymbol, podAddress);\n        emit PodCreated(podId, podTokenName, podTokenSymbol);\n    }\n\n    /**\n     *@dev only MODERATOR_ROLE role can create pods\n     *\n     * Requirements:\n     *\n     * - pod should not exist before.\n     */\n    function createMultiCreatorPod(string calldata podId, string calldata podTokenName, string calldata podTokenSymbol, string calldata baseURI, uint256 royaltyAmount, uint256[] memory royaltyShares, address[] memory creators) external returns (address podAddress){\n        // require(hasRole(MODERATOR_ROLE, _msgSender()), \"PRIVIPodERC721TokenFactory: must have MODERATOR_ROLE to create pod.\");\n        require(podTokenAddressesById[podId] == address(0), \"PRIVIPodERC721TokenFactory: Pod id already exists.\");\n        require(podTokenAddressesBySymbol[podTokenSymbol] == address(0), \"PRIVIPodERC721TokenFactory: Pod symbol already exists.\");\n        MultiCreatorNftManager multiCreatorManager = new MultiCreatorNftManager(creators, royaltyShares);\n        PRIVIPodERC721TokenRoyalty podToken = new PRIVIPodERC721TokenRoyalty(podTokenName, podTokenSymbol , baseURI, address(this), royaltyAmount, address(multiCreatorManager));\n        podAddress = address(podToken);\n        totalPodCreated.add(1);\n        podTokenAddressesById[podId] = podAddress;\n        podTokenAddressesBySymbol[podTokenSymbol] = podAddress;\n        IBridgeManager(bridgeManagerAddress).registerTokenERC721(podTokenName, podTokenSymbol, podAddress);\n        emit PodCreated(podId, podTokenName, podTokenSymbol);\n    }\n    \n    /**\n     * @dev Moderator will mint the amount of pod token for the investor's account\n     *\n     * Requirements:\n     *\n     * - the caller must MODERATOR_ROLE to perform this action.\n     */\n    function mintPodTokenById(string calldata podId, address account) external {\n        require(hasRole(MODERATOR_ROLE, _msgSender()), \"PRIVIPodERC721TokenRoyalty: must have MODERATOR_ROLE to invest for investor.\");\n        require(account != address(0), \"PRIVIPodERC721TokenRoyalty: Account address should not be zero.\");\n        PRIVIPodERC721TokenRoyalty(podTokenAddressesById[podId]).mint(account);\n    }\n\n    function mintPodTokenBySymbol(string calldata tokenSymbol, address account) external {\n        require(hasRole(MODERATOR_ROLE, _msgSender()), \"PRIVIPodERC721TokenRoyalty: must have MODERATOR_ROLE to invest for investor.\");\n        require(account != address(0), \"PRIVIPodERC721TokenRoyalty: Account address should not be zero.\");\n        PRIVIPodERC721TokenRoyalty(podTokenAddressesBySymbol[tokenSymbol]).mint(account);\n    }\n    \n}",
  "sourcePath": "/home/rekard0/Documents/WORK/PriviEthereum/PRIVIethereum/contracts/PRIVIPodERC721RoyaltyFactory.sol",
  "compiler": {
    "name": "solc",
    "version": "0.7.6+commit.7338295f.Emscripten.clang"
  },
  "schemaVersion": "3.3.3",
  "updatedAt": "2021-03-17T15:26:53.663Z",
  "networkType": "ethereum",
  "devdoc": {
    "kind": "dev",
    "methods": {
      "constructor": {
        "details": "Grants `DEFAULT_ADMIN_ROLE` and `MODERATOR_ROLE` to the account that deploys the contract."
      },
      "createMultiCreatorPod(string,string,string,string,uint256,uint256[],address[])": {
        "details": "only MODERATOR_ROLE role can create pods Requirements: - pod should not exist before."
      },
      "createPod(string,string,string,string,uint256,address)": {
        "details": "only MODERATOR_ROLE role can create pods Requirements: - pod should not exist before."
      },
      "getRoleAdmin(bytes32)": {
        "details": "Returns the admin role that controls `role`. See {grantRole} and {revokeRole}. To change a role's admin, use {_setRoleAdmin}."
      },
      "getRoleMember(bytes32,uint256)": {
        "details": "Returns one of the accounts that have `role`. `index` must be a value between 0 and {getRoleMemberCount}, non-inclusive. Role bearers are not sorted in any particular way, and their ordering may change at any point. WARNING: When using {getRoleMember} and {getRoleMemberCount}, make sure you perform all queries on the same block. See the following https://forum.openzeppelin.com/t/iterating-over-elements-on-enumerableset-in-openzeppelin-contracts/2296[forum post] for more information."
      },
      "getRoleMemberCount(bytes32)": {
        "details": "Returns the number of accounts that have `role`. Can be used together with {getRoleMember} to enumerate all bearers of a role."
      },
      "grantRole(bytes32,address)": {
        "details": "Grants `role` to `account`. If `account` had not been already granted `role`, emits a {RoleGranted} event. Requirements: - the caller must have ``role``'s admin role."
      },
      "hasRole(bytes32,address)": {
        "details": "Returns `true` if `account` has been granted `role`."
      },
      "mintPodTokenById(string,address)": {
        "details": "Moderator will mint the amount of pod token for the investor's account Requirements: - the caller must MODERATOR_ROLE to perform this action."
      },
      "renounceRole(bytes32,address)": {
        "details": "Revokes `role` from the calling account. Roles are often managed via {grantRole} and {revokeRole}: this function's purpose is to provide a mechanism for accounts to lose their privileges if they are compromised (such as when a trusted device is misplaced). If the calling account had been granted `role`, emits a {RoleRevoked} event. Requirements: - the caller must be `account`."
      },
      "revokeRole(bytes32,address)": {
        "details": "Revokes `role` from `account`. If `account` had been granted `role`, emits a {RoleRevoked} event. Requirements: - the caller must have ``role``'s admin role."
      }
    },
    "version": 1
  },
  "userdoc": {
    "kind": "user",
    "methods": {},
    "version": 1
  }
}