{
  "contractName": "PRIVIPodERC20Factory",
  "abi": [
    {
      "inputs": [
        {
          "internalType": "address",
          "name": "bridgeAddress",
          "type": "address"
        }
      ],
      "stateMutability": "nonpayable",
      "type": "constructor"
    },
    {
      "anonymous": false,
      "inputs": [
        {
          "indexed": true,
          "internalType": "string",
          "name": "podId",
          "type": "string"
        },
        {
          "indexed": false,
          "internalType": "string",
          "name": "podTokenName",
          "type": "string"
        },
        {
          "indexed": false,
          "internalType": "string",
          "name": "podTokenSymbol",
          "type": "string"
        }
      ],
      "name": "PodCreated",
      "type": "event"
    },
    {
      "anonymous": false,
      "inputs": [
        {
          "indexed": true,
          "internalType": "bytes32",
          "name": "role",
          "type": "bytes32"
        },
        {
          "indexed": true,
          "internalType": "bytes32",
          "name": "previousAdminRole",
          "type": "bytes32"
        },
        {
          "indexed": true,
          "internalType": "bytes32",
          "name": "newAdminRole",
          "type": "bytes32"
        }
      ],
      "name": "RoleAdminChanged",
      "type": "event"
    },
    {
      "anonymous": false,
      "inputs": [
        {
          "indexed": true,
          "internalType": "bytes32",
          "name": "role",
          "type": "bytes32"
        },
        {
          "indexed": true,
          "internalType": "address",
          "name": "account",
          "type": "address"
        },
        {
          "indexed": true,
          "internalType": "address",
          "name": "sender",
          "type": "address"
        }
      ],
      "name": "RoleGranted",
      "type": "event"
    },
    {
      "anonymous": false,
      "inputs": [
        {
          "indexed": true,
          "internalType": "bytes32",
          "name": "role",
          "type": "bytes32"
        },
        {
          "indexed": true,
          "internalType": "address",
          "name": "account",
          "type": "address"
        },
        {
          "indexed": true,
          "internalType": "address",
          "name": "sender",
          "type": "address"
        }
      ],
      "name": "RoleRevoked",
      "type": "event"
    },
    {
      "inputs": [],
      "name": "DEFAULT_ADMIN_ROLE",
      "outputs": [
        {
          "internalType": "bytes32",
          "name": "",
          "type": "bytes32"
        }
      ],
      "stateMutability": "view",
      "type": "function",
      "constant": true
    },
    {
      "inputs": [],
      "name": "MODERATOR_ROLE",
      "outputs": [
        {
          "internalType": "bytes32",
          "name": "",
          "type": "bytes32"
        }
      ],
      "stateMutability": "view",
      "type": "function",
      "constant": true
    },
    {
      "inputs": [],
      "name": "bridgeManagerAddress",
      "outputs": [
        {
          "internalType": "address",
          "name": "",
          "type": "address"
        }
      ],
      "stateMutability": "view",
      "type": "function",
      "constant": true
    },
    {
      "inputs": [
        {
          "internalType": "bytes32",
          "name": "role",
          "type": "bytes32"
        }
      ],
      "name": "getRoleAdmin",
      "outputs": [
        {
          "internalType": "bytes32",
          "name": "",
          "type": "bytes32"
        }
      ],
      "stateMutability": "view",
      "type": "function",
      "constant": true
    },
    {
      "inputs": [
        {
          "internalType": "bytes32",
          "name": "role",
          "type": "bytes32"
        },
        {
          "internalType": "uint256",
          "name": "index",
          "type": "uint256"
        }
      ],
      "name": "getRoleMember",
      "outputs": [
        {
          "internalType": "address",
          "name": "",
          "type": "address"
        }
      ],
      "stateMutability": "view",
      "type": "function",
      "constant": true
    },
    {
      "inputs": [
        {
          "internalType": "bytes32",
          "name": "role",
          "type": "bytes32"
        }
      ],
      "name": "getRoleMemberCount",
      "outputs": [
        {
          "internalType": "uint256",
          "name": "",
          "type": "uint256"
        }
      ],
      "stateMutability": "view",
      "type": "function",
      "constant": true
    },
    {
      "inputs": [
        {
          "internalType": "bytes32",
          "name": "role",
          "type": "bytes32"
        },
        {
          "internalType": "address",
          "name": "account",
          "type": "address"
        }
      ],
      "name": "grantRole",
      "outputs": [],
      "stateMutability": "nonpayable",
      "type": "function"
    },
    {
      "inputs": [
        {
          "internalType": "bytes32",
          "name": "role",
          "type": "bytes32"
        },
        {
          "internalType": "address",
          "name": "account",
          "type": "address"
        }
      ],
      "name": "hasRole",
      "outputs": [
        {
          "internalType": "bool",
          "name": "",
          "type": "bool"
        }
      ],
      "stateMutability": "view",
      "type": "function",
      "constant": true
    },
    {
      "inputs": [
        {
          "internalType": "bytes32",
          "name": "role",
          "type": "bytes32"
        },
        {
          "internalType": "address",
          "name": "account",
          "type": "address"
        }
      ],
      "name": "renounceRole",
      "outputs": [],
      "stateMutability": "nonpayable",
      "type": "function"
    },
    {
      "inputs": [
        {
          "internalType": "bytes32",
          "name": "role",
          "type": "bytes32"
        },
        {
          "internalType": "address",
          "name": "account",
          "type": "address"
        }
      ],
      "name": "revokeRole",
      "outputs": [],
      "stateMutability": "nonpayable",
      "type": "function"
    },
    {
      "inputs": [],
      "name": "getTotalTokenCreated",
      "outputs": [
        {
          "internalType": "uint256",
          "name": "totalPods",
          "type": "uint256"
        }
      ],
      "stateMutability": "view",
      "type": "function",
      "constant": true
    },
    {
      "inputs": [
        {
          "internalType": "string",
          "name": "podId",
          "type": "string"
        }
      ],
      "name": "getPodAddressById",
      "outputs": [
        {
          "internalType": "address",
          "name": "podAddress",
          "type": "address"
        }
      ],
      "stateMutability": "view",
      "type": "function",
      "constant": true
    },
    {
      "inputs": [
        {
          "internalType": "string",
          "name": "tokenSymbol",
          "type": "string"
        }
      ],
      "name": "getPodAddressBySymbol",
      "outputs": [
        {
          "internalType": "address",
          "name": "podAddress",
          "type": "address"
        }
      ],
      "stateMutability": "view",
      "type": "function",
      "constant": true
    },
    {
      "inputs": [
        {
          "internalType": "string",
          "name": "podId",
          "type": "string"
        },
        {
          "internalType": "string",
          "name": "podTokenName",
          "type": "string"
        },
        {
          "internalType": "string",
          "name": "podTokenSymbol",
          "type": "string"
        }
      ],
      "name": "createPod",
      "outputs": [
        {
          "internalType": "address",
          "name": "podAddress",
          "type": "address"
        }
      ],
      "stateMutability": "nonpayable",
      "type": "function"
    },
    {
      "inputs": [
        {
          "internalType": "string",
          "name": "podId",
          "type": "string"
        },
        {
          "internalType": "address",
          "name": "account",
          "type": "address"
        },
        {
          "internalType": "uint256",
          "name": "investAmount",
          "type": "uint256"
        }
      ],
      "name": "mintPodTokenById",
      "outputs": [],
      "stateMutability": "nonpayable",
      "type": "function"
    },
    {
      "inputs": [
        {
          "internalType": "string",
          "name": "tokenSymbol",
          "type": "string"
        },
        {
          "internalType": "address",
          "name": "account",
          "type": "address"
        },
        {
          "internalType": "uint256",
          "name": "investAmount",
          "type": "uint256"
        }
      ],
      "name": "mintPodTokenBySymbol",
      "outputs": [],
      "stateMutability": "nonpayable",
      "type": "function"
    }
  ],
  "bytecode": "0x60806040523480156200001157600080fd5b506040516200274f3803806200274f833981810160405260208110156200003757600080fd5b50516200004f600062000049620000a4565b620000a8565b6200007e7f71f3d55856e4058ed06ee057d79ada615f65cdf5f9ee88181b914225088f834f62000049620000a4565b600180546001600160a01b0319166001600160a01b0392909216919091179055620001b8565b3390565b620000b48282620000b8565b5050565b600082815260208181526040909120620000dd91839062000ec862000131821b17901c565b15620000b457620000ed620000a4565b6001600160a01b0316816001600160a01b0316837f2f8788117e7eff1d82e926ec794901d17c78024a50270940304540a733656f0d60405160405180910390a45050565b600062000148836001600160a01b03841662000151565b90505b92915050565b60006200015f8383620001a0565b62000197575081546001818101845560008481526020808220909301849055845484825282860190935260409020919091556200014b565b5060006200014b565b60009081526001919091016020526040902054151590565b61258780620001c86000396000f3fe60806040523480156200001157600080fd5b5060043610620001185760003560e01c8063797669c911620000a5578063b176d4ba116200006f578063b176d4ba14620004e3578063ca15c8731462000568578063d547741f1462000588578063e792b19414620005b75762000118565b8063797669c914620004665780639010d07c146200047057806391d148541462000496578063a217fddf14620004d95762000118565b80633325a4e411620000e75780633325a4e4146200021c57806336568abe1462000292578063416aad1e14620002c1578063532d9c4414620003e15762000118565b80630fc09e2e146200011d57806322b2edeb1462000139578063248a9ca314620001cb5780632f2ff15d14620001eb575b600080fd5b62000127620005c1565b60408051918252519081900360200190f35b620001af600480360360208110156200015157600080fd5b8101906020810181356401000000008111156200016d57600080fd5b8201836020820111156200018057600080fd5b80359060200191846001830284011164010000000083111715620001a357600080fd5b509092509050620005c7565b604080516001600160a01b039092168252519081900360200190f35b6200012760048036036020811015620001e357600080fd5b503562000600565b6200021a600480360360408110156200020357600080fd5b50803590602001356001600160a01b031662000615565b005b620001af600480360360208110156200023457600080fd5b8101906020810181356401000000008111156200025057600080fd5b8201836020820111156200026357600080fd5b803590602001918460018302840111640100000000831117156200028657600080fd5b50909250905062000689565b6200021a60048036036040811015620002aa57600080fd5b50803590602001356001600160a01b0316620006c2565b620001af60048036036060811015620002d957600080fd5b810190602081018135640100000000811115620002f557600080fd5b8201836020820111156200030857600080fd5b803590602001918460018302840111640100000000831117156200032b57600080fd5b9193909290916020810190356401000000008111156200034a57600080fd5b8201836020820111156200035d57600080fd5b803590602001918460018302840111640100000000831117156200038057600080fd5b9193909290916020810190356401000000008111156200039f57600080fd5b820183602082011115620003b257600080fd5b80359060200191846001830284011164010000000083111715620003d557600080fd5b50909250905062000729565b6200021a60048036036060811015620003f957600080fd5b8101906020810181356401000000008111156200041557600080fd5b8201836020820111156200042857600080fd5b803590602001918460018302840111640100000000831117156200044b57600080fd5b91935091506001600160a01b03813516906020013562000aef565b6200012762000c75565b620001af600480360360408110156200048857600080fd5b508035906020013562000c99565b620004c560048036036040811015620004ae57600080fd5b50803590602001356001600160a01b031662000cbc565b604080519115158252519081900360200190f35b6200012762000cd6565b6200021a60048036036060811015620004fb57600080fd5b8101906020810181356401000000008111156200051757600080fd5b8201836020820111156200052a57600080fd5b803590602001918460018302840111640100000000831117156200054d57600080fd5b91935091506001600160a01b03813516906020013562000cdb565b62000127600480360360208110156200058057600080fd5b503562000e42565b6200021a60048036036040811015620005a057600080fd5b50803590602001356001600160a01b031662000e5b565b620001af62000eb9565b60025490565b6000600383836040518083838082843791909101948552505060405192839003602001909220546001600160a01b031695945050505050565b60009081526020819052604090206002015490565b6000828152602081905260409020600201546200063c906200063662000edf565b62000cbc565b620006795760405162461bcd60e51b815260040180806020018281038252602f815260200180620023b3602f913960400191505060405180910390fd5b62000685828262000ee3565b5050565b6000600483836040518083838082843791909101948552505060405192839003602001909220546001600160a01b031695945050505050565b620006cc62000edf565b6001600160a01b0316816001600160a01b0316146200071d5760405162461bcd60e51b815260040180806020018281038252602f81526020018062002523602f913960400191505060405180910390fd5b62000685828262000f51565b6000806001600160a01b0316600388886040518083838082843791909101948552505060405192839003602001909220546001600160a01b0316929092149150620007a890505760405162461bcd60e51b815260040180806020018281038252602c815260200180620024f7602c913960400191505060405180910390fd5b60006001600160a01b0316600484846040518083838082843791909101948552505060405192839003602001909220546001600160a01b03169290921491506200082690505760405162461bcd60e51b8152600401808060200182810382526030815260200180620024c76030913960400191505060405180910390fd5b600085858585306040516200083b9062001201565b6001600160a01b038216604082015260608082528101859052806020810160808201888880828437600083820152601f01601f1916909101848103835286815260200190508686808284376000838201819052604051601f909201601f19169093018190039a509850909650505050505050f080158015620008c1573d6000803e3d6000fd5b50600254909250829150620008d890600162000fbf565b5081600389896040518083838082843791909101948552505060405192839003602001832080546001600160a01b039590951673ffffffffffffffffffffffffffffffffffffffff199095169490941790935550839150600490869086908083838082843791909101948552505060405192839003602001832080546001600160a01b0395861673ffffffffffffffffffffffffffffffffffffffff19909116179055505060015463374b216760e21b825284831660448301526060600483019081526064830189905292169163dd2c859c91899189918991899189919081906024810190608401888880828437600083820152601f01601f191690910184810383528681526020019050868680828437600081840152601f19601f820116905080830192505050975050505050505050600060405180830381600087803b15801562000a2457600080fd5b505af115801562000a39573d6000803e3d6000fd5b50505050878760405180838380828437604080519390910183900383208184529083018b905294507fc0512f6474c9ee949f1cbdc88e43ca774f79b5f1f07d8484696e1cf1a0bd87ce93508a925089918991508890806020810160608201878780828437600083820152601f01601f191690910184810383528581526020019050858580828437600083820152604051601f909101601f19169092018290039850909650505050505050a2509695505050505050565b62000b1e7f71f3d55856e4058ed06ee057d79ada615f65cdf5f9ee88181b914225088f834f6200063662000edf565b62000b5b5760405162461bcd60e51b8152600401808060200182810382526046815260200180620024816046913960600191505060405180910390fd5b6001600160a01b03821662000ba25760405162461bcd60e51b8152600401808060200182810382526039815260200180620024486039913960400191505060405180910390fd5b6000811162000be35760405162461bcd60e51b8152600401808060200182810382526036815260200180620023e26036913960400191505060405180910390fd5b600384846040518083838082843791909101948552505060408051938490036020018420546340c10f1960e01b85526001600160a01b0387811660048701526024860187905291519116936340c10f199350604480820193506000929182900301818387803b15801562000c5657600080fd5b505af115801562000c6b573d6000803e3d6000fd5b5050505050505050565b7f71f3d55856e4058ed06ee057d79ada615f65cdf5f9ee88181b914225088f834f81565b600082815260208190526040812062000cb390836200101a565b90505b92915050565b600082815260208190526040812062000cb3908362001028565b600081565b62000d0a7f71f3d55856e4058ed06ee057d79ada615f65cdf5f9ee88181b914225088f834f6200063662000edf565b62000d475760405162461bcd60e51b8152600401808060200182810382526046815260200180620024816046913960600191505060405180910390fd5b6001600160a01b03821662000d8e5760405162461bcd60e51b8152600401808060200182810382526039815260200180620024486039913960400191505060405180910390fd5b6000811162000dcf5760405162461bcd60e51b8152600401808060200182810382526036815260200180620023e26036913960400191505060405180910390fd5b600484846040518083838082843791909101948552505060408051938490036020018420546340c10f1960e01b85526001600160a01b0387811660048701526024860187905291519116936340c10f199350604480820193506000929182900301818387803b15801562000c5657600080fd5b600081815260208190526040812062000cb6906200103f565b60008281526020819052604090206002015462000e7c906200063662000edf565b6200071d5760405162461bcd60e51b8152600401808060200182810382526030815260200180620024186030913960400191505060405180910390fd5b6001546001600160a01b031681565b600062000cb3836001600160a01b0384166200104c565b3390565b600082815260208190526040902062000efd908262000ec8565b15620006855762000f0d62000edf565b6001600160a01b0316816001600160a01b0316837f2f8788117e7eff1d82e926ec794901d17c78024a50270940304540a733656f0d60405160405180910390a45050565b600082815260208190526040902062000f6b90826200109b565b15620006855762000f7b62000edf565b6001600160a01b0316816001600160a01b0316837ff6391f5c32d9c69d2a47ea670b442974b53935d1edc7fd64eb21e047a839171b60405160405180910390a45050565b60008282018381101562000cb3576040805162461bcd60e51b815260206004820152601b60248201527f536166654d6174683a206164646974696f6e206f766572666c6f770000000000604482015290519081900360640190fd5b600062000cb38383620010b2565b600062000cb3836001600160a01b03841662001119565b600062000cb68262001131565b60006200105a838362001119565b620010925750815460018181018455600084815260208082209093018490558454848252828601909352604090209190915562000cb6565b50600062000cb6565b600062000cb3836001600160a01b03841662001135565b81546000908210620010f65760405162461bcd60e51b8152600401808060200182810382526022815260200180620023916022913960400191505060405180910390fd5b8260000182815481106200110657fe5b9060005260206000200154905092915050565b60009081526001919091016020526040902054151590565b5490565b60008181526001830160205260408120548015620011f657835460001980830191908101906000908790839081106200116a57fe5b90600052602060002001549050808760000184815481106200118857fe5b600091825260208083209091019290925582815260018981019092526040902090840190558654879080620011b957fe5b6001900381819060005260206000200160009055905586600101600087815260200190815260200160002060009055600194505050505062000cb6565b600091505062000cb6565b61118180620012108339019056fe60806040523480156200001157600080fd5b506040516200118138038062001181833981810160405260608110156200003757600080fd5b81019080805160405193929190846401000000008211156200005857600080fd5b9083019060208201858111156200006e57600080fd5b82516401000000008111828201881017156200008957600080fd5b82525081516020918201929091019080838360005b83811015620000b85781810151838201526020016200009e565b50505050905090810190601f168015620000e65780820380516001836020036101000a031916815260200191505b50604052602001805160405193929190846401000000008211156200010a57600080fd5b9083019060208201858111156200012057600080fd5b82516401000000008111828201881017156200013b57600080fd5b82525081516020918201929091019080838360005b838110156200016a57818101518382015260200162000150565b50505050905090810190601f168015620001985780820380516001836020036101000a031916815260200191505b5060405260209081015185519093508592508491620001bd9160039185019062000210565b508051620001d390600490602084019062000210565b5050600580546001600160a01b0390931661010002610100600160a81b031960ff19909416601217939093169290921790915550620002bc915050565b828054600181600116156101000203166002900490600052602060002090601f01602090048101928262000248576000855562000293565b82601f106200026357805160ff191683800117855562000293565b8280016001018555821562000293579182015b828111156200029357825182559160200191906001019062000276565b50620002a1929150620002a5565b5090565b5b80821115620002a15760008155600101620002a6565b610eb580620002cc6000396000f3fe608060405234801561001057600080fd5b50600436106100f55760003560e01c806342966c68116100975780639d35c161116100665780639d35c161146102f6578063a457c2d71461031a578063a9059cbb14610346578063dd62ed3e14610372576100f5565b806342966c681461027f57806370a082311461029c57806379cc6790146102c257806395d89b41146102ee576100f5565b806323b872dd116100d357806323b872dd146101d1578063313ce56714610207578063395093511461022557806340c10f1914610251576100f5565b806306fdde03146100fa578063095ea7b31461017757806318160ddd146101b7575b600080fd5b6101026103a0565b6040805160208082528351818301528351919283929083019185019080838360005b8381101561013c578181015183820152602001610124565b50505050905090810190601f1680156101695780820380516001836020036101000a031916815260200191505b509250505060405180910390f35b6101a36004803603604081101561018d57600080fd5b506001600160a01b038135169060200135610436565b604080519115158252519081900360200190f35b6101bf610453565b60408051918252519081900360200190f35b6101a3600480360360608110156101e757600080fd5b506001600160a01b03813581169160208101359091169060400135610459565b61020f6104e0565b6040805160ff9092168252519081900360200190f35b6101a36004803603604081101561023b57600080fd5b506001600160a01b0381351690602001356104e9565b61027d6004803603604081101561026757600080fd5b506001600160a01b038135169060200135610537565b005b61027d6004803603602081101561029557600080fd5b50356105a3565b6101bf600480360360208110156102b257600080fd5b50356001600160a01b03166105b7565b61027d600480360360408110156102d857600080fd5b506001600160a01b0381351690602001356105d2565b61010261062c565b6102fe61068d565b604080516001600160a01b039092168252519081900360200190f35b6101a36004803603604081101561033057600080fd5b506001600160a01b0381351690602001356106a1565b6101a36004803603604081101561035c57600080fd5b506001600160a01b038135169060200135610709565b6101bf6004803603604081101561038857600080fd5b506001600160a01b038135811691602001351661071d565b60038054604080516020601f600260001961010060018816150201909516949094049384018190048102820181019092528281526060939092909183018282801561042c5780601f106104015761010080835404028352916020019161042c565b820191906000526020600020905b81548152906001019060200180831161040f57829003601f168201915b5050505050905090565b600061044a610443610748565b848461074c565b50600192915050565b60025490565b6000610466848484610838565b6104d684610472610748565b6104d185604051806060016040528060288152602001610d6d602891396001600160a01b038a166000908152600160205260408120906104b0610748565b6001600160a01b031681526020810191909152604001600020549190610993565b61074c565b5060019392505050565b60055460ff1690565b600061044a6104f6610748565b846104d18560016000610507610748565b6001600160a01b03908116825260208083019390935260409182016000908120918c168152925290205490610a2a565b60055461010090046001600160a01b0316610550610748565b6001600160a01b0316146105955760405162461bcd60e51b8152600401808060200182810382526038815260200180610e486038913960400191505060405180910390fd5b61059f8282610a8b565b5050565b6105b46105ae610748565b82610b7b565b50565b6001600160a01b031660009081526020819052604090205490565b600061060982604051806060016040528060248152602001610d9560249139610602866105fd610748565b61071d565b9190610993565b905061061d83610617610748565b8361074c565b6106278383610b7b565b505050565b60048054604080516020601f600260001961010060018816150201909516949094049384018190048102820181019092528281526060939092909183018282801561042c5780601f106104015761010080835404028352916020019161042c565b60055461010090046001600160a01b031681565b600061044a6106ae610748565b846104d185604051806060016040528060258152602001610e2360259139600160006106d8610748565b6001600160a01b03908116825260208083019390935260409182016000908120918d16815292529020549190610993565b600061044a610716610748565b8484610838565b6001600160a01b03918216600090815260016020908152604080832093909416825291909152205490565b3390565b6001600160a01b0383166107915760405162461bcd60e51b8152600401808060200182810382526024815260200180610dff6024913960400191505060405180910390fd5b6001600160a01b0382166107d65760405162461bcd60e51b8152600401808060200182810382526022815260200180610d256022913960400191505060405180910390fd5b6001600160a01b03808416600081815260016020908152604080832094871680845294825291829020859055815185815291517f8c5be1e5ebec7d5bd14f71427d1e84f3dd0314c0f7b2291e5b200ac8c7c3b9259281900390910190a3505050565b6001600160a01b03831661087d5760405162461bcd60e51b8152600401808060200182810382526025815260200180610dda6025913960400191505060405180910390fd5b6001600160a01b0382166108c25760405162461bcd60e51b8152600401808060200182810382526023815260200180610ce06023913960400191505060405180910390fd5b6108cd838383610c77565b61090a81604051806060016040528060268152602001610d47602691396001600160a01b0386166000908152602081905260409020549190610993565b6001600160a01b0380851660009081526020819052604080822093909355908416815220546109399082610a2a565b6001600160a01b038084166000818152602081815260409182902094909455805185815290519193928716927fddf252ad1be2c89b69c2b068fc378daa952ba7f163c4a11628f55a4df523b3ef92918290030190a3505050565b60008184841115610a225760405162461bcd60e51b81526004018080602001828103825283818151815260200191508051906020019080838360005b838110156109e75781810151838201526020016109cf565b50505050905090810190601f168015610a145780820380516001836020036101000a031916815260200191505b509250505060405180910390fd5b505050900390565b600082820183811015610a84576040805162461bcd60e51b815260206004820152601b60248201527f536166654d6174683a206164646974696f6e206f766572666c6f770000000000604482015290519081900360640190fd5b9392505050565b6001600160a01b038216610ae6576040805162461bcd60e51b815260206004820152601f60248201527f45524332303a206d696e7420746f20746865207a65726f206164647265737300604482015290519081900360640190fd5b610af260008383610c77565b600254610aff9082610a2a565b6002556001600160a01b038216600090815260208190526040902054610b259082610a2a565b6001600160a01b0383166000818152602081815260408083209490945583518581529351929391927fddf252ad1be2c89b69c2b068fc378daa952ba7f163c4a11628f55a4df523b3ef9281900390910190a35050565b6001600160a01b038216610bc05760405162461bcd60e51b8152600401808060200182810382526021815260200180610db96021913960400191505060405180910390fd5b610bcc82600083610c77565b610c0981604051806060016040528060228152602001610d03602291396001600160a01b0385166000908152602081905260409020549190610993565b6001600160a01b038316600090815260208190526040902055600254610c2f9082610c82565b6002556040805182815290516000916001600160a01b038516917fddf252ad1be2c89b69c2b068fc378daa952ba7f163c4a11628f55a4df523b3ef9181900360200190a35050565b610627838383610627565b600082821115610cd9576040805162461bcd60e51b815260206004820152601e60248201527f536166654d6174683a207375627472616374696f6e206f766572666c6f770000604482015290519081900360640190fd5b5090039056fe45524332303a207472616e7366657220746f20746865207a65726f206164647265737345524332303a206275726e20616d6f756e7420657863656564732062616c616e636545524332303a20617070726f766520746f20746865207a65726f206164647265737345524332303a207472616e7366657220616d6f756e7420657863656564732062616c616e636545524332303a207472616e7366657220616d6f756e74206578636565647320616c6c6f77616e636545524332303a206275726e20616d6f756e74206578636565647320616c6c6f77616e636545524332303a206275726e2066726f6d20746865207a65726f206164647265737345524332303a207472616e736665722066726f6d20746865207a65726f206164647265737345524332303a20617070726f76652066726f6d20746865207a65726f206164647265737345524332303a2064656372656173656420616c6c6f77616e63652062656c6f77207a65726f5052495649506f644552433230546f6b656e3a204f6e6c7920466163746f72792063616e2063616c6c20746869732066756e6374696f6e2ea2646970667358221220a26669c9d70a85d9903006648a4bd71d22be8b9f96dae54ca4a2355fdaf646d964736f6c63430007060033456e756d657261626c655365743a20696e646578206f7574206f6620626f756e6473416363657373436f6e74726f6c3a2073656e646572206d75737420626520616e2061646d696e20746f206772616e745052495649506f644552433230466163746f72793a20696e76657374416d6f756e742073686f756c64206e6f74206265207a65726f2e416363657373436f6e74726f6c3a2073656e646572206d75737420626520616e2061646d696e20746f207265766f6b655052495649506f644552433230466163746f72793a204163636f756e7420616464726573732073686f756c64206e6f74206265207a65726f2e5052495649506f644552433230466163746f72793a206d7573742068617665204d4f44455241544f525f524f4c4520746f20696e7665737420666f7220696e766573746f722e5052495649506f644552433230466163746f72793a20506f642073796d626f6c20616c7265616479206578697374732e5052495649506f644552433230466163746f72793a20506f6420696420616c7265616479206578697374732e416363657373436f6e74726f6c3a2063616e206f6e6c792072656e6f756e636520726f6c657320666f722073656c66a26469706673582212205b2ba7ebc3893052cdbe768c713967f75a304c89efc09dffc38e94e1fd2370b864736f6c63430007060033",
  "immutableReferences": {},
  "source": "// SPDX-License-Identifier: MIT\n\npragma solidity ^0.7.6;\n\nimport \"@openzeppelin/contracts/access/AccessControl.sol\";\nimport \"@openzeppelin/contracts/math/SafeMath.sol\";\nimport \"./token/PRIVIPodERC20Token.sol\";\nimport \"./interfaces/IBridgeManager.sol\";\n\ncontract PRIVIPodERC20Factory is AccessControl {\n  using SafeMath for uint256;\n\n  bytes32 public constant MODERATOR_ROLE = keccak256(\"MODERATOR_ROLE\");\n  address public bridgeManagerAddress;\n  uint256 private totalPodCreated;\n  mapping(string => address) private podTokenAddressesById;\n  mapping(string => address) private podTokenAddressesBySymbol;\n\n  event PodCreated(\n    string indexed podId,\n    string podTokenName,\n    string podTokenSymbol\n  );\n\n  /**\n   * @dev Grants `DEFAULT_ADMIN_ROLE` and `MODERATOR_ROLE` to the\n   * account that deploys the contract.\n   *\n   */\n  constructor(address bridgeAddress) {\n    _setupRole(DEFAULT_ADMIN_ROLE, _msgSender());\n    _setupRole(MODERATOR_ROLE, _msgSender());\n    bridgeManagerAddress = bridgeAddress;\n  }\n\n  function getTotalTokenCreated() external view returns (uint256 totalPods) {\n    totalPods = totalPodCreated;\n  }\n\n  function getPodAddressById(string calldata podId)\n    external\n    view\n    returns (address podAddress)\n  {\n    podAddress = podTokenAddressesById[podId];\n  }\n\n  function getPodAddressBySymbol(string calldata tokenSymbol)\n    external\n    view\n    returns (address podAddress)\n  {\n    podAddress = podTokenAddressesBySymbol[tokenSymbol];\n  }\n\n  /**\n   *@dev only MODERATOR_ROLE role can create pods\n   *\n   * Requirements:\n   *\n   * - pod should not exist before.\n   */\n  function createPod(\n    string calldata podId,\n    string calldata podTokenName,\n    string calldata podTokenSymbol\n  ) external returns (address podAddress) {\n    // require(hasRole(MODERATOR_ROLE, _msgSender()), \"PRIVIPodERC20Factory: must have MODERATOR_ROLE to create pod.\");\n    require(\n      podTokenAddressesById[podId] == address(0),\n      \"PRIVIPodERC20Factory: Pod id already exists.\"\n    );\n    require(\n      podTokenAddressesBySymbol[podTokenSymbol] == address(0),\n      \"PRIVIPodERC20Factory: Pod symbol already exists.\"\n    );\n    PRIVIPodERC20Token podToken =\n      new PRIVIPodERC20Token(podTokenName, podTokenSymbol, address(this));\n    podAddress = address(podToken);\n    totalPodCreated.add(1);\n    podTokenAddressesById[podId] = podAddress;\n    podTokenAddressesBySymbol[podTokenSymbol] = podAddress;\n    IBridgeManager(bridgeManagerAddress).registerTokenERC20(\n      podTokenName,\n      podTokenSymbol,\n      podAddress\n    );\n    emit PodCreated(podId, podTokenName, podTokenSymbol);\n  }\n\n  /**\n   * @dev Moderator will mint the amount of pod token for the investor's account\n   *\n   * Requirements:\n   *\n   * - the caller must MODERATOR_ROLE to perform this action.\n   */\n  function mintPodTokenById(\n    string calldata podId,\n    address account,\n    uint256 investAmount\n  ) external {\n    require(\n      hasRole(MODERATOR_ROLE, _msgSender()),\n      \"PRIVIPodERC20Factory: must have MODERATOR_ROLE to invest for investor.\"\n    );\n    require(\n      account != address(0),\n      \"PRIVIPodERC20Factory: Account address should not be zero.\"\n    );\n    require(\n      investAmount > 0,\n      \"PRIVIPodERC20Factory: investAmount should not be zero.\"\n    );\n    PRIVIPodERC20Token(podTokenAddressesById[podId]).mint(\n      account,\n      investAmount\n    );\n  }\n\n  function mintPodTokenBySymbol(\n    string calldata tokenSymbol,\n    address account,\n    uint256 investAmount\n  ) external {\n    require(\n      hasRole(MODERATOR_ROLE, _msgSender()),\n      \"PRIVIPodERC20Factory: must have MODERATOR_ROLE to invest for investor.\"\n    );\n    require(\n      account != address(0),\n      \"PRIVIPodERC20Factory: Account address should not be zero.\"\n    );\n    require(\n      investAmount > 0,\n      \"PRIVIPodERC20Factory: investAmount should not be zero.\"\n    );\n    PRIVIPodERC20Token(podTokenAddressesBySymbol[tokenSymbol]).mint(\n      account,\n      investAmount\n    );\n  }\n}\n",
  "sourcePath": "/home/rekard0/Documents/WORK/PriviEthereum/PRIVIethereum/contracts/PRIVIPodERC20Factory.sol",
  "compiler": {
    "name": "solc",
    "version": "0.7.6+commit.7338295f.Emscripten.clang"
  },
  "schemaVersion": "3.3.3",
  "updatedAt": "2021-03-17T15:29:36.988Z",
  "networkType": "ethereum",
  "devdoc": {
    "kind": "dev",
    "methods": {
      "constructor": {
        "details": "Grants `DEFAULT_ADMIN_ROLE` and `MODERATOR_ROLE` to the account that deploys the contract."
      },
      "createPod(string,string,string)": {
        "details": "only MODERATOR_ROLE role can create pods Requirements: - pod should not exist before."
      },
      "getRoleAdmin(bytes32)": {
        "details": "Returns the admin role that controls `role`. See {grantRole} and {revokeRole}. To change a role's admin, use {_setRoleAdmin}."
      },
      "getRoleMember(bytes32,uint256)": {
        "details": "Returns one of the accounts that have `role`. `index` must be a value between 0 and {getRoleMemberCount}, non-inclusive. Role bearers are not sorted in any particular way, and their ordering may change at any point. WARNING: When using {getRoleMember} and {getRoleMemberCount}, make sure you perform all queries on the same block. See the following https://forum.openzeppelin.com/t/iterating-over-elements-on-enumerableset-in-openzeppelin-contracts/2296[forum post] for more information."
      },
      "getRoleMemberCount(bytes32)": {
        "details": "Returns the number of accounts that have `role`. Can be used together with {getRoleMember} to enumerate all bearers of a role."
      },
      "grantRole(bytes32,address)": {
        "details": "Grants `role` to `account`. If `account` had not been already granted `role`, emits a {RoleGranted} event. Requirements: - the caller must have ``role``'s admin role."
      },
      "hasRole(bytes32,address)": {
        "details": "Returns `true` if `account` has been granted `role`."
      },
      "mintPodTokenById(string,address,uint256)": {
        "details": "Moderator will mint the amount of pod token for the investor's account Requirements: - the caller must MODERATOR_ROLE to perform this action."
      },
      "renounceRole(bytes32,address)": {
        "details": "Revokes `role` from the calling account. Roles are often managed via {grantRole} and {revokeRole}: this function's purpose is to provide a mechanism for accounts to lose their privileges if they are compromised (such as when a trusted device is misplaced). If the calling account had been granted `role`, emits a {RoleRevoked} event. Requirements: - the caller must be `account`."
      },
      "revokeRole(bytes32,address)": {
        "details": "Revokes `role` from `account`. If `account` had been granted `role`, emits a {RoleRevoked} event. Requirements: - the caller must have ``role``'s admin role."
      }
    },
    "version": 1
  },
  "userdoc": {
    "kind": "user",
    "methods": {},
    "version": 1
  }
}