{
  "contractName": "PRIVIPodERC1155TokenRoyalty",
  "abi": [
    {
      "inputs": [
        {
          "internalType": "string",
          "name": "uri",
          "type": "string"
        },
        {
          "internalType": "address",
          "name": "factory",
          "type": "address"
        },
        {
          "internalType": "uint256",
          "name": "royaltyAmount",
          "type": "uint256"
        },
        {
          "internalType": "address",
          "name": "creator",
          "type": "address"
        }
      ],
      "stateMutability": "nonpayable",
      "type": "constructor"
    },
    {
      "anonymous": false,
      "inputs": [
        {
          "indexed": true,
          "internalType": "address",
          "name": "account",
          "type": "address"
        },
        {
          "indexed": true,
          "internalType": "address",
          "name": "operator",
          "type": "address"
        },
        {
          "indexed": false,
          "internalType": "bool",
          "name": "approved",
          "type": "bool"
        }
      ],
      "name": "ApprovalForAll",
      "type": "event"
    },
    {
      "anonymous": false,
      "inputs": [
        {
          "indexed": true,
          "internalType": "address",
          "name": "creator",
          "type": "address"
        },
        {
          "indexed": true,
          "internalType": "address",
          "name": "buyer",
          "type": "address"
        },
        {
          "indexed": true,
          "internalType": "uint256",
          "name": "amount",
          "type": "uint256"
        }
      ],
      "name": "RecievedRoyalties",
      "type": "event"
    },
    {
      "anonymous": false,
      "inputs": [
        {
          "indexed": true,
          "internalType": "address",
          "name": "operator",
          "type": "address"
        },
        {
          "indexed": true,
          "internalType": "address",
          "name": "from",
          "type": "address"
        },
        {
          "indexed": true,
          "internalType": "address",
          "name": "to",
          "type": "address"
        },
        {
          "indexed": false,
          "internalType": "uint256[]",
          "name": "ids",
          "type": "uint256[]"
        },
        {
          "indexed": false,
          "internalType": "uint256[]",
          "name": "values",
          "type": "uint256[]"
        }
      ],
      "name": "TransferBatch",
      "type": "event"
    },
    {
      "anonymous": false,
      "inputs": [
        {
          "indexed": true,
          "internalType": "address",
          "name": "operator",
          "type": "address"
        },
        {
          "indexed": true,
          "internalType": "address",
          "name": "from",
          "type": "address"
        },
        {
          "indexed": true,
          "internalType": "address",
          "name": "to",
          "type": "address"
        },
        {
          "indexed": false,
          "internalType": "uint256",
          "name": "id",
          "type": "uint256"
        },
        {
          "indexed": false,
          "internalType": "uint256",
          "name": "value",
          "type": "uint256"
        }
      ],
      "name": "TransferSingle",
      "type": "event"
    },
    {
      "anonymous": false,
      "inputs": [
        {
          "indexed": false,
          "internalType": "string",
          "name": "value",
          "type": "string"
        },
        {
          "indexed": true,
          "internalType": "uint256",
          "name": "id",
          "type": "uint256"
        }
      ],
      "name": "URI",
      "type": "event"
    },
    {
      "inputs": [
        {
          "internalType": "address",
          "name": "account",
          "type": "address"
        },
        {
          "internalType": "uint256",
          "name": "id",
          "type": "uint256"
        }
      ],
      "name": "balanceOf",
      "outputs": [
        {
          "internalType": "uint256",
          "name": "",
          "type": "uint256"
        }
      ],
      "stateMutability": "view",
      "type": "function"
    },
    {
      "inputs": [
        {
          "internalType": "address[]",
          "name": "accounts",
          "type": "address[]"
        },
        {
          "internalType": "uint256[]",
          "name": "ids",
          "type": "uint256[]"
        }
      ],
      "name": "balanceOfBatch",
      "outputs": [
        {
          "internalType": "uint256[]",
          "name": "",
          "type": "uint256[]"
        }
      ],
      "stateMutability": "view",
      "type": "function"
    },
    {
      "inputs": [
        {
          "internalType": "address",
          "name": "account",
          "type": "address"
        },
        {
          "internalType": "uint256",
          "name": "id",
          "type": "uint256"
        },
        {
          "internalType": "uint256",
          "name": "value",
          "type": "uint256"
        }
      ],
      "name": "burn",
      "outputs": [],
      "stateMutability": "nonpayable",
      "type": "function"
    },
    {
      "inputs": [
        {
          "internalType": "address",
          "name": "account",
          "type": "address"
        },
        {
          "internalType": "uint256[]",
          "name": "ids",
          "type": "uint256[]"
        },
        {
          "internalType": "uint256[]",
          "name": "values",
          "type": "uint256[]"
        }
      ],
      "name": "burnBatch",
      "outputs": [],
      "stateMutability": "nonpayable",
      "type": "function"
    },
    {
      "inputs": [],
      "name": "hasRoyalties",
      "outputs": [
        {
          "internalType": "bool",
          "name": "",
          "type": "bool"
        }
      ],
      "stateMutability": "pure",
      "type": "function"
    },
    {
      "inputs": [
        {
          "internalType": "address",
          "name": "account",
          "type": "address"
        },
        {
          "internalType": "address",
          "name": "operator",
          "type": "address"
        }
      ],
      "name": "isApprovedForAll",
      "outputs": [
        {
          "internalType": "bool",
          "name": "",
          "type": "bool"
        }
      ],
      "stateMutability": "view",
      "type": "function"
    },
    {
      "inputs": [],
      "name": "parentFactory",
      "outputs": [
        {
          "internalType": "address",
          "name": "",
          "type": "address"
        }
      ],
      "stateMutability": "view",
      "type": "function"
    },
    {
      "inputs": [
        {
          "internalType": "address",
          "name": "_creator",
          "type": "address"
        },
        {
          "internalType": "address",
          "name": "_buyer",
          "type": "address"
        },
        {
          "internalType": "uint256",
          "name": "_amount",
          "type": "uint256"
        }
      ],
      "name": "royaltiesRecieved",
      "outputs": [],
      "stateMutability": "nonpayable",
      "type": "function"
    },
    {
      "inputs": [],
      "name": "royaltyAmount",
      "outputs": [
        {
          "internalType": "uint256",
          "name": "",
          "type": "uint256"
        }
      ],
      "stateMutability": "view",
      "type": "function"
    },
    {
      "inputs": [],
      "name": "royaltyCreator",
      "outputs": [
        {
          "internalType": "address",
          "name": "",
          "type": "address"
        }
      ],
      "stateMutability": "view",
      "type": "function"
    },
    {
      "inputs": [],
      "name": "royaltyInfo",
      "outputs": [
        {
          "internalType": "uint256",
          "name": "",
          "type": "uint256"
        },
        {
          "internalType": "address",
          "name": "",
          "type": "address"
        }
      ],
      "stateMutability": "view",
      "type": "function"
    },
    {
      "inputs": [
        {
          "internalType": "address",
          "name": "from",
          "type": "address"
        },
        {
          "internalType": "address",
          "name": "to",
          "type": "address"
        },
        {
          "internalType": "uint256[]",
          "name": "ids",
          "type": "uint256[]"
        },
        {
          "internalType": "uint256[]",
          "name": "amounts",
          "type": "uint256[]"
        },
        {
          "internalType": "bytes",
          "name": "data",
          "type": "bytes"
        }
      ],
      "name": "safeBatchTransferFrom",
      "outputs": [],
      "stateMutability": "nonpayable",
      "type": "function"
    },
    {
      "inputs": [
        {
          "internalType": "address",
          "name": "from",
          "type": "address"
        },
        {
          "internalType": "address",
          "name": "to",
          "type": "address"
        },
        {
          "internalType": "uint256",
          "name": "id",
          "type": "uint256"
        },
        {
          "internalType": "uint256",
          "name": "amount",
          "type": "uint256"
        },
        {
          "internalType": "bytes",
          "name": "data",
          "type": "bytes"
        }
      ],
      "name": "safeTransferFrom",
      "outputs": [],
      "stateMutability": "nonpayable",
      "type": "function"
    },
    {
      "inputs": [
        {
          "internalType": "address",
          "name": "operator",
          "type": "address"
        },
        {
          "internalType": "bool",
          "name": "approved",
          "type": "bool"
        }
      ],
      "name": "setApprovalForAll",
      "outputs": [],
      "stateMutability": "nonpayable",
      "type": "function"
    },
    {
      "inputs": [
        {
          "internalType": "bytes4",
          "name": "interfaceId",
          "type": "bytes4"
        }
      ],
      "name": "supportsInterface",
      "outputs": [
        {
          "internalType": "bool",
          "name": "",
          "type": "bool"
        }
      ],
      "stateMutability": "view",
      "type": "function"
    },
    {
      "inputs": [
        {
          "internalType": "uint256",
          "name": "",
          "type": "uint256"
        }
      ],
      "name": "uri",
      "outputs": [
        {
          "internalType": "string",
          "name": "",
          "type": "string"
        }
      ],
      "stateMutability": "view",
      "type": "function"
    },
    {
      "inputs": [
        {
          "internalType": "address",
          "name": "to",
          "type": "address"
        },
        {
          "internalType": "uint256",
          "name": "id",
          "type": "uint256"
        },
        {
          "internalType": "uint256",
          "name": "amount",
          "type": "uint256"
        },
        {
          "internalType": "bytes",
          "name": "data",
          "type": "bytes"
        }
      ],
      "name": "mint",
      "outputs": [],
      "stateMutability": "nonpayable",
      "type": "function"
    },
    {
      "inputs": [
        {
          "internalType": "address",
          "name": "to",
          "type": "address"
        },
        {
          "internalType": "uint256[]",
          "name": "ids",
          "type": "uint256[]"
        },
        {
          "internalType": "uint256[]",
          "name": "amounts",
          "type": "uint256[]"
        },
        {
          "internalType": "bytes",
          "name": "data",
          "type": "bytes"
        }
      ],
      "name": "mintBatch",
      "outputs": [],
      "stateMutability": "nonpayable",
      "type": "function"
    }
  ],
  "bytecode": "0x60806040523480156200001157600080fd5b50604051620023573803806200235783398101604081905262000034916200015f565b818185620000428162000083565b50600391909155600480546001600160a01b039283166001600160a01b031991821617909155600580549590921694169390931790925550620002b2915050565b8051620000989060029060208401906200009c565b5050565b828054620000aa906200025f565b90600052602060002090601f016020900481019282620000ce576000855562000119565b82601f10620000e957805160ff191683800117855562000119565b8280016001018555821562000119579182015b8281111562000119578251825591602001919060010190620000fc565b50620001279291506200012b565b5090565b5b808211156200012757600081556001016200012c565b80516001600160a01b03811681146200015a57600080fd5b919050565b6000806000806080858703121562000175578384fd5b84516001600160401b03808211156200018c578586fd5b818701915087601f830112620001a0578586fd5b815181811115620001b557620001b56200029c565b6040516020601f8301601f1916820181018481118382101715620001dd57620001dd6200029c565b60405282825284830181018b1015620001f4578889fd5b8893505b82841015620002175784840181015182850182015292830192620001f8565b828411156200022857888184840101525b81985062000238818b0162000142565b9750505050505060408501519150620002546060860162000142565b905092959194509250565b6002810460018216806200027457607f821691505b602082108114156200029657634e487b7160e01b600052602260045260246000fd5b50919050565b634e487b7160e01b600052604160045260246000fd5b61209580620002c26000396000f3fe608060405234801561001057600080fd5b50600436106101155760003560e01c8063731133e9116100a25780639d35c161116100715780639d35c1611461023f578063a22cb46514610247578063e985e9c51461025a578063f242432a1461026d578063f5298aca1461028057610115565b8063731133e9146101fc5780637c6e551d1461020f57806384a09c27146102175780639822e8c01461022a57610115565b80632eb2c2d6116100e95780632eb2c2d61461019857806346e80720146101ab5780634e1273f4146101c1578063656605d6146101e15780636b20c454146101e957610115565b8062fdd58e1461011a57806301ffc9a7146101435780630e89341c146101635780631f7fdffa14610183575b600080fd5b61012d6101283660046116ee565b610293565b60405161013a9190611e6e565b60405180910390f35b61015661015136600461185a565b6102ea565b60405161013a9190611a2c565b610176610171366004611899565b610332565b60405161013a9190611a37565b61019661019136600461161f565b6103c6565b005b6101966101a636600461146a565b610412565b6101b3610678565b60405161013a929190611e77565b6101d46101cf36600461179c565b61068b565b60405161013a91906119eb565b6101566107ab565b6101966101f73660046115ae565b6107b1565b61019661020a366004611749565b61080b565b61012d610851565b610196610225366004611510565b610857565b61023261089d565b60405161013a9190611936565b6102326108ac565b6101966102553660046116b4565b6108bb565b610156610268366004611438565b610989565b61019661027b36600461154b565b6109b7565b61019661028e366004611717565b610b4d565b60006001600160a01b0383166102c45760405162461bcd60e51b81526004016102bb90611aef565b60405180910390fd5b506000908152602081815260408083206001600160a01b03949094168352929052205490565b60006001600160e01b03198216636cdb3d1360e11b148061031b57506001600160e01b031982166303a24d0760e21b145b8061032a575061032a82610ba2565b90505b919050565b60606002805461034190611f19565b80601f016020809104026020016040519081016040528092919081815260200182805461036d90611f19565b80156103ba5780601f1061038f576101008083540402835291602001916103ba565b820191906000526020600020905b81548152906001019060200180831161039d57829003601f168201915b50505050509050919050565b6005546001600160a01b03166103da610bbb565b6001600160a01b0316146104005760405162461bcd60e51b81526004016102bb90611bc7565b61040c84848484610bbf565b50505050565b81518351146104335760405162461bcd60e51b81526004016102bb90611de5565b6001600160a01b0384166104595760405162461bcd60e51b81526004016102bb90611c24565b610461610bbb565b6001600160a01b0316856001600160a01b03161480610487575061048785610268610bbb565b6104a35760405162461bcd60e51b81526004016102bb90611c69565b60006104ad610bbb565b90506104bd818787878787610d47565b60005b845181101561060a5760008582815181106104eb57634e487b7160e01b600052603260045260246000fd5b60200260200101519050600085838151811061051757634e487b7160e01b600052603260045260246000fd5b602090810291909101810151600084815280835260408082206001600160a01b038e1683529093529190912054909150818110156105675760405162461bcd60e51b81526004016102bb90611d09565b6105718282611f02565b60008085815260200190815260200160002060008c6001600160a01b03166001600160a01b03168152602001908152602001600020819055508160008085815260200190815260200160002060008b6001600160a01b03166001600160a01b0316815260200190815260200160002060008282546105ef9190611eea565b925050819055505050508061060390611f54565b90506104c0565b50846001600160a01b0316866001600160a01b0316826001600160a01b03167f4a39dc06d4c0dbc64b70af90fd698a233a518aa5d07e595d983b8c0526c8f7fb878760405161065a9291906119fe565b60405180910390a4610670818787878787610d55565b505050505050565b6003546004546001600160a01b03169091565b606081518351146106ae5760405162461bcd60e51b81526004016102bb90611d9c565b6000835167ffffffffffffffff8111156106d857634e487b7160e01b600052604160045260246000fd5b604051908082528060200260200182016040528015610701578160200160208202803683370190505b50905060005b84518110156107a35761076885828151811061073357634e487b7160e01b600052603260045260246000fd5b602002602001015185838151811061075b57634e487b7160e01b600052603260045260246000fd5b6020026020010151610293565b82828151811061078857634e487b7160e01b600052603260045260246000fd5b602090810291909101015261079c81611f54565b9050610707565b509392505050565b60015b90565b6107b9610bbb565b6001600160a01b0316836001600160a01b031614806107df57506107df83610268610bbb565b6107fb5760405162461bcd60e51b81526004016102bb90611b7e565b610806838383610e63565b505050565b6005546001600160a01b031661081f610bbb565b6001600160a01b0316146108455760405162461bcd60e51b81526004016102bb90611bc7565b61040c84848484611021565b60035490565b80826001600160a01b0316846001600160a01b03167f06cb0b9d04d0ac2a93b9b9a93ee6c2511e069efb107c06eee43c85021fbc04ed60405160405180910390a4505050565b6004546001600160a01b031690565b6005546001600160a01b031681565b816001600160a01b03166108cd610bbb565b6001600160a01b031614156108f45760405162461bcd60e51b81526004016102bb90611d53565b8060016000610901610bbb565b6001600160a01b03908116825260208083019390935260409182016000908120918716808252919093529120805460ff191692151592909217909155610945610bbb565b6001600160a01b03167f17307eab39ab6107e8899845ad3d59bd9653f200f220920489ca2b5937696c318360405161097d9190611a2c565b60405180910390a35050565b6001600160a01b03918216600090815260016020908152604080832093909416825291909152205460ff1690565b6001600160a01b0384166109dd5760405162461bcd60e51b81526004016102bb90611c24565b6109e5610bbb565b6001600160a01b0316856001600160a01b03161480610a0b5750610a0b85610268610bbb565b610a275760405162461bcd60e51b81526004016102bb90611b7e565b6000610a31610bbb565b9050610a51818787610a4288611101565b610a4b88611101565b87610d47565b6000848152602081815260408083206001600160a01b038a16845290915290205483811015610a925760405162461bcd60e51b81526004016102bb90611d09565b610a9c8482611f02565b6000868152602081815260408083206001600160a01b038c81168552925280832093909355881681529081208054869290610ad8908490611eea565b92505081905550856001600160a01b0316876001600160a01b0316836001600160a01b03167fc3d58168c5ae7397731d063d5bbf3d657854427343f4c083240f7aacaa2d0f628888604051610b2e929190611e8e565b60405180910390a4610b4482888888888861115a565b50505050505050565b610b55610bbb565b6001600160a01b0316836001600160a01b03161480610b7b5750610b7b83610268610bbb565b610b975760405162461bcd60e51b81526004016102bb90611b7e565b61080683838361122b565b6001600160e01b031981166301ffc9a760e01b14919050565b3390565b6001600160a01b038416610be55760405162461bcd60e51b81526004016102bb90611e2d565b8151835114610c065760405162461bcd60e51b81526004016102bb90611de5565b6000610c10610bbb565b9050610c2181600087878787610d47565b60005b8451811015610cd857838181518110610c4d57634e487b7160e01b600052603260045260246000fd5b6020026020010151600080878481518110610c7857634e487b7160e01b600052603260045260246000fd5b602002602001015181526020019081526020016000206000886001600160a01b03166001600160a01b031681526020019081526020016000206000828254610cc09190611eea565b90915550819050610cd081611f54565b915050610c24565b50846001600160a01b031660006001600160a01b0316826001600160a01b03167f4a39dc06d4c0dbc64b70af90fd698a233a518aa5d07e595d983b8c0526c8f7fb8787604051610d299291906119fe565b60405180910390a4610d4081600087878787610d55565b5050505050565b610670868686868686610670565b610d67846001600160a01b0316611344565b156106705760405163bc197c8160e01b81526001600160a01b0385169063bc197c8190610da0908990899088908890889060040161194a565b602060405180830381600087803b158015610dba57600080fd5b505af1925050508015610dea575060408051601f3d908101601f19168201909252610de79181019061187d565b60015b610e3357610df6611fa1565b80610e015750610e1b565b8060405162461bcd60e51b81526004016102bb9190611a37565b60405162461bcd60e51b81526004016102bb90611a4a565b6001600160e01b0319811663bc197c8160e01b14610b445760405162461bcd60e51b81526004016102bb90611aa7565b6001600160a01b038316610e895760405162461bcd60e51b81526004016102bb90611cc6565b8051825114610eaa5760405162461bcd60e51b81526004016102bb90611de5565b6000610eb4610bbb565b9050610ed481856000868660405180602001604052806000815250610d47565b60005b8351811015610fc2576000848281518110610f0257634e487b7160e01b600052603260045260246000fd5b602002602001015190506000848381518110610f2e57634e487b7160e01b600052603260045260246000fd5b602090810291909101810151600084815280835260408082206001600160a01b038c168352909352919091205490915081811015610f7e5760405162461bcd60e51b81526004016102bb90611b3a565b610f888282611f02565b6000938452602084815260408086206001600160a01b038c1687529091529093209290925550819050610fba81611f54565b915050610ed7565b5060006001600160a01b0316846001600160a01b0316826001600160a01b03167f4a39dc06d4c0dbc64b70af90fd698a233a518aa5d07e595d983b8c0526c8f7fb86866040516110139291906119fe565b60405180910390a450505050565b6001600160a01b0384166110475760405162461bcd60e51b81526004016102bb90611e2d565b6000611051610bbb565b905061106381600087610a4288611101565b6000848152602081815260408083206001600160a01b038916845290915281208054859290611093908490611eea565b92505081905550846001600160a01b031660006001600160a01b0316826001600160a01b03167fc3d58168c5ae7397731d063d5bbf3d657854427343f4c083240f7aacaa2d0f6287876040516110ea929190611e8e565b60405180910390a4610d408160008787878761115a565b6040805160018082528183019092526060916000919060208083019080368337019050509050828160008151811061114957634e487b7160e01b600052603260045260246000fd5b602090810291909101015292915050565b61116c846001600160a01b0316611344565b156106705760405163f23a6e6160e01b81526001600160a01b0385169063f23a6e61906111a590899089908890889088906004016119a8565b602060405180830381600087803b1580156111bf57600080fd5b505af19250505080156111ef575060408051601f3d908101601f191682019092526111ec9181019061187d565b60015b6111fb57610df6611fa1565b6001600160e01b0319811663f23a6e6160e01b14610b445760405162461bcd60e51b81526004016102bb90611aa7565b6001600160a01b0383166112515760405162461bcd60e51b81526004016102bb90611cc6565b600061125b610bbb565b905061128b8185600061126d87611101565b61127687611101565b60405180602001604052806000815250610d47565b6000838152602081815260408083206001600160a01b0388168452909152902054828110156112cc5760405162461bcd60e51b81526004016102bb90611b3a565b6112d68382611f02565b6000858152602081815260408083206001600160a01b03808b16808652919093528184209490945551919291908516907fc3d58168c5ae7397731d063d5bbf3d657854427343f4c083240f7aacaa2d0f62906113359089908990611e8e565b60405180910390a45050505050565b3b151590565b80356001600160a01b038116811461032d57600080fd5b600082601f830112611371578081fd5b8135602061138661138183611ec6565b611e9c565b82815281810190858301838502870184018810156113a2578586fd5b855b858110156113c0578135845292840192908401906001016113a4565b5090979650505050505050565b600082601f8301126113dd578081fd5b813567ffffffffffffffff8111156113f7576113f7611f85565b61140a601f8201601f1916602001611e9c565b81815284602083860101111561141e578283fd5b816020850160208301379081016020019190915292915050565b6000806040838503121561144a578182fd5b6114538361134a565b91506114616020840161134a565b90509250929050565b600080600080600060a08688031215611481578081fd5b61148a8661134a565b94506114986020870161134a565b9350604086013567ffffffffffffffff808211156114b4578283fd5b6114c089838a01611361565b945060608801359150808211156114d5578283fd5b6114e189838a01611361565b935060808801359150808211156114f6578283fd5b50611503888289016113cd565b9150509295509295909350565b600080600060608486031215611524578283fd5b61152d8461134a565b925061153b6020850161134a565b9150604084013590509250925092565b600080600080600060a08688031215611562578081fd5b61156b8661134a565b94506115796020870161134a565b93506040860135925060608601359150608086013567ffffffffffffffff8111156115a2578182fd5b611503888289016113cd565b6000806000606084860312156115c2578283fd5b6115cb8461134a565b9250602084013567ffffffffffffffff808211156115e7578384fd5b6115f387838801611361565b93506040860135915080821115611608578283fd5b5061161586828701611361565b9150509250925092565b60008060008060808587031215611634578384fd5b61163d8561134a565b9350602085013567ffffffffffffffff80821115611659578485fd5b61166588838901611361565b9450604087013591508082111561167a578384fd5b61168688838901611361565b9350606087013591508082111561169b578283fd5b506116a8878288016113cd565b91505092959194509250565b600080604083850312156116c6578182fd5b6116cf8361134a565b9150602083013580151581146116e3578182fd5b809150509250929050565b60008060408385031215611700578182fd5b6117098361134a565b946020939093013593505050565b60008060006060848603121561172b578081fd5b6117348461134a565b95602085013595506040909401359392505050565b6000806000806080858703121561175e578182fd5b6117678561134a565b93506020850135925060408501359150606085013567ffffffffffffffff811115611790578182fd5b6116a8878288016113cd565b600080604083850312156117ae578182fd5b823567ffffffffffffffff808211156117c5578384fd5b818501915085601f8301126117d8578384fd5b813560206117e861138183611ec6565b82815281810190858301838502870184018b1015611804578889fd5b8896505b8487101561182d576118198161134a565b835260019690960195918301918301611808565b5096505086013592505080821115611843578283fd5b5061185085828601611361565b9150509250929050565b60006020828403121561186b578081fd5b813561187681612046565b9392505050565b60006020828403121561188e578081fd5b815161187681612046565b6000602082840312156118aa578081fd5b5035919050565b6000815180845260208085019450808401835b838110156118e0578151875295820195908201906001016118c4565b509495945050505050565b60008151808452815b81811015611910576020818501810151868301820152016118f4565b818111156119215782602083870101525b50601f01601f19169290920160200192915050565b6001600160a01b0391909116815260200190565b60006001600160a01b03808816835280871660208401525060a0604083015261197660a08301866118b1565b828103606084015261198881866118b1565b9050828103608084015261199c81856118eb565b98975050505050505050565b60006001600160a01b03808816835280871660208401525084604083015283606083015260a060808301526119e060a08301846118eb565b979650505050505050565b60006020825261187660208301846118b1565b600060408252611a1160408301856118b1565b8281036020840152611a2381856118b1565b95945050505050565b901515815260200190565b60006020825261187660208301846118eb565b60208082526034908201527f455243313135353a207472616e7366657220746f206e6f6e204552433131353560408201527f526563656976657220696d706c656d656e746572000000000000000000000000606082015260800190565b60208082526028908201527f455243313135353a204552433131353552656365697665722072656a656374656040820152676420746f6b656e7360c01b606082015260800190565b6020808252602b908201527f455243313135353a2062616c616e636520717565727920666f7220746865207a60408201526a65726f206164647265737360a81b606082015260800190565b60208082526024908201527f455243313135353a206275726e20616d6f756e7420657863656564732062616c604082015263616e636560e01b606082015260800190565b60208082526029908201527f455243313135353a2063616c6c6572206973206e6f74206f776e6572206e6f7260408201526808185c1c1c9bdd995960ba1b606082015260800190565b6020808252603a908201527f5052495649506f6445524331313535546f6b656e3a204f6e6c7920466163746f60408201527f72792063616e2063616c6c20746869732066756e6374696f6e2e000000000000606082015260800190565b60208082526025908201527f455243313135353a207472616e7366657220746f20746865207a65726f206164604082015264647265737360d81b606082015260800190565b60208082526032908201527f455243313135353a207472616e736665722063616c6c6572206973206e6f742060408201527f6f776e6572206e6f7220617070726f7665640000000000000000000000000000606082015260800190565b60208082526023908201527f455243313135353a206275726e2066726f6d20746865207a65726f206164647260408201526265737360e81b606082015260800190565b6020808252602a908201527f455243313135353a20696e73756666696369656e742062616c616e636520666f60408201526939103a3930b739b332b960b11b606082015260800190565b60208082526029908201527f455243313135353a2073657474696e6720617070726f76616c20737461747573604082015268103337b91039b2b63360b91b606082015260800190565b60208082526029908201527f455243313135353a206163636f756e747320616e6420696473206c656e677468604082015268040dad2e6dac2e8c6d60bb1b606082015260800190565b60208082526028908201527f455243313135353a2069647320616e6420616d6f756e7473206c656e677468206040820152670dad2e6dac2e8c6d60c31b606082015260800190565b60208082526021908201527f455243313135353a206d696e7420746f20746865207a65726f206164647265736040820152607360f81b606082015260800190565b90815260200190565b9182526001600160a01b0316602082015260400190565b918252602082015260400190565b60405181810167ffffffffffffffff81118282101715611ebe57611ebe611f85565b604052919050565b600067ffffffffffffffff821115611ee057611ee0611f85565b5060209081020190565b60008219821115611efd57611efd611f6f565b500190565b600082821015611f1457611f14611f6f565b500390565b600281046001821680611f2d57607f821691505b60208210811415611f4e57634e487b7160e01b600052602260045260246000fd5b50919050565b6000600019821415611f6857611f68611f6f565b5060010190565b634e487b7160e01b600052601160045260246000fd5b634e487b7160e01b600052604160045260246000fd5b60e01c90565b600060443d1015611fb1576107ae565b600481823e6308c379a0611fc58251611f9b565b14611fcf576107ae565b6040513d600319016004823e80513d67ffffffffffffffff8160248401118184111715611fff57505050506107ae565b8284019250825191508082111561201957505050506107ae565b503d83016020828401011115612031575050506107ae565b601f01601f1916810160200160405291505090565b6001600160e01b03198116811461205c57600080fd5b5056fea2646970667358221220e732218aa562c15ed2340ae1ca1b9ca725a8418fde2073e6e94e6aca24e66e6b64736f6c63430008000033",
  "immutableReferences": {},
  "source": "// SPDX-License-Identifier: MIT\n\npragma solidity ^0.8.0;\n\nimport \"@openzeppelin/contracts/access/AccessControl.sol\";\nimport \"@openzeppelin/contracts/utils/Context.sol\";\nimport \"@openzeppelin/contracts/token/ERC1155/ERC1155.sol\";\nimport \"@openzeppelin/contracts/token/ERC1155/extensions/ERC1155Burnable.sol\";\nimport \"../abstracts/NFTRoyalty.sol\";\n\n/**\n * @dev {ERC1155} token, including:\n *\n *  - ability for holders to burn (destroy) their tokens\n *  - a factoryOnly modifier, that grants mint capabilities only to factory who deployed theis pod token contract\n */\ncontract PRIVIPodERC1155TokenRoyalty is Context, ERC1155Burnable, NFTRoyalty {\n  address public parentFactory;\n\n  /**\n   * @dev Sets factory address\n   * deploys the contract.\n   */\n  constructor(string memory uri, address factory, uint256 royaltyAmount, address creator) ERC1155(uri) NFTRoyalty(royaltyAmount, creator) {\n    parentFactory = factory;\n  }\n\n  modifier onlyFactory() {\n    require(\n      _msgSender() == parentFactory,\n      \"PRIVIPodERC1155Token: Only Factory can call this function.\"\n    );\n    _;\n  }\n\n  /**\n   * @dev Creates `amount` new tokens for `to`, of token type `id`.\n   *\n   * See {ERC1155-_mint}.\n   *\n   * Requirements:\n   *\n   * - tthe caller must be factory only.\n   */\n  function mint(\n    address to,\n    uint256 id,\n    uint256 amount,\n    bytes memory data\n  ) public virtual onlyFactory {\n    _mint(to, id, amount, data);\n  }\n\n  /**\n   * @dev Creates `amount` new tokens for `to`, of token type `id`.\n   *\n   * See {ERC1155-_mint}.\n   *\n   * Requirements:\n   *\n   * - tthe caller must be factory only.\n   */\n  function mintBatch(\n    address to,\n    uint256[] memory ids,\n    uint256[] memory amounts,\n    bytes memory data\n  ) public virtual onlyFactory {\n    _mintBatch(to, ids, amounts, data);\n  }\n\n  function _beforeTokenTransfer(\n    address operator,\n    address from,\n    address to,\n    uint256[] memory ids,\n    uint256[] memory amounts,\n    bytes memory data\n  ) internal virtual override(ERC1155) {\n    super._beforeTokenTransfer(operator, from, to, ids, amounts, data);\n  }\n}\n",
  "sourcePath": "/home/rekard0/Documents/WORK/PriviEthereum/PRIVIethereum/contracts/token/PRIVIPodERC1155TokenRoyalty.sol",
  "compiler": {
    "name": "solc",
    "version": "0.8.0+commit.c7dfd78e.Emscripten.clang"
  },
  "schemaVersion": "3.3.3",
  "updatedAt": "2021-03-19T09:16:11.361Z",
  "devdoc": {
    "details": "{ERC1155} token, including:  - ability for holders to burn (destroy) their tokens  - a factoryOnly modifier, that grants mint capabilities only to factory who deployed theis pod token contract",
    "kind": "dev",
    "methods": {
      "balanceOf(address,uint256)": {
        "details": "See {IERC1155-balanceOf}. Requirements: - `account` cannot be the zero address."
      },
      "balanceOfBatch(address[],uint256[])": {
        "details": "See {IERC1155-balanceOfBatch}. Requirements: - `accounts` and `ids` must have the same length."
      },
      "constructor": {
        "details": "Sets factory address deploys the contract."
      },
      "isApprovedForAll(address,address)": {
        "details": "See {IERC1155-isApprovedForAll}."
      },
      "mint(address,uint256,uint256,bytes)": {
        "details": "Creates `amount` new tokens for `to`, of token type `id`. See {ERC1155-_mint}. Requirements: - tthe caller must be factory only."
      },
      "mintBatch(address,uint256[],uint256[],bytes)": {
        "details": "Creates `amount` new tokens for `to`, of token type `id`. See {ERC1155-_mint}. Requirements: - tthe caller must be factory only."
      },
      "safeBatchTransferFrom(address,address,uint256[],uint256[],bytes)": {
        "details": "See {IERC1155-safeBatchTransferFrom}."
      },
      "safeTransferFrom(address,address,uint256,uint256,bytes)": {
        "details": "See {IERC1155-safeTransferFrom}."
      },
      "setApprovalForAll(address,bool)": {
        "details": "See {IERC1155-setApprovalForAll}."
      },
      "supportsInterface(bytes4)": {
        "details": "See {IERC165-supportsInterface}."
      },
      "uri(uint256)": {
        "details": "See {IERC1155MetadataURI-uri}. This implementation returns the same URI for *all* token types. It relies on the token type ID substitution mechanism https://eips.ethereum.org/EIPS/eip-1155#metadata[defined in the EIP]. Clients calling this function must replace the `\\{id\\}` substring with the actual token type ID."
      }
    },
    "version": 1
  },
  "userdoc": {
    "events": {
      "RecievedRoyalties(address,address,uint256)": {
        "notice": "(Mandatory) This event is emitted when royalties are transfered."
      }
    },
    "kind": "user",
    "methods": {
      "hasRoyalties()": {
        "notice": "(optional) check if NFT has royalty"
      },
      "royaltiesRecieved(address,address,uint256)": {
        "notice": "(optional) check if NFT has royalty"
      },
      "royaltyAmount()": {
        "notice": "(optional) get royalty amount"
      },
      "royaltyCreator()": {
        "notice": "(optional) get royalty creator address"
      },
      "royaltyInfo()": {
        "notice": "(Mandatory) This Function retrieve royalty info."
      }
    },
    "version": 1
  }
}