{
  "contractName": "PRIVIPodERC20Factory",
  "abi": [
    {
      "inputs": [
        {
          "internalType": "address",
          "name": "bridgeAddress",
          "type": "address"
        }
      ],
      "stateMutability": "nonpayable",
      "type": "constructor"
    },
    {
      "anonymous": false,
      "inputs": [
        {
          "indexed": true,
          "internalType": "string",
          "name": "podId",
          "type": "string"
        },
        {
          "indexed": false,
          "internalType": "string",
          "name": "podTokenName",
          "type": "string"
        },
        {
          "indexed": false,
          "internalType": "string",
          "name": "podTokenSymbol",
          "type": "string"
        }
      ],
      "name": "PodCreated",
      "type": "event"
    },
    {
      "anonymous": false,
      "inputs": [
        {
          "indexed": true,
          "internalType": "bytes32",
          "name": "role",
          "type": "bytes32"
        },
        {
          "indexed": true,
          "internalType": "bytes32",
          "name": "previousAdminRole",
          "type": "bytes32"
        },
        {
          "indexed": true,
          "internalType": "bytes32",
          "name": "newAdminRole",
          "type": "bytes32"
        }
      ],
      "name": "RoleAdminChanged",
      "type": "event"
    },
    {
      "anonymous": false,
      "inputs": [
        {
          "indexed": true,
          "internalType": "bytes32",
          "name": "role",
          "type": "bytes32"
        },
        {
          "indexed": true,
          "internalType": "address",
          "name": "account",
          "type": "address"
        },
        {
          "indexed": true,
          "internalType": "address",
          "name": "sender",
          "type": "address"
        }
      ],
      "name": "RoleGranted",
      "type": "event"
    },
    {
      "anonymous": false,
      "inputs": [
        {
          "indexed": true,
          "internalType": "bytes32",
          "name": "role",
          "type": "bytes32"
        },
        {
          "indexed": true,
          "internalType": "address",
          "name": "account",
          "type": "address"
        },
        {
          "indexed": true,
          "internalType": "address",
          "name": "sender",
          "type": "address"
        }
      ],
      "name": "RoleRevoked",
      "type": "event"
    },
    {
      "inputs": [],
      "name": "DEFAULT_ADMIN_ROLE",
      "outputs": [
        {
          "internalType": "bytes32",
          "name": "",
          "type": "bytes32"
        }
      ],
      "stateMutability": "view",
      "type": "function"
    },
    {
      "inputs": [],
      "name": "MODERATOR_ROLE",
      "outputs": [
        {
          "internalType": "bytes32",
          "name": "",
          "type": "bytes32"
        }
      ],
      "stateMutability": "view",
      "type": "function"
    },
    {
      "inputs": [],
      "name": "bridgeManagerAddress",
      "outputs": [
        {
          "internalType": "address",
          "name": "",
          "type": "address"
        }
      ],
      "stateMutability": "view",
      "type": "function"
    },
    {
      "inputs": [
        {
          "internalType": "bytes32",
          "name": "role",
          "type": "bytes32"
        }
      ],
      "name": "getRoleAdmin",
      "outputs": [
        {
          "internalType": "bytes32",
          "name": "",
          "type": "bytes32"
        }
      ],
      "stateMutability": "view",
      "type": "function"
    },
    {
      "inputs": [
        {
          "internalType": "bytes32",
          "name": "role",
          "type": "bytes32"
        },
        {
          "internalType": "address",
          "name": "account",
          "type": "address"
        }
      ],
      "name": "grantRole",
      "outputs": [],
      "stateMutability": "nonpayable",
      "type": "function"
    },
    {
      "inputs": [
        {
          "internalType": "bytes32",
          "name": "role",
          "type": "bytes32"
        },
        {
          "internalType": "address",
          "name": "account",
          "type": "address"
        }
      ],
      "name": "hasRole",
      "outputs": [
        {
          "internalType": "bool",
          "name": "",
          "type": "bool"
        }
      ],
      "stateMutability": "view",
      "type": "function"
    },
    {
      "inputs": [
        {
          "internalType": "bytes32",
          "name": "role",
          "type": "bytes32"
        },
        {
          "internalType": "address",
          "name": "account",
          "type": "address"
        }
      ],
      "name": "renounceRole",
      "outputs": [],
      "stateMutability": "nonpayable",
      "type": "function"
    },
    {
      "inputs": [
        {
          "internalType": "bytes32",
          "name": "role",
          "type": "bytes32"
        },
        {
          "internalType": "address",
          "name": "account",
          "type": "address"
        }
      ],
      "name": "revokeRole",
      "outputs": [],
      "stateMutability": "nonpayable",
      "type": "function"
    },
    {
      "inputs": [
        {
          "internalType": "bytes4",
          "name": "interfaceId",
          "type": "bytes4"
        }
      ],
      "name": "supportsInterface",
      "outputs": [
        {
          "internalType": "bool",
          "name": "",
          "type": "bool"
        }
      ],
      "stateMutability": "view",
      "type": "function"
    },
    {
      "inputs": [
        {
          "internalType": "address",
          "name": "swapManagerAddress",
          "type": "address"
        }
      ],
      "name": "assignRoleSwapManager",
      "outputs": [],
      "stateMutability": "nonpayable",
      "type": "function"
    },
    {
      "inputs": [],
      "name": "getTotalTokenCreated",
      "outputs": [
        {
          "internalType": "uint256",
          "name": "totalPods",
          "type": "uint256"
        }
      ],
      "stateMutability": "view",
      "type": "function"
    },
    {
      "inputs": [
        {
          "internalType": "string",
          "name": "podId",
          "type": "string"
        }
      ],
      "name": "getPodAddressById",
      "outputs": [
        {
          "internalType": "address",
          "name": "podAddress",
          "type": "address"
        }
      ],
      "stateMutability": "view",
      "type": "function"
    },
    {
      "inputs": [
        {
          "internalType": "string",
          "name": "tokenSymbol",
          "type": "string"
        }
      ],
      "name": "getPodAddressBySymbol",
      "outputs": [
        {
          "internalType": "address",
          "name": "podAddress",
          "type": "address"
        }
      ],
      "stateMutability": "view",
      "type": "function"
    },
    {
      "inputs": [
        {
          "internalType": "string",
          "name": "podId",
          "type": "string"
        },
        {
          "internalType": "string",
          "name": "podTokenName",
          "type": "string"
        },
        {
          "internalType": "string",
          "name": "podTokenSymbol",
          "type": "string"
        }
      ],
      "name": "createPod",
      "outputs": [
        {
          "internalType": "address",
          "name": "podAddress",
          "type": "address"
        }
      ],
      "stateMutability": "nonpayable",
      "type": "function"
    },
    {
      "inputs": [
        {
          "internalType": "string",
          "name": "podId",
          "type": "string"
        },
        {
          "internalType": "address",
          "name": "account",
          "type": "address"
        },
        {
          "internalType": "uint256",
          "name": "investAmount",
          "type": "uint256"
        }
      ],
      "name": "mintPodTokenById",
      "outputs": [],
      "stateMutability": "nonpayable",
      "type": "function"
    },
    {
      "inputs": [
        {
          "internalType": "string",
          "name": "tokenSymbol",
          "type": "string"
        },
        {
          "internalType": "address",
          "name": "account",
          "type": "address"
        },
        {
          "internalType": "uint256",
          "name": "investAmount",
          "type": "uint256"
        }
      ],
      "name": "mintPodTokenBySymbol",
      "outputs": [],
      "stateMutability": "nonpayable",
      "type": "function"
    }
  ],
  "bytecode": "0x60806040523480156200001157600080fd5b506040516200241338038062002413833981016040819052620000349162000166565b6200004a6000620000446200009f565b620000a3565b620000797f71f3d55856e4058ed06ee057d79ada615f65cdf5f9ee88181b914225088f834f620000446200009f565b600180546001600160a01b0319166001600160a01b039290921691909117905562000196565b3390565b620000af8282620000b3565b5050565b620000bf82826200013d565b620000af576000828152602081815260408083206001600160a01b03851684529091529020805460ff19166001179055620000f96200009f565b6001600160a01b0316816001600160a01b0316837f2f8788117e7eff1d82e926ec794901d17c78024a50270940304540a733656f0d60405160405180910390a45050565b6000918252602082815260408084206001600160a01b0393909316845291905290205460ff1690565b60006020828403121562000178578081fd5b81516001600160a01b03811681146200018f578182fd5b9392505050565b61226d80620001a66000396000f3fe60806040523480156200001157600080fd5b5060043610620001185760003560e01c8063532d9c4411620000a5578063a217fddf116200006f578063a217fddf146200024f578063b176d4ba1462000259578063d547741f1462000270578063e792b19414620002875762000118565b8063532d9c441462000200578063797669c914620002175780638d1909ed146200022157806391d1485414620002385762000118565b80632f2ff15d11620000e75780632f2ff15d14620001a25780633325a4e414620001bb57806336568abe14620001d2578063416aad1e14620001e95762000118565b806301ffc9a7146200011d5780630fc09e2e146200014c57806322b2edeb1462000165578063248a9ca3146200018b575b600080fd5b620001346200012e36600462000b1a565b62000291565b60405162000143919062000cef565b60405180910390f35b62000156620002c1565b60405162000143919062000cfa565b6200017c6200017636600462000b44565b620002c7565b60405162000143919062000cc2565b620001566200019c36600462000ad3565b620002fd565b620001b9620001b336600462000aec565b62000312565b005b6200017c620001cc36600462000b44565b62000363565b620001b9620001e336600462000aec565b62000379565b6200017c620001fa36600462000be8565b620003c2565b620001b96200021136600462000b88565b62000632565b6200015662000756565b620001b96200023236600462000aaf565b6200077a565b620001346200024936600462000aec565b620007f7565b6200015662000820565b620001b96200026a36600462000b88565b62000825565b620001b96200028136600462000aec565b620008d3565b6200017c62000901565b60006001600160e01b03198216637965db0b60e01b1480620002b95750620002b98262000910565b90505b919050565b60025490565b600060038383604051620002dd92919062000cb2565b908152604051908190036020019020546001600160a01b03169392505050565b60009081526020819052604090206001015490565b6200032b6200032183620002fd565b6200024962000929565b620003535760405162461bcd60e51b81526004016200034a9062000d80565b60405180910390fd5b6200035f82826200092d565b5050565b600060048383604051620002dd92919062000cb2565b6200038362000929565b6001600160a01b0316816001600160a01b031614620003b65760405162461bcd60e51b81526004016200034a9062001079565b6200035f8282620009b7565b6000806001600160a01b031660038888604051620003e292919062000cb2565b908152604051908190036020019020546001600160a01b0316146200041b5760405162461bcd60e51b81526004016200034a9062000fc3565b60006001600160a01b0316600484846040516200043a92919062000cb2565b908152604051908190036020019020546001600160a01b031614620004735760405162461bcd60e51b81526004016200034a9062000f09565b60008585858530604051620004889062000a3f565b6200049895949392919062000d39565b604051809103906000f080158015620004b5573d6000803e3d6000fd5b509050809150600160026000828254620004d09190620010d6565b925050819055508160038989604051620004ec92919062000cb2565b908152602001604051809103902060006101000a8154816001600160a01b0302191690836001600160a01b0316021790555081600485856040516200053392919062000cb2565b90815260405190819003602001812080546001600160a01b0393841673ffffffffffffffffffffffffffffffffffffffff1990911617905560015463374b216760e21b82529091169063dd2c859c906200059a908990899089908990899060040162000d39565b600060405180830381600087803b158015620005b557600080fd5b505af1158015620005ca573d6000803e3d6000fd5b505050508787604051620005e092919062000cb2565b60405180910390207fc0512f6474c9ee949f1cbdc88e43ca774f79b5f1f07d8484696e1cf1a0bd87ce878787876040516200061f949392919062000d03565b60405180910390a2509695505050505050565b620006617f71f3d55856e4058ed06ee057d79ada615f65cdf5f9ee88181b914225088f834f6200024962000929565b620006805760405162461bcd60e51b81526004016200034a906200100e565b6001600160a01b038216620006a95760405162461bcd60e51b81526004016200034a9062000f66565b60008111620006cc5760405162461bcd60e51b81526004016200034a9062000ddd565b60038484604051620006e092919062000cb2565b908152604051908190036020018120546340c10f1960e01b82526001600160a01b0316906340c10f19906200071c908590859060040162000cd6565b600060405180830381600087803b1580156200073757600080fd5b505af11580156200074c573d6000803e3d6000fd5b5050505050505050565b7f71f3d55856e4058ed06ee057d79ada615f65cdf5f9ee88181b914225088f834f81565b620007a97f71f3d55856e4058ed06ee057d79ada615f65cdf5f9ee88181b914225088f834f6200024962000929565b620007c85760405162461bcd60e51b81526004016200034a9062000e97565b620007f47f71f3d55856e4058ed06ee057d79ada615f65cdf5f9ee88181b914225088f834f8262000353565b50565b6000918252602082815260408084206001600160a01b0393909316845291905290205460ff1690565b600081565b620008547f71f3d55856e4058ed06ee057d79ada615f65cdf5f9ee88181b914225088f834f6200024962000929565b620008735760405162461bcd60e51b81526004016200034a906200100e565b6001600160a01b0382166200089c5760405162461bcd60e51b81526004016200034a9062000f66565b60008111620008bf5760405162461bcd60e51b81526004016200034a9062000ddd565b60048484604051620006e092919062000cb2565b620008e26200032183620002fd565b620003b65760405162461bcd60e51b81526004016200034a9062000e3a565b6001546001600160a01b031681565b6001600160e01b031981166301ffc9a760e01b14919050565b3390565b620009398282620007f7565b6200035f576000828152602081815260408083206001600160a01b03851684529091529020805460ff191660011790556200097362000929565b6001600160a01b0316816001600160a01b0316837f2f8788117e7eff1d82e926ec794901d17c78024a50270940304540a733656f0d60405160405180910390a45050565b620009c38282620007f7565b156200035f576000828152602081815260408083206001600160a01b03851684529091529020805460ff19169055620009fb62000929565b6001600160a01b0316816001600160a01b0316837ff6391f5c32d9c69d2a47ea670b442974b53935d1edc7fd64eb21e047a839171b60405160405180910390a45050565b61113c80620010fc83390190565b80356001600160a01b0381168114620002bc57600080fd5b60008083601f84011262000a77578182fd5b50813567ffffffffffffffff81111562000a8f578182fd5b60208301915083602082850101111562000aa857600080fd5b9250929050565b60006020828403121562000ac1578081fd5b62000acc8262000a4d565b9392505050565b60006020828403121562000ae5578081fd5b5035919050565b6000806040838503121562000aff578081fd5b8235915062000b116020840162000a4d565b90509250929050565b60006020828403121562000b2c578081fd5b81356001600160e01b03198116811462000acc578182fd5b6000806020838503121562000b57578182fd5b823567ffffffffffffffff81111562000b6e578283fd5b62000b7c8582860162000a65565b90969095509350505050565b6000806000806060858703121562000b9e578182fd5b843567ffffffffffffffff81111562000bb5578283fd5b62000bc38782880162000a65565b909550935062000bd890506020860162000a4d565b9396929550929360400135925050565b6000806000806000806060878903121562000c01578182fd5b863567ffffffffffffffff8082111562000c19578384fd5b62000c278a838b0162000a65565b9098509650602089013591508082111562000c40578384fd5b62000c4e8a838b0162000a65565b9096509450604089013591508082111562000c67578384fd5b5062000c7689828a0162000a65565b979a9699509497509295939492505050565b60008284528282602086013780602084860101526020601f19601f85011685010190509392505050565b6000828483379101908152919050565b6001600160a01b0391909116815260200190565b6001600160a01b03929092168252602082015260400190565b901515815260200190565b90815260200190565b60006040825262000d1960408301868862000c88565b828103602084015262000d2e81858762000c88565b979650505050505050565b60006060825262000d4f60608301878962000c88565b828103602084015262000d6481868862000c88565b9150506001600160a01b03831660408301529695505050505050565b6020808252602f908201527f416363657373436f6e74726f6c3a2073656e646572206d75737420626520616e60408201527f2061646d696e20746f206772616e740000000000000000000000000000000000606082015260800190565b60208082526035908201527f5052495649506f644552433230466163746f72793a20696e76657374416d6f7560408201527f6e742073686f756c64206e6f74206265207a65726f0000000000000000000000606082015260800190565b60208082526030908201527f416363657373436f6e74726f6c3a2073656e646572206d75737420626520616e60408201527f2061646d696e20746f207265766f6b6500000000000000000000000000000000606082015260800190565b6020808252604c908201527f5052495649506f644552433230466163746f72793a206d75737420686176652060408201527f4d4f44455241544f525f524f4c4520746f2061737369676e20537761704d616e60608201526b61676572206164647265737360a01b608082015260a00190565b6020808252602f908201527f5052495649506f644552433230466163746f72793a20506f642073796d626f6c60408201527f20616c7265616479206578697374730000000000000000000000000000000000606082015260800190565b60208082526038908201527f5052495649506f644552433230466163746f72793a204163636f756e7420616460408201527f64726573732073686f756c64206e6f74206265207a65726f0000000000000000606082015260800190565b6020808252602b908201527f5052495649506f644552433230466163746f72793a20506f6420696420616c7260408201526a656164792065786973747360a81b606082015260800190565b60208082526045908201527f5052495649506f644552433230466163746f72793a206d75737420686176652060408201527f4d4f44455241544f525f524f4c4520746f20696e7665737420666f7220696e7660608201526432b9ba37b960d91b608082015260a00190565b6020808252602f908201527f416363657373436f6e74726f6c3a2063616e206f6e6c792072656e6f756e636560408201527f20726f6c657320666f722073656c660000000000000000000000000000000000606082015260800190565b60008219821115620010f657634e487b7160e01b81526011600452602481fd5b50019056fe60806040523480156200001157600080fd5b506040516200113c3803806200113c8339810160408190526200003491620001e1565b8251839083906200004d90600390602085019062000090565b5080516200006390600490602084019062000090565b5050600580546001600160a01b0319166001600160a01b03939093169290921790915550620002bd915050565b8280546200009e906200026a565b90600052602060002090601f016020900481019282620000c257600085556200010d565b82601f10620000dd57805160ff19168380011785556200010d565b828001600101855582156200010d579182015b828111156200010d578251825591602001919060010190620000f0565b506200011b9291506200011f565b5090565b5b808211156200011b576000815560010162000120565b600082601f83011262000147578081fd5b81516001600160401b0380821115620001645762000164620002a7565b6040516020601f8401601f19168201810183811183821017156200018c576200018c620002a7565b6040528382528584018101871015620001a3578485fd5b8492505b83831015620001c65785830181015182840182015291820191620001a7565b83831115620001d757848185840101525b5095945050505050565b600080600060608486031215620001f6578283fd5b83516001600160401b03808211156200020d578485fd5b6200021b8783880162000136565b9450602086015191508082111562000231578384fd5b50620002408682870162000136565b604086015190935090506001600160a01b03811681146200025f578182fd5b809150509250925092565b6002810460018216806200027f57607f821691505b60208210811415620002a157634e487b7160e01b600052602260045260246000fd5b50919050565b634e487b7160e01b600052604160045260246000fd5b610e6f80620002cd6000396000f3fe608060405234801561001057600080fd5b50600436106100f55760003560e01c806342966c68116100975780639d35c161116100665780639d35c161146101de578063a457c2d7146101f3578063a9059cbb14610206578063dd62ed3e14610219576100f5565b806342966c681461019d57806370a08231146101b057806379cc6790146101c357806395d89b41146101d6576100f5565b806323b872dd116100d357806323b872dd1461014d578063313ce56714610160578063395093511461017557806340c10f1914610188576100f5565b806306fdde03146100fa578063095ea7b31461011857806318160ddd14610138575b600080fd5b61010261022c565b60405161010f9190610a13565b60405180910390f35b61012b6101263660046109b3565b6102be565b60405161010f9190610a08565b6101406102db565b60405161010f9190610da2565b61012b61015b366004610978565b6102e1565b610168610381565b60405161010f9190610dab565b61012b6101833660046109b3565b610386565b61019b6101963660046109b3565b6103d5565b005b61019b6101ab3660046109dc565b61041d565b6101406101be366004610925565b610431565b61019b6101d13660046109b3565b610450565b6101026104a5565b6101e66104b4565b60405161010f91906109f4565b61012b6102013660046109b3565b6104c3565b61012b6102143660046109b3565b61053e565b610140610227366004610946565b610552565b60606003805461023b90610de8565b80601f016020809104026020016040519081016040528092919081815260200182805461026790610de8565b80156102b45780601f10610289576101008083540402835291602001916102b4565b820191906000526020600020905b81548152906001019060200180831161029757829003601f168201915b5050505050905090565b60006102d26102cb61057d565b8484610581565b50600192915050565b60025490565b60006102ee848484610635565b6001600160a01b03841660009081526001602052604081208161030f61057d565b6001600160a01b03166001600160a01b031681526020019081526020016000205490508281101561035b5760405162461bcd60e51b815260040161035290610b73565b60405180910390fd5b6103768561036761057d565b6103718685610dd1565b610581565b506001949350505050565b601290565b60006102d261039361057d565b8484600160006103a161057d565b6001600160a01b03908116825260208083019390935260409182016000908120918b16815292529020546103719190610db9565b6005546001600160a01b03166103e961057d565b6001600160a01b03161461040f5760405162461bcd60e51b815260040161035290610d45565b610419828261075d565b5050565b61042e61042861057d565b8261081d565b50565b6001600160a01b0381166000908152602081905260409020545b919050565b600061045e8361022761057d565b9050818110156104805760405162461bcd60e51b815260040161035290610bbb565b6104968361048c61057d565b6103718585610dd1565b6104a0838361081d565b505050565b60606004805461023b90610de8565b6005546001600160a01b031681565b600080600160006104d261057d565b6001600160a01b039081168252602080830193909352604091820160009081209188168152925290205490508281101561051e5760405162461bcd60e51b815260040161035290610cc9565b61053461052961057d565b856103718685610dd1565b5060019392505050565b60006102d261054b61057d565b8484610635565b6001600160a01b03918216600090815260016020908152604080832093909416825291909152205490565b3390565b6001600160a01b0383166105a75760405162461bcd60e51b815260040161035290610c85565b6001600160a01b0382166105cd5760405162461bcd60e51b815260040161035290610aeb565b6001600160a01b0380841660008181526001602090815260408083209487168084529490915290819020849055517f8c5be1e5ebec7d5bd14f71427d1e84f3dd0314c0f7b2291e5b200ac8c7c3b92590610628908590610da2565b60405180910390a3505050565b6001600160a01b03831661065b5760405162461bcd60e51b815260040161035290610c40565b6001600160a01b0382166106815760405162461bcd60e51b815260040161035290610a66565b61068c838383610903565b6001600160a01b038316600090815260208190526040902054818110156106c55760405162461bcd60e51b815260040161035290610b2d565b6106cf8282610dd1565b6001600160a01b038086166000908152602081905260408082209390935590851681529081208054849290610705908490610db9565b92505081905550826001600160a01b0316846001600160a01b03167fddf252ad1be2c89b69c2b068fc378daa952ba7f163c4a11628f55a4df523b3ef8460405161074f9190610da2565b60405180910390a350505050565b6001600160a01b0382166107835760405162461bcd60e51b815260040161035290610d0e565b61078f60008383610903565b80600260008282546107a19190610db9565b90915550506001600160a01b038216600090815260208190526040812080548392906107ce908490610db9565b90915550506040516001600160a01b038316906000907fddf252ad1be2c89b69c2b068fc378daa952ba7f163c4a11628f55a4df523b3ef90610811908590610da2565b60405180910390a35050565b6001600160a01b0382166108435760405162461bcd60e51b815260040161035290610bff565b61084f82600083610903565b6001600160a01b038216600090815260208190526040902054818110156108885760405162461bcd60e51b815260040161035290610aa9565b6108928282610dd1565b6001600160a01b038416600090815260208190526040812091909155600280548492906108c0908490610dd1565b90915550506040516000906001600160a01b038516907fddf252ad1be2c89b69c2b068fc378daa952ba7f163c4a11628f55a4df523b3ef90610628908690610da2565b6104a08383836104a0565b80356001600160a01b038116811461044b57600080fd5b600060208284031215610936578081fd5b61093f8261090e565b9392505050565b60008060408385031215610958578081fd5b6109618361090e565b915061096f6020840161090e565b90509250929050565b60008060006060848603121561098c578081fd5b6109958461090e565b92506109a36020850161090e565b9150604084013590509250925092565b600080604083850312156109c5578182fd5b6109ce8361090e565b946020939093013593505050565b6000602082840312156109ed578081fd5b5035919050565b6001600160a01b0391909116815260200190565b901515815260200190565b6000602080835283518082850152825b81811015610a3f57858101830151858201604001528201610a23565b81811115610a505783604083870101525b50601f01601f1916929092016040019392505050565b60208082526023908201527f45524332303a207472616e7366657220746f20746865207a65726f206164647260408201526265737360e81b606082015260800190565b60208082526022908201527f45524332303a206275726e20616d6f756e7420657863656564732062616c616e604082015261636560f01b606082015260800190565b60208082526022908201527f45524332303a20617070726f766520746f20746865207a65726f206164647265604082015261737360f01b606082015260800190565b60208082526026908201527f45524332303a207472616e7366657220616d6f756e7420657863656564732062604082015265616c616e636560d01b606082015260800190565b60208082526028908201527f45524332303a207472616e7366657220616d6f756e74206578636565647320616040820152676c6c6f77616e636560c01b606082015260800190565b60208082526024908201527f45524332303a206275726e20616d6f756e74206578636565647320616c6c6f77604082015263616e636560e01b606082015260800190565b60208082526021908201527f45524332303a206275726e2066726f6d20746865207a65726f206164647265736040820152607360f81b606082015260800190565b60208082526025908201527f45524332303a207472616e736665722066726f6d20746865207a65726f206164604082015264647265737360d81b606082015260800190565b60208082526024908201527f45524332303a20617070726f76652066726f6d20746865207a65726f206164646040820152637265737360e01b606082015260800190565b60208082526025908201527f45524332303a2064656372656173656420616c6c6f77616e63652062656c6f77604082015264207a65726f60d81b606082015260800190565b6020808252601f908201527f45524332303a206d696e7420746f20746865207a65726f206164647265737300604082015260600190565b60208082526038908201527f5052495649506f644552433230546f6b656e3a204f6e6c7920466163746f727960408201527f2063616e2063616c6c20746869732066756e6374696f6e2e0000000000000000606082015260800190565b90815260200190565b60ff91909116815260200190565b60008219821115610dcc57610dcc610e23565b500190565b600082821015610de357610de3610e23565b500390565b600281046001821680610dfc57607f821691505b60208210811415610e1d57634e487b7160e01b600052602260045260246000fd5b50919050565b634e487b7160e01b600052601160045260246000fdfea26469706673582212200bd1098bf42a55201ea533ddaca5f4447bed470eb5f8186522ed5b06a6940dd664736f6c63430008000033a2646970667358221220cc0acf4516399d1fa92358876da8e418b687b322dff2dfd4b9df4e181da5c3ce64736f6c63430008000033",
  "immutableReferences": {},
  "source": "// SPDX-License-Identifier: MIT\n\npragma solidity ^0.8.0;\n\nimport \"@openzeppelin/contracts/access/AccessControl.sol\";\nimport \"./token/PRIVIPodERC20Token.sol\";\nimport \"./interfaces/IBridgeManager.sol\";\n\ncontract PRIVIPodERC20Factory is AccessControl {\n\n  bytes32 public constant MODERATOR_ROLE = keccak256(\"MODERATOR_ROLE\");\n  address public bridgeManagerAddress;\n  uint256 private totalPodCreated;\n  mapping(string => address) private podTokenAddressesById;\n  mapping(string => address) private podTokenAddressesBySymbol;\n\n  event PodCreated(\n    string indexed podId,\n    string podTokenName,\n    string podTokenSymbol\n  );\n\n  /**\n   * @dev Grants `DEFAULT_ADMIN_ROLE` and `MODERATOR_ROLE` to the\n   * account that deploys the contract.\n   *\n   */\n  constructor(address bridgeAddress) {\n    _setupRole(DEFAULT_ADMIN_ROLE, _msgSender());\n    _setupRole(MODERATOR_ROLE, _msgSender());\n    bridgeManagerAddress = bridgeAddress;\n  }\n\n  function assignRoleSwapManager(address swapManagerAddress) external {\n    require(\n      hasRole(MODERATOR_ROLE, _msgSender()),\n      \"PRIVIPodERC20Factory: must have MODERATOR_ROLE to assign SwapManager address\"\n    );\n    _setupRole(MODERATOR_ROLE, swapManagerAddress);\n  }\n\n  function getTotalTokenCreated() external view returns (uint256 totalPods) {\n    totalPods = totalPodCreated;\n  }\n\n  function getPodAddressById(string calldata podId)\n    external\n    view\n    returns (address podAddress)\n  {\n    podAddress = podTokenAddressesById[podId];\n  }\n\n  function getPodAddressBySymbol(string calldata tokenSymbol)\n    external\n    view\n    returns (address podAddress)\n  {\n    podAddress = podTokenAddressesBySymbol[tokenSymbol];\n  }\n\n  /**\n   *@dev Create pods\n   *\n   * Requirements:\n   *\n   * - pod should not exist before.\n   */\n  function createPod(\n    string calldata podId,\n    string calldata podTokenName,\n    string calldata podTokenSymbol\n  ) external returns (address podAddress) {\n    // require(hasRole(MODERATOR_ROLE, _msgSender()), \"PRIVIPodERC20Factory: must have MODERATOR_ROLE to create pod.\");\n    // TODO: is it Users or Admins to create them? what restrictions shall we applied to call this function?\n    require(\n      podTokenAddressesById[podId] == address(0),\n      \"PRIVIPodERC20Factory: Pod id already exists\"\n    );\n    require(\n      podTokenAddressesBySymbol[podTokenSymbol] == address(0),\n      \"PRIVIPodERC20Factory: Pod symbol already exists\"\n    );\n    PRIVIPodERC20Token podToken =\n      new PRIVIPodERC20Token(podTokenName, podTokenSymbol, address(this));\n    podAddress = address(podToken);\n    totalPodCreated += 1;\n    podTokenAddressesById[podId] = podAddress;\n    podTokenAddressesBySymbol[podTokenSymbol] = podAddress;\n    IBridgeManager(bridgeManagerAddress).registerTokenERC20(\n      podTokenName,\n      podTokenSymbol,\n      podAddress\n    );\n    emit PodCreated(podId, podTokenName, podTokenSymbol);\n  }\n\n  /**\n   * @dev Moderator will mint the amount of pod token for the investor's account\n   *\n   * Requirements:\n   *\n   * - the caller must MODERATOR_ROLE to perform this action.\n   */\n  function mintPodTokenById(\n    string calldata podId,\n    address account,\n    uint256 investAmount\n  ) external {\n    require(\n      hasRole(MODERATOR_ROLE, _msgSender()),\n      \"PRIVIPodERC20Factory: must have MODERATOR_ROLE to invest for investor\"\n    );\n    require(\n      account != address(0),\n      \"PRIVIPodERC20Factory: Account address should not be zero\"\n    );\n    require(\n      investAmount > 0,\n      \"PRIVIPodERC20Factory: investAmount should not be zero\"\n    );\n    PRIVIPodERC20Token(podTokenAddressesById[podId]).mint(\n      account,\n      investAmount\n    );\n  }\n\n  /**\n   * @dev Moderator will mint the amount of pod token for the investor's account\n   *\n   * Requirements:\n   *\n   * - the caller must MODERATOR_ROLE to perform this action.\n   */\n  function mintPodTokenBySymbol(\n    string calldata tokenSymbol,\n    address account,\n    uint256 investAmount\n  ) external {\n    require(\n      hasRole(MODERATOR_ROLE, _msgSender()),\n      \"PRIVIPodERC20Factory: must have MODERATOR_ROLE to invest for investor\"\n    );\n    require(\n      account != address(0),\n      \"PRIVIPodERC20Factory: Account address should not be zero\"\n    );\n    require(\n      investAmount > 0,\n      \"PRIVIPodERC20Factory: investAmount should not be zero\"\n    );\n    PRIVIPodERC20Token(podTokenAddressesBySymbol[tokenSymbol]).mint(\n      account,\n      investAmount\n    );\n  }\n}\n",
  "sourcePath": "/Users/sergijuanati/Dropbox/Docs/2. Work/16. Privi/3. Code/getcache_ethereum/contracts/PRIVIPodERC20Factory.sol",
  "compiler": {
    "name": "solc",
    "version": "0.8.0+commit.c7dfd78e.Emscripten.clang"
  },
  "schemaVersion": "3.3.2",
  "updatedAt": "2021-04-01T20:25:02.787Z",
  "devdoc": {
    "kind": "dev",
    "methods": {
      "constructor": {
        "details": "Grants `DEFAULT_ADMIN_ROLE` and `MODERATOR_ROLE` to the account that deploys the contract."
      },
      "createPod(string,string,string)": {
        "details": "Create pods Requirements: - pod should not exist before."
      },
      "getRoleAdmin(bytes32)": {
        "details": "Returns the admin role that controls `role`. See {grantRole} and {revokeRole}. To change a role's admin, use {_setRoleAdmin}."
      },
      "grantRole(bytes32,address)": {
        "details": "Grants `role` to `account`. If `account` had not been already granted `role`, emits a {RoleGranted} event. Requirements: - the caller must have ``role``'s admin role."
      },
      "hasRole(bytes32,address)": {
        "details": "Returns `true` if `account` has been granted `role`."
      },
      "mintPodTokenById(string,address,uint256)": {
        "details": "Moderator will mint the amount of pod token for the investor's account Requirements: - the caller must MODERATOR_ROLE to perform this action."
      },
      "mintPodTokenBySymbol(string,address,uint256)": {
        "details": "Moderator will mint the amount of pod token for the investor's account Requirements: - the caller must MODERATOR_ROLE to perform this action."
      },
      "renounceRole(bytes32,address)": {
        "details": "Revokes `role` from the calling account. Roles are often managed via {grantRole} and {revokeRole}: this function's purpose is to provide a mechanism for accounts to lose their privileges if they are compromised (such as when a trusted device is misplaced). If the calling account had been granted `role`, emits a {RoleRevoked} event. Requirements: - the caller must be `account`."
      },
      "revokeRole(bytes32,address)": {
        "details": "Revokes `role` from `account`. If `account` had been granted `role`, emits a {RoleRevoked} event. Requirements: - the caller must have ``role``'s admin role."
      },
      "supportsInterface(bytes4)": {
        "details": "See {IERC165-supportsInterface}."
      }
    },
    "version": 1
  },
  "userdoc": {
    "kind": "user",
    "methods": {},
    "version": 1
  }
}