{
  "contractName": "PRIVIPodERC721RoyaltyFactory",
  "abi": [
    {
      "inputs": [
        {
          "internalType": "address",
          "name": "bridgeAddress",
          "type": "address"
        }
      ],
      "stateMutability": "nonpayable",
      "type": "constructor"
    },
    {
      "anonymous": false,
      "inputs": [
        {
          "indexed": true,
          "internalType": "string",
          "name": "podId",
          "type": "string"
        },
        {
          "indexed": false,
          "internalType": "string",
          "name": "podTokenName",
          "type": "string"
        },
        {
          "indexed": false,
          "internalType": "string",
          "name": "podTokenSymbol",
          "type": "string"
        }
      ],
      "name": "PodCreated",
      "type": "event"
    },
    {
      "anonymous": false,
      "inputs": [
        {
          "indexed": true,
          "internalType": "bytes32",
          "name": "role",
          "type": "bytes32"
        },
        {
          "indexed": true,
          "internalType": "bytes32",
          "name": "previousAdminRole",
          "type": "bytes32"
        },
        {
          "indexed": true,
          "internalType": "bytes32",
          "name": "newAdminRole",
          "type": "bytes32"
        }
      ],
      "name": "RoleAdminChanged",
      "type": "event"
    },
    {
      "anonymous": false,
      "inputs": [
        {
          "indexed": true,
          "internalType": "bytes32",
          "name": "role",
          "type": "bytes32"
        },
        {
          "indexed": true,
          "internalType": "address",
          "name": "account",
          "type": "address"
        },
        {
          "indexed": true,
          "internalType": "address",
          "name": "sender",
          "type": "address"
        }
      ],
      "name": "RoleGranted",
      "type": "event"
    },
    {
      "anonymous": false,
      "inputs": [
        {
          "indexed": true,
          "internalType": "bytes32",
          "name": "role",
          "type": "bytes32"
        },
        {
          "indexed": true,
          "internalType": "address",
          "name": "account",
          "type": "address"
        },
        {
          "indexed": true,
          "internalType": "address",
          "name": "sender",
          "type": "address"
        }
      ],
      "name": "RoleRevoked",
      "type": "event"
    },
    {
      "inputs": [],
      "name": "DEFAULT_ADMIN_ROLE",
      "outputs": [
        {
          "internalType": "bytes32",
          "name": "",
          "type": "bytes32"
        }
      ],
      "stateMutability": "view",
      "type": "function",
      "constant": true
    },
    {
      "inputs": [],
      "name": "MODERATOR_ROLE",
      "outputs": [
        {
          "internalType": "bytes32",
          "name": "",
          "type": "bytes32"
        }
      ],
      "stateMutability": "view",
      "type": "function",
      "constant": true
    },
    {
      "inputs": [],
      "name": "bridgeManagerAddress",
      "outputs": [
        {
          "internalType": "address",
          "name": "",
          "type": "address"
        }
      ],
      "stateMutability": "view",
      "type": "function",
      "constant": true
    },
    {
      "inputs": [
        {
          "internalType": "bytes32",
          "name": "role",
          "type": "bytes32"
        }
      ],
      "name": "getRoleAdmin",
      "outputs": [
        {
          "internalType": "bytes32",
          "name": "",
          "type": "bytes32"
        }
      ],
      "stateMutability": "view",
      "type": "function",
      "constant": true
    },
    {
      "inputs": [
        {
          "internalType": "bytes32",
          "name": "role",
          "type": "bytes32"
        },
        {
          "internalType": "address",
          "name": "account",
          "type": "address"
        }
      ],
      "name": "grantRole",
      "outputs": [],
      "stateMutability": "nonpayable",
      "type": "function"
    },
    {
      "inputs": [
        {
          "internalType": "bytes32",
          "name": "role",
          "type": "bytes32"
        },
        {
          "internalType": "address",
          "name": "account",
          "type": "address"
        }
      ],
      "name": "hasRole",
      "outputs": [
        {
          "internalType": "bool",
          "name": "",
          "type": "bool"
        }
      ],
      "stateMutability": "view",
      "type": "function",
      "constant": true
    },
    {
      "inputs": [
        {
          "internalType": "bytes32",
          "name": "role",
          "type": "bytes32"
        },
        {
          "internalType": "address",
          "name": "account",
          "type": "address"
        }
      ],
      "name": "renounceRole",
      "outputs": [],
      "stateMutability": "nonpayable",
      "type": "function"
    },
    {
      "inputs": [
        {
          "internalType": "bytes32",
          "name": "role",
          "type": "bytes32"
        },
        {
          "internalType": "address",
          "name": "account",
          "type": "address"
        }
      ],
      "name": "revokeRole",
      "outputs": [],
      "stateMutability": "nonpayable",
      "type": "function"
    },
    {
      "inputs": [
        {
          "internalType": "bytes4",
          "name": "interfaceId",
          "type": "bytes4"
        }
      ],
      "name": "supportsInterface",
      "outputs": [
        {
          "internalType": "bool",
          "name": "",
          "type": "bool"
        }
      ],
      "stateMutability": "view",
      "type": "function",
      "constant": true
    },
    {
      "inputs": [],
      "name": "getTotalTokenCreated",
      "outputs": [
        {
          "internalType": "uint256",
          "name": "totalPods",
          "type": "uint256"
        }
      ],
      "stateMutability": "view",
      "type": "function",
      "constant": true
    },
    {
      "inputs": [
        {
          "internalType": "string",
          "name": "podId",
          "type": "string"
        }
      ],
      "name": "getPodAddressById",
      "outputs": [
        {
          "internalType": "address",
          "name": "podAddress",
          "type": "address"
        }
      ],
      "stateMutability": "view",
      "type": "function",
      "constant": true
    },
    {
      "inputs": [
        {
          "internalType": "string",
          "name": "tokenSymbol",
          "type": "string"
        }
      ],
      "name": "getPodAddressBySymbol",
      "outputs": [
        {
          "internalType": "address",
          "name": "podAddress",
          "type": "address"
        }
      ],
      "stateMutability": "view",
      "type": "function",
      "constant": true
    },
    {
      "inputs": [
        {
          "internalType": "string",
          "name": "podId",
          "type": "string"
        },
        {
          "internalType": "string",
          "name": "podTokenName",
          "type": "string"
        },
        {
          "internalType": "string",
          "name": "podTokenSymbol",
          "type": "string"
        },
        {
          "internalType": "string",
          "name": "baseURI",
          "type": "string"
        },
        {
          "internalType": "uint256",
          "name": "royaltyAmount",
          "type": "uint256"
        },
        {
          "internalType": "address",
          "name": "creator",
          "type": "address"
        }
      ],
      "name": "createPod",
      "outputs": [
        {
          "internalType": "address",
          "name": "podAddress",
          "type": "address"
        }
      ],
      "stateMutability": "nonpayable",
      "type": "function"
    },
    {
      "inputs": [
        {
          "internalType": "string",
          "name": "podId",
          "type": "string"
        },
        {
          "internalType": "string",
          "name": "podTokenName",
          "type": "string"
        },
        {
          "internalType": "string",
          "name": "podTokenSymbol",
          "type": "string"
        },
        {
          "internalType": "string",
          "name": "baseURI",
          "type": "string"
        },
        {
          "internalType": "uint256",
          "name": "royaltyAmount",
          "type": "uint256"
        },
        {
          "internalType": "uint256[]",
          "name": "royaltyShares",
          "type": "uint256[]"
        },
        {
          "internalType": "address[]",
          "name": "creators",
          "type": "address[]"
        }
      ],
      "name": "createMultiCreatorPod",
      "outputs": [
        {
          "internalType": "address",
          "name": "podAddress",
          "type": "address"
        }
      ],
      "stateMutability": "nonpayable",
      "type": "function"
    },
    {
      "inputs": [
        {
          "internalType": "string",
          "name": "podId",
          "type": "string"
        },
        {
          "internalType": "address",
          "name": "account",
          "type": "address"
        }
      ],
      "name": "mintPodTokenById",
      "outputs": [],
      "stateMutability": "nonpayable",
      "type": "function"
    },
    {
      "inputs": [
        {
          "internalType": "string",
          "name": "tokenSymbol",
          "type": "string"
        },
        {
          "internalType": "address",
          "name": "account",
          "type": "address"
        }
      ],
      "name": "mintPodTokenBySymbol",
      "outputs": [],
      "stateMutability": "nonpayable",
      "type": "function"
    }
  ],
  "bytecode": "0x60806040523480156200001157600080fd5b5060405162003f0538038062003f05833981016040819052620000349162000166565b6200004a6000620000446200009f565b620000a3565b620000797f71f3d55856e4058ed06ee057d79ada615f65cdf5f9ee88181b914225088f834f620000446200009f565b600180546001600160a01b0319166001600160a01b039290921691909117905562000196565b3390565b620000af8282620000b3565b5050565b620000bf82826200013d565b620000af576000828152602081815260408083206001600160a01b03851684529091529020805460ff19166001179055620000f96200009f565b6001600160a01b0316816001600160a01b0316837f2f8788117e7eff1d82e926ec794901d17c78024a50270940304540a733656f0d60405160405180910390a45050565b6000918252602082815260408084206001600160a01b0393909316845291905290205460ff1690565b60006020828403121562000178578081fd5b81516001600160a01b03811681146200018f578182fd5b9392505050565b613d5f80620001a66000396000f3fe60806040523480156200001157600080fd5b5060043610620001185760003560e01c806358d4891f11620000a5578063a217fddf116200006f578063a217fddf146200024f578063d547741f1462000259578063e792b1941462000270578063e80cae26146200027a5762000118565b806358d4891f1462000200578063797669c9146200021757806391d148541462000221578063972d08cf14620002385762000118565b8063248a9ca311620000e7578063248a9ca314620001a45780632f2ff15d14620001bb5780633325a4e414620001d257806336568abe14620001e95762000118565b806301ffc9a7146200011d5780630d9c1812146200014c5780630fc09e2e146200016557806322b2edeb146200017e575b600080fd5b620001346200012e36600462000de6565b62000291565b60405162000143919062001181565b60405180910390f35b620001636200015d36600462000e54565b620002c1565b005b6200016f620003c8565b6040516200014391906200118c565b620001956200018f36600462000e10565b620003ce565b604051620001439190620010f3565b6200016f620001b536600462000d9f565b62000404565b62000163620001cc36600462000db8565b62000419565b62000195620001e336600462000e10565b62000461565b62000163620001fa36600462000db8565b62000477565b620001636200021136600462000e54565b620004c0565b6200016f6200054b565b620001346200023236600462000db8565b6200056f565b620001956200024936600462000f93565b62000598565b6200016f6200084b565b620001636200026a36600462000db8565b62000850565b620001956200087e565b620001956200028b36600462000eac565b6200088d565b60006001600160e01b03198216637965db0b60e01b1480620002b95750620002b98262000aff565b90505b919050565b620002f07f71f3d55856e4058ed06ee057d79ada615f65cdf5f9ee88181b914225088f834f6200023262000b18565b620003185760405162461bcd60e51b81526004016200030f906200139a565b60405180910390fd5b6001600160a01b038116620003415760405162461bcd60e51b81526004016200030f906200140c565b6004838360405162000355929190620010e3565b908152604051908190036020018120546335313c2160e11b82526001600160a01b031690636a627842906200038f908490600401620010f3565b600060405180830381600087803b158015620003aa57600080fd5b505af1158015620003bf573d6000803e3d6000fd5b50505050505050565b60025490565b600060038383604051620003e4929190620010e3565b908152604051908190036020019020546001600160a01b03169392505050565b60009081526020819052604090206001015490565b62000432620004288362000404565b6200023262000b18565b620004515760405162461bcd60e51b81526004016200030f9062001283565b6200045d828262000b1c565b5050565b600060048383604051620003e4929190620010e3565b6200048162000b18565b6001600160a01b0316816001600160a01b031614620004b45760405162461bcd60e51b81526004016200030f90620014c6565b6200045d828262000ba6565b620004ef7f71f3d55856e4058ed06ee057d79ada615f65cdf5f9ee88181b914225088f834f6200023262000b18565b6200050e5760405162461bcd60e51b81526004016200030f906200139a565b6001600160a01b038116620005375760405162461bcd60e51b81526004016200030f906200140c565b6003838360405162000355929190620010e3565b7f71f3d55856e4058ed06ee057d79ada615f65cdf5f9ee88181b914225088f834f81565b6000918252602082815260408084206001600160a01b0393909316845291905290205460ff1690565b6000806001600160a01b031660038d8d604051620005b8929190620010e3565b908152604051908190036020019020546001600160a01b031614620005f15760405162461bcd60e51b81526004016200030f9062001469565b60006001600160a01b03166004898960405162000610929190620010e3565b908152604051908190036020019020546001600160a01b031614620006495760405162461bcd60e51b81526004016200030f906200133d565b600082846040516200065b9062000c43565b6200066892919062001107565b604051809103906000f08015801562000685573d6000803e3d6000fd5b50905060008b8b8b8b8b8b308c89604051620006a19062000c51565b620006b59998979695949392919062001212565b604051809103906000f080158015620006d2573d6000803e3d6000fd5b50600254909350839150620006e990600162000c2e565b508260038f8f604051620006ff929190620010e3565b908152602001604051809103902060006101000a8154816001600160a01b0302191690836001600160a01b031602179055508260048b8b60405162000746929190620010e3565b90815260405190819003602001812080546001600160a01b0393841673ffffffffffffffffffffffffffffffffffffffff1990911617905560015463c082713b60e01b82529091169063c082713b90620007ad908f908f908f908f908a90600401620011cb565b600060405180830381600087803b158015620007c857600080fd5b505af1158015620007dd573d6000803e3d6000fd5b505050508d8d604051620007f3929190620010e3565b60405180910390207fc0512f6474c9ee949f1cbdc88e43ca774f79b5f1f07d8484696e1cf1a0bd87ce8d8d8d8d60405162000832949392919062001195565b60405180910390a250509b9a5050505050505050505050565b600081565b6200085f620004288362000404565b620004b45760405162461bcd60e51b81526004016200030f90620012e0565b6001546001600160a01b031681565b6000806001600160a01b031660038c8c604051620008ad929190620010e3565b908152604051908190036020019020546001600160a01b031614620008e65760405162461bcd60e51b81526004016200030f9062001469565b60006001600160a01b03166004888860405162000905929190620010e3565b908152604051908190036020019020546001600160a01b0316146200093e5760405162461bcd60e51b81526004016200030f906200133d565b6000898989898989308a8a604051620009579062000c51565b6200096b9998979695949392919062001212565b604051809103906000f08015801562000988573d6000803e3d6000fd5b506002549092508291506200099f90600162000c2e565b508160038d8d604051620009b5929190620010e3565b908152602001604051809103902060006101000a8154816001600160a01b0302191690836001600160a01b031602179055508160048989604051620009fc929190620010e3565b90815260405190819003602001812080546001600160a01b0393841673ffffffffffffffffffffffffffffffffffffffff1990911617905560015463c082713b60e01b82529091169063c082713b9062000a63908d908d908d908d908990600401620011cb565b600060405180830381600087803b15801562000a7e57600080fd5b505af115801562000a93573d6000803e3d6000fd5b505050508b8b60405162000aa9929190620010e3565b60405180910390207fc0512f6474c9ee949f1cbdc88e43ca774f79b5f1f07d8484696e1cf1a0bd87ce8b8b8b8b60405162000ae8949392919062001195565b60405180910390a2509a9950505050505050505050565b6001600160e01b031981166301ffc9a760e01b14919050565b3390565b62000b2882826200056f565b6200045d576000828152602081815260408083206001600160a01b03851684529091529020805460ff1916600117905562000b6262000b18565b6001600160a01b0316816001600160a01b0316837f2f8788117e7eff1d82e926ec794901d17c78024a50270940304540a733656f0d60405160405180910390a45050565b62000bb282826200056f565b156200045d576000828152602081815260408083206001600160a01b03851684529091529020805460ff1916905562000bea62000b18565b6001600160a01b0316816001600160a01b0316837ff6391f5c32d9c69d2a47ea670b442974b53935d1edc7fd64eb21e047a839171b60405160405180910390a45050565b600062000c3c828462001577565b9392505050565b61090380620015b383390190565b611e748062001eb683390190565b80356001600160a01b0381168114620002bc57600080fd5b600082601f83011262000c88578081fd5b8135602062000ca162000c9b8362001550565b62001523565b828152818101908583018385028701840188101562000cbe578586fd5b855b8581101562000ce75762000cd48262000c5f565b8452928401929084019060010162000cc0565b5090979650505050505050565b600082601f83011262000d05578081fd5b8135602062000d1862000c9b8362001550565b828152818101908583018385028701840188101562000d35578586fd5b855b8581101562000ce75781358452928401929084019060010162000d37565b60008083601f84011262000d67578182fd5b50813567ffffffffffffffff81111562000d7f578182fd5b60208301915083602082850101111562000d9857600080fd5b9250929050565b60006020828403121562000db1578081fd5b5035919050565b6000806040838503121562000dcb578081fd5b8235915062000ddd6020840162000c5f565b90509250929050565b60006020828403121562000df8578081fd5b81356001600160e01b03198116811462000c3c578182fd5b6000806020838503121562000e23578182fd5b823567ffffffffffffffff81111562000e3a578283fd5b62000e488582860162000d55565b90969095509350505050565b60008060006040848603121562000e69578081fd5b833567ffffffffffffffff81111562000e80578182fd5b62000e8e8682870162000d55565b909450925062000ea390506020850162000c5f565b90509250925092565b60008060008060008060008060008060c08b8d03121562000ecb578586fd5b8a3567ffffffffffffffff8082111562000ee3578788fd5b62000ef18e838f0162000d55565b909c509a5060208d013591508082111562000f0a578788fd5b62000f188e838f0162000d55565b909a50985060408d013591508082111562000f31578788fd5b62000f3f8e838f0162000d55565b909850965060608d013591508082111562000f58578586fd5b5062000f678d828e0162000d55565b90955093505060808b0135915062000f8260a08c0162000c5f565b90509295989b9194979a5092959850565b600080600080600080600080600080600060e08c8e03121562000fb4578081fd5b67ffffffffffffffff808d35111562000fcb578182fd5b62000fda8e8e358f0162000d55565b909c509a5060208d013581101562000ff0578182fd5b620010028e60208f01358f0162000d55565b909a50985060408d013581101562001018578182fd5b6200102a8e60408f01358f0162000d55565b909850965060608d013581101562001040578182fd5b620010528e60608f01358f0162000d55565b909650945060808d0135935060a08d01358110156200106f578182fd5b620010818e60a08f01358f0162000cf4565b92508060c08e0135111562001094578182fd5b50620010a78d60c08e01358e0162000c77565b90509295989b509295989b9093969950565b60008284528282602086013780602084860101526020601f19601f85011685010190509392505050565b6000828483379101908152919050565b6001600160a01b0391909116815260200190565b604080825283519082018190526000906020906060840190828701845b828110156200114b5781516001600160a01b03168452928401929084019060010162001124565b50505083810382850152845180825285830191830190845b8181101562000ce75783518352928401929184019160010162001163565b901515815260200190565b90815260200190565b600060408252620011ab604083018688620010b9565b8281036020840152620011c0818587620010b9565b979650505050505050565b600060608252620011e1606083018789620010b9565b8281036020840152620011f6818688620010b9565b9150506001600160a01b03831660408301529695505050505050565b600060c082526200122860c083018b8d620010b9565b82810360208401526200123d818a8c620010b9565b905082810360408401526200125481888a620010b9565b6001600160a01b03968716606085015260808401959095525050921660a0909201919091529695505050505050565b6020808252602f908201527f416363657373436f6e74726f6c3a2073656e646572206d75737420626520616e60408201527f2061646d696e20746f206772616e740000000000000000000000000000000000606082015260800190565b60208082526030908201527f416363657373436f6e74726f6c3a2073656e646572206d75737420626520616e60408201527f2061646d696e20746f207265766f6b6500000000000000000000000000000000606082015260800190565b60208082526036908201527f5052495649506f64455243373231546f6b656e466163746f72793a20506f642060408201527f73796d626f6c20616c7265616479206578697374732e00000000000000000000606082015260800190565b6020808252604c908201527f5052495649506f64455243373231546f6b656e526f79616c74793a206d75737460408201527f2068617665204d4f44455241544f525f524f4c4520746f20696e76657374206660608201526b37b91034b73b32b9ba37b91760a11b608082015260a00190565b6020808252603f908201527f5052495649506f64455243373231546f6b656e526f79616c74793a204163636f60408201527f756e7420616464726573732073686f756c64206e6f74206265207a65726f2e00606082015260800190565b60208082526032908201527f5052495649506f64455243373231546f6b656e466163746f72793a20506f642060408201527f696420616c7265616479206578697374732e0000000000000000000000000000606082015260800190565b6020808252602f908201527f416363657373436f6e74726f6c3a2063616e206f6e6c792072656e6f756e636560408201527f20726f6c657320666f722073656c660000000000000000000000000000000000606082015260800190565b60405181810167ffffffffffffffff811182821017156200154857620015486200159c565b604052919050565b600067ffffffffffffffff8211156200156d576200156d6200159c565b5060209081020190565b600082198211156200159757634e487b7160e01b81526011600452602481fd5b500190565b634e487b7160e01b600052604160045260246000fdfe60806040523480156200001157600080fd5b5060405162000903380380620009038339810160408190526200003491620001c8565b8051825114620000615760405162461bcd60e51b81526004016200005890620002a2565b60405180910390fd5b81516200007690600090602085019062000095565b5080516200008c906001906020840190620000ff565b50505062000373565b828054828255906000526020600020908101928215620000ed579160200282015b82811115620000ed57825182546001600160a01b0319166001600160a01b03909116178255602090920191600190910190620000b6565b50620000fb9291506200013d565b5090565b828054828255906000526020600020908101928215620000ed579160200282015b82811115620000ed57825182559160200191906001019062000120565b5b80821115620000fb57600081556001016200013e565b600082601f83011262000165578081fd5b815160206200017e620001788362000337565b6200030b565b82815281810190858301838502870184018810156200019b578586fd5b855b85811015620001bb578151845292840192908401906001016200019d565b5090979650505050505050565b60008060408385031215620001db578182fd5b82516001600160401b0380821115620001f2578384fd5b818501915085601f83011262000206578384fd5b8151602062000219620001788362000337565b82815281810190858301838502870184018b101562000236578889fd5b8896505b848710156200026f5780516001600160a01b03811681146200025a57898afd5b8352600196909601959183019183016200023a565b509188015191965090935050508082111562000289578283fd5b50620002988582860162000154565b9150509250929050565b60208082526043908201527f4d756c746943726561746f724e66744d616e616765723a2043726561746f727360408201527f20616e642053686172657320617265206e6f74206f662073616d65206c656e676060820152623a341760e91b608082015260a00190565b6040518181016001600160401b03811182821017156200032f576200032f6200035d565b604052919050565b60006001600160401b038211156200035357620003536200035d565b5060209081020190565b634e487b7160e01b600052604160045260246000fd5b61058080620003836000396000f3fe60806040526004361061007f5760003560e01c8063ad9adcdc1161004e578063ad9adcdc14610135578063c760a23714610155578063cd53d08e14610175578063d3b97417146101a2576100b0565b80632e1a7d4d146100b557806357a858fc146100d55780636f9fb98a1461010b57806392e6c00414610120576100b0565b366100b057346003600061009360026101c2565b81526020810191909152604001600020556100ae60026101c6565b005b600080fd5b3480156100c157600080fd5b506100ae6100d0366004610430565b6101cf565b3480156100e157600080fd5b506100f56100f0366004610430565b610286565b60405161010291906104b9565b60405180910390f35b34801561011757600080fd5b506100f56102a7565b34801561012c57600080fd5b506100f56102ab565b34801561014157600080fd5b506100f5610150366004610409565b6102b1565b34801561016157600080fd5b506100f5610170366004610430565b6102c3565b34801561018157600080fd5b50610195610190366004610430565b6102d5565b6040516101029190610448565b3480156101ae57600080fd5b506100f56101bd366004610430565b6102ff565b5490565b80546001019055565b600081815481106101f057634e487b7160e01b600052603260045260246000fd5b6000918252602090912001546001600160a01b0316331461022c5760405162461bcd60e51b81526004016102239061045c565b60405180910390fd5b6000610237826102ff565b905061024360026101c2565b33600081815260046020526040808220939093559151909183156108fc02918491818181858888f19350505050158015610281573d6000803e3d6000fd5b505050565b6001818154811061029657600080fd5b600091825260209091200154905081565b4790565b60025481565b60046020526000908152604090205481565b60036020526000908152604090205481565b600081815481106102e557600080fd5b6000918252602090912001546001600160a01b0316905081565b6000806004600080858154811061032657634e487b7160e01b600052603260045260246000fd5b60009182526020808320909101546001600160a01b0316835282019290925260400190205490505b61035860026101c2565b81116103d8576103c46103bd60646103b760036000868152602001908152602001600020546001888154811061039e57634e487b7160e01b600052603260045260246000fd5b90600052602060002001546103de90919063ffffffff16565b906103f1565b83906103fd565b9150806103d081610519565b91505061034e565b50919050565b60006103ea82846104fa565b9392505050565b60006103ea82846104da565b60006103ea82846104c2565b60006020828403121561041a578081fd5b81356001600160a01b03811681146103ea578182fd5b600060208284031215610441578081fd5b5035919050565b6001600160a01b0391909116815260200190565b60208082526038908201527f4d756c746943726561746f724e66744d616e616765723a20596f75206172652060408201527f6e6f74206f6e65206f66207468652063726561746f72732e0000000000000000606082015260800190565b90815260200190565b600082198211156104d5576104d5610534565b500190565b6000826104f557634e487b7160e01b81526012600452602481fd5b500490565b600081600019048311821515161561051457610514610534565b500290565b600060001982141561052d5761052d610534565b5060010190565b634e487b7160e01b600052601160045260246000fdfea26469706673582212200e20782eb5cb72c16cf21c465a33562a14914904600c7af4236bfc6d706c7dca64736f6c6343000800003360806040523480156200001157600080fd5b5060405162001e7438038062001e7483398101604081905262000034916200022e565b81818787816000908051906020019062000050929190620000c0565b50805162000066906001906020840190620000c0565b505050600691909155600780546001600160a01b03199081166001600160a01b0393841617909155600980549091169185169190911790558351620000b390600a906020870190620000c0565b505050505050506200033c565b828054620000ce90620002e9565b90600052602060002090601f016020900481019282620000f257600085556200013d565b82601f106200010d57805160ff19168380011785556200013d565b828001600101855582156200013d579182015b828111156200013d57825182559160200191906001019062000120565b506200014b9291506200014f565b5090565b5b808211156200014b576000815560010162000150565b80516001600160a01b03811681146200017e57600080fd5b919050565b600082601f83011262000194578081fd5b81516001600160401b0380821115620001b157620001b162000326565b6040516020601f8401601f1916820181018381118382101715620001d957620001d962000326565b6040528382528584018101871015620001f0578485fd5b8492505b83831015620002135785830181015182840182015291820191620001f4565b838311156200022457848185840101525b5095945050505050565b60008060008060008060c0878903121562000247578182fd5b86516001600160401b03808211156200025e578384fd5b6200026c8a838b0162000183565b9750602089015191508082111562000282578384fd5b620002908a838b0162000183565b96506040890151915080821115620002a6578384fd5b50620002b589828a0162000183565b945050620002c66060880162000166565b925060808701519150620002dd60a0880162000166565b90509295509295509295565b600281046001821680620002fe57607f821691505b602082108114156200032057634e487b7160e01b600052602260045260246000fd5b50919050565b634e487b7160e01b600052604160045260246000fd5b611b28806200034c6000396000f3fe6080604052600436106101555760003560e01c806370a08231116100bb5780639d35c1611161007f578063c87b56dd11610059578063c87b56dd146103ba578063cfd0244b146103da578063e985e9c5146103ed57610155565b80639d35c16114610365578063a22cb4651461037a578063b88d4fde1461039a57610155565b806370a08231146102d95780637c6e551d1461030657806384a09c271461031b57806395d89b411461033b5780639822e8c01461035057610155565b806342842e0e1161011d5780636352211e116100f75780636352211e14610284578063656605d6146102a45780636a627842146102b957610155565b806342842e0e1461022157806342966c681461024157806346e807201461026157610155565b806301ffc9a71461015a57806306fdde0314610190578063081812fc146101b2578063095ea7b3146101df57806323b872dd14610201575b600080fd5b34801561016657600080fd5b5061017a6101753660046112fd565b61040d565b604051610187919061143d565b60405180910390f35b34801561019c57600080fd5b506101a5610455565b6040516101879190611448565b3480156101be57600080fd5b506101d26101cd366004611335565b6104e7565b60405161018791906113ed565b3480156101eb57600080fd5b506101ff6101fa3660046112d4565b610533565b005b34801561020d57600080fd5b506101ff61021c366004611193565b6105cb565b34801561022d57600080fd5b506101ff61023c366004611193565b610603565b34801561024d57600080fd5b506101ff61025c366004611335565b61061e565b34801561026d57600080fd5b50610276610651565b60405161018792919061198b565b34801561029057600080fd5b506101d261029f366004611335565b610664565b3480156102b057600080fd5b5061017a610699565b3480156102c557600080fd5b506101ff6102d4366004611147565b61069e565b3480156102e557600080fd5b506102f96102f4366004611147565b6106f5565b6040516101879190611982565b34801561031257600080fd5b506102f9610739565b34801561032757600080fd5b506101ff610336366004611193565b61073f565b34801561034757600080fd5b506101a5610785565b34801561035c57600080fd5b506101d2610794565b34801561037157600080fd5b506101d26107a3565b34801561038657600080fd5b506101ff61039536600461129a565b6107b2565b3480156103a657600080fd5b506101ff6103b53660046111ce565b610880565b3480156103c657600080fd5b506101a56103d5366004611335565b6108bf565b6101ff6103e836600461134d565b610942565b3480156103f957600080fd5b5061017a610408366004611161565b610a50565b60006001600160e01b031982166380ac58cd60e01b148061043e57506001600160e01b03198216635b5e139f60e01b145b8061044d575061044d82610a7e565b90505b919050565b60606000805461046490611a30565b80601f016020809104026020016040519081016040528092919081815260200182805461049090611a30565b80156104dd5780601f106104b2576101008083540402835291602001916104dd565b820191906000526020600020905b8154815290600101906020018083116104c057829003601f168201915b5050505050905090565b60006104f282610a97565b6105175760405162461bcd60e51b815260040161050e90611738565b60405180910390fd5b506000908152600460205260409020546001600160a01b031690565b600061053e82610664565b9050806001600160a01b0316836001600160a01b031614156105725760405162461bcd60e51b815260040161050e9061182a565b806001600160a01b0316610584610ab4565b6001600160a01b031614806105a057506105a081610408610ab4565b6105bc5760405162461bcd60e51b815260040161050e90611613565b6105c68383610ab8565b505050565b6105dc6105d6610ab4565b82610b26565b6105f85760405162461bcd60e51b815260040161050e9061186b565b6105c6838383610bab565b6105c683838360405180602001604052806000815250610880565b6106296105d6610ab4565b6106455760405162461bcd60e51b815260040161050e90611925565b61064e81610cd8565b50565b6006546007546001600160a01b03169091565b6000818152600260205260408120546001600160a01b03168061044d5760405162461bcd60e51b815260040161050e906116ba565b600190565b6009546001600160a01b03166106b2610ab4565b6001600160a01b0316146106d85760405162461bcd60e51b815260040161050e906114ef565b6106eb816106e66008610d7f565b610d83565b61064e6008610e62565b60006001600160a01b03821661071d5760405162461bcd60e51b815260040161050e90611670565b506001600160a01b031660009081526003602052604090205490565b60065490565b80826001600160a01b0316846001600160a01b03167f06cb0b9d04d0ac2a93b9b9a93ee6c2511e069efb107c06eee43c85021fbc04ed60405160405180910390a4505050565b60606001805461046490611a30565b6007546001600160a01b031690565b6009546001600160a01b031681565b6107ba610ab4565b6001600160a01b0316826001600160a01b031614156107eb5760405162461bcd60e51b815260040161050e90611590565b80600560006107f8610ab4565b6001600160a01b03908116825260208083019390935260409182016000908120918716808252919093529120805460ff19169215159290921790915561083c610ab4565b6001600160a01b03167f17307eab39ab6107e8899845ad3d59bd9653f200f220920489ca2b5937696c3183604051610874919061143d565b60405180910390a35050565b61089161088b610ab4565b83610b26565b6108ad5760405162461bcd60e51b815260040161050e9061186b565b6108b984848484610e6b565b50505050565b60606108ca82610a97565b6108e65760405162461bcd60e51b815260040161050e906117cd565b60006108f0610e9e565b90506000815111610910576040518060200160405280600081525061093b565b8061091a84610ead565b60405160200161092b9291906113be565b6040516020818303038152906040525b9392505050565b8334146109615760405162461bcd60e51b815260040161050e906118c8565b6000610983606461097d60065434610fe090919063ffffffff16565b90610fec565b6007546040519192506001600160a01b031690819083156108fc029084906000818181858888f193505050501580156109c0573d6000803e3d6000fd5b506001600160a01b0384166108fc6109d83485610ff8565b6040518115909202916000818181858888f19350505050158015610a00573d6000803e3d6000fd5b50610a318484876040518060400160405280600c81526020016b1c9bde585b1d1e481c185a5960a21b815250610880565b600754610a48906001600160a01b0316848461073f565b505050505050565b6001600160a01b03918216600090815260056020908152604080832093909416825291909152205460ff1690565b6001600160e01b031981166301ffc9a760e01b14919050565b6000908152600260205260409020546001600160a01b0316151590565b3390565b600081815260046020526040902080546001600160a01b0319166001600160a01b0384169081179091558190610aed82610664565b6001600160a01b03167f8c5be1e5ebec7d5bd14f71427d1e84f3dd0314c0f7b2291e5b200ac8c7c3b92560405160405180910390a45050565b6000610b3182610a97565b610b4d5760405162461bcd60e51b815260040161050e906115c7565b6000610b5883610664565b9050806001600160a01b0316846001600160a01b03161480610b935750836001600160a01b0316610b88846104e7565b6001600160a01b0316145b80610ba35750610ba38185610a50565b949350505050565b826001600160a01b0316610bbe82610664565b6001600160a01b031614610be45760405162461bcd60e51b815260040161050e90611784565b6001600160a01b038216610c0a5760405162461bcd60e51b815260040161050e9061154c565b610c15838383611004565b610c20600082610ab8565b6001600160a01b0383166000908152600360205260408120805460019290610c499084906119ed565b90915550506001600160a01b0382166000908152600360205260408120805460019290610c779084906119a2565b909155505060008181526002602052604080822080546001600160a01b0319166001600160a01b0386811691821790925591518493918716917fddf252ad1be2c89b69c2b068fc378daa952ba7f163c4a11628f55a4df523b3ef91a4505050565b6000610ce382610664565b9050610cf181600084611004565b610cfc600083610ab8565b6001600160a01b0381166000908152600360205260408120805460019290610d259084906119ed565b909155505060008281526002602052604080822080546001600160a01b0319169055518391906001600160a01b038416907fddf252ad1be2c89b69c2b068fc378daa952ba7f163c4a11628f55a4df523b3ef908390a45050565b5490565b6001600160a01b038216610da95760405162461bcd60e51b815260040161050e90611703565b610db281610a97565b15610dcf5760405162461bcd60e51b815260040161050e906114b8565b610ddb60008383611004565b6001600160a01b0382166000908152600360205260408120805460019290610e049084906119a2565b909155505060008181526002602052604080822080546001600160a01b0319166001600160a01b03861690811790915590518392907fddf252ad1be2c89b69c2b068fc378daa952ba7f163c4a11628f55a4df523b3ef908290a45050565b80546001019055565b610e76848484610bab565b610e828484848461100f565b6108b95760405162461bcd60e51b815260040161050e9061145b565b6060600a805461046490611a30565b606081610ed257506040805180820190915260018152600360fc1b6020820152610450565b8160005b8115610efc5780610ee681611a6b565b9150610ef59050600a836119ba565b9150610ed6565b60008167ffffffffffffffff811115610f2557634e487b7160e01b600052604160045260246000fd5b6040519080825280601f01601f191660200182016040528015610f4f576020820181803683370190505b5090505b8415610ba357610f646001836119ed565b9150610f71600a86611a86565b610f7c9060306119a2565b60f81b818381518110610f9f57634e487b7160e01b600052603260045260246000fd5b60200101907effffffffffffffffffffffffffffffffffffffffffffffffffffffffffffff1916908160001a905350610fd9600a866119ba565b9450610f53565b600061093b82846119ce565b600061093b82846119ba565b600061093b82846119ed565b6105c68383836105c6565b6000611023846001600160a01b031661112a565b1561111f57836001600160a01b031663150b7a0261103f610ab4565b8786866040518563ffffffff1660e01b81526004016110619493929190611401565b602060405180830381600087803b15801561107b57600080fd5b505af19250505080156110ab575060408051601f3d908101601f191682019092526110a891810190611319565b60015b611105573d8080156110d9576040519150601f19603f3d011682016040523d82523d6000602084013e6110de565b606091505b5080516110fd5760405162461bcd60e51b815260040161050e9061145b565b805181602001fd5b6001600160e01b031916630a85bd0160e11b149050610ba3565b506001949350505050565b3b151590565b80356001600160a01b038116811461045057600080fd5b600060208284031215611158578081fd5b61093b82611130565b60008060408385031215611173578081fd5b61117c83611130565b915061118a60208401611130565b90509250929050565b6000806000606084860312156111a7578081fd5b6111b084611130565b92506111be60208501611130565b9150604084013590509250925092565b600080600080608085870312156111e3578081fd5b6111ec85611130565b935060206111fb818701611130565b935060408601359250606086013567ffffffffffffffff8082111561121e578384fd5b818801915088601f830112611231578384fd5b81358181111561124357611243611ac6565b604051601f8201601f191681018501838111828210171561126657611266611ac6565b60405281815283820185018b101561127c578586fd5b81858501868301379081019093019390935250939692955090935050565b600080604083850312156112ac578182fd5b6112b583611130565b9150602083013580151581146112c9578182fd5b809150509250929050565b600080604083850312156112e6578182fd5b6112ef83611130565b946020939093013593505050565b60006020828403121561130e578081fd5b813561093b81611adc565b60006020828403121561132a578081fd5b815161093b81611adc565b600060208284031215611346578081fd5b5035919050565b60008060008060808587031215611362578384fd5b843593506020850135925061137960408601611130565b915061138760608601611130565b905092959194509250565b600081518084526113aa816020860160208601611a04565b601f01601f19169290920160200192915050565b600083516113d0818460208801611a04565b8351908301906113e4818360208801611a04565b01949350505050565b6001600160a01b0391909116815260200190565b60006001600160a01b038087168352808616602084015250836040830152608060608301526114336080830184611392565b9695505050505050565b901515815260200190565b60006020825261093b6020830184611392565b60208082526032908201527f4552433732313a207472616e7366657220746f206e6f6e20455243373231526560408201527f63656976657220696d706c656d656e7465720000000000000000000000000000606082015260800190565b6020808252601c908201527f4552433732313a20746f6b656e20616c7265616479206d696e74656400000000604082015260600190565b60208082526039908201527f5052495649506f64455243373231546f6b656e3a204f6e6c7920466163746f7260408201527f792063616e2063616c6c20746869732066756e6374696f6e2e00000000000000606082015260800190565b60208082526024908201527f4552433732313a207472616e7366657220746f20746865207a65726f206164646040820152637265737360e01b606082015260800190565b60208082526019908201527f4552433732313a20617070726f766520746f2063616c6c657200000000000000604082015260600190565b6020808252602c908201527f4552433732313a206f70657261746f7220717565727920666f72206e6f6e657860408201526b34b9ba32b73a103a37b5b2b760a11b606082015260800190565b60208082526038908201527f4552433732313a20617070726f76652063616c6c6572206973206e6f74206f7760408201527f6e6572206e6f7220617070726f76656420666f7220616c6c0000000000000000606082015260800190565b6020808252602a908201527f4552433732313a2062616c616e636520717565727920666f7220746865207a65604082015269726f206164647265737360b01b606082015260800190565b60208082526029908201527f4552433732313a206f776e657220717565727920666f72206e6f6e657869737460408201526832b73a103a37b5b2b760b91b606082015260800190565b6020808252818101527f4552433732313a206d696e7420746f20746865207a65726f2061646472657373604082015260600190565b6020808252602c908201527f4552433732313a20617070726f76656420717565727920666f72206e6f6e657860408201526b34b9ba32b73a103a37b5b2b760a11b606082015260800190565b60208082526029908201527f4552433732313a207472616e73666572206f6620746f6b656e2074686174206960408201526839903737ba1037bbb760b91b606082015260800190565b6020808252602f908201527f4552433732314d657461646174613a2055524920717565727920666f72206e6f60408201527f6e6578697374656e7420746f6b656e0000000000000000000000000000000000606082015260800190565b60208082526021908201527f4552433732313a20617070726f76616c20746f2063757272656e74206f776e656040820152603960f91b606082015260800190565b60208082526031908201527f4552433732313a207472616e736665722063616c6c6572206973206e6f74206f60408201527f776e6572206e6f7220617070726f766564000000000000000000000000000000606082015260800190565b60208082526039908201527f5052495649506f64455243373231546f6b656e526f79616c74793a20726f796160408201527f6c747920616d6f756e74206973206e6f7420636f727265637400000000000000606082015260800190565b60208082526030908201527f4552433732314275726e61626c653a2063616c6c6572206973206e6f74206f7760408201527f6e6572206e6f7220617070726f76656400000000000000000000000000000000606082015260800190565b90815260200190565b9182526001600160a01b0316602082015260400190565b600082198211156119b5576119b5611a9a565b500190565b6000826119c9576119c9611ab0565b500490565b60008160001904831182151516156119e8576119e8611a9a565b500290565b6000828210156119ff576119ff611a9a565b500390565b60005b83811015611a1f578181015183820152602001611a07565b838111156108b95750506000910152565b600281046001821680611a4457607f821691505b60208210811415611a6557634e487b7160e01b600052602260045260246000fd5b50919050565b6000600019821415611a7f57611a7f611a9a565b5060010190565b600082611a9557611a95611ab0565b500690565b634e487b7160e01b600052601160045260246000fd5b634e487b7160e01b600052601260045260246000fd5b634e487b7160e01b600052604160045260246000fd5b6001600160e01b03198116811461064e57600080fdfea2646970667358221220126ab10980fc772aa56e2f740344decbff01ea4fb7e14f4fd2b66301c2673b5c64736f6c63430008000033a2646970667358221220afea79f88e864679f6a61d93de533150c6c9e0683381aeb37d38a9baff1086c964736f6c63430008000033",
  "immutableReferences": {},
  "source": "// SPDX-License-Identifier: MIT\n\npragma solidity ^0.8.0;\n\nimport \"@openzeppelin/contracts/access/AccessControl.sol\";\nimport \"@openzeppelin/contracts/utils/math/SafeMath.sol\";\nimport \"./token/PRIVIPodERC721TokenRoyalty.sol\";\nimport \"./interfaces/IBridgeManager.sol\";\nimport \"./deployable_managers/MultiCreatorNftManager.sol\";\n\ncontract PRIVIPodERC721RoyaltyFactory is AccessControl {\n    using SafeMath for uint256;\n    \n    bytes32 public constant MODERATOR_ROLE = keccak256(\"MODERATOR_ROLE\");\n    address public bridgeManagerAddress;\n    uint256 private totalPodCreated;\n    mapping (string => address) private podTokenAddressesById;\n    mapping (string => address) private podTokenAddressesBySymbol;\n\n    event PodCreated(string indexed podId, string podTokenName, string podTokenSymbol);\n    \n    /**\n     * @dev Grants `DEFAULT_ADMIN_ROLE` and `MODERATOR_ROLE` to the\n     * account that deploys the contract.\n     *\n     */\n    constructor(address bridgeAddress) {\n        _setupRole(DEFAULT_ADMIN_ROLE, _msgSender());\n        _setupRole(MODERATOR_ROLE, _msgSender());\n        bridgeManagerAddress = bridgeAddress;\n    }\n\n    function getTotalTokenCreated() external view returns(uint256 totalPods) {\n        totalPods = totalPodCreated;\n    }\n\n    function getPodAddressById(string calldata podId) external view returns(address podAddress) {\n        podAddress = podTokenAddressesById[podId];\n    }\n\n    function getPodAddressBySymbol(string calldata tokenSymbol) external view returns(address podAddress) {\n        podAddress = podTokenAddressesBySymbol[tokenSymbol];\n    }\n    \n    /**\n     *@dev Create pods of one single creator\n     *\n     * Requirements:\n     *\n     * - pod id and pod symbol should not exist before.\n     */\n    function createPod(string calldata podId, string calldata podTokenName, string calldata podTokenSymbol, string calldata baseURI, uint256 royaltyAmount, address creator) external returns (address podAddress){\n        // require(hasRole(MODERATOR_ROLE, _msgSender()), \"PRIVIPodERC721TokenFactory: must have MODERATOR_ROLE to create pod.\");\n        require(podTokenAddressesById[podId] == address(0), \"PRIVIPodERC721TokenFactory: Pod id already exists.\");\n        require(podTokenAddressesBySymbol[podTokenSymbol] == address(0), \"PRIVIPodERC721TokenFactory: Pod symbol already exists.\");\n        PRIVIPodERC721TokenRoyalty podToken = new PRIVIPodERC721TokenRoyalty(podTokenName, podTokenSymbol , baseURI, address(this), royaltyAmount, creator);\n        podAddress = address(podToken);\n        totalPodCreated.add(1);\n        podTokenAddressesById[podId] = podAddress;\n        podTokenAddressesBySymbol[podTokenSymbol] = podAddress;\n        IBridgeManager(bridgeManagerAddress).registerTokenERC721(podTokenName, podTokenSymbol, podAddress);\n        emit PodCreated(podId, podTokenName, podTokenSymbol);\n    }\n\n    /**\n     *@dev Create pods\n     *\n     * Requirements:\n     *\n     * - pod id and symbol should not exist before.\n     */\n    function createMultiCreatorPod(string calldata podId, string calldata podTokenName, string calldata podTokenSymbol, string calldata baseURI, uint256 royaltyAmount, uint256[] memory royaltyShares, address[] memory creators) external returns (address podAddress){\n        // require(hasRole(MODERATOR_ROLE, _msgSender()), \"PRIVIPodERC721TokenFactory: must have MODERATOR_ROLE to create pod.\");\n        require(podTokenAddressesById[podId] == address(0), \"PRIVIPodERC721TokenFactory: Pod id already exists.\");\n        require(podTokenAddressesBySymbol[podTokenSymbol] == address(0), \"PRIVIPodERC721TokenFactory: Pod symbol already exists.\");\n        MultiCreatorNftManager multiCreatorManager = new MultiCreatorNftManager(creators, royaltyShares);\n        PRIVIPodERC721TokenRoyalty podToken = new PRIVIPodERC721TokenRoyalty(podTokenName, podTokenSymbol , baseURI, address(this), royaltyAmount, address(multiCreatorManager));\n        podAddress = address(podToken);\n        totalPodCreated.add(1);\n        podTokenAddressesById[podId] = podAddress;\n        podTokenAddressesBySymbol[podTokenSymbol] = podAddress;\n        IBridgeManager(bridgeManagerAddress).registerTokenERC721(podTokenName, podTokenSymbol, podAddress);\n        emit PodCreated(podId, podTokenName, podTokenSymbol);\n    }\n    \n    /**\n     * @dev Moderator will mint the amount of pod token for the investor's account\n     *\n     * Requirements:\n     *\n     * - the caller must MODERATOR_ROLE to perform this action.\n     */\n    function mintPodTokenById(string calldata podId, address account) external {\n        require(hasRole(MODERATOR_ROLE, _msgSender()), \"PRIVIPodERC721TokenRoyalty: must have MODERATOR_ROLE to invest for investor.\");\n        require(account != address(0), \"PRIVIPodERC721TokenRoyalty: Account address should not be zero.\");\n        PRIVIPodERC721TokenRoyalty(podTokenAddressesById[podId]).mint(account);\n    }\n\n    /**\n     * @dev Moderator will mint the amount of pod token for the investor's account\n     *\n     * Requirements:\n     *\n     * - the caller must MODERATOR_ROLE to perform this action.\n     */\n    function mintPodTokenBySymbol(string calldata tokenSymbol, address account) external {\n        require(hasRole(MODERATOR_ROLE, _msgSender()), \"PRIVIPodERC721TokenRoyalty: must have MODERATOR_ROLE to invest for investor.\");\n        require(account != address(0), \"PRIVIPodERC721TokenRoyalty: Account address should not be zero.\");\n        PRIVIPodERC721TokenRoyalty(podTokenAddressesBySymbol[tokenSymbol]).mint(account);\n    }\n    \n}",
  "sourcePath": "/home/rekard0/Documents/WORK/PriviEthereum/PRIVIethereum/contracts/PRIVIPodERC721RoyaltyFactory.sol",
  "compiler": {
    "name": "solc",
    "version": "0.8.0+commit.c7dfd78e.Emscripten.clang"
  },
  "schemaVersion": "3.3.3",
  "updatedAt": "2021-03-19T10:04:56.269Z",
  "networkType": "ethereum",
  "devdoc": {
    "kind": "dev",
    "methods": {
      "constructor": {
        "details": "Grants `DEFAULT_ADMIN_ROLE` and `MODERATOR_ROLE` to the account that deploys the contract."
      },
      "createMultiCreatorPod(string,string,string,string,uint256,uint256[],address[])": {
        "details": "Create pods Requirements: - pod id and symbol should not exist before."
      },
      "createPod(string,string,string,string,uint256,address)": {
        "details": "Create pods of one single creator Requirements: - pod id and pod symbol should not exist before."
      },
      "getRoleAdmin(bytes32)": {
        "details": "Returns the admin role that controls `role`. See {grantRole} and {revokeRole}. To change a role's admin, use {_setRoleAdmin}."
      },
      "grantRole(bytes32,address)": {
        "details": "Grants `role` to `account`. If `account` had not been already granted `role`, emits a {RoleGranted} event. Requirements: - the caller must have ``role``'s admin role."
      },
      "hasRole(bytes32,address)": {
        "details": "Returns `true` if `account` has been granted `role`."
      },
      "mintPodTokenById(string,address)": {
        "details": "Moderator will mint the amount of pod token for the investor's account Requirements: - the caller must MODERATOR_ROLE to perform this action."
      },
      "mintPodTokenBySymbol(string,address)": {
        "details": "Moderator will mint the amount of pod token for the investor's account Requirements: - the caller must MODERATOR_ROLE to perform this action."
      },
      "renounceRole(bytes32,address)": {
        "details": "Revokes `role` from the calling account. Roles are often managed via {grantRole} and {revokeRole}: this function's purpose is to provide a mechanism for accounts to lose their privileges if they are compromised (such as when a trusted device is misplaced). If the calling account had been granted `role`, emits a {RoleRevoked} event. Requirements: - the caller must be `account`."
      },
      "revokeRole(bytes32,address)": {
        "details": "Revokes `role` from `account`. If `account` had been granted `role`, emits a {RoleRevoked} event. Requirements: - the caller must have ``role``'s admin role."
      },
      "supportsInterface(bytes4)": {
        "details": "See {IERC165-supportsInterface}."
      }
    },
    "version": 1
  },
  "userdoc": {
    "kind": "user",
    "methods": {},
    "version": 1
  }
}