{
  "contractName": "PRIVIPodERC1155Token",
  "abi": [
    {
      "inputs": [
        {
          "internalType": "string",
          "name": "uri",
          "type": "string"
        },
        {
          "internalType": "address",
          "name": "factory",
          "type": "address"
        }
      ],
      "stateMutability": "nonpayable",
      "type": "constructor"
    },
    {
      "anonymous": false,
      "inputs": [
        {
          "indexed": true,
          "internalType": "address",
          "name": "account",
          "type": "address"
        },
        {
          "indexed": true,
          "internalType": "address",
          "name": "operator",
          "type": "address"
        },
        {
          "indexed": false,
          "internalType": "bool",
          "name": "approved",
          "type": "bool"
        }
      ],
      "name": "ApprovalForAll",
      "type": "event"
    },
    {
      "anonymous": false,
      "inputs": [
        {
          "indexed": true,
          "internalType": "address",
          "name": "operator",
          "type": "address"
        },
        {
          "indexed": true,
          "internalType": "address",
          "name": "from",
          "type": "address"
        },
        {
          "indexed": true,
          "internalType": "address",
          "name": "to",
          "type": "address"
        },
        {
          "indexed": false,
          "internalType": "uint256[]",
          "name": "ids",
          "type": "uint256[]"
        },
        {
          "indexed": false,
          "internalType": "uint256[]",
          "name": "values",
          "type": "uint256[]"
        }
      ],
      "name": "TransferBatch",
      "type": "event"
    },
    {
      "anonymous": false,
      "inputs": [
        {
          "indexed": true,
          "internalType": "address",
          "name": "operator",
          "type": "address"
        },
        {
          "indexed": true,
          "internalType": "address",
          "name": "from",
          "type": "address"
        },
        {
          "indexed": true,
          "internalType": "address",
          "name": "to",
          "type": "address"
        },
        {
          "indexed": false,
          "internalType": "uint256",
          "name": "id",
          "type": "uint256"
        },
        {
          "indexed": false,
          "internalType": "uint256",
          "name": "value",
          "type": "uint256"
        }
      ],
      "name": "TransferSingle",
      "type": "event"
    },
    {
      "anonymous": false,
      "inputs": [
        {
          "indexed": false,
          "internalType": "string",
          "name": "value",
          "type": "string"
        },
        {
          "indexed": true,
          "internalType": "uint256",
          "name": "id",
          "type": "uint256"
        }
      ],
      "name": "URI",
      "type": "event"
    },
    {
      "inputs": [
        {
          "internalType": "address",
          "name": "account",
          "type": "address"
        },
        {
          "internalType": "uint256",
          "name": "id",
          "type": "uint256"
        }
      ],
      "name": "balanceOf",
      "outputs": [
        {
          "internalType": "uint256",
          "name": "",
          "type": "uint256"
        }
      ],
      "stateMutability": "view",
      "type": "function"
    },
    {
      "inputs": [
        {
          "internalType": "address[]",
          "name": "accounts",
          "type": "address[]"
        },
        {
          "internalType": "uint256[]",
          "name": "ids",
          "type": "uint256[]"
        }
      ],
      "name": "balanceOfBatch",
      "outputs": [
        {
          "internalType": "uint256[]",
          "name": "",
          "type": "uint256[]"
        }
      ],
      "stateMutability": "view",
      "type": "function"
    },
    {
      "inputs": [
        {
          "internalType": "address",
          "name": "account",
          "type": "address"
        },
        {
          "internalType": "uint256",
          "name": "id",
          "type": "uint256"
        },
        {
          "internalType": "uint256",
          "name": "value",
          "type": "uint256"
        }
      ],
      "name": "burn",
      "outputs": [],
      "stateMutability": "nonpayable",
      "type": "function"
    },
    {
      "inputs": [
        {
          "internalType": "address",
          "name": "account",
          "type": "address"
        },
        {
          "internalType": "uint256[]",
          "name": "ids",
          "type": "uint256[]"
        },
        {
          "internalType": "uint256[]",
          "name": "values",
          "type": "uint256[]"
        }
      ],
      "name": "burnBatch",
      "outputs": [],
      "stateMutability": "nonpayable",
      "type": "function"
    },
    {
      "inputs": [
        {
          "internalType": "address",
          "name": "account",
          "type": "address"
        },
        {
          "internalType": "address",
          "name": "operator",
          "type": "address"
        }
      ],
      "name": "isApprovedForAll",
      "outputs": [
        {
          "internalType": "bool",
          "name": "",
          "type": "bool"
        }
      ],
      "stateMutability": "view",
      "type": "function"
    },
    {
      "inputs": [],
      "name": "parentFactory",
      "outputs": [
        {
          "internalType": "address",
          "name": "",
          "type": "address"
        }
      ],
      "stateMutability": "view",
      "type": "function"
    },
    {
      "inputs": [
        {
          "internalType": "address",
          "name": "from",
          "type": "address"
        },
        {
          "internalType": "address",
          "name": "to",
          "type": "address"
        },
        {
          "internalType": "uint256[]",
          "name": "ids",
          "type": "uint256[]"
        },
        {
          "internalType": "uint256[]",
          "name": "amounts",
          "type": "uint256[]"
        },
        {
          "internalType": "bytes",
          "name": "data",
          "type": "bytes"
        }
      ],
      "name": "safeBatchTransferFrom",
      "outputs": [],
      "stateMutability": "nonpayable",
      "type": "function"
    },
    {
      "inputs": [
        {
          "internalType": "address",
          "name": "from",
          "type": "address"
        },
        {
          "internalType": "address",
          "name": "to",
          "type": "address"
        },
        {
          "internalType": "uint256",
          "name": "id",
          "type": "uint256"
        },
        {
          "internalType": "uint256",
          "name": "amount",
          "type": "uint256"
        },
        {
          "internalType": "bytes",
          "name": "data",
          "type": "bytes"
        }
      ],
      "name": "safeTransferFrom",
      "outputs": [],
      "stateMutability": "nonpayable",
      "type": "function"
    },
    {
      "inputs": [
        {
          "internalType": "address",
          "name": "operator",
          "type": "address"
        },
        {
          "internalType": "bool",
          "name": "approved",
          "type": "bool"
        }
      ],
      "name": "setApprovalForAll",
      "outputs": [],
      "stateMutability": "nonpayable",
      "type": "function"
    },
    {
      "inputs": [
        {
          "internalType": "bytes4",
          "name": "interfaceId",
          "type": "bytes4"
        }
      ],
      "name": "supportsInterface",
      "outputs": [
        {
          "internalType": "bool",
          "name": "",
          "type": "bool"
        }
      ],
      "stateMutability": "view",
      "type": "function"
    },
    {
      "inputs": [
        {
          "internalType": "uint256",
          "name": "",
          "type": "uint256"
        }
      ],
      "name": "uri",
      "outputs": [
        {
          "internalType": "string",
          "name": "",
          "type": "string"
        }
      ],
      "stateMutability": "view",
      "type": "function"
    },
    {
      "inputs": [
        {
          "internalType": "address",
          "name": "to",
          "type": "address"
        },
        {
          "internalType": "uint256",
          "name": "id",
          "type": "uint256"
        },
        {
          "internalType": "uint256",
          "name": "amount",
          "type": "uint256"
        },
        {
          "internalType": "bytes",
          "name": "data",
          "type": "bytes"
        }
      ],
      "name": "mint",
      "outputs": [],
      "stateMutability": "nonpayable",
      "type": "function"
    },
    {
      "inputs": [
        {
          "internalType": "address",
          "name": "to",
          "type": "address"
        },
        {
          "internalType": "uint256[]",
          "name": "ids",
          "type": "uint256[]"
        },
        {
          "internalType": "uint256[]",
          "name": "amounts",
          "type": "uint256[]"
        },
        {
          "internalType": "bytes",
          "name": "data",
          "type": "bytes"
        }
      ],
      "name": "mintBatch",
      "outputs": [],
      "stateMutability": "nonpayable",
      "type": "function"
    }
  ],
  "bytecode": "0x60806040523480156200001157600080fd5b50604051620021e3380380620021e3833981016040819052620000349162000144565b81620000408162000068565b50600380546001600160a01b0319166001600160a01b0392909216919091179055506200027b565b80516200007d90600290602084019062000081565b5050565b8280546200008f9062000228565b90600052602060002090601f016020900481019282620000b35760008555620000fe565b82601f10620000ce57805160ff1916838001178555620000fe565b82800160010185558215620000fe579182015b82811115620000fe578251825591602001919060010190620000e1565b506200010c92915062000110565b5090565b5b808211156200010c576000815560010162000111565b80516001600160a01b03811681146200013f57600080fd5b919050565b6000806040838503121562000157578182fd5b82516001600160401b03808211156200016e578384fd5b818501915085601f83011262000182578384fd5b81518181111562000197576200019762000265565b6040516020601f8301601f1916820181018481118382101715620001bf57620001bf62000265565b6040528282528483018101891015620001d6578687fd5b8693505b82841015620001f95784840181015182850182015292830192620001da565b828411156200020a57868184840101525b8196506200021a81890162000127565b955050505050509250929050565b6002810460018216806200023d57607f821691505b602082108114156200025f57634e487b7160e01b600052602260045260246000fd5b50919050565b634e487b7160e01b600052604160045260246000fd5b611f58806200028b6000396000f3fe608060405234801561001057600080fd5b50600436106100de5760003560e01c80636b20c4541161008c578063a22cb46511610066578063a22cb465146101cf578063e985e9c5146101e2578063f242432a146101f5578063f5298aca14610208576100de565b80636b20c45414610194578063731133e9146101a75780639d35c161146101ba576100de565b80631f7fdffa116100bd5780631f7fdffa1461014c5780632eb2c2d6146101615780634e1273f414610174576100de565b8062fdd58e146100e357806301ffc9a71461010c5780630e89341c1461012c575b600080fd5b6100f66100f13660046115c8565b61021b565b6040516101039190611d48565b60405180910390f35b61011f61011a366004611734565b610272565b6040516101039190611906565b61013f61013a366004611773565b6102ba565b6040516101039190611911565b61015f61015a3660046114f9565b61034e565b005b61015f61016f36600461137f565b61039a565b610187610182366004611676565b610600565b60405161010391906118c5565b61015f6101a2366004611488565b610720565b61015f6101b5366004611623565b61077a565b6101c26107c0565b6040516101039190611810565b61015f6101dd36600461158e565b6107cf565b61011f6101f036600461134d565b61089d565b61015f610203366004611425565b6108cb565b61015f6102163660046115f1565b610a61565b60006001600160a01b03831661024c5760405162461bcd60e51b8152600401610243906119c9565b60405180910390fd5b506000908152602081815260408083206001600160a01b03949094168352929052205490565b60006001600160e01b03198216636cdb3d1360e11b14806102a357506001600160e01b031982166303a24d0760e21b145b806102b257506102b282610ab6565b90505b919050565b6060600280546102c990611ddc565b80601f01602080910402602001604051908101604052809291908181526020018280546102f590611ddc565b80156103425780601f1061031757610100808354040283529160200191610342565b820191906000526020600020905b81548152906001019060200180831161032557829003601f168201915b50505050509050919050565b6003546001600160a01b0316610362610acf565b6001600160a01b0316146103885760405162461bcd60e51b815260040161024390611aa1565b61039484848484610ad4565b50505050565b81518351146103bb5760405162461bcd60e51b815260040161024390611cbf565b6001600160a01b0384166103e15760405162461bcd60e51b815260040161024390611afe565b6103e9610acf565b6001600160a01b0316856001600160a01b0316148061040f575061040f856101f0610acf565b61042b5760405162461bcd60e51b815260040161024390611b43565b6000610435610acf565b9050610445818787878787610c5c565b60005b845181101561059257600085828151811061047357634e487b7160e01b600052603260045260246000fd5b60200260200101519050600085838151811061049f57634e487b7160e01b600052603260045260246000fd5b602090810291909101810151600084815280835260408082206001600160a01b038e1683529093529190912054909150818110156104ef5760405162461bcd60e51b815260040161024390611be3565b6104f98282611dc5565b60008085815260200190815260200160002060008c6001600160a01b03166001600160a01b03168152602001908152602001600020819055508160008085815260200190815260200160002060008b6001600160a01b03166001600160a01b0316815260200190815260200160002060008282546105779190611dad565b925050819055505050508061058b90611e17565b9050610448565b50846001600160a01b0316866001600160a01b0316826001600160a01b03167f4a39dc06d4c0dbc64b70af90fd698a233a518aa5d07e595d983b8c0526c8f7fb87876040516105e29291906118d8565b60405180910390a46105f8818787878787610c6a565b505050505050565b606081518351146106235760405162461bcd60e51b815260040161024390611c76565b6000835167ffffffffffffffff81111561064d57634e487b7160e01b600052604160045260246000fd5b604051908082528060200260200182016040528015610676578160200160208202803683370190505b50905060005b8451811015610718576106dd8582815181106106a857634e487b7160e01b600052603260045260246000fd5b60200260200101518583815181106106d057634e487b7160e01b600052603260045260246000fd5b602002602001015161021b565b8282815181106106fd57634e487b7160e01b600052603260045260246000fd5b602090810291909101015261071181611e17565b905061067c565b509392505050565b610728610acf565b6001600160a01b0316836001600160a01b0316148061074e575061074e836101f0610acf565b61076a5760405162461bcd60e51b815260040161024390611a58565b610775838383610d78565b505050565b6003546001600160a01b031661078e610acf565b6001600160a01b0316146107b45760405162461bcd60e51b815260040161024390611aa1565b61039484848484610f36565b6003546001600160a01b031681565b816001600160a01b03166107e1610acf565b6001600160a01b031614156108085760405162461bcd60e51b815260040161024390611c2d565b8060016000610815610acf565b6001600160a01b03908116825260208083019390935260409182016000908120918716808252919093529120805460ff191692151592909217909155610859610acf565b6001600160a01b03167f17307eab39ab6107e8899845ad3d59bd9653f200f220920489ca2b5937696c31836040516108919190611906565b60405180910390a35050565b6001600160a01b03918216600090815260016020908152604080832093909416825291909152205460ff1690565b6001600160a01b0384166108f15760405162461bcd60e51b815260040161024390611afe565b6108f9610acf565b6001600160a01b0316856001600160a01b0316148061091f575061091f856101f0610acf565b61093b5760405162461bcd60e51b815260040161024390611a58565b6000610945610acf565b905061096581878761095688611016565b61095f88611016565b87610c5c565b6000848152602081815260408083206001600160a01b038a168452909152902054838110156109a65760405162461bcd60e51b815260040161024390611be3565b6109b08482611dc5565b6000868152602081815260408083206001600160a01b038c811685529252808320939093558816815290812080548692906109ec908490611dad565b92505081905550856001600160a01b0316876001600160a01b0316836001600160a01b03167fc3d58168c5ae7397731d063d5bbf3d657854427343f4c083240f7aacaa2d0f628888604051610a42929190611d51565b60405180910390a4610a5882888888888861106f565b50505050505050565b610a69610acf565b6001600160a01b0316836001600160a01b03161480610a8f5750610a8f836101f0610acf565b610aab5760405162461bcd60e51b815260040161024390611a58565b610775838383611140565b6001600160e01b031981166301ffc9a760e01b14919050565b335b90565b6001600160a01b038416610afa5760405162461bcd60e51b815260040161024390611d07565b8151835114610b1b5760405162461bcd60e51b815260040161024390611cbf565b6000610b25610acf565b9050610b3681600087878787610c5c565b60005b8451811015610bed57838181518110610b6257634e487b7160e01b600052603260045260246000fd5b6020026020010151600080878481518110610b8d57634e487b7160e01b600052603260045260246000fd5b602002602001015181526020019081526020016000206000886001600160a01b03166001600160a01b031681526020019081526020016000206000828254610bd59190611dad565b90915550819050610be581611e17565b915050610b39565b50846001600160a01b031660006001600160a01b0316826001600160a01b03167f4a39dc06d4c0dbc64b70af90fd698a233a518aa5d07e595d983b8c0526c8f7fb8787604051610c3e9291906118d8565b60405180910390a4610c5581600087878787610c6a565b5050505050565b6105f88686868686866105f8565b610c7c846001600160a01b0316611259565b156105f85760405163bc197c8160e01b81526001600160a01b0385169063bc197c8190610cb59089908990889088908890600401611824565b602060405180830381600087803b158015610ccf57600080fd5b505af1925050508015610cff575060408051601f3d908101601f19168201909252610cfc91810190611757565b60015b610d4857610d0b611e64565b80610d165750610d30565b8060405162461bcd60e51b81526004016102439190611911565b60405162461bcd60e51b815260040161024390611924565b6001600160e01b0319811663bc197c8160e01b14610a585760405162461bcd60e51b815260040161024390611981565b6001600160a01b038316610d9e5760405162461bcd60e51b815260040161024390611ba0565b8051825114610dbf5760405162461bcd60e51b815260040161024390611cbf565b6000610dc9610acf565b9050610de981856000868660405180602001604052806000815250610c5c565b60005b8351811015610ed7576000848281518110610e1757634e487b7160e01b600052603260045260246000fd5b602002602001015190506000848381518110610e4357634e487b7160e01b600052603260045260246000fd5b602090810291909101810151600084815280835260408082206001600160a01b038c168352909352919091205490915081811015610e935760405162461bcd60e51b815260040161024390611a14565b610e9d8282611dc5565b6000938452602084815260408086206001600160a01b038c1687529091529093209290925550819050610ecf81611e17565b915050610dec565b5060006001600160a01b0316846001600160a01b0316826001600160a01b03167f4a39dc06d4c0dbc64b70af90fd698a233a518aa5d07e595d983b8c0526c8f7fb8686604051610f289291906118d8565b60405180910390a450505050565b6001600160a01b038416610f5c5760405162461bcd60e51b815260040161024390611d07565b6000610f66610acf565b9050610f788160008761095688611016565b6000848152602081815260408083206001600160a01b038916845290915281208054859290610fa8908490611dad565b92505081905550846001600160a01b031660006001600160a01b0316826001600160a01b03167fc3d58168c5ae7397731d063d5bbf3d657854427343f4c083240f7aacaa2d0f628787604051610fff929190611d51565b60405180910390a4610c558160008787878761106f565b6040805160018082528183019092526060916000919060208083019080368337019050509050828160008151811061105e57634e487b7160e01b600052603260045260246000fd5b602090810291909101015292915050565b611081846001600160a01b0316611259565b156105f85760405163f23a6e6160e01b81526001600160a01b0385169063f23a6e61906110ba9089908990889088908890600401611882565b602060405180830381600087803b1580156110d457600080fd5b505af1925050508015611104575060408051601f3d908101601f1916820190925261110191810190611757565b60015b61111057610d0b611e64565b6001600160e01b0319811663f23a6e6160e01b14610a585760405162461bcd60e51b815260040161024390611981565b6001600160a01b0383166111665760405162461bcd60e51b815260040161024390611ba0565b6000611170610acf565b90506111a08185600061118287611016565b61118b87611016565b60405180602001604052806000815250610c5c565b6000838152602081815260408083206001600160a01b0388168452909152902054828110156111e15760405162461bcd60e51b815260040161024390611a14565b6111eb8382611dc5565b6000858152602081815260408083206001600160a01b03808b16808652919093528184209490945551919291908516907fc3d58168c5ae7397731d063d5bbf3d657854427343f4c083240f7aacaa2d0f629061124a9089908990611d51565b60405180910390a45050505050565b3b151590565b80356001600160a01b03811681146102b557600080fd5b600082601f830112611286578081fd5b8135602061129b61129683611d89565b611d5f565b82815281810190858301838502870184018810156112b7578586fd5b855b858110156112d5578135845292840192908401906001016112b9565b5090979650505050505050565b600082601f8301126112f2578081fd5b813567ffffffffffffffff81111561130c5761130c611e48565b61131f601f8201601f1916602001611d5f565b818152846020838601011115611333578283fd5b816020850160208301379081016020019190915292915050565b6000806040838503121561135f578182fd5b6113688361125f565b91506113766020840161125f565b90509250929050565b600080600080600060a08688031215611396578081fd5b61139f8661125f565b94506113ad6020870161125f565b9350604086013567ffffffffffffffff808211156113c9578283fd5b6113d589838a01611276565b945060608801359150808211156113ea578283fd5b6113f689838a01611276565b9350608088013591508082111561140b578283fd5b50611418888289016112e2565b9150509295509295909350565b600080600080600060a0868803121561143c578081fd5b6114458661125f565b94506114536020870161125f565b93506040860135925060608601359150608086013567ffffffffffffffff81111561147c578182fd5b611418888289016112e2565b60008060006060848603121561149c578283fd5b6114a58461125f565b9250602084013567ffffffffffffffff808211156114c1578384fd5b6114cd87838801611276565b935060408601359150808211156114e2578283fd5b506114ef86828701611276565b9150509250925092565b6000806000806080858703121561150e578384fd5b6115178561125f565b9350602085013567ffffffffffffffff80821115611533578485fd5b61153f88838901611276565b94506040870135915080821115611554578384fd5b61156088838901611276565b93506060870135915080821115611575578283fd5b50611582878288016112e2565b91505092959194509250565b600080604083850312156115a0578182fd5b6115a98361125f565b9150602083013580151581146115bd578182fd5b809150509250929050565b600080604083850312156115da578182fd5b6115e38361125f565b946020939093013593505050565b600080600060608486031215611605578283fd5b61160e8461125f565b95602085013595506040909401359392505050565b60008060008060808587031215611638578182fd5b6116418561125f565b93506020850135925060408501359150606085013567ffffffffffffffff81111561166a578182fd5b611582878288016112e2565b60008060408385031215611688578182fd5b823567ffffffffffffffff8082111561169f578384fd5b818501915085601f8301126116b2578384fd5b813560206116c261129683611d89565b82815281810190858301838502870184018b10156116de578889fd5b8896505b84871015611707576116f38161125f565b8352600196909601959183019183016116e2565b509650508601359250508082111561171d578283fd5b5061172a85828601611276565b9150509250929050565b600060208284031215611745578081fd5b813561175081611f09565b9392505050565b600060208284031215611768578081fd5b815161175081611f09565b600060208284031215611784578081fd5b5035919050565b6000815180845260208085019450808401835b838110156117ba5781518752958201959082019060010161179e565b509495945050505050565b60008151808452815b818110156117ea576020818501810151868301820152016117ce565b818111156117fb5782602083870101525b50601f01601f19169290920160200192915050565b6001600160a01b0391909116815260200190565b60006001600160a01b03808816835280871660208401525060a0604083015261185060a083018661178b565b8281036060840152611862818661178b565b9050828103608084015261187681856117c5565b98975050505050505050565b60006001600160a01b03808816835280871660208401525084604083015283606083015260a060808301526118ba60a08301846117c5565b979650505050505050565b600060208252611750602083018461178b565b6000604082526118eb604083018561178b565b82810360208401526118fd818561178b565b95945050505050565b901515815260200190565b60006020825261175060208301846117c5565b60208082526034908201527f455243313135353a207472616e7366657220746f206e6f6e204552433131353560408201527f526563656976657220696d706c656d656e746572000000000000000000000000606082015260800190565b60208082526028908201527f455243313135353a204552433131353552656365697665722072656a656374656040820152676420746f6b656e7360c01b606082015260800190565b6020808252602b908201527f455243313135353a2062616c616e636520717565727920666f7220746865207a60408201526a65726f206164647265737360a81b606082015260800190565b60208082526024908201527f455243313135353a206275726e20616d6f756e7420657863656564732062616c604082015263616e636560e01b606082015260800190565b60208082526029908201527f455243313135353a2063616c6c6572206973206e6f74206f776e6572206e6f7260408201526808185c1c1c9bdd995960ba1b606082015260800190565b6020808252603a908201527f5052495649506f6445524331313535546f6b656e3a204f6e6c7920466163746f60408201527f72792063616e2063616c6c20746869732066756e6374696f6e2e000000000000606082015260800190565b60208082526025908201527f455243313135353a207472616e7366657220746f20746865207a65726f206164604082015264647265737360d81b606082015260800190565b60208082526032908201527f455243313135353a207472616e736665722063616c6c6572206973206e6f742060408201527f6f776e6572206e6f7220617070726f7665640000000000000000000000000000606082015260800190565b60208082526023908201527f455243313135353a206275726e2066726f6d20746865207a65726f206164647260408201526265737360e81b606082015260800190565b6020808252602a908201527f455243313135353a20696e73756666696369656e742062616c616e636520666f60408201526939103a3930b739b332b960b11b606082015260800190565b60208082526029908201527f455243313135353a2073657474696e6720617070726f76616c20737461747573604082015268103337b91039b2b63360b91b606082015260800190565b60208082526029908201527f455243313135353a206163636f756e747320616e6420696473206c656e677468604082015268040dad2e6dac2e8c6d60bb1b606082015260800190565b60208082526028908201527f455243313135353a2069647320616e6420616d6f756e7473206c656e677468206040820152670dad2e6dac2e8c6d60c31b606082015260800190565b60208082526021908201527f455243313135353a206d696e7420746f20746865207a65726f206164647265736040820152607360f81b606082015260800190565b90815260200190565b918252602082015260400190565b60405181810167ffffffffffffffff81118282101715611d8157611d81611e48565b604052919050565b600067ffffffffffffffff821115611da357611da3611e48565b5060209081020190565b60008219821115611dc057611dc0611e32565b500190565b600082821015611dd757611dd7611e32565b500390565b600281046001821680611df057607f821691505b60208210811415611e1157634e487b7160e01b600052602260045260246000fd5b50919050565b6000600019821415611e2b57611e2b611e32565b5060010190565b634e487b7160e01b600052601160045260246000fd5b634e487b7160e01b600052604160045260246000fd5b60e01c90565b600060443d1015611e7457610ad1565b600481823e6308c379a0611e888251611e5e565b14611e9257610ad1565b6040513d600319016004823e80513d67ffffffffffffffff8160248401118184111715611ec25750505050610ad1565b82840192508251915080821115611edc5750505050610ad1565b503d83016020828401011115611ef457505050610ad1565b601f01601f1916810160200160405291505090565b6001600160e01b031981168114611f1f57600080fd5b5056fea26469706673582212209d2f97e2eead905280c2e9a26de9f00a9a08c6764a3df045ebc2be312ca3f8a664736f6c63430008000033",
  "immutableReferences": {},
  "source": "// SPDX-License-Identifier: MIT\n\npragma solidity ^0.8.0;\n\nimport \"@openzeppelin/contracts/access/AccessControl.sol\";\nimport \"@openzeppelin/contracts/utils/Context.sol\";\nimport \"@openzeppelin/contracts/token/ERC1155/ERC1155.sol\";\nimport \"@openzeppelin/contracts/token/ERC1155/extensions/ERC1155Burnable.sol\";\n\n/**\n * @dev {ERC1155} token, including:\n *\n *  - ability for holders to burn (destroy) their tokens\n *  - a factoryOnly modifier, that grants mint capabilities only to factory who deployed theis pod token contract\n */\ncontract PRIVIPodERC1155Token is Context, ERC1155Burnable {\n  address public parentFactory;\n\n  /**\n   * @dev Sets factory address\n   * deploys the contract.\n   */\n  constructor(string memory uri, address factory) ERC1155(uri) {\n    parentFactory = factory;\n  }\n\n  modifier onlyFactory() {\n    require(\n      _msgSender() == parentFactory,\n      \"PRIVIPodERC1155Token: Only Factory can call this function.\"\n    );\n    _;\n  }\n\n  /**\n   * @dev Creates `amount` new tokens for `to`, of token type `id`.\n   *\n   * See {ERC1155-_mint}.\n   *\n   * Requirements:\n   *\n   * - the caller must be factory only.\n   */\n  function mint(\n    address to,\n    uint256 id,\n    uint256 amount,\n    bytes memory data\n  ) public virtual onlyFactory {\n    _mint(to, id, amount, data);\n  }\n\n  /**\n   * @dev Creates `amount` new tokens for `to`, of token type `id`.\n   *\n   * See {ERC1155-_mint}.\n   *\n   * Requirements:\n   *\n   * - the caller must be factory only.\n   */\n  function mintBatch(\n    address to,\n    uint256[] memory ids,\n    uint256[] memory amounts,\n    bytes memory data\n  ) public virtual onlyFactory {\n    _mintBatch(to, ids, amounts, data);\n  }\n\n  function _beforeTokenTransfer(\n    address operator,\n    address from,\n    address to,\n    uint256[] memory ids,\n    uint256[] memory amounts,\n    bytes memory data\n  ) internal virtual override(ERC1155) {\n    super._beforeTokenTransfer(operator, from, to, ids, amounts, data);\n  }\n}\n",
  "sourcePath": "/home/rekard0/Documents/WORK/PriviEthereum/PRIVIethereum/contracts/token/PRIVIPodERC1155Token.sol",
  "compiler": {
    "name": "solc",
    "version": "0.8.0+commit.c7dfd78e.Emscripten.clang"
  },
  "schemaVersion": "3.3.3",
  "updatedAt": "2021-03-19T09:16:11.355Z",
  "devdoc": {
    "details": "{ERC1155} token, including:  - ability for holders to burn (destroy) their tokens  - a factoryOnly modifier, that grants mint capabilities only to factory who deployed theis pod token contract",
    "kind": "dev",
    "methods": {
      "balanceOf(address,uint256)": {
        "details": "See {IERC1155-balanceOf}. Requirements: - `account` cannot be the zero address."
      },
      "balanceOfBatch(address[],uint256[])": {
        "details": "See {IERC1155-balanceOfBatch}. Requirements: - `accounts` and `ids` must have the same length."
      },
      "constructor": {
        "details": "Sets factory address deploys the contract."
      },
      "isApprovedForAll(address,address)": {
        "details": "See {IERC1155-isApprovedForAll}."
      },
      "mint(address,uint256,uint256,bytes)": {
        "details": "Creates `amount` new tokens for `to`, of token type `id`. See {ERC1155-_mint}. Requirements: - the caller must be factory only."
      },
      "mintBatch(address,uint256[],uint256[],bytes)": {
        "details": "Creates `amount` new tokens for `to`, of token type `id`. See {ERC1155-_mint}. Requirements: - the caller must be factory only."
      },
      "safeBatchTransferFrom(address,address,uint256[],uint256[],bytes)": {
        "details": "See {IERC1155-safeBatchTransferFrom}."
      },
      "safeTransferFrom(address,address,uint256,uint256,bytes)": {
        "details": "See {IERC1155-safeTransferFrom}."
      },
      "setApprovalForAll(address,bool)": {
        "details": "See {IERC1155-setApprovalForAll}."
      },
      "supportsInterface(bytes4)": {
        "details": "See {IERC165-supportsInterface}."
      },
      "uri(uint256)": {
        "details": "See {IERC1155MetadataURI-uri}. This implementation returns the same URI for *all* token types. It relies on the token type ID substitution mechanism https://eips.ethereum.org/EIPS/eip-1155#metadata[defined in the EIP]. Clients calling this function must replace the `\\{id\\}` substring with the actual token type ID."
      }
    },
    "version": 1
  },
  "userdoc": {
    "kind": "user",
    "methods": {},
    "version": 1
  }
}