{
  "contractName": "SwapManager",
  "abi": [
    {
      "inputs": [
        {
          "internalType": "address",
          "name": "bridgeDeployedAddress",
          "type": "address"
        },
        {
          "internalType": "address",
          "name": "erc20FactoryDeployedAddress",
          "type": "address"
        },
        {
          "internalType": "address",
          "name": "erc721FactoryDeployedAddress",
          "type": "address"
        },
        {
          "internalType": "address",
          "name": "erc1155FactoryDeployedAddress",
          "type": "address"
        }
      ],
      "stateMutability": "nonpayable",
      "type": "constructor"
    },
    {
      "anonymous": false,
      "inputs": [
        {
          "indexed": true,
          "internalType": "string",
          "name": "tokenURI",
          "type": "string"
        },
        {
          "indexed": false,
          "internalType": "address",
          "name": "to",
          "type": "address"
        },
        {
          "indexed": false,
          "internalType": "uint256",
          "name": "tokenId",
          "type": "uint256"
        },
        {
          "indexed": false,
          "internalType": "uint256",
          "name": "amount",
          "type": "uint256"
        }
      ],
      "name": "DepositERC1155Token",
      "type": "event"
    },
    {
      "anonymous": false,
      "inputs": [
        {
          "indexed": true,
          "internalType": "string",
          "name": "tokenSymbol",
          "type": "string"
        },
        {
          "indexed": false,
          "internalType": "address",
          "name": "from",
          "type": "address"
        },
        {
          "indexed": false,
          "internalType": "uint256",
          "name": "amount",
          "type": "uint256"
        }
      ],
      "name": "DepositERC20Token",
      "type": "event"
    },
    {
      "anonymous": false,
      "inputs": [
        {
          "indexed": true,
          "internalType": "string",
          "name": "tokenSymbol",
          "type": "string"
        },
        {
          "indexed": false,
          "internalType": "address",
          "name": "from",
          "type": "address"
        },
        {
          "indexed": false,
          "internalType": "uint256",
          "name": "amount",
          "type": "uint256"
        }
      ],
      "name": "DepositERC721Token",
      "type": "event"
    },
    {
      "anonymous": false,
      "inputs": [
        {
          "indexed": true,
          "internalType": "address",
          "name": "from",
          "type": "address"
        },
        {
          "indexed": false,
          "internalType": "uint256",
          "name": "amount",
          "type": "uint256"
        }
      ],
      "name": "DepositEther",
      "type": "event"
    },
    {
      "anonymous": false,
      "inputs": [
        {
          "indexed": true,
          "internalType": "bytes32",
          "name": "role",
          "type": "bytes32"
        },
        {
          "indexed": true,
          "internalType": "bytes32",
          "name": "previousAdminRole",
          "type": "bytes32"
        },
        {
          "indexed": true,
          "internalType": "bytes32",
          "name": "newAdminRole",
          "type": "bytes32"
        }
      ],
      "name": "RoleAdminChanged",
      "type": "event"
    },
    {
      "anonymous": false,
      "inputs": [
        {
          "indexed": true,
          "internalType": "bytes32",
          "name": "role",
          "type": "bytes32"
        },
        {
          "indexed": true,
          "internalType": "address",
          "name": "account",
          "type": "address"
        },
        {
          "indexed": true,
          "internalType": "address",
          "name": "sender",
          "type": "address"
        }
      ],
      "name": "RoleGranted",
      "type": "event"
    },
    {
      "anonymous": false,
      "inputs": [
        {
          "indexed": true,
          "internalType": "bytes32",
          "name": "role",
          "type": "bytes32"
        },
        {
          "indexed": true,
          "internalType": "address",
          "name": "account",
          "type": "address"
        },
        {
          "indexed": true,
          "internalType": "address",
          "name": "sender",
          "type": "address"
        }
      ],
      "name": "RoleRevoked",
      "type": "event"
    },
    {
      "anonymous": false,
      "inputs": [
        {
          "indexed": true,
          "internalType": "string",
          "name": "tokenURI",
          "type": "string"
        },
        {
          "indexed": false,
          "internalType": "address",
          "name": "to",
          "type": "address"
        },
        {
          "indexed": false,
          "internalType": "uint256",
          "name": "tokenId",
          "type": "uint256"
        },
        {
          "indexed": false,
          "internalType": "uint256",
          "name": "amount",
          "type": "uint256"
        }
      ],
      "name": "WithdrawERC1155Token",
      "type": "event"
    },
    {
      "anonymous": false,
      "inputs": [
        {
          "indexed": true,
          "internalType": "string",
          "name": "tokenSymbol",
          "type": "string"
        },
        {
          "indexed": false,
          "internalType": "address",
          "name": "to",
          "type": "address"
        },
        {
          "indexed": false,
          "internalType": "uint256",
          "name": "amount",
          "type": "uint256"
        }
      ],
      "name": "WithdrawERC20Token",
      "type": "event"
    },
    {
      "anonymous": false,
      "inputs": [
        {
          "indexed": true,
          "internalType": "string",
          "name": "tokenSymbol",
          "type": "string"
        },
        {
          "indexed": false,
          "internalType": "address",
          "name": "to",
          "type": "address"
        },
        {
          "indexed": false,
          "internalType": "uint256",
          "name": "tokenId",
          "type": "uint256"
        }
      ],
      "name": "WithdrawERC721Token",
      "type": "event"
    },
    {
      "anonymous": false,
      "inputs": [
        {
          "indexed": true,
          "internalType": "address",
          "name": "to",
          "type": "address"
        },
        {
          "indexed": false,
          "internalType": "uint256",
          "name": "amount",
          "type": "uint256"
        }
      ],
      "name": "WithdrawEther",
      "type": "event"
    },
    {
      "inputs": [],
      "name": "DEFAULT_ADMIN_ROLE",
      "outputs": [
        {
          "internalType": "bytes32",
          "name": "",
          "type": "bytes32"
        }
      ],
      "stateMutability": "view",
      "type": "function"
    },
    {
      "inputs": [],
      "name": "TRANSFER_ROLE",
      "outputs": [
        {
          "internalType": "bytes32",
          "name": "",
          "type": "bytes32"
        }
      ],
      "stateMutability": "view",
      "type": "function"
    },
    {
      "inputs": [],
      "name": "bridgeManagerAddress",
      "outputs": [
        {
          "internalType": "address",
          "name": "",
          "type": "address"
        }
      ],
      "stateMutability": "view",
      "type": "function"
    },
    {
      "inputs": [],
      "name": "erc1155FactoryAddress",
      "outputs": [
        {
          "internalType": "address",
          "name": "",
          "type": "address"
        }
      ],
      "stateMutability": "view",
      "type": "function"
    },
    {
      "inputs": [],
      "name": "erc20FactoryAddress",
      "outputs": [
        {
          "internalType": "address",
          "name": "",
          "type": "address"
        }
      ],
      "stateMutability": "view",
      "type": "function"
    },
    {
      "inputs": [],
      "name": "erc721FactoryAddress",
      "outputs": [
        {
          "internalType": "address",
          "name": "",
          "type": "address"
        }
      ],
      "stateMutability": "view",
      "type": "function"
    },
    {
      "inputs": [
        {
          "internalType": "bytes32",
          "name": "role",
          "type": "bytes32"
        }
      ],
      "name": "getRoleAdmin",
      "outputs": [
        {
          "internalType": "bytes32",
          "name": "",
          "type": "bytes32"
        }
      ],
      "stateMutability": "view",
      "type": "function"
    },
    {
      "inputs": [
        {
          "internalType": "bytes32",
          "name": "role",
          "type": "bytes32"
        },
        {
          "internalType": "uint256",
          "name": "index",
          "type": "uint256"
        }
      ],
      "name": "getRoleMember",
      "outputs": [
        {
          "internalType": "address",
          "name": "",
          "type": "address"
        }
      ],
      "stateMutability": "view",
      "type": "function"
    },
    {
      "inputs": [
        {
          "internalType": "bytes32",
          "name": "role",
          "type": "bytes32"
        }
      ],
      "name": "getRoleMemberCount",
      "outputs": [
        {
          "internalType": "uint256",
          "name": "",
          "type": "uint256"
        }
      ],
      "stateMutability": "view",
      "type": "function"
    },
    {
      "inputs": [
        {
          "internalType": "bytes32",
          "name": "role",
          "type": "bytes32"
        },
        {
          "internalType": "address",
          "name": "account",
          "type": "address"
        }
      ],
      "name": "grantRole",
      "outputs": [],
      "stateMutability": "nonpayable",
      "type": "function"
    },
    {
      "inputs": [
        {
          "internalType": "bytes32",
          "name": "role",
          "type": "bytes32"
        },
        {
          "internalType": "address",
          "name": "account",
          "type": "address"
        }
      ],
      "name": "hasRole",
      "outputs": [
        {
          "internalType": "bool",
          "name": "",
          "type": "bool"
        }
      ],
      "stateMutability": "view",
      "type": "function"
    },
    {
      "inputs": [
        {
          "internalType": "bytes32",
          "name": "role",
          "type": "bytes32"
        },
        {
          "internalType": "address",
          "name": "account",
          "type": "address"
        }
      ],
      "name": "renounceRole",
      "outputs": [],
      "stateMutability": "nonpayable",
      "type": "function"
    },
    {
      "inputs": [
        {
          "internalType": "bytes32",
          "name": "role",
          "type": "bytes32"
        },
        {
          "internalType": "address",
          "name": "account",
          "type": "address"
        }
      ],
      "name": "revokeRole",
      "outputs": [],
      "stateMutability": "nonpayable",
      "type": "function"
    },
    {
      "inputs": [
        {
          "internalType": "string",
          "name": "tokenSymbol",
          "type": "string"
        },
        {
          "internalType": "uint256",
          "name": "amount",
          "type": "uint256"
        }
      ],
      "name": "depositERC20Token",
      "outputs": [],
      "stateMutability": "nonpayable",
      "type": "function"
    },
    {
      "inputs": [
        {
          "internalType": "string",
          "name": "tokenSymbol",
          "type": "string"
        },
        {
          "internalType": "address",
          "name": "to",
          "type": "address"
        },
        {
          "internalType": "uint256",
          "name": "amount",
          "type": "uint256"
        }
      ],
      "name": "withdrawERC20Token",
      "outputs": [],
      "stateMutability": "nonpayable",
      "type": "function"
    },
    {
      "inputs": [
        {
          "internalType": "string",
          "name": "tokenSymbol",
          "type": "string"
        },
        {
          "internalType": "uint256",
          "name": "tokenId",
          "type": "uint256"
        }
      ],
      "name": "depositERC721Token",
      "outputs": [],
      "stateMutability": "nonpayable",
      "type": "function"
    },
    {
      "inputs": [
        {
          "internalType": "string",
          "name": "tokenSymbol",
          "type": "string"
        },
        {
          "internalType": "address",
          "name": "to",
          "type": "address"
        },
        {
          "internalType": "uint256",
          "name": "tokenId",
          "type": "uint256"
        },
        {
          "internalType": "bool",
          "name": "isPodMint",
          "type": "bool"
        }
      ],
      "name": "withdrawERC721Token",
      "outputs": [],
      "stateMutability": "nonpayable",
      "type": "function"
    },
    {
      "inputs": [
        {
          "internalType": "string",
          "name": "tokenURI",
          "type": "string"
        },
        {
          "internalType": "address",
          "name": "to",
          "type": "address"
        },
        {
          "internalType": "uint256",
          "name": "tokenId",
          "type": "uint256"
        },
        {
          "internalType": "uint256",
          "name": "amount",
          "type": "uint256"
        },
        {
          "internalType": "bytes",
          "name": "data",
          "type": "bytes"
        }
      ],
      "name": "depositERC1155Token",
      "outputs": [],
      "stateMutability": "nonpayable",
      "type": "function"
    },
    {
      "inputs": [
        {
          "internalType": "string",
          "name": "tokenURI",
          "type": "string"
        },
        {
          "internalType": "address",
          "name": "to",
          "type": "address"
        },
        {
          "internalType": "uint256",
          "name": "tokenId",
          "type": "uint256"
        },
        {
          "internalType": "uint256",
          "name": "amount",
          "type": "uint256"
        },
        {
          "internalType": "bytes",
          "name": "data",
          "type": "bytes"
        }
      ],
      "name": "withdrawERC1155Token",
      "outputs": [],
      "stateMutability": "nonpayable",
      "type": "function"
    },
    {
      "inputs": [],
      "name": "depositEther",
      "outputs": [],
      "stateMutability": "payable",
      "type": "function"
    },
    {
      "inputs": [
        {
          "internalType": "address",
          "name": "to",
          "type": "address"
        },
        {
          "internalType": "uint256",
          "name": "amount",
          "type": "uint256"
        }
      ],
      "name": "withdrawEther",
      "outputs": [],
      "stateMutability": "nonpayable",
      "type": "function"
    },
    {
      "inputs": [],
      "name": "getBalance",
      "outputs": [
        {
          "internalType": "uint256",
          "name": "",
          "type": "uint256"
        }
      ],
      "stateMutability": "view",
      "type": "function"
    }
  ],
  "bytecode": "0x6080604052600180546001600160a01b03191690553480156200002157600080fd5b5060405162002a4238038062002a42833981810160405260808110156200004757600080fd5b50805160208201516040830151606090930151919290916200007460006200006e620000f7565b620000fb565b620000a37f8502233096d909befbda0999bb8ea2f3a6be3c138b9fbf003752a4c8bce86f6c6200006e620000f7565b600280546001600160a01b039586166001600160a01b03199182161790915560038054948616948216949094179093556004805492851692841692909217909155600580549190931691161790556200020b565b3390565b6200010782826200010b565b5050565b600082815260208181526040909120620001309183906200225262000184821b17901c565b15620001075762000140620000f7565b6001600160a01b0316816001600160a01b0316837f2f8788117e7eff1d82e926ec794901d17c78024a50270940304540a733656f0d60405160405180910390a45050565b60006200019b836001600160a01b038416620001a4565b90505b92915050565b6000620001b28383620001f3565b620001ea575081546001818101845560008481526020808220909301849055845484825282860190935260409020919091556200019e565b5060006200019e565b60009081526001919091016020526040902054151590565b612827806200021b6000396000f3fe6080604052600436106101555760003560e01c806391d14854116100bb578063ca15c8731161007f578063d547741f11610059578063d547741f14610744578063e792b1941461077d578063e7f3ec381461079257610155565b8063ca15c87314610574578063d1af27c41461059e578063d406e1031461062857610155565b806391d14854146103d957806398ea5fca14610426578063a217fddf1461042e578063bb51fc9714610443578063c768b17c1461055f57610155565b80632f2ff15d1161011d578063522f6815116100f7578063522f6815146102f55780637de2c6261461032e5780639010d07c146103a957610155565b80632f2ff15d1461020657806336568abe14610241578063412991cb1461027a57610155565b806312065fe01461015a578063206b60f914610181578063248a9ca3146101965780632dc06709146101c05780632f1d4671146101f1575b600080fd5b34801561016657600080fd5b5061016f610824565b60408051918252519081900360200190f35b34801561018d57600080fd5b5061016f610829565b3480156101a257600080fd5b5061016f600480360360208110156101b957600080fd5b503561084d565b3480156101cc57600080fd5b506101d5610862565b604080516001600160a01b039092168252519081900360200190f35b3480156101fd57600080fd5b506101d5610871565b34801561021257600080fd5b5061023f6004803603604081101561022957600080fd5b50803590602001356001600160a01b0316610880565b005b34801561024d57600080fd5b5061023f6004803603604081101561026457600080fd5b50803590602001356001600160a01b03166108ec565b34801561028657600080fd5b5061023f6004803603604081101561029d57600080fd5b810190602081018135600160201b8111156102b757600080fd5b8201836020820111156102c957600080fd5b803590602001918460018302840111600160201b831117156102ea57600080fd5b91935091503561094d565b34801561030157600080fd5b5061023f6004803603604081101561031857600080fd5b506001600160a01b038135169060200135610bf8565b34801561033a57600080fd5b5061023f6004803603604081101561035157600080fd5b810190602081018135600160201b81111561036b57600080fd5b82018360208201111561037d57600080fd5b803590602001918460018302840111600160201b8311171561039e57600080fd5b919350915035610e76565b3480156103b557600080fd5b506101d5600480360360408110156103cc57600080fd5b508035906020013561111f565b3480156103e557600080fd5b50610412600480360360408110156103fc57600080fd5b50803590602001356001600160a01b0316611140565b604080519115158252519081900360200190f35b61023f611158565b34801561043a57600080fd5b5061016f6111e1565b34801561044f57600080fd5b5061023f600480360360a081101561046657600080fd5b810190602081018135600160201b81111561048057600080fd5b82018360208201111561049257600080fd5b803590602001918460018302840111600160201b831117156104b357600080fd5b919390926001600160a01b03833516926020810135926040820135929091608081019060600135600160201b8111156104eb57600080fd5b8201836020820111156104fd57600080fd5b803590602001918460018302840111600160201b8311171561051e57600080fd5b91908080601f0160208091040260200160405190810160405280939291908181526020018383808284376000920191909152509295506111e6945050505050565b34801561056b57600080fd5b506101d5611513565b34801561058057600080fd5b5061016f6004803603602081101561059757600080fd5b5035611522565b3480156105aa57600080fd5b5061023f600480360360608110156105c157600080fd5b810190602081018135600160201b8111156105db57600080fd5b8201836020820111156105ed57600080fd5b803590602001918460018302840111600160201b8311171561060e57600080fd5b91935091506001600160a01b038135169060200135611539565b34801561063457600080fd5b5061023f600480360360a081101561064b57600080fd5b810190602081018135600160201b81111561066557600080fd5b82018360208201111561067757600080fd5b803590602001918460018302840111600160201b8311171561069857600080fd5b919390926001600160a01b03833516926020810135926040820135929091608081019060600135600160201b8111156106d057600080fd5b8201836020820111156106e257600080fd5b803590602001918460018302840111600160201b8311171561070357600080fd5b91908080601f016020809104026020016040519081016040528093929190818152602001838380828437600092019190915250929550611ab2945050505050565b34801561075057600080fd5b5061023f6004803603604081101561076757600080fd5b50803590602001356001600160a01b0316611dc0565b34801561078957600080fd5b506101d5611e19565b34801561079e57600080fd5b5061023f600480360360808110156107b557600080fd5b810190602081018135600160201b8111156107cf57600080fd5b8201836020820111156107e157600080fd5b803590602001918460018302840111600160201b8311171561080257600080fd5b91935091506001600160a01b0381351690602081013590604001351515611e28565b303190565b7f8502233096d909befbda0999bb8ea2f3a6be3c138b9fbf003752a4c8bce86f6c81565b60009081526020819052604090206002015490565b6004546001600160a01b031681565b6005546001600160a01b031681565b6000828152602081905260409020600201546108a39061089e612267565b611140565b6108de5760405162461bcd60e51b815260040180806020018281038252602f815260200180612531602f913960400191505060405180910390fd5b6108e8828261226b565b5050565b6108f4612267565b6001600160a01b0316816001600160a01b0316146109435760405162461bcd60e51b815260040180806020018281038252602f8152602001806127c3602f913960400191505060405180910390fd5b6108e882826122d4565b60025460405163122acfb560e31b8152602060048201908152602482018590526001600160a01b039092169160009183916391567da891889188918190604401848480828437600083820152604051601f909101601f191690920195506020945090925050508083038186803b1580156109c657600080fd5b505afa1580156109da573d6000803e3d6000fd5b505050506040513d60208110156109f057600080fd5b50516001549091506001600160a01b0380831691161415610a425760405162461bcd60e51b81526004018080602001828103825260368152602001806125f16036913960400191505060405180910390fd5b306001600160a01b0316816001600160a01b031663081812fc856040518263ffffffff1660e01b81526004018082815260200191505060206040518083038186803b158015610a9057600080fd5b505afa158015610aa4573d6000803e3d6000fd5b505050506040513d6020811015610aba57600080fd5b50516001600160a01b031614610b015760405162461bcd60e51b81526004018080602001828103825260498152602001806126c36049913960600191505060405180910390fd5b806001600160a01b03166323b872dd610b18612267565b30866040518463ffffffff1660e01b815260040180846001600160a01b03168152602001836001600160a01b031681526020018281526020019350505050600060405180830381600087803b158015610b7057600080fd5b505af1158015610b84573d6000803e3d6000fd5b50505050848460405180838380828437808301925050509250505060405180910390207ff0218d2f738513bea289b1b8ca83d8241a1060f13280602f9b7ff8e3598d4c83610bd0612267565b604080516001600160a01b039092168252602082018790528051918290030190a25050505050565b610c247f8502233096d909befbda0999bb8ea2f3a6be3c138b9fbf003752a4c8bce86f6c61089e612267565b610c5f5760405162461bcd60e51b81526004018080602001828103825260338152602001806126906033913960400191505060405180910390fd5b3031811115610c9f5760405162461bcd60e51b81526004018080602001828103825260398152602001806126576039913960400191505060405180910390fd5b81478211610ce3576040516001600160a01b0382169083156108fc029084906000818181858888f19350505050158015610cdd573d6000803e3d6000fd5b50610e32565b600254604080516308521f5d60e11b8152602060048083018290526024830152630ae8aa8960e31b604483015291516001600160a01b039093169260009284926310a43eba9260648083019392829003018186803b158015610d4457600080fd5b505afa158015610d58573d6000803e3d6000fd5b505050506040513d6020811015610d6e57600080fd5b50516001549091506001600160a01b0380831691161415610dc05760405162461bcd60e51b81526004018080602001828103825260358152602001806125bc6035913960400191505060405180910390fd5b806001600160a01b031663d0dbc83386866040518363ffffffff1660e01b815260040180836001600160a01b0316815260200182815260200192505050600060405180830381600087803b158015610e1757600080fd5b505af1158015610e2b573d6000803e3d6000fd5b5050505050505b6040805183815290516001600160a01b038516917fdb35132c111efe920cede025e819975671cfd1b8fcc1174762c8670c4e94c211919081900360200190a2505050565b6002546040516308521f5d60e11b8152602060048201908152602482018590526001600160a01b039092169160009183916310a43eba91889188918190604401848480828437600083820152604051601f909101601f191690920195506020945090925050508083038186803b158015610eef57600080fd5b505afa158015610f03573d6000803e3d6000fd5b505050506040513d6020811015610f1957600080fd5b50516001549091506001600160a01b0380831691161415610f6b5760405162461bcd60e51b81526004018080602001828103825260368152602001806125f16036913960400191505060405180910390fd5b82816001600160a01b031663dd62ed3e610f83612267565b306040518363ffffffff1660e01b815260040180836001600160a01b03168152602001826001600160a01b031681526020019250505060206040518083038186803b158015610fd157600080fd5b505afa158015610fe5573d6000803e3d6000fd5b505050506040513d6020811015610ffb57600080fd5b5051101561103a5760405162461bcd60e51b815260040180806020018281038252605081526020018061270c6050913960600191505060405180910390fd5b806001600160a01b03166323b872dd611051612267565b30866040518463ffffffff1660e01b815260040180846001600160a01b03168152602001836001600160a01b031681526020018281526020019350505050602060405180830381600087803b1580156110a957600080fd5b505af11580156110bd573d6000803e3d6000fd5b505050506040513d60208110156110d357600080fd5b50506040518590859080838380828437808301925050509250505060405180910390207f91ed334b741c7cbbae982dad9ca693e9d47b9a50db6fd5f346755f5bca14dfdd610bd0612267565b6000828152602081905260408120611137908361233d565b90505b92915050565b60008281526020819052604081206111379083612349565b600034116111975760405162461bcd60e51b815260040180806020018281038252603181526020018061275c6031913960400191505060405180910390fd5b61119f612267565b6001600160a01b03167fe628a607143b255f52afd0900e0d9630dd009c2f2635cd1e28c7aeeeff940802346040518082815260200191505060405180910390a2565b600081565b6002546040516309ba36bf60e31b8152602060048201908152602482018890526001600160a01b03909216916000918391634dd1b5f8918b918b918190604401848480828437600083820152604051601f909101601f191690920195506020945090925050508083038186803b15801561125f57600080fd5b505afa158015611273573d6000803e3d6000fd5b505050506040513d602081101561128957600080fd5b505190506112b97f8502233096d909befbda0999bb8ea2f3a6be3c138b9fbf003752a4c8bce86f6c61089e612267565b6112f45760405162461bcd60e51b815260040180806020018281038252603681526020018061278d6036913960400191505060405180910390fd5b6000816001600160a01b031662fdd58e30886040518363ffffffff1660e01b815260040180836001600160a01b031681526020018281526020019250505060206040518083038186803b15801561134a57600080fd5b505afa15801561135e573d6000803e3d6000fd5b505050506040513d602081101561137457600080fd5b5051116113b25760405162461bcd60e51b81526004018080602001828103825260318152602001806125606031913960400191505060405180910390fd5b806001600160a01b031663f242432a30888888886040518663ffffffff1660e01b815260040180866001600160a01b03168152602001856001600160a01b0316815260200184815260200183815260200180602001828103825283818151815260200191508051906020019080838360005b8381101561143c578181015183820152602001611424565b50505050905090810190601f1680156114695780820380516001836020036101000a031916815260200191505b509650505050505050600060405180830381600087803b15801561148c57600080fd5b505af11580156114a0573d6000803e3d6000fd5b50505050878760405180838380828437604080519390910183900383206001600160a01b038d168452602084018c90528382018b905290519095507fab8a6099aa0324935264b44e69aafeb656755f4dd4113be720a27f4e45128f9a945091829003606001925050a25050505050505050565b6003546001600160a01b031681565b600081815260208190526040812061113a9061235e565b6002546040516308521f5d60e11b8152602060048201908152602482018690526001600160a01b039092169160009183916310a43eba91899189918190604401848480828437600083820152604051601f909101601f191690920195506020945090925050508083038186803b1580156115b257600080fd5b505afa1580156115c6573d6000803e3d6000fd5b505050506040513d60208110156115dc57600080fd5b5051905061160c7f8502233096d909befbda0999bb8ea2f3a6be3c138b9fbf003752a4c8bce86f6c61089e612267565b6116475760405162461bcd60e51b815260040180806020018281038252603681526020018061278d6036913960400191505060405180910390fd5b604080516370a0823160e01b815230600482015290516001600160a01b038316916370a08231916024808301926020929190829003018186803b15801561168d57600080fd5b505afa1580156116a1573d6000803e3d6000fd5b505050506040513d60208110156116b757600080fd5b50518311611823576040805163095ea7b360e01b81523060048201526024810185905290516001600160a01b0383169163095ea7b39160448083019260209291908290030181600087803b15801561170e57600080fd5b505af1158015611722573d6000803e3d6000fd5b505050506040513d602081101561173857600080fd5b5050604080516323b872dd60e01b81523060048201526001600160a01b038681166024830152604482018690529151918316916323b872dd916064808201926020929091908290030181600087803b15801561179357600080fd5b505af11580156117a7573d6000803e3d6000fd5b505050506040513d60208110156117bd57600080fd5b50506040518690869080838380828437604080519390910183900383206001600160a01b038b168452602084018a905281519096507f226bfaa503fda889c5dbfb29ffa193ceac9a4b461e47f68b3b14c438ec7f8b6795509283900301925050a2611aaa565b600154600354604051630cc9693960e21b8152602060048201908152602482018990526001600160a01b039384169390921691633325a4e4918a918a918190604401848480828437600083820152604051601f909101601f191690920195506020945090925050508083038186803b15801561189e57600080fd5b505afa1580156118b2573d6000803e3d6000fd5b505050506040513d60208110156118c857600080fd5b50516001600160a01b0316146119dd576003546040516358bb6a5d60e11b81526001600160a01b038681166024830152604482018690526060600483019081526064830189905292169163b176d4ba9189918991899189918190608401868680828437600081840152601f19601f82011690508083019250505095505050505050600060405180830381600087803b15801561196357600080fd5b505af1158015611977573d6000803e3d6000fd5b50505050858560405180838380828437604080519390910183900383206001600160a01b038b168452602084018a905281519096507f226bfaa503fda889c5dbfb29ffa193ceac9a4b461e47f68b3b14c438ec7f8b6795509283900301925050a2611aaa565b806001600160a01b031663d0dbc83385856040518363ffffffff1660e01b815260040180836001600160a01b0316815260200182815260200192505050600060405180830381600087803b158015611a3457600080fd5b505af1158015611a48573d6000803e3d6000fd5b50505050858560405180838380828437604080519390910183900383206001600160a01b038b168452602084018a905281519096507f226bfaa503fda889c5dbfb29ffa193ceac9a4b461e47f68b3b14c438ec7f8b6795509283900301925050a25b505050505050565b6002546040516309ba36bf60e31b8152602060048201908152602482018890526001600160a01b03909216916000918391634dd1b5f8918b918b918190604401848480828437600083820152604051601f909101601f191690920195506020945090925050508083038186803b158015611b2b57600080fd5b505afa158015611b3f573d6000803e3d6000fd5b505050506040513d6020811015611b5557600080fd5b50516001549091506001600160a01b0380831691161415611ba75760405162461bcd60e51b81526004018080602001828103825260368152602001806125f16036913960400191505060405180910390fd5b6040805163e985e9c560e01b815233600482015230602482015290516001600160a01b0383169163e985e9c5916044808301926020929190829003018186803b158015611bf357600080fd5b505afa158015611c07573d6000803e3d6000fd5b505050506040513d6020811015611c1d57600080fd5b50511515600114611c5f5760405162461bcd60e51b815260040180806020018281038252602b815260200180612591602b913960400191505060405180910390fd5b806001600160a01b031663f242432a33888888886040518663ffffffff1660e01b815260040180866001600160a01b03168152602001856001600160a01b0316815260200184815260200183815260200180602001828103825283818151815260200191508051906020019080838360005b83811015611ce9578181015183820152602001611cd1565b50505050905090810190601f168015611d165780820380516001836020036101000a031916815260200191505b509650505050505050600060405180830381600087803b158015611d3957600080fd5b505af1158015611d4d573d6000803e3d6000fd5b50505050878760405180838380828437604080519390910183900383206001600160a01b038d168452602084018c90528382018b905290519095507f30e725d42f865939c1f9052f420a2039b3b3ea182d64853dc9e3f12fa1cf5061945091829003606001925050a25050505050505050565b600082815260208190526040902060020154611dde9061089e612267565b6109435760405162461bcd60e51b81526004018080602001828103825260308152602001806126276030913960400191505060405180910390fd5b6002546001600160a01b031681565b60025460405163122acfb560e31b8152602060048201908152602482018790526001600160a01b039092169160009183916391567da8918a918a918190604401848480828437600083820152604051601f909101601f191690920195506020945090925050508083038186803b158015611ea157600080fd5b505afa158015611eb5573d6000803e3d6000fd5b505050506040513d6020811015611ecb57600080fd5b50519050611efb7f8502233096d909befbda0999bb8ea2f3a6be3c138b9fbf003752a4c8bce86f6c61089e612267565b611f365760405162461bcd60e51b815260040180806020018281038252603681526020018061278d6036913960400191505060405180910390fd5b600183151514156120f25760015460048054604051630cc9693960e21b81526020928101928352602481018a90526001600160a01b039384169390911691633325a4e4918b918b918190604401848480828437600083820152604051601f909101601f191690920195506020945090925050508083038186803b158015611fbc57600080fd5b505afa158015611fd0573d6000803e3d6000fd5b505050506040513d6020811015611fe657600080fd5b50516001600160a01b0316146101555760048054604080516306ce0c0960e11b81526001600160a01b038981166024830152938101918252604481018a90529290911691630d9c1812918a918a918a918190606401858580828437600081840152601f19601f820116905080830192505050945050505050600060405180830381600087803b15801561207857600080fd5b505af115801561208c573d6000803e3d6000fd5b50505050868660405180838380828437604080519390910183900383206001600160a01b038c168452602084018b905281519096507fd28833d48ffa5c3f0ea93c47adcb7e8015c714a9c0ddf007d4e523851b98367e95509283900301925050a2612249565b306001600160a01b0316816001600160a01b0316636352211e866040518263ffffffff1660e01b81526004018082815260200191505060206040518083038186803b15801561214057600080fd5b505afa158015612154573d6000803e3d6000fd5b505050506040513d602081101561216a57600080fd5b50516001600160a01b0316141561015557604080516323b872dd60e01b81523060048201526001600160a01b038781166024830152604482018790529151918316916323b872dd9160648082019260009290919082900301818387803b1580156121d357600080fd5b505af11580156121e7573d6000803e3d6000fd5b50505050868660405180838380828437604080519390910183900383206001600160a01b038c168452602084018b905281519096507fd28833d48ffa5c3f0ea93c47adcb7e8015c714a9c0ddf007d4e523851b98367e95509283900301925050a25b50505050505050565b6000611137836001600160a01b038416612369565b3390565b60008281526020819052604090206122839082612252565b156108e857612290612267565b6001600160a01b0316816001600160a01b0316837f2f8788117e7eff1d82e926ec794901d17c78024a50270940304540a733656f0d60405160405180910390a45050565b60008281526020819052604090206122ec90826123b3565b156108e8576122f9612267565b6001600160a01b0316816001600160a01b0316837ff6391f5c32d9c69d2a47ea670b442974b53935d1edc7fd64eb21e047a839171b60405160405180910390a45050565b600061113783836123c8565b6000611137836001600160a01b03841661242c565b600061113a82612444565b6000612375838361242c565b6123ab5750815460018181018455600084815260208082209093018490558454848252828601909352604090209190915561113a565b50600061113a565b6000611137836001600160a01b038416612448565b8154600090821061240a5760405162461bcd60e51b815260040180806020018281038252602281526020018061250f6022913960400191505060405180910390fd5b82600001828154811061241957fe5b9060005260206000200154905092915050565b60009081526001919091016020526040902054151590565b5490565b60008181526001830160205260408120548015612504578354600019808301919081019060009087908390811061247b57fe5b906000526020600020015490508087600001848154811061249857fe5b6000918252602080832090910192909255828152600189810190925260409020908401905586548790806124c857fe5b6001900381819060005260206000200160009055905586600101600087815260200190815260200160002060009055600194505050505061113a565b600091505061113a56fe456e756d657261626c655365743a20696e646578206f7574206f6620626f756e6473416363657373436f6e74726f6c3a2073656e646572206d75737420626520616e2061646d696e20746f206772616e74537761704d616e616765723a20696e73756666696369656e742066756e647320696e20505249564920636f6e7472616374537761704d616e616765723a207573657220646964206e6f74206772616e74206170726f7665207965742e537761704d616e616765723a2057455448206973206e6f74207265676973746572656420696e746f2074686520706c6174666f726d537761704d616e616765723a20746f6b656e206973206e6f74207265676973746572656420696e746f2074686520706c6174666f726d416363657373436f6e74726f6c3a2073656e646572206d75737420626520616e2061646d696e20746f207265766f6b65537761704d616e616765723a206e6f7420656e6f75676820636f6e74726163742062616c616e636520666f7220746865207472616e73666572537761704d616e616765723a206d7573742068617665205452414e534645525f524f4c4520746f207472616e66657220457468537761704d616e616765723a20746f6b656e20746f206265207472616e7366657272656420746f205052495649206973206e6f742079657420617070726f7665642062792055736572537761704d616e616765723a20746f6b656e20616d6f756e7420746f206265207472616e7366657272656420746f205052495649206973206e6f742079657420617070726f7665642062792055736572537761704d616e616765723a20616d6f756e74206d7573742062652067726561746572207468616e203020657468657273537761704d616e616765723a206d7573742068617665205452414e534645525f524f4c4520746f20776974686472617720746f6b656e416363657373436f6e74726f6c3a2063616e206f6e6c792072656e6f756e636520726f6c657320666f722073656c66a2646970667358221220cb321db779adcaa4ea24878a87b65c4939d68f6bad4fbd05c8be0387cf174fc164736f6c63430007060033",
  "immutableReferences": {},
  "source": "// SPDX-License-Identifier: MIT\npragma solidity ^0.7.6;\n\nimport \"@openzeppelin/contracts/access/AccessControl.sol\";\nimport \"@openzeppelin/contracts/token/ERC20/IERC20.sol\";\nimport \"@openzeppelin/contracts/token/ERC721/IERC721.sol\";\nimport \"@openzeppelin/contracts/token/ERC1155/IERC1155.sol\";\nimport \"./token/interfaces/FakeInterface.sol\";\nimport \"./interfaces/IBridgeManager.sol\";\nimport \"./interfaces/IPRIVIPodERC20Factory.sol\";\nimport \"./interfaces/IPRIVIPodERC721Factory.sol\";\n\n/// @author The PRIVI Blockchain team\n/// @title Manages swap and withdraw of Ethers, ERC20 tokens and ERC721 tokens between Users and PRIVI platform\n\ncontract SwapManager is AccessControl{\n    bytes32 public constant TRANSFER_ROLE = keccak256(\"TRANSFER_ROLE\");\n    address private ZERO_ADDRESS = 0x0000000000000000000000000000000000000000;\n    address public bridgeManagerAddress;\n    address public erc20FactoryAddress;\n    address public erc721FactoryAddress;\n    address public erc1155FactoryAddress;\n\n    event DepositERC20Token(string indexed tokenSymbol, address from, uint256 amount);\n    event WithdrawERC20Token(string indexed tokenSymbol, address to, uint256 amount);\n    event DepositERC721Token(string indexed tokenSymbol, address from, uint256 amount);\n    event WithdrawERC721Token(string indexed tokenSymbol, address to, uint256 tokenId);\n    event DepositERC1155Token(string indexed tokenURI, address to, uint256 tokenId, uint256 amount);\n    event WithdrawERC1155Token(string indexed tokenURI, address to, uint256 tokenId, uint256 amount);\n    event DepositEther(address indexed from, uint256 amount);\n    event WithdrawEther(address indexed to, uint256 amount);\n\n    /**\n     * @notice Constructor to assign all roles to contract creator\n     */\n    constructor(\n        address bridgeDeployedAddress, \n        address erc20FactoryDeployedAddress, \n        address erc721FactoryDeployedAddress, \n        address erc1155FactoryDeployedAddress\n        ) {\n        _setupRole(DEFAULT_ADMIN_ROLE, _msgSender());\n        // _setupRole(REGISTER_ROLE, _msgSender());\n        _setupRole(TRANSFER_ROLE, _msgSender());\n        bridgeManagerAddress = bridgeDeployedAddress;\n        erc20FactoryAddress = erc20FactoryDeployedAddress;\n        erc721FactoryAddress = erc721FactoryDeployedAddress;\n        erc1155FactoryAddress = erc1155FactoryDeployedAddress;\n    }\n\n    /**\n     * @notice  Transfer ERC20 token from sender address (User) to contract address (PRIVI)\n     * @dev     - Token to be transferred must be already registered\n     *          - User has to approve first the amount to be transferred WITHIN the original ERC20 token contract,\n     *          and not from this contract. Otherwise, transaction will always fail\n     * @param   tokenSymbol Name of the token to be transferred\n     * @param   amount Amount of tokens to be transferred\n     */\n    function depositERC20Token(string calldata tokenSymbol, uint256 amount) external {\n        IBridgeManager bManager = IBridgeManager(bridgeManagerAddress);\n        address tokenAddress = bManager.getErc20AddressRegistered(tokenSymbol);\n        require(tokenAddress != ZERO_ADDRESS, \n            \"SwapManager: token is not registered into the platform\");\n        require(IERC20(tokenAddress).allowance(_msgSender(), address(this)) >= amount, \n            \"SwapManager: token amount to be transferred to PRIVI is not yet approved by User\"); \n        IERC20(tokenAddress).transferFrom(_msgSender(), address(this), amount);\n        emit DepositERC20Token(tokenSymbol, _msgSender(), amount);\n    }\n\n    /**\n     * @notice  Transfer ERC20 token from contract address (PRIVI) to sender address (User)\n     * @dev     - User must have TRANSFER_ROLE\n     *          - PRIVI must have enough tokens to transfer them back to User\n     * @param   tokenSymbol Name of the token to be transferred\n     * @param   to Destination address to receive the tokens\n     * @param   amount Amount of tokens to be transferred\n     */\n    function withdrawERC20Token(string calldata tokenSymbol, address to, uint256 amount) external {\n        IBridgeManager bManager = IBridgeManager(bridgeManagerAddress);\n        address tokenAddress = bManager.getErc20AddressRegistered(tokenSymbol);\n        require(hasRole(TRANSFER_ROLE, _msgSender()), \n            \"SwapManager: must have TRANSFER_ROLE to withdraw token\");\n        if (amount <= IERC20(tokenAddress).balanceOf(address(this))) {\n            IERC20(tokenAddress).approve(address(this), amount);\n            IERC20(tokenAddress).transferFrom(address(this), to, amount);\n            emit WithdrawERC20Token(tokenSymbol, to, amount);\n        } else if (IPRIVIPodERC20Factory(erc20FactoryAddress).getPodAddressBySymbol(tokenSymbol) != ZERO_ADDRESS) {\n            IPRIVIPodERC20Factory(erc20FactoryAddress).mintPodTokenBySymbol(tokenSymbol, to, amount);\n            emit WithdrawERC20Token(tokenSymbol, to, amount);\n        } else { // only for testnet mint fake tokens\n            FakeInterface(tokenAddress).mintForUser(to, amount);\n            emit WithdrawERC20Token(tokenSymbol, to, amount);\n        }\n    }\n\n    /**\n     * @notice  Transfer ERC721 token from sender address (User) to contract address (PRIVI)\n     * @dev     - User must have TRANSFER_ROLE\n     *          - Token to be transferred must be already registered\n     *          - User has to approve first the amount to be transferred WITHIN the original ERC721 token contract,\n     *          and not from this contract. Otherwise, transaction will always fail\n     * @param   tokenSymbol Name of the token to be transferred\n     * @param   tokenId Token identifier to be transferred\n     */\n    function depositERC721Token(string calldata tokenSymbol, uint256 tokenId) external {\n        IBridgeManager bManager = IBridgeManager(bridgeManagerAddress);\n        address tokenAddress = bManager.getErc721AddressRegistered(tokenSymbol);\n        require(tokenAddress != ZERO_ADDRESS, \n            \"SwapManager: token is not registered into the platform\");\n        /* TO BE TESTED */\n        require(IERC721(tokenAddress).getApproved(tokenId) == address(this), \n            \"SwapManager: token to be transferred to PRIVI is not yet approved by User\"); \n        IERC721(tokenAddress).transferFrom(_msgSender(), address(this), tokenId);\n        emit DepositERC721Token(tokenSymbol, _msgSender(), tokenId);\n    }\n\n    /**\n     * @notice  Transfer ERC721 token from contract address (PRIVI) to sender address (User)\n     * @dev     - User must have TRANSFER_ROLE\n     *          - PRIVI must have enough tokens to transfer them back to User\n     * @param   tokenSymbol Name of the token to be transferred\n     * @param   to Destination address to receive the tokens\n     * @param   tokenId Token identifier to be transferred\n     * @param   isPodMint is it a withdraw from swap manager or is it minting new nft pod token\n     */\n    function withdrawERC721Token(string calldata tokenSymbol, address to, uint256 tokenId, bool isPodMint) external {\n        IBridgeManager bManager = IBridgeManager(bridgeManagerAddress);\n        address tokenAddress = bManager.getErc721AddressRegistered(tokenSymbol);\n        require(hasRole(TRANSFER_ROLE, _msgSender()), \n            \"SwapManager: must have TRANSFER_ROLE to withdraw token\");\n        if (isPodMint == true) {\n            if (IPRIVIPodERC721Factory(erc721FactoryAddress).getPodAddressBySymbol(tokenSymbol) != ZERO_ADDRESS) {\n                IPRIVIPodERC721Factory(erc721FactoryAddress).mintPodTokenBySymbol(tokenSymbol, to);\n                emit WithdrawERC721Token(tokenSymbol, to, tokenId);\n            } else {\n                revert();\n            }\n        } else {\n            if (IERC721(tokenAddress).ownerOf(tokenId) == address(this)) {\n                IERC721(tokenAddress).transferFrom(address(this), to, tokenId);\n                emit WithdrawERC721Token(tokenSymbol, to, tokenId);\n            } else {\n                revert();\n            }\n        }\n    }\n\n    /**\n     * @notice  Transfer ERC1155 token from sender address (User) to contract address (PRIVI)\n     * @dev     - User must have TRANSFER_ROLE\n     *          - Token to be transferred must be already registered\n     *          - User has to approve first the amount to be transferred WITHIN the original ERC1155 token contract,\n     *          and not from this contract. Otherwise, transaction will always fail\n     * @param   tokenURI Name of the token to be transferred\n     * @param   to Destination address to receive the tokens\n     * @param   tokenId Token identifier to be transferred\n     */\n    function depositERC1155Token(string calldata tokenURI, address to, uint256 tokenId, uint256 amount, bytes memory data) external {\n        IBridgeManager bManager = IBridgeManager(bridgeManagerAddress);\n        address tokenAddress = bManager.getErc1155AddressRegistered(tokenURI);\n        require(tokenAddress != ZERO_ADDRESS, \n            \"SwapManager: token is not registered into the platform\");\n        /* TO BE TESTED */\n        require(IERC1155(tokenAddress).isApprovedForAll(msg.sender, address(this)) == true, \n            \"SwapManager: user did not grant aprove yet.\"); \n        IERC1155(tokenAddress).safeTransferFrom(msg.sender, to, tokenId, amount, data);\n        emit DepositERC1155Token(tokenURI, to, tokenId, amount);\n    }\n\n    /**\n     * @notice  Transfer ERC1155 token from contract address (PRIVI) to sender address (User)\n     * @dev     - User must have TRANSFER_ROLE\n     *          - PRIVI must have enough tokens to transfer them back to User\n     * @param   tokenURI Name of the token to be transferred\n     * @param   to Destination address to receive the tokens\n     * @param   tokenId Token identifier to be transferred\n     */\n    function withdrawERC1155Token(string calldata tokenURI, address to, uint256 tokenId, uint256 amount, bytes memory data) external {\n        IBridgeManager bManager = IBridgeManager(bridgeManagerAddress);\n        address tokenAddress = bManager.getErc1155AddressRegistered(tokenURI);\n        require(hasRole(TRANSFER_ROLE, _msgSender()), \n            \"SwapManager: must have TRANSFER_ROLE to withdraw token\");\n        require(IERC1155(tokenAddress).balanceOf(address(this), tokenId) > 0, \n            \"SwapManager: insufficient funds in PRIVI contract\");\n        IERC1155(tokenAddress).safeTransferFrom(address(this), to, tokenId, amount, data);\n        emit WithdrawERC1155Token(tokenURI, to, tokenId, amount);\n    }\n    \n    /**\n     * @notice  Transfer ether from sender address to contract address\n     * @dev     - Amount to be deposited must be greater than 0 ethers \n     */\n    function depositEther() external payable {\n        require(msg.value > 0, \"SwapManager: amount must be greater than 0 ethers\");\n        emit DepositEther(_msgSender(), msg.value);  \n    }\n    \n    /**\n     * @notice  Transfer ether from contract address to sender address\n     * @dev     - Sender must have TRANSFER_ROLE\n     *          - Contract must have enough balance to do the transfer\n     * @param   to Destination address to receive the ether\n     * @param   amount Amount of ether to be transferred\n     */\n    function withdrawEther(address to, uint256 amount) external {\n        require(hasRole(TRANSFER_ROLE, _msgSender()), \n            \"SwapManager: must have TRANSFER_ROLE to tranfer Eth\");\n        require(payable(address(this)).balance >= amount, \n            \"SwapManager: not enough contract balance for the transfer\");\n        \n        address payable recipient = address(uint160(to));\n\n        if(amount <= address(this).balance) {\n            recipient.transfer(amount);\n        } else {\n            IBridgeManager bManager = IBridgeManager(bridgeManagerAddress);\n            address tokenAddress = bManager.getErc20AddressRegistered(\"WETH\");\n            require(tokenAddress != ZERO_ADDRESS, \n            \"SwapManager: WETH is not registered into the platform\");\n            FakeInterface(tokenAddress).mintForUser(to, amount);\n        }\n        \n        emit WithdrawEther(to, amount);\n    }\n\n    /**\n     * @return  Contract balance in weis\n     */\n    function getBalance() external view returns (uint256) {\n        return payable(address(this)).balance;\n    }\n}",
  "sourcePath": "/home/rekard0/Documents/WORK/PriviEthereum/PRIVIethereum/contracts/SwapManager.sol",
  "compiler": {
    "name": "solc",
    "version": "0.7.6+commit.7338295f.Emscripten.clang"
  },
  "schemaVersion": "3.3.3",
  "updatedAt": "2021-03-11T13:38:02.188Z",
  "devdoc": {
    "author": "The PRIVI Blockchain team",
    "kind": "dev",
    "methods": {
      "depositERC1155Token(string,address,uint256,uint256,bytes)": {
        "details": "- User must have TRANSFER_ROLE          - Token to be transferred must be already registered          - User has to approve first the amount to be transferred WITHIN the original ERC1155 token contract,          and not from this contract. Otherwise, transaction will always fail",
        "params": {
          "to": "Destination address to receive the tokens",
          "tokenId": "Token identifier to be transferred",
          "tokenURI": "Name of the token to be transferred"
        }
      },
      "depositERC20Token(string,uint256)": {
        "details": "- Token to be transferred must be already registered          - User has to approve first the amount to be transferred WITHIN the original ERC20 token contract,          and not from this contract. Otherwise, transaction will always fail",
        "params": {
          "amount": "Amount of tokens to be transferred",
          "tokenSymbol": "Name of the token to be transferred"
        }
      },
      "depositERC721Token(string,uint256)": {
        "details": "- User must have TRANSFER_ROLE          - Token to be transferred must be already registered          - User has to approve first the amount to be transferred WITHIN the original ERC721 token contract,          and not from this contract. Otherwise, transaction will always fail",
        "params": {
          "tokenId": "Token identifier to be transferred",
          "tokenSymbol": "Name of the token to be transferred"
        }
      },
      "depositEther()": {
        "details": "- Amount to be deposited must be greater than 0 ethers "
      },
      "getBalance()": {
        "returns": {
          "_0": "Contract balance in weis"
        }
      },
      "getRoleAdmin(bytes32)": {
        "details": "Returns the admin role that controls `role`. See {grantRole} and {revokeRole}. To change a role's admin, use {_setRoleAdmin}."
      },
      "getRoleMember(bytes32,uint256)": {
        "details": "Returns one of the accounts that have `role`. `index` must be a value between 0 and {getRoleMemberCount}, non-inclusive. Role bearers are not sorted in any particular way, and their ordering may change at any point. WARNING: When using {getRoleMember} and {getRoleMemberCount}, make sure you perform all queries on the same block. See the following https://forum.openzeppelin.com/t/iterating-over-elements-on-enumerableset-in-openzeppelin-contracts/2296[forum post] for more information."
      },
      "getRoleMemberCount(bytes32)": {
        "details": "Returns the number of accounts that have `role`. Can be used together with {getRoleMember} to enumerate all bearers of a role."
      },
      "grantRole(bytes32,address)": {
        "details": "Grants `role` to `account`. If `account` had not been already granted `role`, emits a {RoleGranted} event. Requirements: - the caller must have ``role``'s admin role."
      },
      "hasRole(bytes32,address)": {
        "details": "Returns `true` if `account` has been granted `role`."
      },
      "renounceRole(bytes32,address)": {
        "details": "Revokes `role` from the calling account. Roles are often managed via {grantRole} and {revokeRole}: this function's purpose is to provide a mechanism for accounts to lose their privileges if they are compromised (such as when a trusted device is misplaced). If the calling account had been granted `role`, emits a {RoleRevoked} event. Requirements: - the caller must be `account`."
      },
      "revokeRole(bytes32,address)": {
        "details": "Revokes `role` from `account`. If `account` had been granted `role`, emits a {RoleRevoked} event. Requirements: - the caller must have ``role``'s admin role."
      },
      "withdrawERC1155Token(string,address,uint256,uint256,bytes)": {
        "details": "- User must have TRANSFER_ROLE          - PRIVI must have enough tokens to transfer them back to User",
        "params": {
          "to": "Destination address to receive the tokens",
          "tokenId": "Token identifier to be transferred",
          "tokenURI": "Name of the token to be transferred"
        }
      },
      "withdrawERC20Token(string,address,uint256)": {
        "details": "- User must have TRANSFER_ROLE          - PRIVI must have enough tokens to transfer them back to User",
        "params": {
          "amount": "Amount of tokens to be transferred",
          "to": "Destination address to receive the tokens",
          "tokenSymbol": "Name of the token to be transferred"
        }
      },
      "withdrawERC721Token(string,address,uint256,bool)": {
        "details": "- User must have TRANSFER_ROLE          - PRIVI must have enough tokens to transfer them back to User",
        "params": {
          "isPodMint": "is it a withdraw from swap manager or is it minting new nft pod token",
          "to": "Destination address to receive the tokens",
          "tokenId": "Token identifier to be transferred",
          "tokenSymbol": "Name of the token to be transferred"
        }
      },
      "withdrawEther(address,uint256)": {
        "details": "- Sender must have TRANSFER_ROLE          - Contract must have enough balance to do the transfer",
        "params": {
          "amount": "Amount of ether to be transferred",
          "to": "Destination address to receive the ether"
        }
      }
    },
    "title": "Manages swap and withdraw of Ethers, ERC20 tokens and ERC721 tokens between Users and PRIVI platform",
    "version": 1
  },
  "userdoc": {
    "kind": "user",
    "methods": {
      "constructor": {
        "notice": "Constructor to assign all roles to contract creator"
      },
      "depositERC1155Token(string,address,uint256,uint256,bytes)": {
        "notice": "Transfer ERC1155 token from sender address (User) to contract address (PRIVI)"
      },
      "depositERC20Token(string,uint256)": {
        "notice": "Transfer ERC20 token from sender address (User) to contract address (PRIVI)"
      },
      "depositERC721Token(string,uint256)": {
        "notice": "Transfer ERC721 token from sender address (User) to contract address (PRIVI)"
      },
      "depositEther()": {
        "notice": "Transfer ether from sender address to contract address"
      },
      "withdrawERC1155Token(string,address,uint256,uint256,bytes)": {
        "notice": "Transfer ERC1155 token from contract address (PRIVI) to sender address (User)"
      },
      "withdrawERC20Token(string,address,uint256)": {
        "notice": "Transfer ERC20 token from contract address (PRIVI) to sender address (User)"
      },
      "withdrawERC721Token(string,address,uint256,bool)": {
        "notice": "Transfer ERC721 token from contract address (PRIVI) to sender address (User)"
      },
      "withdrawEther(address,uint256)": {
        "notice": "Transfer ether from contract address to sender address"
      }
    },
    "version": 1
  }
}