{
  "contractName": "SwapManager",
  "abi": [
    {
      "inputs": [
        {
          "internalType": "address",
          "name": "bridgeDeployedAddress",
          "type": "address"
        },
        {
          "internalType": "address",
          "name": "erc20FactoryDeployedAddress",
          "type": "address"
        },
        {
          "internalType": "address",
          "name": "erc721FactoryDeployedAddress",
          "type": "address"
        }
      ],
      "stateMutability": "nonpayable",
      "type": "constructor"
    },
    {
      "anonymous": false,
      "inputs": [
        {
          "indexed": true,
          "internalType": "string",
          "name": "tokenSymbol",
          "type": "string"
        },
        {
          "indexed": false,
          "internalType": "address",
          "name": "from",
          "type": "address"
        },
        {
          "indexed": false,
          "internalType": "uint256",
          "name": "amount",
          "type": "uint256"
        }
      ],
      "name": "DepositERC20Token",
      "type": "event"
    },
    {
      "anonymous": false,
      "inputs": [
        {
          "indexed": true,
          "internalType": "string",
          "name": "tokenSymbol",
          "type": "string"
        },
        {
          "indexed": false,
          "internalType": "address",
          "name": "from",
          "type": "address"
        },
        {
          "indexed": false,
          "internalType": "uint256",
          "name": "amount",
          "type": "uint256"
        }
      ],
      "name": "DepositERC721Token",
      "type": "event"
    },
    {
      "anonymous": false,
      "inputs": [
        {
          "indexed": true,
          "internalType": "address",
          "name": "from",
          "type": "address"
        },
        {
          "indexed": false,
          "internalType": "uint256",
          "name": "amount",
          "type": "uint256"
        }
      ],
      "name": "DepositEther",
      "type": "event"
    },
    {
      "anonymous": false,
      "inputs": [
        {
          "indexed": true,
          "internalType": "bytes32",
          "name": "role",
          "type": "bytes32"
        },
        {
          "indexed": true,
          "internalType": "bytes32",
          "name": "previousAdminRole",
          "type": "bytes32"
        },
        {
          "indexed": true,
          "internalType": "bytes32",
          "name": "newAdminRole",
          "type": "bytes32"
        }
      ],
      "name": "RoleAdminChanged",
      "type": "event"
    },
    {
      "anonymous": false,
      "inputs": [
        {
          "indexed": true,
          "internalType": "bytes32",
          "name": "role",
          "type": "bytes32"
        },
        {
          "indexed": true,
          "internalType": "address",
          "name": "account",
          "type": "address"
        },
        {
          "indexed": true,
          "internalType": "address",
          "name": "sender",
          "type": "address"
        }
      ],
      "name": "RoleGranted",
      "type": "event"
    },
    {
      "anonymous": false,
      "inputs": [
        {
          "indexed": true,
          "internalType": "bytes32",
          "name": "role",
          "type": "bytes32"
        },
        {
          "indexed": true,
          "internalType": "address",
          "name": "account",
          "type": "address"
        },
        {
          "indexed": true,
          "internalType": "address",
          "name": "sender",
          "type": "address"
        }
      ],
      "name": "RoleRevoked",
      "type": "event"
    },
    {
      "anonymous": false,
      "inputs": [
        {
          "indexed": true,
          "internalType": "string",
          "name": "tokenSymbol",
          "type": "string"
        },
        {
          "indexed": false,
          "internalType": "address",
          "name": "to",
          "type": "address"
        },
        {
          "indexed": false,
          "internalType": "uint256",
          "name": "amount",
          "type": "uint256"
        }
      ],
      "name": "WithdrawERC20Token",
      "type": "event"
    },
    {
      "anonymous": false,
      "inputs": [
        {
          "indexed": true,
          "internalType": "string",
          "name": "tokenSymbol",
          "type": "string"
        },
        {
          "indexed": false,
          "internalType": "address",
          "name": "to",
          "type": "address"
        },
        {
          "indexed": false,
          "internalType": "uint256",
          "name": "tokenId",
          "type": "uint256"
        }
      ],
      "name": "WithdrawERC721Token",
      "type": "event"
    },
    {
      "anonymous": false,
      "inputs": [
        {
          "indexed": true,
          "internalType": "address",
          "name": "to",
          "type": "address"
        },
        {
          "indexed": false,
          "internalType": "uint256",
          "name": "amount",
          "type": "uint256"
        }
      ],
      "name": "WithdrawEther",
      "type": "event"
    },
    {
      "inputs": [],
      "name": "DEFAULT_ADMIN_ROLE",
      "outputs": [
        {
          "internalType": "bytes32",
          "name": "",
          "type": "bytes32"
        }
      ],
      "stateMutability": "view",
      "type": "function",
      "constant": true
    },
    {
      "inputs": [],
      "name": "TRANSFER_ROLE",
      "outputs": [
        {
          "internalType": "bytes32",
          "name": "",
          "type": "bytes32"
        }
      ],
      "stateMutability": "view",
      "type": "function",
      "constant": true
    },
    {
      "inputs": [],
      "name": "bridgeManagerAddress",
      "outputs": [
        {
          "internalType": "address",
          "name": "",
          "type": "address"
        }
      ],
      "stateMutability": "view",
      "type": "function",
      "constant": true
    },
    {
      "inputs": [],
      "name": "erc20FactoryAddress",
      "outputs": [
        {
          "internalType": "address",
          "name": "",
          "type": "address"
        }
      ],
      "stateMutability": "view",
      "type": "function",
      "constant": true
    },
    {
      "inputs": [],
      "name": "erc721FactoryAddress",
      "outputs": [
        {
          "internalType": "address",
          "name": "",
          "type": "address"
        }
      ],
      "stateMutability": "view",
      "type": "function",
      "constant": true
    },
    {
      "inputs": [
        {
          "internalType": "bytes32",
          "name": "role",
          "type": "bytes32"
        }
      ],
      "name": "getRoleAdmin",
      "outputs": [
        {
          "internalType": "bytes32",
          "name": "",
          "type": "bytes32"
        }
      ],
      "stateMutability": "view",
      "type": "function",
      "constant": true
    },
    {
      "inputs": [
        {
          "internalType": "bytes32",
          "name": "role",
          "type": "bytes32"
        },
        {
          "internalType": "uint256",
          "name": "index",
          "type": "uint256"
        }
      ],
      "name": "getRoleMember",
      "outputs": [
        {
          "internalType": "address",
          "name": "",
          "type": "address"
        }
      ],
      "stateMutability": "view",
      "type": "function",
      "constant": true
    },
    {
      "inputs": [
        {
          "internalType": "bytes32",
          "name": "role",
          "type": "bytes32"
        }
      ],
      "name": "getRoleMemberCount",
      "outputs": [
        {
          "internalType": "uint256",
          "name": "",
          "type": "uint256"
        }
      ],
      "stateMutability": "view",
      "type": "function",
      "constant": true
    },
    {
      "inputs": [
        {
          "internalType": "bytes32",
          "name": "role",
          "type": "bytes32"
        },
        {
          "internalType": "address",
          "name": "account",
          "type": "address"
        }
      ],
      "name": "grantRole",
      "outputs": [],
      "stateMutability": "nonpayable",
      "type": "function"
    },
    {
      "inputs": [
        {
          "internalType": "bytes32",
          "name": "role",
          "type": "bytes32"
        },
        {
          "internalType": "address",
          "name": "account",
          "type": "address"
        }
      ],
      "name": "hasRole",
      "outputs": [
        {
          "internalType": "bool",
          "name": "",
          "type": "bool"
        }
      ],
      "stateMutability": "view",
      "type": "function",
      "constant": true
    },
    {
      "inputs": [
        {
          "internalType": "bytes32",
          "name": "role",
          "type": "bytes32"
        },
        {
          "internalType": "address",
          "name": "account",
          "type": "address"
        }
      ],
      "name": "renounceRole",
      "outputs": [],
      "stateMutability": "nonpayable",
      "type": "function"
    },
    {
      "inputs": [
        {
          "internalType": "bytes32",
          "name": "role",
          "type": "bytes32"
        },
        {
          "internalType": "address",
          "name": "account",
          "type": "address"
        }
      ],
      "name": "revokeRole",
      "outputs": [],
      "stateMutability": "nonpayable",
      "type": "function"
    },
    {
      "inputs": [
        {
          "internalType": "string",
          "name": "tokenSymbol",
          "type": "string"
        },
        {
          "internalType": "uint256",
          "name": "amount",
          "type": "uint256"
        }
      ],
      "name": "depositERC20Token",
      "outputs": [],
      "stateMutability": "nonpayable",
      "type": "function"
    },
    {
      "inputs": [
        {
          "internalType": "string",
          "name": "tokenSymbol",
          "type": "string"
        },
        {
          "internalType": "address",
          "name": "to",
          "type": "address"
        },
        {
          "internalType": "uint256",
          "name": "amount",
          "type": "uint256"
        }
      ],
      "name": "withdrawERC20Token",
      "outputs": [],
      "stateMutability": "nonpayable",
      "type": "function"
    },
    {
      "inputs": [
        {
          "internalType": "string",
          "name": "tokenSymbol",
          "type": "string"
        },
        {
          "internalType": "uint256",
          "name": "tokenId",
          "type": "uint256"
        }
      ],
      "name": "depositERC721Token",
      "outputs": [],
      "stateMutability": "nonpayable",
      "type": "function"
    },
    {
      "inputs": [
        {
          "internalType": "string",
          "name": "tokenSymbol",
          "type": "string"
        },
        {
          "internalType": "address",
          "name": "to",
          "type": "address"
        },
        {
          "internalType": "uint256",
          "name": "tokenId",
          "type": "uint256"
        }
      ],
      "name": "withdrawERC721Token",
      "outputs": [],
      "stateMutability": "nonpayable",
      "type": "function"
    },
    {
      "inputs": [],
      "name": "depositEther",
      "outputs": [],
      "stateMutability": "payable",
      "type": "function",
      "payable": true
    },
    {
      "inputs": [
        {
          "internalType": "address",
          "name": "to",
          "type": "address"
        },
        {
          "internalType": "uint256",
          "name": "amount",
          "type": "uint256"
        }
      ],
      "name": "withdrawEther",
      "outputs": [],
      "stateMutability": "nonpayable",
      "type": "function"
    },
    {
      "inputs": [],
      "name": "getBalance",
      "outputs": [
        {
          "internalType": "uint256",
          "name": "",
          "type": "uint256"
        }
      ],
      "stateMutability": "view",
      "type": "function",
      "constant": true
    }
  ],
  "bytecode": "0x6080604052600180546001600160a01b03191690553480156200002157600080fd5b506040516200246e3803806200246e833981810160405260608110156200004757600080fd5b50805160208201516040909201519091906200006e600062000068620000e0565b620000e4565b6200009d7f8502233096d909befbda0999bb8ea2f3a6be3c138b9fbf003752a4c8bce86f6c62000068620000e0565b600280546001600160a01b039485166001600160a01b031991821617909155600380549385169382169390931790925560048054919093169116179055620001f4565b3390565b620000f08282620000f4565b5050565b6000828152602081815260409091206200011991839062001cf16200016d821b17901c565b15620000f05762000129620000e0565b6001600160a01b0316816001600160a01b0316837f2f8788117e7eff1d82e926ec794901d17c78024a50270940304540a733656f0d60405160405180910390a45050565b600062000184836001600160a01b0384166200018d565b90505b92915050565b60006200019b8383620001dc565b620001d35750815460018181018455600084815260208082209093018490558454848252828601909352604090209190915562000187565b50600062000187565b60009081526001919091016020526040902054151590565b61226a80620002046000396000f3fe6080604052600436106101135760003560e01c80637de2c626116100a0578063c768b17c11610064578063c768b17c14610521578063ca15c87314610536578063d1af27c414610560578063d547741f14610621578063e792b1941461065a57610113565b80637de2c626146103d25780639010d07c1461048757806391d14854146104b757806398ea5fca14610504578063a217fddf1461050c57610113565b80632dc06709116100e75780632dc06709146102415780632f2ff15d1461027257806336568abe146102ab578063412991cb146102e4578063522f68151461039957610113565b806259d9301461011857806312065fe0146101db578063206b60f914610202578063248a9ca314610217575b600080fd5b34801561012457600080fd5b506101d96004803603606081101561013b57600080fd5b81019060208101813564010000000081111561015657600080fd5b82018360208201111561016857600080fd5b8035906020019184600183028401116401000000008311171561018a57600080fd5b91908080601f016020809104026020016040519081016040528093929190818152602001838380828437600092019190915250929550506001600160a01b03833516935050506020013561066f565b005b3480156101e757600080fd5b506101f0610b65565b60408051918252519081900360200190f35b34801561020e57600080fd5b506101f0610b6a565b34801561022357600080fd5b506101f06004803603602081101561023a57600080fd5b5035610b8e565b34801561024d57600080fd5b50610256610ba3565b604080516001600160a01b039092168252519081900360200190f35b34801561027e57600080fd5b506101d96004803603604081101561029557600080fd5b50803590602001356001600160a01b0316610bb2565b3480156102b757600080fd5b506101d9600480360360408110156102ce57600080fd5b50803590602001356001600160a01b0316610c19565b3480156102f057600080fd5b506101d96004803603604081101561030757600080fd5b81019060208101813564010000000081111561032257600080fd5b82018360208201111561033457600080fd5b8035906020019184600183028401116401000000008311171561035657600080fd5b91908080601f0160208091040260200160405190810160405280939291908181526020018383808284376000920191909152509295505091359250610c7a915050565b3480156103a557600080fd5b506101d9600480360360408110156103bc57600080fd5b506001600160a01b038135169060200135610f99565b3480156103de57600080fd5b506101d9600480360360408110156103f557600080fd5b81019060208101813564010000000081111561041057600080fd5b82018360208201111561042257600080fd5b8035906020019184600183028401116401000000008311171561044457600080fd5b91908080601f0160208091040260200160405190810160405280939291908181526020018383808284376000920191909152509295505091359250611217915050565b34801561049357600080fd5b50610256600480360360408110156104aa57600080fd5b5080359060200135611535565b3480156104c357600080fd5b506104f0600480360360408110156104da57600080fd5b50803590602001356001600160a01b0316611556565b604080519115158252519081900360200190f35b6101d961156e565b34801561051857600080fd5b506101f06115f7565b34801561052d57600080fd5b506102566115fc565b34801561054257600080fd5b506101f06004803603602081101561055957600080fd5b503561160b565b34801561056c57600080fd5b506101d96004803603606081101561058357600080fd5b81019060208101813564010000000081111561059e57600080fd5b8201836020820111156105b057600080fd5b803590602001918460018302840111640100000000831117156105d257600080fd5b91908080601f016020809104026020016040519081016040528093929190818152602001838380828437600092019190915250929550506001600160a01b038335169350505060200135611622565b34801561062d57600080fd5b506101d96004803603604081101561064457600080fd5b50803590602001356001600160a01b0316611c89565b34801561066657600080fd5b50610256611ce2565b60025460405163122acfb560e31b81526020600482018181528651602484015286516001600160a01b039094169360009385936391567da8938a9390928392604490910191908501908083838b5b838110156106d55781810151838201526020016106bd565b50505050905090810190601f1680156107025780820380516001836020036101000a031916815260200191505b509250505060206040518083038186803b15801561071f57600080fd5b505afa158015610733573d6000803e3d6000fd5b505050506040513d602081101561074957600080fd5b5051905061077e7f8502233096d909befbda0999bb8ea2f3a6be3c138b9fbf003752a4c8bce86f6c610779611d06565b611556565b6107b95760405162461bcd60e51b81526004018080602001828103825260368152602001806121d06036913960400191505060405180910390fd5b306001600160a01b0316816001600160a01b0316636352211e856040518263ffffffff1660e01b81526004018082815260200191505060206040518083038186803b15801561080757600080fd5b505afa15801561081b573d6000803e3d6000fd5b505050506040513d602081101561083157600080fd5b50516001600160a01b031614156109b9576040805163095ea7b360e01b81523060048201526024810185905290516001600160a01b0383169163095ea7b391604480830192600092919082900301818387803b15801561089057600080fd5b505af11580156108a4573d6000803e3d6000fd5b5050604080516323b872dd60e01b81523060048201526001600160a01b03888116602483015260448201889052915191851693506323b872dd925060648082019260009290919082900301818387803b15801561090057600080fd5b505af1158015610914573d6000803e3d6000fd5b50505050846040518082805190602001908083835b602083106109485780518252601f199092019160209182019101610929565b51815160001960209485036101000a01908116901991909116179052604080519490920184900384206001600160a01b038b16855290840189905281519095507fd28833d48ffa5c3f0ea93c47adcb7e8015c714a9c0ddf007d4e523851b98367e94509283900301919050a2610b5e565b60015460048054604051630cc9693960e21b815260209281018381528951602483015289516001600160a01b039586169590931693633325a4e4938b9383926044909101919085019080838360005b83811015610a20578181015183820152602001610a08565b50505050905090810190601f168015610a4d5780820380516001836020036101000a031916815260200191505b509250505060206040518083038186803b158015610a6a57600080fd5b505afa158015610a7e573d6000803e3d6000fd5b505050506040513d6020811015610a9457600080fd5b50516001600160a01b0316146101135760048054604080516306ce0c0960e11b81526001600160a01b0388811660248301529381019182528851604482015288519390921692630d9c1812928992899290918291606490910190602086019080838360005b83811015610b11578181015183820152602001610af9565b50505050905090810190601f168015610b3e5780820380516001836020036101000a031916815260200191505b509350505050600060405180830381600087803b15801561090057600080fd5b5050505050565b303190565b7f8502233096d909befbda0999bb8ea2f3a6be3c138b9fbf003752a4c8bce86f6c81565b60009081526020819052604090206002015490565b6004546001600160a01b031681565b600082815260208190526040902060020154610bd090610779611d06565b610c0b5760405162461bcd60e51b815260040180806020018281038252602f815260200180611fd0602f913960400191505060405180910390fd5b610c158282611d0a565b5050565b610c21611d06565b6001600160a01b0316816001600160a01b031614610c705760405162461bcd60e51b815260040180806020018281038252602f815260200180612206602f913960400191505060405180910390fd5b610c158282611d73565b60025460405163122acfb560e31b81526020600482018181528551602484015285516001600160a01b039094169360009385936391567da893899390928392604490910191908501908083838b5b83811015610ce0578181015183820152602001610cc8565b50505050905090810190601f168015610d0d5780820380516001836020036101000a031916815260200191505b509250505060206040518083038186803b158015610d2a57600080fd5b505afa158015610d3e573d6000803e3d6000fd5b505050506040513d6020811015610d5457600080fd5b50516001549091506001600160a01b0380831691161415610da65760405162461bcd60e51b81526004018080602001828103825260368152602001806120346036913960400191505060405180910390fd5b306001600160a01b0316816001600160a01b031663081812fc856040518263ffffffff1660e01b81526004018082815260200191505060206040518083038186803b158015610df457600080fd5b505afa158015610e08573d6000803e3d6000fd5b505050506040513d6020811015610e1e57600080fd5b50516001600160a01b031614610e655760405162461bcd60e51b81526004018080602001828103825260498152602001806121066049913960600191505060405180910390fd5b806001600160a01b03166323b872dd610e7c611d06565b30866040518463ffffffff1660e01b815260040180846001600160a01b03168152602001836001600160a01b031681526020018281526020019350505050600060405180830381600087803b158015610ed457600080fd5b505af1158015610ee8573d6000803e3d6000fd5b50505050836040518082805190602001908083835b60208310610f1c5780518252601f199092019160209182019101610efd565b6001836020036101000a03801982511681845116808217855250505050505090500191505060405180910390207ff0218d2f738513bea289b1b8ca83d8241a1060f13280602f9b7ff8e3598d4c83610f72611d06565b604080516001600160a01b039092168252602082018790528051918290030190a250505050565b610fc57f8502233096d909befbda0999bb8ea2f3a6be3c138b9fbf003752a4c8bce86f6c610779611d06565b6110005760405162461bcd60e51b81526004018080602001828103825260338152602001806120d36033913960400191505060405180910390fd5b30318111156110405760405162461bcd60e51b815260040180806020018281038252603981526020018061209a6039913960400191505060405180910390fd5b81478211611084576040516001600160a01b0382169083156108fc029084906000818181858888f1935050505015801561107e573d6000803e3d6000fd5b506111d3565b600254604080516308521f5d60e11b8152602060048083018290526024830152630ae8aa8960e31b604483015291516001600160a01b039093169260009284926310a43eba9260648083019392829003018186803b1580156110e557600080fd5b505afa1580156110f9573d6000803e3d6000fd5b505050506040513d602081101561110f57600080fd5b50516001549091506001600160a01b03808316911614156111615760405162461bcd60e51b8152600401808060200182810382526035815260200180611fff6035913960400191505060405180910390fd5b806001600160a01b031663d0dbc83386866040518363ffffffff1660e01b815260040180836001600160a01b0316815260200182815260200192505050600060405180830381600087803b1580156111b857600080fd5b505af11580156111cc573d6000803e3d6000fd5b5050505050505b6040805183815290516001600160a01b038516917fdb35132c111efe920cede025e819975671cfd1b8fcc1174762c8670c4e94c211919081900360200190a2505050565b6002546040516308521f5d60e11b81526020600482018181528551602484015285516001600160a01b039094169360009385936310a43eba93899390928392604490910191908501908083838b5b8381101561127d578181015183820152602001611265565b50505050905090810190601f1680156112aa5780820380516001836020036101000a031916815260200191505b509250505060206040518083038186803b1580156112c757600080fd5b505afa1580156112db573d6000803e3d6000fd5b505050506040513d60208110156112f157600080fd5b50516001549091506001600160a01b03808316911614156113435760405162461bcd60e51b81526004018080602001828103825260368152602001806120346036913960400191505060405180910390fd5b82816001600160a01b031663dd62ed3e61135b611d06565b306040518363ffffffff1660e01b815260040180836001600160a01b03168152602001826001600160a01b031681526020019250505060206040518083038186803b1580156113a957600080fd5b505afa1580156113bd573d6000803e3d6000fd5b505050506040513d60208110156113d357600080fd5b505110156114125760405162461bcd60e51b815260040180806020018281038252605081526020018061214f6050913960600191505060405180910390fd5b806001600160a01b03166323b872dd611429611d06565b30866040518463ffffffff1660e01b815260040180846001600160a01b03168152602001836001600160a01b031681526020018281526020019350505050602060405180830381600087803b15801561148157600080fd5b505af1158015611495573d6000803e3d6000fd5b505050506040513d60208110156114ab57600080fd5b50506040518451859190819060208401908083835b602083106114df5780518252601f1990920191602091820191016114c0565b6001836020036101000a03801982511681845116808217855250505050505090500191505060405180910390207f91ed334b741c7cbbae982dad9ca693e9d47b9a50db6fd5f346755f5bca14dfdd610f72611d06565b600082815260208190526040812061154d9083611ddc565b90505b92915050565b600082815260208190526040812061154d9083611de8565b600034116115ad5760405162461bcd60e51b815260040180806020018281038252603181526020018061219f6031913960400191505060405180910390fd5b6115b5611d06565b6001600160a01b03167fe628a607143b255f52afd0900e0d9630dd009c2f2635cd1e28c7aeeeff940802346040518082815260200191505060405180910390a2565b600081565b6003546001600160a01b031681565b600081815260208190526040812061155090611dfd565b6002546040516308521f5d60e11b81526020600482018181528651602484015286516001600160a01b039094169360009385936310a43eba938a9390928392604490910191908501908083838b5b83811015611688578181015183820152602001611670565b50505050905090810190601f1680156116b55780820380516001836020036101000a031916815260200191505b509250505060206040518083038186803b1580156116d257600080fd5b505afa1580156116e6573d6000803e3d6000fd5b505050506040513d60208110156116fc57600080fd5b5051905061172c7f8502233096d909befbda0999bb8ea2f3a6be3c138b9fbf003752a4c8bce86f6c610779611d06565b6117675760405162461bcd60e51b81526004018080602001828103825260368152602001806121d06036913960400191505060405180910390fd5b604080516370a0823160e01b815230600482015290516001600160a01b038316916370a08231916024808301926020929190829003018186803b1580156117ad57600080fd5b505afa1580156117c1573d6000803e3d6000fd5b505050506040513d60208110156117d757600080fd5b50518311611982576040805163095ea7b360e01b81523060048201526024810185905290516001600160a01b0383169163095ea7b39160448083019260209291908290030181600087803b15801561182e57600080fd5b505af1158015611842573d6000803e3d6000fd5b505050506040513d602081101561185857600080fd5b5050604080516323b872dd60e01b81523060048201526001600160a01b038681166024830152604482018690529151918316916323b872dd916064808201926020929091908290030181600087803b1580156118b357600080fd5b505af11580156118c7573d6000803e3d6000fd5b505050506040513d60208110156118dd57600080fd5b50506040518551869190819060208401908083835b602083106119115780518252601f1990920191602091820191016118f2565b51815160001960209485036101000a01908116901991909116179052604080519490920184900384206001600160a01b038b16855290840189905281519095507f226bfaa503fda889c5dbfb29ffa193ceac9a4b461e47f68b3b14c438ec7f8b6794509283900301919050a2610b5e565b600154600354604051630cc9693960e21b81526020600482018181528951602484015289516001600160a01b039586169590941693633325a4e4938b9383926044909201919085019080838360005b838110156119e95781810151838201526020016119d1565b50505050905090810190601f168015611a165780820380516001836020036101000a031916815260200191505b509250505060206040518083038186803b158015611a3357600080fd5b505afa158015611a47573d6000803e3d6000fd5b505050506040513d6020811015611a5d57600080fd5b50516001600160a01b031614611b77576003546040516358bb6a5d60e11b81526001600160a01b03868116602483015260448201869052606060048301908152885160648401528851919093169263b176d4ba928992899289929091829160840190602087019080838360005b83811015611ae2578181015183820152602001611aca565b50505050905090810190601f168015611b0f5780820380516001836020036101000a031916815260200191505b50945050505050600060405180830381600087803b158015611b3057600080fd5b505af1158015611b44573d6000803e3d6000fd5b5050505084604051808280519060200190808383602083106119115780518252601f1990920191602091820191016118f2565b806001600160a01b031663d0dbc83385856040518363ffffffff1660e01b815260040180836001600160a01b0316815260200182815260200192505050600060405180830381600087803b158015611bce57600080fd5b505af1158015611be2573d6000803e3d6000fd5b50505050846040518082805190602001908083835b60208310611c165780518252601f199092019160209182019101611bf7565b51815160001960209485036101000a01908116901991909116179052604080519490920184900384206001600160a01b038b16855290840189905281519095507f226bfaa503fda889c5dbfb29ffa193ceac9a4b461e47f68b3b14c438ec7f8b6794509283900301919050a25050505050565b600082815260208190526040902060020154611ca790610779611d06565b610c705760405162461bcd60e51b815260040180806020018281038252603081526020018061206a6030913960400191505060405180910390fd5b6002546001600160a01b031681565b600061154d836001600160a01b038416611e08565b3390565b6000828152602081905260409020611d229082611cf1565b15610c1557611d2f611d06565b6001600160a01b0316816001600160a01b0316837f2f8788117e7eff1d82e926ec794901d17c78024a50270940304540a733656f0d60405160405180910390a45050565b6000828152602081905260409020611d8b9082611e52565b15610c1557611d98611d06565b6001600160a01b0316816001600160a01b0316837ff6391f5c32d9c69d2a47ea670b442974b53935d1edc7fd64eb21e047a839171b60405160405180910390a45050565b600061154d8383611e67565b600061154d836001600160a01b038416611ecb565b600061155082611ee3565b6000611e148383611ecb565b611e4a57508154600181810184556000848152602080822090930184905584548482528286019093526040902091909155611550565b506000611550565b600061154d836001600160a01b038416611ee7565b81546000908210611ea95760405162461bcd60e51b8152600401808060200182810382526022815260200180611fae6022913960400191505060405180910390fd5b826000018281548110611eb857fe5b9060005260206000200154905092915050565b60009081526001919091016020526040902054151590565b5490565b60008181526001830160205260408120548015611fa35783546000198083019190810190600090879083908110611f1a57fe5b9060005260206000200154905080876000018481548110611f3757fe5b600091825260208083209091019290925582815260018981019092526040902090840190558654879080611f6757fe5b60019003818190600052602060002001600090559055866001016000878152602001908152602001600020600090556001945050505050611550565b600091505061155056fe456e756d657261626c655365743a20696e646578206f7574206f6620626f756e6473416363657373436f6e74726f6c3a2073656e646572206d75737420626520616e2061646d696e20746f206772616e74537761704d616e616765723a2057455448206973206e6f74207265676973746572656420696e746f2074686520706c6174666f726d537761704d616e616765723a20746f6b656e206973206e6f74207265676973746572656420696e746f2074686520706c6174666f726d416363657373436f6e74726f6c3a2073656e646572206d75737420626520616e2061646d696e20746f207265766f6b65537761704d616e616765723a206e6f7420656e6f75676820636f6e74726163742062616c616e636520666f7220746865207472616e73666572537761704d616e616765723a206d7573742068617665205452414e534645525f524f4c4520746f207472616e66657220457468537761704d616e616765723a20746f6b656e20746f206265207472616e7366657272656420746f205052495649206973206e6f742079657420617070726f7665642062792055736572537761704d616e616765723a20746f6b656e20616d6f756e7420746f206265207472616e7366657272656420746f205052495649206973206e6f742079657420617070726f7665642062792055736572537761704d616e616765723a20616d6f756e74206d7573742062652067726561746572207468616e203020657468657273537761704d616e616765723a206d7573742068617665205452414e534645525f524f4c4520746f20776974686472617720746f6b656e416363657373436f6e74726f6c3a2063616e206f6e6c792072656e6f756e636520726f6c657320666f722073656c66a26469706673582212202a1b36d9da00093fb65ef7f15ca96207c4f36e8d037189527dac92c6ce18740e64736f6c63430007060033",
  "immutableReferences": {},
  "source": "// SPDX-License-Identifier: MIT\npragma solidity ^0.7.6;\n\nimport \"@openzeppelin/contracts/access/AccessControl.sol\";\nimport \"@openzeppelin/contracts/token/ERC20/IERC20.sol\";\nimport \"@openzeppelin/contracts/token/ERC721/IERC721.sol\";\nimport \"./token/interfaces/FakeInterface.sol\";\nimport \"./interfaces/IBridgeManager.sol\";\nimport \"./interfaces/IPRIVIPodERC20Factory.sol\";\nimport \"./interfaces/IPRIVIPodERC721Factory.sol\";\n\n/// @author The PRIVI Blockchain team\n/// @title Manages swap and withdraw of Ethers, ERC20 tokens and ERC721 tokens between Users and PRIVI platform\n\ncontract SwapManager is AccessControl{\n    // bytes32 public constant REGISTER_ROLE = keccak256(\"REGISTER_ROLE\");\n    bytes32 public constant TRANSFER_ROLE = keccak256(\"TRANSFER_ROLE\");\n    address private ZERO_ADDRESS = 0x0000000000000000000000000000000000000000;\n    address public bridgeManagerAddress;\n    address public erc20FactoryAddress;\n    address public erc721FactoryAddress;\n\n    event DepositERC20Token(string indexed tokenSymbol, address from, uint256 amount);\n    event WithdrawERC20Token(string indexed tokenSymbol, address to, uint256 amount);\n    event DepositERC721Token(string indexed tokenSymbol, address from, uint256 amount);\n    event WithdrawERC721Token(string indexed tokenSymbol, address to, uint256 tokenId);\n    // event DepositERC1155Token(string indexed tokenSymbol, address to, uint256 amount);\n    // event WithdrawERC1155Token(string indexed tokenSymbol, address to, uint256 tokenId);\n    event DepositEther(address indexed from, uint256 amount);\n    event WithdrawEther(address indexed to, uint256 amount);\n\n    /**\n     * @notice  Modifier to require 'tokenSymbol' is not empty\n     * @param   tokenSymbolToCheck Token name to be checked\n     */\n    modifier tokenNameIsNotEmpty(string memory tokenSymbolToCheck) {\n        bytes memory bytesTokenName = bytes(tokenSymbolToCheck);\n        require(bytesTokenName.length != 0, \"SwapManager: tokenName can't be empty\");\n        _;\n    }\n\n    /**\n     * @notice Constructor to assign all roles to contract creator\n     */\n    constructor(address bridgeDeployedAddress, address erc20FactoryDeployedAddress, address erc721FactoryDeployedAddress) {\n        _setupRole(DEFAULT_ADMIN_ROLE, _msgSender());\n        // _setupRole(REGISTER_ROLE, _msgSender());\n        _setupRole(TRANSFER_ROLE, _msgSender());\n        bridgeManagerAddress = bridgeDeployedAddress;\n        erc20FactoryAddress = erc20FactoryDeployedAddress;\n        erc721FactoryAddress = erc721FactoryDeployedAddress;\n    }\n\n    /**\n     * @notice  Transfer ERC20 token from sender address (User) to contract address (PRIVI)\n     * @dev     - Token to be transferred must be already registered\n     *          - User has to approve first the amount to be transferred WITHIN the original ERC20 token contract,\n     *          and not from this contract. Otherwise, transaction will always fail\n     * @param   tokenSymbol Name of the token to be transferred\n     * @param   amount Amount of tokens to be transferred\n     */\n    function depositERC20Token(string memory tokenSymbol, uint256 amount) public {\n        IBridgeManager bManager = IBridgeManager(bridgeManagerAddress);\n        address tokenAddress = bManager.getErc20AddressRegistered(tokenSymbol);\n        require(tokenAddress != ZERO_ADDRESS, \n            \"SwapManager: token is not registered into the platform\");\n        require(IERC20(tokenAddress).allowance(_msgSender(), address(this)) >= amount, \n            \"SwapManager: token amount to be transferred to PRIVI is not yet approved by User\"); \n        IERC20(tokenAddress).transferFrom(_msgSender(), address(this), amount);\n        emit DepositERC20Token(tokenSymbol, _msgSender(), amount);\n    }\n\n    /**\n     * @notice  Transfer ERC20 token from contract address (PRIVI) to sender address (User)\n     * @dev     - User must have TRANSFER_ROLE\n     *          - PRIVI must have enough tokens to transfer them back to User\n     * @param   tokenSymbol Name of the token to be transferred\n     * @param   to Destination address to receive the tokens\n     * @param   amount Amount of tokens to be transferred\n     */\n    function withdrawERC20Token(string memory tokenSymbol, address to, uint256 amount) public {\n        IBridgeManager bManager = IBridgeManager(bridgeManagerAddress);\n        address tokenAddress = bManager.getErc20AddressRegistered(tokenSymbol);\n        require(hasRole(TRANSFER_ROLE, _msgSender()), \n            \"SwapManager: must have TRANSFER_ROLE to withdraw token\");\n        if (amount <= IERC20(tokenAddress).balanceOf(address(this))) {\n            IERC20(tokenAddress).approve(address(this), amount);\n            IERC20(tokenAddress).transferFrom(address(this), to, amount);\n            emit WithdrawERC20Token(tokenSymbol, to, amount);\n        } else if (IPRIVIPodERC20Factory(erc20FactoryAddress).getPodAddressBySymbol(tokenSymbol) != ZERO_ADDRESS) {\n            IPRIVIPodERC20Factory(erc20FactoryAddress).mintPodTokenBySymbol(tokenSymbol, to, amount);\n            emit WithdrawERC20Token(tokenSymbol, to, amount);\n        } else { // only for testnet fake tokens\n            FakeInterface(tokenAddress).mintForUser(to, amount);\n            emit WithdrawERC20Token(tokenSymbol, to, amount);\n        }\n    }\n\n    /**\n     * @notice  Transfer ERC721 token from sender address (User) to contract address (PRIVI)\n     * @dev     - User must have TRANSFER_ROLE\n     *          - Token to be transferred must be already registered\n     *          - User has to approve first the amount to be transferred WITHIN the original ERC721 token contract,\n     *          and not from this contract. Otherwise, transaction will always fail\n     * @param   tokenSymbol Name of the token to be transferred\n     * @param   tokenId Token identifier to be transferred\n     */\n    function depositERC721Token(string memory tokenSymbol, uint256 tokenId) public {\n        IBridgeManager bManager = IBridgeManager(bridgeManagerAddress);\n        address tokenAddress = bManager.getErc721AddressRegistered(tokenSymbol);\n        require(tokenAddress != ZERO_ADDRESS, \n            \"SwapManager: token is not registered into the platform\");\n        /* TO BE TESTED */\n        require(IERC721(tokenAddress).getApproved(tokenId) == address(this), \n            \"SwapManager: token to be transferred to PRIVI is not yet approved by User\"); \n        IERC721(tokenAddress).transferFrom(_msgSender(), address(this), tokenId);\n        emit DepositERC721Token(tokenSymbol, _msgSender(), tokenId);\n    }\n\n    /**\n     * @notice  Transfer ERC721 token from contract address (PRIVI) to sender address (User)\n     * @dev     - User must have TRANSFER_ROLE\n     *          - PRIVI must have enough tokens to transfer them back to User\n     * @param   tokenSymbol Name of the token to be transferred\n     * @param   to Destination address to receive the tokens\n     * @param   tokenId Token identifier to be transferred\n     */\n    function withdrawERC721Token(string memory tokenSymbol, address to, uint256 tokenId) public {\n        IBridgeManager bManager = IBridgeManager(bridgeManagerAddress);\n        address tokenAddress = bManager.getErc721AddressRegistered(tokenSymbol);\n        require(hasRole(TRANSFER_ROLE, _msgSender()), \n            \"SwapManager: must have TRANSFER_ROLE to withdraw token\");\n        if (IERC721(tokenAddress).ownerOf(tokenId) == address(this)) {\n            IERC721(tokenAddress).approve(address(this), tokenId);\n            IERC721(tokenAddress).transferFrom(address(this), to, tokenId);\n            emit WithdrawERC721Token(tokenSymbol, to, tokenId);\n        } else if (IPRIVIPodERC721Factory(erc721FactoryAddress).getPodAddressBySymbol(tokenSymbol) != ZERO_ADDRESS) {\n            IPRIVIPodERC721Factory(erc721FactoryAddress).mintPodTokenBySymbol(tokenSymbol, to);\n            emit WithdrawERC721Token(tokenSymbol, to, tokenId);\n        } else {\n            revert();\n        }\n        \n    }\n\n    /**\n     * @notice  Transfer ERC1155 token from sender address (User) to contract address (PRIVI)\n     * @dev     - User must have TRANSFER_ROLE\n     *          - Token to be transferred must be already registered\n     *          - User has to approve first the amount to be transferred WITHIN the original ERC1155 token contract,\n     *          and not from this contract. Otherwise, transaction will always fail\n     * @param   tokenSymbol Name of the token to be transferred\n     * @param   to Destination address to receive the tokens\n     * @param   tokenId Token identifier to be transferred\n     */\n    // function depositERC1155Token(string memory tokenSymbol, address to, uint256 tokenId) public {\n    //     IBridgeManager bManager = IBridgeManager(bridgeManagerAddress);\n    //     address tokenAddress = bManager.getErc1155AddressRegistered(tokenSymbol);\n    //     require(tokenAddress != ZERO_ADDRESS, \n    //         \"SwapManager: token is not registered into the platform\");\n    //     /* TO BE TESTED */\n    //     require(IERC1155(tokenAddress).getApproved(tokenId) == address(this), \n    //         \"SwapManager: token to be transferred to PRIVI is not yet approved by User\"); \n    //     IERC1155(tokenAddress).transferFrom(msg.sender, to, tokenId);\n    //     emit DepositERC1155Token(tokenSymbol, to, tokenId);\n    // }\n\n    /**\n     * @notice  Transfer ERC1155 token from contract address (PRIVI) to sender address (User)\n     * @dev     - User must have TRANSFER_ROLE\n     *          - PRIVI must have enough tokens to transfer them back to User\n     * @param   tokenSymbol Name of the token to be transferred\n     * @param   to Destination address to receive the tokens\n     * @param   tokenId Token identifier to be transferred\n     */\n    // function withdrawERC1155Token(string memory tokenSymbol, address to, uint256 tokenId) public {\n    //     IBridgeManager bManager = IBridgeManager(bridgeManagerAddress);\n    //     address tokenAddress = bManager.getErc1155AddressRegistered(tokenSymbol);\n    //     require(hasRole(TRANSFER_ROLE, _msgSender()), \n    //         \"SwapManager: must have TRANSFER_ROLE to withdraw token\");\n    //     require(IERC1155(tokenAddress).balanceOf(address(this)) > 0, \n    //         \"SwapManager: insufficient funds in PRIVI contract\");\n    //     IERC1155(tokenAddress).approve(address(this), tokenId);\n    //     IERC1155(tokenAddress).transferFrom(address(this), to, tokenId);\n    //     emit WithdrawERC1155Token(tokenSymbol, to, tokenId);\n    // }\n    \n    /**\n     * @notice  Transfer ether from sender address to contract address\n     * @dev     - Amount to be deposited must be greater than 0 ethers \n     */\n    function depositEther() external payable {\n        require(msg.value > 0, \"SwapManager: amount must be greater than 0 ethers\");\n        emit DepositEther(_msgSender(), msg.value);  \n    }\n    \n    /**\n     * @notice  Transfer ether from contract address to sender address\n     * @dev     - Sender must have TRANSFER_ROLE\n     *          - Contract must have enough balance to do the transfer\n     * @param   to Destination address to receive the ether\n     * @param   amount Amount of ether to be transferred\n     */\n    function withdrawEther(address to, uint256 amount) public {\n        require(hasRole(TRANSFER_ROLE, _msgSender()), \n            \"SwapManager: must have TRANSFER_ROLE to tranfer Eth\");\n        require(payable(address(this)).balance >= amount, \n            \"SwapManager: not enough contract balance for the transfer\");\n        \n        address payable recipient = address(uint160(to));\n\n        if(amount <= address(this).balance) {\n            recipient.transfer(amount);\n        } else {\n            IBridgeManager bManager = IBridgeManager(bridgeManagerAddress);\n            address tokenAddress = bManager.getErc20AddressRegistered(\"WETH\");\n            require(tokenAddress != ZERO_ADDRESS, \n            \"SwapManager: WETH is not registered into the platform\");\n            FakeInterface(tokenAddress).mintForUser(to, amount);\n        }\n        \n        emit WithdrawEther(to, amount);\n    }\n\n    /**\n     * @return  Contract balance in weis\n     */\n    function getBalance() public view returns (uint256) {\n        return payable(address(this)).balance;\n    }\n}",
  "sourcePath": "/home/rekard0/Documents/WORK/PriviEthereum/PRIVIethereum/contracts/SwapManager.sol",
  "compiler": {
    "name": "solc",
    "version": "0.7.6+commit.7338295f.Emscripten.clang"
  },
  "schemaVersion": "3.3.3",
  "updatedAt": "2021-02-12T15:03:05.433Z",
  "networkType": "ethereum",
  "devdoc": {
    "author": "The PRIVI Blockchain team",
    "kind": "dev",
    "methods": {
      "depositERC20Token(string,uint256)": {
        "details": "- Token to be transferred must be already registered          - User has to approve first the amount to be transferred WITHIN the original ERC20 token contract,          and not from this contract. Otherwise, transaction will always fail",
        "params": {
          "amount": "Amount of tokens to be transferred",
          "tokenSymbol": "Name of the token to be transferred"
        }
      },
      "depositERC721Token(string,uint256)": {
        "details": "- User must have TRANSFER_ROLE          - Token to be transferred must be already registered          - User has to approve first the amount to be transferred WITHIN the original ERC721 token contract,          and not from this contract. Otherwise, transaction will always fail",
        "params": {
          "tokenId": "Token identifier to be transferred",
          "tokenSymbol": "Name of the token to be transferred"
        }
      },
      "depositEther()": {
        "details": "- Amount to be deposited must be greater than 0 ethers "
      },
      "getBalance()": {
        "returns": {
          "_0": "Contract balance in weis"
        }
      },
      "getRoleAdmin(bytes32)": {
        "details": "Returns the admin role that controls `role`. See {grantRole} and {revokeRole}. To change a role's admin, use {_setRoleAdmin}."
      },
      "getRoleMember(bytes32,uint256)": {
        "details": "Returns one of the accounts that have `role`. `index` must be a value between 0 and {getRoleMemberCount}, non-inclusive. Role bearers are not sorted in any particular way, and their ordering may change at any point. WARNING: When using {getRoleMember} and {getRoleMemberCount}, make sure you perform all queries on the same block. See the following https://forum.openzeppelin.com/t/iterating-over-elements-on-enumerableset-in-openzeppelin-contracts/2296[forum post] for more information."
      },
      "getRoleMemberCount(bytes32)": {
        "details": "Returns the number of accounts that have `role`. Can be used together with {getRoleMember} to enumerate all bearers of a role."
      },
      "grantRole(bytes32,address)": {
        "details": "Grants `role` to `account`. If `account` had not been already granted `role`, emits a {RoleGranted} event. Requirements: - the caller must have ``role``'s admin role."
      },
      "hasRole(bytes32,address)": {
        "details": "Returns `true` if `account` has been granted `role`."
      },
      "renounceRole(bytes32,address)": {
        "details": "Revokes `role` from the calling account. Roles are often managed via {grantRole} and {revokeRole}: this function's purpose is to provide a mechanism for accounts to lose their privileges if they are compromised (such as when a trusted device is misplaced). If the calling account had been granted `role`, emits a {RoleRevoked} event. Requirements: - the caller must be `account`."
      },
      "revokeRole(bytes32,address)": {
        "details": "Revokes `role` from `account`. If `account` had been granted `role`, emits a {RoleRevoked} event. Requirements: - the caller must have ``role``'s admin role."
      },
      "withdrawERC20Token(string,address,uint256)": {
        "details": "- User must have TRANSFER_ROLE          - PRIVI must have enough tokens to transfer them back to User",
        "params": {
          "amount": "Amount of tokens to be transferred",
          "to": "Destination address to receive the tokens",
          "tokenSymbol": "Name of the token to be transferred"
        }
      },
      "withdrawERC721Token(string,address,uint256)": {
        "details": "- User must have TRANSFER_ROLE          - PRIVI must have enough tokens to transfer them back to User",
        "params": {
          "to": "Destination address to receive the tokens",
          "tokenId": "Token identifier to be transferred",
          "tokenSymbol": "Name of the token to be transferred"
        }
      },
      "withdrawEther(address,uint256)": {
        "details": "- Sender must have TRANSFER_ROLE          - Contract must have enough balance to do the transfer",
        "params": {
          "amount": "Amount of ether to be transferred",
          "to": "Destination address to receive the ether"
        }
      }
    },
    "title": "Manages swap and withdraw of Ethers, ERC20 tokens and ERC721 tokens between Users and PRIVI platform",
    "version": 1
  },
  "userdoc": {
    "kind": "user",
    "methods": {
      "constructor": {
        "notice": "Constructor to assign all roles to contract creator"
      },
      "depositERC20Token(string,uint256)": {
        "notice": "Transfer ERC20 token from sender address (User) to contract address (PRIVI)"
      },
      "depositERC721Token(string,uint256)": {
        "notice": "Transfer ERC721 token from sender address (User) to contract address (PRIVI)"
      },
      "depositEther()": {
        "notice": "Transfer ether from sender address to contract address"
      },
      "withdrawERC20Token(string,address,uint256)": {
        "notice": "Transfer ERC20 token from contract address (PRIVI) to sender address (User)"
      },
      "withdrawERC721Token(string,address,uint256)": {
        "notice": "Transfer ERC721 token from contract address (PRIVI) to sender address (User)"
      },
      "withdrawEther(address,uint256)": {
        "notice": "Transfer ether from contract address to sender address"
      }
    },
    "version": 1
  }
}