{
  "contractName": "SwapManager",
  "abi": [
    {
      "inputs": [
        {
          "internalType": "address",
          "name": "bridgeDeployedAddress",
          "type": "address"
        },
        {
          "internalType": "address",
          "name": "erc20FactoryDeployedAddress",
          "type": "address"
        },
        {
          "internalType": "address",
          "name": "erc721FactoryDeployedAddress",
          "type": "address"
        },
        {
          "internalType": "address",
          "name": "erc1155FactoryDeployedAddress",
          "type": "address"
        },
        {
          "internalType": "address",
          "name": "erc721FactoryRoyaltyDeployedAddress",
          "type": "address"
        },
        {
          "internalType": "address",
          "name": "erc1155FactoryRoyaltyDeployedAddress",
          "type": "address"
        }
      ],
      "stateMutability": "nonpayable",
      "type": "constructor"
    },
    {
      "anonymous": false,
      "inputs": [
        {
          "indexed": true,
          "internalType": "string",
          "name": "tokenURI",
          "type": "string"
        },
        {
          "indexed": false,
          "internalType": "address",
          "name": "to",
          "type": "address"
        },
        {
          "indexed": false,
          "internalType": "uint256[]",
          "name": "tokenIds",
          "type": "uint256[]"
        },
        {
          "indexed": false,
          "internalType": "uint256[]",
          "name": "amounts",
          "type": "uint256[]"
        }
      ],
      "name": "BatchWithdrawERC1155Token",
      "type": "event"
    },
    {
      "anonymous": false,
      "inputs": [
        {
          "indexed": true,
          "internalType": "string",
          "name": "tokenURI",
          "type": "string"
        },
        {
          "indexed": false,
          "internalType": "address",
          "name": "to",
          "type": "address"
        },
        {
          "indexed": false,
          "internalType": "uint256",
          "name": "tokenId",
          "type": "uint256"
        },
        {
          "indexed": false,
          "internalType": "uint256",
          "name": "amount",
          "type": "uint256"
        }
      ],
      "name": "DepositERC1155Token",
      "type": "event"
    },
    {
      "anonymous": false,
      "inputs": [
        {
          "indexed": true,
          "internalType": "string",
          "name": "tokenSymbol",
          "type": "string"
        },
        {
          "indexed": false,
          "internalType": "address",
          "name": "from",
          "type": "address"
        },
        {
          "indexed": false,
          "internalType": "uint256",
          "name": "amount",
          "type": "uint256"
        }
      ],
      "name": "DepositERC20Token",
      "type": "event"
    },
    {
      "anonymous": false,
      "inputs": [
        {
          "indexed": true,
          "internalType": "string",
          "name": "tokenSymbol",
          "type": "string"
        },
        {
          "indexed": false,
          "internalType": "address",
          "name": "from",
          "type": "address"
        },
        {
          "indexed": false,
          "internalType": "uint256",
          "name": "tokenId",
          "type": "uint256"
        }
      ],
      "name": "DepositERC721Token",
      "type": "event"
    },
    {
      "anonymous": false,
      "inputs": [
        {
          "indexed": true,
          "internalType": "address",
          "name": "from",
          "type": "address"
        },
        {
          "indexed": false,
          "internalType": "uint256",
          "name": "amount",
          "type": "uint256"
        }
      ],
      "name": "DepositEther",
      "type": "event"
    },
    {
      "anonymous": false,
      "inputs": [
        {
          "indexed": true,
          "internalType": "bytes32",
          "name": "role",
          "type": "bytes32"
        },
        {
          "indexed": true,
          "internalType": "bytes32",
          "name": "previousAdminRole",
          "type": "bytes32"
        },
        {
          "indexed": true,
          "internalType": "bytes32",
          "name": "newAdminRole",
          "type": "bytes32"
        }
      ],
      "name": "RoleAdminChanged",
      "type": "event"
    },
    {
      "anonymous": false,
      "inputs": [
        {
          "indexed": true,
          "internalType": "bytes32",
          "name": "role",
          "type": "bytes32"
        },
        {
          "indexed": true,
          "internalType": "address",
          "name": "account",
          "type": "address"
        },
        {
          "indexed": true,
          "internalType": "address",
          "name": "sender",
          "type": "address"
        }
      ],
      "name": "RoleGranted",
      "type": "event"
    },
    {
      "anonymous": false,
      "inputs": [
        {
          "indexed": true,
          "internalType": "bytes32",
          "name": "role",
          "type": "bytes32"
        },
        {
          "indexed": true,
          "internalType": "address",
          "name": "account",
          "type": "address"
        },
        {
          "indexed": true,
          "internalType": "address",
          "name": "sender",
          "type": "address"
        }
      ],
      "name": "RoleRevoked",
      "type": "event"
    },
    {
      "anonymous": false,
      "inputs": [
        {
          "indexed": true,
          "internalType": "string",
          "name": "tokenURI",
          "type": "string"
        },
        {
          "indexed": false,
          "internalType": "address",
          "name": "to",
          "type": "address"
        },
        {
          "indexed": false,
          "internalType": "uint256",
          "name": "tokenId",
          "type": "uint256"
        },
        {
          "indexed": false,
          "internalType": "uint256",
          "name": "amount",
          "type": "uint256"
        }
      ],
      "name": "WithdrawERC1155Token",
      "type": "event"
    },
    {
      "anonymous": false,
      "inputs": [
        {
          "indexed": true,
          "internalType": "string",
          "name": "tokenSymbol",
          "type": "string"
        },
        {
          "indexed": false,
          "internalType": "address",
          "name": "to",
          "type": "address"
        },
        {
          "indexed": false,
          "internalType": "uint256",
          "name": "amount",
          "type": "uint256"
        }
      ],
      "name": "WithdrawERC20Token",
      "type": "event"
    },
    {
      "anonymous": false,
      "inputs": [
        {
          "indexed": true,
          "internalType": "string",
          "name": "tokenSymbol",
          "type": "string"
        },
        {
          "indexed": false,
          "internalType": "address",
          "name": "to",
          "type": "address"
        },
        {
          "indexed": false,
          "internalType": "uint256",
          "name": "tokenId",
          "type": "uint256"
        }
      ],
      "name": "WithdrawERC721Token",
      "type": "event"
    },
    {
      "anonymous": false,
      "inputs": [
        {
          "indexed": true,
          "internalType": "address",
          "name": "to",
          "type": "address"
        },
        {
          "indexed": false,
          "internalType": "uint256",
          "name": "amount",
          "type": "uint256"
        }
      ],
      "name": "WithdrawEther",
      "type": "event"
    },
    {
      "inputs": [],
      "name": "DEFAULT_ADMIN_ROLE",
      "outputs": [
        {
          "internalType": "bytes32",
          "name": "",
          "type": "bytes32"
        }
      ],
      "stateMutability": "view",
      "type": "function"
    },
    {
      "inputs": [],
      "name": "TRANSFER_ROLE",
      "outputs": [
        {
          "internalType": "bytes32",
          "name": "",
          "type": "bytes32"
        }
      ],
      "stateMutability": "view",
      "type": "function"
    },
    {
      "inputs": [],
      "name": "bridgeManagerAddress",
      "outputs": [
        {
          "internalType": "address",
          "name": "",
          "type": "address"
        }
      ],
      "stateMutability": "view",
      "type": "function"
    },
    {
      "inputs": [],
      "name": "erc1155FactoryAddress",
      "outputs": [
        {
          "internalType": "address",
          "name": "",
          "type": "address"
        }
      ],
      "stateMutability": "view",
      "type": "function"
    },
    {
      "inputs": [],
      "name": "erc1155RoyaltyFactoryAddress",
      "outputs": [
        {
          "internalType": "address",
          "name": "",
          "type": "address"
        }
      ],
      "stateMutability": "view",
      "type": "function"
    },
    {
      "inputs": [],
      "name": "erc20FactoryAddress",
      "outputs": [
        {
          "internalType": "address",
          "name": "",
          "type": "address"
        }
      ],
      "stateMutability": "view",
      "type": "function"
    },
    {
      "inputs": [],
      "name": "erc721FactoryAddress",
      "outputs": [
        {
          "internalType": "address",
          "name": "",
          "type": "address"
        }
      ],
      "stateMutability": "view",
      "type": "function"
    },
    {
      "inputs": [],
      "name": "erc721RoyaltyFactoryAddress",
      "outputs": [
        {
          "internalType": "address",
          "name": "",
          "type": "address"
        }
      ],
      "stateMutability": "view",
      "type": "function"
    },
    {
      "inputs": [
        {
          "internalType": "bytes32",
          "name": "role",
          "type": "bytes32"
        }
      ],
      "name": "getRoleAdmin",
      "outputs": [
        {
          "internalType": "bytes32",
          "name": "",
          "type": "bytes32"
        }
      ],
      "stateMutability": "view",
      "type": "function"
    },
    {
      "inputs": [
        {
          "internalType": "bytes32",
          "name": "role",
          "type": "bytes32"
        },
        {
          "internalType": "address",
          "name": "account",
          "type": "address"
        }
      ],
      "name": "grantRole",
      "outputs": [],
      "stateMutability": "nonpayable",
      "type": "function"
    },
    {
      "inputs": [
        {
          "internalType": "bytes32",
          "name": "role",
          "type": "bytes32"
        },
        {
          "internalType": "address",
          "name": "account",
          "type": "address"
        }
      ],
      "name": "hasRole",
      "outputs": [
        {
          "internalType": "bool",
          "name": "",
          "type": "bool"
        }
      ],
      "stateMutability": "view",
      "type": "function"
    },
    {
      "inputs": [
        {
          "internalType": "address",
          "name": "",
          "type": "address"
        },
        {
          "internalType": "address",
          "name": "",
          "type": "address"
        },
        {
          "internalType": "uint256[]",
          "name": "",
          "type": "uint256[]"
        },
        {
          "internalType": "uint256[]",
          "name": "",
          "type": "uint256[]"
        },
        {
          "internalType": "bytes",
          "name": "",
          "type": "bytes"
        }
      ],
      "name": "onERC1155BatchReceived",
      "outputs": [
        {
          "internalType": "bytes4",
          "name": "",
          "type": "bytes4"
        }
      ],
      "stateMutability": "nonpayable",
      "type": "function"
    },
    {
      "inputs": [
        {
          "internalType": "address",
          "name": "",
          "type": "address"
        },
        {
          "internalType": "address",
          "name": "",
          "type": "address"
        },
        {
          "internalType": "uint256",
          "name": "",
          "type": "uint256"
        },
        {
          "internalType": "uint256",
          "name": "",
          "type": "uint256"
        },
        {
          "internalType": "bytes",
          "name": "",
          "type": "bytes"
        }
      ],
      "name": "onERC1155Received",
      "outputs": [
        {
          "internalType": "bytes4",
          "name": "",
          "type": "bytes4"
        }
      ],
      "stateMutability": "nonpayable",
      "type": "function"
    },
    {
      "inputs": [
        {
          "internalType": "bytes32",
          "name": "role",
          "type": "bytes32"
        },
        {
          "internalType": "address",
          "name": "account",
          "type": "address"
        }
      ],
      "name": "renounceRole",
      "outputs": [],
      "stateMutability": "nonpayable",
      "type": "function"
    },
    {
      "inputs": [
        {
          "internalType": "bytes32",
          "name": "role",
          "type": "bytes32"
        },
        {
          "internalType": "address",
          "name": "account",
          "type": "address"
        }
      ],
      "name": "revokeRole",
      "outputs": [],
      "stateMutability": "nonpayable",
      "type": "function"
    },
    {
      "inputs": [
        {
          "internalType": "bytes4",
          "name": "interfaceId",
          "type": "bytes4"
        }
      ],
      "name": "supportsInterface",
      "outputs": [
        {
          "internalType": "bool",
          "name": "",
          "type": "bool"
        }
      ],
      "stateMutability": "view",
      "type": "function"
    },
    {
      "inputs": [
        {
          "internalType": "string",
          "name": "tokenSymbol",
          "type": "string"
        },
        {
          "internalType": "uint256",
          "name": "amount",
          "type": "uint256"
        }
      ],
      "name": "depositERC20Token",
      "outputs": [],
      "stateMutability": "nonpayable",
      "type": "function"
    },
    {
      "inputs": [
        {
          "internalType": "string",
          "name": "tokenSymbol",
          "type": "string"
        },
        {
          "internalType": "address",
          "name": "to",
          "type": "address"
        },
        {
          "internalType": "uint256",
          "name": "amount",
          "type": "uint256"
        }
      ],
      "name": "withdrawERC20Token",
      "outputs": [],
      "stateMutability": "nonpayable",
      "type": "function"
    },
    {
      "inputs": [
        {
          "internalType": "string",
          "name": "tokenSymbol",
          "type": "string"
        },
        {
          "internalType": "uint256",
          "name": "tokenId",
          "type": "uint256"
        }
      ],
      "name": "depositERC721Token",
      "outputs": [],
      "stateMutability": "nonpayable",
      "type": "function"
    },
    {
      "inputs": [
        {
          "internalType": "string",
          "name": "tokenSymbol",
          "type": "string"
        },
        {
          "internalType": "address",
          "name": "to",
          "type": "address"
        },
        {
          "internalType": "uint256",
          "name": "tokenId",
          "type": "uint256"
        },
        {
          "internalType": "bool",
          "name": "isPodMint",
          "type": "bool"
        },
        {
          "internalType": "bool",
          "name": "isRoyalty",
          "type": "bool"
        }
      ],
      "name": "withdrawERC721Token",
      "outputs": [],
      "stateMutability": "nonpayable",
      "type": "function"
    },
    {
      "inputs": [
        {
          "internalType": "string",
          "name": "tokenURI",
          "type": "string"
        },
        {
          "internalType": "address",
          "name": "to",
          "type": "address"
        },
        {
          "internalType": "uint256",
          "name": "tokenId",
          "type": "uint256"
        },
        {
          "internalType": "uint256",
          "name": "amount",
          "type": "uint256"
        },
        {
          "internalType": "bytes",
          "name": "data",
          "type": "bytes"
        }
      ],
      "name": "depositERC1155Token",
      "outputs": [],
      "stateMutability": "nonpayable",
      "type": "function"
    },
    {
      "inputs": [
        {
          "internalType": "string",
          "name": "tokenURI",
          "type": "string"
        },
        {
          "internalType": "address",
          "name": "to",
          "type": "address"
        },
        {
          "internalType": "uint256",
          "name": "tokenId",
          "type": "uint256"
        },
        {
          "internalType": "uint256",
          "name": "amount",
          "type": "uint256"
        },
        {
          "internalType": "bytes",
          "name": "data",
          "type": "bytes"
        },
        {
          "internalType": "bool",
          "name": "isPodMint",
          "type": "bool"
        },
        {
          "internalType": "bool",
          "name": "isRoyalty",
          "type": "bool"
        }
      ],
      "name": "withdrawERC1155Token",
      "outputs": [],
      "stateMutability": "nonpayable",
      "type": "function"
    },
    {
      "inputs": [
        {
          "internalType": "string",
          "name": "tokenURI",
          "type": "string"
        },
        {
          "internalType": "address",
          "name": "to",
          "type": "address"
        },
        {
          "internalType": "uint256[]",
          "name": "tokenIds",
          "type": "uint256[]"
        },
        {
          "internalType": "uint256[]",
          "name": "amounts",
          "type": "uint256[]"
        },
        {
          "internalType": "bytes",
          "name": "data",
          "type": "bytes"
        },
        {
          "internalType": "bool",
          "name": "isPodMint",
          "type": "bool"
        }
      ],
      "name": "batchWithdrawERC1155Token",
      "outputs": [],
      "stateMutability": "nonpayable",
      "type": "function"
    },
    {
      "inputs": [],
      "name": "depositEther",
      "outputs": [],
      "stateMutability": "payable",
      "type": "function"
    },
    {
      "inputs": [
        {
          "internalType": "address",
          "name": "to",
          "type": "address"
        },
        {
          "internalType": "uint256",
          "name": "amount",
          "type": "uint256"
        }
      ],
      "name": "withdrawEther",
      "outputs": [],
      "stateMutability": "nonpayable",
      "type": "function"
    },
    {
      "inputs": [],
      "name": "getBalance",
      "outputs": [
        {
          "internalType": "uint256",
          "name": "",
          "type": "uint256"
        }
      ],
      "stateMutability": "view",
      "type": "function"
    }
  ],
  "bytecode": "0x6080604052600180546001600160a01b03191690553480156200002157600080fd5b50604051620036ac380380620036ac8339810160408190526200004491620001e0565b6200005a600062000054620000fc565b62000100565b620000897f8502233096d909befbda0999bb8ea2f3a6be3c138b9fbf003752a4c8bce86f6c62000054620000fc565b600280546001600160a01b03199081166001600160a01b039889161790915560038054821696881696909617909555600480548616948716949094179093556005805485169286169290921790915560068054841691851691909117905560078054909216921691909117905562000260565b3390565b6200010c828262000110565b5050565b6200011c82826200019a565b6200010c576000828152602081815260408083206001600160a01b03851684529091529020805460ff1916600117905562000156620000fc565b6001600160a01b0316816001600160a01b0316837f2f8788117e7eff1d82e926ec794901d17c78024a50270940304540a733656f0d60405160405180910390a45050565b6000918252602082815260408084206001600160a01b0393909316845291905290205460ff1690565b80516001600160a01b0381168114620001db57600080fd5b919050565b60008060008060008060c08789031215620001f9578182fd5b6200020487620001c3565b95506200021460208801620001c3565b94506200022460408801620001c3565b93506200023460608801620001c3565b92506200024460808801620001c3565b91506200025460a08801620001c3565b90509295509295509295565b61343c80620002706000396000f3fe6080604052600436106101a15760003560e01c80637f748ec5116100e1578063bc197c811161008a578063d406e10311610064578063d406e10314610435578063d547741f14610455578063e792b19414610475578063f23a6e611461048a576101a1565b8063bc197c81146103d3578063c768b17c14610400578063d1af27c414610415576101a1565b806398ea5fca116100bb57806398ea5fca146103965780639ad5ee931461039e578063a217fddf146103be576101a1565b80637f748ec5146103415780638627b03c1461036157806391d1485414610376576101a1565b80632dc067091161014e57806336568abe1161012857806336568abe146102c1578063412991cb146102e1578063522f6815146103015780637de2c62614610321576101a1565b80632dc06709146102775780632f1d46711461028c5780632f2ff15d146102a1576101a1565b806312065fe01161017f57806312065fe014610220578063206b60f914610242578063248a9ca314610257576101a1565b806301ffc9a7146101a6578063032b8b87146101dc5780630ec4dd5b146101fe575b600080fd5b3480156101b257600080fd5b506101c66101c1366004612505565b6104aa565b6040516101d39190612aab565b60405180910390f35b3480156101e857600080fd5b506101f16104bd565b6040516101d39190612940565b34801561020a57600080fd5b5061021e61021936600461265a565b6104cc565b005b34801561022c57600080fd5b50610235610a01565b6040516101d39190612ab6565b34801561024e57600080fd5b50610235610a06565b34801561026357600080fd5b506102356102723660046124be565b610a2a565b34801561028357600080fd5b506101f1610a3f565b34801561029857600080fd5b506101f1610a4e565b3480156102ad57600080fd5b5061021e6102bc3660046124d6565b610a5d565b3480156102cd57600080fd5b5061021e6102dc3660046124d6565b610a9b565b3480156102ed57600080fd5b5061021e6102fc36600461281f565b610add565b34801561030d57600080fd5b5061021e61031c366004612477565b610d01565b34801561032d57600080fd5b5061021e61033c36600461281f565b610f0b565b34801561034d57600080fd5b5061021e61035c36600461252d565b611132565b34801561036d57600080fd5b506101f161144b565b34801561038257600080fd5b506101c66103913660046124d6565b61145a565b61021e611483565b3480156103aa57600080fd5b5061021e6103b936600461276a565b6114ed565b3480156103ca57600080fd5b50610235611a21565b3480156103df57600080fd5b506103f36103ee366004612366565b611a26565b6040516101d39190612abf565b34801561040c57600080fd5b506101f1611a37565b34801561042157600080fd5b5061021e6104303660046125ff565b611a46565b34801561044157600080fd5b5061021e6104503660046126dd565b611e2a565b34801561046157600080fd5b5061021e6104703660046124d6565b61204b565b34801561048157600080fd5b506101f1612073565b34801561049657600080fd5b506103f36104a5366004612410565b612082565b60006104b582612093565b90505b919050565b6006546001600160a01b031681565b60025460405163122acfb560e31b81526001600160a01b039091169060009082906391567da890610503908b908b90600401612ad4565b60206040518083038186803b15801561051b57600080fd5b505afa15801561052f573d6000803e3d6000fd5b505050506040513d601f19601f820116820180604052508101906105539190612343565b90506105817f8502233096d909befbda0999bb8ea2f3a6be3c138b9fbf003752a4c8bce86f6c6103916120b8565b6105a65760405162461bcd60e51b815260040161059d90613289565b60405180910390fd5b6001841515141561089a576001831515141561072c57600154600654604051630cc9693960e21b81526001600160a01b039283169290911690633325a4e4906105f5908c908c90600401612ad4565b60206040518083038186803b15801561060d57600080fd5b505afa158015610621573d6000803e3d6000fd5b505050506040513d601f19601f820116820180604052508101906106459190612343565b6001600160a01b03161461070f576006546040516306ce0c0960e11b81526001600160a01b0390911690630d9c181290610687908b908b908b90600401612af0565b600060405180830381600087803b1580156106a157600080fd5b505af11580156106b5573d6000803e3d6000fd5b5050505087876040516106c9929190612930565b60405180910390207fd28833d48ffa5c3f0ea93c47adcb7e8015c714a9c0ddf007d4e523851b98367e8787604051610702929190612a71565b60405180910390a2610727565b60405162461bcd60e51b815260040161059d90612fb7565b610895565b60015460048054604051630cc9693960e21b81526001600160a01b039384169390911691633325a4e491610764918d918d9101612ad4565b60206040518083038186803b15801561077c57600080fd5b505afa158015610790573d6000803e3d6000fd5b505050506040513d601f19601f820116820180604052508101906107b49190612343565b6001600160a01b03161461087d57600480546040516306ce0c0960e11b81526001600160a01b0390911691630d9c1812916107f5918c918c918c9101612af0565b600060405180830381600087803b15801561080f57600080fd5b505af1158015610823573d6000803e3d6000fd5b505050508787604051610837929190612930565b60405180910390207fd28833d48ffa5c3f0ea93c47adcb7e8015c714a9c0ddf007d4e523851b98367e8787604051610870929190612a71565b60405180910390a2610895565b60405162461bcd60e51b815260040161059d90612cd0565b6109f7565b6040516331a9108f60e11b815230906001600160a01b03831690636352211e906108c8908990600401612ab6565b60206040518083038186803b1580156108e057600080fd5b505afa1580156108f4573d6000803e3d6000fd5b505050506040513d601f19601f820116820180604052508101906109189190612343565b6001600160a01b031614156109df576040516323b872dd60e01b81526001600160a01b038216906323b872dd906109579030908a908a906004016129cc565b600060405180830381600087803b15801561097157600080fd5b505af1158015610985573d6000803e3d6000fd5b505050508787604051610999929190612930565b60405180910390207fd28833d48ffa5c3f0ea93c47adcb7e8015c714a9c0ddf007d4e523851b98367e87876040516109d2929190612a71565b60405180910390a26109f7565b60405162461bcd60e51b815260040161059d90612c73565b5050505050505050565b303190565b7f8502233096d909befbda0999bb8ea2f3a6be3c138b9fbf003752a4c8bce86f6c81565b60009081526020819052604090206001015490565b6004546001600160a01b031681565b6005546001600160a01b031681565b610a71610a6983610a2a565b6103916120b8565b610a8d5760405162461bcd60e51b815260040161059d90612bf8565b610a9782826120bc565b5050565b610aa36120b8565b6001600160a01b0316816001600160a01b031614610ad35760405162461bcd60e51b815260040161059d90613343565b610a978282612141565b60025460405163122acfb560e31b81526001600160a01b039091169060009082906391567da890610b149088908890600401612ad4565b60206040518083038186803b158015610b2c57600080fd5b505afa158015610b40573d6000803e3d6000fd5b505050506040513d601f19601f82011682018060405250810190610b649190612343565b6001549091506001600160a01b0380831691161415610b955760405162461bcd60e51b815260040161059d90612d8a565b60405163020604bf60e21b815230906001600160a01b0383169063081812fc90610bc3908790600401612ab6565b60206040518083038186803b158015610bdb57600080fd5b505afa158015610bef573d6000803e3d6000fd5b505050506040513d601f19601f82011682018060405250810190610c139190612343565b6001600160a01b031614610c395760405162461bcd60e51b815260040161059d90612f48565b806001600160a01b03166323b872dd610c506120b8565b30866040518463ffffffff1660e01b8152600401610c70939291906129cc565b600060405180830381600087803b158015610c8a57600080fd5b505af1158015610c9e573d6000803e3d6000fd5b505050508484604051610cb2929190612930565b60405180910390207ff0218d2f738513bea289b1b8ca83d8241a1060f13280602f9b7ff8e3598d4c83610ce36120b8565b85604051610cf2929190612a71565b60405180910390a25050505050565b610d2d7f8502233096d909befbda0999bb8ea2f3a6be3c138b9fbf003752a4c8bce86f6c6103916120b8565b610d495760405162461bcd60e51b815260040161059d90612eeb565b3031811115610d6a5760405162461bcd60e51b815260040161059d90612e8e565b81478211610dae576040516001600160a01b0382169083156108fc029084906000818181858888f19350505050158015610da8573d6000803e3d6000fd5b50610ec5565b6002546040516308521f5d60e11b81526001600160a01b039091169060009082906310a43eba90610de190600401612c55565b60206040518083038186803b158015610df957600080fd5b505afa158015610e0d573d6000803e3d6000fd5b505050506040513d601f19601f82011682018060405250810190610e319190612343565b6001549091506001600160a01b0380831691161415610e625760405162461bcd60e51b815260040161059d90612d2d565b60405163d0dbc83360e01b81526001600160a01b0382169063d0dbc83390610e909088908890600401612a71565b600060405180830381600087803b158015610eaa57600080fd5b505af1158015610ebe573d6000803e3d6000fd5b5050505050505b826001600160a01b03167fdb35132c111efe920cede025e819975671cfd1b8fcc1174762c8670c4e94c21183604051610efe9190612ab6565b60405180910390a2505050565b6002546040516308521f5d60e11b81526001600160a01b039091169060009082906310a43eba90610f429088908890600401612ad4565b60206040518083038186803b158015610f5a57600080fd5b505afa158015610f6e573d6000803e3d6000fd5b505050506040513d601f19601f82011682018060405250810190610f929190612343565b6001549091506001600160a01b0380831691161415610fc35760405162461bcd60e51b815260040161059d90612d8a565b82816001600160a01b031663dd62ed3e610fdb6120b8565b306040518363ffffffff1660e01b8152600401610ff9929190612954565b60206040518083038186803b15801561101157600080fd5b505afa158015611025573d6000803e3d6000fd5b505050506040513d601f19601f820116820180604052508101906110499190612869565b10156110675760405162461bcd60e51b815260040161059d906130a5565b806001600160a01b03166323b872dd61107e6120b8565b30866040518463ffffffff1660e01b815260040161109e939291906129cc565b602060405180830381600087803b1580156110b857600080fd5b505af11580156110cc573d6000803e3d6000fd5b505050506040513d601f19601f820116820180604052508101906110f091906124a2565b508484604051611101929190612930565b60405180910390207f91ed334b741c7cbbae982dad9ca693e9d47b9a50db6fd5f346755f5bca14dfdd610ce36120b8565b6002546040516309ba36bf60e31b81526001600160a01b03909116906000908290634dd1b5f890611169908c908c90600401612ad4565b60206040518083038186803b15801561118157600080fd5b505afa158015611195573d6000803e3d6000fd5b505050506040513d601f19601f820116820180604052508101906111b99190612343565b90506111e77f8502233096d909befbda0999bb8ea2f3a6be3c138b9fbf003752a4c8bce86f6c6103916120b8565b6112035760405162461bcd60e51b815260040161059d90613289565b6001831515141561138657600154600554604051637d2c9af760e11b81526001600160a01b03928316929091169063fa5935ee90611247908d908d90600401612ad4565b60206040518083038186803b15801561125f57600080fd5b505afa158015611273573d6000803e3d6000fd5b505050506040513d601f19601f820116820180604052508101906112979190612343565b6001600160a01b03161461136957600554604051638dcab0f960e01b81526001600160a01b0390911690638dcab0f9906112df908c908c908c908c908c908c90600401612b1d565b600060405180830381600087803b1580156112f957600080fd5b505af115801561130d573d6000803e3d6000fd5b505050508888604051611321929190612930565b60405180910390207f03606c85c375332da8a71abb0ad8be85cbac18693d349dd5169e69ced38f448388888860405161135c93929190612a33565b60405180910390a2611381565b60405162461bcd60e51b815260040161059d9061305e565b611440565b604051631759616b60e11b81526001600160a01b03821690632eb2c2d6906113ba9030908b908b908b908b9060040161296e565b600060405180830381600087803b1580156113d457600080fd5b505af11580156113e8573d6000803e3d6000fd5b5050505088886040516113fc929190612930565b60405180910390207f03606c85c375332da8a71abb0ad8be85cbac18693d349dd5169e69ced38f448388888860405161143793929190612a33565b60405180910390a25b505050505050505050565b6007546001600160a01b031681565b6000918252602082815260408084206001600160a01b0393909316845291905290205460ff1690565b600034116114a35760405162461bcd60e51b815260040161059d90613128565b6114ab6120b8565b6001600160a01b03167fe628a607143b255f52afd0900e0d9630dd009c2f2635cd1e28c7aeeeff940802346040516114e39190612ab6565b60405180910390a2565b6002546040516309ba36bf60e31b81526001600160a01b03909116906000908290634dd1b5f890611524908d908d90600401612ad4565b60206040518083038186803b15801561153c57600080fd5b505afa158015611550573d6000803e3d6000fd5b505050506040513d601f19601f820116820180604052508101906115749190612343565b90506115a27f8502233096d909befbda0999bb8ea2f3a6be3c138b9fbf003752a4c8bce86f6c6103916120b8565b6115be5760405162461bcd60e51b815260040161059d90613289565b600184151514156118bf57821561174757600154600554604051637d2c9af760e11b81526001600160a01b03928316929091169063fa5935ee90611608908e908e90600401612ad4565b60206040518083038186803b15801561162057600080fd5b505afa158015611634573d6000803e3d6000fd5b505050506040513d601f19601f820116820180604052508101906116589190612343565b6001600160a01b03161461172a5760055460405163c9f4ef0160e01b81526001600160a01b039091169063c9f4ef01906116a0908d908d908d908d908d908d90600401612bb7565b600060405180830381600087803b1580156116ba57600080fd5b505af11580156116ce573d6000803e3d6000fd5b5050505089896040516116e2929190612930565b60405180910390207fab8a6099aa0324935264b44e69aafeb656755f4dd4113be720a27f4e45128f9a89898960405161171d93929190612a8a565b60405180910390a2611742565b60405162461bcd60e51b815260040161059d906132e6565b6118ba565b600154600554604051637d2c9af760e11b81526001600160a01b03928316929091169063fa5935ee90611780908e908e90600401612ad4565b60206040518083038186803b15801561179857600080fd5b505afa1580156117ac573d6000803e3d6000fd5b505050506040513d601f19601f820116820180604052508101906117d09190612343565b6001600160a01b0316146118a25760055460405163c9f4ef0160e01b81526001600160a01b039091169063c9f4ef0190611818908d908d908d908d908d908d90600401612bb7565b600060405180830381600087803b15801561183257600080fd5b505af1158015611846573d6000803e3d6000fd5b50505050898960405161185a929190612930565b60405180910390207fab8a6099aa0324935264b44e69aafeb656755f4dd4113be720a27f4e45128f9a89898960405161189593929190612a8a565b60405180910390a26118ba565b60405162461bcd60e51b815260040161059d9061322c565b611a15565b604051627eeac760e11b815286906001600160a01b0383169062fdd58e906118ed9030908c90600401612a71565b60206040518083038186803b15801561190557600080fd5b505afa158015611919573d6000803e3d6000fd5b505050506040513d601f19601f8201168201806040525081019061193d9190612869565b101561195b5760405162461bcd60e51b815260040161059d906131cf565b604051637921219560e11b81526001600160a01b0382169063f242432a9061198f9030908c908c908c908c906004016129f0565b600060405180830381600087803b1580156119a957600080fd5b505af11580156119bd573d6000803e3d6000fd5b5050505089896040516119d1929190612930565b60405180910390207fab8a6099aa0324935264b44e69aafeb656755f4dd4113be720a27f4e45128f9a898989604051611a0c93929190612a8a565b60405180910390a25b50505050505050505050565b600081565b63bc197c8160e01b95945050505050565b6003546001600160a01b031681565b60008111611a665760405162461bcd60e51b815260040161059d90613185565b6002546040516308521f5d60e11b81526001600160a01b039091169060009082906310a43eba90611a9d9089908990600401612ad4565b60206040518083038186803b158015611ab557600080fd5b505afa158015611ac9573d6000803e3d6000fd5b505050506040513d601f19601f82011682018060405250810190611aed9190612343565b9050611b1b7f8502233096d909befbda0999bb8ea2f3a6be3c138b9fbf003752a4c8bce86f6c6103916120b8565b611b375760405162461bcd60e51b815260040161059d90613289565b6040516370a0823160e01b81526001600160a01b038216906370a0823190611b63903090600401612940565b60206040518083038186803b158015611b7b57600080fd5b505afa158015611b8f573d6000803e3d6000fd5b505050506040513d601f19601f82011682018060405250810190611bb39190612869565b8311611d135760405163095ea7b360e01b81526001600160a01b0382169063095ea7b390611be79030908790600401612a71565b602060405180830381600087803b158015611c0157600080fd5b505af1158015611c15573d6000803e3d6000fd5b505050506040513d601f19601f82011682018060405250810190611c3991906124a2565b506040516323b872dd60e01b81526001600160a01b038216906323b872dd90611c6a903090889088906004016129cc565b602060405180830381600087803b158015611c8457600080fd5b505af1158015611c98573d6000803e3d6000fd5b505050506040513d601f19601f82011682018060405250810190611cbc91906124a2565b508585604051611ccd929190612930565b60405180910390207f226bfaa503fda889c5dbfb29ffa193ceac9a4b461e47f68b3b14c438ec7f8b678585604051611d06929190612a71565b60405180910390a2611e22565b600154600354604051630cc9693960e21b81526001600160a01b039283169290911690633325a4e490611d4c908a908a90600401612ad4565b60206040518083038186803b158015611d6457600080fd5b505afa158015611d78573d6000803e3d6000fd5b505050506040513d601f19601f82011682018060405250810190611d9c9190612343565b6001600160a01b031614611369576003546040516358bb6a5d60e11b81526001600160a01b039091169063b176d4ba90611de0908990899089908990600401612b87565b600060405180830381600087803b158015611dfa57600080fd5b505af1158015611e0e573d6000803e3d6000fd5b505050508585604051611ccd929190612930565b505050505050565b6002546040516309ba36bf60e31b81526001600160a01b03909116906000908290634dd1b5f890611e61908b908b90600401612ad4565b60206040518083038186803b158015611e7957600080fd5b505afa158015611e8d573d6000803e3d6000fd5b505050506040513d601f19601f82011682018060405250810190611eb19190612343565b6001549091506001600160a01b0380831691161415611ee25760405162461bcd60e51b815260040161059d90613001565b60405163e985e9c560e01b81526001600160a01b0382169063e985e9c590611f109033903090600401612954565b60206040518083038186803b158015611f2857600080fd5b505afa158015611f3c573d6000803e3d6000fd5b505050506040513d601f19601f82011682018060405250810190611f6091906124a2565b1515600114611f815760405162461bcd60e51b815260040161059d90612de7565b806001600160a01b031663f242432a611f986120b8565b308888886040518663ffffffff1660e01b8152600401611fbc9594939291906129f0565b600060405180830381600087803b158015611fd657600080fd5b505af1158015611fea573d6000803e3d6000fd5b505050508787604051611ffe929190612930565b60405180910390207f30e725d42f865939c1f9052f420a2039b3b3ea182d64853dc9e3f12fa1cf506187878760405161203993929190612a8a565b60405180910390a25050505050505050565b612057610a6983610a2a565b610ad35760405162461bcd60e51b815260040161059d90612e31565b6002546001600160a01b031681565b63f23a6e6160e01b95945050505050565b60006001600160e01b03198216630271189760e51b14806104b557506104b5826121c4565b3390565b6120c6828261145a565b610a97576000828152602081815260408083206001600160a01b03851684529091529020805460ff191660011790556120fd6120b8565b6001600160a01b0316816001600160a01b0316837f2f8788117e7eff1d82e926ec794901d17c78024a50270940304540a733656f0d60405160405180910390a45050565b61214b828261145a565b15610a97576000828152602081815260408083206001600160a01b03851684529091529020805460ff191690556121806120b8565b6001600160a01b0316816001600160a01b0316837ff6391f5c32d9c69d2a47ea670b442974b53935d1edc7fd64eb21e047a839171b60405160405180910390a45050565b60006001600160e01b03198216637965db0b60e01b14806104b557506301ffc9a760e01b6001600160e01b03198316146104b5565b80356104b8816133e0565b600082601f830112612214578081fd5b8135602067ffffffffffffffff821115612230576122306133ca565b80820261223e8282016133a0565b838152828101908684018388018501891015612258578687fd5b8693505b8584101561227a57803583526001939093019291840191840161225c565b50979650505050505050565b80356104b8816133f8565b600082601f8301126122a1578081fd5b813567ffffffffffffffff8111156122bb576122bb6133ca565b6122ce601f8201601f19166020016133a0565b8181528460208386010111156122e2578283fd5b816020850160208301379081016020019190915292915050565b60008083601f84011261230d578182fd5b50813567ffffffffffffffff811115612324578182fd5b60208301915083602082850101111561233c57600080fd5b9250929050565b600060208284031215612354578081fd5b815161235f816133e0565b9392505050565b600080600080600060a0868803121561237d578081fd5b8535612388816133e0565b94506020860135612398816133e0565b9350604086013567ffffffffffffffff808211156123b4578283fd5b6123c089838a01612204565b945060608801359150808211156123d5578283fd5b6123e189838a01612204565b935060808801359150808211156123f6578283fd5b5061240388828901612291565b9150509295509295909350565b600080600080600060a08688031215612427578081fd5b8535612432816133e0565b94506020860135612442816133e0565b93506040860135925060608601359150608086013567ffffffffffffffff81111561246b578182fd5b61240388828901612291565b60008060408385031215612489578182fd5b8235612494816133e0565b946020939093013593505050565b6000602082840312156124b3578081fd5b815161235f816133f8565b6000602082840312156124cf578081fd5b5035919050565b600080604083850312156124e8578182fd5b8235915060208301356124fa816133e0565b809150509250929050565b600060208284031215612516578081fd5b81356001600160e01b03198116811461235f578182fd5b600080600080600080600060c0888a031215612547578182fd5b873567ffffffffffffffff8082111561255e578384fd5b61256a8b838c016122fc565b909950975087915061257e60208b016121f9565b965060408a0135915080821115612593578384fd5b61259f8b838c01612204565b955060608a01359150808211156125b4578384fd5b6125c08b838c01612204565b945060808a01359150808211156125d5578384fd5b506125e28a828b01612291565b9250506125f160a08901612286565b905092959891949750929550565b60008060008060608587031215612614578182fd5b843567ffffffffffffffff81111561262a578283fd5b612636878288016122fc565b909550935050602085013561264a816133e0565b9396929550929360400135925050565b60008060008060008060a08789031215612672578384fd5b863567ffffffffffffffff811115612688578485fd5b61269489828a016122fc565b90975095505060208701356126a8816133e0565b93506040870135925060608701356126bf816133f8565b915060808701356126cf816133f8565b809150509295509295509295565b60008060008060008060a087890312156126f5578384fd5b863567ffffffffffffffff8082111561270c578586fd5b6127188a838b016122fc565b90985096506020890135915061272d826133e0565b909450604088013593506060880135925060808801359080821115612750578283fd5b5061275d89828a01612291565b9150509295509295509295565b60008060008060008060008060e0898b031215612785578182fd5b883567ffffffffffffffff8082111561279c578384fd5b6127a88c838d016122fc565b909a50985060208b013591506127bd826133e0565b90965060408a0135955060608a0135945060808a013590808211156127e0578384fd5b506127ed8b828c01612291565b93505060a08901356127fe816133f8565b915060c089013561280e816133f8565b809150509295985092959890939650565b600080600060408486031215612833578081fd5b833567ffffffffffffffff811115612849578182fd5b612855868287016122fc565b909790965060209590950135949350505050565b60006020828403121561287a578081fd5b5051919050565b6000815180845260208085019450808401835b838110156128b057815187529582019590820190600101612894565b509495945050505050565b60008151808452815b818110156128e0576020818501810151868301820152016128c4565b818111156128f15782602083870101525b50601f01601f19169290920160200192915050565b60008284528282602086013780602084860101526020601f19601f85011685010190509392505050565b6000828483379101908152919050565b6001600160a01b0391909116815260200190565b6001600160a01b0392831681529116602082015260400190565b60006001600160a01b03808816835280871660208401525060a0604083015261299a60a0830186612881565b82810360608401526129ac8186612881565b905082810360808401526129c081856128bb565b98975050505050505050565b6001600160a01b039384168152919092166020820152604081019190915260600190565b60006001600160a01b03808816835280871660208401525084604083015283606083015260a06080830152612a2860a08301846128bb565b979650505050505050565b60006001600160a01b038516825260606020830152612a556060830185612881565b8281036040840152612a678185612881565b9695505050505050565b6001600160a01b03929092168252602082015260400190565b6001600160a01b039390931683526020830191909152604082015260600190565b901515815260200190565b90815260200190565b6001600160e01b031991909116815260200190565b600060208252612ae8602083018486612906565b949350505050565b600060408252612b04604083018587612906565b90506001600160a01b0383166020830152949350505050565b600060a08252612b3160a08301888a612906565b6001600160a01b03871660208401528281036040840152612b528187612881565b90508281036060840152612b668186612881565b90508281036080840152612b7a81856128bb565b9998505050505050505050565b600060608252612b9b606083018688612906565b6001600160a01b03949094166020830152506040015292915050565b600060a08252612bcb60a08301888a612906565b6001600160a01b03871660208401528560408401528460608401528281036080840152612b7a81856128bb565b6020808252602f908201527f416363657373436f6e74726f6c3a2073656e646572206d75737420626520616e60408201527f2061646d696e20746f206772616e740000000000000000000000000000000000606082015260800190565b6020808252600490820152630ae8aa8960e31b604082015260600190565b6020808252602f908201527f537761704d616e616765723a2063616e6e6f74207769746864726177206e6f6e60408201527f207374616e6461726420746f6b656e0000000000000000000000000000000000606082015260800190565b6020808252602e908201527f537761704d616e616765723a2063616e6e6f74207769746864726177206e6f6e60408201527f20726f79616c747920746f6b656e000000000000000000000000000000000000606082015260800190565b60208082526035908201527f537761704d616e616765723a2057455448206973206e6f74207265676973746560408201527f72656420696e746f2074686520706c6174666f726d0000000000000000000000606082015260800190565b60208082526036908201527f537761704d616e616765723a20746f6b656e206973206e6f742072656769737460408201527f6572656420696e746f2074686520706c6174666f726d00000000000000000000606082015260800190565b6020808252602a908201527f537761704d616e616765723a207573657220646964206e6f74206772616e7420604082015269185c1c9bdd99481e595d60b21b606082015260800190565b60208082526030908201527f416363657373436f6e74726f6c3a2073656e646572206d75737420626520616e60408201527f2061646d696e20746f207265766f6b6500000000000000000000000000000000606082015260800190565b60208082526039908201527f537761704d616e616765723a206e6f7420656e6f75676820636f6e747261637460408201527f2062616c616e636520666f7220746865207472616e7366657200000000000000606082015260800190565b60208082526033908201527f537761704d616e616765723a206d7573742068617665205452414e534645525f60408201527f524f4c4520746f207472616e6665722045746800000000000000000000000000606082015260800190565b60208082526049908201527f537761704d616e616765723a20746f6b656e20746f206265207472616e73666560408201527f7272656420746f205052495649206973206e6f742079657420617070726f76656060820152683210313c902ab9b2b960b91b608082015260a00190565b6020808252602a908201527f537761704d616e616765723a2063616e6e6f7420776974686472617720726f7960408201526930b63a3c903a37b5b2b760b11b606082015260800190565b60208082526035908201527f537761704d616e616765723a20746f6b656e206973206e6f742072656769737460408201527f65726564206f6e204272696467654d616e616765720000000000000000000000606082015260800190565b60208082526027908201527f537761704d616e616765723a2063616e6e6f7420776974686472617720616e7960408201526608185b5bdd5b9d60ca1b606082015260800190565b60208082526050908201527f537761704d616e616765723a20746f6b656e20616d6f756e7420746f2062652060408201527f7472616e7366657272656420746f205052495649206973206e6f74207965742060608201527f617070726f766564206279205573657200000000000000000000000000000000608082015260a00190565b60208082526031908201527f537761704d616e616765723a20616d6f756e74206d757374206265206772656160408201527f746572207468616e203020657468657273000000000000000000000000000000606082015260800190565b6020808252602a908201527f537761704d616e616765723a20616d6f756e74206d75737420626520677265616040820152690746572207468616e20360b41b606082015260800190565b60208082526034908201527f537761704d616e616765723a20696e73756666696369656e742066756e64732060408201527f696e20505249564920537761704d616e61676572000000000000000000000000606082015260800190565b60208082526035908201527f537761704d616e616765723a2063616e6e6f7420776974686472617720616e7960408201527f20616d6f756e7420286e6f6e20726f79616c7479290000000000000000000000606082015260800190565b60208082526036908201527f537761704d616e616765723a206d7573742068617665205452414e534645525f60408201527f524f4c4520746f20776974686472617720746f6b656e00000000000000000000606082015260800190565b60208082526031908201527f537761704d616e616765723a2063616e6e6f7420776974686472617720616e7960408201527f20616d6f756e742028726f79616c747929000000000000000000000000000000606082015260800190565b6020808252602f908201527f416363657373436f6e74726f6c3a2063616e206f6e6c792072656e6f756e636560408201527f20726f6c657320666f722073656c660000000000000000000000000000000000606082015260800190565b60405181810167ffffffffffffffff811182821017156133c2576133c26133ca565b604052919050565b634e487b7160e01b600052604160045260246000fd5b6001600160a01b03811681146133f557600080fd5b50565b80151581146133f557600080fdfea264697066735822122072b7e4ab64982d52015e628fe8425c5c7ffdb40aeff4922c9762a598629e75c664736f6c63430008000033",
  "immutableReferences": {},
  "source": "// SPDX-License-Identifier: MIT\npragma solidity ^0.8.0;\n\nimport \"@openzeppelin/contracts/access/AccessControl.sol\";\nimport \"@openzeppelin/contracts/token/ERC20/IERC20.sol\";\nimport \"@openzeppelin/contracts/token/ERC721/IERC721.sol\";\nimport \"@openzeppelin/contracts/token/ERC1155/IERC1155.sol\";\nimport \"@openzeppelin/contracts/token/ERC1155/utils/ERC1155Holder.sol\";\nimport \"./token/interfaces/FakeInterface.sol\";\nimport \"./interfaces/IBridgeManager.sol\";\nimport \"./interfaces/IPRIVIPodERC20Factory.sol\";\nimport \"./interfaces/IPRIVIPodERC721Factory.sol\";\nimport \"./interfaces/IPRIVIPodERC1155Factory.sol\";\nimport \"./interfaces/IPRIVIPodERC721RoyaltyFactory.sol\";\nimport \"./interfaces/IPRIVIPodERC1155RoyaltyFactory.sol\";\n\n/// @author The PRIVI Blockchain team\n/// @title Manages swap and withdraw of Ethers, ERC20 tokens and ERC721 tokens between Users and PRIVI platform\ncontract SwapManager is AccessControl, ERC1155Holder {\n  bytes32 public constant TRANSFER_ROLE = keccak256(\"TRANSFER_ROLE\");\n  address private ZERO_ADDRESS = 0x0000000000000000000000000000000000000000;\n  address public bridgeManagerAddress;\n  address public erc20FactoryAddress;\n  address public erc721FactoryAddress;\n  address public erc1155FactoryAddress;\n  address public erc721RoyaltyFactoryAddress;\n  address public erc1155RoyaltyFactoryAddress;\n\n  event DepositERC20Token(\n    string indexed tokenSymbol,\n    address from,\n    uint256 amount\n  );\n  event WithdrawERC20Token(\n    string indexed tokenSymbol,\n    address to,\n    uint256 amount\n  );\n  event DepositERC721Token(\n    string indexed tokenSymbol,\n    address from,\n    uint256 tokenId\n  );\n  event WithdrawERC721Token(\n    string indexed tokenSymbol,\n    address to,\n    uint256 tokenId\n  );\n  event DepositERC1155Token(\n    string indexed tokenURI,\n    address to,\n    uint256 tokenId,\n    uint256 amount\n  );\n  event WithdrawERC1155Token(\n    string indexed tokenURI,\n    address to,\n    uint256 tokenId,\n    uint256 amount\n  );\n  event BatchWithdrawERC1155Token(\n    string indexed tokenURI,\n    address to,\n    uint256[] tokenIds,\n    uint256[] amounts\n  );\n  event DepositEther(address indexed from, uint256 amount);\n  event WithdrawEther(address indexed to, uint256 amount);\n\n  /**\n   * @notice Constructor to assign all roles to contract creator\n   */\n  constructor(\n    address bridgeDeployedAddress,\n    address erc20FactoryDeployedAddress,\n    address erc721FactoryDeployedAddress,\n    address erc1155FactoryDeployedAddress,\n    address erc721FactoryRoyaltyDeployedAddress,\n    address erc1155FactoryRoyaltyDeployedAddress\n  ) {\n    _setupRole(DEFAULT_ADMIN_ROLE, _msgSender());\n    // _setupRole(REGISTER_ROLE, _msgSender());\n    _setupRole(TRANSFER_ROLE, _msgSender());\n    bridgeManagerAddress = bridgeDeployedAddress;\n    erc20FactoryAddress = erc20FactoryDeployedAddress;\n    erc721FactoryAddress = erc721FactoryDeployedAddress;\n    erc1155FactoryAddress = erc1155FactoryDeployedAddress;\n    erc721RoyaltyFactoryAddress = erc721FactoryRoyaltyDeployedAddress;\n    erc1155RoyaltyFactoryAddress = erc1155FactoryRoyaltyDeployedAddress;\n  }\n\n  function supportsInterface(bytes4 interfaceId)\n    public\n    view\n    virtual\n    override(ERC1155Receiver, AccessControl)\n    returns (bool)\n  {\n    return super.supportsInterface(interfaceId);\n  }\n\n  /**\n   * @notice  Transfer ERC20 token from sender address (User) to contract address (PRIVI)\n   * @dev     - Token to be transferred must be already registered\n   *          - User has to approve first the amount to be transferred WITHIN the original ERC20 token contract,\n   *          and not from this contract. Otherwise, transaction will always fail\n   * @param   tokenSymbol Name of the token to be transferred\n   * @param   amount Amount of tokens to be transferred\n   */\n  function depositERC20Token(string calldata tokenSymbol, uint256 amount)\n    external\n  {\n    IBridgeManager bManager = IBridgeManager(bridgeManagerAddress);\n    address tokenAddress = bManager.getErc20AddressRegistered(tokenSymbol);\n    require(\n      tokenAddress != ZERO_ADDRESS,\n      \"SwapManager: token is not registered into the platform\"\n    );\n    require(\n      IERC20(tokenAddress).allowance(_msgSender(), address(this)) >= amount,\n      \"SwapManager: token amount to be transferred to PRIVI is not yet approved by User\"\n    );\n    IERC20(tokenAddress).transferFrom(_msgSender(), address(this), amount);\n    emit DepositERC20Token(tokenSymbol, _msgSender(), amount);\n  }\n\n  /**\n   * @notice  Transfer ERC20 token from contract address (PRIVI) to sender address (User)\n   * @dev     - User must have TRANSFER_ROLE\n   *          - PRIVI must have enough tokens to transfer them back to User\n   * @param   tokenSymbol Name of the token to be transferred\n   * @param   to Destination address to receive the tokens\n   * @param   amount Amount of tokens to be transferred\n   */\n  function withdrawERC20Token(\n    string calldata tokenSymbol,\n    address to,\n    uint256 amount\n  ) external {\n    require(amount > 0, \"SwapManager: amount must be greater than 0\");\n    IBridgeManager bManager = IBridgeManager(bridgeManagerAddress);\n    address tokenAddress = bManager.getErc20AddressRegistered(tokenSymbol);\n    require(\n      hasRole(TRANSFER_ROLE, _msgSender()),\n      \"SwapManager: must have TRANSFER_ROLE to withdraw token\"\n    );\n    if (amount <= IERC20(tokenAddress).balanceOf(address(this))) {\n      IERC20(tokenAddress).approve(address(this), amount);\n      IERC20(tokenAddress).transferFrom(address(this), to, amount);\n      emit WithdrawERC20Token(tokenSymbol, to, amount);\n    } else if (\n      IPRIVIPodERC20Factory(erc20FactoryAddress).getPodAddressBySymbol(\n        tokenSymbol\n      ) != ZERO_ADDRESS\n    ) {\n      IPRIVIPodERC20Factory(erc20FactoryAddress).mintPodTokenBySymbol(\n        tokenSymbol,\n        to,\n        amount\n      );\n      emit WithdrawERC20Token(tokenSymbol, to, amount);\n    } else {\n      revert(\"SwapManager: cannot withdraw any amount\");\n      // only for testnet mint fake tokens\n      // FakeInterface(tokenAddress).mintForUser(to, amount);\n      // emit WithdrawERC20Token(tokenSymbol, to, amount);\n    }\n  }\n\n  /**\n   * @notice  Transfer ERC721 token from sender address (User) to contract address (PRIVI)\n   * @dev     - User must have TRANSFER_ROLE\n   *          - Token to be transferred must be already registered\n   *          - User has to approve first the amount to be transferred WITHIN the original ERC721 token contract,\n   *          and not from this contract. Otherwise, transaction will always fail\n   * @param   tokenSymbol Name of the token to be transferred\n   * @param   tokenId Token identifier to be transferred\n   */\n  function depositERC721Token(string calldata tokenSymbol, uint256 tokenId)\n    external\n  {\n    IBridgeManager bManager = IBridgeManager(bridgeManagerAddress);\n    address tokenAddress = bManager.getErc721AddressRegistered(tokenSymbol);\n    require(\n      tokenAddress != ZERO_ADDRESS,\n      \"SwapManager: token is not registered into the platform\"\n    );\n    require(\n      IERC721(tokenAddress).getApproved(tokenId) == address(this),\n      \"SwapManager: token to be transferred to PRIVI is not yet approved by User\"\n    );\n    IERC721(tokenAddress).transferFrom(_msgSender(), address(this), tokenId);\n    emit DepositERC721Token(tokenSymbol, _msgSender(), tokenId);\n  }\n\n  /**\n   * @notice  Transfer ERC721 token from contract address (PRIVI) to sender address (User)\n   * @dev     - User must have TRANSFER_ROLE\n   *          - PRIVI must have enough tokens to transfer them back to User\n   * @param   tokenSymbol Name of the token to be transferred\n   * @param   to Destination address to receive the tokens\n   * @param   tokenId Token identifier to be transferred\n   * @param   isPodMint is it a withdraw from swap manager or is it minting new nft pod token\n   */\n  function withdrawERC721Token(\n    string calldata tokenSymbol,\n    address to,\n    uint256 tokenId,\n    bool isPodMint,\n    bool isRoyalty\n  ) external {\n    IBridgeManager bManager = IBridgeManager(bridgeManagerAddress);\n    address tokenAddress = bManager.getErc721AddressRegistered(tokenSymbol);\n    require(\n      hasRole(TRANSFER_ROLE, _msgSender()),\n      \"SwapManager: must have TRANSFER_ROLE to withdraw token\"\n    );\n    if (isPodMint == true) {\n      if (isRoyalty == true) {\n        if (\n          IPRIVIPodERC721RoyaltyFactory(erc721RoyaltyFactoryAddress)\n            .getPodAddressBySymbol(tokenSymbol) != ZERO_ADDRESS\n        ) {\n          IPRIVIPodERC721RoyaltyFactory(erc721RoyaltyFactoryAddress)\n            .mintPodTokenBySymbol(tokenSymbol, to);\n          emit WithdrawERC721Token(tokenSymbol, to, tokenId);\n        } else {\n          revert(\"SwapManager: cannot withdraw royalty token\");\n        }\n      } else {\n        if (\n          IPRIVIPodERC721Factory(erc721FactoryAddress).getPodAddressBySymbol(\n            tokenSymbol\n          ) != ZERO_ADDRESS\n        ) {\n          IPRIVIPodERC721Factory(erc721FactoryAddress).mintPodTokenBySymbol(\n            tokenSymbol,\n            to\n          );\n          emit WithdrawERC721Token(tokenSymbol, to, tokenId);\n        } else {\n          revert(\"SwapManager: cannot withdraw non royalty token\");\n        }\n      }\n    } else {\n      if (IERC721(tokenAddress).ownerOf(tokenId) == address(this)) {\n        IERC721(tokenAddress).transferFrom(address(this), to, tokenId);\n        emit WithdrawERC721Token(tokenSymbol, to, tokenId);\n      } else {\n        revert(\"SwapManager: cannot withdraw non standard token\");\n      }\n    }\n  }\n\n  /**\n   * @notice  Transfer ERC1155 token from sender address (User) to contract address (PRIVI)\n   * @dev     - User must have TRANSFER_ROLE\n   *          - Token to be transferred must be already registered\n   *          - User has to approve first the amount to be transferred WITHIN the original ERC1155 token contract,\n   *          and not from this contract. Otherwise, transaction will always fail\n   * @param   tokenURI Name of the token to be transferred\n   * @param   to Destination address to receive the tokens\n   * @param   tokenId Token identifier to be transferred\n   */\n  function depositERC1155Token(\n    string calldata tokenURI,\n    address to,\n    uint256 tokenId,\n    uint256 amount,\n    bytes memory data\n  ) external {\n    IBridgeManager bManager = IBridgeManager(bridgeManagerAddress);\n    address tokenAddress = bManager.getErc1155AddressRegistered(tokenURI);\n    require(\n      tokenAddress != ZERO_ADDRESS,\n      \"SwapManager: token is not registered on BridgeManager\"\n    );\n    require(\n      IERC1155(tokenAddress).isApprovedForAll(msg.sender, address(this)) ==\n        true,\n      \"SwapManager: user did not grant aprove yet\"\n    );\n    // IERC1155(tokenAddress).safeTransferFrom(\n    //   msg.sender,\n    //   to,\n    //   tokenId,\n    //   amount,\n    //   data\n    // );\n    IERC1155(tokenAddress).safeTransferFrom(\n      _msgSender(),\n      address(this),\n      tokenId,\n      amount,\n      data\n    );\n    emit DepositERC1155Token(tokenURI, to, tokenId, amount);\n  }\n\n  /**\n   * @notice  Transfer ERC1155 token from contract address (PRIVI) to address (User)\n   * @dev     - PRIVI must have enough tokens to transfer them to User\n   *          or is has to be isPodMint.\n   * @param   tokenURI Name of the token to be transferred\n   * @param   to Destination address to receive the tokens\n   * @param   tokenId Token identifier to be transferred\n   * @param   amount Token amount to be transfered\n   * @param   data bytes\n   */\n  function withdrawERC1155Token(\n    string calldata tokenURI,\n    address to,\n    uint256 tokenId,\n    uint256 amount,\n    bytes memory data,\n    bool isPodMint,\n    bool isRoyalty\n  ) external {\n    IBridgeManager bManager = IBridgeManager(bridgeManagerAddress);\n    address tokenAddress = bManager.getErc1155AddressRegistered(tokenURI);\n    require(\n      hasRole(TRANSFER_ROLE, _msgSender()),\n      \"SwapManager: must have TRANSFER_ROLE to withdraw token\"\n    );\n    if (isPodMint == true) {\n      if (isRoyalty) {\n        if (\n          IPRIVIPodERC1155RoyaltyFactory(erc1155FactoryAddress)\n            .getPodAddressByUri(tokenURI) != ZERO_ADDRESS\n        ) {\n          IPRIVIPodERC1155RoyaltyFactory(erc1155FactoryAddress).podMint(\n            tokenURI,\n            to,\n            tokenId,\n            amount,\n            data\n          );\n          emit WithdrawERC1155Token(tokenURI, to, tokenId, amount);\n        } else {\n          revert(\"SwapManager: cannot withdraw any amount (royalty)\");\n        }\n      } else {\n        if (\n          IPRIVIPodERC1155Factory(erc1155FactoryAddress).getPodAddressByUri(\n            tokenURI\n          ) != ZERO_ADDRESS\n        ) {\n          IPRIVIPodERC1155Factory(erc1155FactoryAddress).podMint(\n            tokenURI,\n            to,\n            tokenId,\n            amount,\n            data\n          );\n          emit WithdrawERC1155Token(tokenURI, to, tokenId, amount);\n        } else {\n          revert(\"SwapManager: cannot withdraw any amount (non royalty)\");\n        }\n      }\n    } else {\n      require(\n        IERC1155(tokenAddress).balanceOf(address(this), tokenId) >= amount,\n        \"SwapManager: insufficient funds in PRIVI SwapManager\"\n      );\n      IERC1155(tokenAddress).safeTransferFrom(\n        address(this),\n        to,\n        tokenId,\n        amount,\n        data\n      );\n      emit WithdrawERC1155Token(tokenURI, to, tokenId, amount);\n    }\n  }\n\n  /**\n   * @notice  Batch Transfer ERC1155 token from contract address (PRIVI) to address (User)\n   * @dev     - PRIVI must have enough tokens to transfer them to User\n   *          or is has to be isPodMint.\n   * @param   tokenURI Name of the token to be transferred\n   * @param   to Destination address to receive the tokens\n   * @param   tokenIds Token identifiers to be transferred\n   * @param   amounts Token amounts to be transfered\n   * @param   data bytes\n   */\n  function batchWithdrawERC1155Token(\n    string calldata tokenURI,\n    address to,\n    uint256[] memory tokenIds,\n    uint256[] memory amounts,\n    bytes memory data,\n    bool isPodMint\n  ) external {\n    IBridgeManager bManager = IBridgeManager(bridgeManagerAddress);\n    address tokenAddress = bManager.getErc1155AddressRegistered(tokenURI);\n    require(\n      hasRole(TRANSFER_ROLE, _msgSender()),\n      \"SwapManager: must have TRANSFER_ROLE to withdraw token\"\n    );\n    if (isPodMint == true) {\n      if (\n        IPRIVIPodERC1155Factory(erc1155FactoryAddress).getPodAddressByUri(\n          tokenURI\n        ) != ZERO_ADDRESS\n      ) {\n        IPRIVIPodERC1155Factory(erc1155FactoryAddress).podMintBatch(\n          tokenURI,\n          to,\n          tokenIds,\n          amounts,\n          data\n        );\n        emit BatchWithdrawERC1155Token(tokenURI, to, tokenIds, amounts);\n      } else {\n        revert(\"SwapManager: cannot withdraw any amount\");\n      }\n    } else {\n      IERC1155(tokenAddress).safeBatchTransferFrom(\n        address(this),\n        to,\n        tokenIds,\n        amounts,\n        data\n      );\n      emit BatchWithdrawERC1155Token(tokenURI, to, tokenIds, amounts);\n    }\n  }\n\n  /**\n   * @notice  Transfer ether from sender address to contract address\n   * @dev     - Amount to be deposited must be greater than 0 ethers\n   */\n  function depositEther() external payable {\n    require(msg.value > 0, \"SwapManager: amount must be greater than 0 ethers\");\n    emit DepositEther(_msgSender(), msg.value);\n  }\n\n  /**\n   * @notice  Transfer ether from contract address to sender address\n   * @dev     - Sender must have TRANSFER_ROLE\n   *          - Contract must have enough balance to do the transfer\n   * @param   to Destination address to receive the ether\n   * @param   amount Amount of ether to be transferred\n   */\n  function withdrawEther(address to, uint256 amount) external {\n    require(\n      hasRole(TRANSFER_ROLE, _msgSender()),\n      \"SwapManager: must have TRANSFER_ROLE to tranfer Eth\"\n    );\n    require(\n      payable(address(this)).balance >= amount,\n      \"SwapManager: not enough contract balance for the transfer\"\n    );\n\n    address payable recipient = payable(to);\n\n    if (amount <= address(this).balance) {\n      recipient.transfer(amount);\n    } else {\n      IBridgeManager bManager = IBridgeManager(bridgeManagerAddress);\n      address tokenAddress = bManager.getErc20AddressRegistered(\"WETH\");\n      require(\n        tokenAddress != ZERO_ADDRESS,\n        \"SwapManager: WETH is not registered into the platform\"\n      );\n      FakeInterface(tokenAddress).mintForUser(to, amount);\n    }\n\n    emit WithdrawEther(to, amount);\n  }\n\n  /**\n   * @return  Contract balance in weis\n   */\n  function getBalance() external view returns (uint256) {\n    return payable(address(this)).balance;\n  }\n}\n",
  "sourcePath": "/Users/sergijuanati/Dropbox/Docs/2. Work/16. Privi/3. Code/getcache_ethereum/contracts/SwapManager.sol",
  "compiler": {
    "name": "solc",
    "version": "0.8.0+commit.c7dfd78e.Emscripten.clang"
  },
  "schemaVersion": "3.3.2",
  "updatedAt": "2021-03-31T18:46:24.045Z",
  "devdoc": {
    "author": "The PRIVI Blockchain team",
    "kind": "dev",
    "methods": {
      "batchWithdrawERC1155Token(string,address,uint256[],uint256[],bytes,bool)": {
        "details": "- PRIVI must have enough tokens to transfer them to User          or is has to be isPodMint.",
        "params": {
          "amounts": "Token amounts to be transfered",
          "data": "bytes",
          "to": "Destination address to receive the tokens",
          "tokenIds": "Token identifiers to be transferred",
          "tokenURI": "Name of the token to be transferred"
        }
      },
      "depositERC1155Token(string,address,uint256,uint256,bytes)": {
        "details": "- User must have TRANSFER_ROLE          - Token to be transferred must be already registered          - User has to approve first the amount to be transferred WITHIN the original ERC1155 token contract,          and not from this contract. Otherwise, transaction will always fail",
        "params": {
          "to": "Destination address to receive the tokens",
          "tokenId": "Token identifier to be transferred",
          "tokenURI": "Name of the token to be transferred"
        }
      },
      "depositERC20Token(string,uint256)": {
        "details": "- Token to be transferred must be already registered          - User has to approve first the amount to be transferred WITHIN the original ERC20 token contract,          and not from this contract. Otherwise, transaction will always fail",
        "params": {
          "amount": "Amount of tokens to be transferred",
          "tokenSymbol": "Name of the token to be transferred"
        }
      },
      "depositERC721Token(string,uint256)": {
        "details": "- User must have TRANSFER_ROLE          - Token to be transferred must be already registered          - User has to approve first the amount to be transferred WITHIN the original ERC721 token contract,          and not from this contract. Otherwise, transaction will always fail",
        "params": {
          "tokenId": "Token identifier to be transferred",
          "tokenSymbol": "Name of the token to be transferred"
        }
      },
      "depositEther()": {
        "details": "- Amount to be deposited must be greater than 0 ethers"
      },
      "getBalance()": {
        "returns": {
          "_0": "Contract balance in weis"
        }
      },
      "getRoleAdmin(bytes32)": {
        "details": "Returns the admin role that controls `role`. See {grantRole} and {revokeRole}. To change a role's admin, use {_setRoleAdmin}."
      },
      "grantRole(bytes32,address)": {
        "details": "Grants `role` to `account`. If `account` had not been already granted `role`, emits a {RoleGranted} event. Requirements: - the caller must have ``role``'s admin role."
      },
      "hasRole(bytes32,address)": {
        "details": "Returns `true` if `account` has been granted `role`."
      },
      "renounceRole(bytes32,address)": {
        "details": "Revokes `role` from the calling account. Roles are often managed via {grantRole} and {revokeRole}: this function's purpose is to provide a mechanism for accounts to lose their privileges if they are compromised (such as when a trusted device is misplaced). If the calling account had been granted `role`, emits a {RoleRevoked} event. Requirements: - the caller must be `account`."
      },
      "revokeRole(bytes32,address)": {
        "details": "Revokes `role` from `account`. If `account` had been granted `role`, emits a {RoleRevoked} event. Requirements: - the caller must have ``role``'s admin role."
      },
      "withdrawERC1155Token(string,address,uint256,uint256,bytes,bool,bool)": {
        "details": "- PRIVI must have enough tokens to transfer them to User          or is has to be isPodMint.",
        "params": {
          "amount": "Token amount to be transfered",
          "data": "bytes",
          "to": "Destination address to receive the tokens",
          "tokenId": "Token identifier to be transferred",
          "tokenURI": "Name of the token to be transferred"
        }
      },
      "withdrawERC20Token(string,address,uint256)": {
        "details": "- User must have TRANSFER_ROLE          - PRIVI must have enough tokens to transfer them back to User",
        "params": {
          "amount": "Amount of tokens to be transferred",
          "to": "Destination address to receive the tokens",
          "tokenSymbol": "Name of the token to be transferred"
        }
      },
      "withdrawERC721Token(string,address,uint256,bool,bool)": {
        "details": "- User must have TRANSFER_ROLE          - PRIVI must have enough tokens to transfer them back to User",
        "params": {
          "isPodMint": "is it a withdraw from swap manager or is it minting new nft pod token",
          "to": "Destination address to receive the tokens",
          "tokenId": "Token identifier to be transferred",
          "tokenSymbol": "Name of the token to be transferred"
        }
      },
      "withdrawEther(address,uint256)": {
        "details": "- Sender must have TRANSFER_ROLE          - Contract must have enough balance to do the transfer",
        "params": {
          "amount": "Amount of ether to be transferred",
          "to": "Destination address to receive the ether"
        }
      }
    },
    "title": "Manages swap and withdraw of Ethers, ERC20 tokens and ERC721 tokens between Users and PRIVI platform",
    "version": 1
  },
  "userdoc": {
    "kind": "user",
    "methods": {
      "batchWithdrawERC1155Token(string,address,uint256[],uint256[],bytes,bool)": {
        "notice": "Batch Transfer ERC1155 token from contract address (PRIVI) to address (User)"
      },
      "constructor": {
        "notice": "Constructor to assign all roles to contract creator"
      },
      "depositERC1155Token(string,address,uint256,uint256,bytes)": {
        "notice": "Transfer ERC1155 token from sender address (User) to contract address (PRIVI)"
      },
      "depositERC20Token(string,uint256)": {
        "notice": "Transfer ERC20 token from sender address (User) to contract address (PRIVI)"
      },
      "depositERC721Token(string,uint256)": {
        "notice": "Transfer ERC721 token from sender address (User) to contract address (PRIVI)"
      },
      "depositEther()": {
        "notice": "Transfer ether from sender address to contract address"
      },
      "withdrawERC1155Token(string,address,uint256,uint256,bytes,bool,bool)": {
        "notice": "Transfer ERC1155 token from contract address (PRIVI) to address (User)"
      },
      "withdrawERC20Token(string,address,uint256)": {
        "notice": "Transfer ERC20 token from contract address (PRIVI) to sender address (User)"
      },
      "withdrawERC721Token(string,address,uint256,bool,bool)": {
        "notice": "Transfer ERC721 token from contract address (PRIVI) to sender address (User)"
      },
      "withdrawEther(address,uint256)": {
        "notice": "Transfer ether from contract address to sender address"
      }
    },
    "version": 1
  }
}