{
  "contractName": "SwapManager",
  "abi": [
    {
      "inputs": [
        {
          "internalType": "address",
          "name": "bridgeDeployedAddress",
          "type": "address"
        },
        {
          "internalType": "address",
          "name": "erc20FactoryDeployedAddress",
          "type": "address"
        },
        {
          "internalType": "address",
          "name": "erc721FactoryDeployedAddress",
          "type": "address"
        },
        {
          "internalType": "address",
          "name": "erc1155FactoryDeployedAddress",
          "type": "address"
        }
      ],
      "stateMutability": "nonpayable",
      "type": "constructor"
    },
    {
      "anonymous": false,
      "inputs": [
        {
          "indexed": true,
          "internalType": "string",
          "name": "tokenURI",
          "type": "string"
        },
        {
          "indexed": false,
          "internalType": "address",
          "name": "to",
          "type": "address"
        },
        {
          "indexed": false,
          "internalType": "uint256[]",
          "name": "tokenIds",
          "type": "uint256[]"
        },
        {
          "indexed": false,
          "internalType": "uint256[]",
          "name": "amounts",
          "type": "uint256[]"
        }
      ],
      "name": "BatchWithdrawERC1155Token",
      "type": "event"
    },
    {
      "anonymous": false,
      "inputs": [
        {
          "indexed": true,
          "internalType": "string",
          "name": "tokenURI",
          "type": "string"
        },
        {
          "indexed": false,
          "internalType": "address",
          "name": "to",
          "type": "address"
        },
        {
          "indexed": false,
          "internalType": "uint256",
          "name": "tokenId",
          "type": "uint256"
        },
        {
          "indexed": false,
          "internalType": "uint256",
          "name": "amount",
          "type": "uint256"
        }
      ],
      "name": "DepositERC1155Token",
      "type": "event"
    },
    {
      "anonymous": false,
      "inputs": [
        {
          "indexed": true,
          "internalType": "string",
          "name": "tokenSymbol",
          "type": "string"
        },
        {
          "indexed": false,
          "internalType": "address",
          "name": "from",
          "type": "address"
        },
        {
          "indexed": false,
          "internalType": "uint256",
          "name": "amount",
          "type": "uint256"
        }
      ],
      "name": "DepositERC20Token",
      "type": "event"
    },
    {
      "anonymous": false,
      "inputs": [
        {
          "indexed": true,
          "internalType": "string",
          "name": "tokenSymbol",
          "type": "string"
        },
        {
          "indexed": false,
          "internalType": "address",
          "name": "from",
          "type": "address"
        },
        {
          "indexed": false,
          "internalType": "uint256",
          "name": "amount",
          "type": "uint256"
        }
      ],
      "name": "DepositERC721Token",
      "type": "event"
    },
    {
      "anonymous": false,
      "inputs": [
        {
          "indexed": true,
          "internalType": "address",
          "name": "from",
          "type": "address"
        },
        {
          "indexed": false,
          "internalType": "uint256",
          "name": "amount",
          "type": "uint256"
        }
      ],
      "name": "DepositEther",
      "type": "event"
    },
    {
      "anonymous": false,
      "inputs": [
        {
          "indexed": true,
          "internalType": "bytes32",
          "name": "role",
          "type": "bytes32"
        },
        {
          "indexed": true,
          "internalType": "bytes32",
          "name": "previousAdminRole",
          "type": "bytes32"
        },
        {
          "indexed": true,
          "internalType": "bytes32",
          "name": "newAdminRole",
          "type": "bytes32"
        }
      ],
      "name": "RoleAdminChanged",
      "type": "event"
    },
    {
      "anonymous": false,
      "inputs": [
        {
          "indexed": true,
          "internalType": "bytes32",
          "name": "role",
          "type": "bytes32"
        },
        {
          "indexed": true,
          "internalType": "address",
          "name": "account",
          "type": "address"
        },
        {
          "indexed": true,
          "internalType": "address",
          "name": "sender",
          "type": "address"
        }
      ],
      "name": "RoleGranted",
      "type": "event"
    },
    {
      "anonymous": false,
      "inputs": [
        {
          "indexed": true,
          "internalType": "bytes32",
          "name": "role",
          "type": "bytes32"
        },
        {
          "indexed": true,
          "internalType": "address",
          "name": "account",
          "type": "address"
        },
        {
          "indexed": true,
          "internalType": "address",
          "name": "sender",
          "type": "address"
        }
      ],
      "name": "RoleRevoked",
      "type": "event"
    },
    {
      "anonymous": false,
      "inputs": [
        {
          "indexed": true,
          "internalType": "string",
          "name": "tokenURI",
          "type": "string"
        },
        {
          "indexed": false,
          "internalType": "address",
          "name": "to",
          "type": "address"
        },
        {
          "indexed": false,
          "internalType": "uint256",
          "name": "tokenId",
          "type": "uint256"
        },
        {
          "indexed": false,
          "internalType": "uint256",
          "name": "amount",
          "type": "uint256"
        }
      ],
      "name": "WithdrawERC1155Token",
      "type": "event"
    },
    {
      "anonymous": false,
      "inputs": [
        {
          "indexed": true,
          "internalType": "string",
          "name": "tokenSymbol",
          "type": "string"
        },
        {
          "indexed": false,
          "internalType": "address",
          "name": "to",
          "type": "address"
        },
        {
          "indexed": false,
          "internalType": "uint256",
          "name": "amount",
          "type": "uint256"
        }
      ],
      "name": "WithdrawERC20Token",
      "type": "event"
    },
    {
      "anonymous": false,
      "inputs": [
        {
          "indexed": true,
          "internalType": "string",
          "name": "tokenSymbol",
          "type": "string"
        },
        {
          "indexed": false,
          "internalType": "address",
          "name": "to",
          "type": "address"
        },
        {
          "indexed": false,
          "internalType": "uint256",
          "name": "tokenId",
          "type": "uint256"
        }
      ],
      "name": "WithdrawERC721Token",
      "type": "event"
    },
    {
      "anonymous": false,
      "inputs": [
        {
          "indexed": true,
          "internalType": "address",
          "name": "to",
          "type": "address"
        },
        {
          "indexed": false,
          "internalType": "uint256",
          "name": "amount",
          "type": "uint256"
        }
      ],
      "name": "WithdrawEther",
      "type": "event"
    },
    {
      "inputs": [],
      "name": "DEFAULT_ADMIN_ROLE",
      "outputs": [
        {
          "internalType": "bytes32",
          "name": "",
          "type": "bytes32"
        }
      ],
      "stateMutability": "view",
      "type": "function"
    },
    {
      "inputs": [],
      "name": "TRANSFER_ROLE",
      "outputs": [
        {
          "internalType": "bytes32",
          "name": "",
          "type": "bytes32"
        }
      ],
      "stateMutability": "view",
      "type": "function"
    },
    {
      "inputs": [],
      "name": "bridgeManagerAddress",
      "outputs": [
        {
          "internalType": "address",
          "name": "",
          "type": "address"
        }
      ],
      "stateMutability": "view",
      "type": "function"
    },
    {
      "inputs": [],
      "name": "erc1155FactoryAddress",
      "outputs": [
        {
          "internalType": "address",
          "name": "",
          "type": "address"
        }
      ],
      "stateMutability": "view",
      "type": "function"
    },
    {
      "inputs": [],
      "name": "erc20FactoryAddress",
      "outputs": [
        {
          "internalType": "address",
          "name": "",
          "type": "address"
        }
      ],
      "stateMutability": "view",
      "type": "function"
    },
    {
      "inputs": [],
      "name": "erc721FactoryAddress",
      "outputs": [
        {
          "internalType": "address",
          "name": "",
          "type": "address"
        }
      ],
      "stateMutability": "view",
      "type": "function"
    },
    {
      "inputs": [
        {
          "internalType": "bytes32",
          "name": "role",
          "type": "bytes32"
        }
      ],
      "name": "getRoleAdmin",
      "outputs": [
        {
          "internalType": "bytes32",
          "name": "",
          "type": "bytes32"
        }
      ],
      "stateMutability": "view",
      "type": "function"
    },
    {
      "inputs": [
        {
          "internalType": "bytes32",
          "name": "role",
          "type": "bytes32"
        },
        {
          "internalType": "address",
          "name": "account",
          "type": "address"
        }
      ],
      "name": "grantRole",
      "outputs": [],
      "stateMutability": "nonpayable",
      "type": "function"
    },
    {
      "inputs": [
        {
          "internalType": "bytes32",
          "name": "role",
          "type": "bytes32"
        },
        {
          "internalType": "address",
          "name": "account",
          "type": "address"
        }
      ],
      "name": "hasRole",
      "outputs": [
        {
          "internalType": "bool",
          "name": "",
          "type": "bool"
        }
      ],
      "stateMutability": "view",
      "type": "function"
    },
    {
      "inputs": [
        {
          "internalType": "bytes32",
          "name": "role",
          "type": "bytes32"
        },
        {
          "internalType": "address",
          "name": "account",
          "type": "address"
        }
      ],
      "name": "renounceRole",
      "outputs": [],
      "stateMutability": "nonpayable",
      "type": "function"
    },
    {
      "inputs": [
        {
          "internalType": "bytes32",
          "name": "role",
          "type": "bytes32"
        },
        {
          "internalType": "address",
          "name": "account",
          "type": "address"
        }
      ],
      "name": "revokeRole",
      "outputs": [],
      "stateMutability": "nonpayable",
      "type": "function"
    },
    {
      "inputs": [
        {
          "internalType": "bytes4",
          "name": "interfaceId",
          "type": "bytes4"
        }
      ],
      "name": "supportsInterface",
      "outputs": [
        {
          "internalType": "bool",
          "name": "",
          "type": "bool"
        }
      ],
      "stateMutability": "view",
      "type": "function"
    },
    {
      "inputs": [
        {
          "internalType": "string",
          "name": "tokenSymbol",
          "type": "string"
        },
        {
          "internalType": "uint256",
          "name": "amount",
          "type": "uint256"
        }
      ],
      "name": "depositERC20Token",
      "outputs": [],
      "stateMutability": "nonpayable",
      "type": "function"
    },
    {
      "inputs": [
        {
          "internalType": "string",
          "name": "tokenSymbol",
          "type": "string"
        },
        {
          "internalType": "address",
          "name": "to",
          "type": "address"
        },
        {
          "internalType": "uint256",
          "name": "amount",
          "type": "uint256"
        }
      ],
      "name": "withdrawERC20Token",
      "outputs": [],
      "stateMutability": "nonpayable",
      "type": "function"
    },
    {
      "inputs": [
        {
          "internalType": "string",
          "name": "tokenSymbol",
          "type": "string"
        },
        {
          "internalType": "uint256",
          "name": "tokenId",
          "type": "uint256"
        }
      ],
      "name": "depositERC721Token",
      "outputs": [],
      "stateMutability": "nonpayable",
      "type": "function"
    },
    {
      "inputs": [
        {
          "internalType": "string",
          "name": "tokenSymbol",
          "type": "string"
        },
        {
          "internalType": "address",
          "name": "to",
          "type": "address"
        },
        {
          "internalType": "uint256",
          "name": "tokenId",
          "type": "uint256"
        },
        {
          "internalType": "bool",
          "name": "isPodMint",
          "type": "bool"
        }
      ],
      "name": "withdrawERC721Token",
      "outputs": [],
      "stateMutability": "nonpayable",
      "type": "function"
    },
    {
      "inputs": [
        {
          "internalType": "string",
          "name": "tokenURI",
          "type": "string"
        },
        {
          "internalType": "address",
          "name": "to",
          "type": "address"
        },
        {
          "internalType": "uint256",
          "name": "tokenId",
          "type": "uint256"
        },
        {
          "internalType": "uint256",
          "name": "amount",
          "type": "uint256"
        },
        {
          "internalType": "bytes",
          "name": "data",
          "type": "bytes"
        }
      ],
      "name": "depositERC1155Token",
      "outputs": [],
      "stateMutability": "nonpayable",
      "type": "function"
    },
    {
      "inputs": [
        {
          "internalType": "string",
          "name": "tokenURI",
          "type": "string"
        },
        {
          "internalType": "address",
          "name": "to",
          "type": "address"
        },
        {
          "internalType": "uint256",
          "name": "tokenId",
          "type": "uint256"
        },
        {
          "internalType": "uint256",
          "name": "amount",
          "type": "uint256"
        },
        {
          "internalType": "bytes",
          "name": "data",
          "type": "bytes"
        },
        {
          "internalType": "bool",
          "name": "isPodMint",
          "type": "bool"
        }
      ],
      "name": "withdrawERC1155Token",
      "outputs": [],
      "stateMutability": "nonpayable",
      "type": "function"
    },
    {
      "inputs": [
        {
          "internalType": "string",
          "name": "tokenURI",
          "type": "string"
        },
        {
          "internalType": "address",
          "name": "to",
          "type": "address"
        },
        {
          "internalType": "uint256[]",
          "name": "tokenIds",
          "type": "uint256[]"
        },
        {
          "internalType": "uint256[]",
          "name": "amounts",
          "type": "uint256[]"
        },
        {
          "internalType": "bytes",
          "name": "data",
          "type": "bytes"
        },
        {
          "internalType": "bool",
          "name": "isPodMint",
          "type": "bool"
        }
      ],
      "name": "batchWithdrawERC1155Token",
      "outputs": [],
      "stateMutability": "nonpayable",
      "type": "function"
    },
    {
      "inputs": [],
      "name": "depositEther",
      "outputs": [],
      "stateMutability": "payable",
      "type": "function"
    },
    {
      "inputs": [
        {
          "internalType": "address",
          "name": "to",
          "type": "address"
        },
        {
          "internalType": "uint256",
          "name": "amount",
          "type": "uint256"
        }
      ],
      "name": "withdrawEther",
      "outputs": [],
      "stateMutability": "nonpayable",
      "type": "function"
    },
    {
      "inputs": [],
      "name": "getBalance",
      "outputs": [
        {
          "internalType": "uint256",
          "name": "",
          "type": "uint256"
        }
      ],
      "stateMutability": "view",
      "type": "function"
    }
  ],
  "bytecode": "0x6080604052600180546001600160a01b03191690553480156200002157600080fd5b5060405162002ea438038062002ea48339810160408190526200004491620001c1565b6200005a600062000054620000dd565b620000e1565b620000897f8502233096d909befbda0999bb8ea2f3a6be3c138b9fbf003752a4c8bce86f6c62000054620000dd565b600280546001600160a01b039586166001600160a01b03199182161790915560038054948616948216949094179093556004805492851692841692909217909155600580549190931691161790556200021d565b3390565b620000ed8282620000f1565b5050565b620000fd82826200017b565b620000ed576000828152602081815260408083206001600160a01b03851684529091529020805460ff1916600117905562000137620000dd565b6001600160a01b0316816001600160a01b0316837f2f8788117e7eff1d82e926ec794901d17c78024a50270940304540a733656f0d60405160405180910390a45050565b6000918252602082815260408084206001600160a01b0393909316845291905290205460ff1690565b80516001600160a01b0381168114620001bc57600080fd5b919050565b60008060008060808587031215620001d7578384fd5b620001e285620001a4565b9350620001f260208601620001a4565b92506200020260408601620001a4565b91506200021260608601620001a4565b905092959194509250565b612c77806200022d6000396000f3fe6080604052600436106101555760003560e01c80637de2c626116100bb578063c768b17c1161007f578063d547741f11610059578063d547741f14610392578063e792b194146103b2578063e7f3ec38146103c757610155565b8063c768b17c1461033d578063d1af27c414610352578063d406e1031461037257610155565b80637de2c626146102c05780637f748ec5146102e057806391d148541461030057806398ea5fca14610320578063a217fddf1461032857610155565b80632dc067091161011d57806336568abe116100f757806336568abe14610260578063412991cb14610280578063522f6815146102a057610155565b80632dc06709146102095780632f1d46711461022b5780632f2ff15d1461024057610155565b806301ffc9a71461015a57806312065fe014610190578063153de503146101b2578063206b60f9146101d4578063248a9ca3146101e9575b600080fd5b34801561016657600080fd5b5061017a610175366004611fc6565b6103e7565b6040516101879190612549565b60405180910390f35b34801561019c57600080fd5b506101a5610414565b6040516101879190612554565b3480156101be57600080fd5b506101d26101cd36600461221a565b610419565b005b3480156101e057600080fd5b506101a56107ba565b3480156101f557600080fd5b506101a5610204366004611f7f565b6107de565b34801561021557600080fd5b5061021e6107f3565b60405161018791906123de565b34801561023757600080fd5b5061021e610802565b34801561024c57600080fd5b506101d261025b366004611f97565b610811565b34801561026c57600080fd5b506101d261027b366004611f97565b61084f565b34801561028c57600080fd5b506101d261029b3660046122bd565b610891565b3480156102ac57600080fd5b506101d26102bb366004611f38565b610ab5565b3480156102cc57600080fd5b506101d26102db3660046122bd565b610cbf565b3480156102ec57600080fd5b506101d26102fb366004611fee565b610ee6565b34801561030c57600080fd5b5061017a61031b366004611f97565b6111c1565b6101d26111ea565b34801561033457600080fd5b506101a5611254565b34801561034957600080fd5b5061021e611259565b34801561035e57600080fd5b506101d261036d3660046120c0565b611268565b34801561037e57600080fd5b506101d261038d36600461218d565b6116de565b34801561039e57600080fd5b506101d26103ad366004611f97565b6118f8565b3480156103be57600080fd5b5061021e611920565b3480156103d357600080fd5b506101d26103e236600461211b565b61192f565b60006001600160e01b03198216637965db0b60e01b148061040c575061040c82611ca6565b90505b919050565b303190565b6002546040516309ba36bf60e31b81526001600160a01b03909116906000908290634dd1b5f890610450908c908c9060040161255d565b60206040518083038186803b15801561046857600080fd5b505afa15801561047c573d6000803e3d6000fd5b505050506040513d601f19601f820116820180604052508101906104a09190611f15565b90506104ce7f8502233096d909befbda0999bb8ea2f3a6be3c138b9fbf003752a4c8bce86f6c61031b611cbf565b6104f35760405162461bcd60e51b81526004016104ea90612b21565b60405180910390fd5b6001831515141561065957600154600554604051637d2c9af760e11b81526001600160a01b03928316929091169063fa5935ee90610537908d908d9060040161255d565b60206040518083038186803b15801561054f57600080fd5b505afa158015610563573d6000803e3d6000fd5b505050506040513d601f19601f820116820180604052508101906105879190611f15565b6001600160a01b0316146101555760055460405163c9f4ef0160e01b81526001600160a01b039091169063c9f4ef01906105cf908c908c908c908c908c908c90600401612640565b600060405180830381600087803b1580156105e957600080fd5b505af11580156105fd573d6000803e3d6000fd5b5050505088886040516106119291906123ce565b60405180910390207fab8a6099aa0324935264b44e69aafeb656755f4dd4113be720a27f4e45128f9a88888860405161064c93929190612528565b60405180910390a26107af565b604051627eeac760e11b815285906001600160a01b0383169062fdd58e906106879030908b9060040161250f565b60206040518083038186803b15801561069f57600080fd5b505afa1580156106b3573d6000803e3d6000fd5b505050506040513d601f19601f820116820180604052508101906106d79190612307565b10156106f55760405162461bcd60e51b81526004016104ea90612ac4565b604051637921219560e11b81526001600160a01b0382169063f242432a906107299030908b908b908b908b9060040161248e565b600060405180830381600087803b15801561074357600080fd5b505af1158015610757573d6000803e3d6000fd5b50505050888860405161076b9291906123ce565b60405180910390207fab8a6099aa0324935264b44e69aafeb656755f4dd4113be720a27f4e45128f9a8888886040516107a693929190612528565b60405180910390a25b505050505050505050565b7f8502233096d909befbda0999bb8ea2f3a6be3c138b9fbf003752a4c8bce86f6c81565b60009081526020819052604090206001015490565b6004546001600160a01b031681565b6005546001600160a01b031681565b61082561081d836107de565b61031b611cbf565b6108415760405162461bcd60e51b81526004016104ea90612681565b61084b8282611cc3565b5050565b610857611cbf565b6001600160a01b0316816001600160a01b0316146108875760405162461bcd60e51b81526004016104ea90612b7e565b61084b8282611d48565b60025460405163122acfb560e31b81526001600160a01b039091169060009082906391567da8906108c8908890889060040161255d565b60206040518083038186803b1580156108e057600080fd5b505afa1580156108f4573d6000803e3d6000fd5b505050506040513d601f19601f820116820180604052508101906109189190611f15565b6001549091506001600160a01b03808316911614156109495760405162461bcd60e51b81526004016104ea906127a4565b60405163020604bf60e21b815230906001600160a01b0383169063081812fc90610977908790600401612554565b60206040518083038186803b15801561098f57600080fd5b505afa1580156109a3573d6000803e3d6000fd5b505050506040513d601f19601f820116820180604052508101906109c79190611f15565b6001600160a01b0316146109ed5760405162461bcd60e51b81526004016104ea90612918565b806001600160a01b03166323b872dd610a04611cbf565b30866040518463ffffffff1660e01b8152600401610a249392919061246a565b600060405180830381600087803b158015610a3e57600080fd5b505af1158015610a52573d6000803e3d6000fd5b505050508484604051610a669291906123ce565b60405180910390207ff0218d2f738513bea289b1b8ca83d8241a1060f13280602f9b7ff8e3598d4c83610a97611cbf565b85604051610aa692919061250f565b60405180910390a25050505050565b610ae17f8502233096d909befbda0999bb8ea2f3a6be3c138b9fbf003752a4c8bce86f6c61031b611cbf565b610afd5760405162461bcd60e51b81526004016104ea906128bb565b3031811115610b1e5760405162461bcd60e51b81526004016104ea9061285e565b81478211610b62576040516001600160a01b0382169083156108fc029084906000818181858888f19350505050158015610b5c573d6000803e3d6000fd5b50610c79565b6002546040516308521f5d60e11b81526001600160a01b039091169060009082906310a43eba90610b95906004016126de565b60206040518083038186803b158015610bad57600080fd5b505afa158015610bc1573d6000803e3d6000fd5b505050506040513d601f19601f82011682018060405250810190610be59190611f15565b6001549091506001600160a01b0380831691161415610c165760405162461bcd60e51b81526004016104ea90612747565b60405163d0dbc83360e01b81526001600160a01b0382169063d0dbc83390610c44908890889060040161250f565b600060405180830381600087803b158015610c5e57600080fd5b505af1158015610c72573d6000803e3d6000fd5b5050505050505b826001600160a01b03167fdb35132c111efe920cede025e819975671cfd1b8fcc1174762c8670c4e94c21183604051610cb29190612554565b60405180910390a2505050565b6002546040516308521f5d60e11b81526001600160a01b039091169060009082906310a43eba90610cf6908890889060040161255d565b60206040518083038186803b158015610d0e57600080fd5b505afa158015610d22573d6000803e3d6000fd5b505050506040513d601f19601f82011682018060405250810190610d469190611f15565b6001549091506001600160a01b0380831691161415610d775760405162461bcd60e51b81526004016104ea906127a4565b82816001600160a01b031663dd62ed3e610d8f611cbf565b306040518363ffffffff1660e01b8152600401610dad9291906123f2565b60206040518083038186803b158015610dc557600080fd5b505afa158015610dd9573d6000803e3d6000fd5b505050506040513d601f19601f82011682018060405250810190610dfd9190612307565b1015610e1b5760405162461bcd60e51b81526004016104ea906129e4565b806001600160a01b03166323b872dd610e32611cbf565b30866040518463ffffffff1660e01b8152600401610e529392919061246a565b602060405180830381600087803b158015610e6c57600080fd5b505af1158015610e80573d6000803e3d6000fd5b505050506040513d601f19601f82011682018060405250810190610ea49190611f63565b508484604051610eb59291906123ce565b60405180910390207f91ed334b741c7cbbae982dad9ca693e9d47b9a50db6fd5f346755f5bca14dfdd610a97611cbf565b6002546040516309ba36bf60e31b81526001600160a01b03909116906000908290634dd1b5f890610f1d908c908c9060040161255d565b60206040518083038186803b158015610f3557600080fd5b505afa158015610f49573d6000803e3d6000fd5b505050506040513d601f19601f82011682018060405250810190610f6d9190611f15565b9050610f9b7f8502233096d909befbda0999bb8ea2f3a6be3c138b9fbf003752a4c8bce86f6c61031b611cbf565b610fb75760405162461bcd60e51b81526004016104ea90612b21565b6001831515141561111057600154600554604051637d2c9af760e11b81526001600160a01b03928316929091169063fa5935ee90610ffb908d908d9060040161255d565b60206040518083038186803b15801561101357600080fd5b505afa158015611027573d6000803e3d6000fd5b505050506040513d601f19601f8201168201806040525081019061104b9190611f15565b6001600160a01b03161461015557600554604051638dcab0f960e01b81526001600160a01b0390911690638dcab0f990611093908c908c908c908c908c908c906004016125a6565b600060405180830381600087803b1580156110ad57600080fd5b505af11580156110c1573d6000803e3d6000fd5b5050505088886040516110d59291906123ce565b60405180910390207f03606c85c375332da8a71abb0ad8be85cbac18693d349dd5169e69ced38f448388888860405161064c939291906124d1565b604051631759616b60e11b81526001600160a01b03821690632eb2c2d6906111449030908b908b908b908b9060040161240c565b600060405180830381600087803b15801561115e57600080fd5b505af1158015611172573d6000803e3d6000fd5b5050505088886040516111869291906123ce565b60405180910390207f03606c85c375332da8a71abb0ad8be85cbac18693d349dd5169e69ced38f44838888886040516107a6939291906124d1565b6000918252602082815260408084206001600160a01b0393909316845291905290205460ff1690565b6000341161120a5760405162461bcd60e51b81526004016104ea90612a67565b611212611cbf565b6001600160a01b03167fe628a607143b255f52afd0900e0d9630dd009c2f2635cd1e28c7aeeeff9408023460405161124a9190612554565b60405180910390a2565b600081565b6003546001600160a01b031681565b6002546040516308521f5d60e11b81526001600160a01b039091169060009082906310a43eba9061129f908990899060040161255d565b60206040518083038186803b1580156112b757600080fd5b505afa1580156112cb573d6000803e3d6000fd5b505050506040513d601f19601f820116820180604052508101906112ef9190611f15565b905061131d7f8502233096d909befbda0999bb8ea2f3a6be3c138b9fbf003752a4c8bce86f6c61031b611cbf565b6113395760405162461bcd60e51b81526004016104ea90612b21565b6040516370a0823160e01b81526001600160a01b038216906370a08231906113659030906004016123de565b60206040518083038186803b15801561137d57600080fd5b505afa158015611391573d6000803e3d6000fd5b505050506040513d601f19601f820116820180604052508101906113b59190612307565b83116115155760405163095ea7b360e01b81526001600160a01b0382169063095ea7b3906113e9903090879060040161250f565b602060405180830381600087803b15801561140357600080fd5b505af1158015611417573d6000803e3d6000fd5b505050506040513d601f19601f8201168201806040525081019061143b9190611f63565b506040516323b872dd60e01b81526001600160a01b038216906323b872dd9061146c9030908890889060040161246a565b602060405180830381600087803b15801561148657600080fd5b505af115801561149a573d6000803e3d6000fd5b505050506040513d601f19601f820116820180604052508101906114be9190611f63565b5085856040516114cf9291906123ce565b60405180910390207f226bfaa503fda889c5dbfb29ffa193ceac9a4b461e47f68b3b14c438ec7f8b67858560405161150892919061250f565b60405180910390a26116d6565b600154600354604051630cc9693960e21b81526001600160a01b039283169290911690633325a4e49061154e908a908a9060040161255d565b60206040518083038186803b15801561156657600080fd5b505afa15801561157a573d6000803e3d6000fd5b505050506040513d601f19601f8201168201806040525081019061159e9190611f15565b6001600160a01b031614611624576003546040516358bb6a5d60e11b81526001600160a01b039091169063b176d4ba906115e2908990899089908990600401612610565b600060405180830381600087803b1580156115fc57600080fd5b505af1158015611610573d6000803e3d6000fd5b5050505085856040516114cf9291906123ce565b60405163d0dbc83360e01b81526001600160a01b0382169063d0dbc83390611652908790879060040161250f565b600060405180830381600087803b15801561166c57600080fd5b505af1158015611680573d6000803e3d6000fd5b5050505085856040516116949291906123ce565b60405180910390207f226bfaa503fda889c5dbfb29ffa193ceac9a4b461e47f68b3b14c438ec7f8b6785856040516116cd92919061250f565b60405180910390a25b505050505050565b6002546040516309ba36bf60e31b81526001600160a01b03909116906000908290634dd1b5f890611715908b908b9060040161255d565b60206040518083038186803b15801561172d57600080fd5b505afa158015611741573d6000803e3d6000fd5b505050506040513d601f19601f820116820180604052508101906117659190611f15565b6001549091506001600160a01b03808316911614156117965760405162461bcd60e51b81526004016104ea90612987565b60405163e985e9c560e01b81526001600160a01b0382169063e985e9c5906117c490339030906004016123f2565b60206040518083038186803b1580156117dc57600080fd5b505afa1580156117f0573d6000803e3d6000fd5b505050506040513d601f19601f820116820180604052508101906118149190611f63565b15156001146118355760405162461bcd60e51b81526004016104ea906126fc565b604051637921219560e11b81526001600160a01b0382169063f242432a906118699033908a908a908a908a9060040161248e565b600060405180830381600087803b15801561188357600080fd5b505af1158015611897573d6000803e3d6000fd5b5050505087876040516118ab9291906123ce565b60405180910390207f30e725d42f865939c1f9052f420a2039b3b3ea182d64853dc9e3f12fa1cf50618787876040516118e693929190612528565b60405180910390a25050505050505050565b61190461081d836107de565b6108875760405162461bcd60e51b81526004016104ea90612801565b6002546001600160a01b031681565b60025460405163122acfb560e31b81526001600160a01b039091169060009082906391567da890611966908a908a9060040161255d565b60206040518083038186803b15801561197e57600080fd5b505afa158015611992573d6000803e3d6000fd5b505050506040513d601f19601f820116820180604052508101906119b69190611f15565b90506119e47f8502233096d909befbda0999bb8ea2f3a6be3c138b9fbf003752a4c8bce86f6c61031b611cbf565b611a005760405162461bcd60e51b81526004016104ea90612b21565b60018315151415611b5c5760015460048054604051630cc9693960e21b81526001600160a01b039384169390911691633325a4e491611a43918c918c910161255d565b60206040518083038186803b158015611a5b57600080fd5b505afa158015611a6f573d6000803e3d6000fd5b505050506040513d601f19601f82011682018060405250810190611a939190611f15565b6001600160a01b03161461015557600480546040516306ce0c0960e11b81526001600160a01b0390911691630d9c181291611ad4918b918b918b9101612579565b600060405180830381600087803b158015611aee57600080fd5b505af1158015611b02573d6000803e3d6000fd5b505050508686604051611b169291906123ce565b60405180910390207fd28833d48ffa5c3f0ea93c47adcb7e8015c714a9c0ddf007d4e523851b98367e8686604051611b4f92919061250f565b60405180910390a2611c9d565b6040516331a9108f60e11b815230906001600160a01b03831690636352211e90611b8a908890600401612554565b60206040518083038186803b158015611ba257600080fd5b505afa158015611bb6573d6000803e3d6000fd5b505050506040513d601f19601f82011682018060405250810190611bda9190611f15565b6001600160a01b03161415610155576040516323b872dd60e01b81526001600160a01b038216906323b872dd90611c199030908990899060040161246a565b600060405180830381600087803b158015611c3357600080fd5b505af1158015611c47573d6000803e3d6000fd5b505050508686604051611c5b9291906123ce565b60405180910390207fd28833d48ffa5c3f0ea93c47adcb7e8015c714a9c0ddf007d4e523851b98367e8686604051611c9492919061250f565b60405180910390a25b50505050505050565b6001600160e01b031981166301ffc9a760e01b14919050565b3390565b611ccd82826111c1565b61084b576000828152602081815260408083206001600160a01b03851684529091529020805460ff19166001179055611d04611cbf565b6001600160a01b0316816001600160a01b0316837f2f8788117e7eff1d82e926ec794901d17c78024a50270940304540a733656f0d60405160405180910390a45050565b611d5282826111c1565b1561084b576000828152602081815260408083206001600160a01b03851684529091529020805460ff19169055611d87611cbf565b6001600160a01b0316816001600160a01b0316837ff6391f5c32d9c69d2a47ea670b442974b53935d1edc7fd64eb21e047a839171b60405160405180910390a45050565b803561040f81612c1b565b600082601f830112611de6578081fd5b8135602067ffffffffffffffff821115611e0257611e02612c05565b808202611e10828201612bdb565b838152828101908684018388018501891015611e2a578687fd5b8693505b85841015611e4c578035835260019390930192918401918401611e2e565b50979650505050505050565b803561040f81612c33565b600082601f830112611e73578081fd5b813567ffffffffffffffff811115611e8d57611e8d612c05565b611ea0601f8201601f1916602001612bdb565b818152846020838601011115611eb4578283fd5b816020850160208301379081016020019190915292915050565b60008083601f840112611edf578182fd5b50813567ffffffffffffffff811115611ef6578182fd5b602083019150836020828501011115611f0e57600080fd5b9250929050565b600060208284031215611f26578081fd5b8151611f3181612c1b565b9392505050565b60008060408385031215611f4a578081fd5b8235611f5581612c1b565b946020939093013593505050565b600060208284031215611f74578081fd5b8151611f3181612c33565b600060208284031215611f90578081fd5b5035919050565b60008060408385031215611fa9578182fd5b823591506020830135611fbb81612c1b565b809150509250929050565b600060208284031215611fd7578081fd5b81356001600160e01b031981168114611f31578182fd5b600080600080600080600060c0888a031215612008578283fd5b873567ffffffffffffffff8082111561201f578485fd5b61202b8b838c01611ece565b909950975087915061203f60208b01611dcb565b965060408a0135915080821115612054578485fd5b6120608b838c01611dd6565b955060608a0135915080821115612075578485fd5b6120818b838c01611dd6565b945060808a0135915080821115612096578384fd5b506120a38a828b01611e63565b9250506120b260a08901611e58565b905092959891949750929550565b600080600080606085870312156120d5578384fd5b843567ffffffffffffffff8111156120eb578485fd5b6120f787828801611ece565b909550935050602085013561210b81612c1b565b9396929550929360400135925050565b600080600080600060808688031215612132578081fd5b853567ffffffffffffffff811115612148578182fd5b61215488828901611ece565b909650945050602086013561216881612c1b565b925060408601359150606086013561217f81612c33565b809150509295509295909350565b60008060008060008060a087890312156121a5578182fd5b863567ffffffffffffffff808211156121bc578384fd5b6121c88a838b01611ece565b9098509650602089013591506121dd82612c1b565b909450604088013593506060880135925060808801359080821115612200578283fd5b5061220d89828a01611e63565b9150509295509295509295565b600080600080600080600060c0888a031215612234578081fd5b873567ffffffffffffffff8082111561224b578283fd5b6122578b838c01611ece565b909950975060208a0135915061226c82612c1b565b90955060408901359450606089013593506080890135908082111561228f578283fd5b5061229c8a828b01611e63565b92505060a08801356122ad81612c33565b8091505092959891949750929550565b6000806000604084860312156122d1578081fd5b833567ffffffffffffffff8111156122e7578182fd5b6122f386828701611ece565b909790965060209590950135949350505050565b600060208284031215612318578081fd5b5051919050565b6000815180845260208085019450808401835b8381101561234e57815187529582019590820190600101612332565b509495945050505050565b60008151808452815b8181101561237e57602081850181015186830182015201612362565b8181111561238f5782602083870101525b50601f01601f19169290920160200192915050565b60008284528282602086013780602084860101526020601f19601f85011685010190509392505050565b6000828483379101908152919050565b6001600160a01b0391909116815260200190565b6001600160a01b0392831681529116602082015260400190565b60006001600160a01b03808816835280871660208401525060a0604083015261243860a083018661231f565b828103606084015261244a818661231f565b9050828103608084015261245e8185612359565b98975050505050505050565b6001600160a01b039384168152919092166020820152604081019190915260600190565b60006001600160a01b03808816835280871660208401525084604083015283606083015260a060808301526124c660a0830184612359565b979650505050505050565b60006001600160a01b0385168252606060208301526124f3606083018561231f565b8281036040840152612505818561231f565b9695505050505050565b6001600160a01b03929092168252602082015260400190565b6001600160a01b039390931683526020830191909152604082015260600190565b901515815260200190565b90815260200190565b6000602082526125716020830184866123a4565b949350505050565b60006040825261258d6040830185876123a4565b90506001600160a01b0383166020830152949350505050565b600060a082526125ba60a08301888a6123a4565b6001600160a01b038716602084015282810360408401526125db818761231f565b905082810360608401526125ef818661231f565b905082810360808401526126038185612359565b9998505050505050505050565b6000606082526126246060830186886123a4565b6001600160a01b03949094166020830152506040015292915050565b600060a0825261265460a08301888a6123a4565b6001600160a01b038716602084015285604084015284606084015282810360808401526126038185612359565b6020808252602f908201527f416363657373436f6e74726f6c3a2073656e646572206d75737420626520616e60408201527f2061646d696e20746f206772616e740000000000000000000000000000000000606082015260800190565b6020808252600490820152630ae8aa8960e31b604082015260600190565b6020808252602b908201527f537761704d616e616765723a207573657220646964206e6f74206772616e742060408201526a30b83937bb32903cb2ba1760a91b606082015260800190565b60208082526035908201527f537761704d616e616765723a2057455448206973206e6f74207265676973746560408201527f72656420696e746f2074686520706c6174666f726d0000000000000000000000606082015260800190565b60208082526036908201527f537761704d616e616765723a20746f6b656e206973206e6f742072656769737460408201527f6572656420696e746f2074686520706c6174666f726d00000000000000000000606082015260800190565b60208082526030908201527f416363657373436f6e74726f6c3a2073656e646572206d75737420626520616e60408201527f2061646d696e20746f207265766f6b6500000000000000000000000000000000606082015260800190565b60208082526039908201527f537761704d616e616765723a206e6f7420656e6f75676820636f6e747261637460408201527f2062616c616e636520666f7220746865207472616e7366657200000000000000606082015260800190565b60208082526033908201527f537761704d616e616765723a206d7573742068617665205452414e534645525f60408201527f524f4c4520746f207472616e6665722045746800000000000000000000000000606082015260800190565b60208082526049908201527f537761704d616e616765723a20746f6b656e20746f206265207472616e73666560408201527f7272656420746f205052495649206973206e6f742079657420617070726f76656060820152683210313c902ab9b2b960b91b608082015260a00190565b60208082526035908201527f537761704d616e616765723a20746f6b656e206973206e6f742072656769737460408201527f65726564206f6e204272696467654d616e616765720000000000000000000000606082015260800190565b60208082526050908201527f537761704d616e616765723a20746f6b656e20616d6f756e7420746f2062652060408201527f7472616e7366657272656420746f205052495649206973206e6f74207965742060608201527f617070726f766564206279205573657200000000000000000000000000000000608082015260a00190565b60208082526031908201527f537761704d616e616765723a20616d6f756e74206d757374206265206772656160408201527f746572207468616e203020657468657273000000000000000000000000000000606082015260800190565b60208082526034908201527f537761704d616e616765723a20696e73756666696369656e742066756e64732060408201527f696e20505249564920537761704d616e61676572000000000000000000000000606082015260800190565b60208082526036908201527f537761704d616e616765723a206d7573742068617665205452414e534645525f60408201527f524f4c4520746f20776974686472617720746f6b656e00000000000000000000606082015260800190565b6020808252602f908201527f416363657373436f6e74726f6c3a2063616e206f6e6c792072656e6f756e636560408201527f20726f6c657320666f722073656c660000000000000000000000000000000000606082015260800190565b60405181810167ffffffffffffffff81118282101715612bfd57612bfd612c05565b604052919050565b634e487b7160e01b600052604160045260246000fd5b6001600160a01b0381168114612c3057600080fd5b50565b8015158114612c3057600080fdfea2646970667358221220dd460fba38c80a67eca46e02255716520f5261f0e25b224929450aa097070e4a64736f6c63430008000033",
  "immutableReferences": {},
  "source": "// SPDX-License-Identifier: MIT\npragma solidity ^0.8.0;\n\nimport \"@openzeppelin/contracts/access/AccessControl.sol\";\nimport \"@openzeppelin/contracts/token/ERC20/IERC20.sol\";\nimport \"@openzeppelin/contracts/token/ERC721/IERC721.sol\";\nimport \"@openzeppelin/contracts/token/ERC1155/IERC1155.sol\";\nimport \"./token/interfaces/FakeInterface.sol\";\nimport \"./interfaces/IBridgeManager.sol\";\nimport \"./interfaces/IPRIVIPodERC20Factory.sol\";\nimport \"./interfaces/IPRIVIPodERC721Factory.sol\";\nimport \"./interfaces/IPRIVIPodERC1155Factory.sol\";\n\n/// @author The PRIVI Blockchain team\n/// @title Manages swap and withdraw of Ethers, ERC20 tokens and ERC721 tokens between Users and PRIVI platform\ncontract SwapManager is AccessControl {\n  bytes32 public constant TRANSFER_ROLE = keccak256(\"TRANSFER_ROLE\");\n  address private ZERO_ADDRESS = 0x0000000000000000000000000000000000000000;\n  address public bridgeManagerAddress;\n  address public erc20FactoryAddress;\n  address public erc721FactoryAddress;\n  address public erc1155FactoryAddress;\n\n  event DepositERC20Token(\n    string indexed tokenSymbol,\n    address from,\n    uint256 amount\n  );\n  event WithdrawERC20Token(\n    string indexed tokenSymbol,\n    address to,\n    uint256 amount\n  );\n  event DepositERC721Token(\n    string indexed tokenSymbol,\n    address from,\n    uint256 amount\n  );\n  event WithdrawERC721Token(\n    string indexed tokenSymbol,\n    address to,\n    uint256 tokenId\n  );\n  event DepositERC1155Token(\n    string indexed tokenURI,\n    address to,\n    uint256 tokenId,\n    uint256 amount\n  );\n  event WithdrawERC1155Token(\n    string indexed tokenURI,\n    address to,\n    uint256 tokenId,\n    uint256 amount\n  );\n  event BatchWithdrawERC1155Token(\n    string indexed tokenURI,\n    address to,\n    uint256[] tokenIds,\n    uint256[] amounts\n  );\n  event DepositEther(address indexed from, uint256 amount);\n  event WithdrawEther(address indexed to, uint256 amount);\n\n  /**\n   * @notice Constructor to assign all roles to contract creator\n   */\n  constructor(\n    address bridgeDeployedAddress,\n    address erc20FactoryDeployedAddress,\n    address erc721FactoryDeployedAddress,\n    address erc1155FactoryDeployedAddress\n  ) {\n    _setupRole(DEFAULT_ADMIN_ROLE, _msgSender());\n    // _setupRole(REGISTER_ROLE, _msgSender());\n    _setupRole(TRANSFER_ROLE, _msgSender());\n    bridgeManagerAddress = bridgeDeployedAddress;\n    erc20FactoryAddress = erc20FactoryDeployedAddress;\n    erc721FactoryAddress = erc721FactoryDeployedAddress;\n    erc1155FactoryAddress = erc1155FactoryDeployedAddress;\n  }\n\n  /**\n   * @notice  Transfer ERC20 token from sender address (User) to contract address (PRIVI)\n   * @dev     - Token to be transferred must be already registered\n   *          - User has to approve first the amount to be transferred WITHIN the original ERC20 token contract,\n   *          and not from this contract. Otherwise, transaction will always fail\n   * @param   tokenSymbol Name of the token to be transferred\n   * @param   amount Amount of tokens to be transferred\n   */\n  function depositERC20Token(string calldata tokenSymbol, uint256 amount)\n    external\n  {\n    IBridgeManager bManager = IBridgeManager(bridgeManagerAddress);\n    address tokenAddress = bManager.getErc20AddressRegistered(tokenSymbol);\n    require(\n      tokenAddress != ZERO_ADDRESS,\n      \"SwapManager: token is not registered into the platform\"\n    );\n    require(\n      IERC20(tokenAddress).allowance(_msgSender(), address(this)) >= amount,\n      \"SwapManager: token amount to be transferred to PRIVI is not yet approved by User\"\n    );\n    IERC20(tokenAddress).transferFrom(_msgSender(), address(this), amount);\n    emit DepositERC20Token(tokenSymbol, _msgSender(), amount);\n  }\n\n  /**\n   * @notice  Transfer ERC20 token from contract address (PRIVI) to sender address (User)\n   * @dev     - User must have TRANSFER_ROLE\n   *          - PRIVI must have enough tokens to transfer them back to User\n   * @param   tokenSymbol Name of the token to be transferred\n   * @param   to Destination address to receive the tokens\n   * @param   amount Amount of tokens to be transferred\n   */\n  function withdrawERC20Token(\n    string calldata tokenSymbol,\n    address to,\n    uint256 amount\n  ) external {\n    IBridgeManager bManager = IBridgeManager(bridgeManagerAddress);\n    address tokenAddress = bManager.getErc20AddressRegistered(tokenSymbol);\n    require(\n      hasRole(TRANSFER_ROLE, _msgSender()),\n      \"SwapManager: must have TRANSFER_ROLE to withdraw token\"\n    );\n    if (amount <= IERC20(tokenAddress).balanceOf(address(this))) {\n      IERC20(tokenAddress).approve(address(this), amount);\n      IERC20(tokenAddress).transferFrom(address(this), to, amount);\n      emit WithdrawERC20Token(tokenSymbol, to, amount);\n    } else if (\n      IPRIVIPodERC20Factory(erc20FactoryAddress).getPodAddressBySymbol(\n        tokenSymbol\n      ) != ZERO_ADDRESS\n    ) {\n      IPRIVIPodERC20Factory(erc20FactoryAddress).mintPodTokenBySymbol(\n        tokenSymbol,\n        to,\n        amount\n      );\n      emit WithdrawERC20Token(tokenSymbol, to, amount);\n    } else {\n      // only for testnet mint fake tokens\n      FakeInterface(tokenAddress).mintForUser(to, amount);\n      emit WithdrawERC20Token(tokenSymbol, to, amount);\n    }\n  }\n\n  /**\n   * @notice  Transfer ERC721 token from sender address (User) to contract address (PRIVI)\n   * @dev     - User must have TRANSFER_ROLE\n   *          - Token to be transferred must be already registered\n   *          - User has to approve first the amount to be transferred WITHIN the original ERC721 token contract,\n   *          and not from this contract. Otherwise, transaction will always fail\n   * @param   tokenSymbol Name of the token to be transferred\n   * @param   tokenId Token identifier to be transferred\n   */\n  function depositERC721Token(string calldata tokenSymbol, uint256 tokenId)\n    external\n  {\n    IBridgeManager bManager = IBridgeManager(bridgeManagerAddress);\n    address tokenAddress = bManager.getErc721AddressRegistered(tokenSymbol);\n    require(\n      tokenAddress != ZERO_ADDRESS,\n      \"SwapManager: token is not registered into the platform\"\n    );\n    /* TO BE TESTED */\n    require(\n      IERC721(tokenAddress).getApproved(tokenId) == address(this),\n      \"SwapManager: token to be transferred to PRIVI is not yet approved by User\"\n    );\n    IERC721(tokenAddress).transferFrom(_msgSender(), address(this), tokenId);\n    emit DepositERC721Token(tokenSymbol, _msgSender(), tokenId);\n  }\n\n  /**\n   * @notice  Transfer ERC721 token from contract address (PRIVI) to sender address (User)\n   * @dev     - User must have TRANSFER_ROLE\n   *          - PRIVI must have enough tokens to transfer them back to User\n   * @param   tokenSymbol Name of the token to be transferred\n   * @param   to Destination address to receive the tokens\n   * @param   tokenId Token identifier to be transferred\n   * @param   isPodMint is it a withdraw from swap manager or is it minting new nft pod token\n   */\n  function withdrawERC721Token(\n    string calldata tokenSymbol,\n    address to,\n    uint256 tokenId,\n    bool isPodMint\n  ) external {\n    IBridgeManager bManager = IBridgeManager(bridgeManagerAddress);\n    address tokenAddress = bManager.getErc721AddressRegistered(tokenSymbol);\n    require(\n      hasRole(TRANSFER_ROLE, _msgSender()),\n      \"SwapManager: must have TRANSFER_ROLE to withdraw token\"\n    );\n    if (isPodMint == true) {\n      if (\n        IPRIVIPodERC721Factory(erc721FactoryAddress).getPodAddressBySymbol(\n          tokenSymbol\n        ) != ZERO_ADDRESS\n      ) {\n        IPRIVIPodERC721Factory(erc721FactoryAddress).mintPodTokenBySymbol(\n          tokenSymbol,\n          to\n        );\n        emit WithdrawERC721Token(tokenSymbol, to, tokenId);\n      } else {\n        revert();\n      }\n    } else {\n      if (IERC721(tokenAddress).ownerOf(tokenId) == address(this)) {\n        IERC721(tokenAddress).transferFrom(address(this), to, tokenId);\n        emit WithdrawERC721Token(tokenSymbol, to, tokenId);\n      } else {\n        revert();\n      }\n    }\n  }\n\n  /**\n   * @notice  Transfer ERC1155 token from sender address (User) to contract address (PRIVI)\n   * @dev     - User must have TRANSFER_ROLE\n   *          - Token to be transferred must be already registered\n   *          - User has to approve first the amount to be transferred WITHIN the original ERC1155 token contract,\n   *          and not from this contract. Otherwise, transaction will always fail\n   * @param   tokenURI Name of the token to be transferred\n   * @param   to Destination address to receive the tokens\n   * @param   tokenId Token identifier to be transferred\n   */\n  function depositERC1155Token(\n    string calldata tokenURI,\n    address to,\n    uint256 tokenId,\n    uint256 amount,\n    bytes memory data\n  ) external {\n    IBridgeManager bManager = IBridgeManager(bridgeManagerAddress);\n    address tokenAddress = bManager.getErc1155AddressRegistered(tokenURI);\n    require(\n      tokenAddress != ZERO_ADDRESS,\n      \"SwapManager: token is not registered on BridgeManager\"\n    );\n    /* TO BE TESTED */\n    require(\n      IERC1155(tokenAddress).isApprovedForAll(msg.sender, address(this)) ==\n        true,\n      \"SwapManager: user did not grant aprove yet.\"\n    );\n    IERC1155(tokenAddress).safeTransferFrom(\n      msg.sender,\n      to,\n      tokenId,\n      amount,\n      data\n    );\n    emit DepositERC1155Token(tokenURI, to, tokenId, amount);\n  }\n\n  /**\n   * @notice  Transfer ERC1155 token from contract address (PRIVI) to address (User)\n   * @dev     - PRIVI must have enough tokens to transfer them to User\n   *          or is has to be isPodMint.\n   * @param   tokenURI Name of the token to be transferred\n   * @param   to Destination address to receive the tokens\n   * @param   tokenId Token identifier to be transferred\n   * @param   amount Token amount to be transfered\n   * @param   data bytes\n   */\n  function withdrawERC1155Token(\n    string calldata tokenURI,\n    address to,\n    uint256 tokenId,\n    uint256 amount,\n    bytes memory data,\n    bool isPodMint\n  ) external {\n    IBridgeManager bManager = IBridgeManager(bridgeManagerAddress);\n    address tokenAddress = bManager.getErc1155AddressRegistered(tokenURI);\n    require(\n      hasRole(TRANSFER_ROLE, _msgSender()),\n      \"SwapManager: must have TRANSFER_ROLE to withdraw token\"\n    );\n    if (isPodMint == true) {\n      if (\n        IPRIVIPodERC1155Factory(erc1155FactoryAddress).getPodAddressByUri(\n          tokenURI\n        ) != ZERO_ADDRESS\n      ) {\n        IPRIVIPodERC1155Factory(erc1155FactoryAddress).podMint(\n          tokenURI,\n          to,\n          tokenId,\n          amount,\n          data\n        );\n        emit WithdrawERC1155Token(tokenURI, to, tokenId, amount);\n      } else {\n        revert();\n      }\n    } else {\n      require(\n        IERC1155(tokenAddress).balanceOf(address(this), tokenId) >= amount,\n        \"SwapManager: insufficient funds in PRIVI SwapManager\"\n      );\n      IERC1155(tokenAddress).safeTransferFrom(\n        address(this),\n        to,\n        tokenId,\n        amount,\n        data\n      );\n      emit WithdrawERC1155Token(tokenURI, to, tokenId, amount);\n    }\n  }\n\n  /**\n   * @notice  Batch Transfer ERC1155 token from contract address (PRIVI) to address (User)\n   * @dev     - PRIVI must have enough tokens to transfer them to User\n   *          or is has to be isPodMint.\n   * @param   tokenURI Name of the token to be transferred\n   * @param   to Destination address to receive the tokens\n   * @param   tokenIds Token identifiers to be transferred\n   * @param   amounts Token amounts to be transfered\n   * @param   data bytes\n   */\n  function batchWithdrawERC1155Token(\n    string calldata tokenURI,\n    address to,\n    uint256[] memory tokenIds,\n    uint256[] memory amounts,\n    bytes memory data,\n    bool isPodMint\n  ) external {\n    IBridgeManager bManager = IBridgeManager(bridgeManagerAddress);\n    address tokenAddress = bManager.getErc1155AddressRegistered(tokenURI);\n    require(\n      hasRole(TRANSFER_ROLE, _msgSender()),\n      \"SwapManager: must have TRANSFER_ROLE to withdraw token\"\n    );\n    if (isPodMint == true) {\n      if (\n        IPRIVIPodERC1155Factory(erc1155FactoryAddress).getPodAddressByUri(\n          tokenURI\n        ) != ZERO_ADDRESS\n      ) {\n        IPRIVIPodERC1155Factory(erc1155FactoryAddress).podMintBatch(\n          tokenURI,\n          to,\n          tokenIds,\n          amounts,\n          data\n        );\n        emit BatchWithdrawERC1155Token(tokenURI, to, tokenIds, amounts);\n      } else {\n        revert();\n      }\n    } else {\n      IERC1155(tokenAddress).safeBatchTransferFrom(\n        address(this),\n        to,\n        tokenIds,\n        amounts,\n        data\n      );\n      emit BatchWithdrawERC1155Token(tokenURI, to, tokenIds, amounts);\n    }\n  }\n\n  /**\n   * @notice  Transfer ether from sender address to contract address\n   * @dev     - Amount to be deposited must be greater than 0 ethers\n   */\n  function depositEther() external payable {\n    require(msg.value > 0, \"SwapManager: amount must be greater than 0 ethers\");\n    emit DepositEther(_msgSender(), msg.value);\n  }\n\n  /**\n   * @notice  Transfer ether from contract address to sender address\n   * @dev     - Sender must have TRANSFER_ROLE\n   *          - Contract must have enough balance to do the transfer\n   * @param   to Destination address to receive the ether\n   * @param   amount Amount of ether to be transferred\n   */\n  function withdrawEther(address to, uint256 amount) external {\n    require(\n      hasRole(TRANSFER_ROLE, _msgSender()),\n      \"SwapManager: must have TRANSFER_ROLE to tranfer Eth\"\n    );\n    require(\n      payable(address(this)).balance >= amount,\n      \"SwapManager: not enough contract balance for the transfer\"\n    );\n\n    address payable recipient = payable(to);\n\n    if (amount <= address(this).balance) {\n      recipient.transfer(amount);\n    } else {\n      IBridgeManager bManager = IBridgeManager(bridgeManagerAddress);\n      address tokenAddress = bManager.getErc20AddressRegistered(\"WETH\");\n      require(\n        tokenAddress != ZERO_ADDRESS,\n        \"SwapManager: WETH is not registered into the platform\"\n      );\n      FakeInterface(tokenAddress).mintForUser(to, amount);\n    }\n\n    emit WithdrawEther(to, amount);\n  }\n\n  /**\n   * @return  Contract balance in weis\n   */\n  function getBalance() external view returns (uint256) {\n    return payable(address(this)).balance;\n  }\n}\n",
  "sourcePath": "/home/rekard0/Documents/WORK/PriviEthereum/PRIVIethereum/contracts/SwapManager.sol",
  "compiler": {
    "name": "solc",
    "version": "0.8.0+commit.c7dfd78e.Emscripten.clang"
  },
  "schemaVersion": "3.3.3",
  "updatedAt": "2021-03-18T10:16:41.828Z",
  "devdoc": {
    "author": "The PRIVI Blockchain team",
    "kind": "dev",
    "methods": {
      "batchWithdrawERC1155Token(string,address,uint256[],uint256[],bytes,bool)": {
        "details": "- PRIVI must have enough tokens to transfer them to User          or is has to be isPodMint.",
        "params": {
          "amounts": "Token amounts to be transfered",
          "data": "bytes",
          "to": "Destination address to receive the tokens",
          "tokenIds": "Token identifiers to be transferred",
          "tokenURI": "Name of the token to be transferred"
        }
      },
      "depositERC1155Token(string,address,uint256,uint256,bytes)": {
        "details": "- User must have TRANSFER_ROLE          - Token to be transferred must be already registered          - User has to approve first the amount to be transferred WITHIN the original ERC1155 token contract,          and not from this contract. Otherwise, transaction will always fail",
        "params": {
          "to": "Destination address to receive the tokens",
          "tokenId": "Token identifier to be transferred",
          "tokenURI": "Name of the token to be transferred"
        }
      },
      "depositERC20Token(string,uint256)": {
        "details": "- Token to be transferred must be already registered          - User has to approve first the amount to be transferred WITHIN the original ERC20 token contract,          and not from this contract. Otherwise, transaction will always fail",
        "params": {
          "amount": "Amount of tokens to be transferred",
          "tokenSymbol": "Name of the token to be transferred"
        }
      },
      "depositERC721Token(string,uint256)": {
        "details": "- User must have TRANSFER_ROLE          - Token to be transferred must be already registered          - User has to approve first the amount to be transferred WITHIN the original ERC721 token contract,          and not from this contract. Otherwise, transaction will always fail",
        "params": {
          "tokenId": "Token identifier to be transferred",
          "tokenSymbol": "Name of the token to be transferred"
        }
      },
      "depositEther()": {
        "details": "- Amount to be deposited must be greater than 0 ethers"
      },
      "getBalance()": {
        "returns": {
          "_0": "Contract balance in weis"
        }
      },
      "getRoleAdmin(bytes32)": {
        "details": "Returns the admin role that controls `role`. See {grantRole} and {revokeRole}. To change a role's admin, use {_setRoleAdmin}."
      },
      "grantRole(bytes32,address)": {
        "details": "Grants `role` to `account`. If `account` had not been already granted `role`, emits a {RoleGranted} event. Requirements: - the caller must have ``role``'s admin role."
      },
      "hasRole(bytes32,address)": {
        "details": "Returns `true` if `account` has been granted `role`."
      },
      "renounceRole(bytes32,address)": {
        "details": "Revokes `role` from the calling account. Roles are often managed via {grantRole} and {revokeRole}: this function's purpose is to provide a mechanism for accounts to lose their privileges if they are compromised (such as when a trusted device is misplaced). If the calling account had been granted `role`, emits a {RoleRevoked} event. Requirements: - the caller must be `account`."
      },
      "revokeRole(bytes32,address)": {
        "details": "Revokes `role` from `account`. If `account` had been granted `role`, emits a {RoleRevoked} event. Requirements: - the caller must have ``role``'s admin role."
      },
      "supportsInterface(bytes4)": {
        "details": "See {IERC165-supportsInterface}."
      },
      "withdrawERC1155Token(string,address,uint256,uint256,bytes,bool)": {
        "details": "- PRIVI must have enough tokens to transfer them to User          or is has to be isPodMint.",
        "params": {
          "amount": "Token amount to be transfered",
          "data": "bytes",
          "to": "Destination address to receive the tokens",
          "tokenId": "Token identifier to be transferred",
          "tokenURI": "Name of the token to be transferred"
        }
      },
      "withdrawERC20Token(string,address,uint256)": {
        "details": "- User must have TRANSFER_ROLE          - PRIVI must have enough tokens to transfer them back to User",
        "params": {
          "amount": "Amount of tokens to be transferred",
          "to": "Destination address to receive the tokens",
          "tokenSymbol": "Name of the token to be transferred"
        }
      },
      "withdrawERC721Token(string,address,uint256,bool)": {
        "details": "- User must have TRANSFER_ROLE          - PRIVI must have enough tokens to transfer them back to User",
        "params": {
          "isPodMint": "is it a withdraw from swap manager or is it minting new nft pod token",
          "to": "Destination address to receive the tokens",
          "tokenId": "Token identifier to be transferred",
          "tokenSymbol": "Name of the token to be transferred"
        }
      },
      "withdrawEther(address,uint256)": {
        "details": "- Sender must have TRANSFER_ROLE          - Contract must have enough balance to do the transfer",
        "params": {
          "amount": "Amount of ether to be transferred",
          "to": "Destination address to receive the ether"
        }
      }
    },
    "title": "Manages swap and withdraw of Ethers, ERC20 tokens and ERC721 tokens between Users and PRIVI platform",
    "version": 1
  },
  "userdoc": {
    "kind": "user",
    "methods": {
      "batchWithdrawERC1155Token(string,address,uint256[],uint256[],bytes,bool)": {
        "notice": "Batch Transfer ERC1155 token from contract address (PRIVI) to address (User)"
      },
      "constructor": {
        "notice": "Constructor to assign all roles to contract creator"
      },
      "depositERC1155Token(string,address,uint256,uint256,bytes)": {
        "notice": "Transfer ERC1155 token from sender address (User) to contract address (PRIVI)"
      },
      "depositERC20Token(string,uint256)": {
        "notice": "Transfer ERC20 token from sender address (User) to contract address (PRIVI)"
      },
      "depositERC721Token(string,uint256)": {
        "notice": "Transfer ERC721 token from sender address (User) to contract address (PRIVI)"
      },
      "depositEther()": {
        "notice": "Transfer ether from sender address to contract address"
      },
      "withdrawERC1155Token(string,address,uint256,uint256,bytes,bool)": {
        "notice": "Transfer ERC1155 token from contract address (PRIVI) to address (User)"
      },
      "withdrawERC20Token(string,address,uint256)": {
        "notice": "Transfer ERC20 token from contract address (PRIVI) to sender address (User)"
      },
      "withdrawERC721Token(string,address,uint256,bool)": {
        "notice": "Transfer ERC721 token from contract address (PRIVI) to sender address (User)"
      },
      "withdrawEther(address,uint256)": {
        "notice": "Transfer ether from contract address to sender address"
      }
    },
    "version": 1
  }
}