{
  "contractName": "SwapManager",
  "abi": [
    {
      "inputs": [],
      "stateMutability": "nonpayable",
      "type": "constructor"
    },
    {
      "anonymous": false,
      "inputs": [
        {
          "indexed": true,
          "internalType": "string",
          "name": "tokenName",
          "type": "string"
        },
        {
          "indexed": false,
          "internalType": "address",
          "name": "to",
          "type": "address"
        },
        {
          "indexed": false,
          "internalType": "uint256",
          "name": "amount",
          "type": "uint256"
        }
      ],
      "name": "DepositERC20Token",
      "type": "event"
    },
    {
      "anonymous": false,
      "inputs": [
        {
          "indexed": true,
          "internalType": "string",
          "name": "tokenName",
          "type": "string"
        },
        {
          "indexed": false,
          "internalType": "address",
          "name": "to",
          "type": "address"
        },
        {
          "indexed": false,
          "internalType": "uint256",
          "name": "amount",
          "type": "uint256"
        }
      ],
      "name": "DepositERC721Token",
      "type": "event"
    },
    {
      "anonymous": false,
      "inputs": [
        {
          "indexed": true,
          "internalType": "address",
          "name": "from",
          "type": "address"
        },
        {
          "indexed": false,
          "internalType": "uint256",
          "name": "amount",
          "type": "uint256"
        }
      ],
      "name": "DepositEther",
      "type": "event"
    },
    {
      "anonymous": false,
      "inputs": [
        {
          "indexed": true,
          "internalType": "string",
          "name": "name",
          "type": "string"
        },
        {
          "indexed": false,
          "internalType": "address",
          "name": "tokenAddress",
          "type": "address"
        }
      ],
      "name": "RegisterERC20Token",
      "type": "event"
    },
    {
      "anonymous": false,
      "inputs": [
        {
          "indexed": true,
          "internalType": "string",
          "name": "name",
          "type": "string"
        },
        {
          "indexed": false,
          "internalType": "address",
          "name": "tokenAddress",
          "type": "address"
        }
      ],
      "name": "RegisterERC721Token",
      "type": "event"
    },
    {
      "anonymous": false,
      "inputs": [
        {
          "indexed": true,
          "internalType": "bytes32",
          "name": "role",
          "type": "bytes32"
        },
        {
          "indexed": true,
          "internalType": "bytes32",
          "name": "previousAdminRole",
          "type": "bytes32"
        },
        {
          "indexed": true,
          "internalType": "bytes32",
          "name": "newAdminRole",
          "type": "bytes32"
        }
      ],
      "name": "RoleAdminChanged",
      "type": "event"
    },
    {
      "anonymous": false,
      "inputs": [
        {
          "indexed": true,
          "internalType": "bytes32",
          "name": "role",
          "type": "bytes32"
        },
        {
          "indexed": true,
          "internalType": "address",
          "name": "account",
          "type": "address"
        },
        {
          "indexed": true,
          "internalType": "address",
          "name": "sender",
          "type": "address"
        }
      ],
      "name": "RoleGranted",
      "type": "event"
    },
    {
      "anonymous": false,
      "inputs": [
        {
          "indexed": true,
          "internalType": "bytes32",
          "name": "role",
          "type": "bytes32"
        },
        {
          "indexed": true,
          "internalType": "address",
          "name": "account",
          "type": "address"
        },
        {
          "indexed": true,
          "internalType": "address",
          "name": "sender",
          "type": "address"
        }
      ],
      "name": "RoleRevoked",
      "type": "event"
    },
    {
      "anonymous": false,
      "inputs": [
        {
          "indexed": true,
          "internalType": "string",
          "name": "name",
          "type": "string"
        }
      ],
      "name": "UnRegisterERC20Token",
      "type": "event"
    },
    {
      "anonymous": false,
      "inputs": [
        {
          "indexed": true,
          "internalType": "string",
          "name": "name",
          "type": "string"
        }
      ],
      "name": "UnRegisterERC721Token",
      "type": "event"
    },
    {
      "anonymous": false,
      "inputs": [
        {
          "indexed": true,
          "internalType": "string",
          "name": "tokenName",
          "type": "string"
        },
        {
          "indexed": false,
          "internalType": "address",
          "name": "to",
          "type": "address"
        },
        {
          "indexed": false,
          "internalType": "uint256",
          "name": "amount",
          "type": "uint256"
        }
      ],
      "name": "WithdrawERC20Token",
      "type": "event"
    },
    {
      "anonymous": false,
      "inputs": [
        {
          "indexed": true,
          "internalType": "string",
          "name": "tokenName",
          "type": "string"
        },
        {
          "indexed": false,
          "internalType": "address",
          "name": "to",
          "type": "address"
        },
        {
          "indexed": false,
          "internalType": "uint256",
          "name": "tokenId",
          "type": "uint256"
        }
      ],
      "name": "WithdrawERC721Token",
      "type": "event"
    },
    {
      "anonymous": false,
      "inputs": [
        {
          "indexed": true,
          "internalType": "address",
          "name": "to",
          "type": "address"
        },
        {
          "indexed": false,
          "internalType": "uint256",
          "name": "amount",
          "type": "uint256"
        }
      ],
      "name": "WithdrawEther",
      "type": "event"
    },
    {
      "inputs": [],
      "name": "DEFAULT_ADMIN_ROLE",
      "outputs": [
        {
          "internalType": "bytes32",
          "name": "",
          "type": "bytes32"
        }
      ],
      "stateMutability": "view",
      "type": "function",
      "constant": true
    },
    {
      "inputs": [],
      "name": "REGISTER_ROLE",
      "outputs": [
        {
          "internalType": "bytes32",
          "name": "",
          "type": "bytes32"
        }
      ],
      "stateMutability": "view",
      "type": "function",
      "constant": true
    },
    {
      "inputs": [],
      "name": "TRANSFER_ROLE",
      "outputs": [
        {
          "internalType": "bytes32",
          "name": "",
          "type": "bytes32"
        }
      ],
      "stateMutability": "view",
      "type": "function",
      "constant": true
    },
    {
      "inputs": [
        {
          "internalType": "string",
          "name": "",
          "type": "string"
        }
      ],
      "name": "contractAddressERC20",
      "outputs": [
        {
          "internalType": "address",
          "name": "",
          "type": "address"
        }
      ],
      "stateMutability": "view",
      "type": "function",
      "constant": true
    },
    {
      "inputs": [
        {
          "internalType": "string",
          "name": "",
          "type": "string"
        }
      ],
      "name": "contractAddressERC721",
      "outputs": [
        {
          "internalType": "address",
          "name": "",
          "type": "address"
        }
      ],
      "stateMutability": "view",
      "type": "function",
      "constant": true
    },
    {
      "inputs": [
        {
          "internalType": "bytes32",
          "name": "role",
          "type": "bytes32"
        }
      ],
      "name": "getRoleAdmin",
      "outputs": [
        {
          "internalType": "bytes32",
          "name": "",
          "type": "bytes32"
        }
      ],
      "stateMutability": "view",
      "type": "function",
      "constant": true
    },
    {
      "inputs": [
        {
          "internalType": "bytes32",
          "name": "role",
          "type": "bytes32"
        },
        {
          "internalType": "uint256",
          "name": "index",
          "type": "uint256"
        }
      ],
      "name": "getRoleMember",
      "outputs": [
        {
          "internalType": "address",
          "name": "",
          "type": "address"
        }
      ],
      "stateMutability": "view",
      "type": "function",
      "constant": true
    },
    {
      "inputs": [
        {
          "internalType": "bytes32",
          "name": "role",
          "type": "bytes32"
        }
      ],
      "name": "getRoleMemberCount",
      "outputs": [
        {
          "internalType": "uint256",
          "name": "",
          "type": "uint256"
        }
      ],
      "stateMutability": "view",
      "type": "function",
      "constant": true
    },
    {
      "inputs": [
        {
          "internalType": "bytes32",
          "name": "role",
          "type": "bytes32"
        },
        {
          "internalType": "address",
          "name": "account",
          "type": "address"
        }
      ],
      "name": "grantRole",
      "outputs": [],
      "stateMutability": "nonpayable",
      "type": "function"
    },
    {
      "inputs": [
        {
          "internalType": "bytes32",
          "name": "role",
          "type": "bytes32"
        },
        {
          "internalType": "address",
          "name": "account",
          "type": "address"
        }
      ],
      "name": "hasRole",
      "outputs": [
        {
          "internalType": "bool",
          "name": "",
          "type": "bool"
        }
      ],
      "stateMutability": "view",
      "type": "function",
      "constant": true
    },
    {
      "inputs": [
        {
          "internalType": "bytes32",
          "name": "role",
          "type": "bytes32"
        },
        {
          "internalType": "address",
          "name": "account",
          "type": "address"
        }
      ],
      "name": "renounceRole",
      "outputs": [],
      "stateMutability": "nonpayable",
      "type": "function"
    },
    {
      "inputs": [
        {
          "internalType": "bytes32",
          "name": "role",
          "type": "bytes32"
        },
        {
          "internalType": "address",
          "name": "account",
          "type": "address"
        }
      ],
      "name": "revokeRole",
      "outputs": [],
      "stateMutability": "nonpayable",
      "type": "function"
    },
    {
      "inputs": [
        {
          "internalType": "string",
          "name": "tokenName",
          "type": "string"
        },
        {
          "internalType": "address",
          "name": "tokenContractAddress",
          "type": "address"
        }
      ],
      "name": "registerTokenERC20",
      "outputs": [],
      "stateMutability": "nonpayable",
      "type": "function"
    },
    {
      "inputs": [
        {
          "internalType": "string",
          "name": "tokenName",
          "type": "string"
        }
      ],
      "name": "unRegisterTokenERC20",
      "outputs": [],
      "stateMutability": "nonpayable",
      "type": "function"
    },
    {
      "inputs": [
        {
          "internalType": "string",
          "name": "tokenName",
          "type": "string"
        },
        {
          "internalType": "address",
          "name": "tokenContractAddress",
          "type": "address"
        }
      ],
      "name": "registerTokenERC721",
      "outputs": [],
      "stateMutability": "nonpayable",
      "type": "function"
    },
    {
      "inputs": [
        {
          "internalType": "string",
          "name": "tokenName",
          "type": "string"
        }
      ],
      "name": "unRegisterTokenERC721",
      "outputs": [],
      "stateMutability": "nonpayable",
      "type": "function"
    },
    {
      "inputs": [
        {
          "internalType": "string",
          "name": "tokenName",
          "type": "string"
        },
        {
          "internalType": "uint256",
          "name": "amount",
          "type": "uint256"
        }
      ],
      "name": "depositERC20Token",
      "outputs": [],
      "stateMutability": "nonpayable",
      "type": "function"
    },
    {
      "inputs": [
        {
          "internalType": "string",
          "name": "tokenName",
          "type": "string"
        },
        {
          "internalType": "address",
          "name": "to",
          "type": "address"
        },
        {
          "internalType": "uint256",
          "name": "amount",
          "type": "uint256"
        }
      ],
      "name": "withdrawERC20Token",
      "outputs": [],
      "stateMutability": "nonpayable",
      "type": "function"
    },
    {
      "inputs": [
        {
          "internalType": "string",
          "name": "tokenName",
          "type": "string"
        },
        {
          "internalType": "address",
          "name": "to",
          "type": "address"
        },
        {
          "internalType": "uint256",
          "name": "tokenId",
          "type": "uint256"
        }
      ],
      "name": "depositERC721Token",
      "outputs": [],
      "stateMutability": "nonpayable",
      "type": "function"
    },
    {
      "inputs": [
        {
          "internalType": "string",
          "name": "tokenName",
          "type": "string"
        },
        {
          "internalType": "address",
          "name": "to",
          "type": "address"
        },
        {
          "internalType": "uint256",
          "name": "tokenId",
          "type": "uint256"
        }
      ],
      "name": "withdrawERC721Token",
      "outputs": [],
      "stateMutability": "nonpayable",
      "type": "function"
    },
    {
      "inputs": [],
      "name": "depositEther",
      "outputs": [],
      "stateMutability": "payable",
      "type": "function",
      "payable": true
    },
    {
      "inputs": [
        {
          "internalType": "address",
          "name": "to",
          "type": "address"
        },
        {
          "internalType": "uint256",
          "name": "amount",
          "type": "uint256"
        }
      ],
      "name": "withdrawEther",
      "outputs": [],
      "stateMutability": "nonpayable",
      "type": "function"
    },
    {
      "inputs": [],
      "name": "getBalance",
      "outputs": [
        {
          "internalType": "uint256",
          "name": "",
          "type": "uint256"
        }
      ],
      "stateMutability": "view",
      "type": "function",
      "constant": true
    }
  ],
  "bytecode": "0x6080604052600180546001600160a01b03191690553480156200002157600080fd5b50620000386000620000326200009c565b620000a0565b620000677fd1f21ec03a6eb050fba156f5316dad461735df521fb446dd42c5a4728e9c70fe620000326200009c565b620000967f8502233096d909befbda0999bb8ea2f3a6be3c138b9fbf003752a4c8bce86f6c620000326200009c565b620001b0565b3390565b620000ac8282620000b0565b5050565b600082815260208181526040909120620000d5918390620029ba62000129821b17901c565b15620000ac57620000e56200009c565b6001600160a01b0316816001600160a01b0316837f2f8788117e7eff1d82e926ec794901d17c78024a50270940304540a733656f0d60405160405180910390a45050565b600062000140836001600160a01b03841662000149565b90505b92915050565b600062000157838362000198565b6200018f5750815460018181018455600084815260208082209093018490558454848252828601909352604090209190915562000143565b50600062000143565b60009081526001919091016020526040902054151590565b61305b80620001c06000396000f3fe60806040526004361061016f5760003560e01c806374f53317116100d6578063a217fddf1161007f578063d1af27c411610059578063d1af27c41461092d578063d547741f146109ec578063fcf6a89214610a255761016f565b8063a217fddf14610832578063aa57b73614610847578063ca15c873146109035761016f565b806391d14854116100b057806391d148541461072c5780639562227e1461077957806398ea5fca1461082a5761016f565b806374f53317146106345780637de2c626146106495780639010d07c146106fc5761016f565b806336568abe1161013857806356a109bc1161011257806356a109bc146104135780635a8c18e1146104d25780635d099ca7146105835761016f565b806336568abe146102d457806346dffca01461030d578063522f6815146103da5761016f565b806259d9301461017457806312065fe014610235578063206b60f91461025c578063248a9ca3146102715780632f2ff15d1461029b575b600080fd5b34801561018057600080fd5b506102336004803603606081101561019757600080fd5b810190602081018135600160201b8111156101b157600080fd5b8201836020820111156101c357600080fd5b803590602001918460018302840111600160201b831117156101e457600080fd5b91908080601f016020809104026020016040519081016040528093929190818152602001838380828437600092019190915250929550506001600160a01b038335169350505060200135610ae1565b005b34801561024157600080fd5b5061024a610e87565b60408051918252519081900360200190f35b34801561026857600080fd5b5061024a610e8c565b34801561027d57600080fd5b5061024a6004803603602081101561029457600080fd5b5035610eb0565b3480156102a757600080fd5b50610233600480360360408110156102be57600080fd5b50803590602001356001600160a01b0316610ec5565b3480156102e057600080fd5b50610233600480360360408110156102f757600080fd5b50803590602001356001600160a01b0316610f2c565b34801561031957600080fd5b506103be6004803603602081101561033057600080fd5b810190602081018135600160201b81111561034a57600080fd5b82018360208201111561035c57600080fd5b803590602001918460018302840111600160201b8311171561037d57600080fd5b91908080601f016020809104026020016040519081016040528093929190818152602001838380828437600092019190915250929550610f8d945050505050565b604080516001600160a01b039092168252519081900360200190f35b3480156103e657600080fd5b50610233600480360360408110156103fd57600080fd5b506001600160a01b038135169060200135610fb3565b34801561041f57600080fd5b506102336004803603606081101561043657600080fd5b810190602081018135600160201b81111561045057600080fd5b82018360208201111561046257600080fd5b803590602001918460018302840111600160201b8311171561048357600080fd5b91908080601f016020809104026020016040519081016040528093929190818152602001838380828437600092019190915250929550506001600160a01b0383351693505050602001356111dc565b3480156104de57600080fd5b50610233600480360360208110156104f557600080fd5b810190602081018135600160201b81111561050f57600080fd5b82018360208201111561052157600080fd5b803590602001918460018302840111600160201b8311171561054257600080fd5b91908080601f016020809104026020016040519081016040528093929190818152602001838380828437600092019190915250929550611520945050505050565b34801561058f57600080fd5b506103be600480360360208110156105a657600080fd5b810190602081018135600160201b8111156105c057600080fd5b8201836020820111156105d257600080fd5b803590602001918460018302840111600160201b831117156105f357600080fd5b91908080601f016020809104026020016040519081016040528093929190818152602001838380828437600092019190915250929550611798945050505050565b34801561064057600080fd5b5061024a6117be565b34801561065557600080fd5b506102336004803603604081101561066c57600080fd5b810190602081018135600160201b81111561068657600080fd5b82018360208201111561069857600080fd5b803590602001918460018302840111600160201b831117156106b957600080fd5b91908080601f01602080910402602001604051908101604052809392919081815260200183838082843760009201919091525092955050913592506117e2915050565b34801561070857600080fd5b506103be6004803603604081101561071f57600080fd5b5080359060200135611b77565b34801561073857600080fd5b506107656004803603604081101561074f57600080fd5b50803590602001356001600160a01b0316611b98565b604080519115158252519081900360200190f35b34801561078557600080fd5b506102336004803603602081101561079c57600080fd5b810190602081018135600160201b8111156107b657600080fd5b8201836020820111156107c857600080fd5b803590602001918460018302840111600160201b831117156107e957600080fd5b91908080601f016020809104026020016040519081016040528093929190818152602001838380828437600092019190915250929550611bb0945050505050565b610233611e28565b34801561083e57600080fd5b5061024a611eb1565b34801561085357600080fd5b506102336004803603604081101561086a57600080fd5b810190602081018135600160201b81111561088457600080fd5b82018360208201111561089657600080fd5b803590602001918460018302840111600160201b831117156108b757600080fd5b91908080601f016020809104026020016040519081016040528093929190818152602001838380828437600092019190915250929550505090356001600160a01b03169150611eb69050565b34801561090f57600080fd5b5061024a6004803603602081101561092657600080fd5b5035612185565b34801561093957600080fd5b506102336004803603606081101561095057600080fd5b810190602081018135600160201b81111561096a57600080fd5b82018360208201111561097c57600080fd5b803590602001918460018302840111600160201b8311171561099d57600080fd5b91908080601f016020809104026020016040519081016040528093929190818152602001838380828437600092019190915250929550506001600160a01b03833516935050506020013561219c565b3480156109f857600080fd5b5061023360048036036040811015610a0f57600080fd5b50803590602001356001600160a01b0316612692565b348015610a3157600080fd5b5061023360048036036040811015610a4857600080fd5b810190602081018135600160201b811115610a6257600080fd5b820183602082011115610a7457600080fd5b803590602001918460018302840111600160201b83111715610a9557600080fd5b91908080601f016020809104026020016040519081016040528093929190818152602001838380828437600092019190915250929550505090356001600160a01b031691506126eb9050565b610b127f8502233096d909befbda0999bb8ea2f3a6be3c138b9fbf003752a4c8bce86f6c610b0d6129cf565b611b98565b610b4d5760405162461bcd60e51b8152600401808060200182810382526036815260200180612fc16036913960400191505060405180910390fd5b60006003846040518082805190602001908083835b60208310610b815780518252601f199092019160209182019101610b62565b51815160209384036101000a6000190180199092169116179052920194855250604080519485900382018520546370a0823160e01b865230600487015290516001600160a01b03909116946370a0823194506024808201945090829003018186803b158015610bef57600080fd5b505afa158015610c03573d6000803e3d6000fd5b505050506040513d6020811015610c1957600080fd5b505111610c575760405162461bcd60e51b8152600401808060200182810382526031815260200180612cc86031913960400191505060405180910390fd5b6003836040518082805190602001908083835b60208310610c895780518252601f199092019160209182019101610c6a565b51815160209384036101000a6000190180199092169116179052920194855250604080519485900390910184205463095ea7b360e01b85523060048601526024850186905290516001600160a01b039091169363095ea7b39350604480820193506000929182900301818387803b158015610d0357600080fd5b505af1158015610d17573d6000803e3d6000fd5b505050506003836040518082805190602001908083835b60208310610d4d5780518252601f199092019160209182019101610d2e565b51815160209384036101000a600019018019909216911617905292019485525060408051948590039091018420546323b872dd60e01b85523060048601526001600160a01b0387811660248701526044860187905291519116936323b872dd9350606480820193506000929182900301818387803b158015610dce57600080fd5b505af1158015610de2573d6000803e3d6000fd5b50505050826040518082805190602001908083835b60208310610e165780518252601f199092019160209182019101610df7565b51815160001960209485036101000a01908116901991909116179052604080519490920184900384206001600160a01b038916855290840187905281519095507fd28833d48ffa5c3f0ea93c47adcb7e8015c714a9c0ddf007d4e523851b98367e94509283900301919050a2505050565b303190565b7f8502233096d909befbda0999bb8ea2f3a6be3c138b9fbf003752a4c8bce86f6c81565b60009081526020819052604090206002015490565b600082815260208190526040902060020154610ee390610b0d6129cf565b610f1e5760405162461bcd60e51b815260040180806020018281038252602f815260200180612c99602f913960400191505060405180910390fd5b610f2882826129d3565b5050565b610f346129cf565b6001600160a01b0316816001600160a01b031614610f835760405162461bcd60e51b815260040180806020018281038252602f815260200180612ff7602f913960400191505060405180910390fd5b610f288282612a3c565b80516020818301810180516003825292820191909301209152546001600160a01b031681565b610fdf7f8502233096d909befbda0999bb8ea2f3a6be3c138b9fbf003752a4c8bce86f6c610b0d6129cf565b61101a5760405162461bcd60e51b8152600401808060200182810382526033815260200180612e5a6033913960400191505060405180910390fd5b303181111561105a5760405162461bcd60e51b8152600401808060200182810382526039815260200180612e216039913960400191505060405180910390fd5b8147821161109e576040516001600160a01b0382169083156108fc029084906000818181858888f19350505050158015611098573d6000803e3d6000fd5b50611198565b60015460408051630ae8aa8960e31b8152600260048201529051908190036024019020546001600160a01b039081169116141561110c5760405162461bcd60e51b8152600401808060200182810382526035815260200180612cf96035913960400191505060405180910390fd5b60408051630ae8aa8960e31b815260026004808301919091528251602492819003830181205463d0dbc83360e01b82526001600160a01b0388811693830193909352928101869052925191169163d0dbc83391604480830192600092919082900301818387803b15801561117f57600080fd5b505af1158015611193573d6000803e3d6000fd5b505050505b6040805183815290516001600160a01b038516917fdb35132c111efe920cede025e819975671cfd1b8fcc1174762c8670c4e94c211919081900360200190a2505050565b60015460405184516001600160a01b03909216916003918691819060208401908083835b6020831061121f5780518252601f199092019160209182019101611200565b51815160209384036101000a60001901801990921691161790529201948552506040519384900301909220546001600160a01b03169290921415915061129890505760405162461bcd60e51b8152600401808060200182810382526036815260200180612d536036913960400191505060405180910390fd5b306001600160a01b03166003846040518082805190602001908083835b602083106112d45780518252601f1990920191602091820191016112b5565b51815160209384036101000a60001901801990921691161790529201948552506040805194859003820185205463020604bf60e21b86526004860188905290516001600160a01b039091169463081812fc94506024808201945090829003018186803b15801561134357600080fd5b505afa158015611357573d6000803e3d6000fd5b505050506040513d602081101561136d57600080fd5b50516001600160a01b0316146113b45760405162461bcd60e51b8152600401808060200182810382526049815260200180612e8d6049913960600191505060405180910390fd5b6003836040518082805190602001908083835b602083106113e65780518252601f1990920191602091820191016113c7565b51815160209384036101000a600019018019909216911617905292019485525060408051948590039091018420546323b872dd60e01b85523360048601526001600160a01b0387811660248701526044860187905291519116936323b872dd9350606480820193506000929182900301818387803b15801561146757600080fd5b505af115801561147b573d6000803e3d6000fd5b50505050826040518082805190602001908083835b602083106114af5780518252601f199092019160209182019101611490565b51815160001960209485036101000a01908116901991909116179052604080519490920184900384206001600160a01b038916855290840187905281519095507ff0218d2f738513bea289b1b8ca83d8241a1060f13280602f9b7ff8e3598d4c8394509283900301919050a2505050565b8051819081906115615760405162461bcd60e51b8152600401808060200182810382526025815260200180612d2e6025913960400191505060405180910390fd5b61158d7fd1f21ec03a6eb050fba156f5316dad461735df521fb446dd42c5a4728e9c70fe610b0d6129cf565b6115c85760405162461bcd60e51b815260040180806020018281038252603a815260200180612f87603a913960400191505060405180910390fd5b60015460405184516001600160a01b03909216916002918691819060208401908083835b6020831061160b5780518252601f1990920191602091820191016115ec565b51815160209384036101000a60001901801990921691161790529201948552506040519384900301909220546001600160a01b03169290921415915061168490505760405162461bcd60e51b8152600401808060200182810382526030815260200180612f576030913960400191505060405180910390fd5b60015460405184516001600160a01b03909216916002918691819060208401908083835b602083106116c75780518252601f1990920191602091820191016116a8565b51815160209384036101000a6000190180199092169116179052920194855250604051938490038101842080546001600160a01b0319166001600160a01b0396909616959095179094555050845185928291908401908083835b602083106117405780518252601f199092019160209182019101611721565b5181516020939093036101000a60001901801990911692169190911790526040519201829003822093507f165900214ed2efc5014e11d6a345a7cf56338cec6a77f7836963249a5b12a19f92506000919050a2505050565b80516020818301810180516002825292820191909301209152546001600160a01b031681565b7fd1f21ec03a6eb050fba156f5316dad461735df521fb446dd42c5a4728e9c70fe81565b60015460405183516001600160a01b03909216916002918591819060208401908083835b602083106118255780518252601f199092019160209182019101611806565b51815160209384036101000a60001901801990921691161790529201948552506040519384900301909220546001600160a01b03169290921415915061189e90505760405162461bcd60e51b8152600401808060200182810382526036815260200180612d536036913960400191505060405180910390fd5b806002836040518082805190602001908083835b602083106118d15780518252601f1990920191602091820191016118b2565b51815160209384036101000a60001901801990921691161790529201948552506040519384900301909220546001600160a01b0316915063dd62ed3e90506119176129cf565b306040518363ffffffff1660e01b815260040180836001600160a01b03168152602001826001600160a01b031681526020019250505060206040518083038186803b15801561196557600080fd5b505afa158015611979573d6000803e3d6000fd5b505050506040513d602081101561198f57600080fd5b505110156119ce5760405162461bcd60e51b8152600401808060200182810382526050815260200180612ed66050913960600191505060405180910390fd5b6002826040518082805190602001908083835b60208310611a005780518252601f1990920191602091820191016119e1565b51815160209384036101000a60001901801990921691161790529201948552506040519384900301909220546001600160a01b031691506323b872dd9050611a466129cf565b30846040518463ffffffff1660e01b815260040180846001600160a01b03168152602001836001600160a01b031681526020018281526020019350505050602060405180830381600087803b158015611a9e57600080fd5b505af1158015611ab2573d6000803e3d6000fd5b505050506040513d6020811015611ac857600080fd5b50506040518251839190819060208401908083835b60208310611afc5780518252601f199092019160209182019101611add565b6001836020036101000a03801982511681845116808217855250505050505090500191505060405180910390207f91ed334b741c7cbbae982dad9ca693e9d47b9a50db6fd5f346755f5bca14dfdd611b526129cf565b604080516001600160a01b039092168252602082018590528051918290030190a25050565b6000828152602081905260408120611b8f9083612aa5565b90505b92915050565b6000828152602081905260408120611b8f9083612ab1565b805181908190611bf15760405162461bcd60e51b8152600401808060200182810382526025815260200180612d2e6025913960400191505060405180910390fd5b611c1d7fd1f21ec03a6eb050fba156f5316dad461735df521fb446dd42c5a4728e9c70fe610b0d6129cf565b611c585760405162461bcd60e51b815260040180806020018281038252603a815260200180612f87603a913960400191505060405180910390fd5b60015460405184516001600160a01b03909216916003918691819060208401908083835b60208310611c9b5780518252601f199092019160209182019101611c7c565b51815160209384036101000a60001901801990921691161790529201948552506040519384900301909220546001600160a01b031692909214159150611d1490505760405162461bcd60e51b8152600401808060200182810382526030815260200180612f576030913960400191505060405180910390fd5b60015460405184516001600160a01b03909216916003918691819060208401908083835b60208310611d575780518252601f199092019160209182019101611d38565b51815160209384036101000a6000190180199092169116179052920194855250604051938490038101842080546001600160a01b0319166001600160a01b0396909616959095179094555050845185928291908401908083835b60208310611dd05780518252601f199092019160209182019101611db1565b5181516020939093036101000a60001901801990911692169190911790526040519201829003822093507f0de03d3bef344b9df188770d8d72ff98e8c4b63ca2fedde287c7d4d12d8e5b0c92506000919050a2505050565b60003411611e675760405162461bcd60e51b8152600401808060200182810382526031815260200180612f266031913960400191505060405180910390fd5b611e6f6129cf565b6001600160a01b03167fe628a607143b255f52afd0900e0d9630dd009c2f2635cd1e28c7aeeeff940802346040518082815260200191505060405180910390a2565b600081565b815182908190611ef75760405162461bcd60e51b8152600401808060200182810382526025815260200180612d2e6025913960400191505060405180910390fd5b611f237fd1f21ec03a6eb050fba156f5316dad461735df521fb446dd42c5a4728e9c70fe610b0d6129cf565b611f5e5760405162461bcd60e51b8152600401808060200182810382526038815260200180612d896038913960400191505060405180910390fd5b60015460405185516001600160a01b03909216916003918791819060208401908083835b60208310611fa15780518252601f199092019160209182019101611f82565b51815160209384036101000a60001901801990921691161790529201948552506040519384900301909220546001600160a01b031692909214915061201990505760405162461bcd60e51b8152600401808060200182810382526030815260200180612dc16030913960400191505060405180910390fd5b601984511061206f576040805162461bcd60e51b815260206004820181905260248201527f537761704d616e616765723a20746f6b656e206e616d6520746f6f206c6f6e67604482015290519081900360640190fd5b826003856040518082805190602001908083835b602083106120a25780518252601f199092019160209182019101612083565b51815160209384036101000a6000190180199092169116179052920194855250604051938490038101842080546001600160a01b0319166001600160a01b0396909616959095179094555050855186928291908401908083835b6020831061211b5780518252601f1990920191602091820191016120fc565b51815160209384036101000a6000190180199092169116179052604080519290940182900382206001600160a01b038a16835293519395507f8b716abc5c12b2b1b216049f179e5b7ea408a5a96880c14d00b5c83282e43b9594509083900301919050a250505050565b6000818152602081905260408120611b9290612ac6565b6121c87f8502233096d909befbda0999bb8ea2f3a6be3c138b9fbf003752a4c8bce86f6c610b0d6129cf565b6122035760405162461bcd60e51b8152600401808060200182810382526036815260200180612fc16036913960400191505060405180910390fd5b6002836040518082805190602001908083835b602083106122355780518252601f199092019160209182019101612216565b51815160209384036101000a6000190180199092169116179052920194855250604080519485900382018520546370a0823160e01b865230600487015290516001600160a01b03909116946370a0823194506024808201945090829003018186803b1580156122a357600080fd5b505afa1580156122b7573d6000803e3d6000fd5b505050506040513d60208110156122cd57600080fd5b5051811161252b576002836040518082805190602001908083835b602083106123075780518252601f1990920191602091820191016122e8565b51815160209384036101000a60001901801990921691161790529201948552506040805194859003820185205463095ea7b360e01b86523060048701526024860187905290516001600160a01b039091169463095ea7b3945060448082019450908290030181600087803b15801561237e57600080fd5b505af1158015612392573d6000803e3d6000fd5b505050506040513d60208110156123a857600080fd5b505060405183516002918591819060208401908083835b602083106123de5780518252601f1990920191602091820191016123bf565b51815160209384036101000a6000190180199092169116179052920194855250604080519485900382018520546323b872dd60e01b86523060048701526001600160a01b0388811660248801526044870188905291519116946323b872dd945060648082019450908290030181600087803b15801561245c57600080fd5b505af1158015612470573d6000803e3d6000fd5b505050506040513d602081101561248657600080fd5b50506040518351849190819060208401908083835b602083106124ba5780518252601f19909201916020918201910161249b565b51815160001960209485036101000a01908116901991909116179052604080519490920184900384206001600160a01b038916855290840187905281519095507f226bfaa503fda889c5dbfb29ffa193ceac9a4b461e47f68b3b14c438ec7f8b6794509283900301919050a261268d565b6002836040518082805190602001908083835b6020831061255d5780518252601f19909201916020918201910161253e565b51815160209384036101000a6000190180199092169116179052920194855250604080519485900390910184205463d0dbc83360e01b85526001600160a01b03878116600487015260248601879052915191169363d0dbc8339350604480820193506000929182900301818387803b1580156125d857600080fd5b505af11580156125ec573d6000803e3d6000fd5b50505050826040518082805190602001908083835b602083106126205780518252601f199092019160209182019101612601565b51815160001960209485036101000a01908116901991909116179052604080519490920184900384206001600160a01b038916855290840187905281519095507f226bfaa503fda889c5dbfb29ffa193ceac9a4b461e47f68b3b14c438ec7f8b6794509283900301919050a25b505050565b6000828152602081905260409020600201546126b090610b0d6129cf565b610f835760405162461bcd60e51b8152600401808060200182810382526030815260200180612df16030913960400191505060405180910390fd5b81518290819061272c5760405162461bcd60e51b8152600401808060200182810382526025815260200180612d2e6025913960400191505060405180910390fd5b6127587fd1f21ec03a6eb050fba156f5316dad461735df521fb446dd42c5a4728e9c70fe610b0d6129cf565b6127935760405162461bcd60e51b8152600401808060200182810382526038815260200180612d896038913960400191505060405180910390fd5b60015460405185516001600160a01b03909216916002918791819060208401908083835b602083106127d65780518252601f1990920191602091820191016127b7565b51815160209384036101000a60001901801990921691161790529201948552506040519384900301909220546001600160a01b031692909214915061284e90505760405162461bcd60e51b8152600401808060200182810382526030815260200180612dc16030913960400191505060405180910390fd5b60198451106128a4576040805162461bcd60e51b815260206004820181905260248201527f537761704d616e616765723a20746f6b656e206e616d6520746f6f206c6f6e67604482015290519081900360640190fd5b826002856040518082805190602001908083835b602083106128d75780518252601f1990920191602091820191016128b8565b51815160209384036101000a6000190180199092169116179052920194855250604051938490038101842080546001600160a01b0319166001600160a01b0396909616959095179094555050855186928291908401908083835b602083106129505780518252601f199092019160209182019101612931565b51815160209384036101000a6000190180199092169116179052604080519290940182900382206001600160a01b038a16835293519395507f8332d9919bf32207cb796a0a21674da0f96c4d6f2257c02073ff112e117bff0c94509083900301919050a250505050565b6000611b8f836001600160a01b038416612ad1565b3390565b60008281526020819052604090206129eb90826129ba565b15610f28576129f86129cf565b6001600160a01b0316816001600160a01b0316837f2f8788117e7eff1d82e926ec794901d17c78024a50270940304540a733656f0d60405160405180910390a45050565b6000828152602081905260409020612a549082612b1b565b15610f2857612a616129cf565b6001600160a01b0316816001600160a01b0316837ff6391f5c32d9c69d2a47ea670b442974b53935d1edc7fd64eb21e047a839171b60405160405180910390a45050565b6000611b8f8383612b30565b6000611b8f836001600160a01b038416612b94565b6000611b9282612bac565b6000612add8383612b94565b612b1357508154600181810184556000848152602080822090930184905584548482528286019093526040902091909155611b92565b506000611b92565b6000611b8f836001600160a01b038416612bb0565b81546000908210612b725760405162461bcd60e51b8152600401808060200182810382526022815260200180612c776022913960400191505060405180910390fd5b826000018281548110612b8157fe5b9060005260206000200154905092915050565b60009081526001919091016020526040902054151590565b5490565b60008181526001830160205260408120548015612c6c5783546000198083019190810190600090879083908110612be357fe5b9060005260206000200154905080876000018481548110612c0057fe5b600091825260208083209091019290925582815260018981019092526040902090840190558654879080612c3057fe5b60019003818190600052602060002001600090559055866001016000878152602001908152602001600020600090556001945050505050611b92565b6000915050611b9256fe456e756d657261626c655365743a20696e646578206f7574206f6620626f756e6473416363657373436f6e74726f6c3a2073656e646572206d75737420626520616e2061646d696e20746f206772616e74537761704d616e616765723a20696e73756666696369656e742066756e647320696e20505249564920636f6e7472616374537761704d616e616765723a2057455448206973206e6f74207265676973746572656420696e746f2074686520706c6174666f726d537761704d616e616765723a20746f6b656e4e616d652063616e277420626520656d707479537761704d616e616765723a20746f6b656e206973206e6f74207265676973746572656420696e746f2074686520706c6174666f726d537761704d616e616765723a206d75737420686176652052454749535445525f524f4c4520746f207265676973746572206120746f6b656e537761704d616e616765723a20746f6b656e206164647265737320697320616c72656164792072656769737465726564416363657373436f6e74726f6c3a2073656e646572206d75737420626520616e2061646d696e20746f207265766f6b65537761704d616e616765723a206e6f7420656e6f75676820636f6e74726163742062616c616e636520666f7220746865207472616e73666572537761704d616e616765723a206d7573742068617665205452414e534645525f524f4c4520746f207472616e66657220457468537761704d616e616765723a20746f6b656e20746f206265207472616e7366657272656420746f205052495649206973206e6f742079657420617070726f7665642062792055736572537761704d616e616765723a20746f6b656e20616d6f756e7420746f206265207472616e7366657272656420746f205052495649206973206e6f742079657420617070726f7665642062792055736572537761704d616e616765723a20616d6f756e74206d7573742062652067726561746572207468616e203020657468657273537761704d616e616765723a20746f6b656e2061646472657373206973206e6f74207265676973746572656420796574537761704d616e616765723a206d75737420686176652052454749535445525f524f4c4520746f20756e7265676973746572206120746f6b656e537761704d616e616765723a206d7573742068617665205452414e534645525f524f4c4520746f20776974686472617720746f6b656e416363657373436f6e74726f6c3a2063616e206f6e6c792072656e6f756e636520726f6c657320666f722073656c66a2646970667358221220bc994db7711772bfc3371ca7c02c29219a02557b7e2d801f7fed4097d7cbd58a64736f6c634300060c0033",
  "immutableReferences": {},
  "source": "// SPDX-License-Identifier: MIT\npragma solidity ^0.6.12;\n\nimport \"@openzeppelin/contracts/access/AccessControl.sol\";\nimport \"@openzeppelin/contracts/token/ERC20/IERC20.sol\";\nimport \"@openzeppelin/contracts/token/ERC721/IERC721.sol\";\nimport \"./token/fakeTokens/FakeInterface.sol\";\n// import \"https://github.com/OpenZeppelin/openzeppelin-contracts/blob/master/contracts/access/AccessControl.sol\";\n// import \"https://github.com/OpenZeppelin/openzeppelin-contracts/blob/master/contracts/token/ERC20/IERC20.sol\";\n// import \"https://github.com/OpenZeppelin/openzeppelin-contracts/blob/master/contracts/token/ERC721/IERC721.sol\";\n\n/// @author The PRIVI Blockchain team\n/// @title Manages swap and withdraw of Ethers, ERC20 tokens and ERC721 tokens between Users and PRIVI platform\n\ncontract SwapManager is AccessControl{\n    bytes32 public constant REGISTER_ROLE = keccak256(\"REGISTER_ROLE\");\n    bytes32 public constant TRANSFER_ROLE = keccak256(\"TRANSFER_ROLE\");\n    address private ZERO_ADDRESS = 0x0000000000000000000000000000000000000000;\n\n    mapping(string => address) public contractAddressERC20;\n    mapping(string => address) public contractAddressERC721;\n\n    event RegisterERC20Token(string indexed name, address tokenAddress);\n    event UnRegisterERC20Token(string indexed name);\n    event RegisterERC721Token(string indexed name, address tokenAddress);\n    event UnRegisterERC721Token(string indexed name);\n\n    event DepositERC20Token(string indexed tokenName, address to, uint256 amount);\n    event WithdrawERC20Token(string indexed tokenName, address to, uint256 amount);\n    event DepositERC721Token(string indexed tokenName, address to, uint256 amount);\n    event WithdrawERC721Token(string indexed tokenName, address to, uint256 tokenId);\n    event DepositEther(address indexed from, uint256 amount);\n    event WithdrawEther(address indexed to, uint256 amount);\n\n    /**\n     * @notice  Modifier to require 'tokenName' is not empty\n     * @param   tokenNameToCheck Token name to be checked\n     */\n    modifier tokenNameIsNotEmpty(string memory tokenNameToCheck) {\n        bytes memory bytesTokenName = bytes(tokenNameToCheck);\n        require(bytesTokenName.length != 0, \"SwapManager: tokenName can't be empty\");\n        _;\n    }\n\n    /**\n     * @notice Constructor to assign all roles to contract creator\n     */\n    constructor() public {\n        _setupRole(DEFAULT_ADMIN_ROLE, _msgSender());\n        _setupRole(REGISTER_ROLE, _msgSender());\n        _setupRole(TRANSFER_ROLE, _msgSender());\n    }\n    \n    /**\n     * @notice  Register the contract address of an ERC20 Token\n     * @dev     - Token name and address can't be already registered\n     *          - Length of token name can't be higher than 25\n     * @param   tokenName Name of the token to be registered (e.g.: DAI, UNI)\n     * @param   tokenContractAddress Contract address of the ERC20 Token\n     */\n    function registerTokenERC20(string memory tokenName, address tokenContractAddress) public tokenNameIsNotEmpty(tokenName) {\n        require(hasRole(REGISTER_ROLE, _msgSender()), \n            \"SwapManager: must have REGISTER_ROLE to register a token\");\n        require(contractAddressERC20[tokenName] == ZERO_ADDRESS, \n            \"SwapManager: token address is already registered\");\n        require(bytes(tokenName).length < 25, \n            \"SwapManager: token name too long\");\n        contractAddressERC20[tokenName] = tokenContractAddress;\n        emit RegisterERC20Token(tokenName, tokenContractAddress);\n    }\n    \n    /**\n     * @notice  Unregister the contract address of an ERC20 Token\n     * @dev     - User must have REGISTER_ROLE\n     *          - Token name and address must be already registered\n     * @param   tokenName Name of the token to be unregistered (e.g.: DAI, UNI)\n     */\n    function unRegisterTokenERC20(string memory tokenName) public tokenNameIsNotEmpty(tokenName) {\n        require(hasRole(REGISTER_ROLE, _msgSender()), \n            \"SwapManager: must have REGISTER_ROLE to unregister a token\");\n        require(contractAddressERC20[tokenName] != ZERO_ADDRESS, \n            \"SwapManager: token address is not registered yet\");\n        contractAddressERC20[tokenName] = ZERO_ADDRESS;\n        emit UnRegisterERC20Token(tokenName);\n    }\n\n    /**\n     * @notice  Register the contract address of an ERC721 Token\n     * @dev     - Token name and address can't be already registered\n     *          - Length of token name can't be higher than 25\n     * @param   tokenName Name of the token to be registered\n     * @param   tokenContractAddress Contract address of the ERC721 Token\n     */\n    function registerTokenERC721(string memory tokenName, address tokenContractAddress) public tokenNameIsNotEmpty(tokenName) {\n        require(hasRole(REGISTER_ROLE, _msgSender()), \n            \"SwapManager: must have REGISTER_ROLE to register a token\");\n        require(contractAddressERC721[tokenName] == ZERO_ADDRESS, \n            \"SwapManager: token address is already registered\");\n        require(bytes(tokenName).length < 25, \n            \"SwapManager: token name too long\");\n        contractAddressERC721[tokenName] = tokenContractAddress;\n        emit RegisterERC721Token(tokenName, tokenContractAddress);\n    }\n\n    /**\n     * @notice  Unregister the contract address of an ERC721 Token\n     * @dev     - User must have REGISTER_ROLE\n     *          - Token name and address must be already registered\n     * @param   tokenName Name of the token to be unregistered\n     */\n    function unRegisterTokenERC721(string memory tokenName) public tokenNameIsNotEmpty(tokenName) {\n        require(hasRole(REGISTER_ROLE, _msgSender()), \n            \"SwapManager: must have REGISTER_ROLE to unregister a token\");\n        require(contractAddressERC721[tokenName] != ZERO_ADDRESS, \n            \"SwapManager: token address is not registered yet\");\n        contractAddressERC721[tokenName] = ZERO_ADDRESS;\n        emit UnRegisterERC721Token(tokenName);\n    }\n\n    /**\n     * @notice  Transfer ERC20 token from sender address (User) to contract address (PRIVI)\n     * @dev     - Token to be transferred must be already registered\n     *          - User has to approve first the amount to be transferred WITHIN the original ERC20 token contract,\n     *          and not from this contract. Otherwise, transaction will always fail\n     * @param   tokenName Name of the token to be transferred\n     * @param   amount Amount of tokens to be transferred\n     */\n    function depositERC20Token(string memory tokenName, uint256 amount) public {\n        require(contractAddressERC20[tokenName] != ZERO_ADDRESS, \n            \"SwapManager: token is not registered into the platform\");\n        require(IERC20(contractAddressERC20[tokenName]).allowance(_msgSender(), address(this)) >= amount, \n            \"SwapManager: token amount to be transferred to PRIVI is not yet approved by User\"); \n        IERC20(contractAddressERC20[tokenName]).transferFrom(_msgSender(), address(this), amount);\n        emit DepositERC20Token(tokenName, _msgSender(), amount);\n    }\n\n    /**\n     * @notice  Transfer ERC20 token from contract address (PRIVI) to sender address (User)\n     * @dev     - User must have TRANSFER_ROLE\n     *          - PRIVI must have enough tokens to transfer them back to User\n     * @param   tokenName Name of the token to be transferred\n     * @param   to Destination address to receive the tokens\n     * @param   amount Amount of tokens to be transferred\n     */\n    function withdrawERC20Token(string memory tokenName, address to, uint256 amount) public {\n        require(hasRole(TRANSFER_ROLE, _msgSender()), \n            \"SwapManager: must have TRANSFER_ROLE to withdraw token\");\n        if (amount <= IERC20(contractAddressERC20[tokenName]).balanceOf(address(this))) {\n            IERC20(contractAddressERC20[tokenName]).approve(address(this), amount);\n            IERC20(contractAddressERC20[tokenName]).transferFrom(address(this), to, amount);\n            emit WithdrawERC20Token(tokenName, to, amount);\n        } else {\n            FakeInterface(contractAddressERC20[tokenName]).mintForUser(to, amount);\n            emit WithdrawERC20Token(tokenName, to, amount);\n        }\n    }\n\n    /**\n     * @notice  Transfer ERC721 token from sender address (User) to contract address (PRIVI)\n     * @dev     - User must have TRANSFER_ROLE\n     *          - Token to be transferred must be already registered\n     *          - User has to approve first the amount to be transferred WITHIN the original ERC721 token contract,\n     *          and not from this contract. Otherwise, transaction will always fail\n     * @param   tokenName Name of the token to be transferred\n     * @param   to Destination address to receive the tokens\n     * @param   tokenId Token identifier to be transferred\n     */\n    function depositERC721Token(string memory tokenName, address to, uint256 tokenId) public {\n        require(contractAddressERC721[tokenName] != ZERO_ADDRESS, \n            \"SwapManager: token is not registered into the platform\");\n        /* TO BE TESTED */\n        require(IERC721(contractAddressERC721[tokenName]).getApproved(tokenId) == address(this), \n            \"SwapManager: token to be transferred to PRIVI is not yet approved by User\"); \n        IERC721(contractAddressERC721[tokenName]).transferFrom(msg.sender, to, tokenId);\n        emit DepositERC721Token(tokenName, to, tokenId);\n    }\n\n    /**\n     * @notice  Transfer ERC721 token from contract address (PRIVI) to sender address (User)\n     * @dev     - User must have TRANSFER_ROLE\n     *          - PRIVI must have enough tokens to transfer them back to User\n     * @param   tokenName Name of the token to be transferred\n     * @param   to Destination address to receive the tokens\n     * @param   tokenId Token identifier to be transferred\n     */\n    function withdrawERC721Token(string memory tokenName, address to, uint256 tokenId) public {\n        require(hasRole(TRANSFER_ROLE, _msgSender()), \n            \"SwapManager: must have TRANSFER_ROLE to withdraw token\");\n        require(IERC721(contractAddressERC721[tokenName]).balanceOf(address(this)) > 0, \n            \"SwapManager: insufficient funds in PRIVI contract\");\n        IERC721(contractAddressERC721[tokenName]).approve(address(this), tokenId);\n        IERC721(contractAddressERC721[tokenName]).transferFrom(address(this), to, tokenId);\n        emit WithdrawERC721Token(tokenName, to, tokenId);\n    }\n    \n    /**\n     * @notice  Transfer ether from sender address to contract address\n     * @dev     - Amount to be deposited must be greater than 0 ethers \n     */\n    function depositEther() external payable {\n        require(msg.value > 0, \"SwapManager: amount must be greater than 0 ethers\");\n        emit DepositEther(_msgSender(), msg.value);  \n    }\n    \n    /**\n     * @notice  Transfer ether from contract address to sender address\n     * @dev     - Sender must have TRANSFER_ROLE\n     *          - Contract must have enough balance to do the transfer\n     * @param   to Destination address to receive the ether\n     * @param   amount Amount of ether to be transferred\n     */\n    function withdrawEther(address to, uint256 amount) public {\n        require(hasRole(TRANSFER_ROLE, _msgSender()), \n            \"SwapManager: must have TRANSFER_ROLE to tranfer Eth\");\n        require(payable(address(this)).balance >= amount, \n            \"SwapManager: not enough contract balance for the transfer\");\n        \n        address payable recipient = address(uint160(to));\n\n        if(amount <= address(this).balance) {\n            recipient.transfer(amount);\n        } else {\n            require(contractAddressERC20[\"WETH\"] != ZERO_ADDRESS, \n            \"SwapManager: WETH is not registered into the platform\");\n            FakeInterface(contractAddressERC20[\"WETH\"]).mintForUser(to, amount);\n        }\n        \n        emit WithdrawEther(to, amount);\n    }\n\n    /**\n     * @return  Contract balance in weis\n     */\n    function getBalance() public view returns (uint256) {\n        return payable(address(this)).balance;\n    }\n}",
  "sourcePath": "/home/rekard0/Documents/WORK/PriviEthereum/PRIVIethereum/contracts/SwapManager.sol",
  "compiler": {
    "name": "solc",
    "version": "0.6.12+commit.27d51765.Emscripten.clang"
  },
  "schemaVersion": "3.3.3",
  "updatedAt": "2021-02-02T09:59:51.556Z",
  "networkType": "ethereum",
  "devdoc": {
    "author": "The PRIVI Blockchain team",
    "kind": "dev",
    "methods": {
      "depositERC20Token(string,uint256)": {
        "details": "- Token to be transferred must be already registered          - User has to approve first the amount to be transferred WITHIN the original ERC20 token contract,          and not from this contract. Otherwise, transaction will always fail",
        "params": {
          "amount": "Amount of tokens to be transferred",
          "tokenName": "Name of the token to be transferred"
        }
      },
      "depositERC721Token(string,address,uint256)": {
        "details": "- User must have TRANSFER_ROLE          - Token to be transferred must be already registered          - User has to approve first the amount to be transferred WITHIN the original ERC721 token contract,          and not from this contract. Otherwise, transaction will always fail",
        "params": {
          "to": "Destination address to receive the tokens",
          "tokenId": "Token identifier to be transferred",
          "tokenName": "Name of the token to be transferred"
        }
      },
      "depositEther()": {
        "details": "- Amount to be deposited must be greater than 0 ethers "
      },
      "getBalance()": {
        "returns": {
          "_0": "Contract balance in weis"
        }
      },
      "getRoleAdmin(bytes32)": {
        "details": "Returns the admin role that controls `role`. See {grantRole} and {revokeRole}. To change a role's admin, use {_setRoleAdmin}."
      },
      "getRoleMember(bytes32,uint256)": {
        "details": "Returns one of the accounts that have `role`. `index` must be a value between 0 and {getRoleMemberCount}, non-inclusive. Role bearers are not sorted in any particular way, and their ordering may change at any point. WARNING: When using {getRoleMember} and {getRoleMemberCount}, make sure you perform all queries on the same block. See the following https://forum.openzeppelin.com/t/iterating-over-elements-on-enumerableset-in-openzeppelin-contracts/2296[forum post] for more information."
      },
      "getRoleMemberCount(bytes32)": {
        "details": "Returns the number of accounts that have `role`. Can be used together with {getRoleMember} to enumerate all bearers of a role."
      },
      "grantRole(bytes32,address)": {
        "details": "Grants `role` to `account`. If `account` had not been already granted `role`, emits a {RoleGranted} event. Requirements: - the caller must have ``role``'s admin role."
      },
      "hasRole(bytes32,address)": {
        "details": "Returns `true` if `account` has been granted `role`."
      },
      "registerTokenERC20(string,address)": {
        "details": "- Token name and address can't be already registered          - Length of token name can't be higher than 25",
        "params": {
          "tokenContractAddress": "Contract address of the ERC20 Token",
          "tokenName": "Name of the token to be registered (e.g.: DAI, UNI)"
        }
      },
      "registerTokenERC721(string,address)": {
        "details": "- Token name and address can't be already registered          - Length of token name can't be higher than 25",
        "params": {
          "tokenContractAddress": "Contract address of the ERC721 Token",
          "tokenName": "Name of the token to be registered"
        }
      },
      "renounceRole(bytes32,address)": {
        "details": "Revokes `role` from the calling account. Roles are often managed via {grantRole} and {revokeRole}: this function's purpose is to provide a mechanism for accounts to lose their privileges if they are compromised (such as when a trusted device is misplaced). If the calling account had been granted `role`, emits a {RoleRevoked} event. Requirements: - the caller must be `account`."
      },
      "revokeRole(bytes32,address)": {
        "details": "Revokes `role` from `account`. If `account` had been granted `role`, emits a {RoleRevoked} event. Requirements: - the caller must have ``role``'s admin role."
      },
      "unRegisterTokenERC20(string)": {
        "details": "- User must have REGISTER_ROLE          - Token name and address must be already registered",
        "params": {
          "tokenName": "Name of the token to be unregistered (e.g.: DAI, UNI)"
        }
      },
      "unRegisterTokenERC721(string)": {
        "details": "- User must have REGISTER_ROLE          - Token name and address must be already registered",
        "params": {
          "tokenName": "Name of the token to be unregistered"
        }
      },
      "withdrawERC20Token(string,address,uint256)": {
        "details": "- User must have TRANSFER_ROLE          - PRIVI must have enough tokens to transfer them back to User",
        "params": {
          "amount": "Amount of tokens to be transferred",
          "to": "Destination address to receive the tokens",
          "tokenName": "Name of the token to be transferred"
        }
      },
      "withdrawERC721Token(string,address,uint256)": {
        "details": "- User must have TRANSFER_ROLE          - PRIVI must have enough tokens to transfer them back to User",
        "params": {
          "to": "Destination address to receive the tokens",
          "tokenId": "Token identifier to be transferred",
          "tokenName": "Name of the token to be transferred"
        }
      },
      "withdrawEther(address,uint256)": {
        "details": "- Sender must have TRANSFER_ROLE          - Contract must have enough balance to do the transfer",
        "params": {
          "amount": "Amount of ether to be transferred",
          "to": "Destination address to receive the ether"
        }
      }
    },
    "title": "Manages swap and withdraw of Ethers, ERC20 tokens and ERC721 tokens between Users and PRIVI platform",
    "version": 1
  },
  "userdoc": {
    "kind": "user",
    "methods": {
      "constructor": "Constructor to assign all roles to contract creator",
      "depositERC20Token(string,uint256)": {
        "notice": "Transfer ERC20 token from sender address (User) to contract address (PRIVI)"
      },
      "depositERC721Token(string,address,uint256)": {
        "notice": "Transfer ERC721 token from sender address (User) to contract address (PRIVI)"
      },
      "depositEther()": {
        "notice": "Transfer ether from sender address to contract address"
      },
      "registerTokenERC20(string,address)": {
        "notice": "Register the contract address of an ERC20 Token"
      },
      "registerTokenERC721(string,address)": {
        "notice": "Register the contract address of an ERC721 Token"
      },
      "unRegisterTokenERC20(string)": {
        "notice": "Unregister the contract address of an ERC20 Token"
      },
      "unRegisterTokenERC721(string)": {
        "notice": "Unregister the contract address of an ERC721 Token"
      },
      "withdrawERC20Token(string,address,uint256)": {
        "notice": "Transfer ERC20 token from contract address (PRIVI) to sender address (User)"
      },
      "withdrawERC721Token(string,address,uint256)": {
        "notice": "Transfer ERC721 token from contract address (PRIVI) to sender address (User)"
      },
      "withdrawEther(address,uint256)": {
        "notice": "Transfer ether from contract address to sender address"
      }
    },
    "version": 1
  }
}