{
  "contractName": "SwapManager",
  "abi": [
    {
      "inputs": [
        {
          "internalType": "address",
          "name": "bridgeDeployedAddress",
          "type": "address"
        },
        {
          "internalType": "address",
          "name": "erc20FactoryDeployedAddress",
          "type": "address"
        },
        {
          "internalType": "address",
          "name": "erc721FactoryDeployedAddress",
          "type": "address"
        },
        {
          "internalType": "address",
          "name": "erc1155FactoryDeployedAddress",
          "type": "address"
        },
        {
          "internalType": "address",
          "name": "erc721FactoryRoyaltyDeployedAddress",
          "type": "address"
        },
        {
          "internalType": "address",
          "name": "erc1155FactoryRoyaltyDeployedAddress",
          "type": "address"
        }
      ],
      "stateMutability": "nonpayable",
      "type": "constructor"
    },
    {
      "anonymous": false,
      "inputs": [
        {
          "indexed": true,
          "internalType": "string",
          "name": "tokenURI",
          "type": "string"
        },
        {
          "indexed": false,
          "internalType": "address",
          "name": "to",
          "type": "address"
        },
        {
          "indexed": false,
          "internalType": "uint256[]",
          "name": "tokenIds",
          "type": "uint256[]"
        },
        {
          "indexed": false,
          "internalType": "uint256[]",
          "name": "amounts",
          "type": "uint256[]"
        }
      ],
      "name": "BatchWithdrawERC1155Token",
      "type": "event"
    },
    {
      "anonymous": false,
      "inputs": [
        {
          "indexed": true,
          "internalType": "string",
          "name": "tokenURI",
          "type": "string"
        },
        {
          "indexed": false,
          "internalType": "address",
          "name": "to",
          "type": "address"
        },
        {
          "indexed": false,
          "internalType": "uint256",
          "name": "tokenId",
          "type": "uint256"
        },
        {
          "indexed": false,
          "internalType": "uint256",
          "name": "amount",
          "type": "uint256"
        }
      ],
      "name": "DepositERC1155Token",
      "type": "event"
    },
    {
      "anonymous": false,
      "inputs": [
        {
          "indexed": true,
          "internalType": "string",
          "name": "tokenSymbol",
          "type": "string"
        },
        {
          "indexed": false,
          "internalType": "address",
          "name": "from",
          "type": "address"
        },
        {
          "indexed": false,
          "internalType": "uint256",
          "name": "amount",
          "type": "uint256"
        }
      ],
      "name": "DepositERC20Token",
      "type": "event"
    },
    {
      "anonymous": false,
      "inputs": [
        {
          "indexed": true,
          "internalType": "string",
          "name": "tokenSymbol",
          "type": "string"
        },
        {
          "indexed": false,
          "internalType": "address",
          "name": "from",
          "type": "address"
        },
        {
          "indexed": false,
          "internalType": "uint256",
          "name": "tokenId",
          "type": "uint256"
        }
      ],
      "name": "DepositERC721Token",
      "type": "event"
    },
    {
      "anonymous": false,
      "inputs": [
        {
          "indexed": true,
          "internalType": "address",
          "name": "from",
          "type": "address"
        },
        {
          "indexed": false,
          "internalType": "uint256",
          "name": "amount",
          "type": "uint256"
        }
      ],
      "name": "DepositEther",
      "type": "event"
    },
    {
      "anonymous": false,
      "inputs": [
        {
          "indexed": true,
          "internalType": "bytes32",
          "name": "role",
          "type": "bytes32"
        },
        {
          "indexed": true,
          "internalType": "bytes32",
          "name": "previousAdminRole",
          "type": "bytes32"
        },
        {
          "indexed": true,
          "internalType": "bytes32",
          "name": "newAdminRole",
          "type": "bytes32"
        }
      ],
      "name": "RoleAdminChanged",
      "type": "event"
    },
    {
      "anonymous": false,
      "inputs": [
        {
          "indexed": true,
          "internalType": "bytes32",
          "name": "role",
          "type": "bytes32"
        },
        {
          "indexed": true,
          "internalType": "address",
          "name": "account",
          "type": "address"
        },
        {
          "indexed": true,
          "internalType": "address",
          "name": "sender",
          "type": "address"
        }
      ],
      "name": "RoleGranted",
      "type": "event"
    },
    {
      "anonymous": false,
      "inputs": [
        {
          "indexed": true,
          "internalType": "bytes32",
          "name": "role",
          "type": "bytes32"
        },
        {
          "indexed": true,
          "internalType": "address",
          "name": "account",
          "type": "address"
        },
        {
          "indexed": true,
          "internalType": "address",
          "name": "sender",
          "type": "address"
        }
      ],
      "name": "RoleRevoked",
      "type": "event"
    },
    {
      "anonymous": false,
      "inputs": [
        {
          "indexed": true,
          "internalType": "string",
          "name": "tokenURI",
          "type": "string"
        },
        {
          "indexed": false,
          "internalType": "address",
          "name": "to",
          "type": "address"
        },
        {
          "indexed": false,
          "internalType": "uint256",
          "name": "tokenId",
          "type": "uint256"
        },
        {
          "indexed": false,
          "internalType": "uint256",
          "name": "amount",
          "type": "uint256"
        }
      ],
      "name": "WithdrawERC1155Token",
      "type": "event"
    },
    {
      "anonymous": false,
      "inputs": [
        {
          "indexed": true,
          "internalType": "string",
          "name": "tokenSymbol",
          "type": "string"
        },
        {
          "indexed": false,
          "internalType": "address",
          "name": "to",
          "type": "address"
        },
        {
          "indexed": false,
          "internalType": "uint256",
          "name": "amount",
          "type": "uint256"
        }
      ],
      "name": "WithdrawERC20Token",
      "type": "event"
    },
    {
      "anonymous": false,
      "inputs": [
        {
          "indexed": true,
          "internalType": "string",
          "name": "tokenSymbol",
          "type": "string"
        },
        {
          "indexed": false,
          "internalType": "address",
          "name": "to",
          "type": "address"
        },
        {
          "indexed": false,
          "internalType": "uint256",
          "name": "tokenId",
          "type": "uint256"
        }
      ],
      "name": "WithdrawERC721Token",
      "type": "event"
    },
    {
      "anonymous": false,
      "inputs": [
        {
          "indexed": true,
          "internalType": "address",
          "name": "to",
          "type": "address"
        },
        {
          "indexed": false,
          "internalType": "uint256",
          "name": "amount",
          "type": "uint256"
        }
      ],
      "name": "WithdrawEther",
      "type": "event"
    },
    {
      "inputs": [],
      "name": "DEFAULT_ADMIN_ROLE",
      "outputs": [
        {
          "internalType": "bytes32",
          "name": "",
          "type": "bytes32"
        }
      ],
      "stateMutability": "view",
      "type": "function"
    },
    {
      "inputs": [],
      "name": "TRANSFER_ROLE",
      "outputs": [
        {
          "internalType": "bytes32",
          "name": "",
          "type": "bytes32"
        }
      ],
      "stateMutability": "view",
      "type": "function"
    },
    {
      "inputs": [],
      "name": "bridgeManagerAddress",
      "outputs": [
        {
          "internalType": "address",
          "name": "",
          "type": "address"
        }
      ],
      "stateMutability": "view",
      "type": "function"
    },
    {
      "inputs": [],
      "name": "erc1155FactoryAddress",
      "outputs": [
        {
          "internalType": "address",
          "name": "",
          "type": "address"
        }
      ],
      "stateMutability": "view",
      "type": "function"
    },
    {
      "inputs": [],
      "name": "erc1155RoyaltyFactoryAddress",
      "outputs": [
        {
          "internalType": "address",
          "name": "",
          "type": "address"
        }
      ],
      "stateMutability": "view",
      "type": "function"
    },
    {
      "inputs": [],
      "name": "erc20FactoryAddress",
      "outputs": [
        {
          "internalType": "address",
          "name": "",
          "type": "address"
        }
      ],
      "stateMutability": "view",
      "type": "function"
    },
    {
      "inputs": [],
      "name": "erc721FactoryAddress",
      "outputs": [
        {
          "internalType": "address",
          "name": "",
          "type": "address"
        }
      ],
      "stateMutability": "view",
      "type": "function"
    },
    {
      "inputs": [],
      "name": "erc721RoyaltyFactoryAddress",
      "outputs": [
        {
          "internalType": "address",
          "name": "",
          "type": "address"
        }
      ],
      "stateMutability": "view",
      "type": "function"
    },
    {
      "inputs": [
        {
          "internalType": "bytes32",
          "name": "role",
          "type": "bytes32"
        }
      ],
      "name": "getRoleAdmin",
      "outputs": [
        {
          "internalType": "bytes32",
          "name": "",
          "type": "bytes32"
        }
      ],
      "stateMutability": "view",
      "type": "function"
    },
    {
      "inputs": [
        {
          "internalType": "bytes32",
          "name": "role",
          "type": "bytes32"
        },
        {
          "internalType": "address",
          "name": "account",
          "type": "address"
        }
      ],
      "name": "grantRole",
      "outputs": [],
      "stateMutability": "nonpayable",
      "type": "function"
    },
    {
      "inputs": [
        {
          "internalType": "bytes32",
          "name": "role",
          "type": "bytes32"
        },
        {
          "internalType": "address",
          "name": "account",
          "type": "address"
        }
      ],
      "name": "hasRole",
      "outputs": [
        {
          "internalType": "bool",
          "name": "",
          "type": "bool"
        }
      ],
      "stateMutability": "view",
      "type": "function"
    },
    {
      "inputs": [
        {
          "internalType": "bytes32",
          "name": "role",
          "type": "bytes32"
        },
        {
          "internalType": "address",
          "name": "account",
          "type": "address"
        }
      ],
      "name": "renounceRole",
      "outputs": [],
      "stateMutability": "nonpayable",
      "type": "function"
    },
    {
      "inputs": [
        {
          "internalType": "bytes32",
          "name": "role",
          "type": "bytes32"
        },
        {
          "internalType": "address",
          "name": "account",
          "type": "address"
        }
      ],
      "name": "revokeRole",
      "outputs": [],
      "stateMutability": "nonpayable",
      "type": "function"
    },
    {
      "inputs": [
        {
          "internalType": "bytes4",
          "name": "interfaceId",
          "type": "bytes4"
        }
      ],
      "name": "supportsInterface",
      "outputs": [
        {
          "internalType": "bool",
          "name": "",
          "type": "bool"
        }
      ],
      "stateMutability": "view",
      "type": "function"
    },
    {
      "inputs": [
        {
          "internalType": "string",
          "name": "tokenSymbol",
          "type": "string"
        },
        {
          "internalType": "uint256",
          "name": "amount",
          "type": "uint256"
        }
      ],
      "name": "depositERC20Token",
      "outputs": [],
      "stateMutability": "nonpayable",
      "type": "function"
    },
    {
      "inputs": [
        {
          "internalType": "string",
          "name": "tokenSymbol",
          "type": "string"
        },
        {
          "internalType": "address",
          "name": "to",
          "type": "address"
        },
        {
          "internalType": "uint256",
          "name": "amount",
          "type": "uint256"
        }
      ],
      "name": "withdrawERC20Token",
      "outputs": [],
      "stateMutability": "nonpayable",
      "type": "function"
    },
    {
      "inputs": [
        {
          "internalType": "string",
          "name": "tokenSymbol",
          "type": "string"
        },
        {
          "internalType": "uint256",
          "name": "tokenId",
          "type": "uint256"
        }
      ],
      "name": "depositERC721Token",
      "outputs": [],
      "stateMutability": "nonpayable",
      "type": "function"
    },
    {
      "inputs": [
        {
          "internalType": "string",
          "name": "tokenSymbol",
          "type": "string"
        },
        {
          "internalType": "address",
          "name": "to",
          "type": "address"
        },
        {
          "internalType": "uint256",
          "name": "tokenId",
          "type": "uint256"
        },
        {
          "internalType": "bool",
          "name": "isPodMint",
          "type": "bool"
        },
        {
          "internalType": "bool",
          "name": "isRoyalty",
          "type": "bool"
        }
      ],
      "name": "withdrawERC721Token",
      "outputs": [],
      "stateMutability": "nonpayable",
      "type": "function"
    },
    {
      "inputs": [
        {
          "internalType": "string",
          "name": "tokenURI",
          "type": "string"
        },
        {
          "internalType": "address",
          "name": "to",
          "type": "address"
        },
        {
          "internalType": "uint256",
          "name": "tokenId",
          "type": "uint256"
        },
        {
          "internalType": "uint256",
          "name": "amount",
          "type": "uint256"
        },
        {
          "internalType": "bytes",
          "name": "data",
          "type": "bytes"
        }
      ],
      "name": "depositERC1155Token",
      "outputs": [],
      "stateMutability": "nonpayable",
      "type": "function"
    },
    {
      "inputs": [
        {
          "internalType": "string",
          "name": "tokenURI",
          "type": "string"
        },
        {
          "internalType": "address",
          "name": "to",
          "type": "address"
        },
        {
          "internalType": "uint256",
          "name": "tokenId",
          "type": "uint256"
        },
        {
          "internalType": "uint256",
          "name": "amount",
          "type": "uint256"
        },
        {
          "internalType": "bytes",
          "name": "data",
          "type": "bytes"
        },
        {
          "internalType": "bool",
          "name": "isPodMint",
          "type": "bool"
        },
        {
          "internalType": "bool",
          "name": "isRoyalty",
          "type": "bool"
        }
      ],
      "name": "withdrawERC1155Token",
      "outputs": [],
      "stateMutability": "nonpayable",
      "type": "function"
    },
    {
      "inputs": [
        {
          "internalType": "string",
          "name": "tokenURI",
          "type": "string"
        },
        {
          "internalType": "address",
          "name": "to",
          "type": "address"
        },
        {
          "internalType": "uint256[]",
          "name": "tokenIds",
          "type": "uint256[]"
        },
        {
          "internalType": "uint256[]",
          "name": "amounts",
          "type": "uint256[]"
        },
        {
          "internalType": "bytes",
          "name": "data",
          "type": "bytes"
        },
        {
          "internalType": "bool",
          "name": "isPodMint",
          "type": "bool"
        }
      ],
      "name": "batchWithdrawERC1155Token",
      "outputs": [],
      "stateMutability": "nonpayable",
      "type": "function"
    },
    {
      "inputs": [],
      "name": "depositEther",
      "outputs": [],
      "stateMutability": "payable",
      "type": "function"
    },
    {
      "inputs": [
        {
          "internalType": "address",
          "name": "to",
          "type": "address"
        },
        {
          "internalType": "uint256",
          "name": "amount",
          "type": "uint256"
        }
      ],
      "name": "withdrawEther",
      "outputs": [],
      "stateMutability": "nonpayable",
      "type": "function"
    },
    {
      "inputs": [],
      "name": "getBalance",
      "outputs": [
        {
          "internalType": "uint256",
          "name": "",
          "type": "uint256"
        }
      ],
      "stateMutability": "view",
      "type": "function"
    }
  ],
  "bytecode": "0x6080604052600180546001600160a01b03191690553480156200002157600080fd5b50604051620034d3380380620034d38339810160408190526200004491620001e0565b6200005a600062000054620000fc565b62000100565b620000897f8502233096d909befbda0999bb8ea2f3a6be3c138b9fbf003752a4c8bce86f6c62000054620000fc565b600280546001600160a01b03199081166001600160a01b039889161790915560038054821696881696909617909555600480548616948716949094179093556005805485169286169290921790915560068054841691851691909117905560078054909216921691909117905562000260565b3390565b6200010c828262000110565b5050565b6200011c82826200019a565b6200010c576000828152602081815260408083206001600160a01b03851684529091529020805460ff1916600117905562000156620000fc565b6001600160a01b0316816001600160a01b0316837f2f8788117e7eff1d82e926ec794901d17c78024a50270940304540a733656f0d60405160405180910390a45050565b6000918252602082815260408084206001600160a01b0393909316845291905290205460ff1690565b80516001600160a01b0381168114620001db57600080fd5b919050565b60008060008060008060c08789031215620001f9578182fd5b6200020487620001c3565b95506200021460208801620001c3565b94506200022460408801620001c3565b93506200023460608801620001c3565b92506200024460808801620001c3565b91506200025460a08801620001c3565b90509295509295509295565b61326380620002706000396000f3fe60806040526004361061018b5760003560e01c80637de2c626116100d6578063a217fddf1161007f578063d406e10311610059578063d406e103146103f2578063d547741f14610412578063e792b194146104325761018b565b8063a217fddf146103a8578063c768b17c146103bd578063d1af27c4146103d25761018b565b806391d14854116100b057806391d148541461036057806398ea5fca146103805780639ad5ee93146103885761018b565b80637de2c6261461030b5780637f748ec51461032b5780638627b03c1461034b5761018b565b80632dc067091161013857806336568abe1161011257806336568abe146102ab578063412991cb146102cb578063522f6815146102eb5761018b565b80632dc06709146102615780632f1d4671146102765780632f2ff15d1461028b5761018b565b806312065fe01161016957806312065fe01461020a578063206b60f91461022c578063248a9ca3146102415761018b565b806301ffc9a714610190578063032b8b87146101c65780630ec4dd5b146101e8575b600080fd5b34801561019c57600080fd5b506101b06101ab366004612341565b610447565b6040516101bd91906128e7565b60405180910390f35b3480156101d257600080fd5b506101db610474565b6040516101bd919061277c565b3480156101f457600080fd5b50610208610203366004612496565b610483565b005b34801561021657600080fd5b5061021f6109b8565b6040516101bd91906128f2565b34801561023857600080fd5b5061021f6109bd565b34801561024d57600080fd5b5061021f61025c3660046122fa565b6109e1565b34801561026d57600080fd5b506101db6109f6565b34801561028257600080fd5b506101db610a05565b34801561029757600080fd5b506102086102a6366004612312565b610a14565b3480156102b757600080fd5b506102086102c6366004612312565b610a52565b3480156102d757600080fd5b506102086102e636600461265b565b610a94565b3480156102f757600080fd5b506102086103063660046122b3565b610cb8565b34801561031757600080fd5b5061020861032636600461265b565b610ec2565b34801561033757600080fd5b50610208610346366004612369565b6110e9565b34801561035757600080fd5b506101db611402565b34801561036c57600080fd5b506101b061037b366004612312565b611411565b61020861143a565b34801561039457600080fd5b506102086103a33660046125a6565b6114a4565b3480156103b457600080fd5b5061021f6119d8565b3480156103c957600080fd5b506101db6119dd565b3480156103de57600080fd5b506102086103ed36600461243b565b6119ec565b3480156103fe57600080fd5b5061020861040d366004612519565b611dd0565b34801561041e57600080fd5b5061020861042d366004612312565b611fea565b34801561043e57600080fd5b506101db612012565b60006001600160e01b03198216637965db0b60e01b148061046c575061046c82612021565b90505b919050565b6006546001600160a01b031681565b60025460405163122acfb560e31b81526001600160a01b039091169060009082906391567da8906104ba908b908b906004016128fb565b60206040518083038186803b1580156104d257600080fd5b505afa1580156104e6573d6000803e3d6000fd5b505050506040513d601f19601f8201168201806040525081019061050a9190612290565b90506105387f8502233096d909befbda0999bb8ea2f3a6be3c138b9fbf003752a4c8bce86f6c61037b61203a565b61055d5760405162461bcd60e51b8152600401610554906130b0565b60405180910390fd5b6001841515141561085157600183151514156106e357600154600654604051630cc9693960e21b81526001600160a01b039283169290911690633325a4e4906105ac908c908c906004016128fb565b60206040518083038186803b1580156105c457600080fd5b505afa1580156105d8573d6000803e3d6000fd5b505050506040513d601f19601f820116820180604052508101906105fc9190612290565b6001600160a01b0316146106c6576006546040516306ce0c0960e11b81526001600160a01b0390911690630d9c18129061063e908b908b908b90600401612917565b600060405180830381600087803b15801561065857600080fd5b505af115801561066c573d6000803e3d6000fd5b50505050878760405161068092919061276c565b60405180910390207fd28833d48ffa5c3f0ea93c47adcb7e8015c714a9c0ddf007d4e523851b98367e87876040516106b99291906128ad565b60405180910390a26106de565b60405162461bcd60e51b815260040161055490612dde565b61084c565b60015460048054604051630cc9693960e21b81526001600160a01b039384169390911691633325a4e49161071b918d918d91016128fb565b60206040518083038186803b15801561073357600080fd5b505afa158015610747573d6000803e3d6000fd5b505050506040513d601f19601f8201168201806040525081019061076b9190612290565b6001600160a01b03161461083457600480546040516306ce0c0960e11b81526001600160a01b0390911691630d9c1812916107ac918c918c918c9101612917565b600060405180830381600087803b1580156107c657600080fd5b505af11580156107da573d6000803e3d6000fd5b5050505087876040516107ee92919061276c565b60405180910390207fd28833d48ffa5c3f0ea93c47adcb7e8015c714a9c0ddf007d4e523851b98367e87876040516108279291906128ad565b60405180910390a261084c565b60405162461bcd60e51b815260040161055490612af7565b6109ae565b6040516331a9108f60e11b815230906001600160a01b03831690636352211e9061087f9089906004016128f2565b60206040518083038186803b15801561089757600080fd5b505afa1580156108ab573d6000803e3d6000fd5b505050506040513d601f19601f820116820180604052508101906108cf9190612290565b6001600160a01b03161415610996576040516323b872dd60e01b81526001600160a01b038216906323b872dd9061090e9030908a908a90600401612808565b600060405180830381600087803b15801561092857600080fd5b505af115801561093c573d6000803e3d6000fd5b50505050878760405161095092919061276c565b60405180910390207fd28833d48ffa5c3f0ea93c47adcb7e8015c714a9c0ddf007d4e523851b98367e87876040516109899291906128ad565b60405180910390a26109ae565b60405162461bcd60e51b815260040161055490612a9a565b5050505050505050565b303190565b7f8502233096d909befbda0999bb8ea2f3a6be3c138b9fbf003752a4c8bce86f6c81565b60009081526020819052604090206001015490565b6004546001600160a01b031681565b6005546001600160a01b031681565b610a28610a20836109e1565b61037b61203a565b610a445760405162461bcd60e51b815260040161055490612a1f565b610a4e828261203e565b5050565b610a5a61203a565b6001600160a01b0316816001600160a01b031614610a8a5760405162461bcd60e51b81526004016105549061316a565b610a4e82826120c3565b60025460405163122acfb560e31b81526001600160a01b039091169060009082906391567da890610acb90889088906004016128fb565b60206040518083038186803b158015610ae357600080fd5b505afa158015610af7573d6000803e3d6000fd5b505050506040513d601f19601f82011682018060405250810190610b1b9190612290565b6001549091506001600160a01b0380831691161415610b4c5760405162461bcd60e51b815260040161055490612bb1565b60405163020604bf60e21b815230906001600160a01b0383169063081812fc90610b7a9087906004016128f2565b60206040518083038186803b158015610b9257600080fd5b505afa158015610ba6573d6000803e3d6000fd5b505050506040513d601f19601f82011682018060405250810190610bca9190612290565b6001600160a01b031614610bf05760405162461bcd60e51b815260040161055490612d6f565b806001600160a01b03166323b872dd610c0761203a565b30866040518463ffffffff1660e01b8152600401610c2793929190612808565b600060405180830381600087803b158015610c4157600080fd5b505af1158015610c55573d6000803e3d6000fd5b505050508484604051610c6992919061276c565b60405180910390207ff0218d2f738513bea289b1b8ca83d8241a1060f13280602f9b7ff8e3598d4c83610c9a61203a565b85604051610ca99291906128ad565b60405180910390a25050505050565b610ce47f8502233096d909befbda0999bb8ea2f3a6be3c138b9fbf003752a4c8bce86f6c61037b61203a565b610d005760405162461bcd60e51b815260040161055490612d12565b3031811115610d215760405162461bcd60e51b815260040161055490612cb5565b81478211610d65576040516001600160a01b0382169083156108fc029084906000818181858888f19350505050158015610d5f573d6000803e3d6000fd5b50610e7c565b6002546040516308521f5d60e11b81526001600160a01b039091169060009082906310a43eba90610d9890600401612a7c565b60206040518083038186803b158015610db057600080fd5b505afa158015610dc4573d6000803e3d6000fd5b505050506040513d601f19601f82011682018060405250810190610de89190612290565b6001549091506001600160a01b0380831691161415610e195760405162461bcd60e51b815260040161055490612b54565b60405163d0dbc83360e01b81526001600160a01b0382169063d0dbc83390610e4790889088906004016128ad565b600060405180830381600087803b158015610e6157600080fd5b505af1158015610e75573d6000803e3d6000fd5b5050505050505b826001600160a01b03167fdb35132c111efe920cede025e819975671cfd1b8fcc1174762c8670c4e94c21183604051610eb591906128f2565b60405180910390a2505050565b6002546040516308521f5d60e11b81526001600160a01b039091169060009082906310a43eba90610ef990889088906004016128fb565b60206040518083038186803b158015610f1157600080fd5b505afa158015610f25573d6000803e3d6000fd5b505050506040513d601f19601f82011682018060405250810190610f499190612290565b6001549091506001600160a01b0380831691161415610f7a5760405162461bcd60e51b815260040161055490612bb1565b82816001600160a01b031663dd62ed3e610f9261203a565b306040518363ffffffff1660e01b8152600401610fb0929190612790565b60206040518083038186803b158015610fc857600080fd5b505afa158015610fdc573d6000803e3d6000fd5b505050506040513d601f19601f8201168201806040525081019061100091906126a5565b101561101e5760405162461bcd60e51b815260040161055490612ecc565b806001600160a01b03166323b872dd61103561203a565b30866040518463ffffffff1660e01b815260040161105593929190612808565b602060405180830381600087803b15801561106f57600080fd5b505af1158015611083573d6000803e3d6000fd5b505050506040513d601f19601f820116820180604052508101906110a791906122de565b5084846040516110b892919061276c565b60405180910390207f91ed334b741c7cbbae982dad9ca693e9d47b9a50db6fd5f346755f5bca14dfdd610c9a61203a565b6002546040516309ba36bf60e31b81526001600160a01b03909116906000908290634dd1b5f890611120908c908c906004016128fb565b60206040518083038186803b15801561113857600080fd5b505afa15801561114c573d6000803e3d6000fd5b505050506040513d601f19601f820116820180604052508101906111709190612290565b905061119e7f8502233096d909befbda0999bb8ea2f3a6be3c138b9fbf003752a4c8bce86f6c61037b61203a565b6111ba5760405162461bcd60e51b8152600401610554906130b0565b6001831515141561133d57600154600554604051637d2c9af760e11b81526001600160a01b03928316929091169063fa5935ee906111fe908d908d906004016128fb565b60206040518083038186803b15801561121657600080fd5b505afa15801561122a573d6000803e3d6000fd5b505050506040513d601f19601f8201168201806040525081019061124e9190612290565b6001600160a01b03161461132057600554604051638dcab0f960e01b81526001600160a01b0390911690638dcab0f990611296908c908c908c908c908c908c90600401612944565b600060405180830381600087803b1580156112b057600080fd5b505af11580156112c4573d6000803e3d6000fd5b5050505088886040516112d892919061276c565b60405180910390207f03606c85c375332da8a71abb0ad8be85cbac18693d349dd5169e69ced38f44838888886040516113139392919061286f565b60405180910390a2611338565b60405162461bcd60e51b815260040161055490612e85565b6113f7565b604051631759616b60e11b81526001600160a01b03821690632eb2c2d6906113719030908b908b908b908b906004016127aa565b600060405180830381600087803b15801561138b57600080fd5b505af115801561139f573d6000803e3d6000fd5b5050505088886040516113b392919061276c565b60405180910390207f03606c85c375332da8a71abb0ad8be85cbac18693d349dd5169e69ced38f44838888886040516113ee9392919061286f565b60405180910390a25b505050505050505050565b6007546001600160a01b031681565b6000918252602082815260408084206001600160a01b0393909316845291905290205460ff1690565b6000341161145a5760405162461bcd60e51b815260040161055490612f4f565b61146261203a565b6001600160a01b03167fe628a607143b255f52afd0900e0d9630dd009c2f2635cd1e28c7aeeeff9408023460405161149a91906128f2565b60405180910390a2565b6002546040516309ba36bf60e31b81526001600160a01b03909116906000908290634dd1b5f8906114db908d908d906004016128fb565b60206040518083038186803b1580156114f357600080fd5b505afa158015611507573d6000803e3d6000fd5b505050506040513d601f19601f8201168201806040525081019061152b9190612290565b90506115597f8502233096d909befbda0999bb8ea2f3a6be3c138b9fbf003752a4c8bce86f6c61037b61203a565b6115755760405162461bcd60e51b8152600401610554906130b0565b600184151514156118765782156116fe57600154600554604051637d2c9af760e11b81526001600160a01b03928316929091169063fa5935ee906115bf908e908e906004016128fb565b60206040518083038186803b1580156115d757600080fd5b505afa1580156115eb573d6000803e3d6000fd5b505050506040513d601f19601f8201168201806040525081019061160f9190612290565b6001600160a01b0316146116e15760055460405163c9f4ef0160e01b81526001600160a01b039091169063c9f4ef0190611657908d908d908d908d908d908d906004016129de565b600060405180830381600087803b15801561167157600080fd5b505af1158015611685573d6000803e3d6000fd5b50505050898960405161169992919061276c565b60405180910390207fab8a6099aa0324935264b44e69aafeb656755f4dd4113be720a27f4e45128f9a8989896040516116d4939291906128c6565b60405180910390a26116f9565b60405162461bcd60e51b81526004016105549061310d565b611871565b600154600554604051637d2c9af760e11b81526001600160a01b03928316929091169063fa5935ee90611737908e908e906004016128fb565b60206040518083038186803b15801561174f57600080fd5b505afa158015611763573d6000803e3d6000fd5b505050506040513d601f19601f820116820180604052508101906117879190612290565b6001600160a01b0316146118595760055460405163c9f4ef0160e01b81526001600160a01b039091169063c9f4ef01906117cf908d908d908d908d908d908d906004016129de565b600060405180830381600087803b1580156117e957600080fd5b505af11580156117fd573d6000803e3d6000fd5b50505050898960405161181192919061276c565b60405180910390207fab8a6099aa0324935264b44e69aafeb656755f4dd4113be720a27f4e45128f9a89898960405161184c939291906128c6565b60405180910390a2611871565b60405162461bcd60e51b815260040161055490613053565b6119cc565b604051627eeac760e11b815286906001600160a01b0383169062fdd58e906118a49030908c906004016128ad565b60206040518083038186803b1580156118bc57600080fd5b505afa1580156118d0573d6000803e3d6000fd5b505050506040513d601f19601f820116820180604052508101906118f491906126a5565b10156119125760405162461bcd60e51b815260040161055490612ff6565b604051637921219560e11b81526001600160a01b0382169063f242432a906119469030908c908c908c908c9060040161282c565b600060405180830381600087803b15801561196057600080fd5b505af1158015611974573d6000803e3d6000fd5b50505050898960405161198892919061276c565b60405180910390207fab8a6099aa0324935264b44e69aafeb656755f4dd4113be720a27f4e45128f9a8989896040516119c3939291906128c6565b60405180910390a25b50505050505050505050565b600081565b6003546001600160a01b031681565b60008111611a0c5760405162461bcd60e51b815260040161055490612fac565b6002546040516308521f5d60e11b81526001600160a01b039091169060009082906310a43eba90611a4390899089906004016128fb565b60206040518083038186803b158015611a5b57600080fd5b505afa158015611a6f573d6000803e3d6000fd5b505050506040513d601f19601f82011682018060405250810190611a939190612290565b9050611ac17f8502233096d909befbda0999bb8ea2f3a6be3c138b9fbf003752a4c8bce86f6c61037b61203a565b611add5760405162461bcd60e51b8152600401610554906130b0565b6040516370a0823160e01b81526001600160a01b038216906370a0823190611b0990309060040161277c565b60206040518083038186803b158015611b2157600080fd5b505afa158015611b35573d6000803e3d6000fd5b505050506040513d601f19601f82011682018060405250810190611b5991906126a5565b8311611cb95760405163095ea7b360e01b81526001600160a01b0382169063095ea7b390611b8d90309087906004016128ad565b602060405180830381600087803b158015611ba757600080fd5b505af1158015611bbb573d6000803e3d6000fd5b505050506040513d601f19601f82011682018060405250810190611bdf91906122de565b506040516323b872dd60e01b81526001600160a01b038216906323b872dd90611c1090309088908890600401612808565b602060405180830381600087803b158015611c2a57600080fd5b505af1158015611c3e573d6000803e3d6000fd5b505050506040513d601f19601f82011682018060405250810190611c6291906122de565b508585604051611c7392919061276c565b60405180910390207f226bfaa503fda889c5dbfb29ffa193ceac9a4b461e47f68b3b14c438ec7f8b678585604051611cac9291906128ad565b60405180910390a2611dc8565b600154600354604051630cc9693960e21b81526001600160a01b039283169290911690633325a4e490611cf2908a908a906004016128fb565b60206040518083038186803b158015611d0a57600080fd5b505afa158015611d1e573d6000803e3d6000fd5b505050506040513d601f19601f82011682018060405250810190611d429190612290565b6001600160a01b031614611320576003546040516358bb6a5d60e11b81526001600160a01b039091169063b176d4ba90611d869089908990899089906004016129ae565b600060405180830381600087803b158015611da057600080fd5b505af1158015611db4573d6000803e3d6000fd5b505050508585604051611c7392919061276c565b505050505050565b6002546040516309ba36bf60e31b81526001600160a01b03909116906000908290634dd1b5f890611e07908b908b906004016128fb565b60206040518083038186803b158015611e1f57600080fd5b505afa158015611e33573d6000803e3d6000fd5b505050506040513d601f19601f82011682018060405250810190611e579190612290565b6001549091506001600160a01b0380831691161415611e885760405162461bcd60e51b815260040161055490612e28565b60405163e985e9c560e01b81526001600160a01b0382169063e985e9c590611eb69033903090600401612790565b60206040518083038186803b158015611ece57600080fd5b505afa158015611ee2573d6000803e3d6000fd5b505050506040513d601f19601f82011682018060405250810190611f0691906122de565b1515600114611f275760405162461bcd60e51b815260040161055490612c0e565b604051637921219560e11b81526001600160a01b0382169063f242432a90611f5b9033908a908a908a908a9060040161282c565b600060405180830381600087803b158015611f7557600080fd5b505af1158015611f89573d6000803e3d6000fd5b505050508787604051611f9d92919061276c565b60405180910390207f30e725d42f865939c1f9052f420a2039b3b3ea182d64853dc9e3f12fa1cf5061878787604051611fd8939291906128c6565b60405180910390a25050505050505050565b611ff6610a20836109e1565b610a8a5760405162461bcd60e51b815260040161055490612c58565b6002546001600160a01b031681565b6001600160e01b031981166301ffc9a760e01b14919050565b3390565b6120488282611411565b610a4e576000828152602081815260408083206001600160a01b03851684529091529020805460ff1916600117905561207f61203a565b6001600160a01b0316816001600160a01b0316837f2f8788117e7eff1d82e926ec794901d17c78024a50270940304540a733656f0d60405160405180910390a45050565b6120cd8282611411565b15610a4e576000828152602081815260408083206001600160a01b03851684529091529020805460ff1916905561210261203a565b6001600160a01b0316816001600160a01b0316837ff6391f5c32d9c69d2a47ea670b442974b53935d1edc7fd64eb21e047a839171b60405160405180910390a45050565b803561046f81613207565b600082601f830112612161578081fd5b8135602067ffffffffffffffff82111561217d5761217d6131f1565b80820261218b8282016131c7565b8381528281019086840183880185018910156121a5578687fd5b8693505b858410156121c75780358352600193909301929184019184016121a9565b50979650505050505050565b803561046f8161321f565b600082601f8301126121ee578081fd5b813567ffffffffffffffff811115612208576122086131f1565b61221b601f8201601f19166020016131c7565b81815284602083860101111561222f578283fd5b816020850160208301379081016020019190915292915050565b60008083601f84011261225a578182fd5b50813567ffffffffffffffff811115612271578182fd5b60208301915083602082850101111561228957600080fd5b9250929050565b6000602082840312156122a1578081fd5b81516122ac81613207565b9392505050565b600080604083850312156122c5578081fd5b82356122d081613207565b946020939093013593505050565b6000602082840312156122ef578081fd5b81516122ac8161321f565b60006020828403121561230b578081fd5b5035919050565b60008060408385031215612324578182fd5b82359150602083013561233681613207565b809150509250929050565b600060208284031215612352578081fd5b81356001600160e01b0319811681146122ac578182fd5b600080600080600080600060c0888a031215612383578283fd5b873567ffffffffffffffff8082111561239a578485fd5b6123a68b838c01612249565b90995097508791506123ba60208b01612146565b965060408a01359150808211156123cf578485fd5b6123db8b838c01612151565b955060608a01359150808211156123f0578485fd5b6123fc8b838c01612151565b945060808a0135915080821115612411578384fd5b5061241e8a828b016121de565b92505061242d60a089016121d3565b905092959891949750929550565b60008060008060608587031215612450578384fd5b843567ffffffffffffffff811115612466578485fd5b61247287828801612249565b909550935050602085013561248681613207565b9396929550929360400135925050565b60008060008060008060a087890312156124ae578182fd5b863567ffffffffffffffff8111156124c4578283fd5b6124d089828a01612249565b90975095505060208701356124e481613207565b93506040870135925060608701356124fb8161321f565b9150608087013561250b8161321f565b809150509295509295509295565b60008060008060008060a08789031215612531578384fd5b863567ffffffffffffffff80821115612548578586fd5b6125548a838b01612249565b90985096506020890135915061256982613207565b90945060408801359350606088013592506080880135908082111561258c578283fd5b5061259989828a016121de565b9150509295509295509295565b60008060008060008060008060e0898b0312156125c1578182fd5b883567ffffffffffffffff808211156125d8578384fd5b6125e48c838d01612249565b909a50985060208b013591506125f982613207565b90965060408a0135955060608a0135945060808a0135908082111561261c578384fd5b506126298b828c016121de565b93505060a089013561263a8161321f565b915060c089013561264a8161321f565b809150509295985092959890939650565b60008060006040848603121561266f578081fd5b833567ffffffffffffffff811115612685578182fd5b61269186828701612249565b909790965060209590950135949350505050565b6000602082840312156126b6578081fd5b5051919050565b6000815180845260208085019450808401835b838110156126ec578151875295820195908201906001016126d0565b509495945050505050565b60008151808452815b8181101561271c57602081850181015186830182015201612700565b8181111561272d5782602083870101525b50601f01601f19169290920160200192915050565b60008284528282602086013780602084860101526020601f19601f85011685010190509392505050565b6000828483379101908152919050565b6001600160a01b0391909116815260200190565b6001600160a01b0392831681529116602082015260400190565b60006001600160a01b03808816835280871660208401525060a060408301526127d660a08301866126bd565b82810360608401526127e881866126bd565b905082810360808401526127fc81856126f7565b98975050505050505050565b6001600160a01b039384168152919092166020820152604081019190915260600190565b60006001600160a01b03808816835280871660208401525084604083015283606083015260a0608083015261286460a08301846126f7565b979650505050505050565b60006001600160a01b03851682526060602083015261289160608301856126bd565b82810360408401526128a381856126bd565b9695505050505050565b6001600160a01b03929092168252602082015260400190565b6001600160a01b039390931683526020830191909152604082015260600190565b901515815260200190565b90815260200190565b60006020825261290f602083018486612742565b949350505050565b60006040825261292b604083018587612742565b90506001600160a01b0383166020830152949350505050565b600060a0825261295860a08301888a612742565b6001600160a01b0387166020840152828103604084015261297981876126bd565b9050828103606084015261298d81866126bd565b905082810360808401526129a181856126f7565b9998505050505050505050565b6000606082526129c2606083018688612742565b6001600160a01b03949094166020830152506040015292915050565b600060a082526129f260a08301888a612742565b6001600160a01b038716602084015285604084015284606084015282810360808401526129a181856126f7565b6020808252602f908201527f416363657373436f6e74726f6c3a2073656e646572206d75737420626520616e60408201527f2061646d696e20746f206772616e740000000000000000000000000000000000606082015260800190565b6020808252600490820152630ae8aa8960e31b604082015260600190565b6020808252602f908201527f537761704d616e616765723a2063616e6e6f74207769746864726177206e6f6e60408201527f207374616e6461726420746f6b656e0000000000000000000000000000000000606082015260800190565b6020808252602e908201527f537761704d616e616765723a2063616e6e6f74207769746864726177206e6f6e60408201527f20726f79616c747920746f6b656e000000000000000000000000000000000000606082015260800190565b60208082526035908201527f537761704d616e616765723a2057455448206973206e6f74207265676973746560408201527f72656420696e746f2074686520706c6174666f726d0000000000000000000000606082015260800190565b60208082526036908201527f537761704d616e616765723a20746f6b656e206973206e6f742072656769737460408201527f6572656420696e746f2074686520706c6174666f726d00000000000000000000606082015260800190565b6020808252602a908201527f537761704d616e616765723a207573657220646964206e6f74206772616e7420604082015269185c1c9bdd99481e595d60b21b606082015260800190565b60208082526030908201527f416363657373436f6e74726f6c3a2073656e646572206d75737420626520616e60408201527f2061646d696e20746f207265766f6b6500000000000000000000000000000000606082015260800190565b60208082526039908201527f537761704d616e616765723a206e6f7420656e6f75676820636f6e747261637460408201527f2062616c616e636520666f7220746865207472616e7366657200000000000000606082015260800190565b60208082526033908201527f537761704d616e616765723a206d7573742068617665205452414e534645525f60408201527f524f4c4520746f207472616e6665722045746800000000000000000000000000606082015260800190565b60208082526049908201527f537761704d616e616765723a20746f6b656e20746f206265207472616e73666560408201527f7272656420746f205052495649206973206e6f742079657420617070726f76656060820152683210313c902ab9b2b960b91b608082015260a00190565b6020808252602a908201527f537761704d616e616765723a2063616e6e6f7420776974686472617720726f7960408201526930b63a3c903a37b5b2b760b11b606082015260800190565b60208082526035908201527f537761704d616e616765723a20746f6b656e206973206e6f742072656769737460408201527f65726564206f6e204272696467654d616e616765720000000000000000000000606082015260800190565b60208082526027908201527f537761704d616e616765723a2063616e6e6f7420776974686472617720616e7960408201526608185b5bdd5b9d60ca1b606082015260800190565b60208082526050908201527f537761704d616e616765723a20746f6b656e20616d6f756e7420746f2062652060408201527f7472616e7366657272656420746f205052495649206973206e6f74207965742060608201527f617070726f766564206279205573657200000000000000000000000000000000608082015260a00190565b60208082526031908201527f537761704d616e616765723a20616d6f756e74206d757374206265206772656160408201527f746572207468616e203020657468657273000000000000000000000000000000606082015260800190565b6020808252602a908201527f537761704d616e616765723a20616d6f756e74206d75737420626520677265616040820152690746572207468616e20360b41b606082015260800190565b60208082526034908201527f537761704d616e616765723a20696e73756666696369656e742066756e64732060408201527f696e20505249564920537761704d616e61676572000000000000000000000000606082015260800190565b60208082526035908201527f537761704d616e616765723a2063616e6e6f7420776974686472617720616e7960408201527f20616d6f756e7420286e6f6e20726f79616c7479290000000000000000000000606082015260800190565b60208082526036908201527f537761704d616e616765723a206d7573742068617665205452414e534645525f60408201527f524f4c4520746f20776974686472617720746f6b656e00000000000000000000606082015260800190565b60208082526031908201527f537761704d616e616765723a2063616e6e6f7420776974686472617720616e7960408201527f20616d6f756e742028726f79616c747929000000000000000000000000000000606082015260800190565b6020808252602f908201527f416363657373436f6e74726f6c3a2063616e206f6e6c792072656e6f756e636560408201527f20726f6c657320666f722073656c660000000000000000000000000000000000606082015260800190565b60405181810167ffffffffffffffff811182821017156131e9576131e96131f1565b604052919050565b634e487b7160e01b600052604160045260246000fd5b6001600160a01b038116811461321c57600080fd5b50565b801515811461321c57600080fdfea2646970667358221220a8e7070c7957333f2f2670189f6a8cf4128121175e67d8128faedacd60c8d7c664736f6c63430008000033",
  "immutableReferences": {},
  "source": "// SPDX-License-Identifier: MIT\npragma solidity ^0.8.0;\n\nimport \"@openzeppelin/contracts/access/AccessControl.sol\";\nimport \"@openzeppelin/contracts/token/ERC20/IERC20.sol\";\nimport \"@openzeppelin/contracts/token/ERC721/IERC721.sol\";\nimport \"@openzeppelin/contracts/token/ERC1155/IERC1155.sol\";\nimport \"./token/interfaces/FakeInterface.sol\";\nimport \"./interfaces/IBridgeManager.sol\";\nimport \"./interfaces/IPRIVIPodERC20Factory.sol\";\nimport \"./interfaces/IPRIVIPodERC721Factory.sol\";\nimport \"./interfaces/IPRIVIPodERC1155Factory.sol\";\nimport \"./interfaces/IPRIVIPodERC721RoyaltyFactory.sol\";\nimport \"./interfaces/IPRIVIPodERC1155RoyaltyFactory.sol\";\n\n/// @author The PRIVI Blockchain team\n/// @title Manages swap and withdraw of Ethers, ERC20 tokens and ERC721 tokens between Users and PRIVI platform\ncontract SwapManager is AccessControl {\n  bytes32 public constant TRANSFER_ROLE = keccak256(\"TRANSFER_ROLE\");\n  address private ZERO_ADDRESS = 0x0000000000000000000000000000000000000000;\n  address public bridgeManagerAddress;\n  address public erc20FactoryAddress;\n  address public erc721FactoryAddress;\n  address public erc1155FactoryAddress;\n  address public erc721RoyaltyFactoryAddress;\n  address public erc1155RoyaltyFactoryAddress;\n\n  event DepositERC20Token(\n    string indexed tokenSymbol,\n    address from,\n    uint256 amount\n  );\n  event WithdrawERC20Token(\n    string indexed tokenSymbol,\n    address to,\n    uint256 amount\n  );\n  event DepositERC721Token(\n    string indexed tokenSymbol,\n    address from,\n    uint256 tokenId\n  );\n  event WithdrawERC721Token(\n    string indexed tokenSymbol,\n    address to,\n    uint256 tokenId\n  );\n  event DepositERC1155Token(\n    string indexed tokenURI,\n    address to,\n    uint256 tokenId,\n    uint256 amount\n  );\n  event WithdrawERC1155Token(\n    string indexed tokenURI,\n    address to,\n    uint256 tokenId,\n    uint256 amount\n  );\n  event BatchWithdrawERC1155Token(\n    string indexed tokenURI,\n    address to,\n    uint256[] tokenIds,\n    uint256[] amounts\n  );\n  event DepositEther(address indexed from, uint256 amount);\n  event WithdrawEther(address indexed to, uint256 amount);\n\n  /**\n   * @notice Constructor to assign all roles to contract creator\n   */\n  constructor(\n    address bridgeDeployedAddress,\n    address erc20FactoryDeployedAddress,\n    address erc721FactoryDeployedAddress,\n    address erc1155FactoryDeployedAddress,\n    address erc721FactoryRoyaltyDeployedAddress,\n    address erc1155FactoryRoyaltyDeployedAddress\n  ) {\n    _setupRole(DEFAULT_ADMIN_ROLE, _msgSender());\n    // _setupRole(REGISTER_ROLE, _msgSender());\n    _setupRole(TRANSFER_ROLE, _msgSender());\n    bridgeManagerAddress = bridgeDeployedAddress;\n    erc20FactoryAddress = erc20FactoryDeployedAddress;\n    erc721FactoryAddress = erc721FactoryDeployedAddress;\n    erc1155FactoryAddress = erc1155FactoryDeployedAddress;\n    erc721RoyaltyFactoryAddress = erc721FactoryRoyaltyDeployedAddress;\n    erc1155RoyaltyFactoryAddress = erc1155FactoryRoyaltyDeployedAddress;\n  }\n\n  /**\n   * @notice  Transfer ERC20 token from sender address (User) to contract address (PRIVI)\n   * @dev     - Token to be transferred must be already registered\n   *          - User has to approve first the amount to be transferred WITHIN the original ERC20 token contract,\n   *          and not from this contract. Otherwise, transaction will always fail\n   * @param   tokenSymbol Name of the token to be transferred\n   * @param   amount Amount of tokens to be transferred\n   */\n  function depositERC20Token(string calldata tokenSymbol, uint256 amount)\n    external\n  {\n    IBridgeManager bManager = IBridgeManager(bridgeManagerAddress);\n    address tokenAddress = bManager.getErc20AddressRegistered(tokenSymbol);\n    require(\n      tokenAddress != ZERO_ADDRESS,\n      \"SwapManager: token is not registered into the platform\"\n    );\n    require(\n      IERC20(tokenAddress).allowance(_msgSender(), address(this)) >= amount,\n      \"SwapManager: token amount to be transferred to PRIVI is not yet approved by User\"\n    );\n    IERC20(tokenAddress).transferFrom(_msgSender(), address(this), amount);\n    emit DepositERC20Token(tokenSymbol, _msgSender(), amount);\n  }\n\n  /**\n   * @notice  Transfer ERC20 token from contract address (PRIVI) to sender address (User)\n   * @dev     - User must have TRANSFER_ROLE\n   *          - PRIVI must have enough tokens to transfer them back to User\n   * @param   tokenSymbol Name of the token to be transferred\n   * @param   to Destination address to receive the tokens\n   * @param   amount Amount of tokens to be transferred\n   */\n  function withdrawERC20Token(\n    string calldata tokenSymbol,\n    address to,\n    uint256 amount\n  ) external {\n    require(amount > 0, \"SwapManager: amount must be greater than 0\");\n    IBridgeManager bManager = IBridgeManager(bridgeManagerAddress);\n    address tokenAddress = bManager.getErc20AddressRegistered(tokenSymbol);\n    require(\n      hasRole(TRANSFER_ROLE, _msgSender()),\n      \"SwapManager: must have TRANSFER_ROLE to withdraw token\"\n    );\n    if (amount <= IERC20(tokenAddress).balanceOf(address(this))) {\n      IERC20(tokenAddress).approve(address(this), amount);\n      IERC20(tokenAddress).transferFrom(address(this), to, amount);\n      emit WithdrawERC20Token(tokenSymbol, to, amount);\n    } else if (\n      IPRIVIPodERC20Factory(erc20FactoryAddress).getPodAddressBySymbol(\n        tokenSymbol\n      ) != ZERO_ADDRESS\n    ) {\n      IPRIVIPodERC20Factory(erc20FactoryAddress).mintPodTokenBySymbol(\n        tokenSymbol,\n        to,\n        amount\n      );\n      emit WithdrawERC20Token(tokenSymbol, to, amount);\n    } else {\n      revert(\"SwapManager: cannot withdraw any amount\");\n      // only for testnet mint fake tokens\n      // FakeInterface(tokenAddress).mintForUser(to, amount);\n      // emit WithdrawERC20Token(tokenSymbol, to, amount);\n    }\n  }\n\n  /**\n   * @notice  Transfer ERC721 token from sender address (User) to contract address (PRIVI)\n   * @dev     - User must have TRANSFER_ROLE\n   *          - Token to be transferred must be already registered\n   *          - User has to approve first the amount to be transferred WITHIN the original ERC721 token contract,\n   *          and not from this contract. Otherwise, transaction will always fail\n   * @param   tokenSymbol Name of the token to be transferred\n   * @param   tokenId Token identifier to be transferred\n   */\n  function depositERC721Token(string calldata tokenSymbol, uint256 tokenId)\n    external\n  {\n    IBridgeManager bManager = IBridgeManager(bridgeManagerAddress);\n    address tokenAddress = bManager.getErc721AddressRegistered(tokenSymbol);\n    require(\n      tokenAddress != ZERO_ADDRESS,\n      \"SwapManager: token is not registered into the platform\"\n    );\n    require(\n      IERC721(tokenAddress).getApproved(tokenId) == address(this),\n      \"SwapManager: token to be transferred to PRIVI is not yet approved by User\"\n    );\n    IERC721(tokenAddress).transferFrom(_msgSender(), address(this), tokenId);\n    emit DepositERC721Token(tokenSymbol, _msgSender(), tokenId);\n  }\n\n  /**\n   * @notice  Transfer ERC721 token from contract address (PRIVI) to sender address (User)\n   * @dev     - User must have TRANSFER_ROLE\n   *          - PRIVI must have enough tokens to transfer them back to User\n   * @param   tokenSymbol Name of the token to be transferred\n   * @param   to Destination address to receive the tokens\n   * @param   tokenId Token identifier to be transferred\n   * @param   isPodMint is it a withdraw from swap manager or is it minting new nft pod token\n   */\n  function withdrawERC721Token(\n    string calldata tokenSymbol,\n    address to,\n    uint256 tokenId,\n    bool isPodMint,\n    bool isRoyalty\n  ) external {\n    IBridgeManager bManager = IBridgeManager(bridgeManagerAddress);\n    address tokenAddress = bManager.getErc721AddressRegistered(tokenSymbol);\n    require(\n      hasRole(TRANSFER_ROLE, _msgSender()),\n      \"SwapManager: must have TRANSFER_ROLE to withdraw token\"\n    );\n    if (isPodMint == true) {\n      if (isRoyalty == true) {\n        if (\n          IPRIVIPodERC721RoyaltyFactory(erc721RoyaltyFactoryAddress)\n            .getPodAddressBySymbol(tokenSymbol) != ZERO_ADDRESS\n        ) {\n          IPRIVIPodERC721RoyaltyFactory(erc721RoyaltyFactoryAddress)\n            .mintPodTokenBySymbol(tokenSymbol, to);\n          emit WithdrawERC721Token(tokenSymbol, to, tokenId);\n        } else {\n          revert(\"SwapManager: cannot withdraw royalty token\");\n        }\n      } else {\n        if (\n          IPRIVIPodERC721Factory(erc721FactoryAddress).getPodAddressBySymbol(\n            tokenSymbol\n          ) != ZERO_ADDRESS\n        ) {\n          IPRIVIPodERC721Factory(erc721FactoryAddress).mintPodTokenBySymbol(\n            tokenSymbol,\n            to\n          );\n          emit WithdrawERC721Token(tokenSymbol, to, tokenId);\n        } else {\n          revert(\"SwapManager: cannot withdraw non royalty token\");\n        }\n      }\n    } else {\n      if (IERC721(tokenAddress).ownerOf(tokenId) == address(this)) {\n        IERC721(tokenAddress).transferFrom(address(this), to, tokenId);\n        emit WithdrawERC721Token(tokenSymbol, to, tokenId);\n      } else {\n        revert(\"SwapManager: cannot withdraw non standard token\");\n      }\n    }\n  }\n\n  /**\n   * @notice  Transfer ERC1155 token from sender address (User) to contract address (PRIVI)\n   * @dev     - User must have TRANSFER_ROLE\n   *          - Token to be transferred must be already registered\n   *          - User has to approve first the amount to be transferred WITHIN the original ERC1155 token contract,\n   *          and not from this contract. Otherwise, transaction will always fail\n   * @param   tokenURI Name of the token to be transferred\n   * @param   to Destination address to receive the tokens\n   * @param   tokenId Token identifier to be transferred\n   */\n  function depositERC1155Token(\n    string calldata tokenURI,\n    address to,\n    uint256 tokenId,\n    uint256 amount,\n    bytes memory data\n  ) external {\n    IBridgeManager bManager = IBridgeManager(bridgeManagerAddress);\n    address tokenAddress = bManager.getErc1155AddressRegistered(tokenURI);\n    require(\n      tokenAddress != ZERO_ADDRESS,\n      \"SwapManager: token is not registered on BridgeManager\"\n    );\n    /* TO BE TESTED */\n    require(\n      IERC1155(tokenAddress).isApprovedForAll(msg.sender, address(this)) ==\n        true,\n      \"SwapManager: user did not grant aprove yet\"\n    );\n    IERC1155(tokenAddress).safeTransferFrom(\n      msg.sender,\n      to,\n      tokenId,\n      amount,\n      data\n    );\n    emit DepositERC1155Token(tokenURI, to, tokenId, amount);\n  }\n\n  /**\n   * @notice  Transfer ERC1155 token from contract address (PRIVI) to address (User)\n   * @dev     - PRIVI must have enough tokens to transfer them to User\n   *          or is has to be isPodMint.\n   * @param   tokenURI Name of the token to be transferred\n   * @param   to Destination address to receive the tokens\n   * @param   tokenId Token identifier to be transferred\n   * @param   amount Token amount to be transfered\n   * @param   data bytes\n   */\n  function withdrawERC1155Token(\n    string calldata tokenURI,\n    address to,\n    uint256 tokenId,\n    uint256 amount,\n    bytes memory data,\n    bool isPodMint,\n    bool isRoyalty\n  ) external {\n    IBridgeManager bManager = IBridgeManager(bridgeManagerAddress);\n    address tokenAddress = bManager.getErc1155AddressRegistered(tokenURI);\n    require(\n      hasRole(TRANSFER_ROLE, _msgSender()),\n      \"SwapManager: must have TRANSFER_ROLE to withdraw token\"\n    );\n    if (isPodMint == true) {\n      if (isRoyalty) {\n        if (\n          IPRIVIPodERC1155RoyaltyFactory(erc1155FactoryAddress)\n            .getPodAddressByUri(tokenURI) != ZERO_ADDRESS\n        ) {\n          IPRIVIPodERC1155RoyaltyFactory(erc1155FactoryAddress).podMint(\n            tokenURI,\n            to,\n            tokenId,\n            amount,\n            data\n          );\n          emit WithdrawERC1155Token(tokenURI, to, tokenId, amount);\n        } else {\n          revert(\"SwapManager: cannot withdraw any amount (royalty)\");\n        }\n      } else {\n        if (\n          IPRIVIPodERC1155Factory(erc1155FactoryAddress).getPodAddressByUri(\n            tokenURI\n          ) != ZERO_ADDRESS\n        ) {\n          IPRIVIPodERC1155Factory(erc1155FactoryAddress).podMint(\n            tokenURI,\n            to,\n            tokenId,\n            amount,\n            data\n          );\n          emit WithdrawERC1155Token(tokenURI, to, tokenId, amount);\n        } else {\n          revert(\"SwapManager: cannot withdraw any amount (non royalty)\");\n        }\n      }\n    } else {\n      require(\n        IERC1155(tokenAddress).balanceOf(address(this), tokenId) >= amount,\n        \"SwapManager: insufficient funds in PRIVI SwapManager\"\n      );\n      IERC1155(tokenAddress).safeTransferFrom(\n        address(this),\n        to,\n        tokenId,\n        amount,\n        data\n      );\n      emit WithdrawERC1155Token(tokenURI, to, tokenId, amount);\n    }\n  }\n\n  /**\n   * @notice  Batch Transfer ERC1155 token from contract address (PRIVI) to address (User)\n   * @dev     - PRIVI must have enough tokens to transfer them to User\n   *          or is has to be isPodMint.\n   * @param   tokenURI Name of the token to be transferred\n   * @param   to Destination address to receive the tokens\n   * @param   tokenIds Token identifiers to be transferred\n   * @param   amounts Token amounts to be transfered\n   * @param   data bytes\n   */\n  function batchWithdrawERC1155Token(\n    string calldata tokenURI,\n    address to,\n    uint256[] memory tokenIds,\n    uint256[] memory amounts,\n    bytes memory data,\n    bool isPodMint\n  ) external {\n    IBridgeManager bManager = IBridgeManager(bridgeManagerAddress);\n    address tokenAddress = bManager.getErc1155AddressRegistered(tokenURI);\n    require(\n      hasRole(TRANSFER_ROLE, _msgSender()),\n      \"SwapManager: must have TRANSFER_ROLE to withdraw token\"\n    );\n    if (isPodMint == true) {\n      if (\n        IPRIVIPodERC1155Factory(erc1155FactoryAddress).getPodAddressByUri(\n          tokenURI\n        ) != ZERO_ADDRESS\n      ) {\n        IPRIVIPodERC1155Factory(erc1155FactoryAddress).podMintBatch(\n          tokenURI,\n          to,\n          tokenIds,\n          amounts,\n          data\n        );\n        emit BatchWithdrawERC1155Token(tokenURI, to, tokenIds, amounts);\n      } else {\n        revert(\"SwapManager: cannot withdraw any amount\");\n      }\n    } else {\n      IERC1155(tokenAddress).safeBatchTransferFrom(\n        address(this),\n        to,\n        tokenIds,\n        amounts,\n        data\n      );\n      emit BatchWithdrawERC1155Token(tokenURI, to, tokenIds, amounts);\n    }\n  }\n\n  /**\n   * @notice  Transfer ether from sender address to contract address\n   * @dev     - Amount to be deposited must be greater than 0 ethers\n   */\n  function depositEther() external payable {\n    require(msg.value > 0, \"SwapManager: amount must be greater than 0 ethers\");\n    emit DepositEther(_msgSender(), msg.value);\n  }\n\n  /**\n   * @notice  Transfer ether from contract address to sender address\n   * @dev     - Sender must have TRANSFER_ROLE\n   *          - Contract must have enough balance to do the transfer\n   * @param   to Destination address to receive the ether\n   * @param   amount Amount of ether to be transferred\n   */\n  function withdrawEther(address to, uint256 amount) external {\n    require(\n      hasRole(TRANSFER_ROLE, _msgSender()),\n      \"SwapManager: must have TRANSFER_ROLE to tranfer Eth\"\n    );\n    require(\n      payable(address(this)).balance >= amount,\n      \"SwapManager: not enough contract balance for the transfer\"\n    );\n\n    address payable recipient = payable(to);\n\n    if (amount <= address(this).balance) {\n      recipient.transfer(amount);\n    } else {\n      IBridgeManager bManager = IBridgeManager(bridgeManagerAddress);\n      address tokenAddress = bManager.getErc20AddressRegistered(\"WETH\");\n      require(\n        tokenAddress != ZERO_ADDRESS,\n        \"SwapManager: WETH is not registered into the platform\"\n      );\n      FakeInterface(tokenAddress).mintForUser(to, amount);\n    }\n\n    emit WithdrawEther(to, amount);\n  }\n\n  /**\n   * @return  Contract balance in weis\n   */\n  function getBalance() external view returns (uint256) {\n    return payable(address(this)).balance;\n  }\n}\n",
  "sourcePath": "/Users/sergijuanati/Dropbox/Docs/2. Work/16. Privi/3. Code/getcache_ethereum/contracts/SwapManager.sol",
  "compiler": {
    "name": "solc",
    "version": "0.8.0+commit.c7dfd78e.Emscripten.clang"
  },
  "schemaVersion": "3.3.2",
  "updatedAt": "2021-03-31T17:05:12.546Z",
  "devdoc": {
    "author": "The PRIVI Blockchain team",
    "kind": "dev",
    "methods": {
      "batchWithdrawERC1155Token(string,address,uint256[],uint256[],bytes,bool)": {
        "details": "- PRIVI must have enough tokens to transfer them to User          or is has to be isPodMint.",
        "params": {
          "amounts": "Token amounts to be transfered",
          "data": "bytes",
          "to": "Destination address to receive the tokens",
          "tokenIds": "Token identifiers to be transferred",
          "tokenURI": "Name of the token to be transferred"
        }
      },
      "depositERC1155Token(string,address,uint256,uint256,bytes)": {
        "details": "- User must have TRANSFER_ROLE          - Token to be transferred must be already registered          - User has to approve first the amount to be transferred WITHIN the original ERC1155 token contract,          and not from this contract. Otherwise, transaction will always fail",
        "params": {
          "to": "Destination address to receive the tokens",
          "tokenId": "Token identifier to be transferred",
          "tokenURI": "Name of the token to be transferred"
        }
      },
      "depositERC20Token(string,uint256)": {
        "details": "- Token to be transferred must be already registered          - User has to approve first the amount to be transferred WITHIN the original ERC20 token contract,          and not from this contract. Otherwise, transaction will always fail",
        "params": {
          "amount": "Amount of tokens to be transferred",
          "tokenSymbol": "Name of the token to be transferred"
        }
      },
      "depositERC721Token(string,uint256)": {
        "details": "- User must have TRANSFER_ROLE          - Token to be transferred must be already registered          - User has to approve first the amount to be transferred WITHIN the original ERC721 token contract,          and not from this contract. Otherwise, transaction will always fail",
        "params": {
          "tokenId": "Token identifier to be transferred",
          "tokenSymbol": "Name of the token to be transferred"
        }
      },
      "depositEther()": {
        "details": "- Amount to be deposited must be greater than 0 ethers"
      },
      "getBalance()": {
        "returns": {
          "_0": "Contract balance in weis"
        }
      },
      "getRoleAdmin(bytes32)": {
        "details": "Returns the admin role that controls `role`. See {grantRole} and {revokeRole}. To change a role's admin, use {_setRoleAdmin}."
      },
      "grantRole(bytes32,address)": {
        "details": "Grants `role` to `account`. If `account` had not been already granted `role`, emits a {RoleGranted} event. Requirements: - the caller must have ``role``'s admin role."
      },
      "hasRole(bytes32,address)": {
        "details": "Returns `true` if `account` has been granted `role`."
      },
      "renounceRole(bytes32,address)": {
        "details": "Revokes `role` from the calling account. Roles are often managed via {grantRole} and {revokeRole}: this function's purpose is to provide a mechanism for accounts to lose their privileges if they are compromised (such as when a trusted device is misplaced). If the calling account had been granted `role`, emits a {RoleRevoked} event. Requirements: - the caller must be `account`."
      },
      "revokeRole(bytes32,address)": {
        "details": "Revokes `role` from `account`. If `account` had been granted `role`, emits a {RoleRevoked} event. Requirements: - the caller must have ``role``'s admin role."
      },
      "supportsInterface(bytes4)": {
        "details": "See {IERC165-supportsInterface}."
      },
      "withdrawERC1155Token(string,address,uint256,uint256,bytes,bool,bool)": {
        "details": "- PRIVI must have enough tokens to transfer them to User          or is has to be isPodMint.",
        "params": {
          "amount": "Token amount to be transfered",
          "data": "bytes",
          "to": "Destination address to receive the tokens",
          "tokenId": "Token identifier to be transferred",
          "tokenURI": "Name of the token to be transferred"
        }
      },
      "withdrawERC20Token(string,address,uint256)": {
        "details": "- User must have TRANSFER_ROLE          - PRIVI must have enough tokens to transfer them back to User",
        "params": {
          "amount": "Amount of tokens to be transferred",
          "to": "Destination address to receive the tokens",
          "tokenSymbol": "Name of the token to be transferred"
        }
      },
      "withdrawERC721Token(string,address,uint256,bool,bool)": {
        "details": "- User must have TRANSFER_ROLE          - PRIVI must have enough tokens to transfer them back to User",
        "params": {
          "isPodMint": "is it a withdraw from swap manager or is it minting new nft pod token",
          "to": "Destination address to receive the tokens",
          "tokenId": "Token identifier to be transferred",
          "tokenSymbol": "Name of the token to be transferred"
        }
      },
      "withdrawEther(address,uint256)": {
        "details": "- Sender must have TRANSFER_ROLE          - Contract must have enough balance to do the transfer",
        "params": {
          "amount": "Amount of ether to be transferred",
          "to": "Destination address to receive the ether"
        }
      }
    },
    "title": "Manages swap and withdraw of Ethers, ERC20 tokens and ERC721 tokens between Users and PRIVI platform",
    "version": 1
  },
  "userdoc": {
    "kind": "user",
    "methods": {
      "batchWithdrawERC1155Token(string,address,uint256[],uint256[],bytes,bool)": {
        "notice": "Batch Transfer ERC1155 token from contract address (PRIVI) to address (User)"
      },
      "constructor": {
        "notice": "Constructor to assign all roles to contract creator"
      },
      "depositERC1155Token(string,address,uint256,uint256,bytes)": {
        "notice": "Transfer ERC1155 token from sender address (User) to contract address (PRIVI)"
      },
      "depositERC20Token(string,uint256)": {
        "notice": "Transfer ERC20 token from sender address (User) to contract address (PRIVI)"
      },
      "depositERC721Token(string,uint256)": {
        "notice": "Transfer ERC721 token from sender address (User) to contract address (PRIVI)"
      },
      "depositEther()": {
        "notice": "Transfer ether from sender address to contract address"
      },
      "withdrawERC1155Token(string,address,uint256,uint256,bytes,bool,bool)": {
        "notice": "Transfer ERC1155 token from contract address (PRIVI) to address (User)"
      },
      "withdrawERC20Token(string,address,uint256)": {
        "notice": "Transfer ERC20 token from contract address (PRIVI) to sender address (User)"
      },
      "withdrawERC721Token(string,address,uint256,bool,bool)": {
        "notice": "Transfer ERC721 token from contract address (PRIVI) to sender address (User)"
      },
      "withdrawEther(address,uint256)": {
        "notice": "Transfer ether from contract address to sender address"
      }
    },
    "version": 1
  }
}